{
  "contractName": "ACHouse",
  "abi": [
    {
      "inputs": [
        {
          "internalType": "address",
          "name": "_mToken",
          "type": "address"
        },
        {
          "internalType": "address",
          "name": "_nToken",
          "type": "address"
        }
      ],
      "stateMutability": "nonpayable",
      "type": "constructor"
    },
    {
      "anonymous": false,
      "inputs": [
        {
          "indexed": true,
          "internalType": "uint256",
          "name": "itemId",
          "type": "uint256"
        },
        {
          "indexed": true,
          "internalType": "address",
          "name": "nftContract",
          "type": "address"
        },
        {
          "indexed": true,
          "internalType": "uint256",
          "name": "tokenId",
          "type": "uint256"
        },
        {
          "indexed": false,
          "internalType": "address",
          "name": "seller",
          "type": "address"
        },
        {
          "indexed": false,
          "internalType": "address",
          "name": "fractionalContract",
          "type": "address"
        },
        {
          "indexed": false,
          "internalType": "uint256",
          "name": "shardId",
          "type": "uint256"
        },
        {
          "indexed": false,
          "internalType": "uint256",
          "name": "supplyMinted",
          "type": "uint256"
        },
        {
          "indexed": false,
          "internalType": "uint256",
          "name": "supplyRemaining",
          "type": "uint256"
        },
        {
          "indexed": false,
          "internalType": "bool",
          "name": "isMultiToken",
          "type": "bool"
        }
      ],
      "name": "FractionalTokenCreated",
      "type": "event"
    },
    {
      "anonymous": false,
      "inputs": [
        {
          "indexed": true,
          "internalType": "uint256",
          "name": "itemId",
          "type": "uint256"
        },
        {
          "indexed": true,
          "internalType": "address",
          "name": "nftContract",
          "type": "address"
        },
        {
          "indexed": true,
          "internalType": "uint256",
          "name": "tokenId",
          "type": "uint256"
        },
        {
          "indexed": false,
          "internalType": "address",
          "name": "seller",
          "type": "address"
        },
        {
          "indexed": false,
          "internalType": "uint256",
          "name": "price",
          "type": "uint256"
        },
        {
          "indexed": false,
          "internalType": "uint256",
          "name": "amount",
          "type": "uint256"
        },
        {
          "indexed": false,
          "internalType": "uint256",
          "name": "charityId",
          "type": "uint256"
        },
        {
          "indexed": false,
          "internalType": "uint256",
          "name": "auctionTime",
          "type": "uint256"
        },
        {
          "indexed": false,
          "internalType": "bool",
          "name": "sold",
          "type": "bool"
        },
        {
          "indexed": false,
          "internalType": "bool",
          "name": "isMultiToken",
          "type": "bool"
        },
        {
          "indexed": false,
          "internalType": "bool",
          "name": "isRemoved",
          "type": "bool"
        },
        {
          "indexed": false,
          "internalType": "bool",
          "name": "isFrac",
          "type": "bool"
        }
      ],
      "name": "MarketItemCreated",
      "type": "event"
    },
    {
      "anonymous": false,
      "inputs": [
        {
          "indexed": true,
          "internalType": "uint256",
          "name": "itemId",
          "type": "uint256"
        },
        {
          "indexed": true,
          "internalType": "address",
          "name": "nftContract",
          "type": "address"
        },
        {
          "indexed": true,
          "internalType": "uint256",
          "name": "tokenId",
          "type": "uint256"
        },
        {
          "indexed": false,
          "internalType": "address",
          "name": "seller",
          "type": "address"
        },
        {
          "indexed": false,
          "internalType": "address",
          "name": "owner",
          "type": "address"
        },
        {
          "indexed": false,
          "internalType": "uint256",
          "name": "price",
          "type": "uint256"
        },
        {
          "indexed": false,
          "internalType": "bool",
          "name": "sold",
          "type": "bool"
        }
      ],
      "name": "MarketItemSold",
      "type": "event"
    },
    {
      "inputs": [
        {
          "internalType": "uint256",
          "name": "",
          "type": "uint256"
        }
      ],
      "name": "ngoArray",
      "outputs": [
        {
          "internalType": "uint256",
          "name": "id",
          "type": "uint256"
        },
        {
          "internalType": "string",
          "name": "name",
          "type": "string"
        },
        {
          "internalType": "address",
          "name": "charityAddress",
          "type": "address"
        }
      ],
      "stateMutability": "view",
      "type": "function",
      "constant": true
    },
    {
      "inputs": [
        {
          "internalType": "address",
          "name": "",
          "type": "address"
        },
        {
          "internalType": "address",
          "name": "",
          "type": "address"
        },
        {
          "internalType": "uint256[]",
          "name": "",
          "type": "uint256[]"
        },
        {
          "internalType": "uint256[]",
          "name": "",
          "type": "uint256[]"
        },
        {
          "internalType": "bytes",
          "name": "",
          "type": "bytes"
        }
      ],
      "name": "onERC1155BatchReceived",
      "outputs": [
        {
          "internalType": "bytes4",
          "name": "",
          "type": "bytes4"
        }
      ],
      "stateMutability": "nonpayable",
      "type": "function"
    },
    {
      "inputs": [
        {
          "internalType": "address",
          "name": "",
          "type": "address"
        },
        {
          "internalType": "address",
          "name": "",
          "type": "address"
        },
        {
          "internalType": "uint256",
          "name": "",
          "type": "uint256"
        },
        {
          "internalType": "uint256",
          "name": "",
          "type": "uint256"
        },
        {
          "internalType": "bytes",
          "name": "",
          "type": "bytes"
        }
      ],
      "name": "onERC1155Received",
      "outputs": [
        {
          "internalType": "bytes4",
          "name": "",
          "type": "bytes4"
        }
      ],
      "stateMutability": "nonpayable",
      "type": "function"
    },
    {
      "inputs": [
        {
          "internalType": "address",
          "name": "",
          "type": "address"
        },
        {
          "internalType": "address",
          "name": "",
          "type": "address"
        },
        {
          "internalType": "uint256",
          "name": "",
          "type": "uint256"
        },
        {
          "internalType": "bytes",
          "name": "",
          "type": "bytes"
        }
      ],
      "name": "onERC721Received",
      "outputs": [
        {
          "internalType": "bytes4",
          "name": "",
          "type": "bytes4"
        }
      ],
      "stateMutability": "nonpayable",
      "type": "function"
    },
    {
      "inputs": [
        {
          "internalType": "bytes4",
          "name": "interfaceId",
          "type": "bytes4"
        }
      ],
      "name": "supportsInterface",
      "outputs": [
        {
          "internalType": "bool",
          "name": "",
          "type": "bool"
        }
      ],
      "stateMutability": "view",
      "type": "function",
      "constant": true
    },
    {
      "inputs": [
        {
          "internalType": "address",
          "name": "charityAddress",
          "type": "address"
        },
        {
          "internalType": "string",
          "name": "name",
          "type": "string"
        }
      ],
      "name": "addCharity",
      "outputs": [],
      "stateMutability": "nonpayable",
      "type": "function"
    },
    {
      "inputs": [
        {
          "internalType": "uint256",
          "name": "_id",
          "type": "uint256"
        }
      ],
      "name": "getCharityInfo",
      "outputs": [
        {
          "components": [
            {
              "internalType": "uint256",
              "name": "id",
              "type": "uint256"
            },
            {
              "internalType": "string",
              "name": "name",
              "type": "string"
            },
            {
              "internalType": "address",
              "name": "charityAddress",
              "type": "address"
            }
          ],
          "internalType": "struct ACHouse.NGO",
          "name": "",
          "type": "tuple"
        }
      ],
      "stateMutability": "view",
      "type": "function",
      "constant": true
    },
    {
      "inputs": [
        {
          "internalType": "address",
          "name": "nftContract",
          "type": "address"
        },
        {
          "internalType": "uint256",
          "name": "tokenId",
          "type": "uint256"
        },
        {
          "internalType": "uint256",
          "name": "price",
          "type": "uint256"
        },
        {
          "internalType": "uint256",
          "name": "amount",
          "type": "uint256"
        },
        {
          "internalType": "uint256",
          "name": "_charityId",
          "type": "uint256"
        },
        {
          "internalType": "uint256",
          "name": "auctionTime",
          "type": "uint256"
        },
        {
          "internalType": "bool",
          "name": "isFrac",
          "type": "bool"
        }
      ],
      "name": "create1155MarketItem",
      "outputs": [
        {
          "internalType": "uint256",
          "name": "",
          "type": "uint256"
        }
      ],
      "stateMutability": "payable",
      "type": "function",
      "payable": true
    },
    {
      "inputs": [
        {
          "internalType": "address",
          "name": "nftContract",
          "type": "address"
        },
        {
          "internalType": "uint256",
          "name": "tokenId",
          "type": "uint256"
        },
        {
          "internalType": "uint256",
          "name": "price",
          "type": "uint256"
        },
        {
          "internalType": "uint256",
          "name": "_charityId",
          "type": "uint256"
        },
        {
          "internalType": "uint256",
          "name": "auctionTime",
          "type": "uint256"
        },
        {
          "internalType": "bool",
          "name": "isFrac",
          "type": "bool"
        }
      ],
      "name": "create721MarketItem",
      "outputs": [
        {
          "internalType": "uint256",
          "name": "",
          "type": "uint256"
        }
      ],
      "stateMutability": "payable",
      "type": "function",
      "payable": true
    },
    {
      "inputs": [
        {
          "internalType": "uint256",
          "name": "itemId",
          "type": "uint256"
        }
      ],
      "name": "removeMarketPlaceItem",
      "outputs": [],
      "stateMutability": "nonpayable",
      "type": "function"
    },
    {
      "inputs": [
        {
          "internalType": "uint256",
          "name": "itemId",
          "type": "uint256"
        }
      ],
      "name": "addMarketPlaceItem",
      "outputs": [],
      "stateMutability": "nonpayable",
      "type": "function"
    },
    {
      "inputs": [
        {
          "internalType": "address",
          "name": "nftContract",
          "type": "address"
        },
        {
          "internalType": "uint256",
          "name": "itemId",
          "type": "uint256"
        }
      ],
      "name": "createMarketSale",
      "outputs": [],
      "stateMutability": "payable",
      "type": "function",
      "payable": true
    },
    {
      "inputs": [
        {
          "internalType": "uint256",
          "name": "_id",
          "type": "uint256"
        }
      ],
      "name": "fetchMarketItem",
      "outputs": [
        {
          "components": [
            {
              "internalType": "uint256",
              "name": "itemId",
              "type": "uint256"
            },
            {
              "internalType": "address",
              "name": "nftContract",
              "type": "address"
            },
            {
              "internalType": "uint256",
              "name": "tokenId",
              "type": "uint256"
            },
            {
              "internalType": "address payable",
              "name": "seller",
              "type": "address"
            },
            {
              "internalType": "address payable",
              "name": "owner",
              "type": "address"
            },
            {
              "internalType": "uint256",
              "name": "price",
              "type": "uint256"
            },
            {
              "internalType": "uint256",
              "name": "amount",
              "type": "uint256"
            },
            {
              "internalType": "uint256",
              "name": "charityId",
              "type": "uint256"
            },
            {
              "internalType": "uint256",
              "name": "auctionTime",
              "type": "uint256"
            },
            {
              "internalType": "bool",
              "name": "sold",
              "type": "bool"
            },
            {
              "internalType": "bool",
              "name": "isMultiToken",
              "type": "bool"
            },
            {
              "internalType": "bool",
              "name": "isRemoved",
              "type": "bool"
            },
            {
              "internalType": "bool",
              "name": "isFrac",
              "type": "bool"
            }
          ],
          "internalType": "struct ACHouse.MarketItem",
          "name": "",
          "type": "tuple"
        }
      ],
      "stateMutability": "view",
      "type": "function",
      "constant": true
    },
    {
      "inputs": [],
      "name": "fetchUnSoldMarketItems",
      "outputs": [
        {
          "components": [
            {
              "internalType": "uint256",
              "name": "itemId",
              "type": "uint256"
            },
            {
              "internalType": "address",
              "name": "nftContract",
              "type": "address"
            },
            {
              "internalType": "uint256",
              "name": "tokenId",
              "type": "uint256"
            },
            {
              "internalType": "address payable",
              "name": "seller",
              "type": "address"
            },
            {
              "internalType": "address payable",
              "name": "owner",
              "type": "address"
            },
            {
              "internalType": "uint256",
              "name": "price",
              "type": "uint256"
            },
            {
              "internalType": "uint256",
              "name": "amount",
              "type": "uint256"
            },
            {
              "internalType": "uint256",
              "name": "charityId",
              "type": "uint256"
            },
            {
              "internalType": "uint256",
              "name": "auctionTime",
              "type": "uint256"
            },
            {
              "internalType": "bool",
              "name": "sold",
              "type": "bool"
            },
            {
              "internalType": "bool",
              "name": "isMultiToken",
              "type": "bool"
            },
            {
              "internalType": "bool",
              "name": "isRemoved",
              "type": "bool"
            },
            {
              "internalType": "bool",
              "name": "isFrac",
              "type": "bool"
            }
          ],
          "internalType": "struct ACHouse.MarketItem[]",
          "name": "",
          "type": "tuple[]"
        }
      ],
      "stateMutability": "view",
      "type": "function",
      "constant": true
    },
    {
      "inputs": [],
      "name": "fetchMyNFTs",
      "outputs": [
        {
          "components": [
            {
              "internalType": "uint256",
              "name": "itemId",
              "type": "uint256"
            },
            {
              "internalType": "address",
              "name": "nftContract",
              "type": "address"
            },
            {
              "internalType": "uint256",
              "name": "tokenId",
              "type": "uint256"
            },
            {
              "internalType": "address payable",
              "name": "seller",
              "type": "address"
            },
            {
              "internalType": "address payable",
              "name": "owner",
              "type": "address"
            },
            {
              "internalType": "uint256",
              "name": "price",
              "type": "uint256"
            },
            {
              "internalType": "uint256",
              "name": "amount",
              "type": "uint256"
            },
            {
              "internalType": "uint256",
              "name": "charityId",
              "type": "uint256"
            },
            {
              "internalType": "uint256",
              "name": "auctionTime",
              "type": "uint256"
            },
            {
              "internalType": "bool",
              "name": "sold",
              "type": "bool"
            },
            {
              "internalType": "bool",
              "name": "isMultiToken",
              "type": "bool"
            },
            {
              "internalType": "bool",
              "name": "isRemoved",
              "type": "bool"
            },
            {
              "internalType": "bool",
              "name": "isFrac",
              "type": "bool"
            }
          ],
          "internalType": "struct ACHouse.MarketItem[]",
          "name": "",
          "type": "tuple[]"
        }
      ],
      "stateMutability": "view",
      "type": "function",
      "constant": true
    },
    {
      "inputs": [],
      "name": "fetchItemsCreated",
      "outputs": [
        {
          "components": [
            {
              "internalType": "uint256",
              "name": "itemId",
              "type": "uint256"
            },
            {
              "internalType": "address",
              "name": "nftContract",
              "type": "address"
            },
            {
              "internalType": "uint256",
              "name": "tokenId",
              "type": "uint256"
            },
            {
              "internalType": "address payable",
              "name": "seller",
              "type": "address"
            },
            {
              "internalType": "address payable",
              "name": "owner",
              "type": "address"
            },
            {
              "internalType": "uint256",
              "name": "price",
              "type": "uint256"
            },
            {
              "internalType": "uint256",
              "name": "amount",
              "type": "uint256"
            },
            {
              "internalType": "uint256",
              "name": "charityId",
              "type": "uint256"
            },
            {
              "internalType": "uint256",
              "name": "auctionTime",
              "type": "uint256"
            },
            {
              "internalType": "bool",
              "name": "sold",
              "type": "bool"
            },
            {
              "internalType": "bool",
              "name": "isMultiToken",
              "type": "bool"
            },
            {
              "internalType": "bool",
              "name": "isRemoved",
              "type": "bool"
            },
            {
              "internalType": "bool",
              "name": "isFrac",
              "type": "bool"
            }
          ],
          "internalType": "struct ACHouse.MarketItem[]",
          "name": "",
          "type": "tuple[]"
        }
      ],
      "stateMutability": "view",
      "type": "function",
      "constant": true
    },
    {
      "inputs": [
        {
          "internalType": "string",
          "name": "_name",
          "type": "string"
        },
        {
          "internalType": "uint256",
          "name": "_userType",
          "type": "uint256"
        }
      ],
      "name": "register",
      "outputs": [
        {
          "internalType": "bool",
          "name": "",
          "type": "bool"
        }
      ],
      "stateMutability": "nonpayable",
      "type": "function"
    },
    {
      "inputs": [
        {
          "internalType": "string",
          "name": "_uri",
          "type": "string"
        }
      ],
      "name": "setURI1155",
      "outputs": [],
      "stateMutability": "nonpayable",
      "type": "function"
    },
    {
      "inputs": [
        {
          "internalType": "uint256",
          "name": "_tokenId",
          "type": "uint256"
        }
      ],
      "name": "getTokenURI",
      "outputs": [
        {
          "internalType": "string",
          "name": "",
          "type": "string"
        }
      ],
      "stateMutability": "view",
      "type": "function",
      "constant": true
    },
    {
      "inputs": [
        {
          "internalType": "uint256",
          "name": "_id",
          "type": "uint256"
        },
        {
          "internalType": "uint256",
          "name": "_amount",
          "type": "uint256"
        }
      ],
      "name": "createNFT1155",
      "outputs": [],
      "stateMutability": "nonpayable",
      "type": "function"
    },
    {
      "inputs": [],
      "name": "getTokenCount",
      "outputs": [
        {
          "internalType": "uint256",
          "name": "",
          "type": "uint256"
        }
      ],
      "stateMutability": "view",
      "type": "function",
      "constant": true
    },
    {
      "inputs": [],
      "name": "getTokenIds",
      "outputs": [
        {
          "internalType": "uint256[]",
          "name": "",
          "type": "uint256[]"
        }
      ],
      "stateMutability": "view",
      "type": "function",
      "constant": true
    },
    {
      "inputs": [
        {
          "internalType": "uint256",
          "name": "_tokenId",
          "type": "uint256"
        }
      ],
      "name": "getTokenSupply",
      "outputs": [
        {
          "internalType": "uint256",
          "name": "",
          "type": "uint256"
        }
      ],
      "stateMutability": "view",
      "type": "function",
      "constant": true
    },
    {
      "inputs": [
        {
          "internalType": "address",
          "name": "nftContract",
          "type": "address"
        },
        {
          "internalType": "uint256",
          "name": "tokenId",
          "type": "uint256"
        },
        {
          "internalType": "uint256",
          "name": "shardId",
          "type": "uint256"
        },
        {
          "internalType": "uint256",
          "name": "supplyToCreate",
          "type": "uint256"
        },
        {
          "internalType": "string",
          "name": "uri",
          "type": "string"
        },
        {
          "internalType": "bool",
          "name": "isMultiToken",
          "type": "bool"
        }
      ],
      "name": "fractionalize1155NFT",
      "outputs": [
        {
          "internalType": "uint256",
          "name": "",
          "type": "uint256"
        }
      ],
      "stateMutability": "nonpayable",
      "type": "function"
    },
    {
      "inputs": [
        {
          "internalType": "address",
          "name": "nftContract",
          "type": "address"
        },
        {
          "internalType": "uint256",
          "name": "tokenId",
          "type": "uint256"
        },
        {
          "internalType": "uint256",
          "name": "shardId",
          "type": "uint256"
        },
        {
          "internalType": "uint256",
          "name": "supplyToCreate",
          "type": "uint256"
        },
        {
          "internalType": "string",
          "name": "uri",
          "type": "string"
        },
        {
          "internalType": "bool",
          "name": "isMultiToken",
          "type": "bool"
        }
      ],
      "name": "fractionalize721NFT",
      "outputs": [
        {
          "internalType": "uint256",
          "name": "",
          "type": "uint256"
        }
      ],
      "stateMutability": "nonpayable",
      "type": "function"
    },
    {
      "inputs": [
        {
          "internalType": "uint256",
          "name": "_fracId",
          "type": "uint256"
        }
      ],
      "name": "getFractionalInformation",
      "outputs": [
        {
          "components": [
            {
              "internalType": "uint256",
              "name": "itemId",
              "type": "uint256"
            },
            {
              "internalType": "address",
              "name": "nftContract",
              "type": "address"
            },
            {
              "internalType": "uint256",
              "name": "tokenId",
              "type": "uint256"
            },
            {
              "internalType": "address payable",
              "name": "seller",
              "type": "address"
            },
            {
              "internalType": "address payable",
              "name": "owner",
              "type": "address"
            },
            {
              "internalType": "address",
              "name": "fractionalContract",
              "type": "address"
            },
            {
              "internalType": "uint256",
              "name": "shardId",
              "type": "uint256"
            },
            {
              "internalType": "uint256",
              "name": "supplyMinted",
              "type": "uint256"
            },
            {
              "internalType": "uint256",
              "name": "supplyRemaining",
              "type": "uint256"
            },
            {
              "internalType": "bool",
              "name": "isMultiToken",
              "type": "bool"
            }
          ],
          "internalType": "struct ACHouse.FractionalizeToken",
          "name": "",
          "type": "tuple"
        }
      ],
      "stateMutability": "view",
      "type": "function",
      "constant": true
    },
    {
      "inputs": [
        {
          "internalType": "uint256",
          "name": "_id",
          "type": "uint256"
        },
        {
          "internalType": "string",
          "name": "uri",
          "type": "string"
        },
        {
          "internalType": "string",
          "name": "name",
          "type": "string"
        },
        {
          "internalType": "string",
          "name": "symbol",
          "type": "string"
        }
      ],
      "name": "createNFT721",
      "outputs": [],
      "stateMutability": "nonpayable",
      "type": "function"
    },
    {
      "inputs": [],
      "name": "get721TokenCount",
      "outputs": [
        {
          "internalType": "uint256",
          "name": "",
          "type": "uint256"
        }
      ],
      "stateMutability": "view",
      "type": "function",
      "constant": true
    },
    {
      "inputs": [],
      "name": "get721TokenIds",
      "outputs": [
        {
          "internalType": "uint256[]",
          "name": "",
          "type": "uint256[]"
        }
      ],
      "stateMutability": "view",
      "type": "function",
      "constant": true
    },
    {
      "inputs": [
        {
          "internalType": "uint256",
          "name": "_id",
          "type": "uint256"
        }
      ],
      "name": "get721TokenName",
      "outputs": [
        {
          "internalType": "string",
          "name": "",
          "type": "string"
        }
      ],
      "stateMutability": "view",
      "type": "function",
      "constant": true
    },
    {
      "inputs": [
        {
          "internalType": "uint256",
          "name": "_id",
          "type": "uint256"
        }
      ],
      "name": "get721TokenSymbol",
      "outputs": [
        {
          "internalType": "string",
          "name": "",
          "type": "string"
        }
      ],
      "stateMutability": "view",
      "type": "function",
      "constant": true
    },
    {
      "inputs": [
        {
          "internalType": "uint256",
          "name": "_id",
          "type": "uint256"
        }
      ],
      "name": "get721TokenURI",
      "outputs": [
        {
          "internalType": "string",
          "name": "",
          "type": "string"
        }
      ],
      "stateMutability": "view",
      "type": "function",
      "constant": true
    },
    {
      "inputs": [
        {
          "internalType": "uint256",
          "name": "v",
          "type": "uint256"
        }
      ],
      "name": "uint2str",
      "outputs": [
        {
          "internalType": "string",
          "name": "",
          "type": "string"
        }
      ],
      "stateMutability": "pure",
      "type": "function",
      "constant": true
    }
  ],
  "bytecode": "0x608060405260006009556000600a556000600b556000600c553480156200002557600080fd5b50604051620060ba380380620060ba83398181016040528101906200004b919062000257565b600160008190555081600660006101000a81548173ffffffffffffffffffffffffffffffffffffffff021916908373ffffffffffffffffffffffffffffffffffffffff16021790555080600760006101000a81548173ffffffffffffffffffffffffffffffffffffffff021916908373ffffffffffffffffffffffffffffffffffffffff160217905550600660009054906101000a900473ffffffffffffffffffffffffffffffffffffffff1673ffffffffffffffffffffffffffffffffffffffff1663fa5afe40306040518263ffffffff1660e01b8152600401620001329190620002a9565b600060405180830381600087803b1580156200014d57600080fd5b505af115801562000162573d6000803e3d6000fd5b50505050600760009054906101000a900473ffffffffffffffffffffffffffffffffffffffff1673ffffffffffffffffffffffffffffffffffffffff1663fa5afe40306040518263ffffffff1660e01b8152600401620001c39190620002a9565b600060405180830381600087803b158015620001de57600080fd5b505af1158015620001f3573d6000803e3d6000fd5b5050505033600560006101000a81548173ffffffffffffffffffffffffffffffffffffffff021916908373ffffffffffffffffffffffffffffffffffffffff160217905550505062000314565b6000815190506200025181620002fa565b92915050565b600080604083850312156200026b57600080fd5b60006200027b8582860162000240565b92505060206200028e8582860162000240565b9150509250929050565b620002a381620002c6565b82525050565b6000602082019050620002c0600083018462000298565b92915050565b6000620002d382620002da565b9050919050565b600073ffffffffffffffffffffffffffffffffffffffff82169050919050565b6200030581620002c6565b81146200031157600080fd5b50565b615d9680620003246000396000f3fe6080604052600436106101ee5760003560e01c806372f7bec81161010d578063c23b139e116100a0578063ea87152b1161006f578063ea87152b14610782578063f064c32e146107bf578063f23a6e61146107ea578063f3a27dd214610827578063f76f950e14610864576101ee565b8063c23b139e146106d5578063dbcd674e146106f1578063dce9fc111461071c578063e95fcc4c14610745576101ee565b80639c79afb3116100dc5780639c79afb3146105f35780639ca7aac714610632578063af8e6c391461066f578063bc197c8114610698576101ee565b806372f7bec81461054b57806378a8956714610574578063833564971461059f578063953e8267146105c8576101ee565b8063382edbcf116101855780634f31d0d8116101545780634f31d0d81461048357806367f718a9146104b35780636b3ed26f146104de5780636b4d95331461051b576101ee565b8063382edbcf146103b55780633bb3a24d146103e05780633e52a1651461041d57806343404be114610446576101ee565b806319b88edb116101c157806319b88edb146102d3578063202e37401461031057806325762e571461033b5780632a45b25014610378576101ee565b806301ffc9a7146101f3578063145eca8c14610230578063150b7a0214610259578063161c945d14610296575b600080fd5b3480156101ff57600080fd5b5061021a60048036038101906102159190614a4b565b6108a1565b60405161022791906155c0565b60405180910390f35b34801561023c57600080fd5b5061025760048036038101906102529190614b4a565b61091b565b005b34801561026557600080fd5b50610280600480360381019061027b91906146a8565b61094d565b60405161028d91906155db565b60405180910390f35b3480156102a257600080fd5b506102bd60048036038101906102b89190614842565b610961565b6040516102ca91906156d2565b60405180910390f35b3480156102df57600080fd5b506102fa60048036038101906102f59190614b4a565b610d60565b60405161030791906156d2565b60405180910390f35b34801561031c57600080fd5b50610325610e14565b604051610332919061557c565b60405180910390f35b34801561034757600080fd5b50610362600480360381019061035d9190614b4a565b61119c565b60405161036f91906155f6565b60405180910390f35b34801561038457600080fd5b5061039f600480360381019061039a9190614b4a565b611255565b6040516103ac9190615694565b60405180910390f35b3480156103c157600080fd5b506103ca61142d565b6040516103d7919061557c565b60405180910390f35b3480156103ec57600080fd5b5061040760048036038101906104029190614b4a565b6117f2565b60405161041491906155f6565b60405180910390f35b34801561042957600080fd5b50610444600480360381019061043f9190614b4a565b6118ab565b005b34801561045257600080fd5b5061046d60048036038101906104689190614b4a565b6118dd565b60405161047a91906156b0565b60405180910390f35b61049d6004803603810190610498919061496c565b6119fc565b6040516104aa91906156d2565b60405180910390f35b3480156104bf57600080fd5b506104c8611da8565b6040516104d5919061559e565b60405180910390f35b3480156104ea57600080fd5b5061050560048036038101906105009190614b4a565b611e54565b60405161051291906155f6565b60405180910390f35b610535600480360381019061053091906148e3565b611f0d565b60405161054291906156d2565b60405180910390f35b34801561055757600080fd5b50610572600480360381019061056d91906147b2565b6122b6565b005b34801561058057600080fd5b5061058961238e565b60405161059691906156d2565b60405180910390f35b3480156105ab57600080fd5b506105c660048036038101906105c19190614b9c565b612435565b005b3480156105d457600080fd5b506105dd6124d0565b6040516105ea919061559e565b60405180910390f35b3480156105ff57600080fd5b5061061a60048036038101906106159190614b4a565b61257c565b604051610629939291906156ed565b60405180910390f35b34801561063e57600080fd5b5061065960048036038101906106549190614b4a565b61265e565b60405161066691906155f6565b60405180910390f35b34801561067b57600080fd5b5061069660048036038101906106919190614a74565b612717565b005b3480156106a457600080fd5b506106bf60048036038101906106ba91906145e9565b6127a7565b6040516106cc91906155db565b60405180910390f35b6106ef60048036038101906106ea9190614806565b6127bc565b005b3480156106fd57600080fd5b50610706612eb0565b60405161071391906156d2565b60405180910390f35b34801561072857600080fd5b50610743600480360381019061073e9190614c47565b612f57565b005b34801561075157600080fd5b5061076c60048036038101906107679190614b4a565b612fec565b6040516107799190615678565b60405180910390f35b34801561078e57600080fd5b506107a960048036038101906107a49190614af6565b6131c5565b6040516107b691906155c0565b60405180910390f35b3480156107cb57600080fd5b506107d461347a565b6040516107e1919061557c565b60405180910390f35b3480156107f657600080fd5b50610811600480360381019061080c9190614723565b613883565b60405161081e91906155db565b60405180910390f35b34801561083357600080fd5b5061084e60048036038101906108499190614842565b613898565b60405161085b91906156d2565b60405180910390f35b34801561087057600080fd5b5061088b60048036038101906108869190614b4a565b613c94565b60405161089891906155f6565b60405180910390f35b60007f4e2312e0000000000000000000000000000000000000000000000000000000007bffffffffffffffffffffffffffffffffffffffffffffffffffffffff1916827bffffffffffffffffffffffffffffffffffffffffffffffffffffffff19161480610914575061091382613f7a565b5b9050919050565b60016014600083815260200190815260200160002060090160026101000a81548160ff02191690831515021790555050565b600063150b7a0260e01b9050949350505050565b600061096d6003613fe4565b60006109796003613ffa565b905060006040518061014001604052808381526020018a73ffffffffffffffffffffffffffffffffffffffff1681526020018981526020013373ffffffffffffffffffffffffffffffffffffffff168152602001600073ffffffffffffffffffffffffffffffffffffffff168152602001600660009054906101000a900473ffffffffffffffffffffffffffffffffffffffff1673ffffffffffffffffffffffffffffffffffffffff168152602001888152602001878152602001878152602001851515815250905080601960008481526020019081526020016000206000820151816000015560208201518160010160006101000a81548173ffffffffffffffffffffffffffffffffffffffff021916908373ffffffffffffffffffffffffffffffffffffffff1602179055506040820151816002015560608201518160030160006101000a81548173ffffffffffffffffffffffffffffffffffffffff021916908373ffffffffffffffffffffffffffffffffffffffff16021790555060808201518160040160006101000a81548173ffffffffffffffffffffffffffffffffffffffff021916908373ffffffffffffffffffffffffffffffffffffffff16021790555060a08201518160050160006101000a81548173ffffffffffffffffffffffffffffffffffffffff021916908373ffffffffffffffffffffffffffffffffffffffff16021790555060c0820151816006015560e0820151816007015561010082015181600801556101208201518160090160006101000a81548160ff0219169083151502179055509050508873ffffffffffffffffffffffffffffffffffffffff1663f242432a33308b60016040518563ffffffff1660e01b8152600401610c0994939291906152b2565b600060405180830381600087803b158015610c2357600080fd5b505af1158015610c37573d6000803e3d6000fd5b50505050610c4485612717565b600660009054906101000a900473ffffffffffffffffffffffffffffffffffffffff1673ffffffffffffffffffffffffffffffffffffffff16635a9d10a23384896040518463ffffffff1660e01b8152600401610ca3939291906154b8565b600060405180830381600087803b158015610cbd57600080fd5b505af1158015610cd1573d6000803e3d6000fd5b50505050878973ffffffffffffffffffffffffffffffffffffffff16837fedbbc6bc63aa092bba302ac98ddaafe17f6714072cb4cb7caeb89e9b31f6f4ca33600660009054906101000a900473ffffffffffffffffffffffffffffffffffffffff168c8c8d8c604051610d4996959493929190615362565b60405180910390a481925050509695505050505050565b6000600660009054906101000a900473ffffffffffffffffffffffffffffffffffffffff1673ffffffffffffffffffffffffffffffffffffffff166397492c1c836040518263ffffffff1660e01b8152600401610dbd91906156d2565b60206040518083038186803b158015610dd557600080fd5b505afa158015610de9573d6000803e3d6000fd5b505050506040513d601f19601f82011682018060405250810190610e0d9190614b73565b9050919050565b60606000601760003373ffffffffffffffffffffffffffffffffffffffff1673ffffffffffffffffffffffffffffffffffffffff168152602001908152602001600020805480602002602001604051908101604052809291908181526020018280548015610ea157602002820191906000526020600020905b815481526020019060010190808311610e8d575b505050505090506000815167ffffffffffffffff811115610eeb577f4e487b7100000000000000000000000000000000000000000000000000000000600052604160045260246000fd5b604051908082528060200260200182016040528015610f2457816020015b610f116140e3565b815260200190600190039081610f095790505b50905060005b82518110156111935760146000848381518110610f70577f4e487b7100000000000000000000000000000000000000000000000000000000600052603260045260246000fd5b60200260200101518152602001908152602001600020604051806101a0016040529081600082015481526020016001820160009054906101000a900473ffffffffffffffffffffffffffffffffffffffff1673ffffffffffffffffffffffffffffffffffffffff1673ffffffffffffffffffffffffffffffffffffffff168152602001600282015481526020016003820160009054906101000a900473ffffffffffffffffffffffffffffffffffffffff1673ffffffffffffffffffffffffffffffffffffffff1673ffffffffffffffffffffffffffffffffffffffff1681526020016004820160009054906101000a900473ffffffffffffffffffffffffffffffffffffffff1673ffffffffffffffffffffffffffffffffffffffff1673ffffffffffffffffffffffffffffffffffffffff168152602001600582015481526020016006820154815260200160078201548152602001600882015481526020016009820160009054906101000a900460ff161515151581526020016009820160019054906101000a900460ff161515151581526020016009820160029054906101000a900460ff161515151581526020016009820160039054906101000a900460ff161515151581525050828281518110611175577f4e487b7100000000000000000000000000000000000000000000000000000000600052603260045260246000fd5b6020026020010181905250808061118b90615ac9565b915050610f2a565b50809250505090565b6060600760009054906101000a900473ffffffffffffffffffffffffffffffffffffffff1673ffffffffffffffffffffffffffffffffffffffff16638ad91345836040518263ffffffff1660e01b81526004016111f991906156d2565b60006040518083038186803b15801561121157600080fd5b505afa158015611225573d6000803e3d6000fd5b505050506040513d6000823e3d601f19601f8201168201806040525081019061124e9190614ab5565b9050919050565b61125d6140e3565b60146000838152602001908152602001600020604051806101a0016040529081600082015481526020016001820160009054906101000a900473ffffffffffffffffffffffffffffffffffffffff1673ffffffffffffffffffffffffffffffffffffffff1673ffffffffffffffffffffffffffffffffffffffff168152602001600282015481526020016003820160009054906101000a900473ffffffffffffffffffffffffffffffffffffffff1673ffffffffffffffffffffffffffffffffffffffff1673ffffffffffffffffffffffffffffffffffffffff1681526020016004820160009054906101000a900473ffffffffffffffffffffffffffffffffffffffff1673ffffffffffffffffffffffffffffffffffffffff1673ffffffffffffffffffffffffffffffffffffffff168152602001600582015481526020016006820154815260200160078201548152602001600882015481526020016009820160009054906101000a900460ff161515151581526020016009820160019054906101000a900460ff161515151581526020016009820160029054906101000a900460ff161515151581526020016009820160039054906101000a900460ff1615151515815250509050919050565b6060600061143b6002613ffa565b6114456001613ffa565b61144f9190615915565b905060008167ffffffffffffffff811115611493577f4e487b7100000000000000000000000000000000000000000000000000000000600052604160045260246000fd5b6040519080825280602002602001820160405280156114cc57816020015b6114b96140e3565b8152602001906001900390816114b15790505b5090506000806114dc6001613ffa565b905060005b818110156117e757600073ffffffffffffffffffffffffffffffffffffffff1660146000600184611512919061588e565b815260200190815260200160002060040160009054906101000a900473ffffffffffffffffffffffffffffffffffffffff1673ffffffffffffffffffffffffffffffffffffffff1614801561159a57506000151560146000600184611577919061588e565b815260200190815260200160002060090160029054906101000a900460ff161515145b156117d45760006001826115ae919061588e565b9050600060146000838152602001908152602001600020905080604051806101a0016040529081600082015481526020016001820160009054906101000a900473ffffffffffffffffffffffffffffffffffffffff1673ffffffffffffffffffffffffffffffffffffffff1673ffffffffffffffffffffffffffffffffffffffff168152602001600282015481526020016003820160009054906101000a900473ffffffffffffffffffffffffffffffffffffffff1673ffffffffffffffffffffffffffffffffffffffff1673ffffffffffffffffffffffffffffffffffffffff1681526020016004820160009054906101000a900473ffffffffffffffffffffffffffffffffffffffff1673ffffffffffffffffffffffffffffffffffffffff1673ffffffffffffffffffffffffffffffffffffffff168152602001600582015481526020016006820154815260200160078201548152602001600882015481526020016009820160009054906101000a900460ff161515151581526020016009820160019054906101000a900460ff161515151581526020016009820160029054906101000a900460ff161515151581526020016009820160039054906101000a900460ff1615151515815250508686815181106117b7577f4e487b7100000000000000000000000000000000000000000000000000000000600052603260045260246000fd5b60200260200101819052506001856117cf919061588e565b945050505b80806117df90615ac9565b9150506114e1565b508294505050505090565b6060600660009054906101000a900473ffffffffffffffffffffffffffffffffffffffff1673ffffffffffffffffffffffffffffffffffffffff16633bb3a24d836040518263ffffffff1660e01b815260040161184f91906156d2565b60006040518083038186803b15801561186757600080fd5b505afa15801561187b573d6000803e3d6000fd5b505050506040513d6000823e3d601f19601f820116820180604052508101906118a49190614ab5565b9050919050565b60006014600083815260200190815260200160002060090160026101000a81548160ff02191690831515021790555050565b6118e5614195565b601260008381526020019081526020016000206040518060600160405290816000820154815260200160018201805461191d90615a66565b80601f016020809104026020016040519081016040528092919081815260200182805461194990615a66565b80156119965780601f1061196b57610100808354040283529160200191611996565b820191906000526020600020905b81548152906001019060200180831161197957829003601f168201915b505050505081526020016002820160009054906101000a900473ffffffffffffffffffffffffffffffffffffffff1673ffffffffffffffffffffffffffffffffffffffff1673ffffffffffffffffffffffffffffffffffffffff16815250509050919050565b600060026000541415611a44576040517f08c379a0000000000000000000000000000000000000000000000000000000008152600401611a3b90615638565b60405180910390fd5b6002600081905550611a566001613fe4565b6000611a626001613ffa565b90506000604051806101a001604052808381526020018b73ffffffffffffffffffffffffffffffffffffffff1681526020018a81526020013373ffffffffffffffffffffffffffffffffffffffff168152602001600073ffffffffffffffffffffffffffffffffffffffff16815260200189815260200160018152602001878152602001868152602001600015158152602001600115158152602001600015158152602001851515815250905080601460008481526020019081526020016000206000820151816000015560208201518160010160006101000a81548173ffffffffffffffffffffffffffffffffffffffff021916908373ffffffffffffffffffffffffffffffffffffffff1602179055506040820151816002015560608201518160030160006101000a81548173ffffffffffffffffffffffffffffffffffffffff021916908373ffffffffffffffffffffffffffffffffffffffff16021790555060808201518160040160006101000a81548173ffffffffffffffffffffffffffffffffffffffff021916908373ffffffffffffffffffffffffffffffffffffffff16021790555060a0820151816005015560c0820151816006015560e0820151816007015561010082015181600801556101208201518160090160006101000a81548160ff0219169083151502179055506101408201518160090160016101000a81548160ff0219169083151502179055506101608201518160090160026101000a81548160ff0219169083151502179055506101808201518160090160036101000a81548160ff0219169083151502179055509050508973ffffffffffffffffffffffffffffffffffffffff1663f242432a33308c8b6040518563ffffffff1660e01b8152600401611cfb949392919061530a565b600060405180830381600087803b158015611d1557600080fd5b505af1158015611d29573d6000803e3d6000fd5b50505050888a73ffffffffffffffffffffffffffffffffffffffff16837f66e97b8164670aa0e694d4edeefadfbd201b7b854d868d7d6e610bbd4b75230c338c8c8c8c6000600160008f604051611d88999897969594939291906154ef565b60405180910390a481925050506001600081905550979650505050505050565b6060600660009054906101000a900473ffffffffffffffffffffffffffffffffffffffff1673ffffffffffffffffffffffffffffffffffffffff166367f718a96040518163ffffffff1660e01b815260040160006040518083038186803b158015611e1257600080fd5b505afa158015611e26573d6000803e3d6000fd5b505050506040513d6000823e3d601f19601f82011682018060405250810190611e4f9190614a0a565b905090565b6060600760009054906101000a900473ffffffffffffffffffffffffffffffffffffffff1673ffffffffffffffffffffffffffffffffffffffff16637b78bd3f836040518263ffffffff1660e01b8152600401611eb191906156d2565b60006040518083038186803b158015611ec957600080fd5b505afa158015611edd573d6000803e3d6000fd5b505050506040513d6000823e3d601f19601f82011682018060405250810190611f069190614ab5565b9050919050565b600060026000541415611f55576040517f08c379a0000000000000000000000000000000000000000000000000000000008152600401611f4c90615638565b60405180910390fd5b6002600081905550611f676001613fe4565b6000611f736001613ffa565b90506000604051806101a001604052808381526020018a73ffffffffffffffffffffffffffffffffffffffff1681526020018981526020013373ffffffffffffffffffffffffffffffffffffffff168152602001600073ffffffffffffffffffffffffffffffffffffffff16815260200188815260200160018152602001878152602001868152602001600015158152602001600115158152602001600015158152602001851515815250905080601460008481526020019081526020016000206000820151816000015560208201518160010160006101000a81548173ffffffffffffffffffffffffffffffffffffffff021916908373ffffffffffffffffffffffffffffffffffffffff1602179055506040820151816002015560608201518160030160006101000a81548173ffffffffffffffffffffffffffffffffffffffff021916908373ffffffffffffffffffffffffffffffffffffffff16021790555060808201518160040160006101000a81548173ffffffffffffffffffffffffffffffffffffffff021916908373ffffffffffffffffffffffffffffffffffffffff16021790555060a0820151816005015560c0820151816006015560e0820151816007015561010082015181600801556101208201518160090160006101000a81548160ff0219169083151502179055506101408201518160090160016101000a81548160ff0219169083151502179055506101608201518160090160026101000a81548160ff0219169083151502179055506101808201518160090160036101000a81548160ff0219169083151502179055509050508873ffffffffffffffffffffffffffffffffffffffff166323b872dd33308b6040518463ffffffff1660e01b815260040161220a9392919061527b565b600060405180830381600087803b15801561222457600080fd5b505af1158015612238573d6000803e3d6000fd5b50505050878973ffffffffffffffffffffffffffffffffffffffff16837f66e97b8164670aa0e694d4edeefadfbd201b7b854d868d7d6e610bbd4b75230c338b60018c8c60008060008f604051612297999897969594939291906153c3565b60405180910390a4819250505060016000819055509695505050505050565b6122c06004613fe4565b60006122cc6004613ffa565b9050600060405180606001604052808381526020018481526020018573ffffffffffffffffffffffffffffffffffffffff168152509050806012600084815260200190815260200160002060008201518160000155602082015181600101908051906020019061233d9291906141cc565b5060408201518160020160006101000a81548173ffffffffffffffffffffffffffffffffffffffff021916908373ffffffffffffffffffffffffffffffffffffffff16021790555090505050505050565b6000600660009054906101000a900473ffffffffffffffffffffffffffffffffffffffff1673ffffffffffffffffffffffffffffffffffffffff166378a895676040518163ffffffff1660e01b815260040160206040518083038186803b1580156123f857600080fd5b505afa15801561240c573d6000803e3d6000fd5b505050506040513d601f19601f820116820180604052508101906124309190614b73565b905090565b600760009054906101000a900473ffffffffffffffffffffffffffffffffffffffff1673ffffffffffffffffffffffffffffffffffffffff1663257d89db33868686866040518663ffffffff1660e01b8152600401612498959493929190615450565b600060405180830381600087803b1580156124b257600080fd5b505af11580156124c6573d6000803e3d6000fd5b5050505050505050565b6060600760009054906101000a900473ffffffffffffffffffffffffffffffffffffffff1673ffffffffffffffffffffffffffffffffffffffff166367f718a96040518163ffffffff1660e01b815260040160006040518083038186803b15801561253a57600080fd5b505afa15801561254e573d6000803e3d6000fd5b505050506040513d6000823e3d601f19601f820116820180604052508101906125779190614a0a565b905090565b600d818154811061258c57600080fd5b90600052602060002090600302016000915090508060000154908060010180546125b590615a66565b80601f01602080910402602001604051908101604052809291908181526020018280546125e190615a66565b801561262e5780601f106126035761010080835404028352916020019161262e565b820191906000526020600020905b81548152906001019060200180831161261157829003601f168201915b5050505050908060020160009054906101000a900473ffffffffffffffffffffffffffffffffffffffff16905083565b6060600760009054906101000a900473ffffffffffffffffffffffffffffffffffffffff1673ffffffffffffffffffffffffffffffffffffffff1663dbe16c07836040518263ffffffff1660e01b81526004016126bb91906156d2565b60006040518083038186803b1580156126d357600080fd5b505afa1580156126e7573d6000803e3d6000fd5b505050506040513d6000823e3d601f19601f820116820180604052508101906127109190614ab5565b9050919050565b600660009054906101000a900473ffffffffffffffffffffffffffffffffffffffff1673ffffffffffffffffffffffffffffffffffffffff166302fe5305826040518263ffffffff1660e01b815260040161277291906155f6565b600060405180830381600087803b15801561278c57600080fd5b505af11580156127a0573d6000803e3d6000fd5b5050505050565b600063bc197c8160e01b905095945050505050565b60026000541415612802576040517f08c379a00000000000000000000000000000000000000000000000000000000081526004016127f990615638565b60405180910390fd5b6002600081905550600060146000838152602001908152602001600020604051806101a0016040529081600082015481526020016001820160009054906101000a900473ffffffffffffffffffffffffffffffffffffffff1673ffffffffffffffffffffffffffffffffffffffff1673ffffffffffffffffffffffffffffffffffffffff168152602001600282015481526020016003820160009054906101000a900473ffffffffffffffffffffffffffffffffffffffff1673ffffffffffffffffffffffffffffffffffffffff1673ffffffffffffffffffffffffffffffffffffffff1681526020016004820160009054906101000a900473ffffffffffffffffffffffffffffffffffffffff1673ffffffffffffffffffffffffffffffffffffffff1673ffffffffffffffffffffffffffffffffffffffff168152602001600582015481526020016006820154815260200160078201548152602001600882015481526020016009820160009054906101000a900460ff161515151581526020016009820160019054906101000a900460ff161515151581526020016009820160029054906101000a900460ff161515151581526020016009820160039054906101000a900460ff161515151581525050905060008160a00151905060008260400151905060008361014001519050823414612a35576040517f08c379a0000000000000000000000000000000000000000000000000000000008152600401612a2c90615618565b60405180910390fd5b836060015173ffffffffffffffffffffffffffffffffffffffff166108fc349081150290604051600060405180830381858888f19350505050158015612a7f573d6000803e3d6000fd5b508015612b04578573ffffffffffffffffffffffffffffffffffffffff1663f242432a303387604001518860c001516040518563ffffffff1660e01b8152600401612acd949392919061530a565b600060405180830381600087803b158015612ae757600080fd5b505af1158015612afb573d6000803e3d6000fd5b50505050612b74565b8573ffffffffffffffffffffffffffffffffffffffff166323b872dd3033856040518463ffffffff1660e01b8152600401612b419392919061527b565b600060405180830381600087803b158015612b5b57600080fd5b505af1158015612b6f573d6000803e3d6000fd5b505050505b33846080019073ffffffffffffffffffffffffffffffffffffffff16908173ffffffffffffffffffffffffffffffffffffffff1681525050600184610120019015159081151581525050612bc86002613fe4565b83601460008781526020019081526020016000206000820151816000015560208201518160010160006101000a81548173ffffffffffffffffffffffffffffffffffffffff021916908373ffffffffffffffffffffffffffffffffffffffff1602179055506040820151816002015560608201518160030160006101000a81548173ffffffffffffffffffffffffffffffffffffffff021916908373ffffffffffffffffffffffffffffffffffffffff16021790555060808201518160040160006101000a81548173ffffffffffffffffffffffffffffffffffffffff021916908373ffffffffffffffffffffffffffffffffffffffff16021790555060a0820151816005015560c0820151816006015560e0820151816007015561010082015181600801556101208201518160090160006101000a81548160ff0219169083151502179055506101408201518160090160016101000a81548160ff0219169083151502179055506101608201518160090160026101000a81548160ff0219169083151502179055506101808201518160090160036101000a81548160ff02191690831515021790555090505060156000856060015173ffffffffffffffffffffffffffffffffffffffff1673ffffffffffffffffffffffffffffffffffffffff168152602001908152602001600020859080600181540180825580915050600190039060005260206000200160009091909190915055601760003373ffffffffffffffffffffffffffffffffffffffff1673ffffffffffffffffffffffffffffffffffffffff168152602001908152602001600020859080600181540180825580915050600190039060005260206000200160009091909190915055818673ffffffffffffffffffffffffffffffffffffffff16867ffeb04e399f6ba62d926a65372cbb5f11e3c7a9ff05e62948769d2ee5d5335b84876060015133886001604051612e989493929190615236565b60405180910390a45050505060016000819055505050565b6000600760009054906101000a900473ffffffffffffffffffffffffffffffffffffffff1673ffffffffffffffffffffffffffffffffffffffff166378a895676040518163ffffffff1660e01b815260040160206040518083038186803b158015612f1a57600080fd5b505afa158015612f2e573d6000803e3d6000fd5b505050506040513d601f19601f82011682018060405250810190612f529190614b73565b905090565b600660009054906101000a900473ffffffffffffffffffffffffffffffffffffffff1673ffffffffffffffffffffffffffffffffffffffff16635a9d10a23384846040518463ffffffff1660e01b8152600401612fb6939291906154b8565b600060405180830381600087803b158015612fd057600080fd5b505af1158015612fe4573d6000803e3d6000fd5b505050505050565b612ff4614252565b60006019600084815260200190815260200160002060405180610140016040529081600082015481526020016001820160009054906101000a900473ffffffffffffffffffffffffffffffffffffffff1673ffffffffffffffffffffffffffffffffffffffff1673ffffffffffffffffffffffffffffffffffffffff168152602001600282015481526020016003820160009054906101000a900473ffffffffffffffffffffffffffffffffffffffff1673ffffffffffffffffffffffffffffffffffffffff1673ffffffffffffffffffffffffffffffffffffffff1681526020016004820160009054906101000a900473ffffffffffffffffffffffffffffffffffffffff1673ffffffffffffffffffffffffffffffffffffffff1673ffffffffffffffffffffffffffffffffffffffff1681526020016005820160009054906101000a900473ffffffffffffffffffffffffffffffffffffffff1673ffffffffffffffffffffffffffffffffffffffff1673ffffffffffffffffffffffffffffffffffffffff1681526020016006820154815260200160078201548152602001600882015481526020016009820160009054906101000a900460ff161515151581525050905080915050919050565b60008015156131d333614008565b151514613215576040517f08c379a000000000000000000000000000000000000000000000000000000000815260040161320c90615658565b60405180910390fd5b60018214156132c1576000604051806040016040528060095481526020018581525090506009600081548092919061324c90615ac9565b919050555080600f60003373ffffffffffffffffffffffffffffffffffffffff1673ffffffffffffffffffffffffffffffffffffffff1681526020019081526020016000206000820151816000015560208201518160010190805190602001906132b79291906141cc565b509050505061340d565b600282141561336d5760006040518060400160405280600a548152602001858152509050600a60008154809291906132f890615ac9565b919050555080601060003373ffffffffffffffffffffffffffffffffffffffff1673ffffffffffffffffffffffffffffffffffffffff1681526020019081526020016000206000820151816000015560208201518160010190805190602001906133639291906141cc565b509050505061340c565b60006040518060400160405280600b548152602001858152509050600b600081548092919061339b90615ac9565b919050555080601160003373ffffffffffffffffffffffffffffffffffffffff1673ffffffffffffffffffffffffffffffffffffffff1681526020019081526020016000206000820151816000015560208201518160010190805190602001906134069291906141cc565b50905050505b5b600e339080600181540180825580915050600190039060005260206000200160009091909190916101000a81548173ffffffffffffffffffffffffffffffffffffffff021916908373ffffffffffffffffffffffffffffffffffffffff1602179055506001905092915050565b606060006134886001613ffa565b90506000805b8281101561352f573373ffffffffffffffffffffffffffffffffffffffff16601460006001846134be919061588e565b815260200190815260200160002060030160009054906101000a900473ffffffffffffffffffffffffffffffffffffffff1673ffffffffffffffffffffffffffffffffffffffff16141561351c57600182613519919061588e565b91505b808061352790615ac9565b91505061348e565b5060008167ffffffffffffffff811115613572577f4e487b7100000000000000000000000000000000000000000000000000000000600052604160045260246000fd5b6040519080825280602002602001820160405280156135ab57816020015b6135986140e3565b8152602001906001900390816135905790505b5090506000805b84811015613878573373ffffffffffffffffffffffffffffffffffffffff16601460006001846135e2919061588e565b815260200190815260200160002060030160009054906101000a900473ffffffffffffffffffffffffffffffffffffffff1673ffffffffffffffffffffffffffffffffffffffff16141561386557600060018261363f919061588e565b9050600060146000838152602001908152602001600020905080604051806101a0016040529081600082015481526020016001820160009054906101000a900473ffffffffffffffffffffffffffffffffffffffff1673ffffffffffffffffffffffffffffffffffffffff1673ffffffffffffffffffffffffffffffffffffffff168152602001600282015481526020016003820160009054906101000a900473ffffffffffffffffffffffffffffffffffffffff1673ffffffffffffffffffffffffffffffffffffffff1673ffffffffffffffffffffffffffffffffffffffff1681526020016004820160009054906101000a900473ffffffffffffffffffffffffffffffffffffffff1673ffffffffffffffffffffffffffffffffffffffff1673ffffffffffffffffffffffffffffffffffffffff168152602001600582015481526020016006820154815260200160078201548152602001600882015481526020016009820160009054906101000a900460ff161515151581526020016009820160019054906101000a900460ff161515151581526020016009820160029054906101000a900460ff161515151581526020016009820160039054906101000a900460ff161515151581525050858581518110613848577f4e487b7100000000000000000000000000000000000000000000000000000000600052603260045260246000fd5b6020026020010181905250600184613860919061588e565b935050505b808061387090615ac9565b9150506135b2565b508194505050505090565b600063f23a6e6160e01b905095945050505050565b60006138a46003613fe4565b60006138b06003613ffa565b905060006040518061014001604052808381526020018a73ffffffffffffffffffffffffffffffffffffffff1681526020018981526020013373ffffffffffffffffffffffffffffffffffffffff168152602001600073ffffffffffffffffffffffffffffffffffffffff168152602001600660009054906101000a900473ffffffffffffffffffffffffffffffffffffffff1673ffffffffffffffffffffffffffffffffffffffff168152602001888152602001878152602001878152602001851515815250905080601960008481526020019081526020016000206000820151816000015560208201518160010160006101000a81548173ffffffffffffffffffffffffffffffffffffffff021916908373ffffffffffffffffffffffffffffffffffffffff1602179055506040820151816002015560608201518160030160006101000a81548173ffffffffffffffffffffffffffffffffffffffff021916908373ffffffffffffffffffffffffffffffffffffffff16021790555060808201518160040160006101000a81548173ffffffffffffffffffffffffffffffffffffffff021916908373ffffffffffffffffffffffffffffffffffffffff16021790555060a08201518160050160006101000a81548173ffffffffffffffffffffffffffffffffffffffff021916908373ffffffffffffffffffffffffffffffffffffffff16021790555060c0820151816006015560e0820151816007015561010082015181600801556101208201518160090160006101000a81548160ff0219169083151502179055509050508873ffffffffffffffffffffffffffffffffffffffff166323b872dd33308b6040518463ffffffff1660e01b8152600401613b3d9392919061527b565b600060405180830381600087803b158015613b5757600080fd5b505af1158015613b6b573d6000803e3d6000fd5b50505050613b7885612717565b600660009054906101000a900473ffffffffffffffffffffffffffffffffffffffff1673ffffffffffffffffffffffffffffffffffffffff16635a9d10a23384896040518463ffffffff1660e01b8152600401613bd7939291906154b8565b600060405180830381600087803b158015613bf157600080fd5b505af1158015613c05573d6000803e3d6000fd5b50505050878973ffffffffffffffffffffffffffffffffffffffff16837fedbbc6bc63aa092bba302ac98ddaafe17f6714072cb4cb7caeb89e9b31f6f4ca33600660009054906101000a900473ffffffffffffffffffffffffffffffffffffffff168c8c8d8c604051613c7d96959493929190615362565b60405180910390a481925050509695505050505050565b60606000821415613cdc576040518060400160405280600181526020017f30000000000000000000000000000000000000000000000000000000000000008152509050613f75565b60006064905060008167ffffffffffffffff811115613d24577f4e487b7100000000000000000000000000000000000000000000000000000000600052604160045260246000fd5b6040519080825280601f01601f191660200182016040528015613d565781602001600182028036833780820191505090505b50905060005b60008514613e0e576000600a86613d739190615b3c565b9050600a86613d8291906158e4565b9550806030613d91919061588e565b60f81b838380613da090615ac9565b945081518110613dd9577f4e487b7100000000000000000000000000000000000000000000000000000000600052603260045260246000fd5b60200101907effffffffffffffffffffffffffffffffffffffffffffffffffffffffffffff1916908160001a90535050613d5c565b60008167ffffffffffffffff811115613e50577f4e487b7100000000000000000000000000000000000000000000000000000000600052604160045260246000fd5b6040519080825280601f01601f191660200182016040528015613e825781602001600182028036833780820191505090505b50905060005b82811015613f66578360018285613e9f9190615915565b613ea99190615915565b81518110613ee0577f4e487b7100000000000000000000000000000000000000000000000000000000600052603260045260246000fd5b602001015160f81c60f81b828281518110613f24577f4e487b7100000000000000000000000000000000000000000000000000000000600052603260045260246000fd5b60200101907effffffffffffffffffffffffffffffffffffffffffffffffffffffffffffff1916908160001a9053508080613f5e90615ac9565b915050613e88565b50600081905080955050505050505b919050565b60007f01ffc9a7000000000000000000000000000000000000000000000000000000007bffffffffffffffffffffffffffffffffffffffffffffffffffffffff1916827bffffffffffffffffffffffffffffffffffffffffffffffffffffffff1916149050919050565b6001816000016000828254019250508190555050565b600081600001549050919050565b600080600090505b600e805490508160ff1610156140d8578273ffffffffffffffffffffffffffffffffffffffff16600e8260ff1681548110614074577f4e487b7100000000000000000000000000000000000000000000000000000000600052603260045260246000fd5b9060005260206000200160009054906101000a900473ffffffffffffffffffffffffffffffffffffffff1673ffffffffffffffffffffffffffffffffffffffff1614156140c55760019150506140de565b80806140d090615b12565b915050614010565b50600090505b919050565b604051806101a0016040528060008152602001600073ffffffffffffffffffffffffffffffffffffffff16815260200160008152602001600073ffffffffffffffffffffffffffffffffffffffff168152602001600073ffffffffffffffffffffffffffffffffffffffff168152602001600081526020016000815260200160008152602001600081526020016000151581526020016000151581526020016000151581526020016000151581525090565b60405180606001604052806000815260200160608152602001600073ffffffffffffffffffffffffffffffffffffffff1681525090565b8280546141d890615a66565b90600052602060002090601f0160209004810192826141fa5760008555614241565b82601f1061421357805160ff1916838001178555614241565b82800160010185558215614241579182015b82811115614240578251825591602001919060010190614225565b5b50905061424e91906142ff565b5090565b60405180610140016040528060008152602001600073ffffffffffffffffffffffffffffffffffffffff16815260200160008152602001600073ffffffffffffffffffffffffffffffffffffffff168152602001600073ffffffffffffffffffffffffffffffffffffffff168152602001600073ffffffffffffffffffffffffffffffffffffffff1681526020016000815260200160008152602001600081526020016000151581525090565b5b80821115614318576000816000905550600101614300565b5090565b600061432f61432a84615750565b61572b565b9050808382526020820190508285602086028201111561434e57600080fd5b60005b8581101561437e578161436488826145bf565b845260208401935060208301925050600181019050614351565b5050509392505050565b600061439b61439684615750565b61572b565b905080838252602082019050828560208602820111156143ba57600080fd5b60005b858110156143ea57816143d088826145d4565b8452602084019350602083019250506001810190506143bd565b5050509392505050565b60006144076144028461577c565b61572b565b90508281526020810184848401111561441f57600080fd5b61442a848285615a24565b509392505050565b6000614445614440846157ad565b61572b565b90508281526020810184848401111561445d57600080fd5b614468848285615a24565b509392505050565b600061448361447e846157ad565b61572b565b90508281526020810184848401111561449b57600080fd5b6144a6848285615a33565b509392505050565b6000813590506144bd81615d04565b92915050565b600082601f8301126144d457600080fd5b81356144e484826020860161431c565b91505092915050565b600082601f8301126144fe57600080fd5b815161450e848260208601614388565b91505092915050565b60008135905061452681615d1b565b92915050565b60008135905061453b81615d32565b92915050565b600082601f83011261455257600080fd5b81356145628482602086016143f4565b91505092915050565b600082601f83011261457c57600080fd5b813561458c848260208601614432565b91505092915050565b600082601f8301126145a657600080fd5b81516145b6848260208601614470565b91505092915050565b6000813590506145ce81615d49565b92915050565b6000815190506145e381615d49565b92915050565b600080600080600060a0868803121561460157600080fd5b600061460f888289016144ae565b9550506020614620888289016144ae565b945050604086013567ffffffffffffffff81111561463d57600080fd5b614649888289016144c3565b935050606086013567ffffffffffffffff81111561466657600080fd5b614672888289016144c3565b925050608086013567ffffffffffffffff81111561468f57600080fd5b61469b88828901614541565b9150509295509295909350565b600080600080608085870312156146be57600080fd5b60006146cc878288016144ae565b94505060206146dd878288016144ae565b93505060406146ee878288016145bf565b925050606085013567ffffffffffffffff81111561470b57600080fd5b61471787828801614541565b91505092959194509250565b600080600080600060a0868803121561473b57600080fd5b6000614749888289016144ae565b955050602061475a888289016144ae565b945050604061476b888289016145bf565b935050606061477c888289016145bf565b925050608086013567ffffffffffffffff81111561479957600080fd5b6147a588828901614541565b9150509295509295909350565b600080604083850312156147c557600080fd5b60006147d3858286016144ae565b925050602083013567ffffffffffffffff8111156147f057600080fd5b6147fc8582860161456b565b9150509250929050565b6000806040838503121561481957600080fd5b6000614827858286016144ae565b9250506020614838858286016145bf565b9150509250929050565b60008060008060008060c0878903121561485b57600080fd5b600061486989828a016144ae565b965050602061487a89828a016145bf565b955050604061488b89828a016145bf565b945050606061489c89828a016145bf565b935050608087013567ffffffffffffffff8111156148b957600080fd5b6148c589828a0161456b565b92505060a06148d689828a01614517565b9150509295509295509295565b60008060008060008060c087890312156148fc57600080fd5b600061490a89828a016144ae565b965050602061491b89828a016145bf565b955050604061492c89828a016145bf565b945050606061493d89828a016145bf565b935050608061494e89828a016145bf565b92505060a061495f89828a01614517565b9150509295509295509295565b600080600080600080600060e0888a03121561498757600080fd5b60006149958a828b016144ae565b97505060206149a68a828b016145bf565b96505060406149b78a828b016145bf565b95505060606149c88a828b016145bf565b94505060806149d98a828b016145bf565b93505060a06149ea8a828b016145bf565b92505060c06149fb8a828b01614517565b91505092959891949750929550565b600060208284031215614a1c57600080fd5b600082015167ffffffffffffffff811115614a3657600080fd5b614a42848285016144ed565b91505092915050565b600060208284031215614a5d57600080fd5b6000614a6b8482850161452c565b91505092915050565b600060208284031215614a8657600080fd5b600082013567ffffffffffffffff811115614aa057600080fd5b614aac8482850161456b565b91505092915050565b600060208284031215614ac757600080fd5b600082015167ffffffffffffffff811115614ae157600080fd5b614aed84828501614595565b91505092915050565b60008060408385031215614b0957600080fd5b600083013567ffffffffffffffff811115614b2357600080fd5b614b2f8582860161456b565b9250506020614b40858286016145bf565b9150509250929050565b600060208284031215614b5c57600080fd5b6000614b6a848285016145bf565b91505092915050565b600060208284031215614b8557600080fd5b6000614b93848285016145d4565b91505092915050565b60008060008060808587031215614bb257600080fd5b6000614bc0878288016145bf565b945050602085013567ffffffffffffffff811115614bdd57600080fd5b614be98782880161456b565b935050604085013567ffffffffffffffff811115614c0657600080fd5b614c128782880161456b565b925050606085013567ffffffffffffffff811115614c2f57600080fd5b614c3b8782880161456b565b91505092959194509250565b60008060408385031215614c5a57600080fd5b6000614c68858286016145bf565b9250506020614c79858286016145bf565b9150509250929050565b6000614c8f8383614fb2565b6101a08301905092915050565b6000614ca88383615218565b60208301905092915050565b614cbd816159dc565b82525050565b614ccc8161595b565b82525050565b614cdb81615949565b82525050565b614cea81615949565b82525050565b6000614cfb826157fe565b614d058185615839565b9350614d10836157de565b8060005b83811015614d41578151614d288882614c83565b9750614d338361581f565b925050600181019050614d14565b5085935050505092915050565b6000614d5982615809565b614d63818561584a565b9350614d6e836157ee565b8060005b83811015614d9f578151614d868882614c9c565b9750614d918361582c565b925050600181019050614d72565b5085935050505092915050565b614db58161596d565b82525050565b614dc48161596d565b82525050565b614dd381615979565b82525050565b614de2816159ee565b82525050565b6000614df382615814565b614dfd818561586c565b9350614e0d818560208601615a33565b614e1681615c29565b840191505092915050565b6000614e2c82615814565b614e36818561587d565b9350614e46818560208601615a33565b614e4f81615c29565b840191505092915050565b6000614e6760028361585b565b9150614e7282615c3a565b602082019050919050565b6000614e8a60408361587d565b9150614e9582615c63565b604082019050919050565b6000614ead601f8361587d565b9150614eb882615cb2565b602082019050919050565b6000614ed060178361587d565b9150614edb82615cdb565b602082019050919050565b61014082016000820151614efd6000850182615218565b506020820151614f106020850182614cd2565b506040820151614f236040850182615218565b506060820151614f366060850182614cc3565b506080820151614f496080850182614cc3565b5060a0820151614f5c60a0850182614cd2565b5060c0820151614f6f60c0850182615218565b5060e0820151614f8260e0850182615218565b50610100820151614f97610100850182615218565b50610120820151614fac610120850182614dac565b50505050565b6101a082016000820151614fc96000850182615218565b506020820151614fdc6020850182614cd2565b506040820151614fef6040850182615218565b5060608201516150026060850182614cc3565b5060808201516150156080850182614cc3565b5060a082015161502860a0850182615218565b5060c082015161503b60c0850182615218565b5060e082015161504e60e0850182615218565b50610100820151615063610100850182615218565b50610120820151615078610120850182614dac565b5061014082015161508d610140850182614dac565b506101608201516150a2610160850182614dac565b506101808201516150b7610180850182614dac565b50505050565b6101a0820160008201516150d46000850182615218565b5060208201516150e76020850182614cd2565b5060408201516150fa6040850182615218565b50606082015161510d6060850182614cc3565b5060808201516151206080850182614cc3565b5060a082015161513360a0850182615218565b5060c082015161514660c0850182615218565b5060e082015161515960e0850182615218565b5061010082015161516e610100850182615218565b50610120820151615183610120850182614dac565b50610140820151615198610140850182614dac565b506101608201516151ad610160850182614dac565b506101808201516151c2610180850182614dac565b50505050565b60006060830160008301516151e06000860182615218565b50602083015184820360208601526151f88282614de8565b915050604083015161520d6040860182614cd2565b508091505092915050565b615221816159c5565b82525050565b615230816159c5565b82525050565b600060808201905061524b6000830187614cb4565b6152586020830186614ce1565b6152656040830185615227565b6152726060830184614dbb565b95945050505050565b60006060820190506152906000830186614ce1565b61529d6020830185614ce1565b6152aa6040830184615227565b949350505050565b600060a0820190506152c76000830187614ce1565b6152d46020830186614ce1565b6152e16040830185615227565b6152ee6060830184614dd9565b81810360808301526152ff81614e5a565b905095945050505050565b600060a08201905061531f6000830187614ce1565b61532c6020830186614ce1565b6153396040830185615227565b6153466060830184615227565b818103608083015261535781614e5a565b905095945050505050565b600060c0820190506153776000830189614ce1565b6153846020830188614ce1565b6153916040830187615227565b61539e6060830186615227565b6153ab6080830185615227565b6153b860a0830184614dbb565b979650505050505050565b6000610120820190506153d9600083018c614ce1565b6153e6602083018b615227565b6153f3604083018a614dd9565b6154006060830189615227565b61540d6080830188615227565b61541a60a0830187614dbb565b61542760c0830186614dbb565b61543460e0830185614dbb565b615442610100830184614dbb565b9a9950505050505050505050565b600060a0820190506154656000830188614ce1565b6154726020830187615227565b81810360408301526154848186614e21565b905081810360608301526154988185614e21565b905081810360808301526154ac8184614e21565b90509695505050505050565b60006060820190506154cd6000830186614ce1565b6154da6020830185615227565b6154e76040830184615227565b949350505050565b600061012082019050615505600083018c614ce1565b615512602083018b615227565b61551f604083018a615227565b61552c6060830189615227565b6155396080830188615227565b61554660a0830187614dbb565b61555360c0830186614dbb565b61556060e0830185614dbb565b61556e610100830184614dbb565b9a9950505050505050505050565b600060208201905081810360008301526155968184614cf0565b905092915050565b600060208201905081810360008301526155b88184614d4e565b905092915050565b60006020820190506155d56000830184614dbb565b92915050565b60006020820190506155f06000830184614dca565b92915050565b600060208201905081810360008301526156108184614e21565b905092915050565b6000602082019050818103600083015261563181614e7d565b9050919050565b6000602082019050818103600083015261565181614ea0565b9050919050565b6000602082019050818103600083015261567181614ec3565b9050919050565b60006101408201905061568e6000830184614ee6565b92915050565b60006101a0820190506156aa60008301846150bd565b92915050565b600060208201905081810360008301526156ca81846151c8565b905092915050565b60006020820190506156e76000830184615227565b92915050565b60006060820190506157026000830186615227565b81810360208301526157148185614e21565b90506157236040830184614ce1565b949350505050565b6000615735615746565b90506157418282615a98565b919050565b6000604051905090565b600067ffffffffffffffff82111561576b5761576a615bfa565b5b602082029050602081019050919050565b600067ffffffffffffffff82111561579757615796615bfa565b5b6157a082615c29565b9050602081019050919050565b600067ffffffffffffffff8211156157c8576157c7615bfa565b5b6157d182615c29565b9050602081019050919050565b6000819050602082019050919050565b6000819050602082019050919050565b600081519050919050565b600081519050919050565b600081519050919050565b6000602082019050919050565b6000602082019050919050565b600082825260208201905092915050565b600082825260208201905092915050565b600082825260208201905092915050565b600082825260208201905092915050565b600082825260208201905092915050565b6000615899826159c5565b91506158a4836159c5565b9250827fffffffffffffffffffffffffffffffffffffffffffffffffffffffffffffffff038211156158d9576158d8615b6d565b5b828201905092915050565b60006158ef826159c5565b91506158fa836159c5565b92508261590a57615909615b9c565b5b828204905092915050565b6000615920826159c5565b915061592b836159c5565b92508282101561593e5761593d615b6d565b5b828203905092915050565b6000615954826159a5565b9050919050565b6000615966826159a5565b9050919050565b60008115159050919050565b60007fffffffff0000000000000000000000000000000000000000000000000000000082169050919050565b600073ffffffffffffffffffffffffffffffffffffffff82169050919050565b6000819050919050565b600060ff82169050919050565b60006159e782615a00565b9050919050565b60006159f9826159c5565b9050919050565b6000615a0b82615a12565b9050919050565b6000615a1d826159a5565b9050919050565b82818337600083830152505050565b60005b83811015615a51578082015181840152602081019050615a36565b83811115615a60576000848401525b50505050565b60006002820490506001821680615a7e57607f821691505b60208210811415615a9257615a91615bcb565b5b50919050565b615aa182615c29565b810181811067ffffffffffffffff82111715615ac057615abf615bfa565b5b80604052505050565b6000615ad4826159c5565b91507fffffffffffffffffffffffffffffffffffffffffffffffffffffffffffffffff821415615b0757615b06615b6d565b5b600182019050919050565b6000615b1d826159cf565b915060ff821415615b3157615b30615b6d565b5b600182019050919050565b6000615b47826159c5565b9150615b52836159c5565b925082615b6257615b61615b9c565b5b828206905092915050565b7f4e487b7100000000000000000000000000000000000000000000000000000000600052601160045260246000fd5b7f4e487b7100000000000000000000000000000000000000000000000000000000600052601260045260246000fd5b7f4e487b7100000000000000000000000000000000000000000000000000000000600052602260045260246000fd5b7f4e487b7100000000000000000000000000000000000000000000000000000000600052604160045260246000fd5b6000601f19601f8301169050919050565b7f5b5d000000000000000000000000000000000000000000000000000000000000600082015250565b7f506c65617365207375626d6974207468652061736b696e67207072696365206960008201527f6e206f7264657220746f20636f6d706c65746520746865207075726368617365602082015250565b7f5265656e7472616e637947756172643a207265656e7472616e742063616c6c00600082015250565b7f5573657220416c72656164792072656769737465726564000000000000000000600082015250565b615d0d81615949565b8114615d1857600080fd5b50565b615d248161596d565b8114615d2f57600080fd5b50565b615d3b81615979565b8114615d4657600080fd5b50565b615d52816159c5565b8114615d5d57600080fd5b5056fea26469706673582212208bbab9ccaba7c3f8ed48163a9801c667239d61643f7bff48daac6fdc3a0681d764736f6c63430008030033",
  "immutableReferences": {},
  "source": "// \"SPDX-License-Identifier: UNLICENSED\"\npragma solidity ^ 0.8 .3;\n\nimport \"./ACHouseToken1155.sol\";\nimport \"./ACHouseToken721.sol\";\n\nimport \"@openzeppelin/contracts/utils/Counters.sol\";\nimport \"@openzeppelin/contracts/security/ReentrancyGuard.sol\";\n\n\nimport \"@openzeppelin/contracts/token/ERC721/utils/ERC721Holder.sol\";\nimport \"@openzeppelin/contracts/token/ERC1155/utils/ERC1155Holder.sol\";\n\ncontract ACHouse is ReentrancyGuard, ERC1155Holder, ERC721Holder {\n  using Counters for Counters.Counter;\n  Counters.Counter private _itemIds;\n  Counters.Counter private _itemsSold;\n  Counters.Counter private _fracItemIds;\n  Counters.Counter private _ngoIds;\n\n  address owner;\n\n  ACHouseToken1155 _multiToken;\n  ACHouseToken721 _nftToken;\n\n  MarketItem[] mItems;\n\n  /** Variables and Event Emitters */\n  struct AuctionPlace {\n    uint256 id;\n    string name;\n  } \n  struct Artist {\n    uint256 id;\n    string name;\n  }\n  struct Participant {\n    uint256 id;\n    string name;\n  }\n  struct NGO {\n    uint256 id;\n    string name;\n    address charityAddress;\n  }\n\n  uint auctionPlaceCount = 0;\n  uint artistCount = 0;\n  uint participantCount = 0;\n  uint ngoCount = 0;\n  NGO[] public ngoArray;\n  address[] RegisteredUserAddresses; // might be used??\n\n  // mapping address to type\n  mapping(address => AuctionPlace) AuctionPlaceMapping;\n  mapping(address => Artist) ArtistMapping;\n  mapping(address => Participant) ParticipantMapping;\n\n  mapping(uint256 => NGO) NgoMapping;\n  // User address maps to - Chaities and the donation amount. \n  mapping(address => mapping(address => uint256)) UserNGODonation;\n\n  struct MarketItem {\n    uint itemId;\n    address nftContract;\n    uint256 tokenId;\n    address payable seller;\n    address payable owner;\n    uint256 price;\n    uint256 amount;\n    uint256 charityId;\n    uint256 auctionTime;\n    bool sold;\n    bool isMultiToken;\n    bool isRemoved;\n    bool isFrac;\n  }\n\n  mapping(uint256 => MarketItem) private idToMarketItem;\n  \n  //user mapping to itemSold array\n  mapping( address => uint256[]) userSoldItemMapping;\n  //user sold count mapp;\n  mapping ( address => uint256) userSoldCountMapping;\n  //user mapping to purchased item  array\n  mapping( address => uint256[]) userpurchasedItemMapping;\n  //user purchased count mapp;\n  mapping ( address => uint256) userPurchasedCountMapping;\n  \n  event MarketItemCreated(uint indexed itemId, address indexed nftContract, uint256 indexed tokenId, \n    address seller, uint256 price, uint256 amount, uint256 charityId, uint256 auctionTime, bool sold, bool isMultiToken, bool isRemoved, bool isFrac);\n  \n  event MarketItemSold(uint indexed itemId, address indexed nftContract, uint256 indexed tokenId, \n    address seller, address owner, uint256 price, bool sold);\n\n  /*******************fractionalize NFT */\n  struct FractionalizeToken {\n    uint itemId;\n    address nftContract;\n    uint256 tokenId;\n    address payable seller;\n    address payable owner;\n    address fractionalContract;\n    uint256 shardId;\n    uint256 supplyMinted;\n    uint256 supplyRemaining;\n    bool isMultiToken;\n  }\n  // id to fracToken\n  mapping(uint256 => FractionalizeToken) idToFracToken;\n  //user purchase to id to amount purchased\n  mapping (address => mapping(uint256 => uint256)) userShardPurchaseAmount;\n  \n  event FractionalTokenCreated(uint indexed itemId, address indexed nftContract, uint256 indexed tokenId, \n    address seller, address fractionalContract, uint256 shardId, uint256 supplyMinted, uint256 supplyRemaining,  bool isMultiToken);\n    \n\n  constructor(address _mToken, address _nToken) {\n    _multiToken = ACHouseToken1155(_mToken);\n    _nftToken = ACHouseToken721(_nToken);\n    \n    _multiToken.setParentAddress(address(this));\n    _nftToken.setParentAddress(address(this));\n    owner = payable(msg.sender);\n  }\n\n  function addCharity(address charityAddress, string memory name) public {\n    _ngoIds.increment();\n    uint256 id = _ngoIds.current();\n    NGO memory charity = NGO(id, name, charityAddress);\n\n    NgoMapping[id] = charity;\n  }\n\n  function getCharityInfo(uint256 _id) public view returns(NGO memory) {\n    return NgoMapping[_id];\n  }\n  \n  /***************************************************************************************************************************************/\n  /**MarketPlace functionality */\n  function create1155MarketItem(address nftContract, uint256 tokenId, uint256 price, uint256 amount, uint256 _charityId, uint256 auctionTime, bool isFrac) public payable nonReentrant returns (uint256){\n    //   require(price > 0, \"Price must be at least 1 wei\");\n    //   require(msg.value == listingPrice, \"Price must be equal to l_charityId\n\n    _itemIds.increment();\n    uint256 itemId = _itemIds.current();\n    \n    MarketItem memory item = MarketItem(itemId, nftContract, tokenId, payable(msg.sender), payable(address(0)), price, 1, _charityId, auctionTime, false, true, false, isFrac); // amount will always be 1. \n    idToMarketItem[itemId] = item;\n\n    IERC1155(nftContract).safeTransferFrom(msg.sender, address(this), tokenId, amount, '[]');\n\n    emit MarketItemCreated(itemId, nftContract, tokenId, msg.sender, price, amount, _charityId, auctionTime, false, true, false, isFrac);\n\n    return itemId;\n  }\n\n  function create721MarketItem(address nftContract, uint256 tokenId, uint256 price, uint256 _charityId, uint256 auctionTime, bool isFrac ) public payable nonReentrant returns (uint256){\n    // require(price > 0, \"Price must be at least 1 wei\");\n    // require(msg.value == listingPrice, \"Price must be equal to listing price\");\n\n    _itemIds.increment();\n    uint256 itemId = _itemIds.current();\n\n    MarketItem memory item = MarketItem(itemId, nftContract, tokenId, payable(msg.sender), payable(address(0)), price, 1, _charityId, auctionTime, false, true, false, isFrac); // amount will always be 1. \n    idToMarketItem[itemId] = item;\n\n    IERC721(nftContract).transferFrom(msg.sender, address(this), tokenId);\n\n    emit MarketItemCreated(itemId, nftContract, tokenId, msg.sender, price, 1, _charityId, auctionTime, false, false, false, isFrac);\n\n    return itemId;\n  }\n  \n  // Remove item from marketplace\n  function removeMarketPlaceItem( uint256 itemId) public {\n      \n      idToMarketItem[itemId].isRemoved = true;\n  }\n  \n  // re add item to marketplace\n  function addMarketPlaceItem( uint256 itemId) public {\n      \n      idToMarketItem[itemId].isRemoved = false;\n  }\n  \n  /* Creates the sale of a marketplace item */\n  /* Transfers ownership of the item, as well as funds between parties */\n  function createMarketSale(address nftContract, uint256 itemId) public payable nonReentrant {\n    \n    MarketItem memory item = idToMarketItem[itemId];\n    \n    uint price = item.price;\n    uint tokenId = item.tokenId;\n    bool isMultiToken = item.isMultiToken;\n    require(msg.value == price, \"Please submit the asking price in order to complete the purchase\");\n\n    // transfer funds\n    item.seller.transfer(msg.value);\n\n    //transfer ownership.\n    if(isMultiToken){\n      IERC1155(nftContract).safeTransferFrom(address(this), msg.sender, item.tokenId, item.amount, '[]');\n    }else{\n      IERC721(nftContract).transferFrom(address(this), msg.sender, tokenId);\n    }\n    \n    //set new owner inrecords.\n    item.owner = payable(msg.sender);\n    //set sold to true\n    item.sold = true;\n    //increament itemSold counter.\n    _itemsSold.increment();\n    \n    idToMarketItem[itemId] = item;\n    // mapp user address to itemSold [] and purchased[]\n    userSoldItemMapping[item.seller].push(itemId);\n    \n    //user mapping to purchased item  array\n    userpurchasedItemMapping[msg.sender].push(itemId);\n\n    emit MarketItemSold( itemId, nftContract, tokenId, item.seller, msg.sender, price, true);\n  }\n\n  function fetchMarketItem(uint256 _id) public view returns(MarketItem memory){\n    return idToMarketItem[_id];\n  }\n\n  /* Returns all unsold market items */\n  function fetchUnSoldMarketItems() public view returns(MarketItem[] memory) {\n    \n    uint totalUnSoldCount = _itemIds.current() - _itemsSold.current();\n    MarketItem[] memory items = new MarketItem[] (totalUnSoldCount);\n    \n    uint unsoldCurrentIndex = 0;\n    \n    uint totalItemCount = _itemIds.current();\n      \n    for(uint i=0; i < totalItemCount; i++){\n        // only way i found to iterate through a mapping. \n        if(idToMarketItem[i+1].owner == address(0) && idToMarketItem[i+1].isRemoved == false ) { \n            uint currentID = i+1;\n\n            MarketItem storage currentItem = idToMarketItem[currentID];\n            items[unsoldCurrentIndex] = currentItem;\n            \n            // uint itemId =idToMarketItem[currentID].itemId;\n            // string memory str =  uint2str(itemId);\n            \n            // itemIdStr.push(str);\n            \n            unsoldCurrentIndex +=1;\n        }\n    }\n    \n    return items; \n  }\n\n  /* Returns only items that a user has purchased */\n  function fetchMyNFTs() public view returns (MarketItem[] memory) {\n    \n    uint256[] memory userPurchasedIds = userpurchasedItemMapping[msg.sender];\n    \n    \n    MarketItem[] memory items = new MarketItem[](userPurchasedIds.length);\n    for(uint i =0; i< userPurchasedIds.length; i++){\n        \n        // MarketItem memory item = idToMarketItem[userPurchasedIds[i]];\n        \n        items[i] = idToMarketItem[userPurchasedIds[i]];\n    }\n    return items;\n  }\n\n  /* Returns only items a user has created */\n  function fetchItemsCreated() public view returns (MarketItem[] memory) {\n    //get total item count - created nin MarketItem.\n    uint totalItemCount = _itemIds.current();\n    uint itemCount = 0;\n    \n    for (uint i = 0; i < totalItemCount; i++) {\n      if (idToMarketItem[i + 1].seller == msg.sender) {\n        itemCount += 1;\n      }\n    }\n\n    MarketItem[] memory items = new MarketItem[](itemCount);\n    uint currentIndex = 0;\n    \n    for (uint i = 0; i < totalItemCount; i++) {\n      if (idToMarketItem[i + 1].seller == msg.sender) {\n        uint currentId = i + 1;\n        MarketItem storage currentItem = idToMarketItem[currentId];\n        items[currentIndex] = currentItem;\n        currentIndex += 1;\n      }\n    }\n    return items;\n  }\n  \n  /***************************************************************************************************************************************/\n  /**Functions - Registration  */\n  function register(string memory _name, uint _userType) public returns(bool) {\n    require(isUserRegistered(msg.sender) == false, \"User Already registered\");\n\n    //userType { 1: Auction, 2: Artist, 3: Participant}\n    // register user by type\n    if (_userType == 1) {\n      AuctionPlace memory ac = AuctionPlace(auctionPlaceCount, _name);\n      auctionPlaceCount++;\n\n      AuctionPlaceMapping[msg.sender] = ac;\n    } else if (_userType == 2) {\n      Artist memory ar = Artist(artistCount, _name);\n      artistCount++;\n\n      ArtistMapping[msg.sender] = ar;\n    } else {\n      Participant memory part = Participant(participantCount, _name);\n      participantCount++;\n\n      ParticipantMapping[msg.sender] = part;\n    }\n\n    RegisteredUserAddresses.push(msg.sender);\n    return true;\n  }\n\n  /**ERC1155 functionality ***********************************************/\n  function setURI1155(string memory _uri) public {\n    _multiToken.setURI(_uri);\n  }\n\n  function getTokenURI(uint256 _tokenId) public view returns(string memory){\n    return _multiToken.getTokenURI(_tokenId);\n  }\n  // mint 1155 NFT - set supply to 1. \n  function createNFT1155(uint256 _id, uint256 _amount) public {\n    _multiToken.mintNFT(msg.sender, _id, _amount);\n  }\n\n  //get tokens totalnumber. \n  function getTokenCount() public view returns(uint256) {\n    return _multiToken.getTokenCount();\n  }\n  //returns the array of all tokenids. \n  function getTokenIds() public view returns(uint256[] memory) {\n    return _multiToken.getTokenIds();\n  }\n\n  function getTokenSupply(uint256 _tokenId) public view returns(uint256) {\n    return _multiToken.getTotalSupplyOfToken(_tokenId);\n  }\n\n  /*************Fractional NFT */\n\n  //hold NFT and trasnfer ownership to ACHouse. \n  // ACHouse will mint 1155 then set it to orig owner of nft. \n  function fractionalize1155NFT(address nftContract, uint256 tokenId, uint256 shardId, uint256 supplyToCreate, string memory uri, bool isMultiToken) public returns (uint256) {\n    _fracItemIds.increment();\n    uint fracId = _fracItemIds.current();\n\n    FractionalizeToken memory fracItem = FractionalizeToken(fracId, nftContract, tokenId, payable(msg.sender), \n      payable(address(0)), address(_multiToken), shardId, supplyToCreate, supplyToCreate, isMultiToken); // supplyMinted and SupplyRemaining will be set as same for now. \n    \n    idToFracToken[fracId] = fracItem;\n\n    //get ownership of nftContract and its token.\n    IERC1155(nftContract).safeTransferFrom(msg.sender, address(this), tokenId, 1, '[]');\n    \n    //Mint 1155 fungible tokens. \n    setURI1155(uri); // call functiont to set uRL in 1155 token\n    _multiToken.mintNFT(msg.sender, fracId, supplyToCreate); //shard tokens created and ownership set to msg.sender ( person who decided to frac nft.)\n    \n    emit FractionalTokenCreated(fracId, nftContract, tokenId, msg.sender, address(_multiToken), shardId, supplyToCreate, supplyToCreate, isMultiToken);\n    \n    return fracId;\n    \n    \n  }\n\n  function fractionalize721NFT(address nftContract, uint256 tokenId, uint256 shardId, uint256 supplyToCreate, string memory uri, bool isMultiToken) public returns (uint256) {\n    _fracItemIds.increment();\n    uint fracId = _fracItemIds.current();\n    \n     FractionalizeToken memory fracItem = FractionalizeToken(fracId, nftContract, tokenId, payable(msg.sender), \n      payable(address(0)), address(_multiToken), shardId, supplyToCreate, supplyToCreate, isMultiToken); // supplyMinted and SupplyRemaining will be set as same for now. \n    \n    idToFracToken[fracId] = fracItem;\n\n    //get ownership of nftContract and its token.\n    IERC721(nftContract).transferFrom(msg.sender, address(this), tokenId);\n\n    //Mint 1155 fungible tokens.\n    setURI1155(uri); // call functiont to set uRL in 1155 token\n    _multiToken.mintNFT(msg.sender, fracId, supplyToCreate); //shard tokens created and ownership set to msg.sender ( person who decided to frac nft.)\n    \n    emit FractionalTokenCreated(fracId, nftContract, tokenId, msg.sender, address(_multiToken), shardId, supplyToCreate, supplyToCreate, isMultiToken);\n    \n    return fracId;\n  }\n\n  function getFractionalInformation(uint256 _fracId) public view returns (FractionalizeToken memory ){\n      \n      FractionalizeToken memory item = idToFracToken[_fracId];\n      \n      return item;\n  }\n  \n  /**ERC721 functionzlity *************************************************/\n  // mint 721 NFT - set supply to 1. \n  function createNFT721(uint256 _id, string memory uri, string memory name, string memory symbol) public {\n    _nftToken.mintNFT(msg.sender, _id, uri, name, symbol);\n  }\n\n  //get tokens totalnumber. \n  function get721TokenCount() public view returns(uint256) {\n    return _nftToken.getTokenCount();\n  }\n  //returns the array of all tokenids. \n  function get721TokenIds() public view returns(uint256[] memory) {\n    return _nftToken.getTokenIds();\n  }\n\n  function get721TokenName(uint256 _id) public view returns(string memory){\n    return _nftToken.getTokenName(_id);\n  }\n\n  function get721TokenSymbol(uint256 _id) public view returns(string memory){\n    return _nftToken.getTokenSymbol(_id);\n  }\n\n  function get721TokenURI(uint256 _id) public view returns(string memory) {\n    return _nftToken.getTokenUri(_id);\n  }\n\n  /**Helpers */\n  function isUserRegistered(address _address) internal view returns(bool) {\n    for (uint8 j = 0; j < RegisteredUserAddresses.length; j++) {\n      if (RegisteredUserAddresses[j] == _address) {\n        return (true); // user is registered.\n      }\n    }\n    return (false); // user is not registered.\n  }\n  \n   function uint2str(uint v) public pure returns (string memory) {\n        if(v == 0){\n            return '0';\n        }\n        uint maxlength = 100;\n        bytes memory reversed = new bytes(maxlength);\n        uint i = 0;\n        while (v != 0) {\n            uint remainder = v % 10;\n            v = v / 10;\n            reversed[i++] = bytes1(uint8(48 + remainder));\n        }\n        bytes memory s = new bytes(i); // i + 1 is inefficient\n        for (uint j = 0; j < i; j++) {\n            s[j] = reversed[i - j - 1]; // to avoid the off-by-one error\n        }\n        string memory str = string(s);  // memory isn't implicitly convertible to storage\n        return str;\n    }\n  \n}",
  "sourcePath": "/home/dinesh/Projects/EthOnline/contracts/ACHouse.sol",
  "compiler": {
    "name": "solc",
    "version": "0.8.3+commit.8d00100c.Emscripten.clang"
  },
  "schemaVersion": "3.3.4",
  "updatedAt": "2021-10-09T12:17:01.844Z",
  "networkType": "ethereum",
  "devdoc": {
    "kind": "dev",
    "methods": {
      "onERC721Received(address,address,uint256,bytes)": {
        "details": "See {IERC721Receiver-onERC721Received}. Always returns `IERC721Receiver.onERC721Received.selector`."
      },
      "supportsInterface(bytes4)": {
        "details": "See {IERC165-supportsInterface}."
      }
    },
    "version": 1
  },
  "userdoc": {
    "kind": "user",
    "methods": {
      "create1155MarketItem(address,uint256,uint256,uint256,uint256,uint256,bool)": {
        "notice": "MarketPlace functionality "
      },
      "createNFT721(uint256,string,string,string)": {
        "notice": "ERC721 functionzlity ************************************************"
      },
      "register(string,uint256)": {
        "notice": "Functions - Registration  "
      },
      "setURI1155(string)": {
        "notice": "ERC1155 functionality **********************************************"
      }
    },
    "version": 1
  }
}