{
  "contractName": "ACHouse",
  "abi": [
    {
      "inputs": [
        {
          "internalType": "address",
          "name": "_mToken",
          "type": "address"
        },
        {
          "internalType": "address",
          "name": "_nToken",
          "type": "address"
        }
      ],
      "stateMutability": "nonpayable",
      "type": "constructor"
    },
    {
      "anonymous": false,
      "inputs": [
        {
          "indexed": true,
          "internalType": "uint256",
          "name": "itemId",
          "type": "uint256"
        },
        {
          "indexed": true,
          "internalType": "address",
          "name": "nftContract",
          "type": "address"
        },
        {
          "indexed": true,
          "internalType": "uint256",
          "name": "tokenId",
          "type": "uint256"
        },
        {
          "indexed": false,
          "internalType": "address",
          "name": "seller",
          "type": "address"
        },
        {
          "indexed": false,
          "internalType": "address",
          "name": "owner",
          "type": "address"
        },
        {
          "indexed": false,
          "internalType": "uint256",
          "name": "price",
          "type": "uint256"
        },
        {
          "indexed": false,
          "internalType": "uint256",
          "name": "amount",
          "type": "uint256"
        },
        {
          "indexed": false,
          "internalType": "uint256",
          "name": "charityId",
          "type": "uint256"
        },
        {
          "indexed": false,
          "internalType": "uint256",
          "name": "auctionTime",
          "type": "uint256"
        },
        {
          "indexed": false,
          "internalType": "bool",
          "name": "sold",
          "type": "bool"
        },
        {
          "indexed": false,
          "internalType": "bool",
          "name": "isMultiToken",
          "type": "bool"
        },
        {
          "indexed": false,
          "internalType": "bool",
          "name": "isRemoved",
          "type": "bool"
        }
      ],
      "name": "MarketItemCreated",
      "type": "event"
    },
    {
      "anonymous": false,
      "inputs": [
        {
          "indexed": true,
          "internalType": "uint256",
          "name": "itemId",
          "type": "uint256"
        },
        {
          "indexed": true,
          "internalType": "address",
          "name": "nftContract",
          "type": "address"
        },
        {
          "indexed": true,
          "internalType": "uint256",
          "name": "tokenId",
          "type": "uint256"
        },
        {
          "indexed": false,
          "internalType": "address",
          "name": "seller",
          "type": "address"
        },
        {
          "indexed": false,
          "internalType": "address",
          "name": "owner",
          "type": "address"
        },
        {
          "indexed": false,
          "internalType": "uint256",
          "name": "price",
          "type": "uint256"
        },
        {
          "indexed": false,
          "internalType": "bool",
          "name": "sold",
          "type": "bool"
        }
      ],
      "name": "MarketItemSold",
      "type": "event"
    },
    {
      "inputs": [
        {
          "internalType": "uint256",
          "name": "",
          "type": "uint256"
        }
      ],
      "name": "ngoArray",
      "outputs": [
        {
          "internalType": "uint256",
          "name": "id",
          "type": "uint256"
        },
        {
          "internalType": "string",
          "name": "name",
          "type": "string"
        },
        {
          "internalType": "address",
          "name": "charityAddress",
          "type": "address"
        }
      ],
      "stateMutability": "view",
      "type": "function"
    },
    {
      "inputs": [
        {
          "internalType": "address",
          "name": "",
          "type": "address"
        },
        {
          "internalType": "address",
          "name": "",
          "type": "address"
        },
        {
          "internalType": "uint256[]",
          "name": "",
          "type": "uint256[]"
        },
        {
          "internalType": "uint256[]",
          "name": "",
          "type": "uint256[]"
        },
        {
          "internalType": "bytes",
          "name": "",
          "type": "bytes"
        }
      ],
      "name": "onERC1155BatchReceived",
      "outputs": [
        {
          "internalType": "bytes4",
          "name": "",
          "type": "bytes4"
        }
      ],
      "stateMutability": "nonpayable",
      "type": "function"
    },
    {
      "inputs": [
        {
          "internalType": "address",
          "name": "",
          "type": "address"
        },
        {
          "internalType": "address",
          "name": "",
          "type": "address"
        },
        {
          "internalType": "uint256",
          "name": "",
          "type": "uint256"
        },
        {
          "internalType": "uint256",
          "name": "",
          "type": "uint256"
        },
        {
          "internalType": "bytes",
          "name": "",
          "type": "bytes"
        }
      ],
      "name": "onERC1155Received",
      "outputs": [
        {
          "internalType": "bytes4",
          "name": "",
          "type": "bytes4"
        }
      ],
      "stateMutability": "nonpayable",
      "type": "function"
    },
    {
      "inputs": [
        {
          "internalType": "address",
          "name": "",
          "type": "address"
        },
        {
          "internalType": "address",
          "name": "",
          "type": "address"
        },
        {
          "internalType": "uint256",
          "name": "",
          "type": "uint256"
        },
        {
          "internalType": "bytes",
          "name": "",
          "type": "bytes"
        }
      ],
      "name": "onERC721Received",
      "outputs": [
        {
          "internalType": "bytes4",
          "name": "",
          "type": "bytes4"
        }
      ],
      "stateMutability": "nonpayable",
      "type": "function"
    },
    {
      "inputs": [
        {
          "internalType": "bytes4",
          "name": "interfaceId",
          "type": "bytes4"
        }
      ],
      "name": "supportsInterface",
      "outputs": [
        {
          "internalType": "bool",
          "name": "",
          "type": "bool"
        }
      ],
      "stateMutability": "view",
      "type": "function"
    },
    {
      "inputs": [
        {
          "internalType": "address",
          "name": "charityAddress",
          "type": "address"
        },
        {
          "internalType": "string",
          "name": "name",
          "type": "string"
        }
      ],
      "name": "addCharity",
      "outputs": [],
      "stateMutability": "nonpayable",
      "type": "function"
    },
    {
      "inputs": [
        {
          "internalType": "uint256",
          "name": "_id",
          "type": "uint256"
        }
      ],
      "name": "getCharityInfo",
      "outputs": [
        {
          "components": [
            {
              "internalType": "uint256",
              "name": "id",
              "type": "uint256"
            },
            {
              "internalType": "string",
              "name": "name",
              "type": "string"
            },
            {
              "internalType": "address",
              "name": "charityAddress",
              "type": "address"
            }
          ],
          "internalType": "struct ACHouse.NGO",
          "name": "",
          "type": "tuple"
        }
      ],
      "stateMutability": "view",
      "type": "function"
    },
    {
      "inputs": [
        {
          "internalType": "address",
          "name": "nftContract",
          "type": "address"
        },
        {
          "internalType": "uint256",
          "name": "tokenId",
          "type": "uint256"
        },
        {
          "internalType": "uint256",
          "name": "price",
          "type": "uint256"
        },
        {
          "internalType": "uint256",
          "name": "amount",
          "type": "uint256"
        },
        {
          "internalType": "uint256",
          "name": "_charityId",
          "type": "uint256"
        },
        {
          "internalType": "uint256",
          "name": "auctionTime",
          "type": "uint256"
        }
      ],
      "name": "create1155MarketItem",
      "outputs": [
        {
          "internalType": "uint256",
          "name": "",
          "type": "uint256"
        }
      ],
      "stateMutability": "payable",
      "type": "function"
    },
    {
      "inputs": [
        {
          "internalType": "address",
          "name": "nftContract",
          "type": "address"
        },
        {
          "internalType": "uint256",
          "name": "tokenId",
          "type": "uint256"
        },
        {
          "internalType": "uint256",
          "name": "price",
          "type": "uint256"
        },
        {
          "internalType": "uint256",
          "name": "_charityId",
          "type": "uint256"
        },
        {
          "internalType": "uint256",
          "name": "auctionTime",
          "type": "uint256"
        }
      ],
      "name": "create721MarketItem",
      "outputs": [
        {
          "internalType": "uint256",
          "name": "",
          "type": "uint256"
        }
      ],
      "stateMutability": "payable",
      "type": "function"
    },
    {
      "inputs": [
        {
          "internalType": "uint256",
          "name": "itemId",
          "type": "uint256"
        }
      ],
      "name": "removeMarketPlaceItem",
      "outputs": [],
      "stateMutability": "nonpayable",
      "type": "function"
    },
    {
      "inputs": [
        {
          "internalType": "uint256",
          "name": "itemId",
          "type": "uint256"
        }
      ],
      "name": "addMarketPlaceItem",
      "outputs": [],
      "stateMutability": "nonpayable",
      "type": "function"
    },
    {
      "inputs": [
        {
          "internalType": "address",
          "name": "nftContract",
          "type": "address"
        },
        {
          "internalType": "uint256",
          "name": "itemId",
          "type": "uint256"
        }
      ],
      "name": "createMarketSale",
      "outputs": [],
      "stateMutability": "payable",
      "type": "function"
    },
    {
      "inputs": [],
      "name": "fetchUnSoldMarketItems",
      "outputs": [
        {
          "components": [
            {
              "internalType": "uint256",
              "name": "itemId",
              "type": "uint256"
            },
            {
              "internalType": "address",
              "name": "nftContract",
              "type": "address"
            },
            {
              "internalType": "uint256",
              "name": "tokenId",
              "type": "uint256"
            },
            {
              "internalType": "address payable",
              "name": "seller",
              "type": "address"
            },
            {
              "internalType": "address payable",
              "name": "owner",
              "type": "address"
            },
            {
              "internalType": "uint256",
              "name": "price",
              "type": "uint256"
            },
            {
              "internalType": "uint256",
              "name": "amount",
              "type": "uint256"
            },
            {
              "internalType": "uint256",
              "name": "charityId",
              "type": "uint256"
            },
            {
              "internalType": "uint256",
              "name": "auctionTime",
              "type": "uint256"
            },
            {
              "internalType": "bool",
              "name": "sold",
              "type": "bool"
            },
            {
              "internalType": "bool",
              "name": "isMultiToken",
              "type": "bool"
            },
            {
              "internalType": "bool",
              "name": "isRemoved",
              "type": "bool"
            }
          ],
          "internalType": "struct ACHouse.MarketItem[]",
          "name": "",
          "type": "tuple[]"
        }
      ],
      "stateMutability": "view",
      "type": "function"
    },
    {
      "inputs": [],
      "name": "fetchMyNFTs",
      "outputs": [
        {
          "components": [
            {
              "internalType": "uint256",
              "name": "itemId",
              "type": "uint256"
            },
            {
              "internalType": "address",
              "name": "nftContract",
              "type": "address"
            },
            {
              "internalType": "uint256",
              "name": "tokenId",
              "type": "uint256"
            },
            {
              "internalType": "address payable",
              "name": "seller",
              "type": "address"
            },
            {
              "internalType": "address payable",
              "name": "owner",
              "type": "address"
            },
            {
              "internalType": "uint256",
              "name": "price",
              "type": "uint256"
            },
            {
              "internalType": "uint256",
              "name": "amount",
              "type": "uint256"
            },
            {
              "internalType": "uint256",
              "name": "charityId",
              "type": "uint256"
            },
            {
              "internalType": "uint256",
              "name": "auctionTime",
              "type": "uint256"
            },
            {
              "internalType": "bool",
              "name": "sold",
              "type": "bool"
            },
            {
              "internalType": "bool",
              "name": "isMultiToken",
              "type": "bool"
            },
            {
              "internalType": "bool",
              "name": "isRemoved",
              "type": "bool"
            }
          ],
          "internalType": "struct ACHouse.MarketItem[]",
          "name": "",
          "type": "tuple[]"
        }
      ],
      "stateMutability": "view",
      "type": "function"
    },
    {
      "inputs": [],
      "name": "fetchItemsCreated",
      "outputs": [
        {
          "components": [
            {
              "internalType": "uint256",
              "name": "itemId",
              "type": "uint256"
            },
            {
              "internalType": "address",
              "name": "nftContract",
              "type": "address"
            },
            {
              "internalType": "uint256",
              "name": "tokenId",
              "type": "uint256"
            },
            {
              "internalType": "address payable",
              "name": "seller",
              "type": "address"
            },
            {
              "internalType": "address payable",
              "name": "owner",
              "type": "address"
            },
            {
              "internalType": "uint256",
              "name": "price",
              "type": "uint256"
            },
            {
              "internalType": "uint256",
              "name": "amount",
              "type": "uint256"
            },
            {
              "internalType": "uint256",
              "name": "charityId",
              "type": "uint256"
            },
            {
              "internalType": "uint256",
              "name": "auctionTime",
              "type": "uint256"
            },
            {
              "internalType": "bool",
              "name": "sold",
              "type": "bool"
            },
            {
              "internalType": "bool",
              "name": "isMultiToken",
              "type": "bool"
            },
            {
              "internalType": "bool",
              "name": "isRemoved",
              "type": "bool"
            }
          ],
          "internalType": "struct ACHouse.MarketItem[]",
          "name": "",
          "type": "tuple[]"
        }
      ],
      "stateMutability": "view",
      "type": "function"
    },
    {
      "inputs": [
        {
          "internalType": "string",
          "name": "_name",
          "type": "string"
        },
        {
          "internalType": "uint256",
          "name": "_userType",
          "type": "uint256"
        }
      ],
      "name": "register",
      "outputs": [
        {
          "internalType": "bool",
          "name": "",
          "type": "bool"
        }
      ],
      "stateMutability": "nonpayable",
      "type": "function"
    },
    {
      "inputs": [
        {
          "internalType": "string",
          "name": "_uri",
          "type": "string"
        }
      ],
      "name": "setURI1155",
      "outputs": [],
      "stateMutability": "nonpayable",
      "type": "function"
    },
    {
      "inputs": [
        {
          "internalType": "uint256",
          "name": "_tokenId",
          "type": "uint256"
        }
      ],
      "name": "getTokenURI",
      "outputs": [
        {
          "internalType": "string",
          "name": "",
          "type": "string"
        }
      ],
      "stateMutability": "view",
      "type": "function"
    },
    {
      "inputs": [
        {
          "internalType": "uint256",
          "name": "_id",
          "type": "uint256"
        },
        {
          "internalType": "uint256",
          "name": "_amount",
          "type": "uint256"
        }
      ],
      "name": "createNFT1155",
      "outputs": [],
      "stateMutability": "nonpayable",
      "type": "function"
    },
    {
      "inputs": [],
      "name": "getTokenCount",
      "outputs": [
        {
          "internalType": "uint256",
          "name": "",
          "type": "uint256"
        }
      ],
      "stateMutability": "view",
      "type": "function"
    },
    {
      "inputs": [],
      "name": "getTokenIds",
      "outputs": [
        {
          "internalType": "uint256[]",
          "name": "",
          "type": "uint256[]"
        }
      ],
      "stateMutability": "view",
      "type": "function"
    },
    {
      "inputs": [
        {
          "internalType": "uint256",
          "name": "_tokenId",
          "type": "uint256"
        }
      ],
      "name": "getTokenSupply",
      "outputs": [
        {
          "internalType": "uint256",
          "name": "",
          "type": "uint256"
        }
      ],
      "stateMutability": "view",
      "type": "function"
    },
    {
      "inputs": [
        {
          "internalType": "address",
          "name": "nftContract",
          "type": "address"
        },
        {
          "internalType": "uint256",
          "name": "tokenId",
          "type": "uint256"
        },
        {
          "internalType": "uint256",
          "name": "shardId",
          "type": "uint256"
        },
        {
          "internalType": "uint256",
          "name": "priceOfShard",
          "type": "uint256"
        },
        {
          "internalType": "uint256",
          "name": "supplyToCreate",
          "type": "uint256"
        },
        {
          "internalType": "string",
          "name": "uri",
          "type": "string"
        }
      ],
      "name": "fractionalize1155NFT",
      "outputs": [
        {
          "internalType": "uint256",
          "name": "",
          "type": "uint256"
        }
      ],
      "stateMutability": "nonpayable",
      "type": "function"
    },
    {
      "inputs": [
        {
          "internalType": "address",
          "name": "nftContract",
          "type": "address"
        },
        {
          "internalType": "uint256",
          "name": "tokenId",
          "type": "uint256"
        },
        {
          "internalType": "uint256",
          "name": "shardId",
          "type": "uint256"
        },
        {
          "internalType": "uint256",
          "name": "priceOfShard",
          "type": "uint256"
        },
        {
          "internalType": "uint256",
          "name": "supplyToCreate",
          "type": "uint256"
        },
        {
          "internalType": "string",
          "name": "uri",
          "type": "string"
        }
      ],
      "name": "fractionalize721NFT",
      "outputs": [
        {
          "internalType": "uint256",
          "name": "",
          "type": "uint256"
        }
      ],
      "stateMutability": "nonpayable",
      "type": "function"
    },
    {
      "inputs": [
        {
          "internalType": "uint256",
          "name": "_id",
          "type": "uint256"
        },
        {
          "internalType": "string",
          "name": "uri",
          "type": "string"
        },
        {
          "internalType": "string",
          "name": "name",
          "type": "string"
        },
        {
          "internalType": "string",
          "name": "symbol",
          "type": "string"
        }
      ],
      "name": "createNFT721",
      "outputs": [],
      "stateMutability": "nonpayable",
      "type": "function"
    },
    {
      "inputs": [],
      "name": "get721TokenCount",
      "outputs": [
        {
          "internalType": "uint256",
          "name": "",
          "type": "uint256"
        }
      ],
      "stateMutability": "view",
      "type": "function"
    },
    {
      "inputs": [],
      "name": "get721TokenIds",
      "outputs": [
        {
          "internalType": "uint256[]",
          "name": "",
          "type": "uint256[]"
        }
      ],
      "stateMutability": "view",
      "type": "function"
    },
    {
      "inputs": [
        {
          "internalType": "uint256",
          "name": "_id",
          "type": "uint256"
        }
      ],
      "name": "get721TokenName",
      "outputs": [
        {
          "internalType": "string",
          "name": "",
          "type": "string"
        }
      ],
      "stateMutability": "view",
      "type": "function"
    },
    {
      "inputs": [
        {
          "internalType": "uint256",
          "name": "_id",
          "type": "uint256"
        }
      ],
      "name": "get721TokenSymbol",
      "outputs": [
        {
          "internalType": "string",
          "name": "",
          "type": "string"
        }
      ],
      "stateMutability": "view",
      "type": "function"
    },
    {
      "inputs": [
        {
          "internalType": "uint256",
          "name": "_id",
          "type": "uint256"
        }
      ],
      "name": "get721TokenURI",
      "outputs": [
        {
          "internalType": "string",
          "name": "",
          "type": "string"
        }
      ],
      "stateMutability": "view",
      "type": "function"
    }
  ],
  "bytecode": "0x6080604052600060085560006009556000600a556000600b553480156200002557600080fd5b506040516200531f3803806200531f83398181016040528101906200004b919062000257565b600160008190555081600660006101000a81548173ffffffffffffffffffffffffffffffffffffffff021916908373ffffffffffffffffffffffffffffffffffffffff16021790555080600760006101000a81548173ffffffffffffffffffffffffffffffffffffffff021916908373ffffffffffffffffffffffffffffffffffffffff160217905550600660009054906101000a900473ffffffffffffffffffffffffffffffffffffffff1673ffffffffffffffffffffffffffffffffffffffff1663fa5afe40306040518263ffffffff1660e01b8152600401620001329190620002a9565b600060405180830381600087803b1580156200014d57600080fd5b505af115801562000162573d6000803e3d6000fd5b50505050600760009054906101000a900473ffffffffffffffffffffffffffffffffffffffff1673ffffffffffffffffffffffffffffffffffffffff1663fa5afe40306040518263ffffffff1660e01b8152600401620001c39190620002a9565b600060405180830381600087803b158015620001de57600080fd5b505af1158015620001f3573d6000803e3d6000fd5b5050505033600560006101000a81548173ffffffffffffffffffffffffffffffffffffffff021916908373ffffffffffffffffffffffffffffffffffffffff160217905550505062000314565b6000815190506200025181620002fa565b92915050565b600080604083850312156200026b57600080fd5b60006200027b8582860162000240565b92505060206200028e8582860162000240565b9150509250929050565b620002a381620002c6565b82525050565b6000602082019050620002c0600083018462000298565b92915050565b6000620002d382620002da565b9050919050565b600073ffffffffffffffffffffffffffffffffffffffff82169050919050565b6200030581620002c6565b81146200031157600080fd5b50565b614ffb80620003246000396000f3fe6080604052600436106101cd5760003560e01c806378a89567116100f7578063bc197c8111610095578063dce9fc1111610064578063dce9fc11146106fb578063ea87152b14610724578063f064c32e14610761578063f23a6e611461078c576101cd565b8063bc197c8114610647578063be7c7abb14610684578063c23b139e146106b4578063dbcd674e146106d0576101cd565b80639c79afb3116100d15780639c79afb3146105655780639ca7aac7146105a4578063af8e6c39146105e1578063b5daa4fc1461060a576101cd565b806378a89567146104e65780638335649714610511578063953e82671461053a576101cd565b8063382edbcf1161016f5780635d46fcc71161013e5780635d46fcc71461042557806367f718a9146104555780636b3ed26f1461048057806372f7bec8146104bd576101cd565b8063382edbcf146103575780633bb3a24d146103825780633e52a165146103bf57806343404be1146103e8576101cd565b806319b88edb116101ab57806319b88edb14610275578063202e3740146102b257806325762e57146102dd5780632642c74f1461031a576101cd565b806301ffc9a7146101d2578063145eca8c1461020f578063150b7a0214610238575b600080fd5b3480156101de57600080fd5b506101f960048036038101906101f49190613fdd565b6107c9565b6040516102069190614905565b60405180910390f35b34801561021b57600080fd5b50610236600480360381019061023191906140dc565b610843565b005b34801561024457600080fd5b5061025f600480360381019061025a9190613c61565b610875565b60405161026c9190614920565b60405180910390f35b34801561028157600080fd5b5061029c600480360381019061029791906140dc565b610889565b6040516102a991906149df565b60405180910390f35b3480156102be57600080fd5b506102c761093d565b6040516102d491906148c1565b60405180910390f35b3480156102e957600080fd5b5061030460048036038101906102ff91906140dc565b610caa565b604051610311919061493b565b60405180910390f35b34801561032657600080fd5b50610341600480360381019061033c9190613e72565b610d63565b60405161034e91906149df565b60405180910390f35b34801561036357600080fd5b5061036c6110cb565b60405161037991906148c1565b60405180910390f35b34801561038e57600080fd5b506103a960048036038101906103a491906140dc565b61146f565b6040516103b6919061493b565b60405180910390f35b3480156103cb57600080fd5b506103e660048036038101906103e191906140dc565b611528565b005b3480156103f457600080fd5b5061040f600480360381019061040a91906140dc565b61155a565b60405161041c91906149bd565b60405180910390f35b61043f600480360381019061043a9190613f13565b611679565b60405161044c91906149df565b60405180910390f35b34801561046157600080fd5b5061046a6119fc565b60405161047791906148e3565b60405180910390f35b34801561048c57600080fd5b506104a760048036038101906104a291906140dc565b611aa8565b6040516104b4919061493b565b60405180910390f35b3480156104c957600080fd5b506104e460048036038101906104df9190613d6b565b611b61565b005b3480156104f257600080fd5b506104fb611c39565b60405161050891906149df565b60405180910390f35b34801561051d57600080fd5b506105386004803603810190610533919061412e565b611ce0565b005b34801561054657600080fd5b5061054f611d7b565b60405161055c91906148e3565b60405180910390f35b34801561057157600080fd5b5061058c600480360381019061058791906140dc565b611e27565b60405161059b939291906149fa565b60405180910390f35b3480156105b057600080fd5b506105cb60048036038101906105c691906140dc565b611f09565b6040516105d8919061493b565b60405180910390f35b3480156105ed57600080fd5b5061060860048036038101906106039190614006565b611fc2565b005b34801561061657600080fd5b50610631600480360381019061062c9190613e72565b612052565b60405161063e91906149df565b60405180910390f35b34801561065357600080fd5b5061066e60048036038101906106699190613ba2565b6123bd565b60405161067b9190614920565b60405180910390f35b61069e60048036038101906106999190613dfb565b6123d2565b6040516106ab91906149df565b60405180910390f35b6106ce60048036038101906106c99190613dbf565b612752565b005b3480156106dc57600080fd5b506106e5612e0a565b6040516106f291906149df565b60405180910390f35b34801561070757600080fd5b50610722600480360381019061071d91906141d9565b612eb1565b005b34801561073057600080fd5b5061074b60048036038101906107469190614088565b612f46565b6040516107589190614905565b60405180910390f35b34801561076d57600080fd5b506107766131fb565b60405161078391906148c1565b60405180910390f35b34801561079857600080fd5b506107b360048036038101906107ae9190613cdc565b6135e9565b6040516107c09190614920565b60405180910390f35b60007f4e2312e0000000000000000000000000000000000000000000000000000000007bffffffffffffffffffffffffffffffffffffffffffffffffffffffff1916827bffffffffffffffffffffffffffffffffffffffffffffffffffffffff1916148061083c575061083b826135fe565b5b9050919050565b60016013600083815260200190815260200160002060090160026101000a81548160ff02191690831515021790555050565b600063150b7a0260e01b9050949350505050565b6000600660009054906101000a900473ffffffffffffffffffffffffffffffffffffffff1673ffffffffffffffffffffffffffffffffffffffff166397492c1c836040518263ffffffff1660e01b81526004016108e691906149df565b60206040518083038186803b1580156108fe57600080fd5b505afa158015610912573d6000803e3d6000fd5b505050506040513d601f19601f820116820180604052508101906109369190614105565b9050919050565b60606000601660003373ffffffffffffffffffffffffffffffffffffffff1673ffffffffffffffffffffffffffffffffffffffff1681526020019081526020016000208054806020026020016040519081016040528092919081815260200182805480156109ca57602002820191906000526020600020905b8154815260200190600101908083116109b6575b505050505090506000815167ffffffffffffffff811115610a14577f4e487b7100000000000000000000000000000000000000000000000000000000600052604160045260246000fd5b604051908082528060200260200182016040528015610a4d57816020015b610a3a613767565b815260200190600190039081610a325790505b50905060005b8251811015610ca15760136000848381518110610a99577f4e487b7100000000000000000000000000000000000000000000000000000000600052603260045260246000fd5b6020026020010151815260200190815260200160002060405180610180016040529081600082015481526020016001820160009054906101000a900473ffffffffffffffffffffffffffffffffffffffff1673ffffffffffffffffffffffffffffffffffffffff1673ffffffffffffffffffffffffffffffffffffffff168152602001600282015481526020016003820160009054906101000a900473ffffffffffffffffffffffffffffffffffffffff1673ffffffffffffffffffffffffffffffffffffffff1673ffffffffffffffffffffffffffffffffffffffff1681526020016004820160009054906101000a900473ffffffffffffffffffffffffffffffffffffffff1673ffffffffffffffffffffffffffffffffffffffff1673ffffffffffffffffffffffffffffffffffffffff168152602001600582015481526020016006820154815260200160078201548152602001600882015481526020016009820160009054906101000a900460ff161515151581526020016009820160019054906101000a900460ff161515151581526020016009820160029054906101000a900460ff161515151581525050828281518110610c83577f4e487b7100000000000000000000000000000000000000000000000000000000600052603260045260246000fd5b60200260200101819052508080610c9990614da5565b915050610a53565b50809250505090565b6060600760009054906101000a900473ffffffffffffffffffffffffffffffffffffffff1673ffffffffffffffffffffffffffffffffffffffff16638ad91345836040518263ffffffff1660e01b8152600401610d0791906149df565b60006040518083038186803b158015610d1f57600080fd5b505afa158015610d33573d6000803e3d6000fd5b505050506040513d6000823e3d601f19601f82011682018060405250810190610d5c9190614047565b9050919050565b6000610d6f6003613668565b6000610d7b600361367e565b905060006040518061014001604052808381526020018a73ffffffffffffffffffffffffffffffffffffffff1681526020018981526020013373ffffffffffffffffffffffffffffffffffffffff168152602001600073ffffffffffffffffffffffffffffffffffffffff168152602001600660009054906101000a900473ffffffffffffffffffffffffffffffffffffffff1673ffffffffffffffffffffffffffffffffffffffff16815260200188815260200187815260200186815260200186815250905080601860008481526020019081526020016000206000820151816000015560208201518160010160006101000a81548173ffffffffffffffffffffffffffffffffffffffff021916908373ffffffffffffffffffffffffffffffffffffffff1602179055506040820151816002015560608201518160030160006101000a81548173ffffffffffffffffffffffffffffffffffffffff021916908373ffffffffffffffffffffffffffffffffffffffff16021790555060808201518160040160006101000a81548173ffffffffffffffffffffffffffffffffffffffff021916908373ffffffffffffffffffffffffffffffffffffffff16021790555060a08201518160050160006101000a81548173ffffffffffffffffffffffffffffffffffffffff021916908373ffffffffffffffffffffffffffffffffffffffff16021790555060c0820151816006015560e08201518160070155610100820151816008015561012082015181600901559050508873ffffffffffffffffffffffffffffffffffffffff166323b872dd33308b6040518463ffffffff1660e01b8152600401610ff093929190614621565b600060405180830381600087803b15801561100a57600080fd5b505af115801561101e573d6000803e3d6000fd5b5050505061102b84611fc2565b600660009054906101000a900473ffffffffffffffffffffffffffffffffffffffff1673ffffffffffffffffffffffffffffffffffffffff16635a9d10a23384886040518463ffffffff1660e01b815260040161108a9392919061488a565b600060405180830381600087803b1580156110a457600080fd5b505af11580156110b8573d6000803e3d6000fd5b5050505081925050509695505050505050565b606060006110d9600261367e565b6110e3600161367e565b6110ed9190614bf1565b905060008167ffffffffffffffff811115611131577f4e487b7100000000000000000000000000000000000000000000000000000000600052604160045260246000fd5b60405190808252806020026020018201604052801561116a57816020015b611157613767565b81526020019060019003908161114f5790505b50905060008061117a600161367e565b905060005b8181101561146457600073ffffffffffffffffffffffffffffffffffffffff16601360006001846111b09190614b9b565b815260200190815260200160002060040160009054906101000a900473ffffffffffffffffffffffffffffffffffffffff1673ffffffffffffffffffffffffffffffffffffffff16148015611238575060001515601360006001846112159190614b9b565b815260200190815260200160002060090160029054906101000a900460ff161515145b1561145157600060018261124c9190614b9b565b90506013600082815260200190815260200160002060405180610180016040529081600082015481526020016001820160009054906101000a900473ffffffffffffffffffffffffffffffffffffffff1673ffffffffffffffffffffffffffffffffffffffff1673ffffffffffffffffffffffffffffffffffffffff168152602001600282015481526020016003820160009054906101000a900473ffffffffffffffffffffffffffffffffffffffff1673ffffffffffffffffffffffffffffffffffffffff1673ffffffffffffffffffffffffffffffffffffffff1681526020016004820160009054906101000a900473ffffffffffffffffffffffffffffffffffffffff1673ffffffffffffffffffffffffffffffffffffffff1673ffffffffffffffffffffffffffffffffffffffff168152602001600582015481526020016006820154815260200160078201548152602001600882015481526020016009820160009054906101000a900460ff161515151581526020016009820160019054906101000a900460ff161515151581526020016009820160029054906101000a900460ff161515151581525050858581518110611435577f4e487b7100000000000000000000000000000000000000000000000000000000600052603260045260246000fd5b602002602001018190525060018461144d9190614b9b565b9350505b808061145c90614da5565b91505061117f565b508294505050505090565b6060600660009054906101000a900473ffffffffffffffffffffffffffffffffffffffff1673ffffffffffffffffffffffffffffffffffffffff16633bb3a24d836040518263ffffffff1660e01b81526004016114cc91906149df565b60006040518083038186803b1580156114e457600080fd5b505afa1580156114f8573d6000803e3d6000fd5b505050506040513d6000823e3d601f19601f820116820180604052508101906115219190614047565b9050919050565b60006013600083815260200190815260200160002060090160026101000a81548160ff02191690831515021790555050565b611562613810565b601160008381526020019081526020016000206040518060600160405290816000820154815260200160018201805461159a90614d42565b80601f01602080910402602001604051908101604052809291908181526020018280546115c690614d42565b80156116135780601f106115e857610100808354040283529160200191611613565b820191906000526020600020905b8154815290600101906020018083116115f657829003601f168201915b505050505081526020016002820160009054906101000a900473ffffffffffffffffffffffffffffffffffffffff1673ffffffffffffffffffffffffffffffffffffffff1673ffffffffffffffffffffffffffffffffffffffff16815250509050919050565b6000600260005414156116c1576040517f08c379a00000000000000000000000000000000000000000000000000000000081526004016116b89061497d565b60405180910390fd5b60026000819055506116d36001613668565b60006116df600161367e565b905060006040518061018001604052808381526020018a73ffffffffffffffffffffffffffffffffffffffff1681526020018981526020013373ffffffffffffffffffffffffffffffffffffffff168152602001600073ffffffffffffffffffffffffffffffffffffffff1681526020018881526020016001815260200186815260200185815260200160001515815260200160011515815260200160001515815250905080601360008481526020019081526020016000206000820151816000015560208201518160010160006101000a81548173ffffffffffffffffffffffffffffffffffffffff021916908373ffffffffffffffffffffffffffffffffffffffff1602179055506040820151816002015560608201518160030160006101000a81548173ffffffffffffffffffffffffffffffffffffffff021916908373ffffffffffffffffffffffffffffffffffffffff16021790555060808201518160040160006101000a81548173ffffffffffffffffffffffffffffffffffffffff021916908373ffffffffffffffffffffffffffffffffffffffff16021790555060a0820151816005015560c0820151816006015560e0820151816007015561010082015181600801556101208201518160090160006101000a81548160ff0219169083151502179055506101408201518160090160016101000a81548160ff0219169083151502179055506101608201518160090160026101000a81548160ff0219169083151502179055509050508873ffffffffffffffffffffffffffffffffffffffff1663f242432a33308b8a6040518563ffffffff1660e01b815260040161194f949392919061473d565b600060405180830381600087803b15801561196957600080fd5b505af115801561197d573d6000803e3d6000fd5b50505050878973ffffffffffffffffffffffffffffffffffffffff16837f27c56f6ac604894f34ddf0bfe8296d43c52ac0637dec4c28996e8a904c989d593360008c8c8c8c6000600160006040516119dd99989796959493929190614795565b60405180910390a4819250505060016000819055509695505050505050565b6060600660009054906101000a900473ffffffffffffffffffffffffffffffffffffffff1673ffffffffffffffffffffffffffffffffffffffff166367f718a96040518163ffffffff1660e01b815260040160006040518083038186803b158015611a6657600080fd5b505afa158015611a7a573d6000803e3d6000fd5b505050506040513d6000823e3d601f19601f82011682018060405250810190611aa39190613f9c565b905090565b6060600760009054906101000a900473ffffffffffffffffffffffffffffffffffffffff1673ffffffffffffffffffffffffffffffffffffffff16637b78bd3f836040518263ffffffff1660e01b8152600401611b0591906149df565b60006040518083038186803b158015611b1d57600080fd5b505afa158015611b31573d6000803e3d6000fd5b505050506040513d6000823e3d601f19601f82011682018060405250810190611b5a9190614047565b9050919050565b611b6b6004613668565b6000611b77600461367e565b9050600060405180606001604052808381526020018481526020018573ffffffffffffffffffffffffffffffffffffffff1681525090508060116000848152602001908152602001600020600082015181600001556020820151816001019080519060200190611be8929190613847565b5060408201518160020160006101000a81548173ffffffffffffffffffffffffffffffffffffffff021916908373ffffffffffffffffffffffffffffffffffffffff16021790555090505050505050565b6000600660009054906101000a900473ffffffffffffffffffffffffffffffffffffffff1673ffffffffffffffffffffffffffffffffffffffff166378a895676040518163ffffffff1660e01b815260040160206040518083038186803b158015611ca357600080fd5b505afa158015611cb7573d6000803e3d6000fd5b505050506040513d601f19601f82011682018060405250810190611cdb9190614105565b905090565b600760009054906101000a900473ffffffffffffffffffffffffffffffffffffffff1673ffffffffffffffffffffffffffffffffffffffff1663257d89db33868686866040518663ffffffff1660e01b8152600401611d43959493929190614822565b600060405180830381600087803b158015611d5d57600080fd5b505af1158015611d71573d6000803e3d6000fd5b5050505050505050565b6060600760009054906101000a900473ffffffffffffffffffffffffffffffffffffffff1673ffffffffffffffffffffffffffffffffffffffff166367f718a96040518163ffffffff1660e01b815260040160006040518083038186803b158015611de557600080fd5b505afa158015611df9573d6000803e3d6000fd5b505050506040513d6000823e3d601f19601f82011682018060405250810190611e229190613f9c565b905090565b600c8181548110611e3757600080fd5b9060005260206000209060030201600091509050806000015490806001018054611e6090614d42565b80601f0160208091040260200160405190810160405280929190818152602001828054611e8c90614d42565b8015611ed95780601f10611eae57610100808354040283529160200191611ed9565b820191906000526020600020905b815481529060010190602001808311611ebc57829003601f168201915b5050505050908060020160009054906101000a900473ffffffffffffffffffffffffffffffffffffffff16905083565b6060600760009054906101000a900473ffffffffffffffffffffffffffffffffffffffff1673ffffffffffffffffffffffffffffffffffffffff1663dbe16c07836040518263ffffffff1660e01b8152600401611f6691906149df565b60006040518083038186803b158015611f7e57600080fd5b505afa158015611f92573d6000803e3d6000fd5b505050506040513d6000823e3d601f19601f82011682018060405250810190611fbb9190614047565b9050919050565b600660009054906101000a900473ffffffffffffffffffffffffffffffffffffffff1673ffffffffffffffffffffffffffffffffffffffff166302fe5305826040518263ffffffff1660e01b815260040161201d919061493b565b600060405180830381600087803b15801561203757600080fd5b505af115801561204b573d6000803e3d6000fd5b5050505050565b600061205e6003613668565b600061206a600361367e565b905060006040518061014001604052808381526020018a73ffffffffffffffffffffffffffffffffffffffff1681526020018981526020013373ffffffffffffffffffffffffffffffffffffffff168152602001600073ffffffffffffffffffffffffffffffffffffffff168152602001600660009054906101000a900473ffffffffffffffffffffffffffffffffffffffff1673ffffffffffffffffffffffffffffffffffffffff16815260200188815260200187815260200186815260200186815250905080601860008481526020019081526020016000206000820151816000015560208201518160010160006101000a81548173ffffffffffffffffffffffffffffffffffffffff021916908373ffffffffffffffffffffffffffffffffffffffff1602179055506040820151816002015560608201518160030160006101000a81548173ffffffffffffffffffffffffffffffffffffffff021916908373ffffffffffffffffffffffffffffffffffffffff16021790555060808201518160040160006101000a81548173ffffffffffffffffffffffffffffffffffffffff021916908373ffffffffffffffffffffffffffffffffffffffff16021790555060a08201518160050160006101000a81548173ffffffffffffffffffffffffffffffffffffffff021916908373ffffffffffffffffffffffffffffffffffffffff16021790555060c0820151816006015560e08201518160070155610100820151816008015561012082015181600901559050508873ffffffffffffffffffffffffffffffffffffffff1663f242432a33308b60016040518563ffffffff1660e01b81526004016122e29493929190614658565b600060405180830381600087803b1580156122fc57600080fd5b505af1158015612310573d6000803e3d6000fd5b5050505061231d84611fc2565b600660009054906101000a900473ffffffffffffffffffffffffffffffffffffffff1673ffffffffffffffffffffffffffffffffffffffff16635a9d10a23384886040518463ffffffff1660e01b815260040161237c9392919061488a565b600060405180830381600087803b15801561239657600080fd5b505af11580156123aa573d6000803e3d6000fd5b5050505081925050509695505050505050565b600063bc197c8160e01b905095945050505050565b60006002600054141561241a576040517f08c379a00000000000000000000000000000000000000000000000000000000081526004016124119061497d565b60405180910390fd5b600260008190555061242c6001613668565b6000612438600161367e565b905060006040518061018001604052808381526020018973ffffffffffffffffffffffffffffffffffffffff1681526020018881526020013373ffffffffffffffffffffffffffffffffffffffff168152602001600073ffffffffffffffffffffffffffffffffffffffff1681526020018781526020016001815260200186815260200185815260200160001515815260200160011515815260200160001515815250905080601360008481526020019081526020016000206000820151816000015560208201518160010160006101000a81548173ffffffffffffffffffffffffffffffffffffffff021916908373ffffffffffffffffffffffffffffffffffffffff1602179055506040820151816002015560608201518160030160006101000a81548173ffffffffffffffffffffffffffffffffffffffff021916908373ffffffffffffffffffffffffffffffffffffffff16021790555060808201518160040160006101000a81548173ffffffffffffffffffffffffffffffffffffffff021916908373ffffffffffffffffffffffffffffffffffffffff16021790555060a0820151816005015560c0820151816006015560e0820151816007015561010082015181600801556101208201518160090160006101000a81548160ff0219169083151502179055506101408201518160090160016101000a81548160ff0219169083151502179055506101608201518160090160026101000a81548160ff0219169083151502179055509050508773ffffffffffffffffffffffffffffffffffffffff166323b872dd33308a6040518463ffffffff1660e01b81526004016126a693929190614621565b600060405180830381600087803b1580156126c057600080fd5b505af11580156126d4573d6000803e3d6000fd5b50505050868873ffffffffffffffffffffffffffffffffffffffff16837f27c56f6ac604894f34ddf0bfe8296d43c52ac0637dec4c28996e8a904c989d593360008b60018c8c6000806000604051612734999897969594939291906146b0565b60405180910390a48192505050600160008190555095945050505050565b60026000541415612798576040517f08c379a000000000000000000000000000000000000000000000000000000000815260040161278f9061497d565b60405180910390fd5b600260008190555060006013600083815260200190815260200160002060405180610180016040529081600082015481526020016001820160009054906101000a900473ffffffffffffffffffffffffffffffffffffffff1673ffffffffffffffffffffffffffffffffffffffff1673ffffffffffffffffffffffffffffffffffffffff168152602001600282015481526020016003820160009054906101000a900473ffffffffffffffffffffffffffffffffffffffff1673ffffffffffffffffffffffffffffffffffffffff1673ffffffffffffffffffffffffffffffffffffffff1681526020016004820160009054906101000a900473ffffffffffffffffffffffffffffffffffffffff1673ffffffffffffffffffffffffffffffffffffffff1673ffffffffffffffffffffffffffffffffffffffff168152602001600582015481526020016006820154815260200160078201548152602001600882015481526020016009820160009054906101000a900460ff161515151581526020016009820160019054906101000a900460ff161515151581526020016009820160029054906101000a900460ff161515151581525050905060008160a001519050600082604001519050600083610140015190508234146129b0576040517f08c379a00000000000000000000000000000000000000000000000000000000081526004016129a79061495d565b60405180910390fd5b836060015173ffffffffffffffffffffffffffffffffffffffff166108fc349081150290604051600060405180830381858888f193505050501580156129fa573d6000803e3d6000fd5b508015612a7f578573ffffffffffffffffffffffffffffffffffffffff1663f242432a303387604001518860c001516040518563ffffffff1660e01b8152600401612a48949392919061473d565b600060405180830381600087803b158015612a6257600080fd5b505af1158015612a76573d6000803e3d6000fd5b50505050612aef565b8573ffffffffffffffffffffffffffffffffffffffff166323b872dd3033856040518463ffffffff1660e01b8152600401612abc93929190614621565b600060405180830381600087803b158015612ad657600080fd5b505af1158015612aea573d6000803e3d6000fd5b505050505b33846080019073ffffffffffffffffffffffffffffffffffffffff16908173ffffffffffffffffffffffffffffffffffffffff1681525050600184610120019015159081151581525050612b436002613668565b83601360008781526020019081526020016000206000820151816000015560208201518160010160006101000a81548173ffffffffffffffffffffffffffffffffffffffff021916908373ffffffffffffffffffffffffffffffffffffffff1602179055506040820151816002015560608201518160030160006101000a81548173ffffffffffffffffffffffffffffffffffffffff021916908373ffffffffffffffffffffffffffffffffffffffff16021790555060808201518160040160006101000a81548173ffffffffffffffffffffffffffffffffffffffff021916908373ffffffffffffffffffffffffffffffffffffffff16021790555060a0820151816005015560c0820151816006015560e0820151816007015561010082015181600801556101208201518160090160006101000a81548160ff0219169083151502179055506101408201518160090160016101000a81548160ff0219169083151502179055506101608201518160090160026101000a81548160ff02191690831515021790555090505060146000856060015173ffffffffffffffffffffffffffffffffffffffff1673ffffffffffffffffffffffffffffffffffffffff168152602001908152602001600020859080600181540180825580915050600190039060005260206000200160009091909190915055601660003373ffffffffffffffffffffffffffffffffffffffff1673ffffffffffffffffffffffffffffffffffffffff168152602001908152602001600020859080600181540180825580915050600190039060005260206000200160009091909190915055818673ffffffffffffffffffffffffffffffffffffffff16867ffeb04e399f6ba62d926a65372cbb5f11e3c7a9ff05e62948769d2ee5d5335b84876060015133886001604051612df294939291906145dc565b60405180910390a45050505060016000819055505050565b6000600760009054906101000a900473ffffffffffffffffffffffffffffffffffffffff1673ffffffffffffffffffffffffffffffffffffffff166378a895676040518163ffffffff1660e01b815260040160206040518083038186803b158015612e7457600080fd5b505afa158015612e88573d6000803e3d6000fd5b505050506040513d601f19601f82011682018060405250810190612eac9190614105565b905090565b600660009054906101000a900473ffffffffffffffffffffffffffffffffffffffff1673ffffffffffffffffffffffffffffffffffffffff16635a9d10a23384846040518463ffffffff1660e01b8152600401612f109392919061488a565b600060405180830381600087803b158015612f2a57600080fd5b505af1158015612f3e573d6000803e3d6000fd5b505050505050565b6000801515612f543361368c565b151514612f96576040517f08c379a0000000000000000000000000000000000000000000000000000000008152600401612f8d9061499d565b60405180910390fd5b60018214156130425760006040518060400160405280600854815260200185815250905060086000815480929190612fcd90614da5565b919050555080600e60003373ffffffffffffffffffffffffffffffffffffffff1673ffffffffffffffffffffffffffffffffffffffff168152602001908152602001600020600082015181600001556020820151816001019080519060200190613038929190613847565b509050505061318e565b60028214156130ee576000604051806040016040528060095481526020018581525090506009600081548092919061307990614da5565b919050555080600f60003373ffffffffffffffffffffffffffffffffffffffff1673ffffffffffffffffffffffffffffffffffffffff1681526020019081526020016000206000820151816000015560208201518160010190805190602001906130e4929190613847565b509050505061318d565b60006040518060400160405280600a548152602001858152509050600a600081548092919061311c90614da5565b919050555080601060003373ffffffffffffffffffffffffffffffffffffffff1673ffffffffffffffffffffffffffffffffffffffff168152602001908152602001600020600082015181600001556020820151816001019080519060200190613187929190613847565b50905050505b5b600d339080600181540180825580915050600190039060005260206000200160009091909190916101000a81548173ffffffffffffffffffffffffffffffffffffffff021916908373ffffffffffffffffffffffffffffffffffffffff1602179055506001905092915050565b60606000613209600161367e565b90506000805b828110156132b0573373ffffffffffffffffffffffffffffffffffffffff166013600060018461323f9190614b9b565b815260200190815260200160002060030160009054906101000a900473ffffffffffffffffffffffffffffffffffffffff1673ffffffffffffffffffffffffffffffffffffffff16141561329d5760018261329a9190614b9b565b91505b80806132a890614da5565b91505061320f565b5060008167ffffffffffffffff8111156132f3577f4e487b7100000000000000000000000000000000000000000000000000000000600052604160045260246000fd5b60405190808252806020026020018201604052801561332c57816020015b613319613767565b8152602001906001900390816133115790505b5090506000805b848110156135de573373ffffffffffffffffffffffffffffffffffffffff16601360006001846133639190614b9b565b815260200190815260200160002060030160009054906101000a900473ffffffffffffffffffffffffffffffffffffffff1673ffffffffffffffffffffffffffffffffffffffff1614156135cb5760006001826133c09190614b9b565b905060006013600083815260200190815260200160002090508060405180610180016040529081600082015481526020016001820160009054906101000a900473ffffffffffffffffffffffffffffffffffffffff1673ffffffffffffffffffffffffffffffffffffffff1673ffffffffffffffffffffffffffffffffffffffff168152602001600282015481526020016003820160009054906101000a900473ffffffffffffffffffffffffffffffffffffffff1673ffffffffffffffffffffffffffffffffffffffff1673ffffffffffffffffffffffffffffffffffffffff1681526020016004820160009054906101000a900473ffffffffffffffffffffffffffffffffffffffff1673ffffffffffffffffffffffffffffffffffffffff1673ffffffffffffffffffffffffffffffffffffffff168152602001600582015481526020016006820154815260200160078201548152602001600882015481526020016009820160009054906101000a900460ff161515151581526020016009820160019054906101000a900460ff161515151581526020016009820160029054906101000a900460ff1615151515815250508585815181106135ae577f4e487b7100000000000000000000000000000000000000000000000000000000600052603260045260246000fd5b60200260200101819052506001846135c69190614b9b565b935050505b80806135d690614da5565b915050613333565b508194505050505090565b600063f23a6e6160e01b905095945050505050565b60007f01ffc9a7000000000000000000000000000000000000000000000000000000007bffffffffffffffffffffffffffffffffffffffffffffffffffffffff1916827bffffffffffffffffffffffffffffffffffffffffffffffffffffffff1916149050919050565b6001816000016000828254019250508190555050565b600081600001549050919050565b600080600090505b600d805490508160ff16101561375c578273ffffffffffffffffffffffffffffffffffffffff16600d8260ff16815481106136f8577f4e487b7100000000000000000000000000000000000000000000000000000000600052603260045260246000fd5b9060005260206000200160009054906101000a900473ffffffffffffffffffffffffffffffffffffffff1673ffffffffffffffffffffffffffffffffffffffff161415613749576001915050613762565b808061375490614dee565b915050613694565b50600090505b919050565b60405180610180016040528060008152602001600073ffffffffffffffffffffffffffffffffffffffff16815260200160008152602001600073ffffffffffffffffffffffffffffffffffffffff168152602001600073ffffffffffffffffffffffffffffffffffffffff168152602001600081526020016000815260200160008152602001600081526020016000151581526020016000151581526020016000151581525090565b60405180606001604052806000815260200160608152602001600073ffffffffffffffffffffffffffffffffffffffff1681525090565b82805461385390614d42565b90600052602060002090601f01602090048101928261387557600085556138bc565b82601f1061388e57805160ff19168380011785556138bc565b828001600101855582156138bc579182015b828111156138bb5782518255916020019190600101906138a0565b5b5090506138c991906138cd565b5090565b5b808211156138e65760008160009055506001016138ce565b5090565b60006138fd6138f884614a5d565b614a38565b9050808382526020820190508285602086028201111561391c57600080fd5b60005b8581101561394c57816139328882613b78565b84526020840193506020830192505060018101905061391f565b5050509392505050565b600061396961396484614a5d565b614a38565b9050808382526020820190508285602086028201111561398857600080fd5b60005b858110156139b8578161399e8882613b8d565b84526020840193506020830192505060018101905061398b565b5050509392505050565b60006139d56139d084614a89565b614a38565b9050828152602081018484840111156139ed57600080fd5b6139f8848285614d00565b509392505050565b6000613a13613a0e84614aba565b614a38565b905082815260208101848484011115613a2b57600080fd5b613a36848285614d00565b509392505050565b6000613a51613a4c84614aba565b614a38565b905082815260208101848484011115613a6957600080fd5b613a74848285614d0f565b509392505050565b600081359050613a8b81614f80565b92915050565b600082601f830112613aa257600080fd5b8135613ab28482602086016138ea565b91505092915050565b600082601f830112613acc57600080fd5b8151613adc848260208601613956565b91505092915050565b600081359050613af481614f97565b92915050565b600082601f830112613b0b57600080fd5b8135613b1b8482602086016139c2565b91505092915050565b600082601f830112613b3557600080fd5b8135613b45848260208601613a00565b91505092915050565b600082601f830112613b5f57600080fd5b8151613b6f848260208601613a3e565b91505092915050565b600081359050613b8781614fae565b92915050565b600081519050613b9c81614fae565b92915050565b600080600080600060a08688031215613bba57600080fd5b6000613bc888828901613a7c565b9550506020613bd988828901613a7c565b945050604086013567ffffffffffffffff811115613bf657600080fd5b613c0288828901613a91565b935050606086013567ffffffffffffffff811115613c1f57600080fd5b613c2b88828901613a91565b925050608086013567ffffffffffffffff811115613c4857600080fd5b613c5488828901613afa565b9150509295509295909350565b60008060008060808587031215613c7757600080fd5b6000613c8587828801613a7c565b9450506020613c9687828801613a7c565b9350506040613ca787828801613b78565b925050606085013567ffffffffffffffff811115613cc457600080fd5b613cd087828801613afa565b91505092959194509250565b600080600080600060a08688031215613cf457600080fd5b6000613d0288828901613a7c565b9550506020613d1388828901613a7c565b9450506040613d2488828901613b78565b9350506060613d3588828901613b78565b925050608086013567ffffffffffffffff811115613d5257600080fd5b613d5e88828901613afa565b9150509295509295909350565b60008060408385031215613d7e57600080fd5b6000613d8c85828601613a7c565b925050602083013567ffffffffffffffff811115613da957600080fd5b613db585828601613b24565b9150509250929050565b60008060408385031215613dd257600080fd5b6000613de085828601613a7c565b9250506020613df185828601613b78565b9150509250929050565b600080600080600060a08688031215613e1357600080fd5b6000613e2188828901613a7c565b9550506020613e3288828901613b78565b9450506040613e4388828901613b78565b9350506060613e5488828901613b78565b9250506080613e6588828901613b78565b9150509295509295909350565b60008060008060008060c08789031215613e8b57600080fd5b6000613e9989828a01613a7c565b9650506020613eaa89828a01613b78565b9550506040613ebb89828a01613b78565b9450506060613ecc89828a01613b78565b9350506080613edd89828a01613b78565b92505060a087013567ffffffffffffffff811115613efa57600080fd5b613f0689828a01613b24565b9150509295509295509295565b60008060008060008060c08789031215613f2c57600080fd5b6000613f3a89828a01613a7c565b9650506020613f4b89828a01613b78565b9550506040613f5c89828a01613b78565b9450506060613f6d89828a01613b78565b9350506080613f7e89828a01613b78565b92505060a0613f8f89828a01613b78565b9150509295509295509295565b600060208284031215613fae57600080fd5b600082015167ffffffffffffffff811115613fc857600080fd5b613fd484828501613abb565b91505092915050565b600060208284031215613fef57600080fd5b6000613ffd84828501613ae5565b91505092915050565b60006020828403121561401857600080fd5b600082013567ffffffffffffffff81111561403257600080fd5b61403e84828501613b24565b91505092915050565b60006020828403121561405957600080fd5b600082015167ffffffffffffffff81111561407357600080fd5b61407f84828501613b4e565b91505092915050565b6000806040838503121561409b57600080fd5b600083013567ffffffffffffffff8111156140b557600080fd5b6140c185828601613b24565b92505060206140d285828601613b78565b9150509250929050565b6000602082840312156140ee57600080fd5b60006140fc84828501613b78565b91505092915050565b60006020828403121561411757600080fd5b600061412584828501613b8d565b91505092915050565b6000806000806080858703121561414457600080fd5b600061415287828801613b78565b945050602085013567ffffffffffffffff81111561416f57600080fd5b61417b87828801613b24565b935050604085013567ffffffffffffffff81111561419857600080fd5b6141a487828801613b24565b925050606085013567ffffffffffffffff8111156141c157600080fd5b6141cd87828801613b24565b91505092959194509250565b600080604083850312156141ec57600080fd5b60006141fa85828601613b78565b925050602061420b85828601613b78565b9150509250929050565b60006142218383614478565b6101808301905092915050565b600061423a83836145be565b60208301905092915050565b61424f81614cb8565b82525050565b61425e81614c37565b82525050565b61426d81614c25565b82525050565b61427c81614c25565b82525050565b600061428d82614b0b565b6142978185614b46565b93506142a283614aeb565b8060005b838110156142d35781516142ba8882614215565b97506142c583614b2c565b9250506001810190506142a6565b5085935050505092915050565b60006142eb82614b16565b6142f58185614b57565b935061430083614afb565b8060005b83811015614331578151614318888261422e565b975061432383614b39565b925050600181019050614304565b5085935050505092915050565b61434781614c49565b82525050565b61435681614c49565b82525050565b61436581614c55565b82525050565b61437481614cca565b82525050565b600061438582614b21565b61438f8185614b79565b935061439f818560208601614d0f565b6143a881614ea5565b840191505092915050565b60006143be82614b21565b6143c88185614b8a565b93506143d8818560208601614d0f565b6143e181614ea5565b840191505092915050565b60006143f9600283614b68565b915061440482614eb6565b602082019050919050565b600061441c604083614b8a565b915061442782614edf565b604082019050919050565b600061443f601f83614b8a565b915061444a82614f2e565b602082019050919050565b6000614462601783614b8a565b915061446d82614f57565b602082019050919050565b6101808201600082015161448f60008501826145be565b5060208201516144a26020850182614264565b5060408201516144b560408501826145be565b5060608201516144c86060850182614255565b5060808201516144db6080850182614255565b5060a08201516144ee60a08501826145be565b5060c082015161450160c08501826145be565b5060e082015161451460e08501826145be565b506101008201516145296101008501826145be565b5061012082015161453e61012085018261433e565b5061014082015161455361014085018261433e565b5061016082015161456861016085018261433e565b50505050565b600060608301600083015161458660008601826145be565b506020830151848203602086015261459e828261437a565b91505060408301516145b36040860182614264565b508091505092915050565b6145c781614ca1565b82525050565b6145d681614ca1565b82525050565b60006080820190506145f16000830187614246565b6145fe6020830186614273565b61460b60408301856145cd565b614618606083018461434d565b95945050505050565b60006060820190506146366000830186614273565b6146436020830185614273565b61465060408301846145cd565b949350505050565b600060a08201905061466d6000830187614273565b61467a6020830186614273565b61468760408301856145cd565b614694606083018461436b565b81810360808301526146a5816143ec565b905095945050505050565b6000610120820190506146c6600083018c614273565b6146d3602083018b614273565b6146e0604083018a6145cd565b6146ed606083018961436b565b6146fa60808301886145cd565b61470760a08301876145cd565b61471460c083018661434d565b61472160e083018561434d565b61472f61010083018461434d565b9a9950505050505050505050565b600060a0820190506147526000830187614273565b61475f6020830186614273565b61476c60408301856145cd565b61477960608301846145cd565b818103608083015261478a816143ec565b905095945050505050565b6000610120820190506147ab600083018c614273565b6147b8602083018b614273565b6147c5604083018a6145cd565b6147d260608301896145cd565b6147df60808301886145cd565b6147ec60a08301876145cd565b6147f960c083018661434d565b61480660e083018561434d565b61481461010083018461434d565b9a9950505050505050505050565b600060a0820190506148376000830188614273565b61484460208301876145cd565b818103604083015261485681866143b3565b9050818103606083015261486a81856143b3565b9050818103608083015261487e81846143b3565b90509695505050505050565b600060608201905061489f6000830186614273565b6148ac60208301856145cd565b6148b960408301846145cd565b949350505050565b600060208201905081810360008301526148db8184614282565b905092915050565b600060208201905081810360008301526148fd81846142e0565b905092915050565b600060208201905061491a600083018461434d565b92915050565b6000602082019050614935600083018461435c565b92915050565b6000602082019050818103600083015261495581846143b3565b905092915050565b600060208201905081810360008301526149768161440f565b9050919050565b6000602082019050818103600083015261499681614432565b9050919050565b600060208201905081810360008301526149b681614455565b9050919050565b600060208201905081810360008301526149d7818461456e565b905092915050565b60006020820190506149f460008301846145cd565b92915050565b6000606082019050614a0f60008301866145cd565b8181036020830152614a2181856143b3565b9050614a306040830184614273565b949350505050565b6000614a42614a53565b9050614a4e8282614d74565b919050565b6000604051905090565b600067ffffffffffffffff821115614a7857614a77614e76565b5b602082029050602081019050919050565b600067ffffffffffffffff821115614aa457614aa3614e76565b5b614aad82614ea5565b9050602081019050919050565b600067ffffffffffffffff821115614ad557614ad4614e76565b5b614ade82614ea5565b9050602081019050919050565b6000819050602082019050919050565b6000819050602082019050919050565b600081519050919050565b600081519050919050565b600081519050919050565b6000602082019050919050565b6000602082019050919050565b600082825260208201905092915050565b600082825260208201905092915050565b600082825260208201905092915050565b600082825260208201905092915050565b600082825260208201905092915050565b6000614ba682614ca1565b9150614bb183614ca1565b9250827fffffffffffffffffffffffffffffffffffffffffffffffffffffffffffffffff03821115614be657614be5614e18565b5b828201905092915050565b6000614bfc82614ca1565b9150614c0783614ca1565b925082821015614c1a57614c19614e18565b5b828203905092915050565b6000614c3082614c81565b9050919050565b6000614c4282614c81565b9050919050565b60008115159050919050565b60007fffffffff0000000000000000000000000000000000000000000000000000000082169050919050565b600073ffffffffffffffffffffffffffffffffffffffff82169050919050565b6000819050919050565b600060ff82169050919050565b6000614cc382614cdc565b9050919050565b6000614cd582614ca1565b9050919050565b6000614ce782614cee565b9050919050565b6000614cf982614c81565b9050919050565b82818337600083830152505050565b60005b83811015614d2d578082015181840152602081019050614d12565b83811115614d3c576000848401525b50505050565b60006002820490506001821680614d5a57607f821691505b60208210811415614d6e57614d6d614e47565b5b50919050565b614d7d82614ea5565b810181811067ffffffffffffffff82111715614d9c57614d9b614e76565b5b80604052505050565b6000614db082614ca1565b91507fffffffffffffffffffffffffffffffffffffffffffffffffffffffffffffffff821415614de357614de2614e18565b5b600182019050919050565b6000614df982614cab565b915060ff821415614e0d57614e0c614e18565b5b600182019050919050565b7f4e487b7100000000000000000000000000000000000000000000000000000000600052601160045260246000fd5b7f4e487b7100000000000000000000000000000000000000000000000000000000600052602260045260246000fd5b7f4e487b7100000000000000000000000000000000000000000000000000000000600052604160045260246000fd5b6000601f19601f8301169050919050565b7f5b5d000000000000000000000000000000000000000000000000000000000000600082015250565b7f506c65617365207375626d6974207468652061736b696e67207072696365206960008201527f6e206f7264657220746f20636f6d706c65746520746865207075726368617365602082015250565b7f5265656e7472616e637947756172643a207265656e7472616e742063616c6c00600082015250565b7f5573657220416c72656164792072656769737465726564000000000000000000600082015250565b614f8981614c25565b8114614f9457600080fd5b50565b614fa081614c55565b8114614fab57600080fd5b50565b614fb781614ca1565b8114614fc257600080fd5b5056fea2646970667358221220d709157810c03204f3fda9b00bf8450089f1ed398bf021b36354f486a687a34e64736f6c63430008030033",
  "immutableReferences": {},
  "source": "// \"SPDX-License-Identifier: UNLICENSED\"\npragma solidity ^ 0.8 .3;\n\nimport \"./ACHouseToken1155.sol\";\nimport \"./ACHouseToken721.sol\";\n\nimport \"@openzeppelin/contracts/utils/Counters.sol\";\nimport \"@openzeppelin/contracts/security/ReentrancyGuard.sol\";\n\n\nimport \"@openzeppelin/contracts/token/ERC721/utils/ERC721Holder.sol\";\nimport \"@openzeppelin/contracts/token/ERC1155/utils/ERC1155Holder.sol\";\n\ncontract ACHouse is ReentrancyGuard, ERC1155Holder, ERC721Holder {\n  using Counters for Counters.Counter;\n  Counters.Counter private _itemIds;\n  Counters.Counter private _itemsSold;\n  Counters.Counter private _fracItemIds;\n  Counters.Counter private _ngoIds;\n\n  address owner;\n\n  ACHouseToken1155 _multiToken;\n  ACHouseToken721 _nftToken;\n\n  /** Variables and Event Emitters */\n  struct AuctionPlace {\n    uint256 id;\n    string name;\n  } \n  struct Artist {\n    uint256 id;\n    string name;\n  }\n  struct Participant {\n    uint256 id;\n    string name;\n  }\n  struct NGO {\n    uint256 id;\n    string name;\n    address charityAddress;\n  }\n\n  uint auctionPlaceCount = 0;\n  uint artistCount = 0;\n  uint participantCount = 0;\n  uint ngoCount = 0;\n  NGO[] public ngoArray;\n  address[] RegisteredUserAddresses; // might be used??\n\n  // mapping address to type\n  mapping(address => AuctionPlace) AuctionPlaceMapping;\n  mapping(address => Artist) ArtistMapping;\n  mapping(address => Participant) ParticipantMapping;\n\n  mapping(uint256 => NGO) NgoMapping;\n  // User address maps to - Chaities and the donation amount. \n  mapping(address => mapping(address => uint256)) UserNGODonation;\n\n  struct MarketItem {\n    uint itemId;\n    address nftContract;\n    uint256 tokenId;\n    address payable seller;\n    address payable owner;\n    uint256 price;\n    uint256 amount;\n    uint256 charityId;\n    uint256 auctionTime;\n    bool sold;\n    bool isMultiToken;\n    bool isRemoved;\n  }\n\n  mapping(uint256 => MarketItem) private idToMarketItem;\n  \n  //user mapping to itemSold array\n  mapping( address => uint256[]) userSoldItemMapping;\n  //user sold count mapp;\n  mapping ( address => uint256) userSoldCountMapping;\n  //user mapping to purchased item  array\n  mapping( address => uint256[]) userpurchasedItemMapping;\n  //user purchased count mapp;\n  mapping ( address => uint256) userPurchasedCountMapping;\n  \n  event MarketItemCreated(uint indexed itemId, address indexed nftContract, uint256 indexed tokenId, \n    address seller, address owner, uint256 price, uint256 amount, uint256 charityId, uint256 auctionTime, bool sold, bool isMultiToken, bool isRemoved);\n  \n  event MarketItemSold(uint indexed itemId, address indexed nftContract, uint256 indexed tokenId, \n    address seller, address owner, uint256 price, bool sold);\n\n  /*******************fractionalize NFT */\n  struct FractionalizeToken {\n    uint itemId;\n    address nftContract;\n    uint256 tokenId;\n    address payable seller;\n    address payable owner;\n    address fractionalContract;\n    uint256 shardId;\n    uint256 priceOfShard;\n    uint256 supplyMinted;\n    uint256 supplyRemaining;\n  }\n  // id to fracToken\n  mapping(uint256 => FractionalizeToken) idToFracToken;\n  //user purchase to id to amount purchased\n  mapping (address => mapping(uint256 => uint256)) userShardPurchaseAmount;\n\n\n  constructor(address _mToken, address _nToken) {\n    _multiToken = ACHouseToken1155(_mToken);\n    _nftToken = ACHouseToken721(_nToken);\n    \n    _multiToken.setParentAddress(address(this));\n    _nftToken.setParentAddress(address(this));\n    owner = payable(msg.sender);\n  }\n\n  function addCharity(address charityAddress, string memory name) public {\n    _ngoIds.increment();\n    uint256 id = _ngoIds.current();\n    NGO memory charity = NGO(id, name, charityAddress);\n\n    NgoMapping[id] = charity;\n  }\n\n  function getCharityInfo(uint256 _id) public view returns(NGO memory) {\n    return NgoMapping[_id];\n  }\n  \n  /***************************************************************************************************************************************/\n  /**MarketPlace functionality */\n  function create1155MarketItem(address nftContract, uint256 tokenId, uint256 price, uint256 amount, uint256 _charityId, uint256 auctionTime) public payable nonReentrant returns (uint256){\n    //   require(price > 0, \"Price must be at least 1 wei\");\n    //   require(msg.value == listingPrice, \"Price must be equal to l_charityId\n\n    _itemIds.increment();\n    uint256 itemId = _itemIds.current();\n\n    MarketItem memory item = MarketItem(itemId, nftContract, tokenId, payable(msg.sender), payable(address(0)), price, 1, _charityId, auctionTime, false, true, false); // amount will always be 1. \n    idToMarketItem[itemId] = item;\n\n    IERC1155(nftContract).safeTransferFrom(msg.sender, address(this), tokenId, amount, '[]');\n\n    emit MarketItemCreated(itemId, nftContract, tokenId, msg.sender, address(0), price, amount, _charityId, auctionTime, false, true, false);\n\n    return itemId;\n  }\n\n  function create721MarketItem(address nftContract, uint256 tokenId, uint256 price, uint256 _charityId, uint256 auctionTime ) public payable nonReentrant returns (uint256){\n    // require(price > 0, \"Price must be at least 1 wei\");\n    // require(msg.value == listingPrice, \"Price must be equal to listing price\");\n\n    _itemIds.increment();\n    uint256 itemId = _itemIds.current();\n\n    MarketItem memory item = MarketItem(itemId, nftContract, tokenId, payable(msg.sender), payable(address(0)), price, 1, _charityId, auctionTime, false, true, false); // amount will always be 1. \n    idToMarketItem[itemId] = item;\n\n    IERC721(nftContract).transferFrom(msg.sender, address(this), tokenId);\n\n    emit MarketItemCreated(itemId, nftContract, tokenId, msg.sender, address(0), price, 1, _charityId, auctionTime, false, false, false);\n\n    return itemId;\n  }\n  \n  // Remove item from marketplace\n  function removeMarketPlaceItem( uint256 itemId) public {\n      \n      idToMarketItem[itemId].isRemoved = true;\n  }\n  \n  // re add item to marketplace\n  function addMarketPlaceItem( uint256 itemId) public {\n      \n      idToMarketItem[itemId].isRemoved = false;\n  }\n  \n  /* Creates the sale of a marketplace item */\n  /* Transfers ownership of the item, as well as funds between parties */\n  function createMarketSale(address nftContract, uint256 itemId) public payable nonReentrant {\n    \n    MarketItem memory item = idToMarketItem[itemId];\n    \n    uint price = item.price;\n    uint tokenId = item.tokenId;\n    bool isMultiToken = item.isMultiToken;\n    require(msg.value == price, \"Please submit the asking price in order to complete the purchase\");\n\n    // transfer funds\n    item.seller.transfer(msg.value);\n\n    //transfer ownership.\n    if(isMultiToken){\n      IERC1155(nftContract).safeTransferFrom(address(this), msg.sender, item.tokenId, item.amount, '[]');\n    }else{\n      IERC721(nftContract).transferFrom(address(this), msg.sender, tokenId);\n    }\n    \n    //set new owner inrecords.\n    item.owner = payable(msg.sender);\n    //set sold to true\n    item.sold = true;\n    //increament itemSold counter.\n    _itemsSold.increment();\n    \n    idToMarketItem[itemId] = item;\n    // mapp user address to itemSold [] and purchased[]\n    userSoldItemMapping[item.seller].push(itemId);\n    \n    //user mapping to purchased item  array\n    userpurchasedItemMapping[msg.sender].push(itemId);\n\n    emit MarketItemSold( itemId, nftContract, tokenId, item.seller, msg.sender, price, true);\n  }\n\n  /* Returns all unsold market items */\n  function fetchUnSoldMarketItems() public view returns(MarketItem[] memory) {\n    \n    uint totalUnSoldCount = _itemIds.current() - _itemsSold.current();\n    MarketItem[] memory items = new MarketItem[](totalUnSoldCount);\n    uint unsoldCurrentIndex = 0;\n    \n    uint totalItemCount = _itemIds.current();\n    \n    for(uint i=0; i < totalItemCount; i++){\n        // only way i found to iterate through a mapping. \n        if(idToMarketItem[i+1].owner == address(0) && idToMarketItem[i+1].isRemoved == false ) { \n            uint currentID = i+1;\n            items[unsoldCurrentIndex] = idToMarketItem[currentID];\n            unsoldCurrentIndex +=1;\n        }\n    }\n    \n    return items; \n  }\n\n  /* Returns only items that a user has purchased */\n  function fetchMyNFTs() public view returns (MarketItem[] memory) {\n    \n    uint256[] memory userPurchasedIds = userpurchasedItemMapping[msg.sender];\n    \n    \n    MarketItem[] memory items = new MarketItem[](userPurchasedIds.length);\n    for(uint i =0; i< userPurchasedIds.length; i++){\n        \n        // MarketItem memory item = idToMarketItem[userPurchasedIds[i]];\n        \n        items[i] = idToMarketItem[userPurchasedIds[i]];\n    }\n    return items;\n  }\n\n  /* Returns only items a user has created */\n  function fetchItemsCreated() public view returns (MarketItem[] memory) {\n    //get total item count - created nin MarketItem.\n    uint totalItemCount = _itemIds.current();\n    uint itemCount = 0;\n    \n    for (uint i = 0; i < totalItemCount; i++) {\n      if (idToMarketItem[i + 1].seller == msg.sender) {\n        itemCount += 1;\n      }\n    }\n\n    MarketItem[] memory items = new MarketItem[](itemCount);\n    uint currentIndex = 0;\n    \n    for (uint i = 0; i < totalItemCount; i++) {\n      if (idToMarketItem[i + 1].seller == msg.sender) {\n        uint currentId = i + 1;\n        MarketItem storage currentItem = idToMarketItem[currentId];\n        items[currentIndex] = currentItem;\n        currentIndex += 1;\n      }\n    }\n    return items;\n  }\n  \n  /***************************************************************************************************************************************/\n  /**Functions - Registration  */\n  function register(string memory _name, uint _userType) public returns(bool) {\n    require(isUserRegistered(msg.sender) == false, \"User Already registered\");\n\n    //userType { 1: Auction, 2: Artist, 3: Participant}\n    // register user by type\n    if (_userType == 1) {\n      AuctionPlace memory ac = AuctionPlace(auctionPlaceCount, _name);\n      auctionPlaceCount++;\n\n      AuctionPlaceMapping[msg.sender] = ac;\n    } else if (_userType == 2) {\n      Artist memory ar = Artist(artistCount, _name);\n      artistCount++;\n\n      ArtistMapping[msg.sender] = ar;\n    } else {\n      Participant memory part = Participant(participantCount, _name);\n      participantCount++;\n\n      ParticipantMapping[msg.sender] = part;\n    }\n\n    RegisteredUserAddresses.push(msg.sender);\n    return true;\n  }\n\n  /**ERC1155 functionality ***********************************************/\n  function setURI1155(string memory _uri) public {\n    _multiToken.setURI(_uri);\n  }\n\n  function getTokenURI(uint256 _tokenId) public view returns(string memory){\n    return _multiToken.getTokenURI(_tokenId);\n  }\n  // mint 1155 NFT - set supply to 1. \n  function createNFT1155(uint256 _id, uint256 _amount) public {\n    _multiToken.mintNFT(msg.sender, _id, _amount);\n  }\n\n  //get tokens totalnumber. \n  function getTokenCount() public view returns(uint256) {\n    return _multiToken.getTokenCount();\n  }\n  //returns the array of all tokenids. \n  function getTokenIds() public view returns(uint256[] memory) {\n    return _multiToken.getTokenIds();\n  }\n\n  function getTokenSupply(uint256 _tokenId) public view returns(uint256) {\n    return _multiToken.getTotalSupplyOfToken(_tokenId);\n  }\n\n  /*************Fractional NFT */\n\n  //hold NFT and trasnfer ownership to ACHouse. \n  // ACHouse will mint 1155 then set it to orig owner of nft. \n  function fractionalize1155NFT(address nftContract, uint256 tokenId, uint256 shardId, uint256 priceOfShard, uint256 supplyToCreate, string memory uri) public returns (uint256) {\n    _fracItemIds.increment();\n    uint fracId = _fracItemIds.current();\n\n    FractionalizeToken memory fracItem = FractionalizeToken(fracId, nftContract, tokenId, payable(msg.sender), \n      payable(address(0)), address(_multiToken), shardId, priceOfShard, supplyToCreate, supplyToCreate); // supplyMinted and SupplyRemaining will be set as same for now. \n    \n    idToFracToken[fracId] = fracItem;\n\n    //get ownership of nftContract and its token.\n    IERC1155(nftContract).safeTransferFrom(msg.sender, address(this), tokenId, 1, '[]');\n    \n    //Mint 1155 fungible tokens. \n    setURI1155(uri); // call functiont to set uRL in 1155 token\n    _multiToken.mintNFT(msg.sender, fracId, supplyToCreate); //shard tokens created and ownership set to msg.sender ( person who decided to frac nft.)\n    return fracId;\n  }\n\n  function fractionalize721NFT(address nftContract, uint256 tokenId, uint256 shardId, uint256 priceOfShard, uint256 supplyToCreate, string memory uri) public returns (uint256) {\n    _fracItemIds.increment();\n    uint fracId = _fracItemIds.current();\n    \n     FractionalizeToken memory fracItem = FractionalizeToken(fracId, nftContract, tokenId, payable(msg.sender), \n      payable(address(0)), address(_multiToken), shardId, priceOfShard, supplyToCreate, supplyToCreate); // supplyMinted and SupplyRemaining will be set as same for now. \n    \n    idToFracToken[fracId] = fracItem;\n\n    //get ownership of nftContract and its token.\n    IERC721(nftContract).transferFrom(msg.sender, address(this), tokenId);\n\n    //Mint 1155 fungible tokens.\n    setURI1155(uri); // call functiont to set uRL in 1155 token\n    _multiToken.mintNFT(msg.sender, fracId, supplyToCreate); //shard tokens created and ownership set to msg.sender ( person who decided to frac nft.)\n    return fracId;\n  }\n  \n  /**ERC721 functionzlity *************************************************/\n  // mint 721 NFT - set supply to 1. \n  function createNFT721(uint256 _id, string memory uri, string memory name, string memory symbol) public {\n    _nftToken.mintNFT(msg.sender, _id, uri, name, symbol);\n  }\n\n  //get tokens totalnumber. \n  function get721TokenCount() public view returns(uint256) {\n    return _nftToken.getTokenCount();\n  }\n  //returns the array of all tokenids. \n  function get721TokenIds() public view returns(uint256[] memory) {\n    return _nftToken.getTokenIds();\n  }\n\n  function get721TokenName(uint256 _id) public view returns(string memory){\n    return _nftToken.getTokenName(_id);\n  }\n\n  function get721TokenSymbol(uint256 _id) public view returns(string memory){\n    return _nftToken.getTokenSymbol(_id);\n  }\n\n  function get721TokenURI(uint256 _id) public view returns(string memory) {\n    return _nftToken.getTokenUri(_id);\n  }\n\n  /**Helpers */\n  function isUserRegistered(address _address) internal view returns(bool) {\n    for (uint8 j = 0; j < RegisteredUserAddresses.length; j++) {\n      if (RegisteredUserAddresses[j] == _address) {\n        return (true); // user is registered.\n      }\n    }\n    return (false); // user is not registered.\n  }\n  \n}",
  "sourcePath": "/home/dinesh/Projects/EthOnline/contracts/ACHouse.sol",
  "compiler": {
    "name": "solc",
    "version": "0.8.3+commit.8d00100c.Emscripten.clang"
  },
  "schemaVersion": "3.3.4",
  "updatedAt": "2021-10-08T15:35:06.215Z",
  "devdoc": {
    "kind": "dev",
    "methods": {
      "onERC721Received(address,address,uint256,bytes)": {
        "details": "See {IERC721Receiver-onERC721Received}. Always returns `IERC721Receiver.onERC721Received.selector`."
      },
      "supportsInterface(bytes4)": {
        "details": "See {IERC165-supportsInterface}."
      }
    },
    "version": 1
  },
  "userdoc": {
    "kind": "user",
    "methods": {
      "create1155MarketItem(address,uint256,uint256,uint256,uint256,uint256)": {
        "notice": "MarketPlace functionality "
      },
      "createNFT721(uint256,string,string,string)": {
        "notice": "ERC721 functionzlity ************************************************"
      },
      "register(string,uint256)": {
        "notice": "Functions - Registration  "
      },
      "setURI1155(string)": {
        "notice": "ERC1155 functionality **********************************************"
      }
    },
    "version": 1
  }
}