{
  "contractName": "ACHouseToken721",
  "abi": [
    {
      "inputs": [],
      "stateMutability": "nonpayable",
      "type": "constructor"
    },
    {
      "anonymous": false,
      "inputs": [
        {
          "indexed": true,
          "internalType": "address",
          "name": "owner",
          "type": "address"
        },
        {
          "indexed": true,
          "internalType": "address",
          "name": "approved",
          "type": "address"
        },
        {
          "indexed": true,
          "internalType": "uint256",
          "name": "tokenId",
          "type": "uint256"
        }
      ],
      "name": "Approval",
      "type": "event"
    },
    {
      "anonymous": false,
      "inputs": [
        {
          "indexed": true,
          "internalType": "address",
          "name": "owner",
          "type": "address"
        },
        {
          "indexed": true,
          "internalType": "address",
          "name": "operator",
          "type": "address"
        },
        {
          "indexed": false,
          "internalType": "bool",
          "name": "approved",
          "type": "bool"
        }
      ],
      "name": "ApprovalForAll",
      "type": "event"
    },
    {
      "anonymous": false,
      "inputs": [
        {
          "indexed": true,
          "internalType": "address",
          "name": "from",
          "type": "address"
        },
        {
          "indexed": true,
          "internalType": "address",
          "name": "to",
          "type": "address"
        },
        {
          "indexed": true,
          "internalType": "uint256",
          "name": "tokenId",
          "type": "uint256"
        }
      ],
      "name": "Transfer",
      "type": "event"
    },
    {
      "inputs": [
        {
          "internalType": "address",
          "name": "to",
          "type": "address"
        },
        {
          "internalType": "uint256",
          "name": "tokenId",
          "type": "uint256"
        }
      ],
      "name": "approve",
      "outputs": [],
      "stateMutability": "nonpayable",
      "type": "function"
    },
    {
      "inputs": [
        {
          "internalType": "address",
          "name": "owner",
          "type": "address"
        }
      ],
      "name": "balanceOf",
      "outputs": [
        {
          "internalType": "uint256",
          "name": "",
          "type": "uint256"
        }
      ],
      "stateMutability": "view",
      "type": "function"
    },
    {
      "inputs": [
        {
          "internalType": "uint256",
          "name": "tokenId",
          "type": "uint256"
        }
      ],
      "name": "getApproved",
      "outputs": [
        {
          "internalType": "address",
          "name": "",
          "type": "address"
        }
      ],
      "stateMutability": "view",
      "type": "function"
    },
    {
      "inputs": [
        {
          "internalType": "address",
          "name": "owner",
          "type": "address"
        },
        {
          "internalType": "address",
          "name": "operator",
          "type": "address"
        }
      ],
      "name": "isApprovedForAll",
      "outputs": [
        {
          "internalType": "bool",
          "name": "",
          "type": "bool"
        }
      ],
      "stateMutability": "view",
      "type": "function"
    },
    {
      "inputs": [],
      "name": "name",
      "outputs": [
        {
          "internalType": "string",
          "name": "",
          "type": "string"
        }
      ],
      "stateMutability": "view",
      "type": "function"
    },
    {
      "inputs": [
        {
          "internalType": "uint256",
          "name": "tokenId",
          "type": "uint256"
        }
      ],
      "name": "ownerOf",
      "outputs": [
        {
          "internalType": "address",
          "name": "",
          "type": "address"
        }
      ],
      "stateMutability": "view",
      "type": "function"
    },
    {
      "inputs": [
        {
          "internalType": "address",
          "name": "from",
          "type": "address"
        },
        {
          "internalType": "address",
          "name": "to",
          "type": "address"
        },
        {
          "internalType": "uint256",
          "name": "tokenId",
          "type": "uint256"
        }
      ],
      "name": "safeTransferFrom",
      "outputs": [],
      "stateMutability": "nonpayable",
      "type": "function"
    },
    {
      "inputs": [
        {
          "internalType": "address",
          "name": "from",
          "type": "address"
        },
        {
          "internalType": "address",
          "name": "to",
          "type": "address"
        },
        {
          "internalType": "uint256",
          "name": "tokenId",
          "type": "uint256"
        },
        {
          "internalType": "bytes",
          "name": "_data",
          "type": "bytes"
        }
      ],
      "name": "safeTransferFrom",
      "outputs": [],
      "stateMutability": "nonpayable",
      "type": "function"
    },
    {
      "inputs": [
        {
          "internalType": "address",
          "name": "operator",
          "type": "address"
        },
        {
          "internalType": "bool",
          "name": "approved",
          "type": "bool"
        }
      ],
      "name": "setApprovalForAll",
      "outputs": [],
      "stateMutability": "nonpayable",
      "type": "function"
    },
    {
      "inputs": [
        {
          "internalType": "bytes4",
          "name": "interfaceId",
          "type": "bytes4"
        }
      ],
      "name": "supportsInterface",
      "outputs": [
        {
          "internalType": "bool",
          "name": "",
          "type": "bool"
        }
      ],
      "stateMutability": "view",
      "type": "function"
    },
    {
      "inputs": [],
      "name": "symbol",
      "outputs": [
        {
          "internalType": "string",
          "name": "",
          "type": "string"
        }
      ],
      "stateMutability": "view",
      "type": "function"
    },
    {
      "inputs": [
        {
          "internalType": "uint256",
          "name": "tokenId",
          "type": "uint256"
        }
      ],
      "name": "tokenURI",
      "outputs": [
        {
          "internalType": "string",
          "name": "",
          "type": "string"
        }
      ],
      "stateMutability": "view",
      "type": "function"
    },
    {
      "inputs": [
        {
          "internalType": "address",
          "name": "from",
          "type": "address"
        },
        {
          "internalType": "address",
          "name": "to",
          "type": "address"
        },
        {
          "internalType": "uint256",
          "name": "tokenId",
          "type": "uint256"
        }
      ],
      "name": "transferFrom",
      "outputs": [],
      "stateMutability": "nonpayable",
      "type": "function"
    },
    {
      "inputs": [
        {
          "internalType": "address",
          "name": "_address",
          "type": "address"
        }
      ],
      "name": "setParentAddress",
      "outputs": [],
      "stateMutability": "nonpayable",
      "type": "function"
    },
    {
      "inputs": [],
      "name": "setParentApproval",
      "outputs": [],
      "stateMutability": "nonpayable",
      "type": "function"
    },
    {
      "inputs": [
        {
          "internalType": "address",
          "name": "_ownerAddress",
          "type": "address"
        },
        {
          "internalType": "uint256",
          "name": "_id",
          "type": "uint256"
        },
        {
          "internalType": "string",
          "name": "_tokenUri",
          "type": "string"
        },
        {
          "internalType": "string",
          "name": "_name",
          "type": "string"
        },
        {
          "internalType": "string",
          "name": "_symbol",
          "type": "string"
        }
      ],
      "name": "mintNFT",
      "outputs": [],
      "stateMutability": "nonpayable",
      "type": "function"
    },
    {
      "inputs": [
        {
          "internalType": "uint256",
          "name": "tokenId",
          "type": "uint256"
        }
      ],
      "name": "getTokenUri",
      "outputs": [
        {
          "internalType": "string",
          "name": "",
          "type": "string"
        }
      ],
      "stateMutability": "view",
      "type": "function"
    },
    {
      "inputs": [
        {
          "internalType": "uint256",
          "name": "tokenId",
          "type": "uint256"
        }
      ],
      "name": "getTokenName",
      "outputs": [
        {
          "internalType": "string",
          "name": "",
          "type": "string"
        }
      ],
      "stateMutability": "view",
      "type": "function"
    },
    {
      "inputs": [
        {
          "internalType": "uint256",
          "name": "tokenId",
          "type": "uint256"
        }
      ],
      "name": "getTokenSymbol",
      "outputs": [
        {
          "internalType": "string",
          "name": "",
          "type": "string"
        }
      ],
      "stateMutability": "view",
      "type": "function"
    },
    {
      "inputs": [],
      "name": "getTokenCount",
      "outputs": [
        {
          "internalType": "uint256",
          "name": "",
          "type": "uint256"
        }
      ],
      "stateMutability": "view",
      "type": "function"
    },
    {
      "inputs": [],
      "name": "getTokenIds",
      "outputs": [
        {
          "internalType": "uint256[]",
          "name": "",
          "type": "uint256[]"
        }
      ],
      "stateMutability": "view",
      "type": "function"
    }
  ],
  "bytecode": "0x60806040523480156200001157600080fd5b50604051806020016040528060008152506040518060200160405280600081525081600090805190602001906200004a9291906200006c565b508060019080519060200190620000639291906200006c565b50505062000181565b8280546200007a906200011c565b90600052602060002090601f0160209004810192826200009e5760008555620000ea565b82601f10620000b957805160ff1916838001178555620000ea565b82800160010185558215620000ea579182015b82811115620000e9578251825591602001919060010190620000cc565b5b509050620000f99190620000fd565b5090565b5b8082111562000118576000816000905550600101620000fe565b5090565b600060028204905060018216806200013557607f821691505b602082108114156200014c576200014b62000152565b5b50919050565b7f4e487b7100000000000000000000000000000000000000000000000000000000600052602260045260246000fd5b6131a380620001916000396000f3fe608060405234801561001057600080fd5b50600436106101375760003560e01c806378a89567116100b8578063b88d4fde1161007c578063b88d4fde14610360578063c87b56dd1461037c578063d49e2b59146103ac578063dbe16c07146103b6578063e985e9c5146103e6578063fa5afe401461041657610137565b806378a89567146102a85780637b78bd3f146102c65780638ad91345146102f657806395d89b4114610326578063a22cb4651461034457610137565b8063257d89db116100ff578063257d89db146101f257806342842e0e1461020e5780636352211e1461022a57806367f718a91461025a57806370a082311461027857610137565b806301ffc9a71461013c57806306fdde031461016c578063081812fc1461018a578063095ea7b3146101ba57806323b872dd146101d6575b600080fd5b61015660048036038101906101519190612170565b610432565b604051610163919061261d565b60405180910390f35b610174610514565b6040516101819190612638565b60405180910390f35b6101a4600480360381019061019f91906121c2565b6105a6565b6040516101b19190612594565b60405180910390f35b6101d460048036038101906101cf9190612075565b61062b565b005b6101f060048036038101906101eb9190611f6f565b610743565b005b61020c600480360381019061020791906120b1565b6107a3565b005b61022860048036038101906102239190611f6f565b610895565b005b610244600480360381019061023f91906121c2565b6108b5565b6040516102519190612594565b60405180910390f35b610262610967565b60405161026f91906125fb565b60405180910390f35b610292600480360381019061028d9190611f0a565b6109bf565b60405161029f919061285a565b60405180910390f35b6102b0610a77565b6040516102bd919061285a565b60405180910390f35b6102e060048036038101906102db91906121c2565b610a84565b6040516102ed9190612638565b60405180910390f35b610310600480360381019061030b91906121c2565b610b2c565b60405161031d9190612638565b60405180910390f35b61032e610bd4565b60405161033b9190612638565b60405180910390f35b61035e60048036038101906103599190612039565b610c66565b005b61037a60048036038101906103759190611fbe565b610de7565b005b610396600480360381019061039191906121c2565b610e49565b6040516103a39190612638565b60405180910390f35b6103b4610f9b565b005b6103d060048036038101906103cb91906121c2565b610fca565b6040516103dd9190612638565b60405180910390f35b61040060048036038101906103fb9190611f33565b611072565b60405161040d919061261d565b60405180910390f35b610430600480360381019061042b9190611f0a565b611106565b005b60007f80ac58cd000000000000000000000000000000000000000000000000000000007bffffffffffffffffffffffffffffffffffffffffffffffffffffffff1916827bffffffffffffffffffffffffffffffffffffffffffffffffffffffff191614806104fd57507f5b5e139f000000000000000000000000000000000000000000000000000000007bffffffffffffffffffffffffffffffffffffffffffffffffffffffff1916827bffffffffffffffffffffffffffffffffffffffffffffffffffffffff1916145b8061050d575061050c8261114a565b5b9050919050565b60606000805461052390612ae9565b80601f016020809104026020016040519081016040528092919081815260200182805461054f90612ae9565b801561059c5780601f106105715761010080835404028352916020019161059c565b820191906000526020600020905b81548152906001019060200180831161057f57829003601f168201915b5050505050905090565b60006105b1826111b4565b6105f0576040517f08c379a00000000000000000000000000000000000000000000000000000000081526004016105e7906127ba565b60405180910390fd5b6004600083815260200190815260200160002060009054906101000a900473ffffffffffffffffffffffffffffffffffffffff169050919050565b6000610636826108b5565b90508073ffffffffffffffffffffffffffffffffffffffff168373ffffffffffffffffffffffffffffffffffffffff1614156106a7576040517f08c379a000000000000000000000000000000000000000000000000000000000815260040161069e9061281a565b60405180910390fd5b8073ffffffffffffffffffffffffffffffffffffffff166106c6611220565b73ffffffffffffffffffffffffffffffffffffffff1614806106f557506106f4816106ef611220565b611072565b5b610734576040517f08c379a000000000000000000000000000000000000000000000000000000000815260040161072b906126fa565b60405180910390fd5b61073e8383611228565b505050565b61075461074e611220565b826112e1565b610793576040517f08c379a000000000000000000000000000000000000000000000000000000000815260040161078a9061283a565b60405180910390fd5b61079e8383836113bf565b505050565b600060405180608001604052808681526020018481526020018381526020018581525090506107e286866040518060200160405280600081525061161b565b6107ec8585611676565b6008859080600181540180825580915050600190039060005260206000200160009091909190915055806009600087815260200190815260200160002060008201518160000155602082015181600101908051906020019061084f929190611d2e565b50604082015181600201908051906020019061086c929190611d2e565b506060820151816003019080519060200190610889929190611d2e565b50905050505050505050565b6108b083838360405180602001604052806000815250610de7565b505050565b6000806002600084815260200190815260200160002060009054906101000a900473ffffffffffffffffffffffffffffffffffffffff169050600073ffffffffffffffffffffffffffffffffffffffff168173ffffffffffffffffffffffffffffffffffffffff16141561095e576040517f08c379a00000000000000000000000000000000000000000000000000000000081526004016109559061273a565b60405180910390fd5b80915050919050565b606060088054806020026020016040519081016040528092919081815260200182805480156109b557602002820191906000526020600020905b8154815260200190600101908083116109a1575b5050505050905090565b60008073ffffffffffffffffffffffffffffffffffffffff168273ffffffffffffffffffffffffffffffffffffffff161415610a30576040517f08c379a0000000000000000000000000000000000000000000000000000000008152600401610a279061271a565b60405180910390fd5b600360008373ffffffffffffffffffffffffffffffffffffffff1673ffffffffffffffffffffffffffffffffffffffff168152602001908152602001600020549050919050565b6000600880549050905090565b6060600960008381526020019081526020016000206002018054610aa790612ae9565b80601f0160208091040260200160405190810160405280929190818152602001828054610ad390612ae9565b8015610b205780601f10610af557610100808354040283529160200191610b20565b820191906000526020600020905b815481529060010190602001808311610b0357829003601f168201915b50505050509050919050565b6060600960008381526020019081526020016000206003018054610b4f90612ae9565b80601f0160208091040260200160405190810160405280929190818152602001828054610b7b90612ae9565b8015610bc85780601f10610b9d57610100808354040283529160200191610bc8565b820191906000526020600020905b815481529060010190602001808311610bab57829003601f168201915b50505050509050919050565b606060018054610be390612ae9565b80601f0160208091040260200160405190810160405280929190818152602001828054610c0f90612ae9565b8015610c5c5780601f10610c3157610100808354040283529160200191610c5c565b820191906000526020600020905b815481529060010190602001808311610c3f57829003601f168201915b5050505050905090565b610c6e611220565b73ffffffffffffffffffffffffffffffffffffffff168273ffffffffffffffffffffffffffffffffffffffff161415610cdc576040517f08c379a0000000000000000000000000000000000000000000000000000000008152600401610cd3906126ba565b60405180910390fd5b8060056000610ce9611220565b73ffffffffffffffffffffffffffffffffffffffff1673ffffffffffffffffffffffffffffffffffffffff16815260200190815260200160002060008473ffffffffffffffffffffffffffffffffffffffff1673ffffffffffffffffffffffffffffffffffffffff16815260200190815260200160002060006101000a81548160ff0219169083151502179055508173ffffffffffffffffffffffffffffffffffffffff16610d96611220565b73ffffffffffffffffffffffffffffffffffffffff167f17307eab39ab6107e8899845ad3d59bd9653f200f220920489ca2b5937696c3183604051610ddb919061261d565b60405180910390a35050565b610df8610df2611220565b836112e1565b610e37576040517f08c379a0000000000000000000000000000000000000000000000000000000008152600401610e2e9061283a565b60405180910390fd5b610e43848484846116ea565b50505050565b6060610e54826111b4565b610e93576040517f08c379a0000000000000000000000000000000000000000000000000000000008152600401610e8a9061279a565b60405180910390fd5b6000600660008481526020019081526020016000208054610eb390612ae9565b80601f0160208091040260200160405190810160405280929190818152602001828054610edf90612ae9565b8015610f2c5780601f10610f0157610100808354040283529160200191610f2c565b820191906000526020600020905b815481529060010190602001808311610f0f57829003601f168201915b505050505090506000610f3d611746565b9050600081511415610f53578192505050610f96565b600082511115610f88578082604051602001610f70929190612570565b60405160208183030381529060405292505050610f96565b610f918461175d565b925050505b919050565b610fc8600760009054906101000a900473ffffffffffffffffffffffffffffffffffffffff166001610c66565b565b6060600960008381526020019081526020016000206001018054610fed90612ae9565b80601f016020809104026020016040519081016040528092919081815260200182805461101990612ae9565b80156110665780601f1061103b57610100808354040283529160200191611066565b820191906000526020600020905b81548152906001019060200180831161104957829003601f168201915b50505050509050919050565b6000600560008473ffffffffffffffffffffffffffffffffffffffff1673ffffffffffffffffffffffffffffffffffffffff16815260200190815260200160002060008373ffffffffffffffffffffffffffffffffffffffff1673ffffffffffffffffffffffffffffffffffffffff16815260200190815260200160002060009054906101000a900460ff16905092915050565b80600760006101000a81548173ffffffffffffffffffffffffffffffffffffffff021916908373ffffffffffffffffffffffffffffffffffffffff16021790555050565b60007f01ffc9a7000000000000000000000000000000000000000000000000000000007bffffffffffffffffffffffffffffffffffffffffffffffffffffffff1916827bffffffffffffffffffffffffffffffffffffffffffffffffffffffff1916149050919050565b60008073ffffffffffffffffffffffffffffffffffffffff166002600084815260200190815260200160002060009054906101000a900473ffffffffffffffffffffffffffffffffffffffff1673ffffffffffffffffffffffffffffffffffffffff1614159050919050565b600033905090565b816004600083815260200190815260200160002060006101000a81548173ffffffffffffffffffffffffffffffffffffffff021916908373ffffffffffffffffffffffffffffffffffffffff160217905550808273ffffffffffffffffffffffffffffffffffffffff1661129b836108b5565b73ffffffffffffffffffffffffffffffffffffffff167f8c5be1e5ebec7d5bd14f71427d1e84f3dd0314c0f7b2291e5b200ac8c7c3b92560405160405180910390a45050565b60006112ec826111b4565b61132b576040517f08c379a0000000000000000000000000000000000000000000000000000000008152600401611322906126da565b60405180910390fd5b6000611336836108b5565b90508073ffffffffffffffffffffffffffffffffffffffff168473ffffffffffffffffffffffffffffffffffffffff1614806113a557508373ffffffffffffffffffffffffffffffffffffffff1661138d846105a6565b73ffffffffffffffffffffffffffffffffffffffff16145b806113b657506113b58185611072565b5b91505092915050565b8273ffffffffffffffffffffffffffffffffffffffff166113df826108b5565b73ffffffffffffffffffffffffffffffffffffffff1614611435576040517f08c379a000000000000000000000000000000000000000000000000000000000815260040161142c906127da565b60405180910390fd5b600073ffffffffffffffffffffffffffffffffffffffff168273ffffffffffffffffffffffffffffffffffffffff1614156114a5576040517f08c379a000000000000000000000000000000000000000000000000000000000815260040161149c9061269a565b60405180910390fd5b6114b0838383611804565b6114bb600082611228565b6001600360008573ffffffffffffffffffffffffffffffffffffffff1673ffffffffffffffffffffffffffffffffffffffff168152602001908152602001600020600082825461150b91906129ff565b925050819055506001600360008473ffffffffffffffffffffffffffffffffffffffff1673ffffffffffffffffffffffffffffffffffffffff16815260200190815260200160002060008282546115629190612978565b92505081905550816002600083815260200190815260200160002060006101000a81548173ffffffffffffffffffffffffffffffffffffffff021916908373ffffffffffffffffffffffffffffffffffffffff160217905550808273ffffffffffffffffffffffffffffffffffffffff168473ffffffffffffffffffffffffffffffffffffffff167fddf252ad1be2c89b69c2b068fc378daa952ba7f163c4a11628f55a4df523b3ef60405160405180910390a4505050565b6116258383611809565b61163260008484846119d7565b611671576040517f08c379a00000000000000000000000000000000000000000000000000000000081526004016116689061265a565b60405180910390fd5b505050565b61167f826111b4565b6116be576040517f08c379a00000000000000000000000000000000000000000000000000000000081526004016116b59061275a565b60405180910390fd5b806006600084815260200190815260200160002090805190602001906116e5929190611d2e565b505050565b6116f58484846113bf565b611701848484846119d7565b611740576040517f08c379a00000000000000000000000000000000000000000000000000000000081526004016117379061265a565b60405180910390fd5b50505050565b606060405180602001604052806000815250905090565b6060611768826111b4565b6117a7576040517f08c379a000000000000000000000000000000000000000000000000000000000815260040161179e906127fa565b60405180910390fd5b60006117b1611746565b905060008151116117d157604051806020016040528060008152506117fc565b806117db84611b6e565b6040516020016117ec929190612570565b6040516020818303038152906040525b915050919050565b505050565b600073ffffffffffffffffffffffffffffffffffffffff168273ffffffffffffffffffffffffffffffffffffffff161415611879576040517f08c379a00000000000000000000000000000000000000000000000000000000081526004016118709061277a565b60405180910390fd5b611882816111b4565b156118c2576040517f08c379a00000000000000000000000000000000000000000000000000000000081526004016118b99061267a565b60405180910390fd5b6118ce60008383611804565b6001600360008473ffffffffffffffffffffffffffffffffffffffff1673ffffffffffffffffffffffffffffffffffffffff168152602001908152602001600020600082825461191e9190612978565b92505081905550816002600083815260200190815260200160002060006101000a81548173ffffffffffffffffffffffffffffffffffffffff021916908373ffffffffffffffffffffffffffffffffffffffff160217905550808273ffffffffffffffffffffffffffffffffffffffff16600073ffffffffffffffffffffffffffffffffffffffff167fddf252ad1be2c89b69c2b068fc378daa952ba7f163c4a11628f55a4df523b3ef60405160405180910390a45050565b60006119f88473ffffffffffffffffffffffffffffffffffffffff16611d1b565b15611b61578373ffffffffffffffffffffffffffffffffffffffff1663150b7a02611a21611220565b8786866040518563ffffffff1660e01b8152600401611a4394939291906125af565b602060405180830381600087803b158015611a5d57600080fd5b505af1925050508015611a8e57506040513d601f19601f82011682018060405250810190611a8b9190612199565b60015b611b11573d8060008114611abe576040519150601f19603f3d011682016040523d82523d6000602084013e611ac3565b606091505b50600081511415611b09576040517f08c379a0000000000000000000000000000000000000000000000000000000008152600401611b009061265a565b60405180910390fd5b805181602001fd5b63150b7a0260e01b7bffffffffffffffffffffffffffffffffffffffffffffffffffffffff1916817bffffffffffffffffffffffffffffffffffffffffffffffffffffffff191614915050611b66565b600190505b949350505050565b60606000821415611bb6576040518060400160405280600181526020017f30000000000000000000000000000000000000000000000000000000000000008152509050611d16565b600082905060005b60008214611be8578080611bd190612b4c565b915050600a82611be191906129ce565b9150611bbe565b60008167ffffffffffffffff811115611c2a577f4e487b7100000000000000000000000000000000000000000000000000000000600052604160045260246000fd5b6040519080825280601f01601f191660200182016040528015611c5c5781602001600182028036833780820191505090505b5090505b60008514611d0f57600182611c7591906129ff565b9150600a85611c849190612b95565b6030611c909190612978565b60f81b818381518110611ccc577f4e487b7100000000000000000000000000000000000000000000000000000000600052603260045260246000fd5b60200101907effffffffffffffffffffffffffffffffffffffffffffffffffffffffffffff1916908160001a905350600a85611d0891906129ce565b9450611c60565b8093505050505b919050565b600080823b905060008111915050919050565b828054611d3a90612ae9565b90600052602060002090601f016020900481019282611d5c5760008555611da3565b82601f10611d7557805160ff1916838001178555611da3565b82800160010185558215611da3579182015b82811115611da2578251825591602001919060010190611d87565b5b509050611db09190611db4565b5090565b5b80821115611dcd576000816000905550600101611db5565b5090565b6000611de4611ddf8461289a565b612875565b905082815260208101848484011115611dfc57600080fd5b611e07848285612aa7565b509392505050565b6000611e22611e1d846128cb565b612875565b905082815260208101848484011115611e3a57600080fd5b611e45848285612aa7565b509392505050565b600081359050611e5c81613111565b92915050565b600081359050611e7181613128565b92915050565b600081359050611e868161313f565b92915050565b600081519050611e9b8161313f565b92915050565b600082601f830112611eb257600080fd5b8135611ec2848260208601611dd1565b91505092915050565b600082601f830112611edc57600080fd5b8135611eec848260208601611e0f565b91505092915050565b600081359050611f0481613156565b92915050565b600060208284031215611f1c57600080fd5b6000611f2a84828501611e4d565b91505092915050565b60008060408385031215611f4657600080fd5b6000611f5485828601611e4d565b9250506020611f6585828601611e4d565b9150509250929050565b600080600060608486031215611f8457600080fd5b6000611f9286828701611e4d565b9350506020611fa386828701611e4d565b9250506040611fb486828701611ef5565b9150509250925092565b60008060008060808587031215611fd457600080fd5b6000611fe287828801611e4d565b9450506020611ff387828801611e4d565b935050604061200487828801611ef5565b925050606085013567ffffffffffffffff81111561202157600080fd5b61202d87828801611ea1565b91505092959194509250565b6000806040838503121561204c57600080fd5b600061205a85828601611e4d565b925050602061206b85828601611e62565b9150509250929050565b6000806040838503121561208857600080fd5b600061209685828601611e4d565b92505060206120a785828601611ef5565b9150509250929050565b600080600080600060a086880312156120c957600080fd5b60006120d788828901611e4d565b95505060206120e888828901611ef5565b945050604086013567ffffffffffffffff81111561210557600080fd5b61211188828901611ecb565b935050606086013567ffffffffffffffff81111561212e57600080fd5b61213a88828901611ecb565b925050608086013567ffffffffffffffff81111561215757600080fd5b61216388828901611ecb565b9150509295509295909350565b60006020828403121561218257600080fd5b600061219084828501611e77565b91505092915050565b6000602082840312156121ab57600080fd5b60006121b984828501611e8c565b91505092915050565b6000602082840312156121d457600080fd5b60006121e284828501611ef5565b91505092915050565b60006121f78383612552565b60208301905092915050565b61220c81612a33565b82525050565b600061221d8261290c565b612227818561293a565b9350612232836128fc565b8060005b8381101561226357815161224a88826121eb565b97506122558361292d565b925050600181019050612236565b5085935050505092915050565b61227981612a45565b82525050565b600061228a82612917565b612294818561294b565b93506122a4818560208601612ab6565b6122ad81612c82565b840191505092915050565b60006122c382612922565b6122cd818561295c565b93506122dd818560208601612ab6565b6122e681612c82565b840191505092915050565b60006122fc82612922565b612306818561296d565b9350612316818560208601612ab6565b80840191505092915050565b600061232f60328361295c565b915061233a82612c93565b604082019050919050565b6000612352601c8361295c565b915061235d82612ce2565b602082019050919050565b600061237560248361295c565b915061238082612d0b565b604082019050919050565b600061239860198361295c565b91506123a382612d5a565b602082019050919050565b60006123bb602c8361295c565b91506123c682612d83565b604082019050919050565b60006123de60388361295c565b91506123e982612dd2565b604082019050919050565b6000612401602a8361295c565b915061240c82612e21565b604082019050919050565b600061242460298361295c565b915061242f82612e70565b604082019050919050565b6000612447602e8361295c565b915061245282612ebf565b604082019050919050565b600061246a60208361295c565b915061247582612f0e565b602082019050919050565b600061248d60318361295c565b915061249882612f37565b604082019050919050565b60006124b0602c8361295c565b91506124bb82612f86565b604082019050919050565b60006124d360298361295c565b91506124de82612fd5565b604082019050919050565b60006124f6602f8361295c565b915061250182613024565b604082019050919050565b600061251960218361295c565b915061252482613073565b604082019050919050565b600061253c60318361295c565b9150612547826130c2565b604082019050919050565b61255b81612a9d565b82525050565b61256a81612a9d565b82525050565b600061257c82856122f1565b915061258882846122f1565b91508190509392505050565b60006020820190506125a96000830184612203565b92915050565b60006080820190506125c46000830187612203565b6125d16020830186612203565b6125de6040830185612561565b81810360608301526125f0818461227f565b905095945050505050565b600060208201905081810360008301526126158184612212565b905092915050565b60006020820190506126326000830184612270565b92915050565b6000602082019050818103600083015261265281846122b8565b905092915050565b6000602082019050818103600083015261267381612322565b9050919050565b6000602082019050818103600083015261269381612345565b9050919050565b600060208201905081810360008301526126b381612368565b9050919050565b600060208201905081810360008301526126d38161238b565b9050919050565b600060208201905081810360008301526126f3816123ae565b9050919050565b60006020820190508181036000830152612713816123d1565b9050919050565b60006020820190508181036000830152612733816123f4565b9050919050565b6000602082019050818103600083015261275381612417565b9050919050565b600060208201905081810360008301526127738161243a565b9050919050565b600060208201905081810360008301526127938161245d565b9050919050565b600060208201905081810360008301526127b381612480565b9050919050565b600060208201905081810360008301526127d3816124a3565b9050919050565b600060208201905081810360008301526127f3816124c6565b9050919050565b60006020820190508181036000830152612813816124e9565b9050919050565b600060208201905081810360008301526128338161250c565b9050919050565b600060208201905081810360008301526128538161252f565b9050919050565b600060208201905061286f6000830184612561565b92915050565b600061287f612890565b905061288b8282612b1b565b919050565b6000604051905090565b600067ffffffffffffffff8211156128b5576128b4612c53565b5b6128be82612c82565b9050602081019050919050565b600067ffffffffffffffff8211156128e6576128e5612c53565b5b6128ef82612c82565b9050602081019050919050565b6000819050602082019050919050565b600081519050919050565b600081519050919050565b600081519050919050565b6000602082019050919050565b600082825260208201905092915050565b600082825260208201905092915050565b600082825260208201905092915050565b600081905092915050565b600061298382612a9d565b915061298e83612a9d565b9250827fffffffffffffffffffffffffffffffffffffffffffffffffffffffffffffffff038211156129c3576129c2612bc6565b5b828201905092915050565b60006129d982612a9d565b91506129e483612a9d565b9250826129f4576129f3612bf5565b5b828204905092915050565b6000612a0a82612a9d565b9150612a1583612a9d565b925082821015612a2857612a27612bc6565b5b828203905092915050565b6000612a3e82612a7d565b9050919050565b60008115159050919050565b60007fffffffff0000000000000000000000000000000000000000000000000000000082169050919050565b600073ffffffffffffffffffffffffffffffffffffffff82169050919050565b6000819050919050565b82818337600083830152505050565b60005b83811015612ad4578082015181840152602081019050612ab9565b83811115612ae3576000848401525b50505050565b60006002820490506001821680612b0157607f821691505b60208210811415612b1557612b14612c24565b5b50919050565b612b2482612c82565b810181811067ffffffffffffffff82111715612b4357612b42612c53565b5b80604052505050565b6000612b5782612a9d565b91507fffffffffffffffffffffffffffffffffffffffffffffffffffffffffffffffff821415612b8a57612b89612bc6565b5b600182019050919050565b6000612ba082612a9d565b9150612bab83612a9d565b925082612bbb57612bba612bf5565b5b828206905092915050565b7f4e487b7100000000000000000000000000000000000000000000000000000000600052601160045260246000fd5b7f4e487b7100000000000000000000000000000000000000000000000000000000600052601260045260246000fd5b7f4e487b7100000000000000000000000000000000000000000000000000000000600052602260045260246000fd5b7f4e487b7100000000000000000000000000000000000000000000000000000000600052604160045260246000fd5b6000601f19601f8301169050919050565b7f4552433732313a207472616e7366657220746f206e6f6e20455243373231526560008201527f63656976657220696d706c656d656e7465720000000000000000000000000000602082015250565b7f4552433732313a20746f6b656e20616c7265616479206d696e74656400000000600082015250565b7f4552433732313a207472616e7366657220746f20746865207a65726f2061646460008201527f7265737300000000000000000000000000000000000000000000000000000000602082015250565b7f4552433732313a20617070726f766520746f2063616c6c657200000000000000600082015250565b7f4552433732313a206f70657261746f7220717565727920666f72206e6f6e657860008201527f697374656e7420746f6b656e0000000000000000000000000000000000000000602082015250565b7f4552433732313a20617070726f76652063616c6c6572206973206e6f74206f7760008201527f6e6572206e6f7220617070726f76656420666f7220616c6c0000000000000000602082015250565b7f4552433732313a2062616c616e636520717565727920666f7220746865207a6560008201527f726f206164647265737300000000000000000000000000000000000000000000602082015250565b7f4552433732313a206f776e657220717565727920666f72206e6f6e657869737460008201527f656e7420746f6b656e0000000000000000000000000000000000000000000000602082015250565b7f45524337323155524953746f726167653a2055524920736574206f66206e6f6e60008201527f6578697374656e7420746f6b656e000000000000000000000000000000000000602082015250565b7f4552433732313a206d696e7420746f20746865207a65726f2061646472657373600082015250565b7f45524337323155524953746f726167653a2055524920717565727920666f722060008201527f6e6f6e6578697374656e7420746f6b656e000000000000000000000000000000602082015250565b7f4552433732313a20617070726f76656420717565727920666f72206e6f6e657860008201527f697374656e7420746f6b656e0000000000000000000000000000000000000000602082015250565b7f4552433732313a207472616e73666572206f6620746f6b656e2074686174206960008201527f73206e6f74206f776e0000000000000000000000000000000000000000000000602082015250565b7f4552433732314d657461646174613a2055524920717565727920666f72206e6f60008201527f6e6578697374656e7420746f6b656e0000000000000000000000000000000000602082015250565b7f4552433732313a20617070726f76616c20746f2063757272656e74206f776e6560008201527f7200000000000000000000000000000000000000000000000000000000000000602082015250565b7f4552433732313a207472616e736665722063616c6c6572206973206e6f74206f60008201527f776e6572206e6f7220617070726f766564000000000000000000000000000000602082015250565b61311a81612a33565b811461312557600080fd5b50565b61313181612a45565b811461313c57600080fd5b50565b61314881612a51565b811461315357600080fd5b50565b61315f81612a9d565b811461316a57600080fd5b5056fea264697066735822122006d12121c500f47b0e0b2ba789a4e010914924c5535accb1c156a13816bd2b5e64736f6c63430008030033",
  "immutableReferences": {},
  "source": "pragma solidity ^0.8.3;\r\n//\"SPDX-License-Identifier: UNLICENSED\"\r\n\r\nimport \"@openzeppelin/contracts/token/ERC721/ERC721.sol\";\r\nimport \"@openzeppelin/contracts/token/ERC721/extensions/ERC721URIStorage.sol\";\r\n\r\ncontract ACHouseToken721 is ERC721URIStorage {\r\n\r\n    address parentAddress;\r\n\r\n    uint256[] tokensIdscreated;\r\n\r\n    struct NFTToken{\r\n        uint256 id;\r\n        string name;\r\n        string symbol;\r\n        string uri;\r\n    }\r\n\r\n    mapping (uint256 => NFTToken) idToNFTMapping;\r\n    \r\n    constructor() ERC721(\"\",\"\") {\r\n    }\r\n    \r\n    function setParentAddress(address _address) public {\r\n        parentAddress = _address;\r\n    }\r\n\r\n    function setParentApproval() public {\r\n        //apprvove parent contract to handle tokens and transactions.\r\n        setApprovalForAll(parentAddress, true);\r\n    }\r\n\r\n    function mintNFT(address _ownerAddress, uint256 _id, string memory _tokenUri, string memory _name, string memory _symbol) public {\r\n       // using erc 721 to creat NFT\r\n       // mint will create NFT and send it to the address. \r\n\r\n       _name = _name;\r\n       _symbol = _symbol;\r\n\r\n        NFTToken memory token = NFTToken(_id, _name, _symbol, _tokenUri );\r\n       _safeMint(_ownerAddress, _id, \"\"); \r\n       _setTokenURI(_id, _tokenUri);\r\n       \r\n       tokensIdscreated.push(_id);\r\n       idToNFTMapping[_id] = token;\r\n    }\r\n\r\n    function getTokenUri(uint256 tokenId) public view returns(string memory){\r\n        return idToNFTMapping[tokenId].uri;\r\n    }\r\n\r\n    function getTokenName(uint256 tokenId) public view returns(string memory){\r\n        return idToNFTMapping[tokenId].name;\r\n    }\r\n\r\n    function getTokenSymbol(uint256 tokenId) public view returns(string memory){\r\n        return idToNFTMapping[tokenId].symbol;\r\n    }\r\n\r\n    //get tokens totalnumber. \r\n    function getTokenCount() public view returns (uint256) {\r\n        return tokensIdscreated.length;\r\n    }\r\n    //returns the array of all tokenids. \r\n    function getTokenIds() public  view returns ( uint256[] memory) {\r\n        return tokensIdscreated;\r\n    }\r\n    \r\n}",
  "sourcePath": "C:\\Users\\sendm\\OneDrive\\Desktop\\HeartDrops\\contracts\\ACHouseToken721.sol",
  "compiler": {
    "name": "solc",
    "version": "0.8.3+commit.8d00100c.Emscripten.clang"
  },
  "schemaVersion": "3.4.1",
  "updatedAt": "2021-10-10T15:12:29.015Z",
  "devdoc": {
    "kind": "dev",
    "methods": {
      "approve(address,uint256)": {
        "details": "See {IERC721-approve}."
      },
      "balanceOf(address)": {
        "details": "See {IERC721-balanceOf}."
      },
      "getApproved(uint256)": {
        "details": "See {IERC721-getApproved}."
      },
      "isApprovedForAll(address,address)": {
        "details": "See {IERC721-isApprovedForAll}."
      },
      "name()": {
        "details": "See {IERC721Metadata-name}."
      },
      "ownerOf(uint256)": {
        "details": "See {IERC721-ownerOf}."
      },
      "safeTransferFrom(address,address,uint256)": {
        "details": "See {IERC721-safeTransferFrom}."
      },
      "safeTransferFrom(address,address,uint256,bytes)": {
        "details": "See {IERC721-safeTransferFrom}."
      },
      "setApprovalForAll(address,bool)": {
        "details": "See {IERC721-setApprovalForAll}."
      },
      "supportsInterface(bytes4)": {
        "details": "See {IERC165-supportsInterface}."
      },
      "symbol()": {
        "details": "See {IERC721Metadata-symbol}."
      },
      "tokenURI(uint256)": {
        "details": "See {IERC721Metadata-tokenURI}."
      },
      "transferFrom(address,address,uint256)": {
        "details": "See {IERC721-transferFrom}."
      }
    },
    "version": 1
  },
  "userdoc": {
    "kind": "user",
    "methods": {},
    "version": 1
  }
}