{
  "contractName": "ACHouseToken1155",
  "abi": [
    {
      "inputs": [],
      "stateMutability": "nonpayable",
      "type": "constructor"
    },
    {
      "anonymous": false,
      "inputs": [
        {
          "indexed": true,
          "internalType": "address",
          "name": "account",
          "type": "address"
        },
        {
          "indexed": true,
          "internalType": "address",
          "name": "operator",
          "type": "address"
        },
        {
          "indexed": false,
          "internalType": "bool",
          "name": "approved",
          "type": "bool"
        }
      ],
      "name": "ApprovalForAll",
      "type": "event"
    },
    {
      "anonymous": false,
      "inputs": [
        {
          "indexed": true,
          "internalType": "address",
          "name": "operator",
          "type": "address"
        },
        {
          "indexed": true,
          "internalType": "address",
          "name": "from",
          "type": "address"
        },
        {
          "indexed": true,
          "internalType": "address",
          "name": "to",
          "type": "address"
        },
        {
          "indexed": false,
          "internalType": "uint256[]",
          "name": "ids",
          "type": "uint256[]"
        },
        {
          "indexed": false,
          "internalType": "uint256[]",
          "name": "values",
          "type": "uint256[]"
        }
      ],
      "name": "TransferBatch",
      "type": "event"
    },
    {
      "anonymous": false,
      "inputs": [
        {
          "indexed": true,
          "internalType": "address",
          "name": "operator",
          "type": "address"
        },
        {
          "indexed": true,
          "internalType": "address",
          "name": "from",
          "type": "address"
        },
        {
          "indexed": true,
          "internalType": "address",
          "name": "to",
          "type": "address"
        },
        {
          "indexed": false,
          "internalType": "uint256",
          "name": "id",
          "type": "uint256"
        },
        {
          "indexed": false,
          "internalType": "uint256",
          "name": "value",
          "type": "uint256"
        }
      ],
      "name": "TransferSingle",
      "type": "event"
    },
    {
      "anonymous": false,
      "inputs": [
        {
          "indexed": false,
          "internalType": "string",
          "name": "value",
          "type": "string"
        },
        {
          "indexed": true,
          "internalType": "uint256",
          "name": "id",
          "type": "uint256"
        }
      ],
      "name": "URI",
      "type": "event"
    },
    {
      "inputs": [
        {
          "internalType": "address",
          "name": "account",
          "type": "address"
        },
        {
          "internalType": "uint256",
          "name": "id",
          "type": "uint256"
        }
      ],
      "name": "balanceOf",
      "outputs": [
        {
          "internalType": "uint256",
          "name": "",
          "type": "uint256"
        }
      ],
      "stateMutability": "view",
      "type": "function",
      "constant": true
    },
    {
      "inputs": [
        {
          "internalType": "address[]",
          "name": "accounts",
          "type": "address[]"
        },
        {
          "internalType": "uint256[]",
          "name": "ids",
          "type": "uint256[]"
        }
      ],
      "name": "balanceOfBatch",
      "outputs": [
        {
          "internalType": "uint256[]",
          "name": "",
          "type": "uint256[]"
        }
      ],
      "stateMutability": "view",
      "type": "function",
      "constant": true
    },
    {
      "inputs": [
        {
          "internalType": "address",
          "name": "account",
          "type": "address"
        },
        {
          "internalType": "address",
          "name": "operator",
          "type": "address"
        }
      ],
      "name": "isApprovedForAll",
      "outputs": [
        {
          "internalType": "bool",
          "name": "",
          "type": "bool"
        }
      ],
      "stateMutability": "view",
      "type": "function",
      "constant": true
    },
    {
      "inputs": [
        {
          "internalType": "address",
          "name": "from",
          "type": "address"
        },
        {
          "internalType": "address",
          "name": "to",
          "type": "address"
        },
        {
          "internalType": "uint256[]",
          "name": "ids",
          "type": "uint256[]"
        },
        {
          "internalType": "uint256[]",
          "name": "amounts",
          "type": "uint256[]"
        },
        {
          "internalType": "bytes",
          "name": "data",
          "type": "bytes"
        }
      ],
      "name": "safeBatchTransferFrom",
      "outputs": [],
      "stateMutability": "nonpayable",
      "type": "function"
    },
    {
      "inputs": [
        {
          "internalType": "address",
          "name": "from",
          "type": "address"
        },
        {
          "internalType": "address",
          "name": "to",
          "type": "address"
        },
        {
          "internalType": "uint256",
          "name": "id",
          "type": "uint256"
        },
        {
          "internalType": "uint256",
          "name": "amount",
          "type": "uint256"
        },
        {
          "internalType": "bytes",
          "name": "data",
          "type": "bytes"
        }
      ],
      "name": "safeTransferFrom",
      "outputs": [],
      "stateMutability": "nonpayable",
      "type": "function"
    },
    {
      "inputs": [
        {
          "internalType": "address",
          "name": "operator",
          "type": "address"
        },
        {
          "internalType": "bool",
          "name": "approved",
          "type": "bool"
        }
      ],
      "name": "setApprovalForAll",
      "outputs": [],
      "stateMutability": "nonpayable",
      "type": "function"
    },
    {
      "inputs": [
        {
          "internalType": "bytes4",
          "name": "interfaceId",
          "type": "bytes4"
        }
      ],
      "name": "supportsInterface",
      "outputs": [
        {
          "internalType": "bool",
          "name": "",
          "type": "bool"
        }
      ],
      "stateMutability": "view",
      "type": "function",
      "constant": true
    },
    {
      "inputs": [
        {
          "internalType": "uint256",
          "name": "",
          "type": "uint256"
        }
      ],
      "name": "uri",
      "outputs": [
        {
          "internalType": "string",
          "name": "",
          "type": "string"
        }
      ],
      "stateMutability": "view",
      "type": "function",
      "constant": true
    },
    {
      "inputs": [
        {
          "internalType": "address",
          "name": "_address",
          "type": "address"
        }
      ],
      "name": "setParentAddress",
      "outputs": [],
      "stateMutability": "nonpayable",
      "type": "function"
    },
    {
      "inputs": [
        {
          "internalType": "string",
          "name": "newuri",
          "type": "string"
        }
      ],
      "name": "setURI",
      "outputs": [],
      "stateMutability": "nonpayable",
      "type": "function"
    },
    {
      "inputs": [
        {
          "internalType": "uint256",
          "name": "_tokenId",
          "type": "uint256"
        }
      ],
      "name": "getTokenURI",
      "outputs": [
        {
          "internalType": "string",
          "name": "",
          "type": "string"
        }
      ],
      "stateMutability": "view",
      "type": "function",
      "constant": true
    },
    {
      "inputs": [],
      "name": "setParentApproval",
      "outputs": [],
      "stateMutability": "nonpayable",
      "type": "function"
    },
    {
      "inputs": [
        {
          "internalType": "address",
          "name": "_ownerAddress",
          "type": "address"
        },
        {
          "internalType": "uint256",
          "name": "_id",
          "type": "uint256"
        },
        {
          "internalType": "uint256",
          "name": "amount",
          "type": "uint256"
        }
      ],
      "name": "mintNFT",
      "outputs": [],
      "stateMutability": "nonpayable",
      "type": "function"
    },
    {
      "inputs": [],
      "name": "getTokenCount",
      "outputs": [
        {
          "internalType": "uint256",
          "name": "",
          "type": "uint256"
        }
      ],
      "stateMutability": "view",
      "type": "function",
      "constant": true
    },
    {
      "inputs": [],
      "name": "getTokenIds",
      "outputs": [
        {
          "internalType": "uint256[]",
          "name": "",
          "type": "uint256[]"
        }
      ],
      "stateMutability": "view",
      "type": "function",
      "constant": true
    },
    {
      "inputs": [
        {
          "internalType": "uint256",
          "name": "_id",
          "type": "uint256"
        }
      ],
      "name": "getTotalSupplyOfToken",
      "outputs": [
        {
          "internalType": "uint256",
          "name": "",
          "type": "uint256"
        }
      ],
      "stateMutability": "view",
      "type": "function",
      "constant": true
    }
  ],
  "bytecode": "0x60806040523480156200001157600080fd5b506040518060200160405280600081525062000033816200003a60201b60201c565b506200016b565b80600290805190602001906200005292919062000056565b5050565b828054620000649062000106565b90600052602060002090601f016020900481019282620000885760008555620000d4565b82601f10620000a357805160ff1916838001178555620000d4565b82800160010185558215620000d4579182015b82811115620000d3578251825591602001919060010190620000b6565b5b509050620000e39190620000e7565b5090565b5b8082111562000102576000816000905550600101620000e8565b5090565b600060028204905060018216806200011f57607f821691505b602082108114156200013657620001356200013c565b5b50919050565b7f4e487b7100000000000000000000000000000000000000000000000000000000600052602260045260246000fd5b612e32806200017b6000396000f3fe608060405234801561001057600080fd5b50600436106100ff5760003560e01c806367f718a911610097578063d49e2b5911610066578063d49e2b59146102d0578063e985e9c5146102da578063f242432a1461030a578063fa5afe4014610326576100ff565b806367f718a91461024857806378a895671461026657806397492c1c14610284578063a22cb465146102b4576100ff565b80632eb2c2d6116100d35780632eb2c2d6146101b05780633bb3a24d146101cc5780634e1273f4146101fc5780635a9d10a21461022c576100ff565b8062fdd58e1461010457806301ffc9a71461013457806302fe5305146101645780630e89341c14610180575b600080fd5b61011e60048036038101906101199190611e7c565b610342565b60405161012b919061258c565b60405180910390f35b61014e60048036038101906101499190611f73565b61040b565b60405161015b91906123ef565b60405180910390f35b61017e60048036038101906101799190611fc5565b6104ed565b005b61019a60048036038101906101959190612006565b6104f9565b6040516101a7919061240a565b60405180910390f35b6101ca60048036038101906101c59190611cf2565b61058d565b005b6101e660048036038101906101e19190612006565b61062e565b6040516101f3919061240a565b60405180910390f35b61021660048036038101906102119190611f07565b6106d3565b6040516102239190612396565b60405180910390f35b61024660048036038101906102419190611eb8565b610884565b005b610250610915565b60405161025d9190612396565b60405180910390f35b61026e61096d565b60405161027b919061258c565b60405180910390f35b61029e60048036038101906102999190612006565b61097a565b6040516102ab919061258c565b60405180910390f35b6102ce60048036038101906102c99190611e40565b610997565b005b6102d8610b18565b005b6102f460048036038101906102ef9190611cb6565b610b47565b60405161030191906123ef565b60405180910390f35b610324600480360381019061031f9190611db1565b610bdb565b005b610340600480360381019061033b9190611c8d565b610c7c565b005b60008073ffffffffffffffffffffffffffffffffffffffff168373ffffffffffffffffffffffffffffffffffffffff1614156103b3576040517f08c379a00000000000000000000000000000000000000000000000000000000081526004016103aa9061246c565b60405180910390fd5b60008083815260200190815260200160002060008473ffffffffffffffffffffffffffffffffffffffff1673ffffffffffffffffffffffffffffffffffffffff16815260200190815260200160002054905092915050565b60007fd9b67a26000000000000000000000000000000000000000000000000000000007bffffffffffffffffffffffffffffffffffffffffffffffffffffffff1916827bffffffffffffffffffffffffffffffffffffffffffffffffffffffff191614806104d657507f0e89341c000000000000000000000000000000000000000000000000000000007bffffffffffffffffffffffffffffffffffffffffffffffffffffffff1916827bffffffffffffffffffffffffffffffffffffffffffffffffffffffff1916145b806104e657506104e582610cc0565b5b9050919050565b6104f681610d2a565b50565b6060600280546105089061282c565b80601f01602080910402602001604051908101604052809291908181526020018280546105349061282c565b80156105815780601f1061055657610100808354040283529160200191610581565b820191906000526020600020905b81548152906001019060200180831161056457829003601f168201915b50505050509050919050565b610595610d44565b73ffffffffffffffffffffffffffffffffffffffff168573ffffffffffffffffffffffffffffffffffffffff1614806105db57506105da856105d5610d44565b610b47565b5b61061a576040517f08c379a0000000000000000000000000000000000000000000000000000000008152600401610611906124cc565b60405180910390fd5b6106278585858585610d4c565b5050505050565b606060066000838152602001908152602001600020805461064e9061282c565b80601f016020809104026020016040519081016040528092919081815260200182805461067a9061282c565b80156106c75780601f1061069c576101008083540402835291602001916106c7565b820191906000526020600020905b8154815290600101906020018083116106aa57829003601f168201915b50505050509050919050565b60608151835114610719576040517f08c379a00000000000000000000000000000000000000000000000000000000081526004016107109061252c565b60405180910390fd5b6000835167ffffffffffffffff81111561075c577f4e487b7100000000000000000000000000000000000000000000000000000000600052604160045260246000fd5b60405190808252806020026020018201604052801561078a5781602001602082028036833780820191505090505b50905060005b8451811015610879576108238582815181106107d5577f4e487b7100000000000000000000000000000000000000000000000000000000600052603260045260246000fd5b6020026020010151858381518110610816577f4e487b7100000000000000000000000000000000000000000000000000000000600052603260045260246000fd5b6020026020010151610342565b82828151811061085c577f4e487b7100000000000000000000000000000000000000000000000000000000600052603260045260246000fd5b602002602001018181525050806108729061288f565b9050610790565b508091505092915050565b61089f838383604051806020016040528060008152506110ac565b60048290806001815401808255809150506001900390600052602060002001600090919091909150558060056000848152602001908152602001600020819055506108e982611242565b60066000848152602001908152602001600020908051906020019061090f929190611985565b50505050565b6060600480548060200260200160405190810160405280929190818152602001828054801561096357602002820191906000526020600020905b81548152602001906001019080831161094f575b5050505050905090565b6000600480549050905090565b600060056000838152602001908152602001600020549050919050565b8173ffffffffffffffffffffffffffffffffffffffff166109b6610d44565b73ffffffffffffffffffffffffffffffffffffffff161415610a0d576040517f08c379a0000000000000000000000000000000000000000000000000000000008152600401610a049061250c565b60405180910390fd5b8060016000610a1a610d44565b73ffffffffffffffffffffffffffffffffffffffff1673ffffffffffffffffffffffffffffffffffffffff16815260200190815260200160002060008473ffffffffffffffffffffffffffffffffffffffff1673ffffffffffffffffffffffffffffffffffffffff16815260200190815260200160002060006101000a81548160ff0219169083151502179055508173ffffffffffffffffffffffffffffffffffffffff16610ac7610d44565b73ffffffffffffffffffffffffffffffffffffffff167f17307eab39ab6107e8899845ad3d59bd9653f200f220920489ca2b5937696c3183604051610b0c91906123ef565b60405180910390a35050565b610b45600360009054906101000a900473ffffffffffffffffffffffffffffffffffffffff166001610997565b565b6000600160008473ffffffffffffffffffffffffffffffffffffffff1673ffffffffffffffffffffffffffffffffffffffff16815260200190815260200160002060008373ffffffffffffffffffffffffffffffffffffffff1673ffffffffffffffffffffffffffffffffffffffff16815260200190815260200160002060009054906101000a900460ff16905092915050565b610be3610d44565b73ffffffffffffffffffffffffffffffffffffffff168573ffffffffffffffffffffffffffffffffffffffff161480610c295750610c2885610c23610d44565b610b47565b5b610c68576040517f08c379a0000000000000000000000000000000000000000000000000000000008152600401610c5f9061248c565b60405180910390fd5b610c758585858585611254565b5050505050565b80600360006101000a81548173ffffffffffffffffffffffffffffffffffffffff021916908373ffffffffffffffffffffffffffffffffffffffff16021790555050565b60007f01ffc9a7000000000000000000000000000000000000000000000000000000007bffffffffffffffffffffffffffffffffffffffffffffffffffffffff1916827bffffffffffffffffffffffffffffffffffffffffffffffffffffffff1916149050919050565b8060029080519060200190610d40929190611985565b5050565b600033905090565b8151835114610d90576040517f08c379a0000000000000000000000000000000000000000000000000000000008152600401610d879061254c565b60405180910390fd5b600073ffffffffffffffffffffffffffffffffffffffff168473ffffffffffffffffffffffffffffffffffffffff161415610e00576040517f08c379a0000000000000000000000000000000000000000000000000000000008152600401610df7906124ac565b60405180910390fd5b6000610e0a610d44565b9050610e1a8187878787876114d6565b60005b8451811015611017576000858281518110610e61577f4e487b7100000000000000000000000000000000000000000000000000000000600052603260045260246000fd5b602002602001015190506000858381518110610ea6577f4e487b7100000000000000000000000000000000000000000000000000000000600052603260045260246000fd5b60200260200101519050600080600084815260200190815260200160002060008b73ffffffffffffffffffffffffffffffffffffffff1673ffffffffffffffffffffffffffffffffffffffff16815260200190815260200160002054905081811015610f47576040517f08c379a0000000000000000000000000000000000000000000000000000000008152600401610f3e906124ec565b60405180910390fd5b81810360008085815260200190815260200160002060008c73ffffffffffffffffffffffffffffffffffffffff1673ffffffffffffffffffffffffffffffffffffffff168152602001908152602001600020819055508160008085815260200190815260200160002060008b73ffffffffffffffffffffffffffffffffffffffff1673ffffffffffffffffffffffffffffffffffffffff1681526020019081526020016000206000828254610ffc9190612720565b92505081905550505050806110109061288f565b9050610e1d565b508473ffffffffffffffffffffffffffffffffffffffff168673ffffffffffffffffffffffffffffffffffffffff168273ffffffffffffffffffffffffffffffffffffffff167f4a39dc06d4c0dbc64b70af90fd698a233a518aa5d07e595d983b8c0526c8f7fb878760405161108e9291906123b8565b60405180910390a46110a48187878787876114de565b505050505050565b600073ffffffffffffffffffffffffffffffffffffffff168473ffffffffffffffffffffffffffffffffffffffff16141561111c576040517f08c379a00000000000000000000000000000000000000000000000000000000081526004016111139061256c565b60405180910390fd5b6000611126610d44565b905061114781600087611138886116c5565b611141886116c5565b876114d6565b8260008086815260200190815260200160002060008773ffffffffffffffffffffffffffffffffffffffff1673ffffffffffffffffffffffffffffffffffffffff16815260200190815260200160002060008282546111a69190612720565b925050819055508473ffffffffffffffffffffffffffffffffffffffff16600073ffffffffffffffffffffffffffffffffffffffff168273ffffffffffffffffffffffffffffffffffffffff167fc3d58168c5ae7397731d063d5bbf3d657854427343f4c083240f7aacaa2d0f6287876040516112249291906125a7565b60405180910390a461123b8160008787878761178b565b5050505050565b606061124d826104f9565b9050919050565b600073ffffffffffffffffffffffffffffffffffffffff168473ffffffffffffffffffffffffffffffffffffffff1614156112c4576040517f08c379a00000000000000000000000000000000000000000000000000000000081526004016112bb906124ac565b60405180910390fd5b60006112ce610d44565b90506112ee8187876112df886116c5565b6112e8886116c5565b876114d6565b600080600086815260200190815260200160002060008873ffffffffffffffffffffffffffffffffffffffff1673ffffffffffffffffffffffffffffffffffffffff16815260200190815260200160002054905083811015611385576040517f08c379a000000000000000000000000000000000000000000000000000000000815260040161137c906124ec565b60405180910390fd5b83810360008087815260200190815260200160002060008973ffffffffffffffffffffffffffffffffffffffff1673ffffffffffffffffffffffffffffffffffffffff168152602001908152602001600020819055508360008087815260200190815260200160002060008873ffffffffffffffffffffffffffffffffffffffff1673ffffffffffffffffffffffffffffffffffffffff168152602001908152602001600020600082825461143a9190612720565b925050819055508573ffffffffffffffffffffffffffffffffffffffff168773ffffffffffffffffffffffffffffffffffffffff168373ffffffffffffffffffffffffffffffffffffffff167fc3d58168c5ae7397731d063d5bbf3d657854427343f4c083240f7aacaa2d0f6288886040516114b79291906125a7565b60405180910390a46114cd82888888888861178b565b50505050505050565b505050505050565b6114fd8473ffffffffffffffffffffffffffffffffffffffff16611972565b156116bd578373ffffffffffffffffffffffffffffffffffffffff1663bc197c8187878686866040518663ffffffff1660e01b81526004016115439594939291906122d4565b602060405180830381600087803b15801561155d57600080fd5b505af192505050801561158e57506040513d601f19601f8201168201806040525081019061158b9190611f9c565b60015b6116345761159a612965565b806308c379a014156115f757506115af612d0a565b806115ba57506115f9565b806040517f08c379a00000000000000000000000000000000000000000000000000000000081526004016115ee919061240a565b60405180910390fd5b505b6040517f08c379a000000000000000000000000000000000000000000000000000000000815260040161162b9061242c565b60405180910390fd5b63bc197c8160e01b7bffffffffffffffffffffffffffffffffffffffffffffffffffffffff1916817bffffffffffffffffffffffffffffffffffffffffffffffffffffffff1916146116bb576040517f08c379a00000000000000000000000000000000000000000000000000000000081526004016116b29061244c565b60405180910390fd5b505b505050505050565b60606000600167ffffffffffffffff81111561170a577f4e487b7100000000000000000000000000000000000000000000000000000000600052604160045260246000fd5b6040519080825280602002602001820160405280156117385781602001602082028036833780820191505090505b5090508281600081518110611776577f4e487b7100000000000000000000000000000000000000000000000000000000600052603260045260246000fd5b60200260200101818152505080915050919050565b6117aa8473ffffffffffffffffffffffffffffffffffffffff16611972565b1561196a578373ffffffffffffffffffffffffffffffffffffffff1663f23a6e6187878686866040518663ffffffff1660e01b81526004016117f095949392919061233c565b602060405180830381600087803b15801561180a57600080fd5b505af192505050801561183b57506040513d601f19601f820116820180604052508101906118389190611f9c565b60015b6118e157611847612965565b806308c379a014156118a4575061185c612d0a565b8061186757506118a6565b806040517f08c379a000000000000000000000000000000000000000000000000000000000815260040161189b919061240a565b60405180910390fd5b505b6040517f08c379a00000000000000000000000000000000000000000000000000000000081526004016118d89061242c565b60405180910390fd5b63f23a6e6160e01b7bffffffffffffffffffffffffffffffffffffffffffffffffffffffff1916817bffffffffffffffffffffffffffffffffffffffffffffffffffffffff191614611968576040517f08c379a000000000000000000000000000000000000000000000000000000000815260040161195f9061244c565b60405180910390fd5b505b505050505050565b600080823b905060008111915050919050565b8280546119919061282c565b90600052602060002090601f0160209004810192826119b357600085556119fa565b82601f106119cc57805160ff19168380011785556119fa565b828001600101855582156119fa579182015b828111156119f95782518255916020019190600101906119de565b5b509050611a079190611a0b565b5090565b5b80821115611a24576000816000905550600101611a0c565b5090565b6000611a3b611a36846125f5565b6125d0565b90508083825260208201905082856020860282011115611a5a57600080fd5b60005b85811015611a8a5781611a708882611b7c565b845260208401935060208301925050600181019050611a5d565b5050509392505050565b6000611aa7611aa284612621565b6125d0565b90508083825260208201905082856020860282011115611ac657600080fd5b60005b85811015611af65781611adc8882611c78565b845260208401935060208301925050600181019050611ac9565b5050509392505050565b6000611b13611b0e8461264d565b6125d0565b905082815260208101848484011115611b2b57600080fd5b611b368482856127ea565b509392505050565b6000611b51611b4c8461267e565b6125d0565b905082815260208101848484011115611b6957600080fd5b611b748482856127ea565b509392505050565b600081359050611b8b81612da0565b92915050565b600082601f830112611ba257600080fd5b8135611bb2848260208601611a28565b91505092915050565b600082601f830112611bcc57600080fd5b8135611bdc848260208601611a94565b91505092915050565b600081359050611bf481612db7565b92915050565b600081359050611c0981612dce565b92915050565b600081519050611c1e81612dce565b92915050565b600082601f830112611c3557600080fd5b8135611c45848260208601611b00565b91505092915050565b600082601f830112611c5f57600080fd5b8135611c6f848260208601611b3e565b91505092915050565b600081359050611c8781612de5565b92915050565b600060208284031215611c9f57600080fd5b6000611cad84828501611b7c565b91505092915050565b60008060408385031215611cc957600080fd5b6000611cd785828601611b7c565b9250506020611ce885828601611b7c565b9150509250929050565b600080600080600060a08688031215611d0a57600080fd5b6000611d1888828901611b7c565b9550506020611d2988828901611b7c565b945050604086013567ffffffffffffffff811115611d4657600080fd5b611d5288828901611bbb565b935050606086013567ffffffffffffffff811115611d6f57600080fd5b611d7b88828901611bbb565b925050608086013567ffffffffffffffff811115611d9857600080fd5b611da488828901611c24565b9150509295509295909350565b600080600080600060a08688031215611dc957600080fd5b6000611dd788828901611b7c565b9550506020611de888828901611b7c565b9450506040611df988828901611c78565b9350506060611e0a88828901611c78565b925050608086013567ffffffffffffffff811115611e2757600080fd5b611e3388828901611c24565b9150509295509295909350565b60008060408385031215611e5357600080fd5b6000611e6185828601611b7c565b9250506020611e7285828601611be5565b9150509250929050565b60008060408385031215611e8f57600080fd5b6000611e9d85828601611b7c565b9250506020611eae85828601611c78565b9150509250929050565b600080600060608486031215611ecd57600080fd5b6000611edb86828701611b7c565b9350506020611eec86828701611c78565b9250506040611efd86828701611c78565b9150509250925092565b60008060408385031215611f1a57600080fd5b600083013567ffffffffffffffff811115611f3457600080fd5b611f4085828601611b91565b925050602083013567ffffffffffffffff811115611f5d57600080fd5b611f6985828601611bbb565b9150509250929050565b600060208284031215611f8557600080fd5b6000611f9384828501611bfa565b91505092915050565b600060208284031215611fae57600080fd5b6000611fbc84828501611c0f565b91505092915050565b600060208284031215611fd757600080fd5b600082013567ffffffffffffffff811115611ff157600080fd5b611ffd84828501611c4e565b91505092915050565b60006020828403121561201857600080fd5b600061202684828501611c78565b91505092915050565b600061203b83836122b6565b60208301905092915050565b61205081612776565b82525050565b6000612061826126bf565b61206b81856126ed565b9350612076836126af565b8060005b838110156120a757815161208e888261202f565b9750612099836126e0565b92505060018101905061207a565b5085935050505092915050565b6120bd81612788565b82525050565b60006120ce826126ca565b6120d881856126fe565b93506120e88185602086016127f9565b6120f181612987565b840191505092915050565b6000612107826126d5565b612111818561270f565b93506121218185602086016127f9565b61212a81612987565b840191505092915050565b600061214260348361270f565b915061214d826129a5565b604082019050919050565b600061216560288361270f565b9150612170826129f4565b604082019050919050565b6000612188602b8361270f565b915061219382612a43565b604082019050919050565b60006121ab60298361270f565b91506121b682612a92565b604082019050919050565b60006121ce60258361270f565b91506121d982612ae1565b604082019050919050565b60006121f160328361270f565b91506121fc82612b30565b604082019050919050565b6000612214602a8361270f565b915061221f82612b7f565b604082019050919050565b600061223760298361270f565b915061224282612bce565b604082019050919050565b600061225a60298361270f565b915061226582612c1d565b604082019050919050565b600061227d60288361270f565b915061228882612c6c565b604082019050919050565b60006122a060218361270f565b91506122ab82612cbb565b604082019050919050565b6122bf816127e0565b82525050565b6122ce816127e0565b82525050565b600060a0820190506122e96000830188612047565b6122f66020830187612047565b81810360408301526123088186612056565b9050818103606083015261231c8185612056565b9050818103608083015261233081846120c3565b90509695505050505050565b600060a0820190506123516000830188612047565b61235e6020830187612047565b61236b60408301866122c5565b61237860608301856122c5565b818103608083015261238a81846120c3565b90509695505050505050565b600060208201905081810360008301526123b08184612056565b905092915050565b600060408201905081810360008301526123d28185612056565b905081810360208301526123e68184612056565b90509392505050565b600060208201905061240460008301846120b4565b92915050565b6000602082019050818103600083015261242481846120fc565b905092915050565b6000602082019050818103600083015261244581612135565b9050919050565b6000602082019050818103600083015261246581612158565b9050919050565b600060208201905081810360008301526124858161217b565b9050919050565b600060208201905081810360008301526124a58161219e565b9050919050565b600060208201905081810360008301526124c5816121c1565b9050919050565b600060208201905081810360008301526124e5816121e4565b9050919050565b6000602082019050818103600083015261250581612207565b9050919050565b600060208201905081810360008301526125258161222a565b9050919050565b600060208201905081810360008301526125458161224d565b9050919050565b6000602082019050818103600083015261256581612270565b9050919050565b6000602082019050818103600083015261258581612293565b9050919050565b60006020820190506125a160008301846122c5565b92915050565b60006040820190506125bc60008301856122c5565b6125c960208301846122c5565b9392505050565b60006125da6125eb565b90506125e6828261285e565b919050565b6000604051905090565b600067ffffffffffffffff8211156126105761260f612936565b5b602082029050602081019050919050565b600067ffffffffffffffff82111561263c5761263b612936565b5b602082029050602081019050919050565b600067ffffffffffffffff82111561266857612667612936565b5b61267182612987565b9050602081019050919050565b600067ffffffffffffffff82111561269957612698612936565b5b6126a282612987565b9050602081019050919050565b6000819050602082019050919050565b600081519050919050565b600081519050919050565b600081519050919050565b6000602082019050919050565b600082825260208201905092915050565b600082825260208201905092915050565b600082825260208201905092915050565b600061272b826127e0565b9150612736836127e0565b9250827fffffffffffffffffffffffffffffffffffffffffffffffffffffffffffffffff0382111561276b5761276a6128d8565b5b828201905092915050565b6000612781826127c0565b9050919050565b60008115159050919050565b60007fffffffff0000000000000000000000000000000000000000000000000000000082169050919050565b600073ffffffffffffffffffffffffffffffffffffffff82169050919050565b6000819050919050565b82818337600083830152505050565b60005b838110156128175780820151818401526020810190506127fc565b83811115612826576000848401525b50505050565b6000600282049050600182168061284457607f821691505b6020821081141561285857612857612907565b5b50919050565b61286782612987565b810181811067ffffffffffffffff8211171561288657612885612936565b5b80604052505050565b600061289a826127e0565b91507fffffffffffffffffffffffffffffffffffffffffffffffffffffffffffffffff8214156128cd576128cc6128d8565b5b600182019050919050565b7f4e487b7100000000000000000000000000000000000000000000000000000000600052601160045260246000fd5b7f4e487b7100000000000000000000000000000000000000000000000000000000600052602260045260246000fd5b7f4e487b7100000000000000000000000000000000000000000000000000000000600052604160045260246000fd5b600060033d11156129845760046000803e612981600051612998565b90505b90565b6000601f19601f8301169050919050565b60008160e01c9050919050565b7f455243313135353a207472616e7366657220746f206e6f6e204552433131353560008201527f526563656976657220696d706c656d656e746572000000000000000000000000602082015250565b7f455243313135353a204552433131353552656365697665722072656a6563746560008201527f6420746f6b656e73000000000000000000000000000000000000000000000000602082015250565b7f455243313135353a2062616c616e636520717565727920666f7220746865207a60008201527f65726f2061646472657373000000000000000000000000000000000000000000602082015250565b7f455243313135353a2063616c6c6572206973206e6f74206f776e6572206e6f7260008201527f20617070726f7665640000000000000000000000000000000000000000000000602082015250565b7f455243313135353a207472616e7366657220746f20746865207a65726f20616460008201527f6472657373000000000000000000000000000000000000000000000000000000602082015250565b7f455243313135353a207472616e736665722063616c6c6572206973206e6f742060008201527f6f776e6572206e6f7220617070726f7665640000000000000000000000000000602082015250565b7f455243313135353a20696e73756666696369656e742062616c616e636520666f60008201527f72207472616e7366657200000000000000000000000000000000000000000000602082015250565b7f455243313135353a2073657474696e6720617070726f76616c2073746174757360008201527f20666f722073656c660000000000000000000000000000000000000000000000602082015250565b7f455243313135353a206163636f756e747320616e6420696473206c656e67746860008201527f206d69736d617463680000000000000000000000000000000000000000000000602082015250565b7f455243313135353a2069647320616e6420616d6f756e7473206c656e6774682060008201527f6d69736d61746368000000000000000000000000000000000000000000000000602082015250565b7f455243313135353a206d696e7420746f20746865207a65726f2061646472657360008201527f7300000000000000000000000000000000000000000000000000000000000000602082015250565b600060443d1015612d1a57612d9d565b612d226125eb565b60043d036004823e80513d602482011167ffffffffffffffff82111715612d4a575050612d9d565b808201805167ffffffffffffffff811115612d685750505050612d9d565b80602083010160043d038501811115612d85575050505050612d9d565b612d948260200185018661285e565b82955050505050505b90565b612da981612776565b8114612db457600080fd5b50565b612dc081612788565b8114612dcb57600080fd5b50565b612dd781612794565b8114612de257600080fd5b50565b612dee816127e0565b8114612df957600080fd5b5056fea26469706673582212206827d8f391fac62d1b62b58d26af64f33b62de522cbeafd0b7e9b1988fac023a64736f6c63430008030033",
  "immutableReferences": {},
  "source": "pragma solidity ^0.8.3;\r\n//\"SPDX-License-Identifier: UNLICENSED\"\r\n\r\nimport \"@openzeppelin/contracts/token/ERC1155/ERC1155.sol\";\r\nimport \"@openzeppelin/contracts/token/ERC1155/utils/ERC1155Receiver.sol\";\r\n\r\n\r\ncontract ACHouseToken1155 is ERC1155 {\r\n    address parentAddress;\r\n\r\n    uint256[] tokensIdscreated;\r\n\r\n    //to track supply of each token via id => total\r\n    mapping(uint256 => uint256) private _totalSupply;\r\n\r\n    mapping (uint256 => string) private _tokenURIString;\r\n    \r\n    constructor() ERC1155(\"\") {}\r\n    \r\n    \r\n    function setParentAddress(address _address) public {\r\n        parentAddress = _address;\r\n    }\r\n\r\n    function setURI(string memory newuri) public {\r\n        _setURI(newuri);\r\n    }\r\n\r\n    function getURI(uint256 _tokenId) private view returns(string memory){\r\n        return uri(_tokenId);\r\n    }\r\n\r\n    function getTokenURI(uint256 _tokenId) public view returns(string memory) {\r\n        return _tokenURIString[_tokenId];\r\n    }\r\n\r\n    function setParentApproval() public {\r\n        //apprvove parent contract to handle tokens and transactions.\r\n        setApprovalForAll(parentAddress, true);\r\n    }\r\n\r\n    function mintNFT(address _ownerAddress, uint256 _id, uint256 amount ) public {\r\n       // using erc 1155 to creat NFT\r\n       // mint will create NFT and send it to the address. IF address is parent contract then it will throw error unless IERC1155Receiver.onERC1155BatchReceived is implemented. \r\n\r\n       _mint(_ownerAddress, _id, amount, \"\"); \r\n       tokensIdscreated.push(_id);\r\n\r\n       _totalSupply[_id] = amount;\r\n\r\n       _tokenURIString[_id] = getURI(_id); \r\n\r\n    }\r\n    \r\n    //get tokens totalnumber. \r\n    function getTokenCount() public view returns (uint256) {\r\n        return tokensIdscreated.length;\r\n    }\r\n    //returns the array of all tokenids. \r\n    function getTokenIds() public  view returns ( uint256[] memory) {\r\n        return tokensIdscreated;\r\n    }\r\n\r\n    function getTotalSupplyOfToken(uint256 _id) public view returns(uint256) {\r\n        return _totalSupply[_id];\r\n    }\r\n    \r\n    // function onERC1155Received( address operator, address from,uint256 id, uint256 value, bytes calldata data) override pure external returns (bytes4){\r\n    //     // TransferSingle.emit(operator, from, , id, value);\r\n    //     return bytes4(keccak256(\"onERC1155Received(address,address,uint256,uint256,bytes)\"));\r\n    // }\r\n    \r\n    // function onERC1155BatchReceived( address operator, address from, uint256[] calldata ids, uint256[] calldata values, bytes calldata data ) override pure external returns (bytes4){\r\n    //     return bytes4(keccak256(\"onERC1155BatchReceived(address,address,uint256[],uint256[],bytes)\"));\r\n    // }\r\n \r\n\r\n}\r\n\r\n\r\n    /**\r\n    public functions available through implementation of ERC1155\r\n    -supportsInterface\r\n    -uri - get the current set uri\r\n    -balanceOf\r\n    -balanceBatch\r\n    -setApprovalForAll\r\n    -isApprovedForAll\r\n    -safeTransferFrom\r\n    -safeBatchTransferFrom\r\n\r\n     */ ",
  "sourcePath": "C:/Users/sendm/OneDrive/Desktop/HeartDrops/contracts/ACHouseToken1155.sol",
  "compiler": {
    "name": "solc",
    "version": "0.8.3+commit.8d00100c.Emscripten.clang"
  },
  "schemaVersion": "3.4.1",
  "updatedAt": "2021-10-08T21:42:52.448Z",
  "networkType": "ethereum",
  "devdoc": {
    "kind": "dev",
    "methods": {
      "balanceOf(address,uint256)": {
        "details": "See {IERC1155-balanceOf}. Requirements: - `account` cannot be the zero address."
      },
      "balanceOfBatch(address[],uint256[])": {
        "details": "See {IERC1155-balanceOfBatch}. Requirements: - `accounts` and `ids` must have the same length."
      },
      "isApprovedForAll(address,address)": {
        "details": "See {IERC1155-isApprovedForAll}."
      },
      "safeBatchTransferFrom(address,address,uint256[],uint256[],bytes)": {
        "details": "See {IERC1155-safeBatchTransferFrom}."
      },
      "safeTransferFrom(address,address,uint256,uint256,bytes)": {
        "details": "See {IERC1155-safeTransferFrom}."
      },
      "setApprovalForAll(address,bool)": {
        "details": "See {IERC1155-setApprovalForAll}."
      },
      "supportsInterface(bytes4)": {
        "details": "See {IERC165-supportsInterface}."
      },
      "uri(uint256)": {
        "details": "See {IERC1155MetadataURI-uri}. This implementation returns the same URI for *all* token types. It relies on the token type ID substitution mechanism https://eips.ethereum.org/EIPS/eip-1155#metadata[defined in the EIP]. Clients calling this function must replace the `\\{id\\}` substring with the actual token type ID."
      }
    },
    "version": 1
  },
  "userdoc": {
    "kind": "user",
    "methods": {},
    "version": 1
  }
}