{
  "contractName": "ACHouseToken1155",
  "abi": [
    {
      "inputs": [],
      "stateMutability": "nonpayable",
      "type": "constructor"
    },
    {
      "anonymous": false,
      "inputs": [
        {
          "indexed": true,
          "internalType": "address",
          "name": "account",
          "type": "address"
        },
        {
          "indexed": true,
          "internalType": "address",
          "name": "operator",
          "type": "address"
        },
        {
          "indexed": false,
          "internalType": "bool",
          "name": "approved",
          "type": "bool"
        }
      ],
      "name": "ApprovalForAll",
      "type": "event"
    },
    {
      "anonymous": false,
      "inputs": [
        {
          "indexed": true,
          "internalType": "address",
          "name": "operator",
          "type": "address"
        },
        {
          "indexed": true,
          "internalType": "address",
          "name": "from",
          "type": "address"
        },
        {
          "indexed": true,
          "internalType": "address",
          "name": "to",
          "type": "address"
        },
        {
          "indexed": false,
          "internalType": "uint256[]",
          "name": "ids",
          "type": "uint256[]"
        },
        {
          "indexed": false,
          "internalType": "uint256[]",
          "name": "values",
          "type": "uint256[]"
        }
      ],
      "name": "TransferBatch",
      "type": "event"
    },
    {
      "anonymous": false,
      "inputs": [
        {
          "indexed": true,
          "internalType": "address",
          "name": "operator",
          "type": "address"
        },
        {
          "indexed": true,
          "internalType": "address",
          "name": "from",
          "type": "address"
        },
        {
          "indexed": true,
          "internalType": "address",
          "name": "to",
          "type": "address"
        },
        {
          "indexed": false,
          "internalType": "uint256",
          "name": "id",
          "type": "uint256"
        },
        {
          "indexed": false,
          "internalType": "uint256",
          "name": "value",
          "type": "uint256"
        }
      ],
      "name": "TransferSingle",
      "type": "event"
    },
    {
      "anonymous": false,
      "inputs": [
        {
          "indexed": false,
          "internalType": "string",
          "name": "value",
          "type": "string"
        },
        {
          "indexed": true,
          "internalType": "uint256",
          "name": "id",
          "type": "uint256"
        }
      ],
      "name": "URI",
      "type": "event"
    },
    {
      "inputs": [
        {
          "internalType": "address",
          "name": "account",
          "type": "address"
        },
        {
          "internalType": "uint256",
          "name": "id",
          "type": "uint256"
        }
      ],
      "name": "balanceOf",
      "outputs": [
        {
          "internalType": "uint256",
          "name": "",
          "type": "uint256"
        }
      ],
      "stateMutability": "view",
      "type": "function"
    },
    {
      "inputs": [
        {
          "internalType": "address[]",
          "name": "accounts",
          "type": "address[]"
        },
        {
          "internalType": "uint256[]",
          "name": "ids",
          "type": "uint256[]"
        }
      ],
      "name": "balanceOfBatch",
      "outputs": [
        {
          "internalType": "uint256[]",
          "name": "",
          "type": "uint256[]"
        }
      ],
      "stateMutability": "view",
      "type": "function"
    },
    {
      "inputs": [
        {
          "internalType": "address",
          "name": "account",
          "type": "address"
        },
        {
          "internalType": "address",
          "name": "operator",
          "type": "address"
        }
      ],
      "name": "isApprovedForAll",
      "outputs": [
        {
          "internalType": "bool",
          "name": "",
          "type": "bool"
        }
      ],
      "stateMutability": "view",
      "type": "function"
    },
    {
      "inputs": [
        {
          "internalType": "address",
          "name": "from",
          "type": "address"
        },
        {
          "internalType": "address",
          "name": "to",
          "type": "address"
        },
        {
          "internalType": "uint256[]",
          "name": "ids",
          "type": "uint256[]"
        },
        {
          "internalType": "uint256[]",
          "name": "amounts",
          "type": "uint256[]"
        },
        {
          "internalType": "bytes",
          "name": "data",
          "type": "bytes"
        }
      ],
      "name": "safeBatchTransferFrom",
      "outputs": [],
      "stateMutability": "nonpayable",
      "type": "function"
    },
    {
      "inputs": [
        {
          "internalType": "address",
          "name": "from",
          "type": "address"
        },
        {
          "internalType": "address",
          "name": "to",
          "type": "address"
        },
        {
          "internalType": "uint256",
          "name": "id",
          "type": "uint256"
        },
        {
          "internalType": "uint256",
          "name": "amount",
          "type": "uint256"
        },
        {
          "internalType": "bytes",
          "name": "data",
          "type": "bytes"
        }
      ],
      "name": "safeTransferFrom",
      "outputs": [],
      "stateMutability": "nonpayable",
      "type": "function"
    },
    {
      "inputs": [
        {
          "internalType": "address",
          "name": "operator",
          "type": "address"
        },
        {
          "internalType": "bool",
          "name": "approved",
          "type": "bool"
        }
      ],
      "name": "setApprovalForAll",
      "outputs": [],
      "stateMutability": "nonpayable",
      "type": "function"
    },
    {
      "inputs": [
        {
          "internalType": "bytes4",
          "name": "interfaceId",
          "type": "bytes4"
        }
      ],
      "name": "supportsInterface",
      "outputs": [
        {
          "internalType": "bool",
          "name": "",
          "type": "bool"
        }
      ],
      "stateMutability": "view",
      "type": "function"
    },
    {
      "inputs": [
        {
          "internalType": "uint256",
          "name": "",
          "type": "uint256"
        }
      ],
      "name": "uri",
      "outputs": [
        {
          "internalType": "string",
          "name": "",
          "type": "string"
        }
      ],
      "stateMutability": "view",
      "type": "function"
    },
    {
      "inputs": [
        {
          "internalType": "address",
          "name": "_address",
          "type": "address"
        }
      ],
      "name": "setParentAddress",
      "outputs": [],
      "stateMutability": "nonpayable",
      "type": "function"
    },
    {
      "inputs": [
        {
          "internalType": "address",
          "name": "_ownerAddress",
          "type": "address"
        },
        {
          "internalType": "string",
          "name": "_uri",
          "type": "string"
        },
        {
          "internalType": "uint256",
          "name": "_id",
          "type": "uint256"
        }
      ],
      "name": "mintNFT",
      "outputs": [],
      "stateMutability": "nonpayable",
      "type": "function"
    }
  ],
  "bytecode": "0x60806040523480156200001157600080fd5b506040518060200160405280600081525062000033816200003a60201b60201c565b506200016b565b80600290805190602001906200005292919062000056565b5050565b828054620000649062000106565b90600052602060002090601f016020900481019282620000885760008555620000d4565b82601f10620000a357805160ff1916838001178555620000d4565b82800160010185558215620000d4579182015b82811115620000d3578251825591602001919060010190620000b6565b5b509050620000e39190620000e7565b5090565b5b8082111562000102576000816000905550600101620000e8565b5090565b600060028204905060018216806200011f57607f821691505b602082108114156200013657620001356200013c565b5b50919050565b7f4e487b7100000000000000000000000000000000000000000000000000000000600052602260045260246000fd5b612b0a806200017b6000396000f3fe608060405234801561001057600080fd5b506004361061009d5760003560e01c80634e1273f4116100665780634e1273f41461016a578063a22cb4651461019a578063e985e9c5146101b6578063f242432a146101e6578063fa5afe40146102025761009d565b8062fdd58e146100a257806301ffc9a7146100d257806308598df0146101025780630e89341c1461011e5780632eb2c2d61461014e575b600080fd5b6100bc60048036038101906100b79190611be4565b61021e565b6040516100c99190612264565b60405180910390f35b6100ec60048036038101906100e79190611c8c565b6102e7565b6040516100f991906120c7565b60405180910390f35b61011c60048036038101906101179190611b7d565b6103c9565b005b61013860048036038101906101339190611cde565b6103f3565b60405161014591906120e2565b60405180910390f35b610168600480360381019061016391906119f3565b610487565b005b610184600480360381019061017f9190611c20565b610528565b604051610191919061206e565b60405180910390f35b6101b460048036038101906101af9190611b41565b6106d9565b005b6101d060048036038101906101cb91906119b7565b61085a565b6040516101dd91906120c7565b60405180910390f35b61020060048036038101906101fb9190611ab2565b6108ee565b005b61021c6004803603810190610217919061198e565b61098f565b005b60008073ffffffffffffffffffffffffffffffffffffffff168373ffffffffffffffffffffffffffffffffffffffff16141561028f576040517f08c379a000000000000000000000000000000000000000000000000000000000815260040161028690612144565b60405180910390fd5b60008083815260200190815260200160002060008473ffffffffffffffffffffffffffffffffffffffff1673ffffffffffffffffffffffffffffffffffffffff16815260200190815260200160002054905092915050565b60007fd9b67a26000000000000000000000000000000000000000000000000000000007bffffffffffffffffffffffffffffffffffffffffffffffffffffffff1916827bffffffffffffffffffffffffffffffffffffffffffffffffffffffff191614806103b257507f0e89341c000000000000000000000000000000000000000000000000000000007bffffffffffffffffffffffffffffffffffffffffffffffffffffffff1916827bffffffffffffffffffffffffffffffffffffffffffffffffffffffff1916145b806103c257506103c1826109d3565b5b9050919050565b6103d282610a3d565b6103ee8382600160405180602001604052806000815250610a57565b505050565b60606002805461040290612504565b80601f016020809104026020016040519081016040528092919081815260200182805461042e90612504565b801561047b5780601f106104505761010080835404028352916020019161047b565b820191906000526020600020905b81548152906001019060200180831161045e57829003601f168201915b50505050509050919050565b61048f610bed565b73ffffffffffffffffffffffffffffffffffffffff168573ffffffffffffffffffffffffffffffffffffffff1614806104d557506104d4856104cf610bed565b61085a565b5b610514576040517f08c379a000000000000000000000000000000000000000000000000000000000815260040161050b906121a4565b60405180910390fd5b6105218585858585610bf5565b5050505050565b6060815183511461056e576040517f08c379a000000000000000000000000000000000000000000000000000000000815260040161056590612204565b60405180910390fd5b6000835167ffffffffffffffff8111156105b1577f4e487b7100000000000000000000000000000000000000000000000000000000600052604160045260246000fd5b6040519080825280602002602001820160405280156105df5781602001602082028036833780820191505090505b50905060005b84518110156106ce5761067885828151811061062a577f4e487b7100000000000000000000000000000000000000000000000000000000600052603260045260246000fd5b602002602001015185838151811061066b577f4e487b7100000000000000000000000000000000000000000000000000000000600052603260045260246000fd5b602002602001015161021e565b8282815181106106b1577f4e487b7100000000000000000000000000000000000000000000000000000000600052603260045260246000fd5b602002602001018181525050806106c790612567565b90506105e5565b508091505092915050565b8173ffffffffffffffffffffffffffffffffffffffff166106f8610bed565b73ffffffffffffffffffffffffffffffffffffffff16141561074f576040517f08c379a0000000000000000000000000000000000000000000000000000000008152600401610746906121e4565b60405180910390fd5b806001600061075c610bed565b73ffffffffffffffffffffffffffffffffffffffff1673ffffffffffffffffffffffffffffffffffffffff16815260200190815260200160002060008473ffffffffffffffffffffffffffffffffffffffff1673ffffffffffffffffffffffffffffffffffffffff16815260200190815260200160002060006101000a81548160ff0219169083151502179055508173ffffffffffffffffffffffffffffffffffffffff16610809610bed565b73ffffffffffffffffffffffffffffffffffffffff167f17307eab39ab6107e8899845ad3d59bd9653f200f220920489ca2b5937696c318360405161084e91906120c7565b60405180910390a35050565b6000600160008473ffffffffffffffffffffffffffffffffffffffff1673ffffffffffffffffffffffffffffffffffffffff16815260200190815260200160002060008373ffffffffffffffffffffffffffffffffffffffff1673ffffffffffffffffffffffffffffffffffffffff16815260200190815260200160002060009054906101000a900460ff16905092915050565b6108f6610bed565b73ffffffffffffffffffffffffffffffffffffffff168573ffffffffffffffffffffffffffffffffffffffff16148061093c575061093b85610936610bed565b61085a565b5b61097b576040517f08c379a000000000000000000000000000000000000000000000000000000000815260040161097290612164565b60405180910390fd5b6109888585858585610f55565b5050505050565b80600360006101000a81548173ffffffffffffffffffffffffffffffffffffffff021916908373ffffffffffffffffffffffffffffffffffffffff16021790555050565b60007f01ffc9a7000000000000000000000000000000000000000000000000000000007bffffffffffffffffffffffffffffffffffffffffffffffffffffffff1916827bffffffffffffffffffffffffffffffffffffffffffffffffffffffff1916149050919050565b8060029080519060200190610a53929190611686565b5050565b600073ffffffffffffffffffffffffffffffffffffffff168473ffffffffffffffffffffffffffffffffffffffff161415610ac7576040517f08c379a0000000000000000000000000000000000000000000000000000000008152600401610abe90612244565b60405180910390fd5b6000610ad1610bed565b9050610af281600087610ae3886111d7565b610aec886111d7565b8761129d565b8260008086815260200190815260200160002060008773ffffffffffffffffffffffffffffffffffffffff1673ffffffffffffffffffffffffffffffffffffffff1681526020019081526020016000206000828254610b5191906123f8565b925050819055508473ffffffffffffffffffffffffffffffffffffffff16600073ffffffffffffffffffffffffffffffffffffffff168273ffffffffffffffffffffffffffffffffffffffff167fc3d58168c5ae7397731d063d5bbf3d657854427343f4c083240f7aacaa2d0f628787604051610bcf92919061227f565b60405180910390a4610be6816000878787876112a5565b5050505050565b600033905090565b8151835114610c39576040517f08c379a0000000000000000000000000000000000000000000000000000000008152600401610c3090612224565b60405180910390fd5b600073ffffffffffffffffffffffffffffffffffffffff168473ffffffffffffffffffffffffffffffffffffffff161415610ca9576040517f08c379a0000000000000000000000000000000000000000000000000000000008152600401610ca090612184565b60405180910390fd5b6000610cb3610bed565b9050610cc381878787878761129d565b60005b8451811015610ec0576000858281518110610d0a577f4e487b7100000000000000000000000000000000000000000000000000000000600052603260045260246000fd5b602002602001015190506000858381518110610d4f577f4e487b7100000000000000000000000000000000000000000000000000000000600052603260045260246000fd5b60200260200101519050600080600084815260200190815260200160002060008b73ffffffffffffffffffffffffffffffffffffffff1673ffffffffffffffffffffffffffffffffffffffff16815260200190815260200160002054905081811015610df0576040517f08c379a0000000000000000000000000000000000000000000000000000000008152600401610de7906121c4565b60405180910390fd5b81810360008085815260200190815260200160002060008c73ffffffffffffffffffffffffffffffffffffffff1673ffffffffffffffffffffffffffffffffffffffff168152602001908152602001600020819055508160008085815260200190815260200160002060008b73ffffffffffffffffffffffffffffffffffffffff1673ffffffffffffffffffffffffffffffffffffffff1681526020019081526020016000206000828254610ea591906123f8565b9250508190555050505080610eb990612567565b9050610cc6565b508473ffffffffffffffffffffffffffffffffffffffff168673ffffffffffffffffffffffffffffffffffffffff168273ffffffffffffffffffffffffffffffffffffffff167f4a39dc06d4c0dbc64b70af90fd698a233a518aa5d07e595d983b8c0526c8f7fb8787604051610f37929190612090565b60405180910390a4610f4d81878787878761148c565b505050505050565b600073ffffffffffffffffffffffffffffffffffffffff168473ffffffffffffffffffffffffffffffffffffffff161415610fc5576040517f08c379a0000000000000000000000000000000000000000000000000000000008152600401610fbc90612184565b60405180910390fd5b6000610fcf610bed565b9050610fef818787610fe0886111d7565b610fe9886111d7565b8761129d565b600080600086815260200190815260200160002060008873ffffffffffffffffffffffffffffffffffffffff1673ffffffffffffffffffffffffffffffffffffffff16815260200190815260200160002054905083811015611086576040517f08c379a000000000000000000000000000000000000000000000000000000000815260040161107d906121c4565b60405180910390fd5b83810360008087815260200190815260200160002060008973ffffffffffffffffffffffffffffffffffffffff1673ffffffffffffffffffffffffffffffffffffffff168152602001908152602001600020819055508360008087815260200190815260200160002060008873ffffffffffffffffffffffffffffffffffffffff1673ffffffffffffffffffffffffffffffffffffffff168152602001908152602001600020600082825461113b91906123f8565b925050819055508573ffffffffffffffffffffffffffffffffffffffff168773ffffffffffffffffffffffffffffffffffffffff168373ffffffffffffffffffffffffffffffffffffffff167fc3d58168c5ae7397731d063d5bbf3d657854427343f4c083240f7aacaa2d0f6288886040516111b892919061227f565b60405180910390a46111ce8288888888886112a5565b50505050505050565b60606000600167ffffffffffffffff81111561121c577f4e487b7100000000000000000000000000000000000000000000000000000000600052604160045260246000fd5b60405190808252806020026020018201604052801561124a5781602001602082028036833780820191505090505b5090508281600081518110611288577f4e487b7100000000000000000000000000000000000000000000000000000000600052603260045260246000fd5b60200260200101818152505080915050919050565b505050505050565b6112c48473ffffffffffffffffffffffffffffffffffffffff16611673565b15611484578373ffffffffffffffffffffffffffffffffffffffff1663f23a6e6187878686866040518663ffffffff1660e01b815260040161130a959493929190612014565b602060405180830381600087803b15801561132457600080fd5b505af192505050801561135557506040513d601f19601f820116820180604052508101906113529190611cb5565b60015b6113fb5761136161263d565b806308c379a014156113be57506113766129e2565b8061138157506113c0565b806040517f08c379a00000000000000000000000000000000000000000000000000000000081526004016113b591906120e2565b60405180910390fd5b505b6040517f08c379a00000000000000000000000000000000000000000000000000000000081526004016113f290612104565b60405180910390fd5b63f23a6e6160e01b7bffffffffffffffffffffffffffffffffffffffffffffffffffffffff1916817bffffffffffffffffffffffffffffffffffffffffffffffffffffffff191614611482576040517f08c379a000000000000000000000000000000000000000000000000000000000815260040161147990612124565b60405180910390fd5b505b505050505050565b6114ab8473ffffffffffffffffffffffffffffffffffffffff16611673565b1561166b578373ffffffffffffffffffffffffffffffffffffffff1663bc197c8187878686866040518663ffffffff1660e01b81526004016114f1959493929190611fac565b602060405180830381600087803b15801561150b57600080fd5b505af192505050801561153c57506040513d601f19601f820116820180604052508101906115399190611cb5565b60015b6115e25761154861263d565b806308c379a014156115a5575061155d6129e2565b8061156857506115a7565b806040517f08c379a000000000000000000000000000000000000000000000000000000000815260040161159c91906120e2565b60405180910390fd5b505b6040517f08c379a00000000000000000000000000000000000000000000000000000000081526004016115d990612104565b60405180910390fd5b63bc197c8160e01b7bffffffffffffffffffffffffffffffffffffffffffffffffffffffff1916817bffffffffffffffffffffffffffffffffffffffffffffffffffffffff191614611669576040517f08c379a000000000000000000000000000000000000000000000000000000000815260040161166090612124565b60405180910390fd5b505b505050505050565b600080823b905060008111915050919050565b82805461169290612504565b90600052602060002090601f0160209004810192826116b457600085556116fb565b82601f106116cd57805160ff19168380011785556116fb565b828001600101855582156116fb579182015b828111156116fa5782518255916020019190600101906116df565b5b509050611708919061170c565b5090565b5b8082111561172557600081600090555060010161170d565b5090565b600061173c611737846122cd565b6122a8565b9050808382526020820190508285602086028201111561175b57600080fd5b60005b8581101561178b5781611771888261187d565b84526020840193506020830192505060018101905061175e565b5050509392505050565b60006117a86117a3846122f9565b6122a8565b905080838252602082019050828560208602820111156117c757600080fd5b60005b858110156117f757816117dd8882611979565b8452602084019350602083019250506001810190506117ca565b5050509392505050565b600061181461180f84612325565b6122a8565b90508281526020810184848401111561182c57600080fd5b6118378482856124c2565b509392505050565b600061185261184d84612356565b6122a8565b90508281526020810184848401111561186a57600080fd5b6118758482856124c2565b509392505050565b60008135905061188c81612a78565b92915050565b600082601f8301126118a357600080fd5b81356118b3848260208601611729565b91505092915050565b600082601f8301126118cd57600080fd5b81356118dd848260208601611795565b91505092915050565b6000813590506118f581612a8f565b92915050565b60008135905061190a81612aa6565b92915050565b60008151905061191f81612aa6565b92915050565b600082601f83011261193657600080fd5b8135611946848260208601611801565b91505092915050565b600082601f83011261196057600080fd5b813561197084826020860161183f565b91505092915050565b60008135905061198881612abd565b92915050565b6000602082840312156119a057600080fd5b60006119ae8482850161187d565b91505092915050565b600080604083850312156119ca57600080fd5b60006119d88582860161187d565b92505060206119e98582860161187d565b9150509250929050565b600080600080600060a08688031215611a0b57600080fd5b6000611a198882890161187d565b9550506020611a2a8882890161187d565b945050604086013567ffffffffffffffff811115611a4757600080fd5b611a53888289016118bc565b935050606086013567ffffffffffffffff811115611a7057600080fd5b611a7c888289016118bc565b925050608086013567ffffffffffffffff811115611a9957600080fd5b611aa588828901611925565b9150509295509295909350565b600080600080600060a08688031215611aca57600080fd5b6000611ad88882890161187d565b9550506020611ae98882890161187d565b9450506040611afa88828901611979565b9350506060611b0b88828901611979565b925050608086013567ffffffffffffffff811115611b2857600080fd5b611b3488828901611925565b9150509295509295909350565b60008060408385031215611b5457600080fd5b6000611b628582860161187d565b9250506020611b73858286016118e6565b9150509250929050565b600080600060608486031215611b9257600080fd5b6000611ba08682870161187d565b935050602084013567ffffffffffffffff811115611bbd57600080fd5b611bc98682870161194f565b9250506040611bda86828701611979565b9150509250925092565b60008060408385031215611bf757600080fd5b6000611c058582860161187d565b9250506020611c1685828601611979565b9150509250929050565b60008060408385031215611c3357600080fd5b600083013567ffffffffffffffff811115611c4d57600080fd5b611c5985828601611892565b925050602083013567ffffffffffffffff811115611c7657600080fd5b611c82858286016118bc565b9150509250929050565b600060208284031215611c9e57600080fd5b6000611cac848285016118fb565b91505092915050565b600060208284031215611cc757600080fd5b6000611cd584828501611910565b91505092915050565b600060208284031215611cf057600080fd5b6000611cfe84828501611979565b91505092915050565b6000611d138383611f8e565b60208301905092915050565b611d288161244e565b82525050565b6000611d3982612397565b611d4381856123c5565b9350611d4e83612387565b8060005b83811015611d7f578151611d668882611d07565b9750611d71836123b8565b925050600181019050611d52565b5085935050505092915050565b611d9581612460565b82525050565b6000611da6826123a2565b611db081856123d6565b9350611dc08185602086016124d1565b611dc98161265f565b840191505092915050565b6000611ddf826123ad565b611de981856123e7565b9350611df98185602086016124d1565b611e028161265f565b840191505092915050565b6000611e1a6034836123e7565b9150611e258261267d565b604082019050919050565b6000611e3d6028836123e7565b9150611e48826126cc565b604082019050919050565b6000611e60602b836123e7565b9150611e6b8261271b565b604082019050919050565b6000611e836029836123e7565b9150611e8e8261276a565b604082019050919050565b6000611ea66025836123e7565b9150611eb1826127b9565b604082019050919050565b6000611ec96032836123e7565b9150611ed482612808565b604082019050919050565b6000611eec602a836123e7565b9150611ef782612857565b604082019050919050565b6000611f0f6029836123e7565b9150611f1a826128a6565b604082019050919050565b6000611f326029836123e7565b9150611f3d826128f5565b604082019050919050565b6000611f556028836123e7565b9150611f6082612944565b604082019050919050565b6000611f786021836123e7565b9150611f8382612993565b604082019050919050565b611f97816124b8565b82525050565b611fa6816124b8565b82525050565b600060a082019050611fc16000830188611d1f565b611fce6020830187611d1f565b8181036040830152611fe08186611d2e565b90508181036060830152611ff48185611d2e565b905081810360808301526120088184611d9b565b90509695505050505050565b600060a0820190506120296000830188611d1f565b6120366020830187611d1f565b6120436040830186611f9d565b6120506060830185611f9d565b81810360808301526120628184611d9b565b90509695505050505050565b600060208201905081810360008301526120888184611d2e565b905092915050565b600060408201905081810360008301526120aa8185611d2e565b905081810360208301526120be8184611d2e565b90509392505050565b60006020820190506120dc6000830184611d8c565b92915050565b600060208201905081810360008301526120fc8184611dd4565b905092915050565b6000602082019050818103600083015261211d81611e0d565b9050919050565b6000602082019050818103600083015261213d81611e30565b9050919050565b6000602082019050818103600083015261215d81611e53565b9050919050565b6000602082019050818103600083015261217d81611e76565b9050919050565b6000602082019050818103600083015261219d81611e99565b9050919050565b600060208201905081810360008301526121bd81611ebc565b9050919050565b600060208201905081810360008301526121dd81611edf565b9050919050565b600060208201905081810360008301526121fd81611f02565b9050919050565b6000602082019050818103600083015261221d81611f25565b9050919050565b6000602082019050818103600083015261223d81611f48565b9050919050565b6000602082019050818103600083015261225d81611f6b565b9050919050565b60006020820190506122796000830184611f9d565b92915050565b60006040820190506122946000830185611f9d565b6122a16020830184611f9d565b9392505050565b60006122b26122c3565b90506122be8282612536565b919050565b6000604051905090565b600067ffffffffffffffff8211156122e8576122e761260e565b5b602082029050602081019050919050565b600067ffffffffffffffff8211156123145761231361260e565b5b602082029050602081019050919050565b600067ffffffffffffffff8211156123405761233f61260e565b5b6123498261265f565b9050602081019050919050565b600067ffffffffffffffff8211156123715761237061260e565b5b61237a8261265f565b9050602081019050919050565b6000819050602082019050919050565b600081519050919050565b600081519050919050565b600081519050919050565b6000602082019050919050565b600082825260208201905092915050565b600082825260208201905092915050565b600082825260208201905092915050565b6000612403826124b8565b915061240e836124b8565b9250827fffffffffffffffffffffffffffffffffffffffffffffffffffffffffffffffff03821115612443576124426125b0565b5b828201905092915050565b600061245982612498565b9050919050565b60008115159050919050565b60007fffffffff0000000000000000000000000000000000000000000000000000000082169050919050565b600073ffffffffffffffffffffffffffffffffffffffff82169050919050565b6000819050919050565b82818337600083830152505050565b60005b838110156124ef5780820151818401526020810190506124d4565b838111156124fe576000848401525b50505050565b6000600282049050600182168061251c57607f821691505b602082108114156125305761252f6125df565b5b50919050565b61253f8261265f565b810181811067ffffffffffffffff8211171561255e5761255d61260e565b5b80604052505050565b6000612572826124b8565b91507fffffffffffffffffffffffffffffffffffffffffffffffffffffffffffffffff8214156125a5576125a46125b0565b5b600182019050919050565b7f4e487b7100000000000000000000000000000000000000000000000000000000600052601160045260246000fd5b7f4e487b7100000000000000000000000000000000000000000000000000000000600052602260045260246000fd5b7f4e487b7100000000000000000000000000000000000000000000000000000000600052604160045260246000fd5b600060033d111561265c5760046000803e612659600051612670565b90505b90565b6000601f19601f8301169050919050565b60008160e01c9050919050565b7f455243313135353a207472616e7366657220746f206e6f6e204552433131353560008201527f526563656976657220696d706c656d656e746572000000000000000000000000602082015250565b7f455243313135353a204552433131353552656365697665722072656a6563746560008201527f6420746f6b656e73000000000000000000000000000000000000000000000000602082015250565b7f455243313135353a2062616c616e636520717565727920666f7220746865207a60008201527f65726f2061646472657373000000000000000000000000000000000000000000602082015250565b7f455243313135353a2063616c6c6572206973206e6f74206f776e6572206e6f7260008201527f20617070726f7665640000000000000000000000000000000000000000000000602082015250565b7f455243313135353a207472616e7366657220746f20746865207a65726f20616460008201527f6472657373000000000000000000000000000000000000000000000000000000602082015250565b7f455243313135353a207472616e736665722063616c6c6572206973206e6f742060008201527f6f776e6572206e6f7220617070726f7665640000000000000000000000000000602082015250565b7f455243313135353a20696e73756666696369656e742062616c616e636520666f60008201527f72207472616e7366657200000000000000000000000000000000000000000000602082015250565b7f455243313135353a2073657474696e6720617070726f76616c2073746174757360008201527f20666f722073656c660000000000000000000000000000000000000000000000602082015250565b7f455243313135353a206163636f756e747320616e6420696473206c656e67746860008201527f206d69736d617463680000000000000000000000000000000000000000000000602082015250565b7f455243313135353a2069647320616e6420616d6f756e7473206c656e6774682060008201527f6d69736d61746368000000000000000000000000000000000000000000000000602082015250565b7f455243313135353a206d696e7420746f20746865207a65726f2061646472657360008201527f7300000000000000000000000000000000000000000000000000000000000000602082015250565b600060443d10156129f257612a75565b6129fa6122c3565b60043d036004823e80513d602482011167ffffffffffffffff82111715612a22575050612a75565b808201805167ffffffffffffffff811115612a405750505050612a75565b80602083010160043d038501811115612a5d575050505050612a75565b612a6c82602001850186612536565b82955050505050505b90565b612a818161244e565b8114612a8c57600080fd5b50565b612a9881612460565b8114612aa357600080fd5b50565b612aaf8161246c565b8114612aba57600080fd5b50565b612ac6816124b8565b8114612ad157600080fd5b5056fea2646970667358221220595242c5e5c5fd83c510f683825b5352bc77be3956b35380dc55bb1744ad496664736f6c63430008030033",
  "immutableReferences": {},
  "source": "pragma solidity ^0.8.3;\n//\"SPDX-License-Identifier: UNLICENSED\"\n\nimport \"@openzeppelin/contracts/token/ERC1155/ERC1155.sol\";\n\n\n\n\ncontract ACHouseToken1155 is ERC1155 {\n\n    address parentAddress;\n    \n    constructor() ERC1155(\"\") {}\n\n   function setParentAddress(address _address) public {\n       parentAddress = _address;\n   }\n\n   function mintNFT(address _ownerAddress, string memory _uri, uint256 _id) public {\n       // using erc 1155 to creat NFT\n       // mint will create NFT and send it to the address. IF address is parent contract then it will throw error unless IERC1155Receiver.onERC1155BatchReceived is implemented. \n\n       _setURI(_uri);\n       _mint(_ownerAddress, _id, 1, \"\"); \n   }\n\n\n   \n   \n   \n   \n   // owner address is prob artist address. USING ERC1155\n//    function mintNFT1155(address _ownerAddress, string memory _uri, uint256 _id, uint256 _supply) public {\n\n//        // using erc 1155 to creat NFT\n//        ERC1155(_uri)._mint(_ownerAddress, _id, 1, \"\"); // ERC 721 like but still ERC1155 NFT token\n\n//        ERC1155(_uri)._mint(_ownerAddress, _id, 10**9, \"\"); // ERC 20 like but its still ERC1155 fungible token\n\n//        // transfer to the owner part comes here\n//    }\n\n//    // owner address is prob artist address. USING ERC721\n//    function mintNFT721(address _ownerAddress, string memory _uri, string memory _name, string memory _symbol, uint256 _id, uint256 _supply) public {\n\n//        // using erc 1155 to creat NFT\n//        ERC721(_name, _symbol)._mint(_ownerAddress, _id);\n\n//        // transfer to the owner part comes here\n//    }\n\n//    function mintERC20(address _ownerAddress,string memory _name, string memory _symbol, uint256 _supply) public {\n//        ERC20(_name, _symbol)._mint(_ownerAddress, 10**9);\n//    }\n    \n}",
  "sourcePath": "/home/dinesh/Projects/EthOnline/contracts/ACHouseToken1155.sol",
  "compiler": {
    "name": "solc",
    "version": "0.8.3+commit.8d00100c.Emscripten.clang"
  },
  "schemaVersion": "3.3.4",
  "updatedAt": "2021-10-04T02:10:48.454Z",
  "devdoc": {
    "kind": "dev",
    "methods": {
      "balanceOf(address,uint256)": {
        "details": "See {IERC1155-balanceOf}. Requirements: - `account` cannot be the zero address."
      },
      "balanceOfBatch(address[],uint256[])": {
        "details": "See {IERC1155-balanceOfBatch}. Requirements: - `accounts` and `ids` must have the same length."
      },
      "isApprovedForAll(address,address)": {
        "details": "See {IERC1155-isApprovedForAll}."
      },
      "safeBatchTransferFrom(address,address,uint256[],uint256[],bytes)": {
        "details": "See {IERC1155-safeBatchTransferFrom}."
      },
      "safeTransferFrom(address,address,uint256,uint256,bytes)": {
        "details": "See {IERC1155-safeTransferFrom}."
      },
      "setApprovalForAll(address,bool)": {
        "details": "See {IERC1155-setApprovalForAll}."
      },
      "supportsInterface(bytes4)": {
        "details": "See {IERC165-supportsInterface}."
      },
      "uri(uint256)": {
        "details": "See {IERC1155MetadataURI-uri}. This implementation returns the same URI for *all* token types. It relies on the token type ID substitution mechanism https://eips.ethereum.org/EIPS/eip-1155#metadata[defined in the EIP]. Clients calling this function must replace the `\\{id\\}` substring with the actual token type ID."
      }
    },
    "version": 1
  },
  "userdoc": {
    "kind": "user",
    "methods": {},
    "version": 1
  }
}