{
  "contractName": "ACHouse",
  "abi": [
    {
      "inputs": [
        {
          "internalType": "address",
          "name": "_multiToken",
          "type": "address"
        }
      ],
      "stateMutability": "nonpayable",
      "type": "constructor"
    },
    {
      "inputs": [
        {
          "internalType": "uint256",
          "name": "",
          "type": "uint256"
        }
      ],
      "name": "ngoArray",
      "outputs": [
        {
          "internalType": "uint256",
          "name": "id",
          "type": "uint256"
        },
        {
          "internalType": "string",
          "name": "name",
          "type": "string"
        }
      ],
      "stateMutability": "view",
      "type": "function"
    },
    {
      "inputs": [
        {
          "internalType": "string",
          "name": "_name",
          "type": "string"
        },
        {
          "internalType": "uint256",
          "name": "_userType",
          "type": "uint256"
        }
      ],
      "name": "register",
      "outputs": [
        {
          "internalType": "bool",
          "name": "",
          "type": "bool"
        }
      ],
      "stateMutability": "nonpayable",
      "type": "function"
    },
    {
      "inputs": [
        {
          "internalType": "string",
          "name": "_uri",
          "type": "string"
        }
      ],
      "name": "setURI1155",
      "outputs": [],
      "stateMutability": "nonpayable",
      "type": "function"
    },
    {
      "inputs": [
        {
          "internalType": "uint256",
          "name": "_id",
          "type": "uint256"
        },
        {
          "internalType": "uint256",
          "name": "_amount",
          "type": "uint256"
        }
      ],
      "name": "createNFT1155",
      "outputs": [],
      "stateMutability": "nonpayable",
      "type": "function"
    },
    {
      "inputs": [],
      "name": "getTokenCount",
      "outputs": [
        {
          "internalType": "uint256",
          "name": "",
          "type": "uint256"
        }
      ],
      "stateMutability": "nonpayable",
      "type": "function"
    },
    {
      "inputs": [],
      "name": "getTokenIds",
      "outputs": [
        {
          "internalType": "uint256[]",
          "name": "",
          "type": "uint256[]"
        }
      ],
      "stateMutability": "nonpayable",
      "type": "function"
    }
  ],
  "bytecode": "0x6080604052600060025560006003556000600455600060055534801561002457600080fd5b50604051620011bc380380620011bc833981810160405281019061004891906100a4565b80600160006101000a81548173ffffffffffffffffffffffffffffffffffffffff021916908373ffffffffffffffffffffffffffffffffffffffff16021790555050610116565b60008151905061009e816100ff565b92915050565b6000602082840312156100b657600080fd5b60006100c48482850161008f565b91505092915050565b60006100d8826100df565b9050919050565b600073ffffffffffffffffffffffffffffffffffffffff82169050919050565b610108816100cd565b811461011357600080fd5b50565b61109680620001266000396000f3fe608060405234801561001057600080fd5b50600436106100625760003560e01c806367f718a91461006757806378a89567146100855780639c79afb3146100a3578063af8e6c39146100d4578063dce9fc11146100f0578063ea87152b1461010c575b600080fd5b61006f61013c565b60405161007c9190610c74565b60405180910390f35b61008d6101e8565b60405161009a9190610cf3565b60405180910390f35b6100bd60048036038101906100b89190610aa1565b61028f565b6040516100cb929190610d0e565b60405180910390f35b6100ee60048036038101906100e99190610a0c565b61034b565b005b61010a60048036038101906101059190610af3565b6103db565b005b61012660048036038101906101219190610a4d565b610470565b6040516101339190610c96565b60405180910390f35b6060600160009054906101000a900473ffffffffffffffffffffffffffffffffffffffff1673ffffffffffffffffffffffffffffffffffffffff166367f718a96040518163ffffffff1660e01b815260040160006040518083038186803b1580156101a657600080fd5b505afa1580156101ba573d6000803e3d6000fd5b505050506040513d6000823e3d601f19601f820116820180604052508101906101e391906109cb565b905090565b6000600160009054906101000a900473ffffffffffffffffffffffffffffffffffffffff1673ffffffffffffffffffffffffffffffffffffffff166378a895676040518163ffffffff1660e01b815260040160206040518083038186803b15801561025257600080fd5b505afa158015610266573d6000803e3d6000fd5b505050506040513d601f19601f8201168201806040525081019061028a9190610aca565b905090565b6006818154811061029f57600080fd5b90600052602060002090600202016000915090508060000154908060010180546102c890610eac565b80601f01602080910402602001604051908101604052809291908181526020018280546102f490610eac565b80156103415780601f1061031657610100808354040283529160200191610341565b820191906000526020600020905b81548152906001019060200180831161032457829003601f168201915b5050505050905082565b600160009054906101000a900473ffffffffffffffffffffffffffffffffffffffff1673ffffffffffffffffffffffffffffffffffffffff166302fe5305826040518263ffffffff1660e01b81526004016103a69190610cb1565b600060405180830381600087803b1580156103c057600080fd5b505af11580156103d4573d6000803e3d6000fd5b5050505050565b600160009054906101000a900473ffffffffffffffffffffffffffffffffffffffff1673ffffffffffffffffffffffffffffffffffffffff16635a9d10a23384846040518463ffffffff1660e01b815260040161043a93929190610c3d565b600060405180830381600087803b15801561045457600080fd5b505af1158015610468573d6000803e3d6000fd5b505050505050565b600080151561047e33610725565b1515146104c0576040517f08c379a00000000000000000000000000000000000000000000000000000000081526004016104b790610cd3565b60405180910390fd5b600182141561056c57600060405180604001604052806002548152602001858152509050600260008154809291906104f790610f0f565b919050555080600860003373ffffffffffffffffffffffffffffffffffffffff1673ffffffffffffffffffffffffffffffffffffffff168152602001908152602001600020600082015181600001556020820151816001019080519060200190610562929190610800565b50905050506106b8565b600282141561061857600060405180604001604052806003548152602001858152509050600360008154809291906105a390610f0f565b919050555080600960003373ffffffffffffffffffffffffffffffffffffffff1673ffffffffffffffffffffffffffffffffffffffff16815260200190815260200160002060008201518160000155602082015181600101908051906020019061060e929190610800565b50905050506106b7565b6000604051806040016040528060045481526020018581525090506004600081548092919061064690610f0f565b919050555080600a60003373ffffffffffffffffffffffffffffffffffffffff1673ffffffffffffffffffffffffffffffffffffffff1681526020019081526020016000206000820151816000015560208201518160010190805190602001906106b1929190610800565b50905050505b5b6007339080600181540180825580915050600190039060005260206000200160009091909190916101000a81548173ffffffffffffffffffffffffffffffffffffffff021916908373ffffffffffffffffffffffffffffffffffffffff1602179055506001905092915050565b600080600090505b6007805490508160ff1610156107f5578273ffffffffffffffffffffffffffffffffffffffff1660078260ff1681548110610791577f4e487b7100000000000000000000000000000000000000000000000000000000600052603260045260246000fd5b9060005260206000200160009054906101000a900473ffffffffffffffffffffffffffffffffffffffff1673ffffffffffffffffffffffffffffffffffffffff1614156107e25760019150506107fb565b80806107ed90610f58565b91505061072d565b50600090505b919050565b82805461080c90610eac565b90600052602060002090601f01602090048101928261082e5760008555610875565b82601f1061084757805160ff1916838001178555610875565b82800160010185558215610875579182015b82811115610874578251825591602001919060010190610859565b5b5090506108829190610886565b5090565b5b8082111561089f576000816000905550600101610887565b5090565b60006108b66108b184610d63565b610d3e565b905080838252602082019050828560208602820111156108d557600080fd5b60005b8581101561090557816108eb88826109b6565b8452602084019350602083019250506001810190506108d8565b5050509392505050565b600061092261091d84610d8f565b610d3e565b90508281526020810184848401111561093a57600080fd5b610945848285610e6a565b509392505050565b600082601f83011261095e57600080fd5b815161096e8482602086016108a3565b91505092915050565b600082601f83011261098857600080fd5b813561099884826020860161090f565b91505092915050565b6000813590506109b081611049565b92915050565b6000815190506109c581611049565b92915050565b6000602082840312156109dd57600080fd5b600082015167ffffffffffffffff8111156109f757600080fd5b610a038482850161094d565b91505092915050565b600060208284031215610a1e57600080fd5b600082013567ffffffffffffffff811115610a3857600080fd5b610a4484828501610977565b91505092915050565b60008060408385031215610a6057600080fd5b600083013567ffffffffffffffff811115610a7a57600080fd5b610a8685828601610977565b9250506020610a97858286016109a1565b9150509250929050565b600060208284031215610ab357600080fd5b6000610ac1848285016109a1565b91505092915050565b600060208284031215610adc57600080fd5b6000610aea848285016109b6565b91505092915050565b60008060408385031215610b0657600080fd5b6000610b14858286016109a1565b9250506020610b25858286016109a1565b9150509250929050565b6000610b3b8383610c1f565b60208301905092915050565b610b5081610e15565b82525050565b6000610b6182610dd0565b610b6b8185610df3565b9350610b7683610dc0565b8060005b83811015610ba7578151610b8e8882610b2f565b9750610b9983610de6565b925050600181019050610b7a565b5085935050505092915050565b610bbd81610e27565b82525050565b6000610bce82610ddb565b610bd88185610e04565b9350610be8818560208601610e79565b610bf18161100f565b840191505092915050565b6000610c09601783610e04565b9150610c1482611020565b602082019050919050565b610c2881610e53565b82525050565b610c3781610e53565b82525050565b6000606082019050610c526000830186610b47565b610c5f6020830185610c2e565b610c6c6040830184610c2e565b949350505050565b60006020820190508181036000830152610c8e8184610b56565b905092915050565b6000602082019050610cab6000830184610bb4565b92915050565b60006020820190508181036000830152610ccb8184610bc3565b905092915050565b60006020820190508181036000830152610cec81610bfc565b9050919050565b6000602082019050610d086000830184610c2e565b92915050565b6000604082019050610d236000830185610c2e565b8181036020830152610d358184610bc3565b90509392505050565b6000610d48610d59565b9050610d548282610ede565b919050565b6000604051905090565b600067ffffffffffffffff821115610d7e57610d7d610fe0565b5b602082029050602081019050919050565b600067ffffffffffffffff821115610daa57610da9610fe0565b5b610db38261100f565b9050602081019050919050565b6000819050602082019050919050565b600081519050919050565b600081519050919050565b6000602082019050919050565b600082825260208201905092915050565b600082825260208201905092915050565b6000610e2082610e33565b9050919050565b60008115159050919050565b600073ffffffffffffffffffffffffffffffffffffffff82169050919050565b6000819050919050565b600060ff82169050919050565b82818337600083830152505050565b60005b83811015610e97578082015181840152602081019050610e7c565b83811115610ea6576000848401525b50505050565b60006002820490506001821680610ec457607f821691505b60208210811415610ed857610ed7610fb1565b5b50919050565b610ee78261100f565b810181811067ffffffffffffffff82111715610f0657610f05610fe0565b5b80604052505050565b6000610f1a82610e53565b91507fffffffffffffffffffffffffffffffffffffffffffffffffffffffffffffffff821415610f4d57610f4c610f82565b5b600182019050919050565b6000610f6382610e5d565b915060ff821415610f7757610f76610f82565b5b600182019050919050565b7f4e487b7100000000000000000000000000000000000000000000000000000000600052601160045260246000fd5b7f4e487b7100000000000000000000000000000000000000000000000000000000600052602260045260246000fd5b7f4e487b7100000000000000000000000000000000000000000000000000000000600052604160045260246000fd5b6000601f19601f8301169050919050565b7f5573657220416c72656164792072656769737465726564000000000000000000600082015250565b61105281610e53565b811461105d57600080fd5b5056fea26469706673582212206d610fef0f3e99e71e6d81ddcef2ad0aea37e9f6ab73cba26c4612872092575e64736f6c63430008030033",
  "immutableReferences": {},
  "source": "// \"SPDX-License-Identifier: UNLICENSED\"\npragma solidity ^0.8.3;\n\nimport \"./ACHouseToken1155.sol\";\n\n// import \"./ACHouseToken20.sol\";\n// import \"./CheckerERC165.sol\";\n\n// import \"@openzeppelin/contracts/utils/introspection/ERC165.sol\";\n// import \"@openzeppelin/contracts/token/ERC1155/ERC1155.sol\";\n// import \"@openzeppelin/contracts/token/ERC721/IERC721.sol\";\n\n// import \"@openzeppelin/contracts/token/ERC721/utils/ERC721Holder.sol\";\n// import \"@openzeppelin/contracts/token/ERC1155/utils/ERC1155Holder.sol\";\n\ncontract ACHouse {\n\n    address owner;\n\n    ACHouseToken1155 multiToken;\n\n       /** Variables and Event Emitters */\n    struct AuctionPlace {\n        uint256 id;\n        string name;\n    }\n    struct Artist {\n        uint256 id;\n        string name;\n    }\n    struct Participant {\n        uint256 id;\n        string name;\n    }\n    struct NGO {\n        uint256 id;\n        string name;\n    }\n\n    uint auctionPlaceCount = 0;\n    uint artistCount = 0;\n    uint participantCount = 0;\n    uint ngoCount = 0;\n    NGO[] public ngoArray;\n    address[] RegisteredUserAddresses; // might be used??\n\n    // mapping address to type\n    mapping (address => AuctionPlace) AuctionPlaceMapping;\n    mapping (address => Artist) ArtistMapping;\n    mapping (address => Participant ) ParticipantMapping;\n    mapping (address => NGO ) NgoMapping; \n    \n    // User address maps to - Chaities and the donation amount. \n    mapping ( address =>  mapping (address => uint256)) UserNGODonation;\n    \n\n    constructor(address _multiToken){\n        multiToken = ACHouseToken1155(_multiToken);\n    }\n    \n    /**Functions - Registration  */\n    function register(string memory _name, uint _userType) public returns (bool) {\n        require(isUserRegistered(msg.sender) == false, \"User Already registered\");\n\n        //userType { 1: Auction, 2: Artist, 3: Participant}\n        // register user by type\n        if(_userType == 1){\n            AuctionPlace memory ac = AuctionPlace(auctionPlaceCount, _name);\n            auctionPlaceCount++;\n\n            AuctionPlaceMapping[msg.sender] = ac;\n        }else if( _userType == 2){\n            Artist memory ar = Artist(artistCount, _name);\n            artistCount++;\n\n            ArtistMapping[msg.sender] = ar;\n        }else {\n            Participant memory part = Participant(participantCount, _name);\n            participantCount++;\n\n            ParticipantMapping[msg.sender] = part;\n        }\n\n        RegisteredUserAddresses.push(msg.sender);\n        return true;\n    }\n\n    /**ERC1155 functionality */\n    function setURI1155(string memory _uri) public {\n        multiToken.setURI(_uri);\n    }\n    // mint 1155 NFT - set supply to 1. \n    function createNFT1155(uint256 _id, uint256 _amount) public {\n        multiToken.mintNFT(msg.sender, _id, _amount);\n    }\n\n    //get tokens totalnumber. \n    function getTokenCount() public returns (uint256) {\n        return multiToken.getTokenCount();\n    }\n    //returns the array of all tokenids. \n    function getTokenIds() public returns (uint256[] memory) {\n        return multiToken.getTokenIds();\n    }\n\n\n    /**Helpers */\n    function isUserRegistered( address _address) internal view returns (bool) {\n         \n        for( uint8 j = 0; j < RegisteredUserAddresses.length; j++){\n             \n            if(RegisteredUserAddresses[j] == _address){\n                return (true); // user is registered.\n            }\n        }\n        return (false); // user is not registered.\n    }\n\n    // //ERC1155 \n    // function onERC1155Received( address operator, address from, uint256 id, uint256 value, bytes calldata data ) override external returns (bytes4){\n        \n    //     // external transfer of Token to parent contract will trigger this function. Leverage this to \n    //     // continue the transfer to the ACHouseToken1155 which holds all 1155 tokens. \n    //     multiToken.safeTransferFrom(from, address(multiToken), id, value, data);\n        \n    //     return bytes4(keccak256(\"onERC1155Received(address,address,uint256,uint256,bytes)\"));\n    // }\n    \n    // function onERC1155BatchReceived( address operator, address from, uint256[] calldata ids, uint256[] calldata values, bytes calldata data ) override external returns (bytes4) {\n\n    //     // external transfer of Token to parent contract will trigger this function. Leverage this to \n    //     // continue the transfer to the ACHouseToken1155 which holds all 1155 tokens. \n    //     multiToken.safeBatchTransferFrom(from, address(multiToken), ids, values, data);\n\n    //     return bytes4(keccak256(\"onERC1155BatchReceived(address,address,uint256[],uint256[],bytes)\"));\n    // }\n\n}\n",
  "sourcePath": "/home/dinesh/Projects/EthOnline/contracts/ACHouse.sol",
  "compiler": {
    "name": "solc",
    "version": "0.8.3+commit.8d00100c.Emscripten.clang"
  },
  "schemaVersion": "3.3.4",
  "updatedAt": "2021-10-05T04:06:14.341Z",
  "devdoc": {
    "kind": "dev",
    "methods": {},
    "version": 1
  },
  "userdoc": {
    "kind": "user",
    "methods": {
      "register(string,uint256)": {
        "notice": "Functions - Registration  "
      },
      "setURI1155(string)": {
        "notice": "ERC1155 functionality "
      }
    },
    "version": 1
  }
}