{
  "contractName": "ACHouse",
  "abi": [
    {
      "inputs": [
        {
          "internalType": "address",
          "name": "_mToken",
          "type": "address"
        },
        {
          "internalType": "address",
          "name": "_nToken",
          "type": "address"
        }
      ],
      "stateMutability": "nonpayable",
      "type": "constructor"
    },
    {
      "anonymous": false,
      "inputs": [
        {
          "indexed": true,
          "internalType": "uint256",
          "name": "itemId",
          "type": "uint256"
        },
        {
          "indexed": true,
          "internalType": "address",
          "name": "nftContract",
          "type": "address"
        },
        {
          "indexed": true,
          "internalType": "uint256",
          "name": "tokenId",
          "type": "uint256"
        },
        {
          "indexed": false,
          "internalType": "address",
          "name": "seller",
          "type": "address"
        },
        {
          "indexed": false,
          "internalType": "address",
          "name": "owner",
          "type": "address"
        },
        {
          "indexed": false,
          "internalType": "uint256",
          "name": "price",
          "type": "uint256"
        },
        {
          "indexed": false,
          "internalType": "uint256",
          "name": "amount",
          "type": "uint256"
        },
        {
          "indexed": false,
          "internalType": "uint256",
          "name": "charityId",
          "type": "uint256"
        },
        {
          "indexed": false,
          "internalType": "uint256",
          "name": "auctionTime",
          "type": "uint256"
        },
        {
          "indexed": false,
          "internalType": "bool",
          "name": "sold",
          "type": "bool"
        },
        {
          "indexed": false,
          "internalType": "bool",
          "name": "isMultiToken",
          "type": "bool"
        },
        {
          "indexed": false,
          "internalType": "bool",
          "name": "isRemoved",
          "type": "bool"
        }
      ],
      "name": "MarketItemCreated",
      "type": "event"
    },
    {
      "anonymous": false,
      "inputs": [
        {
          "indexed": true,
          "internalType": "uint256",
          "name": "itemId",
          "type": "uint256"
        },
        {
          "indexed": true,
          "internalType": "address",
          "name": "nftContract",
          "type": "address"
        },
        {
          "indexed": true,
          "internalType": "uint256",
          "name": "tokenId",
          "type": "uint256"
        },
        {
          "indexed": false,
          "internalType": "address",
          "name": "seller",
          "type": "address"
        },
        {
          "indexed": false,
          "internalType": "address",
          "name": "owner",
          "type": "address"
        },
        {
          "indexed": false,
          "internalType": "uint256",
          "name": "price",
          "type": "uint256"
        },
        {
          "indexed": false,
          "internalType": "bool",
          "name": "sold",
          "type": "bool"
        }
      ],
      "name": "MarketItemSold",
      "type": "event"
    },
    {
      "inputs": [
        {
          "internalType": "uint256",
          "name": "",
          "type": "uint256"
        }
      ],
      "name": "ngoArray",
      "outputs": [
        {
          "internalType": "uint256",
          "name": "id",
          "type": "uint256"
        },
        {
          "internalType": "string",
          "name": "name",
          "type": "string"
        },
        {
          "internalType": "address",
          "name": "charityAddress",
          "type": "address"
        }
      ],
      "stateMutability": "view",
      "type": "function",
      "constant": true
    },
    {
      "inputs": [
        {
          "internalType": "address",
          "name": "",
          "type": "address"
        },
        {
          "internalType": "address",
          "name": "",
          "type": "address"
        },
        {
          "internalType": "uint256[]",
          "name": "",
          "type": "uint256[]"
        },
        {
          "internalType": "uint256[]",
          "name": "",
          "type": "uint256[]"
        },
        {
          "internalType": "bytes",
          "name": "",
          "type": "bytes"
        }
      ],
      "name": "onERC1155BatchReceived",
      "outputs": [
        {
          "internalType": "bytes4",
          "name": "",
          "type": "bytes4"
        }
      ],
      "stateMutability": "nonpayable",
      "type": "function"
    },
    {
      "inputs": [
        {
          "internalType": "address",
          "name": "",
          "type": "address"
        },
        {
          "internalType": "address",
          "name": "",
          "type": "address"
        },
        {
          "internalType": "uint256",
          "name": "",
          "type": "uint256"
        },
        {
          "internalType": "uint256",
          "name": "",
          "type": "uint256"
        },
        {
          "internalType": "bytes",
          "name": "",
          "type": "bytes"
        }
      ],
      "name": "onERC1155Received",
      "outputs": [
        {
          "internalType": "bytes4",
          "name": "",
          "type": "bytes4"
        }
      ],
      "stateMutability": "nonpayable",
      "type": "function"
    },
    {
      "inputs": [
        {
          "internalType": "address",
          "name": "",
          "type": "address"
        },
        {
          "internalType": "address",
          "name": "",
          "type": "address"
        },
        {
          "internalType": "uint256",
          "name": "",
          "type": "uint256"
        },
        {
          "internalType": "bytes",
          "name": "",
          "type": "bytes"
        }
      ],
      "name": "onERC721Received",
      "outputs": [
        {
          "internalType": "bytes4",
          "name": "",
          "type": "bytes4"
        }
      ],
      "stateMutability": "nonpayable",
      "type": "function"
    },
    {
      "inputs": [
        {
          "internalType": "bytes4",
          "name": "interfaceId",
          "type": "bytes4"
        }
      ],
      "name": "supportsInterface",
      "outputs": [
        {
          "internalType": "bool",
          "name": "",
          "type": "bool"
        }
      ],
      "stateMutability": "view",
      "type": "function",
      "constant": true
    },
    {
      "inputs": [
        {
          "internalType": "address",
          "name": "charityAddress",
          "type": "address"
        },
        {
          "internalType": "string",
          "name": "name",
          "type": "string"
        }
      ],
      "name": "addCharity",
      "outputs": [],
      "stateMutability": "nonpayable",
      "type": "function"
    },
    {
      "inputs": [
        {
          "internalType": "uint256",
          "name": "_id",
          "type": "uint256"
        }
      ],
      "name": "getCharityInfo",
      "outputs": [
        {
          "components": [
            {
              "internalType": "uint256",
              "name": "id",
              "type": "uint256"
            },
            {
              "internalType": "string",
              "name": "name",
              "type": "string"
            },
            {
              "internalType": "address",
              "name": "charityAddress",
              "type": "address"
            }
          ],
          "internalType": "struct ACHouse.NGO",
          "name": "",
          "type": "tuple"
        }
      ],
      "stateMutability": "view",
      "type": "function",
      "constant": true
    },
    {
      "inputs": [
        {
          "internalType": "address",
          "name": "nftContract",
          "type": "address"
        },
        {
          "internalType": "uint256",
          "name": "tokenId",
          "type": "uint256"
        },
        {
          "internalType": "uint256",
          "name": "price",
          "type": "uint256"
        },
        {
          "internalType": "uint256",
          "name": "amount",
          "type": "uint256"
        },
        {
          "internalType": "uint256",
          "name": "_charityId",
          "type": "uint256"
        },
        {
          "internalType": "uint256",
          "name": "auctionTime",
          "type": "uint256"
        }
      ],
      "name": "create1155MarketItem",
      "outputs": [
        {
          "internalType": "uint256",
          "name": "",
          "type": "uint256"
        }
      ],
      "stateMutability": "payable",
      "type": "function",
      "payable": true
    },
    {
      "inputs": [
        {
          "internalType": "address",
          "name": "nftContract",
          "type": "address"
        },
        {
          "internalType": "uint256",
          "name": "tokenId",
          "type": "uint256"
        },
        {
          "internalType": "uint256",
          "name": "price",
          "type": "uint256"
        },
        {
          "internalType": "uint256",
          "name": "_charityId",
          "type": "uint256"
        },
        {
          "internalType": "uint256",
          "name": "auctionTime",
          "type": "uint256"
        }
      ],
      "name": "create721MarketItem",
      "outputs": [
        {
          "internalType": "uint256",
          "name": "",
          "type": "uint256"
        }
      ],
      "stateMutability": "payable",
      "type": "function",
      "payable": true
    },
    {
      "inputs": [
        {
          "internalType": "uint256",
          "name": "itemId",
          "type": "uint256"
        }
      ],
      "name": "removeMarketPlaceItem",
      "outputs": [],
      "stateMutability": "nonpayable",
      "type": "function"
    },
    {
      "inputs": [
        {
          "internalType": "uint256",
          "name": "itemId",
          "type": "uint256"
        }
      ],
      "name": "addMarketPlaceItem",
      "outputs": [],
      "stateMutability": "nonpayable",
      "type": "function"
    },
    {
      "inputs": [
        {
          "internalType": "address",
          "name": "nftContract",
          "type": "address"
        },
        {
          "internalType": "uint256",
          "name": "itemId",
          "type": "uint256"
        }
      ],
      "name": "createMarketSale",
      "outputs": [],
      "stateMutability": "payable",
      "type": "function",
      "payable": true
    },
    {
      "inputs": [
        {
          "internalType": "uint256",
          "name": "_id",
          "type": "uint256"
        }
      ],
      "name": "fetchMarketItem",
      "outputs": [
        {
          "components": [
            {
              "internalType": "uint256",
              "name": "itemId",
              "type": "uint256"
            },
            {
              "internalType": "address",
              "name": "nftContract",
              "type": "address"
            },
            {
              "internalType": "uint256",
              "name": "tokenId",
              "type": "uint256"
            },
            {
              "internalType": "address payable",
              "name": "seller",
              "type": "address"
            },
            {
              "internalType": "address payable",
              "name": "owner",
              "type": "address"
            },
            {
              "internalType": "uint256",
              "name": "price",
              "type": "uint256"
            },
            {
              "internalType": "uint256",
              "name": "amount",
              "type": "uint256"
            },
            {
              "internalType": "uint256",
              "name": "charityId",
              "type": "uint256"
            },
            {
              "internalType": "uint256",
              "name": "auctionTime",
              "type": "uint256"
            },
            {
              "internalType": "bool",
              "name": "sold",
              "type": "bool"
            },
            {
              "internalType": "bool",
              "name": "isMultiToken",
              "type": "bool"
            },
            {
              "internalType": "bool",
              "name": "isRemoved",
              "type": "bool"
            }
          ],
          "internalType": "struct ACHouse.MarketItem",
          "name": "",
          "type": "tuple"
        }
      ],
      "stateMutability": "view",
      "type": "function",
      "constant": true
    },
    {
      "inputs": [],
      "name": "fetchUnSoldMarketItems",
      "outputs": [
        {
          "internalType": "string[]",
          "name": "",
          "type": "string[]"
        }
      ],
      "stateMutability": "nonpayable",
      "type": "function"
    },
    {
      "inputs": [],
      "name": "fetchMyNFTs",
      "outputs": [
        {
          "components": [
            {
              "internalType": "uint256",
              "name": "itemId",
              "type": "uint256"
            },
            {
              "internalType": "address",
              "name": "nftContract",
              "type": "address"
            },
            {
              "internalType": "uint256",
              "name": "tokenId",
              "type": "uint256"
            },
            {
              "internalType": "address payable",
              "name": "seller",
              "type": "address"
            },
            {
              "internalType": "address payable",
              "name": "owner",
              "type": "address"
            },
            {
              "internalType": "uint256",
              "name": "price",
              "type": "uint256"
            },
            {
              "internalType": "uint256",
              "name": "amount",
              "type": "uint256"
            },
            {
              "internalType": "uint256",
              "name": "charityId",
              "type": "uint256"
            },
            {
              "internalType": "uint256",
              "name": "auctionTime",
              "type": "uint256"
            },
            {
              "internalType": "bool",
              "name": "sold",
              "type": "bool"
            },
            {
              "internalType": "bool",
              "name": "isMultiToken",
              "type": "bool"
            },
            {
              "internalType": "bool",
              "name": "isRemoved",
              "type": "bool"
            }
          ],
          "internalType": "struct ACHouse.MarketItem[]",
          "name": "",
          "type": "tuple[]"
        }
      ],
      "stateMutability": "view",
      "type": "function",
      "constant": true
    },
    {
      "inputs": [],
      "name": "fetchMyItemSold",
      "outputs": [
        {
          "internalType": "uint256[]",
          "name": "",
          "type": "uint256[]"
        }
      ],
      "stateMutability": "view",
      "type": "function",
      "constant": true
    },
    {
      "inputs": [],
      "name": "fetchItemsCreated",
      "outputs": [
        {
          "components": [
            {
              "internalType": "uint256",
              "name": "itemId",
              "type": "uint256"
            },
            {
              "internalType": "address",
              "name": "nftContract",
              "type": "address"
            },
            {
              "internalType": "uint256",
              "name": "tokenId",
              "type": "uint256"
            },
            {
              "internalType": "address payable",
              "name": "seller",
              "type": "address"
            },
            {
              "internalType": "address payable",
              "name": "owner",
              "type": "address"
            },
            {
              "internalType": "uint256",
              "name": "price",
              "type": "uint256"
            },
            {
              "internalType": "uint256",
              "name": "amount",
              "type": "uint256"
            },
            {
              "internalType": "uint256",
              "name": "charityId",
              "type": "uint256"
            },
            {
              "internalType": "uint256",
              "name": "auctionTime",
              "type": "uint256"
            },
            {
              "internalType": "bool",
              "name": "sold",
              "type": "bool"
            },
            {
              "internalType": "bool",
              "name": "isMultiToken",
              "type": "bool"
            },
            {
              "internalType": "bool",
              "name": "isRemoved",
              "type": "bool"
            }
          ],
          "internalType": "struct ACHouse.MarketItem[]",
          "name": "",
          "type": "tuple[]"
        }
      ],
      "stateMutability": "view",
      "type": "function",
      "constant": true
    },
    {
      "inputs": [
        {
          "internalType": "string",
          "name": "_name",
          "type": "string"
        },
        {
          "internalType": "uint256",
          "name": "_userType",
          "type": "uint256"
        }
      ],
      "name": "register",
      "outputs": [
        {
          "internalType": "bool",
          "name": "",
          "type": "bool"
        }
      ],
      "stateMutability": "nonpayable",
      "type": "function"
    },
    {
      "inputs": [
        {
          "internalType": "string",
          "name": "_uri",
          "type": "string"
        }
      ],
      "name": "setURI1155",
      "outputs": [],
      "stateMutability": "nonpayable",
      "type": "function"
    },
    {
      "inputs": [
        {
          "internalType": "uint256",
          "name": "_tokenId",
          "type": "uint256"
        }
      ],
      "name": "getTokenURI",
      "outputs": [
        {
          "internalType": "string",
          "name": "",
          "type": "string"
        }
      ],
      "stateMutability": "view",
      "type": "function",
      "constant": true
    },
    {
      "inputs": [
        {
          "internalType": "uint256",
          "name": "_id",
          "type": "uint256"
        },
        {
          "internalType": "uint256",
          "name": "_amount",
          "type": "uint256"
        }
      ],
      "name": "createNFT1155",
      "outputs": [],
      "stateMutability": "nonpayable",
      "type": "function"
    },
    {
      "inputs": [],
      "name": "getTokenCount",
      "outputs": [
        {
          "internalType": "uint256",
          "name": "",
          "type": "uint256"
        }
      ],
      "stateMutability": "view",
      "type": "function",
      "constant": true
    },
    {
      "inputs": [],
      "name": "getTokenIds",
      "outputs": [
        {
          "internalType": "uint256[]",
          "name": "",
          "type": "uint256[]"
        }
      ],
      "stateMutability": "view",
      "type": "function",
      "constant": true
    },
    {
      "inputs": [
        {
          "internalType": "uint256",
          "name": "_tokenId",
          "type": "uint256"
        }
      ],
      "name": "getTokenSupply",
      "outputs": [
        {
          "internalType": "uint256",
          "name": "",
          "type": "uint256"
        }
      ],
      "stateMutability": "view",
      "type": "function",
      "constant": true
    },
    {
      "inputs": [
        {
          "internalType": "address",
          "name": "nftContract",
          "type": "address"
        },
        {
          "internalType": "uint256",
          "name": "tokenId",
          "type": "uint256"
        },
        {
          "internalType": "uint256",
          "name": "shardId",
          "type": "uint256"
        },
        {
          "internalType": "uint256",
          "name": "priceOfShard",
          "type": "uint256"
        },
        {
          "internalType": "uint256",
          "name": "supplyToCreate",
          "type": "uint256"
        },
        {
          "internalType": "string",
          "name": "uri",
          "type": "string"
        }
      ],
      "name": "fractionalize1155NFT",
      "outputs": [
        {
          "internalType": "uint256",
          "name": "",
          "type": "uint256"
        }
      ],
      "stateMutability": "nonpayable",
      "type": "function"
    },
    {
      "inputs": [
        {
          "internalType": "address",
          "name": "nftContract",
          "type": "address"
        },
        {
          "internalType": "uint256",
          "name": "tokenId",
          "type": "uint256"
        },
        {
          "internalType": "uint256",
          "name": "shardId",
          "type": "uint256"
        },
        {
          "internalType": "uint256",
          "name": "priceOfShard",
          "type": "uint256"
        },
        {
          "internalType": "uint256",
          "name": "supplyToCreate",
          "type": "uint256"
        },
        {
          "internalType": "string",
          "name": "uri",
          "type": "string"
        }
      ],
      "name": "fractionalize721NFT",
      "outputs": [
        {
          "internalType": "uint256",
          "name": "",
          "type": "uint256"
        }
      ],
      "stateMutability": "nonpayable",
      "type": "function"
    },
    {
      "inputs": [
        {
          "internalType": "uint256",
          "name": "_id",
          "type": "uint256"
        },
        {
          "internalType": "string",
          "name": "uri",
          "type": "string"
        },
        {
          "internalType": "string",
          "name": "name",
          "type": "string"
        },
        {
          "internalType": "string",
          "name": "symbol",
          "type": "string"
        }
      ],
      "name": "createNFT721",
      "outputs": [],
      "stateMutability": "nonpayable",
      "type": "function"
    },
    {
      "inputs": [],
      "name": "get721TokenCount",
      "outputs": [
        {
          "internalType": "uint256",
          "name": "",
          "type": "uint256"
        }
      ],
      "stateMutability": "view",
      "type": "function",
      "constant": true
    },
    {
      "inputs": [],
      "name": "get721TokenIds",
      "outputs": [
        {
          "internalType": "uint256[]",
          "name": "",
          "type": "uint256[]"
        }
      ],
      "stateMutability": "view",
      "type": "function",
      "constant": true
    },
    {
      "inputs": [
        {
          "internalType": "uint256",
          "name": "_id",
          "type": "uint256"
        }
      ],
      "name": "get721TokenName",
      "outputs": [
        {
          "internalType": "string",
          "name": "",
          "type": "string"
        }
      ],
      "stateMutability": "view",
      "type": "function",
      "constant": true
    },
    {
      "inputs": [
        {
          "internalType": "uint256",
          "name": "_id",
          "type": "uint256"
        }
      ],
      "name": "get721TokenSymbol",
      "outputs": [
        {
          "internalType": "string",
          "name": "",
          "type": "string"
        }
      ],
      "stateMutability": "view",
      "type": "function",
      "constant": true
    },
    {
      "inputs": [
        {
          "internalType": "uint256",
          "name": "_id",
          "type": "uint256"
        }
      ],
      "name": "get721TokenURI",
      "outputs": [
        {
          "internalType": "string",
          "name": "",
          "type": "string"
        }
      ],
      "stateMutability": "view",
      "type": "function",
      "constant": true
    },
    {
      "inputs": [
        {
          "internalType": "uint256",
          "name": "v",
          "type": "uint256"
        }
      ],
      "name": "uint2str",
      "outputs": [
        {
          "internalType": "string",
          "name": "",
          "type": "string"
        }
      ],
      "stateMutability": "pure",
      "type": "function",
      "constant": true
    }
  ],
  "bytecode": "0x608060405260006009556000600a556000600b556000600c553480156200002557600080fd5b5060405162005a4738038062005a4783398181016040528101906200004b919062000257565b600160008190555081600660006101000a81548173ffffffffffffffffffffffffffffffffffffffff021916908373ffffffffffffffffffffffffffffffffffffffff16021790555080600760006101000a81548173ffffffffffffffffffffffffffffffffffffffff021916908373ffffffffffffffffffffffffffffffffffffffff160217905550600660009054906101000a900473ffffffffffffffffffffffffffffffffffffffff1673ffffffffffffffffffffffffffffffffffffffff1663fa5afe40306040518263ffffffff1660e01b8152600401620001329190620002a9565b600060405180830381600087803b1580156200014d57600080fd5b505af115801562000162573d6000803e3d6000fd5b50505050600760009054906101000a900473ffffffffffffffffffffffffffffffffffffffff1673ffffffffffffffffffffffffffffffffffffffff1663fa5afe40306040518263ffffffff1660e01b8152600401620001c39190620002a9565b600060405180830381600087803b158015620001de57600080fd5b505af1158015620001f3573d6000803e3d6000fd5b5050505033600560006101000a81548173ffffffffffffffffffffffffffffffffffffffff021916908373ffffffffffffffffffffffffffffffffffffffff160217905550505062000314565b6000815190506200025181620002fa565b92915050565b600080604083850312156200026b57600080fd5b60006200027b8582860162000240565b92505060206200028e8582860162000240565b9150509250929050565b620002a381620002c6565b82525050565b6000602082019050620002c0600083018462000298565b92915050565b6000620002d382620002da565b9050919050565b600073ffffffffffffffffffffffffffffffffffffffff82169050919050565b6200030581620002c6565b81146200031157600080fd5b50565b61572380620003246000396000f3fe6080604052600436106101ee5760003560e01c806378a895671161010d578063bc197c81116100a0578063dce9fc111161006f578063dce9fc1114610784578063ea87152b146107ad578063f064c32e146107ea578063f23a6e6114610815578063f76f950e14610852576101ee565b8063bc197c81146106d0578063be7c7abb1461070d578063c23b139e1461073d578063dbcd674e14610759576101ee565b80639ca7aac7116100dc5780639ca7aac714610602578063acbc20ee1461063f578063af8e6c391461066a578063b5daa4fc14610693576101ee565b806378a8956714610544578063833564971461056f578063953e8267146105985780639c79afb3146105c3576101ee565b8063382edbcf116101855780635d46fcc7116101545780635d46fcc71461048357806367f718a9146104b35780636b3ed26f146104de57806372f7bec81461051b576101ee565b8063382edbcf146103b55780633bb3a24d146103e05780633e52a1651461041d57806343404be114610446576101ee565b8063202e3740116101c1578063202e3740146102d357806325762e57146102fe5780632642c74f1461033b5780632a45b25014610378576101ee565b806301ffc9a7146101f3578063145eca8c14610230578063150b7a021461025957806319b88edb14610296575b600080fd5b3480156101ff57600080fd5b5061021a6004803603810190610215919061447e565b61088f565b6040516102279190614f47565b60405180910390f35b34801561023c57600080fd5b506102576004803603810190610252919061457d565b610909565b005b34801561026557600080fd5b50610280600480360381019061027b9190614102565b61093b565b60405161028d9190614f62565b60405180910390f35b3480156102a257600080fd5b506102bd60048036038101906102b8919061457d565b61094f565b6040516102ca919061503d565b60405180910390f35b3480156102df57600080fd5b506102e8610a03565b6040516102f59190614f03565b60405180910390f35b34801561030a57600080fd5b506103256004803603810190610320919061457d565b610d70565b6040516103329190614f7d565b60405180910390f35b34801561034757600080fd5b50610362600480360381019061035d9190614313565b610e29565b60405161036f919061503d565b60405180910390f35b34801561038457600080fd5b5061039f600480360381019061039a919061457d565b611191565b6040516103ac9190614fff565b60405180910390f35b3480156103c157600080fd5b506103ca61134e565b6040516103d79190614ee1565b60405180910390f35b3480156103ec57600080fd5b506104076004803603810190610402919061457d565b611595565b6040516104149190614f7d565b60405180910390f35b34801561042957600080fd5b50610444600480360381019061043f919061457d565b61164e565b005b34801561045257600080fd5b5061046d6004803603810190610468919061457d565b611680565b60405161047a919061501b565b60405180910390f35b61049d600480360381019061049891906143b4565b61179f565b6040516104aa919061503d565b60405180910390f35b3480156104bf57600080fd5b506104c8611b22565b6040516104d59190614f25565b60405180910390f35b3480156104ea57600080fd5b506105056004803603810190610500919061457d565b611bce565b6040516105129190614f7d565b60405180910390f35b34801561052757600080fd5b50610542600480360381019061053d919061420c565b611c87565b005b34801561055057600080fd5b50610559611d5f565b604051610566919061503d565b60405180910390f35b34801561057b57600080fd5b50610596600480360381019061059191906145cf565b611e06565b005b3480156105a457600080fd5b506105ad611ea1565b6040516105ba9190614f25565b60405180910390f35b3480156105cf57600080fd5b506105ea60048036038101906105e5919061457d565b611f4d565b6040516105f993929190615058565b60405180910390f35b34801561060e57600080fd5b506106296004803603810190610624919061457d565b61202f565b6040516106369190614f7d565b60405180910390f35b34801561064b57600080fd5b506106546120e8565b6040516106619190614f25565b60405180910390f35b34801561067657600080fd5b50610691600480360381019061068c91906144a7565b61217d565b005b34801561069f57600080fd5b506106ba60048036038101906106b59190614313565b61220d565b6040516106c7919061503d565b60405180910390f35b3480156106dc57600080fd5b506106f760048036038101906106f29190614043565b612578565b6040516107049190614f62565b60405180910390f35b6107276004803603810190610722919061429c565b61258d565b604051610734919061503d565b60405180910390f35b61075760048036038101906107529190614260565b61290d565b005b34801561076557600080fd5b5061076e612fc5565b60405161077b919061503d565b60405180910390f35b34801561079057600080fd5b506107ab60048036038101906107a6919061467a565b61306c565b005b3480156107b957600080fd5b506107d460048036038101906107cf9190614529565b613101565b6040516107e19190614f47565b60405180910390f35b3480156107f657600080fd5b506107ff6133b6565b60405161080c9190614f03565b60405180910390f35b34801561082157600080fd5b5061083c6004803603810190610837919061417d565b6137a4565b6040516108499190614f62565b60405180910390f35b34801561085e57600080fd5b506108796004803603810190610874919061457d565b6137b9565b6040516108869190614f7d565b60405180910390f35b60007f4e2312e0000000000000000000000000000000000000000000000000000000007bffffffffffffffffffffffffffffffffffffffffffffffffffffffff1916827bffffffffffffffffffffffffffffffffffffffffffffffffffffffff19161480610902575061090182613a9f565b5b9050919050565b60016014600083815260200190815260200160002060090160026101000a81548160ff02191690831515021790555050565b600063150b7a0260e01b9050949350505050565b6000600660009054906101000a900473ffffffffffffffffffffffffffffffffffffffff1673ffffffffffffffffffffffffffffffffffffffff166397492c1c836040518263ffffffff1660e01b81526004016109ac919061503d565b60206040518083038186803b1580156109c457600080fd5b505afa1580156109d8573d6000803e3d6000fd5b505050506040513d601f19601f820116820180604052508101906109fc91906145a6565b9050919050565b60606000601760003373ffffffffffffffffffffffffffffffffffffffff1673ffffffffffffffffffffffffffffffffffffffff168152602001908152602001600020805480602002602001604051908101604052809291908181526020018280548015610a9057602002820191906000526020600020905b815481526020019060010190808311610a7c575b505050505090506000815167ffffffffffffffff811115610ada577f4e487b7100000000000000000000000000000000000000000000000000000000600052604160045260246000fd5b604051908082528060200260200182016040528015610b1357816020015b610b00613c08565b815260200190600190039081610af85790505b50905060005b8251811015610d675760146000848381518110610b5f577f4e487b7100000000000000000000000000000000000000000000000000000000600052603260045260246000fd5b6020026020010151815260200190815260200160002060405180610180016040529081600082015481526020016001820160009054906101000a900473ffffffffffffffffffffffffffffffffffffffff1673ffffffffffffffffffffffffffffffffffffffff1673ffffffffffffffffffffffffffffffffffffffff168152602001600282015481526020016003820160009054906101000a900473ffffffffffffffffffffffffffffffffffffffff1673ffffffffffffffffffffffffffffffffffffffff1673ffffffffffffffffffffffffffffffffffffffff1681526020016004820160009054906101000a900473ffffffffffffffffffffffffffffffffffffffff1673ffffffffffffffffffffffffffffffffffffffff1673ffffffffffffffffffffffffffffffffffffffff168152602001600582015481526020016006820154815260200160078201548152602001600882015481526020016009820160009054906101000a900460ff161515151581526020016009820160019054906101000a900460ff161515151581526020016009820160029054906101000a900460ff161515151581525050828281518110610d49577f4e487b7100000000000000000000000000000000000000000000000000000000600052603260045260246000fd5b60200260200101819052508080610d5f9061546d565b915050610b19565b50809250505090565b6060600760009054906101000a900473ffffffffffffffffffffffffffffffffffffffff1673ffffffffffffffffffffffffffffffffffffffff16638ad91345836040518263ffffffff1660e01b8152600401610dcd919061503d565b60006040518083038186803b158015610de557600080fd5b505afa158015610df9573d6000803e3d6000fd5b505050506040513d6000823e3d601f19601f82011682018060405250810190610e2291906144e8565b9050919050565b6000610e356003613b09565b6000610e416003613b1f565b905060006040518061014001604052808381526020018a73ffffffffffffffffffffffffffffffffffffffff1681526020018981526020013373ffffffffffffffffffffffffffffffffffffffff168152602001600073ffffffffffffffffffffffffffffffffffffffff168152602001600660009054906101000a900473ffffffffffffffffffffffffffffffffffffffff1673ffffffffffffffffffffffffffffffffffffffff16815260200188815260200187815260200186815260200186815250905080601960008481526020019081526020016000206000820151816000015560208201518160010160006101000a81548173ffffffffffffffffffffffffffffffffffffffff021916908373ffffffffffffffffffffffffffffffffffffffff1602179055506040820151816002015560608201518160030160006101000a81548173ffffffffffffffffffffffffffffffffffffffff021916908373ffffffffffffffffffffffffffffffffffffffff16021790555060808201518160040160006101000a81548173ffffffffffffffffffffffffffffffffffffffff021916908373ffffffffffffffffffffffffffffffffffffffff16021790555060a08201518160050160006101000a81548173ffffffffffffffffffffffffffffffffffffffff021916908373ffffffffffffffffffffffffffffffffffffffff16021790555060c0820151816006015560e08201518160070155610100820151816008015561012082015181600901559050508873ffffffffffffffffffffffffffffffffffffffff166323b872dd33308b6040518463ffffffff1660e01b81526004016110b693929190614c41565b600060405180830381600087803b1580156110d057600080fd5b505af11580156110e4573d6000803e3d6000fd5b505050506110f18461217d565b600660009054906101000a900473ffffffffffffffffffffffffffffffffffffffff1673ffffffffffffffffffffffffffffffffffffffff16635a9d10a23384886040518463ffffffff1660e01b815260040161115093929190614eaa565b600060405180830381600087803b15801561116a57600080fd5b505af115801561117e573d6000803e3d6000fd5b5050505081925050509695505050505050565b611199613c08565b6014600083815260200190815260200160002060405180610180016040529081600082015481526020016001820160009054906101000a900473ffffffffffffffffffffffffffffffffffffffff1673ffffffffffffffffffffffffffffffffffffffff1673ffffffffffffffffffffffffffffffffffffffff168152602001600282015481526020016003820160009054906101000a900473ffffffffffffffffffffffffffffffffffffffff1673ffffffffffffffffffffffffffffffffffffffff1673ffffffffffffffffffffffffffffffffffffffff1681526020016004820160009054906101000a900473ffffffffffffffffffffffffffffffffffffffff1673ffffffffffffffffffffffffffffffffffffffff1673ffffffffffffffffffffffffffffffffffffffff168152602001600582015481526020016006820154815260200160078201548152602001600882015481526020016009820160009054906101000a900460ff161515151581526020016009820160019054906101000a900460ff161515151581526020016009820160029054906101000a900460ff1615151515815250509050919050565b606060008061135d6001613b1f565b905060005b818110156114bb57600073ffffffffffffffffffffffffffffffffffffffff16601460006001846113939190615232565b815260200190815260200160002060040160009054906101000a900473ffffffffffffffffffffffffffffffffffffffff1673ffffffffffffffffffffffffffffffffffffffff1614801561141b575060001515601460006001846113f89190615232565b815260200190815260200160002060090160029054906101000a900460ff161515145b156114a857600060018261142f9190615232565b90506000601460008381526020019081526020016000206000015490506000611457826137b9565b9050601b81908060018154018082558091505060019003906000526020600020016000909190919091509080519060200190611494929190613cb1565b506001866114a29190615232565b95505050505b80806114b39061546d565b915050611362565b50601b805480602002602001604051908101604052809291908181526020016000905b8282101561158a5783829060005260206000200180546114fd9061540a565b80601f01602080910402602001604051908101604052809291908181526020018280546115299061540a565b80156115765780601f1061154b57610100808354040283529160200191611576565b820191906000526020600020905b81548152906001019060200180831161155957829003601f168201915b5050505050815260200190600101906114de565b505050509250505090565b6060600660009054906101000a900473ffffffffffffffffffffffffffffffffffffffff1673ffffffffffffffffffffffffffffffffffffffff16633bb3a24d836040518263ffffffff1660e01b81526004016115f2919061503d565b60006040518083038186803b15801561160a57600080fd5b505afa15801561161e573d6000803e3d6000fd5b505050506040513d6000823e3d601f19601f8201168201806040525081019061164791906144e8565b9050919050565b60006014600083815260200190815260200160002060090160026101000a81548160ff02191690831515021790555050565b611688613d37565b60126000838152602001908152602001600020604051806060016040529081600082015481526020016001820180546116c09061540a565b80601f01602080910402602001604051908101604052809291908181526020018280546116ec9061540a565b80156117395780601f1061170e57610100808354040283529160200191611739565b820191906000526020600020905b81548152906001019060200180831161171c57829003601f168201915b505050505081526020016002820160009054906101000a900473ffffffffffffffffffffffffffffffffffffffff1673ffffffffffffffffffffffffffffffffffffffff1673ffffffffffffffffffffffffffffffffffffffff16815250509050919050565b6000600260005414156117e7576040517f08c379a00000000000000000000000000000000000000000000000000000000081526004016117de90614fbf565b60405180910390fd5b60026000819055506117f96001613b09565b60006118056001613b1f565b905060006040518061018001604052808381526020018a73ffffffffffffffffffffffffffffffffffffffff1681526020018981526020013373ffffffffffffffffffffffffffffffffffffffff168152602001600073ffffffffffffffffffffffffffffffffffffffff1681526020018881526020016001815260200186815260200185815260200160001515815260200160011515815260200160001515815250905080601460008481526020019081526020016000206000820151816000015560208201518160010160006101000a81548173ffffffffffffffffffffffffffffffffffffffff021916908373ffffffffffffffffffffffffffffffffffffffff1602179055506040820151816002015560608201518160030160006101000a81548173ffffffffffffffffffffffffffffffffffffffff021916908373ffffffffffffffffffffffffffffffffffffffff16021790555060808201518160040160006101000a81548173ffffffffffffffffffffffffffffffffffffffff021916908373ffffffffffffffffffffffffffffffffffffffff16021790555060a0820151816005015560c0820151816006015560e0820151816007015561010082015181600801556101208201518160090160006101000a81548160ff0219169083151502179055506101408201518160090160016101000a81548160ff0219169083151502179055506101608201518160090160026101000a81548160ff0219169083151502179055509050508873ffffffffffffffffffffffffffffffffffffffff1663f242432a33308b8a6040518563ffffffff1660e01b8152600401611a759493929190614d5d565b600060405180830381600087803b158015611a8f57600080fd5b505af1158015611aa3573d6000803e3d6000fd5b50505050878973ffffffffffffffffffffffffffffffffffffffff16837f27c56f6ac604894f34ddf0bfe8296d43c52ac0637dec4c28996e8a904c989d593360008c8c8c8c600060016000604051611b0399989796959493929190614db5565b60405180910390a4819250505060016000819055509695505050505050565b6060600660009054906101000a900473ffffffffffffffffffffffffffffffffffffffff1673ffffffffffffffffffffffffffffffffffffffff166367f718a96040518163ffffffff1660e01b815260040160006040518083038186803b158015611b8c57600080fd5b505afa158015611ba0573d6000803e3d6000fd5b505050506040513d6000823e3d601f19601f82011682018060405250810190611bc9919061443d565b905090565b6060600760009054906101000a900473ffffffffffffffffffffffffffffffffffffffff1673ffffffffffffffffffffffffffffffffffffffff16637b78bd3f836040518263ffffffff1660e01b8152600401611c2b919061503d565b60006040518083038186803b158015611c4357600080fd5b505afa158015611c57573d6000803e3d6000fd5b505050506040513d6000823e3d601f19601f82011682018060405250810190611c8091906144e8565b9050919050565b611c916004613b09565b6000611c9d6004613b1f565b9050600060405180606001604052808381526020018481526020018573ffffffffffffffffffffffffffffffffffffffff1681525090508060126000848152602001908152602001600020600082015181600001556020820151816001019080519060200190611d0e929190613cb1565b5060408201518160020160006101000a81548173ffffffffffffffffffffffffffffffffffffffff021916908373ffffffffffffffffffffffffffffffffffffffff16021790555090505050505050565b6000600660009054906101000a900473ffffffffffffffffffffffffffffffffffffffff1673ffffffffffffffffffffffffffffffffffffffff166378a895676040518163ffffffff1660e01b815260040160206040518083038186803b158015611dc957600080fd5b505afa158015611ddd573d6000803e3d6000fd5b505050506040513d601f19601f82011682018060405250810190611e0191906145a6565b905090565b600760009054906101000a900473ffffffffffffffffffffffffffffffffffffffff1673ffffffffffffffffffffffffffffffffffffffff1663257d89db33868686866040518663ffffffff1660e01b8152600401611e69959493929190614e42565b600060405180830381600087803b158015611e8357600080fd5b505af1158015611e97573d6000803e3d6000fd5b5050505050505050565b6060600760009054906101000a900473ffffffffffffffffffffffffffffffffffffffff1673ffffffffffffffffffffffffffffffffffffffff166367f718a96040518163ffffffff1660e01b815260040160006040518083038186803b158015611f0b57600080fd5b505afa158015611f1f573d6000803e3d6000fd5b505050506040513d6000823e3d601f19601f82011682018060405250810190611f48919061443d565b905090565b600d8181548110611f5d57600080fd5b9060005260206000209060030201600091509050806000015490806001018054611f869061540a565b80601f0160208091040260200160405190810160405280929190818152602001828054611fb29061540a565b8015611fff5780601f10611fd457610100808354040283529160200191611fff565b820191906000526020600020905b815481529060010190602001808311611fe257829003601f168201915b5050505050908060020160009054906101000a900473ffffffffffffffffffffffffffffffffffffffff16905083565b6060600760009054906101000a900473ffffffffffffffffffffffffffffffffffffffff1673ffffffffffffffffffffffffffffffffffffffff1663dbe16c07836040518263ffffffff1660e01b815260040161208c919061503d565b60006040518083038186803b1580156120a457600080fd5b505afa1580156120b8573d6000803e3d6000fd5b505050506040513d6000823e3d601f19601f820116820180604052508101906120e191906144e8565b9050919050565b6060601560003373ffffffffffffffffffffffffffffffffffffffff1673ffffffffffffffffffffffffffffffffffffffff16815260200190815260200160002080548060200260200160405190810160405280929190818152602001828054801561217357602002820191906000526020600020905b81548152602001906001019080831161215f575b5050505050905090565b600660009054906101000a900473ffffffffffffffffffffffffffffffffffffffff1673ffffffffffffffffffffffffffffffffffffffff166302fe5305826040518263ffffffff1660e01b81526004016121d89190614f7d565b600060405180830381600087803b1580156121f257600080fd5b505af1158015612206573d6000803e3d6000fd5b5050505050565b60006122196003613b09565b60006122256003613b1f565b905060006040518061014001604052808381526020018a73ffffffffffffffffffffffffffffffffffffffff1681526020018981526020013373ffffffffffffffffffffffffffffffffffffffff168152602001600073ffffffffffffffffffffffffffffffffffffffff168152602001600660009054906101000a900473ffffffffffffffffffffffffffffffffffffffff1673ffffffffffffffffffffffffffffffffffffffff16815260200188815260200187815260200186815260200186815250905080601960008481526020019081526020016000206000820151816000015560208201518160010160006101000a81548173ffffffffffffffffffffffffffffffffffffffff021916908373ffffffffffffffffffffffffffffffffffffffff1602179055506040820151816002015560608201518160030160006101000a81548173ffffffffffffffffffffffffffffffffffffffff021916908373ffffffffffffffffffffffffffffffffffffffff16021790555060808201518160040160006101000a81548173ffffffffffffffffffffffffffffffffffffffff021916908373ffffffffffffffffffffffffffffffffffffffff16021790555060a08201518160050160006101000a81548173ffffffffffffffffffffffffffffffffffffffff021916908373ffffffffffffffffffffffffffffffffffffffff16021790555060c0820151816006015560e08201518160070155610100820151816008015561012082015181600901559050508873ffffffffffffffffffffffffffffffffffffffff1663f242432a33308b60016040518563ffffffff1660e01b815260040161249d9493929190614c78565b600060405180830381600087803b1580156124b757600080fd5b505af11580156124cb573d6000803e3d6000fd5b505050506124d88461217d565b600660009054906101000a900473ffffffffffffffffffffffffffffffffffffffff1673ffffffffffffffffffffffffffffffffffffffff16635a9d10a23384886040518463ffffffff1660e01b815260040161253793929190614eaa565b600060405180830381600087803b15801561255157600080fd5b505af1158015612565573d6000803e3d6000fd5b5050505081925050509695505050505050565b600063bc197c8160e01b905095945050505050565b6000600260005414156125d5576040517f08c379a00000000000000000000000000000000000000000000000000000000081526004016125cc90614fbf565b60405180910390fd5b60026000819055506125e76001613b09565b60006125f36001613b1f565b905060006040518061018001604052808381526020018973ffffffffffffffffffffffffffffffffffffffff1681526020018881526020013373ffffffffffffffffffffffffffffffffffffffff168152602001600073ffffffffffffffffffffffffffffffffffffffff1681526020018781526020016001815260200186815260200185815260200160001515815260200160011515815260200160001515815250905080601460008481526020019081526020016000206000820151816000015560208201518160010160006101000a81548173ffffffffffffffffffffffffffffffffffffffff021916908373ffffffffffffffffffffffffffffffffffffffff1602179055506040820151816002015560608201518160030160006101000a81548173ffffffffffffffffffffffffffffffffffffffff021916908373ffffffffffffffffffffffffffffffffffffffff16021790555060808201518160040160006101000a81548173ffffffffffffffffffffffffffffffffffffffff021916908373ffffffffffffffffffffffffffffffffffffffff16021790555060a0820151816005015560c0820151816006015560e0820151816007015561010082015181600801556101208201518160090160006101000a81548160ff0219169083151502179055506101408201518160090160016101000a81548160ff0219169083151502179055506101608201518160090160026101000a81548160ff0219169083151502179055509050508773ffffffffffffffffffffffffffffffffffffffff166323b872dd33308a6040518463ffffffff1660e01b815260040161286193929190614c41565b600060405180830381600087803b15801561287b57600080fd5b505af115801561288f573d6000803e3d6000fd5b50505050868873ffffffffffffffffffffffffffffffffffffffff16837f27c56f6ac604894f34ddf0bfe8296d43c52ac0637dec4c28996e8a904c989d593360008b60018c8c60008060006040516128ef99989796959493929190614cd0565b60405180910390a48192505050600160008190555095945050505050565b60026000541415612953576040517f08c379a000000000000000000000000000000000000000000000000000000000815260040161294a90614fbf565b60405180910390fd5b600260008190555060006014600083815260200190815260200160002060405180610180016040529081600082015481526020016001820160009054906101000a900473ffffffffffffffffffffffffffffffffffffffff1673ffffffffffffffffffffffffffffffffffffffff1673ffffffffffffffffffffffffffffffffffffffff168152602001600282015481526020016003820160009054906101000a900473ffffffffffffffffffffffffffffffffffffffff1673ffffffffffffffffffffffffffffffffffffffff1673ffffffffffffffffffffffffffffffffffffffff1681526020016004820160009054906101000a900473ffffffffffffffffffffffffffffffffffffffff1673ffffffffffffffffffffffffffffffffffffffff1673ffffffffffffffffffffffffffffffffffffffff168152602001600582015481526020016006820154815260200160078201548152602001600882015481526020016009820160009054906101000a900460ff161515151581526020016009820160019054906101000a900460ff161515151581526020016009820160029054906101000a900460ff161515151581525050905060008160a00151905060008260400151905060008361014001519050823414612b6b576040517f08c379a0000000000000000000000000000000000000000000000000000000008152600401612b6290614f9f565b60405180910390fd5b836060015173ffffffffffffffffffffffffffffffffffffffff166108fc349081150290604051600060405180830381858888f19350505050158015612bb5573d6000803e3d6000fd5b508015612c3a578573ffffffffffffffffffffffffffffffffffffffff1663f242432a303387604001518860c001516040518563ffffffff1660e01b8152600401612c039493929190614d5d565b600060405180830381600087803b158015612c1d57600080fd5b505af1158015612c31573d6000803e3d6000fd5b50505050612caa565b8573ffffffffffffffffffffffffffffffffffffffff166323b872dd3033856040518463ffffffff1660e01b8152600401612c7793929190614c41565b600060405180830381600087803b158015612c9157600080fd5b505af1158015612ca5573d6000803e3d6000fd5b505050505b33846080019073ffffffffffffffffffffffffffffffffffffffff16908173ffffffffffffffffffffffffffffffffffffffff1681525050600184610120019015159081151581525050612cfe6002613b09565b83601460008781526020019081526020016000206000820151816000015560208201518160010160006101000a81548173ffffffffffffffffffffffffffffffffffffffff021916908373ffffffffffffffffffffffffffffffffffffffff1602179055506040820151816002015560608201518160030160006101000a81548173ffffffffffffffffffffffffffffffffffffffff021916908373ffffffffffffffffffffffffffffffffffffffff16021790555060808201518160040160006101000a81548173ffffffffffffffffffffffffffffffffffffffff021916908373ffffffffffffffffffffffffffffffffffffffff16021790555060a0820151816005015560c0820151816006015560e0820151816007015561010082015181600801556101208201518160090160006101000a81548160ff0219169083151502179055506101408201518160090160016101000a81548160ff0219169083151502179055506101608201518160090160026101000a81548160ff02191690831515021790555090505060156000856060015173ffffffffffffffffffffffffffffffffffffffff1673ffffffffffffffffffffffffffffffffffffffff168152602001908152602001600020859080600181540180825580915050600190039060005260206000200160009091909190915055601760003373ffffffffffffffffffffffffffffffffffffffff1673ffffffffffffffffffffffffffffffffffffffff168152602001908152602001600020859080600181540180825580915050600190039060005260206000200160009091909190915055818673ffffffffffffffffffffffffffffffffffffffff16867ffeb04e399f6ba62d926a65372cbb5f11e3c7a9ff05e62948769d2ee5d5335b84876060015133886001604051612fad9493929190614bfc565b60405180910390a45050505060016000819055505050565b6000600760009054906101000a900473ffffffffffffffffffffffffffffffffffffffff1673ffffffffffffffffffffffffffffffffffffffff166378a895676040518163ffffffff1660e01b815260040160206040518083038186803b15801561302f57600080fd5b505afa158015613043573d6000803e3d6000fd5b505050506040513d601f19601f8201168201806040525081019061306791906145a6565b905090565b600660009054906101000a900473ffffffffffffffffffffffffffffffffffffffff1673ffffffffffffffffffffffffffffffffffffffff16635a9d10a23384846040518463ffffffff1660e01b81526004016130cb93929190614eaa565b600060405180830381600087803b1580156130e557600080fd5b505af11580156130f9573d6000803e3d6000fd5b505050505050565b600080151561310f33613b2d565b151514613151576040517f08c379a000000000000000000000000000000000000000000000000000000000815260040161314890614fdf565b60405180910390fd5b60018214156131fd57600060405180604001604052806009548152602001858152509050600960008154809291906131889061546d565b919050555080600f60003373ffffffffffffffffffffffffffffffffffffffff1673ffffffffffffffffffffffffffffffffffffffff1681526020019081526020016000206000820151816000015560208201518160010190805190602001906131f3929190613cb1565b5090505050613349565b60028214156132a95760006040518060400160405280600a548152602001858152509050600a60008154809291906132349061546d565b919050555080601060003373ffffffffffffffffffffffffffffffffffffffff1673ffffffffffffffffffffffffffffffffffffffff16815260200190815260200160002060008201518160000155602082015181600101908051906020019061329f929190613cb1565b5090505050613348565b60006040518060400160405280600b548152602001858152509050600b60008154809291906132d79061546d565b919050555080601160003373ffffffffffffffffffffffffffffffffffffffff1673ffffffffffffffffffffffffffffffffffffffff168152602001908152602001600020600082015181600001556020820151816001019080519060200190613342929190613cb1565b50905050505b5b600e339080600181540180825580915050600190039060005260206000200160009091909190916101000a81548173ffffffffffffffffffffffffffffffffffffffff021916908373ffffffffffffffffffffffffffffffffffffffff1602179055506001905092915050565b606060006133c46001613b1f565b90506000805b8281101561346b573373ffffffffffffffffffffffffffffffffffffffff16601460006001846133fa9190615232565b815260200190815260200160002060030160009054906101000a900473ffffffffffffffffffffffffffffffffffffffff1673ffffffffffffffffffffffffffffffffffffffff161415613458576001826134559190615232565b91505b80806134639061546d565b9150506133ca565b5060008167ffffffffffffffff8111156134ae577f4e487b7100000000000000000000000000000000000000000000000000000000600052604160045260246000fd5b6040519080825280602002602001820160405280156134e757816020015b6134d4613c08565b8152602001906001900390816134cc5790505b5090506000805b84811015613799573373ffffffffffffffffffffffffffffffffffffffff166014600060018461351e9190615232565b815260200190815260200160002060030160009054906101000a900473ffffffffffffffffffffffffffffffffffffffff1673ffffffffffffffffffffffffffffffffffffffff16141561378657600060018261357b9190615232565b905060006014600083815260200190815260200160002090508060405180610180016040529081600082015481526020016001820160009054906101000a900473ffffffffffffffffffffffffffffffffffffffff1673ffffffffffffffffffffffffffffffffffffffff1673ffffffffffffffffffffffffffffffffffffffff168152602001600282015481526020016003820160009054906101000a900473ffffffffffffffffffffffffffffffffffffffff1673ffffffffffffffffffffffffffffffffffffffff1673ffffffffffffffffffffffffffffffffffffffff1681526020016004820160009054906101000a900473ffffffffffffffffffffffffffffffffffffffff1673ffffffffffffffffffffffffffffffffffffffff1673ffffffffffffffffffffffffffffffffffffffff168152602001600582015481526020016006820154815260200160078201548152602001600882015481526020016009820160009054906101000a900460ff161515151581526020016009820160019054906101000a900460ff161515151581526020016009820160029054906101000a900460ff161515151581525050858581518110613769577f4e487b7100000000000000000000000000000000000000000000000000000000600052603260045260246000fd5b60200260200101819052506001846137819190615232565b935050505b80806137919061546d565b9150506134ee565b508194505050505090565b600063f23a6e6160e01b905095945050505050565b60606000821415613801576040518060400160405280600181526020017f30000000000000000000000000000000000000000000000000000000000000008152509050613a9a565b60006064905060008167ffffffffffffffff811115613849577f4e487b7100000000000000000000000000000000000000000000000000000000600052604160045260246000fd5b6040519080825280601f01601f19166020018201604052801561387b5781602001600182028036833780820191505090505b50905060005b60008514613933576000600a8661389891906154e0565b9050600a866138a79190615288565b95508060306138b69190615232565b60f81b8383806138c59061546d565b9450815181106138fe577f4e487b7100000000000000000000000000000000000000000000000000000000600052603260045260246000fd5b60200101907effffffffffffffffffffffffffffffffffffffffffffffffffffffffffffff1916908160001a90535050613881565b60008167ffffffffffffffff811115613975577f4e487b7100000000000000000000000000000000000000000000000000000000600052604160045260246000fd5b6040519080825280601f01601f1916602001820160405280156139a75781602001600182028036833780820191505090505b50905060005b82811015613a8b5783600182856139c491906152b9565b6139ce91906152b9565b81518110613a05577f4e487b7100000000000000000000000000000000000000000000000000000000600052603260045260246000fd5b602001015160f81c60f81b828281518110613a49577f4e487b7100000000000000000000000000000000000000000000000000000000600052603260045260246000fd5b60200101907effffffffffffffffffffffffffffffffffffffffffffffffffffffffffffff1916908160001a9053508080613a839061546d565b9150506139ad565b50600081905080955050505050505b919050565b60007f01ffc9a7000000000000000000000000000000000000000000000000000000007bffffffffffffffffffffffffffffffffffffffffffffffffffffffff1916827bffffffffffffffffffffffffffffffffffffffffffffffffffffffff1916149050919050565b6001816000016000828254019250508190555050565b600081600001549050919050565b600080600090505b600e805490508160ff161015613bfd578273ffffffffffffffffffffffffffffffffffffffff16600e8260ff1681548110613b99577f4e487b7100000000000000000000000000000000000000000000000000000000600052603260045260246000fd5b9060005260206000200160009054906101000a900473ffffffffffffffffffffffffffffffffffffffff1673ffffffffffffffffffffffffffffffffffffffff161415613bea576001915050613c03565b8080613bf5906154b6565b915050613b35565b50600090505b919050565b60405180610180016040528060008152602001600073ffffffffffffffffffffffffffffffffffffffff16815260200160008152602001600073ffffffffffffffffffffffffffffffffffffffff168152602001600073ffffffffffffffffffffffffffffffffffffffff168152602001600081526020016000815260200160008152602001600081526020016000151581526020016000151581526020016000151581525090565b828054613cbd9061540a565b90600052602060002090601f016020900481019282613cdf5760008555613d26565b82601f10613cf857805160ff1916838001178555613d26565b82800160010185558215613d26579182015b82811115613d25578251825591602001919060010190613d0a565b5b509050613d339190613d6e565b5090565b60405180606001604052806000815260200160608152602001600073ffffffffffffffffffffffffffffffffffffffff1681525090565b5b80821115613d87576000816000905550600101613d6f565b5090565b6000613d9e613d99846150bb565b615096565b90508083825260208201905082856020860282011115613dbd57600080fd5b60005b85811015613ded5781613dd38882614019565b845260208401935060208301925050600181019050613dc0565b5050509392505050565b6000613e0a613e05846150bb565b615096565b90508083825260208201905082856020860282011115613e2957600080fd5b60005b85811015613e595781613e3f888261402e565b845260208401935060208301925050600181019050613e2c565b5050509392505050565b6000613e76613e71846150e7565b615096565b905082815260208101848484011115613e8e57600080fd5b613e998482856153c8565b509392505050565b6000613eb4613eaf84615118565b615096565b905082815260208101848484011115613ecc57600080fd5b613ed78482856153c8565b509392505050565b6000613ef2613eed84615118565b615096565b905082815260208101848484011115613f0a57600080fd5b613f158482856153d7565b509392505050565b600081359050613f2c816156a8565b92915050565b600082601f830112613f4357600080fd5b8135613f53848260208601613d8b565b91505092915050565b600082601f830112613f6d57600080fd5b8151613f7d848260208601613df7565b91505092915050565b600081359050613f95816156bf565b92915050565b600082601f830112613fac57600080fd5b8135613fbc848260208601613e63565b91505092915050565b600082601f830112613fd657600080fd5b8135613fe6848260208601613ea1565b91505092915050565b600082601f83011261400057600080fd5b8151614010848260208601613edf565b91505092915050565b600081359050614028816156d6565b92915050565b60008151905061403d816156d6565b92915050565b600080600080600060a0868803121561405b57600080fd5b600061406988828901613f1d565b955050602061407a88828901613f1d565b945050604086013567ffffffffffffffff81111561409757600080fd5b6140a388828901613f32565b935050606086013567ffffffffffffffff8111156140c057600080fd5b6140cc88828901613f32565b925050608086013567ffffffffffffffff8111156140e957600080fd5b6140f588828901613f9b565b9150509295509295909350565b6000806000806080858703121561411857600080fd5b600061412687828801613f1d565b945050602061413787828801613f1d565b935050604061414887828801614019565b925050606085013567ffffffffffffffff81111561416557600080fd5b61417187828801613f9b565b91505092959194509250565b600080600080600060a0868803121561419557600080fd5b60006141a388828901613f1d565b95505060206141b488828901613f1d565b94505060406141c588828901614019565b93505060606141d688828901614019565b925050608086013567ffffffffffffffff8111156141f357600080fd5b6141ff88828901613f9b565b9150509295509295909350565b6000806040838503121561421f57600080fd5b600061422d85828601613f1d565b925050602083013567ffffffffffffffff81111561424a57600080fd5b61425685828601613fc5565b9150509250929050565b6000806040838503121561427357600080fd5b600061428185828601613f1d565b925050602061429285828601614019565b9150509250929050565b600080600080600060a086880312156142b457600080fd5b60006142c288828901613f1d565b95505060206142d388828901614019565b94505060406142e488828901614019565b93505060606142f588828901614019565b925050608061430688828901614019565b9150509295509295909350565b60008060008060008060c0878903121561432c57600080fd5b600061433a89828a01613f1d565b965050602061434b89828a01614019565b955050604061435c89828a01614019565b945050606061436d89828a01614019565b935050608061437e89828a01614019565b92505060a087013567ffffffffffffffff81111561439b57600080fd5b6143a789828a01613fc5565b9150509295509295509295565b60008060008060008060c087890312156143cd57600080fd5b60006143db89828a01613f1d565b96505060206143ec89828a01614019565b95505060406143fd89828a01614019565b945050606061440e89828a01614019565b935050608061441f89828a01614019565b92505060a061443089828a01614019565b9150509295509295509295565b60006020828403121561444f57600080fd5b600082015167ffffffffffffffff81111561446957600080fd5b61447584828501613f5c565b91505092915050565b60006020828403121561449057600080fd5b600061449e84828501613f86565b91505092915050565b6000602082840312156144b957600080fd5b600082013567ffffffffffffffff8111156144d357600080fd5b6144df84828501613fc5565b91505092915050565b6000602082840312156144fa57600080fd5b600082015167ffffffffffffffff81111561451457600080fd5b61452084828501613fef565b91505092915050565b6000806040838503121561453c57600080fd5b600083013567ffffffffffffffff81111561455657600080fd5b61456285828601613fc5565b925050602061457385828601614019565b9150509250929050565b60006020828403121561458f57600080fd5b600061459d84828501614019565b91505092915050565b6000602082840312156145b857600080fd5b60006145c68482850161402e565b91505092915050565b600080600080608085870312156145e557600080fd5b60006145f387828801614019565b945050602085013567ffffffffffffffff81111561461057600080fd5b61461c87828801613fc5565b935050604085013567ffffffffffffffff81111561463957600080fd5b61464587828801613fc5565b925050606085013567ffffffffffffffff81111561466257600080fd5b61466e87828801613fc5565b91505092959194509250565b6000806040838503121561468d57600080fd5b600061469b85828601614019565b92505060206146ac85828601614019565b9150509250929050565b60006146c283836148a4565b905092915050565b60006146d683836149a2565b6101808301905092915050565b60006146ef8383614bde565b60208301905092915050565b61470481615380565b82525050565b614713816152ff565b82525050565b614722816152ed565b82525050565b614731816152ed565b82525050565b600061474282615179565b61474c81856151cc565b93508360208202850161475e85615149565b8060005b8581101561479a578484038952815161477b85826146b6565b9450614786836151a5565b925060208a01995050600181019050614762565b50829750879550505050505092915050565b60006147b782615184565b6147c181856151dd565b93506147cc83615159565b8060005b838110156147fd5781516147e488826146ca565b97506147ef836151b2565b9250506001810190506147d0565b5085935050505092915050565b60006148158261518f565b61481f81856151ee565b935061482a83615169565b8060005b8381101561485b57815161484288826146e3565b975061484d836151bf565b92505060018101905061482e565b5085935050505092915050565b61487181615311565b82525050565b61488081615311565b82525050565b61488f8161531d565b82525050565b61489e81615392565b82525050565b60006148af8261519a565b6148b98185615210565b93506148c98185602086016153d7565b6148d2816155cd565b840191505092915050565b60006148e88261519a565b6148f28185615221565b93506149028185602086016153d7565b61490b816155cd565b840191505092915050565b60006149236002836151ff565b915061492e826155de565b602082019050919050565b6000614946604083615221565b915061495182615607565b604082019050919050565b6000614969601f83615221565b915061497482615656565b602082019050919050565b600061498c601783615221565b91506149978261567f565b602082019050919050565b610180820160008201516149b96000850182614bde565b5060208201516149cc6020850182614719565b5060408201516149df6040850182614bde565b5060608201516149f2606085018261470a565b506080820151614a05608085018261470a565b5060a0820151614a1860a0850182614bde565b5060c0820151614a2b60c0850182614bde565b5060e0820151614a3e60e0850182614bde565b50610100820151614a53610100850182614bde565b50610120820151614a68610120850182614868565b50610140820151614a7d610140850182614868565b50610160820151614a92610160850182614868565b50505050565b61018082016000820151614aaf6000850182614bde565b506020820151614ac26020850182614719565b506040820151614ad56040850182614bde565b506060820151614ae8606085018261470a565b506080820151614afb608085018261470a565b5060a0820151614b0e60a0850182614bde565b5060c0820151614b2160c0850182614bde565b5060e0820151614b3460e0850182614bde565b50610100820151614b49610100850182614bde565b50610120820151614b5e610120850182614868565b50610140820151614b73610140850182614868565b50610160820151614b88610160850182614868565b50505050565b6000606083016000830151614ba66000860182614bde565b5060208301518482036020860152614bbe82826148a4565b9150506040830151614bd36040860182614719565b508091505092915050565b614be781615369565b82525050565b614bf681615369565b82525050565b6000608082019050614c1160008301876146fb565b614c1e6020830186614728565b614c2b6040830185614bed565b614c386060830184614877565b95945050505050565b6000606082019050614c566000830186614728565b614c636020830185614728565b614c706040830184614bed565b949350505050565b600060a082019050614c8d6000830187614728565b614c9a6020830186614728565b614ca76040830185614bed565b614cb46060830184614895565b8181036080830152614cc581614916565b905095945050505050565b600061012082019050614ce6600083018c614728565b614cf3602083018b614728565b614d00604083018a614bed565b614d0d6060830189614895565b614d1a6080830188614bed565b614d2760a0830187614bed565b614d3460c0830186614877565b614d4160e0830185614877565b614d4f610100830184614877565b9a9950505050505050505050565b600060a082019050614d726000830187614728565b614d7f6020830186614728565b614d8c6040830185614bed565b614d996060830184614bed565b8181036080830152614daa81614916565b905095945050505050565b600061012082019050614dcb600083018c614728565b614dd8602083018b614728565b614de5604083018a614bed565b614df26060830189614bed565b614dff6080830188614bed565b614e0c60a0830187614bed565b614e1960c0830186614877565b614e2660e0830185614877565b614e34610100830184614877565b9a9950505050505050505050565b600060a082019050614e576000830188614728565b614e646020830187614bed565b8181036040830152614e7681866148dd565b90508181036060830152614e8a81856148dd565b90508181036080830152614e9e81846148dd565b90509695505050505050565b6000606082019050614ebf6000830186614728565b614ecc6020830185614bed565b614ed96040830184614bed565b949350505050565b60006020820190508181036000830152614efb8184614737565b905092915050565b60006020820190508181036000830152614f1d81846147ac565b905092915050565b60006020820190508181036000830152614f3f818461480a565b905092915050565b6000602082019050614f5c6000830184614877565b92915050565b6000602082019050614f776000830184614886565b92915050565b60006020820190508181036000830152614f9781846148dd565b905092915050565b60006020820190508181036000830152614fb881614939565b9050919050565b60006020820190508181036000830152614fd88161495c565b9050919050565b60006020820190508181036000830152614ff88161497f565b9050919050565b6000610180820190506150156000830184614a98565b92915050565b600060208201905081810360008301526150358184614b8e565b905092915050565b60006020820190506150526000830184614bed565b92915050565b600060608201905061506d6000830186614bed565b818103602083015261507f81856148dd565b905061508e6040830184614728565b949350505050565b60006150a06150b1565b90506150ac828261543c565b919050565b6000604051905090565b600067ffffffffffffffff8211156150d6576150d561559e565b5b602082029050602081019050919050565b600067ffffffffffffffff8211156151025761510161559e565b5b61510b826155cd565b9050602081019050919050565b600067ffffffffffffffff8211156151335761513261559e565b5b61513c826155cd565b9050602081019050919050565b6000819050602082019050919050565b6000819050602082019050919050565b6000819050602082019050919050565b600081519050919050565b600081519050919050565b600081519050919050565b600081519050919050565b6000602082019050919050565b6000602082019050919050565b6000602082019050919050565b600082825260208201905092915050565b600082825260208201905092915050565b600082825260208201905092915050565b600082825260208201905092915050565b600082825260208201905092915050565b600082825260208201905092915050565b600061523d82615369565b915061524883615369565b9250827fffffffffffffffffffffffffffffffffffffffffffffffffffffffffffffffff0382111561527d5761527c615511565b5b828201905092915050565b600061529382615369565b915061529e83615369565b9250826152ae576152ad615540565b5b828204905092915050565b60006152c482615369565b91506152cf83615369565b9250828210156152e2576152e1615511565b5b828203905092915050565b60006152f882615349565b9050919050565b600061530a82615349565b9050919050565b60008115159050919050565b60007fffffffff0000000000000000000000000000000000000000000000000000000082169050919050565b600073ffffffffffffffffffffffffffffffffffffffff82169050919050565b6000819050919050565b600060ff82169050919050565b600061538b826153a4565b9050919050565b600061539d82615369565b9050919050565b60006153af826153b6565b9050919050565b60006153c182615349565b9050919050565b82818337600083830152505050565b60005b838110156153f55780820151818401526020810190506153da565b83811115615404576000848401525b50505050565b6000600282049050600182168061542257607f821691505b602082108114156154365761543561556f565b5b50919050565b615445826155cd565b810181811067ffffffffffffffff821117156154645761546361559e565b5b80604052505050565b600061547882615369565b91507fffffffffffffffffffffffffffffffffffffffffffffffffffffffffffffffff8214156154ab576154aa615511565b5b600182019050919050565b60006154c182615373565b915060ff8214156154d5576154d4615511565b5b600182019050919050565b60006154eb82615369565b91506154f683615369565b92508261550657615505615540565b5b828206905092915050565b7f4e487b7100000000000000000000000000000000000000000000000000000000600052601160045260246000fd5b7f4e487b7100000000000000000000000000000000000000000000000000000000600052601260045260246000fd5b7f4e487b7100000000000000000000000000000000000000000000000000000000600052602260045260246000fd5b7f4e487b7100000000000000000000000000000000000000000000000000000000600052604160045260246000fd5b6000601f19601f8301169050919050565b7f5b5d000000000000000000000000000000000000000000000000000000000000600082015250565b7f506c65617365207375626d6974207468652061736b696e67207072696365206960008201527f6e206f7264657220746f20636f6d706c65746520746865207075726368617365602082015250565b7f5265656e7472616e637947756172643a207265656e7472616e742063616c6c00600082015250565b7f5573657220416c72656164792072656769737465726564000000000000000000600082015250565b6156b1816152ed565b81146156bc57600080fd5b50565b6156c88161531d565b81146156d357600080fd5b50565b6156df81615369565b81146156ea57600080fd5b5056fea2646970667358221220eb6a9ce5f36b3b96cb9d2e38c309981433743de96236305e3b37219000b6101264736f6c63430008030033",
  "immutableReferences": {},
  "source": "// \"SPDX-License-Identifier: UNLICENSED\"\r\npragma solidity ^ 0.8 .3;\r\n\r\nimport \"./ACHouseToken1155.sol\";\r\nimport \"./ACHouseToken721.sol\";\r\n\r\nimport \"@openzeppelin/contracts/utils/Counters.sol\";\r\nimport \"@openzeppelin/contracts/security/ReentrancyGuard.sol\";\r\n\r\n\r\nimport \"@openzeppelin/contracts/token/ERC721/utils/ERC721Holder.sol\";\r\nimport \"@openzeppelin/contracts/token/ERC1155/utils/ERC1155Holder.sol\";\r\n\r\ncontract ACHouse is ReentrancyGuard, ERC1155Holder, ERC721Holder {\r\n  using Counters for Counters.Counter;\r\n  Counters.Counter private _itemIds;\r\n  Counters.Counter private _itemsSold;\r\n  Counters.Counter private _fracItemIds;\r\n  Counters.Counter private _ngoIds;\r\n\r\n  address owner;\r\n\r\n  ACHouseToken1155 _multiToken;\r\n  ACHouseToken721 _nftToken;\r\n\r\n  MarketItem[] mItems;\r\n\r\n  /** Variables and Event Emitters */\r\n  struct AuctionPlace {\r\n    uint256 id;\r\n    string name;\r\n  } \r\n  struct Artist {\r\n    uint256 id;\r\n    string name;\r\n  }\r\n  struct Participant {\r\n    uint256 id;\r\n    string name;\r\n  }\r\n  struct NGO {\r\n    uint256 id;\r\n    string name;\r\n    address charityAddress;\r\n  }\r\n\r\n  uint auctionPlaceCount = 0;\r\n  uint artistCount = 0;\r\n  uint participantCount = 0;\r\n  uint ngoCount = 0;\r\n  NGO[] public ngoArray;\r\n  address[] RegisteredUserAddresses; // might be used??\r\n\r\n  // mapping address to type\r\n  mapping(address => AuctionPlace) AuctionPlaceMapping;\r\n  mapping(address => Artist) ArtistMapping;\r\n  mapping(address => Participant) ParticipantMapping;\r\n\r\n  mapping(uint256 => NGO) NgoMapping;\r\n  // User address maps to - Chaities and the donation amount. \r\n  mapping(address => mapping(address => uint256)) UserNGODonation;\r\n\r\n  struct MarketItem {\r\n    uint itemId;\r\n    address nftContract;\r\n    uint256 tokenId;\r\n    address payable seller;\r\n    address payable owner;\r\n    uint256 price;\r\n    uint256 amount;\r\n    uint256 charityId;\r\n    uint256 auctionTime;\r\n    bool sold;\r\n    bool isMultiToken;\r\n    bool isRemoved;\r\n  }\r\n\r\n  mapping(uint256 => MarketItem) private idToMarketItem;\r\n  \r\n  //user mapping to itemSold array\r\n  mapping( address => uint256[]) userSoldItemMapping;\r\n  //user sold count mapp;\r\n  mapping ( address => uint256) userSoldCountMapping;\r\n  //user mapping to purchased item  array\r\n  mapping( address => uint256[]) userpurchasedItemMapping;\r\n  //user purchased count mapp;\r\n  mapping ( address => uint256) userPurchasedCountMapping;\r\n  \r\n  event MarketItemCreated(uint indexed itemId, address indexed nftContract, uint256 indexed tokenId, \r\n    address seller, address owner, uint256 price, uint256 amount, uint256 charityId, uint256 auctionTime, bool sold, bool isMultiToken, bool isRemoved);\r\n  \r\n  event MarketItemSold(uint indexed itemId, address indexed nftContract, uint256 indexed tokenId, \r\n    address seller, address owner, uint256 price, bool sold);\r\n\r\n  /*******************fractionalize NFT */\r\n  struct FractionalizeToken {\r\n    uint itemId;\r\n    address nftContract;\r\n    uint256 tokenId;\r\n    address payable seller;\r\n    address payable owner;\r\n    address fractionalContract;\r\n    uint256 shardId;\r\n    uint256 priceOfShard;\r\n    uint256 supplyMinted;\r\n    uint256 supplyRemaining;\r\n  }\r\n  // id to fracToken\r\n  mapping(uint256 => FractionalizeToken) idToFracToken;\r\n  //user purchase to id to amount purchased\r\n  mapping (address => mapping(uint256 => uint256)) userShardPurchaseAmount;\r\n  \r\n  string[] itemIdStr;\r\n    \r\n\r\n  constructor(address _mToken, address _nToken) {\r\n    _multiToken = ACHouseToken1155(_mToken);\r\n    _nftToken = ACHouseToken721(_nToken);\r\n    \r\n    _multiToken.setParentAddress(address(this));\r\n    _nftToken.setParentAddress(address(this));\r\n    owner = payable(msg.sender);\r\n  }\r\n\r\n  function addCharity(address charityAddress, string memory name) public {\r\n    _ngoIds.increment();\r\n    uint256 id = _ngoIds.current();\r\n    NGO memory charity = NGO(id, name, charityAddress);\r\n\r\n    NgoMapping[id] = charity;\r\n  }\r\n\r\n  function getCharityInfo(uint256 _id) public view returns(NGO memory) {\r\n    return NgoMapping[_id];\r\n  }\r\n  \r\n  /***************************************************************************************************************************************/\r\n  /**MarketPlace functionality */\r\n  function create1155MarketItem(address nftContract, uint256 tokenId, uint256 price, uint256 amount, uint256 _charityId, uint256 auctionTime) public payable nonReentrant returns (uint256){\r\n    //   require(price > 0, \"Price must be at least 1 wei\");\r\n    //   require(msg.value == listingPrice, \"Price must be equal to l_charityId\r\n\r\n    _itemIds.increment();\r\n    uint256 itemId = _itemIds.current();\r\n    \r\n    MarketItem memory item = MarketItem(itemId, nftContract, tokenId, payable(msg.sender), payable(address(0)), price, 1, _charityId, auctionTime, false, true, false); // amount will always be 1. \r\n    idToMarketItem[itemId] = item;\r\n\r\n    IERC1155(nftContract).safeTransferFrom(msg.sender, address(this), tokenId, amount, '[]');\r\n\r\n    emit MarketItemCreated(itemId, nftContract, tokenId, msg.sender, address(0), price, amount, _charityId, auctionTime, false, true, false);\r\n\r\n    return itemId;\r\n  }\r\n\r\n  function create721MarketItem(address nftContract, uint256 tokenId, uint256 price, uint256 _charityId, uint256 auctionTime ) public payable nonReentrant returns (uint256){\r\n    // require(price > 0, \"Price must be at least 1 wei\");\r\n    // require(msg.value == listingPrice, \"Price must be equal to listing price\");\r\n\r\n    _itemIds.increment();\r\n    uint256 itemId = _itemIds.current();\r\n\r\n    MarketItem memory item = MarketItem(itemId, nftContract, tokenId, payable(msg.sender), payable(address(0)), price, 1, _charityId, auctionTime, false, true, false); // amount will always be 1. \r\n    idToMarketItem[itemId] = item;\r\n\r\n    IERC721(nftContract).transferFrom(msg.sender, address(this), tokenId);\r\n\r\n    emit MarketItemCreated(itemId, nftContract, tokenId, msg.sender, address(0), price, 1, _charityId, auctionTime, false, false, false);\r\n\r\n    return itemId;\r\n  }\r\n  \r\n  // Remove item from marketplace\r\n  function removeMarketPlaceItem( uint256 itemId) public {\r\n      \r\n      idToMarketItem[itemId].isRemoved = true;\r\n  }\r\n  \r\n  // re add item to marketplace\r\n  function addMarketPlaceItem( uint256 itemId) public {\r\n      \r\n      idToMarketItem[itemId].isRemoved = false;\r\n  }\r\n  \r\n  /* Creates the sale of a marketplace item */\r\n  /* Transfers ownership of the item, as well as funds between parties */\r\n  function createMarketSale(address nftContract, uint256 itemId) public payable nonReentrant {\r\n    \r\n    MarketItem memory item = idToMarketItem[itemId];\r\n    \r\n    uint price = item.price;\r\n    uint tokenId = item.tokenId;\r\n    bool isMultiToken = item.isMultiToken;\r\n    require(msg.value == price, \"Please submit the asking price in order to complete the purchase\");\r\n\r\n    // transfer funds\r\n    item.seller.transfer(msg.value);\r\n\r\n    //transfer ownership.\r\n    if(isMultiToken){\r\n      IERC1155(nftContract).safeTransferFrom(address(this), msg.sender, item.tokenId, item.amount, '[]');\r\n    }else{\r\n      IERC721(nftContract).transferFrom(address(this), msg.sender, tokenId);\r\n    }\r\n    \r\n    //set new owner inrecords.\r\n    item.owner = payable(msg.sender);\r\n    //set sold to true\r\n    item.sold = true;\r\n    //increament itemSold counter.\r\n    _itemsSold.increment();\r\n    \r\n    idToMarketItem[itemId] = item;\r\n    // mapp user address to itemSold [] and purchased[]\r\n    userSoldItemMapping[item.seller].push(itemId);\r\n    \r\n    //user mapping to purchased item  array\r\n    userpurchasedItemMapping[msg.sender].push(itemId);\r\n\r\n    emit MarketItemSold( itemId, nftContract, tokenId, item.seller, msg.sender, price, true);\r\n  }\r\n\r\n  function fetchMarketItem(uint256 _id) public view returns(MarketItem memory){\r\n    return idToMarketItem[_id];\r\n  }\r\n\r\n  /* Returns all unsold market items */\r\n  function fetchUnSoldMarketItems() public returns(string[] memory) {\r\n    \r\n    // uint totalUnSoldCount = _itemIds.current() - _itemsSold.current();\r\n    // MarketItem[] memory items = new MarketItem[] (totalUnSoldCount);\r\n    \r\n    uint unsoldCurrentIndex = 0;\r\n    \r\n    uint totalItemCount = _itemIds.current();\r\n      \r\n    for(uint i=0; i < totalItemCount; i++){\r\n        // only way i found to iterate through a mapping. \r\n        if(idToMarketItem[i+1].owner == address(0) && idToMarketItem[i+1].isRemoved == false ) { \r\n            uint currentID = i+1;\r\n            // items[unsoldCurrentIndex] = idToMarketItem[currentID];\r\n            \r\n            uint itemId =idToMarketItem[currentID].itemId;\r\n            string memory str =  uint2str(itemId);\r\n            \r\n            itemIdStr.push(str);\r\n            \r\n            unsoldCurrentIndex +=1;\r\n        }\r\n    }\r\n    \r\n    return itemIdStr; \r\n  }\r\n\r\n  /* Returns only items that a user has purchased */\r\n  function fetchMyNFTs() public view returns (MarketItem[] memory) {\r\n    \r\n    uint256[] memory userPurchasedIds = userpurchasedItemMapping[msg.sender];\r\n    \r\n    \r\n    MarketItem[] memory items = new MarketItem[](userPurchasedIds.length);\r\n    for(uint i =0; i< userPurchasedIds.length; i++){\r\n        \r\n        // MarketItem memory item = idToMarketItem[userPurchasedIds[i]];\r\n        \r\n        items[i] = idToMarketItem[userPurchasedIds[i]];\r\n    }\r\n    return items;\r\n  }\r\n\r\n  function fetchMyItemSold() public view returns (uint256[] memory){\r\n    return userSoldItemMapping[msg.sender];\r\n  }\r\n\r\n  /* Returns only items a user has created */\r\n  function fetchItemsCreated() public view returns (MarketItem[] memory) {\r\n    //get total item count - created nin MarketItem.\r\n    uint totalItemCount = _itemIds.current();\r\n    uint itemCount = 0;\r\n    \r\n    for (uint i = 0; i < totalItemCount; i++) {\r\n      if (idToMarketItem[i + 1].seller == msg.sender) {\r\n        itemCount += 1;\r\n      }\r\n    }\r\n\r\n    MarketItem[] memory items = new MarketItem[](itemCount);\r\n    uint currentIndex = 0;\r\n    \r\n    for (uint i = 0; i < totalItemCount; i++) {\r\n      if (idToMarketItem[i + 1].seller == msg.sender) {\r\n        uint currentId = i + 1;\r\n        MarketItem storage currentItem = idToMarketItem[currentId];\r\n        items[currentIndex] = currentItem;\r\n        currentIndex += 1;\r\n      }\r\n    }\r\n    return items;\r\n  }\r\n  \r\n  /***************************************************************************************************************************************/\r\n  /**Functions - Registration  */\r\n  function register(string memory _name, uint _userType) public returns(bool) {\r\n    require(isUserRegistered(msg.sender) == false, \"User Already registered\");\r\n\r\n    //userType { 1: Auction, 2: Artist, 3: Participant}\r\n    // register user by type\r\n    if (_userType == 1) {\r\n      AuctionPlace memory ac = AuctionPlace(auctionPlaceCount, _name);\r\n      auctionPlaceCount++;\r\n\r\n      AuctionPlaceMapping[msg.sender] = ac;\r\n    } else if (_userType == 2) {\r\n      Artist memory ar = Artist(artistCount, _name);\r\n      artistCount++;\r\n\r\n      ArtistMapping[msg.sender] = ar;\r\n    } else {\r\n      Participant memory part = Participant(participantCount, _name);\r\n      participantCount++;\r\n\r\n      ParticipantMapping[msg.sender] = part;\r\n    }\r\n\r\n    RegisteredUserAddresses.push(msg.sender);\r\n    return true;\r\n  }\r\n\r\n  /**ERC1155 functionality ***********************************************/\r\n  function setURI1155(string memory _uri) public {\r\n    _multiToken.setURI(_uri);\r\n  }\r\n\r\n  function getTokenURI(uint256 _tokenId) public view returns(string memory){\r\n    return _multiToken.getTokenURI(_tokenId);\r\n  }\r\n  // mint 1155 NFT - set supply to 1. \r\n  function createNFT1155(uint256 _id, uint256 _amount) public {\r\n    _multiToken.mintNFT(msg.sender, _id, _amount);\r\n  }\r\n\r\n  //get tokens totalnumber. \r\n  function getTokenCount() public view returns(uint256) {\r\n    return _multiToken.getTokenCount();\r\n  }\r\n  //returns the array of all tokenids. \r\n  function getTokenIds() public view returns(uint256[] memory) {\r\n    return _multiToken.getTokenIds();\r\n  }\r\n\r\n  function getTokenSupply(uint256 _tokenId) public view returns(uint256) {\r\n    return _multiToken.getTotalSupplyOfToken(_tokenId);\r\n  }\r\n\r\n  /*************Fractional NFT */\r\n\r\n  //hold NFT and trasnfer ownership to ACHouse. \r\n  // ACHouse will mint 1155 then set it to orig owner of nft. \r\n  function fractionalize1155NFT(address nftContract, uint256 tokenId, uint256 shardId, uint256 priceOfShard, uint256 supplyToCreate, string memory uri) public returns (uint256) {\r\n    _fracItemIds.increment();\r\n    uint fracId = _fracItemIds.current();\r\n\r\n    FractionalizeToken memory fracItem = FractionalizeToken(fracId, nftContract, tokenId, payable(msg.sender), \r\n      payable(address(0)), address(_multiToken), shardId, priceOfShard, supplyToCreate, supplyToCreate); // supplyMinted and SupplyRemaining will be set as same for now. \r\n    \r\n    idToFracToken[fracId] = fracItem;\r\n\r\n    //get ownership of nftContract and its token.\r\n    IERC1155(nftContract).safeTransferFrom(msg.sender, address(this), tokenId, 1, '[]');\r\n    \r\n    //Mint 1155 fungible tokens. \r\n    setURI1155(uri); // call functiont to set uRL in 1155 token\r\n    _multiToken.mintNFT(msg.sender, fracId, supplyToCreate); //shard tokens created and ownership set to msg.sender ( person who decided to frac nft.)\r\n    return fracId;\r\n  }\r\n\r\n  function fractionalize721NFT(address nftContract, uint256 tokenId, uint256 shardId, uint256 priceOfShard, uint256 supplyToCreate, string memory uri) public returns (uint256) {\r\n    _fracItemIds.increment();\r\n    uint fracId = _fracItemIds.current();\r\n    \r\n     FractionalizeToken memory fracItem = FractionalizeToken(fracId, nftContract, tokenId, payable(msg.sender), \r\n      payable(address(0)), address(_multiToken), shardId, priceOfShard, supplyToCreate, supplyToCreate); // supplyMinted and SupplyRemaining will be set as same for now. \r\n    \r\n    idToFracToken[fracId] = fracItem;\r\n\r\n    //get ownership of nftContract and its token.\r\n    IERC721(nftContract).transferFrom(msg.sender, address(this), tokenId);\r\n\r\n    //Mint 1155 fungible tokens.\r\n    setURI1155(uri); // call functiont to set uRL in 1155 token\r\n    _multiToken.mintNFT(msg.sender, fracId, supplyToCreate); //shard tokens created and ownership set to msg.sender ( person who decided to frac nft.)\r\n    return fracId;\r\n  }\r\n  \r\n  /**ERC721 functionzlity *************************************************/\r\n  // mint 721 NFT - set supply to 1. \r\n  function createNFT721(uint256 _id, string memory uri, string memory name, string memory symbol) public {\r\n    _nftToken.mintNFT(msg.sender, _id, uri, name, symbol);\r\n  }\r\n\r\n  //get tokens totalnumber. \r\n  function get721TokenCount() public view returns(uint256) {\r\n    return _nftToken.getTokenCount();\r\n  }\r\n  //returns the array of all tokenids. \r\n  function get721TokenIds() public view returns(uint256[] memory) {\r\n    return _nftToken.getTokenIds();\r\n  }\r\n\r\n  function get721TokenName(uint256 _id) public view returns(string memory){\r\n    return _nftToken.getTokenName(_id);\r\n  }\r\n\r\n  function get721TokenSymbol(uint256 _id) public view returns(string memory){\r\n    return _nftToken.getTokenSymbol(_id);\r\n  }\r\n\r\n  function get721TokenURI(uint256 _id) public view returns(string memory) {\r\n    return _nftToken.getTokenUri(_id);\r\n  }\r\n\r\n  /**Helpers */\r\n  function isUserRegistered(address _address) internal view returns(bool) {\r\n    for (uint8 j = 0; j < RegisteredUserAddresses.length; j++) {\r\n      if (RegisteredUserAddresses[j] == _address) {\r\n        return (true); // user is registered.\r\n      }\r\n    }\r\n    return (false); // user is not registered.\r\n  }\r\n  \r\n   function uint2str(uint v) public pure returns (string memory) {\r\n        if(v == 0){\r\n            return '0';\r\n        }\r\n        uint maxlength = 100;\r\n        bytes memory reversed = new bytes(maxlength);\r\n        uint i = 0;\r\n        while (v != 0) {\r\n            uint remainder = v % 10;\r\n            v = v / 10;\r\n            reversed[i++] = bytes1(uint8(48 + remainder));\r\n        }\r\n        bytes memory s = new bytes(i); // i + 1 is inefficient\r\n        for (uint j = 0; j < i; j++) {\r\n            s[j] = reversed[i - j - 1]; // to avoid the off-by-one error\r\n        }\r\n        string memory str = string(s);  // memory isn't implicitly convertible to storage\r\n        return str;\r\n    }\r\n  \r\n}",
  "sourcePath": "C:/Users/sendm/OneDrive/Desktop/HeartDrops/contracts/ACHouse.sol",
  "compiler": {
    "name": "solc",
    "version": "0.8.3+commit.8d00100c.Emscripten.clang"
  },
  "schemaVersion": "3.4.1",
  "updatedAt": "2021-10-08T21:42:52.413Z",
  "networkType": "ethereum",
  "devdoc": {
    "kind": "dev",
    "methods": {
      "onERC721Received(address,address,uint256,bytes)": {
        "details": "See {IERC721Receiver-onERC721Received}. Always returns `IERC721Receiver.onERC721Received.selector`."
      },
      "supportsInterface(bytes4)": {
        "details": "See {IERC165-supportsInterface}."
      }
    },
    "version": 1
  },
  "userdoc": {
    "kind": "user",
    "methods": {
      "create1155MarketItem(address,uint256,uint256,uint256,uint256,uint256)": {
        "notice": "MarketPlace functionality "
      },
      "createNFT721(uint256,string,string,string)": {
        "notice": "ERC721 functionzlity ************************************************"
      },
      "register(string,uint256)": {
        "notice": "Functions - Registration  "
      },
      "setURI1155(string)": {
        "notice": "ERC1155 functionality **********************************************"
      }
    },
    "version": 1
  }
}