{
  "contractName": "ACHouse",
  "abi": [
    {
      "inputs": [
        {
          "internalType": "address",
          "name": "_mToken",
          "type": "address"
        },
        {
          "internalType": "address",
          "name": "_nToken",
          "type": "address"
        }
      ],
      "stateMutability": "nonpayable",
      "type": "constructor"
    },
    {
      "anonymous": false,
      "inputs": [
        {
          "indexed": true,
          "internalType": "uint256",
          "name": "itemId",
          "type": "uint256"
        },
        {
          "indexed": true,
          "internalType": "address",
          "name": "nftContract",
          "type": "address"
        },
        {
          "indexed": true,
          "internalType": "uint256",
          "name": "tokenId",
          "type": "uint256"
        },
        {
          "indexed": false,
          "internalType": "address",
          "name": "seller",
          "type": "address"
        },
        {
          "indexed": false,
          "internalType": "address",
          "name": "fractionalContract",
          "type": "address"
        },
        {
          "indexed": false,
          "internalType": "uint256",
          "name": "shardId",
          "type": "uint256"
        },
        {
          "indexed": false,
          "internalType": "uint256",
          "name": "supplyMinted",
          "type": "uint256"
        },
        {
          "indexed": false,
          "internalType": "uint256",
          "name": "supplyRemaining",
          "type": "uint256"
        },
        {
          "indexed": false,
          "internalType": "bool",
          "name": "isMultiToken",
          "type": "bool"
        }
      ],
      "name": "FractionalTokenCreated",
      "type": "event"
    },
    {
      "anonymous": false,
      "inputs": [
        {
          "indexed": true,
          "internalType": "uint256",
          "name": "itemId",
          "type": "uint256"
        },
        {
          "indexed": true,
          "internalType": "address",
          "name": "nftContract",
          "type": "address"
        },
        {
          "indexed": true,
          "internalType": "uint256",
          "name": "tokenId",
          "type": "uint256"
        },
        {
          "indexed": false,
          "internalType": "address",
          "name": "seller",
          "type": "address"
        },
        {
          "indexed": false,
          "internalType": "uint256",
          "name": "price",
          "type": "uint256"
        },
        {
          "indexed": false,
          "internalType": "uint256",
          "name": "amount",
          "type": "uint256"
        },
        {
          "indexed": false,
          "internalType": "uint256",
          "name": "charityId",
          "type": "uint256"
        },
        {
          "indexed": false,
          "internalType": "uint256",
          "name": "auctionTime",
          "type": "uint256"
        },
        {
          "indexed": false,
          "internalType": "bool",
          "name": "sold",
          "type": "bool"
        },
        {
          "indexed": false,
          "internalType": "bool",
          "name": "isMultiToken",
          "type": "bool"
        },
        {
          "indexed": false,
          "internalType": "bool",
          "name": "isRemoved",
          "type": "bool"
        },
        {
          "indexed": false,
          "internalType": "bool",
          "name": "isFrac",
          "type": "bool"
        }
      ],
      "name": "MarketItemCreated",
      "type": "event"
    },
    {
      "anonymous": false,
      "inputs": [
        {
          "indexed": true,
          "internalType": "uint256",
          "name": "itemId",
          "type": "uint256"
        },
        {
          "indexed": true,
          "internalType": "address",
          "name": "nftContract",
          "type": "address"
        },
        {
          "indexed": true,
          "internalType": "uint256",
          "name": "tokenId",
          "type": "uint256"
        },
        {
          "indexed": false,
          "internalType": "address",
          "name": "seller",
          "type": "address"
        },
        {
          "indexed": false,
          "internalType": "address",
          "name": "owner",
          "type": "address"
        },
        {
          "indexed": false,
          "internalType": "uint256",
          "name": "price",
          "type": "uint256"
        },
        {
          "indexed": false,
          "internalType": "bool",
          "name": "sold",
          "type": "bool"
        }
      ],
      "name": "MarketItemSold",
      "type": "event"
    },
    {
      "inputs": [
        {
          "internalType": "uint256",
          "name": "",
          "type": "uint256"
        }
      ],
      "name": "ngoArray",
      "outputs": [
        {
          "internalType": "uint256",
          "name": "id",
          "type": "uint256"
        },
        {
          "internalType": "string",
          "name": "name",
          "type": "string"
        },
        {
          "internalType": "address",
          "name": "charityAddress",
          "type": "address"
        }
      ],
      "stateMutability": "view",
      "type": "function",
      "constant": true
    },
    {
      "inputs": [
        {
          "internalType": "address",
          "name": "",
          "type": "address"
        },
        {
          "internalType": "address",
          "name": "",
          "type": "address"
        },
        {
          "internalType": "uint256[]",
          "name": "",
          "type": "uint256[]"
        },
        {
          "internalType": "uint256[]",
          "name": "",
          "type": "uint256[]"
        },
        {
          "internalType": "bytes",
          "name": "",
          "type": "bytes"
        }
      ],
      "name": "onERC1155BatchReceived",
      "outputs": [
        {
          "internalType": "bytes4",
          "name": "",
          "type": "bytes4"
        }
      ],
      "stateMutability": "nonpayable",
      "type": "function"
    },
    {
      "inputs": [
        {
          "internalType": "address",
          "name": "",
          "type": "address"
        },
        {
          "internalType": "address",
          "name": "",
          "type": "address"
        },
        {
          "internalType": "uint256",
          "name": "",
          "type": "uint256"
        },
        {
          "internalType": "uint256",
          "name": "",
          "type": "uint256"
        },
        {
          "internalType": "bytes",
          "name": "",
          "type": "bytes"
        }
      ],
      "name": "onERC1155Received",
      "outputs": [
        {
          "internalType": "bytes4",
          "name": "",
          "type": "bytes4"
        }
      ],
      "stateMutability": "nonpayable",
      "type": "function"
    },
    {
      "inputs": [
        {
          "internalType": "address",
          "name": "",
          "type": "address"
        },
        {
          "internalType": "address",
          "name": "",
          "type": "address"
        },
        {
          "internalType": "uint256",
          "name": "",
          "type": "uint256"
        },
        {
          "internalType": "bytes",
          "name": "",
          "type": "bytes"
        }
      ],
      "name": "onERC721Received",
      "outputs": [
        {
          "internalType": "bytes4",
          "name": "",
          "type": "bytes4"
        }
      ],
      "stateMutability": "nonpayable",
      "type": "function"
    },
    {
      "inputs": [
        {
          "internalType": "bytes4",
          "name": "interfaceId",
          "type": "bytes4"
        }
      ],
      "name": "supportsInterface",
      "outputs": [
        {
          "internalType": "bool",
          "name": "",
          "type": "bool"
        }
      ],
      "stateMutability": "view",
      "type": "function",
      "constant": true
    },
    {
      "inputs": [
        {
          "internalType": "address",
          "name": "charityAddress",
          "type": "address"
        },
        {
          "internalType": "string",
          "name": "name",
          "type": "string"
        }
      ],
      "name": "addCharity",
      "outputs": [],
      "stateMutability": "nonpayable",
      "type": "function"
    },
    {
      "inputs": [
        {
          "internalType": "uint256",
          "name": "_id",
          "type": "uint256"
        }
      ],
      "name": "getCharityInfo",
      "outputs": [
        {
          "components": [
            {
              "internalType": "uint256",
              "name": "id",
              "type": "uint256"
            },
            {
              "internalType": "string",
              "name": "name",
              "type": "string"
            },
            {
              "internalType": "address",
              "name": "charityAddress",
              "type": "address"
            }
          ],
          "internalType": "struct ACHouse.NGO",
          "name": "",
          "type": "tuple"
        }
      ],
      "stateMutability": "view",
      "type": "function",
      "constant": true
    },
    {
      "inputs": [
        {
          "internalType": "address",
          "name": "nftContract",
          "type": "address"
        },
        {
          "internalType": "uint256",
          "name": "tokenId",
          "type": "uint256"
        },
        {
          "internalType": "uint256",
          "name": "price",
          "type": "uint256"
        },
        {
          "internalType": "uint256",
          "name": "amount",
          "type": "uint256"
        },
        {
          "internalType": "uint256",
          "name": "_charityId",
          "type": "uint256"
        },
        {
          "internalType": "uint256",
          "name": "auctionTime",
          "type": "uint256"
        },
        {
          "internalType": "bool",
          "name": "isFrac",
          "type": "bool"
        }
      ],
      "name": "create1155MarketItem",
      "outputs": [
        {
          "internalType": "uint256",
          "name": "",
          "type": "uint256"
        }
      ],
      "stateMutability": "payable",
      "type": "function",
      "payable": true
    },
    {
      "inputs": [
        {
          "internalType": "address",
          "name": "nftContract",
          "type": "address"
        },
        {
          "internalType": "uint256",
          "name": "tokenId",
          "type": "uint256"
        },
        {
          "internalType": "uint256",
          "name": "price",
          "type": "uint256"
        },
        {
          "internalType": "uint256",
          "name": "_charityId",
          "type": "uint256"
        },
        {
          "internalType": "uint256",
          "name": "auctionTime",
          "type": "uint256"
        },
        {
          "internalType": "bool",
          "name": "isFrac",
          "type": "bool"
        }
      ],
      "name": "create721MarketItem",
      "outputs": [
        {
          "internalType": "uint256",
          "name": "",
          "type": "uint256"
        }
      ],
      "stateMutability": "payable",
      "type": "function",
      "payable": true
    },
    {
      "inputs": [
        {
          "internalType": "uint256",
          "name": "itemId",
          "type": "uint256"
        }
      ],
      "name": "removeMarketPlaceItem",
      "outputs": [],
      "stateMutability": "nonpayable",
      "type": "function"
    },
    {
      "inputs": [
        {
          "internalType": "uint256",
          "name": "itemId",
          "type": "uint256"
        }
      ],
      "name": "addMarketPlaceItem",
      "outputs": [],
      "stateMutability": "nonpayable",
      "type": "function"
    },
    {
      "inputs": [
        {
          "internalType": "address",
          "name": "nftContract",
          "type": "address"
        },
        {
          "internalType": "uint256",
          "name": "itemId",
          "type": "uint256"
        }
      ],
      "name": "createMarketSale",
      "outputs": [],
      "stateMutability": "payable",
      "type": "function",
      "payable": true
    },
    {
      "inputs": [
        {
          "internalType": "uint256",
          "name": "_id",
          "type": "uint256"
        }
      ],
      "name": "fetchMarketItem",
      "outputs": [
        {
          "components": [
            {
              "internalType": "uint256",
              "name": "itemId",
              "type": "uint256"
            },
            {
              "internalType": "address",
              "name": "nftContract",
              "type": "address"
            },
            {
              "internalType": "uint256",
              "name": "tokenId",
              "type": "uint256"
            },
            {
              "internalType": "address payable",
              "name": "seller",
              "type": "address"
            },
            {
              "internalType": "address payable",
              "name": "owner",
              "type": "address"
            },
            {
              "internalType": "uint256",
              "name": "price",
              "type": "uint256"
            },
            {
              "internalType": "uint256",
              "name": "amount",
              "type": "uint256"
            },
            {
              "internalType": "uint256",
              "name": "charityId",
              "type": "uint256"
            },
            {
              "internalType": "uint256",
              "name": "auctionTime",
              "type": "uint256"
            },
            {
              "internalType": "bool",
              "name": "sold",
              "type": "bool"
            },
            {
              "internalType": "bool",
              "name": "isMultiToken",
              "type": "bool"
            },
            {
              "internalType": "bool",
              "name": "isRemoved",
              "type": "bool"
            },
            {
              "internalType": "bool",
              "name": "isFrac",
              "type": "bool"
            }
          ],
          "internalType": "struct ACHouse.MarketItem",
          "name": "",
          "type": "tuple"
        }
      ],
      "stateMutability": "view",
      "type": "function",
      "constant": true
    },
    {
      "inputs": [],
      "name": "fetchUnSoldMarketItems",
      "outputs": [
        {
          "components": [
            {
              "internalType": "uint256",
              "name": "itemId",
              "type": "uint256"
            },
            {
              "internalType": "address",
              "name": "nftContract",
              "type": "address"
            },
            {
              "internalType": "uint256",
              "name": "tokenId",
              "type": "uint256"
            },
            {
              "internalType": "address payable",
              "name": "seller",
              "type": "address"
            },
            {
              "internalType": "address payable",
              "name": "owner",
              "type": "address"
            },
            {
              "internalType": "uint256",
              "name": "price",
              "type": "uint256"
            },
            {
              "internalType": "uint256",
              "name": "amount",
              "type": "uint256"
            },
            {
              "internalType": "uint256",
              "name": "charityId",
              "type": "uint256"
            },
            {
              "internalType": "uint256",
              "name": "auctionTime",
              "type": "uint256"
            },
            {
              "internalType": "bool",
              "name": "sold",
              "type": "bool"
            },
            {
              "internalType": "bool",
              "name": "isMultiToken",
              "type": "bool"
            },
            {
              "internalType": "bool",
              "name": "isRemoved",
              "type": "bool"
            },
            {
              "internalType": "bool",
              "name": "isFrac",
              "type": "bool"
            }
          ],
          "internalType": "struct ACHouse.MarketItem[]",
          "name": "",
          "type": "tuple[]"
        }
      ],
      "stateMutability": "view",
      "type": "function",
      "constant": true
    },
    {
      "inputs": [],
      "name": "fetchMyNFTs",
      "outputs": [
        {
          "components": [
            {
              "internalType": "uint256",
              "name": "itemId",
              "type": "uint256"
            },
            {
              "internalType": "address",
              "name": "nftContract",
              "type": "address"
            },
            {
              "internalType": "uint256",
              "name": "tokenId",
              "type": "uint256"
            },
            {
              "internalType": "address payable",
              "name": "seller",
              "type": "address"
            },
            {
              "internalType": "address payable",
              "name": "owner",
              "type": "address"
            },
            {
              "internalType": "uint256",
              "name": "price",
              "type": "uint256"
            },
            {
              "internalType": "uint256",
              "name": "amount",
              "type": "uint256"
            },
            {
              "internalType": "uint256",
              "name": "charityId",
              "type": "uint256"
            },
            {
              "internalType": "uint256",
              "name": "auctionTime",
              "type": "uint256"
            },
            {
              "internalType": "bool",
              "name": "sold",
              "type": "bool"
            },
            {
              "internalType": "bool",
              "name": "isMultiToken",
              "type": "bool"
            },
            {
              "internalType": "bool",
              "name": "isRemoved",
              "type": "bool"
            },
            {
              "internalType": "bool",
              "name": "isFrac",
              "type": "bool"
            }
          ],
          "internalType": "struct ACHouse.MarketItem[]",
          "name": "",
          "type": "tuple[]"
        }
      ],
      "stateMutability": "view",
      "type": "function",
      "constant": true
    },
    {
      "inputs": [],
      "name": "fetchItemsCreated",
      "outputs": [
        {
          "components": [
            {
              "internalType": "uint256",
              "name": "itemId",
              "type": "uint256"
            },
            {
              "internalType": "address",
              "name": "nftContract",
              "type": "address"
            },
            {
              "internalType": "uint256",
              "name": "tokenId",
              "type": "uint256"
            },
            {
              "internalType": "address payable",
              "name": "seller",
              "type": "address"
            },
            {
              "internalType": "address payable",
              "name": "owner",
              "type": "address"
            },
            {
              "internalType": "uint256",
              "name": "price",
              "type": "uint256"
            },
            {
              "internalType": "uint256",
              "name": "amount",
              "type": "uint256"
            },
            {
              "internalType": "uint256",
              "name": "charityId",
              "type": "uint256"
            },
            {
              "internalType": "uint256",
              "name": "auctionTime",
              "type": "uint256"
            },
            {
              "internalType": "bool",
              "name": "sold",
              "type": "bool"
            },
            {
              "internalType": "bool",
              "name": "isMultiToken",
              "type": "bool"
            },
            {
              "internalType": "bool",
              "name": "isRemoved",
              "type": "bool"
            },
            {
              "internalType": "bool",
              "name": "isFrac",
              "type": "bool"
            }
          ],
          "internalType": "struct ACHouse.MarketItem[]",
          "name": "",
          "type": "tuple[]"
        }
      ],
      "stateMutability": "view",
      "type": "function",
      "constant": true
    },
    {
      "inputs": [
        {
          "internalType": "string",
          "name": "_name",
          "type": "string"
        },
        {
          "internalType": "uint256",
          "name": "_userType",
          "type": "uint256"
        }
      ],
      "name": "register",
      "outputs": [
        {
          "internalType": "bool",
          "name": "",
          "type": "bool"
        }
      ],
      "stateMutability": "nonpayable",
      "type": "function"
    },
    {
      "inputs": [
        {
          "internalType": "string",
          "name": "_uri",
          "type": "string"
        }
      ],
      "name": "setURI1155",
      "outputs": [],
      "stateMutability": "nonpayable",
      "type": "function"
    },
    {
      "inputs": [
        {
          "internalType": "uint256",
          "name": "_tokenId",
          "type": "uint256"
        }
      ],
      "name": "getTokenURI",
      "outputs": [
        {
          "internalType": "string",
          "name": "",
          "type": "string"
        }
      ],
      "stateMutability": "view",
      "type": "function",
      "constant": true
    },
    {
      "inputs": [
        {
          "internalType": "uint256",
          "name": "_id",
          "type": "uint256"
        },
        {
          "internalType": "uint256",
          "name": "_amount",
          "type": "uint256"
        }
      ],
      "name": "createNFT1155",
      "outputs": [],
      "stateMutability": "nonpayable",
      "type": "function"
    },
    {
      "inputs": [],
      "name": "getTokenCount",
      "outputs": [
        {
          "internalType": "uint256",
          "name": "",
          "type": "uint256"
        }
      ],
      "stateMutability": "view",
      "type": "function",
      "constant": true
    },
    {
      "inputs": [],
      "name": "getTokenIds",
      "outputs": [
        {
          "internalType": "uint256[]",
          "name": "",
          "type": "uint256[]"
        }
      ],
      "stateMutability": "view",
      "type": "function",
      "constant": true
    },
    {
      "inputs": [
        {
          "internalType": "uint256",
          "name": "_tokenId",
          "type": "uint256"
        }
      ],
      "name": "getTokenSupply",
      "outputs": [
        {
          "internalType": "uint256",
          "name": "",
          "type": "uint256"
        }
      ],
      "stateMutability": "view",
      "type": "function",
      "constant": true
    },
    {
      "inputs": [
        {
          "internalType": "address",
          "name": "nftContract",
          "type": "address"
        },
        {
          "internalType": "uint256",
          "name": "tokenId",
          "type": "uint256"
        },
        {
          "internalType": "uint256",
          "name": "shardId",
          "type": "uint256"
        },
        {
          "internalType": "uint256",
          "name": "supplyToCreate",
          "type": "uint256"
        },
        {
          "internalType": "string",
          "name": "uri",
          "type": "string"
        }
      ],
      "name": "fractionalize1155NFT",
      "outputs": [
        {
          "internalType": "uint256",
          "name": "",
          "type": "uint256"
        }
      ],
      "stateMutability": "nonpayable",
      "type": "function"
    },
    {
      "inputs": [
        {
          "internalType": "address",
          "name": "nftContract",
          "type": "address"
        },
        {
          "internalType": "uint256",
          "name": "tokenId",
          "type": "uint256"
        },
        {
          "internalType": "uint256",
          "name": "shardId",
          "type": "uint256"
        },
        {
          "internalType": "uint256",
          "name": "supplyToCreate",
          "type": "uint256"
        },
        {
          "internalType": "string",
          "name": "uri",
          "type": "string"
        }
      ],
      "name": "fractionalize721NFT",
      "outputs": [
        {
          "internalType": "uint256",
          "name": "",
          "type": "uint256"
        }
      ],
      "stateMutability": "nonpayable",
      "type": "function"
    },
    {
      "inputs": [
        {
          "internalType": "uint256",
          "name": "_fracId",
          "type": "uint256"
        }
      ],
      "name": "getFractionalInformation",
      "outputs": [
        {
          "components": [
            {
              "internalType": "uint256",
              "name": "itemId",
              "type": "uint256"
            },
            {
              "internalType": "address",
              "name": "nftContract",
              "type": "address"
            },
            {
              "internalType": "uint256",
              "name": "tokenId",
              "type": "uint256"
            },
            {
              "internalType": "address payable",
              "name": "seller",
              "type": "address"
            },
            {
              "internalType": "address payable",
              "name": "owner",
              "type": "address"
            },
            {
              "internalType": "address",
              "name": "fractionalContract",
              "type": "address"
            },
            {
              "internalType": "uint256",
              "name": "shardId",
              "type": "uint256"
            },
            {
              "internalType": "uint256",
              "name": "supplyMinted",
              "type": "uint256"
            },
            {
              "internalType": "uint256",
              "name": "supplyRemaining",
              "type": "uint256"
            },
            {
              "internalType": "bool",
              "name": "isMultiToken",
              "type": "bool"
            }
          ],
          "internalType": "struct ACHouse.FractionalizeToken",
          "name": "",
          "type": "tuple"
        }
      ],
      "stateMutability": "view",
      "type": "function",
      "constant": true
    },
    {
      "inputs": [
        {
          "internalType": "uint256",
          "name": "_id",
          "type": "uint256"
        },
        {
          "internalType": "string",
          "name": "uri",
          "type": "string"
        },
        {
          "internalType": "string",
          "name": "name",
          "type": "string"
        },
        {
          "internalType": "string",
          "name": "symbol",
          "type": "string"
        }
      ],
      "name": "createNFT721",
      "outputs": [],
      "stateMutability": "nonpayable",
      "type": "function"
    },
    {
      "inputs": [],
      "name": "get721TokenCount",
      "outputs": [
        {
          "internalType": "uint256",
          "name": "",
          "type": "uint256"
        }
      ],
      "stateMutability": "view",
      "type": "function",
      "constant": true
    },
    {
      "inputs": [],
      "name": "get721TokenIds",
      "outputs": [
        {
          "internalType": "uint256[]",
          "name": "",
          "type": "uint256[]"
        }
      ],
      "stateMutability": "view",
      "type": "function",
      "constant": true
    },
    {
      "inputs": [
        {
          "internalType": "uint256",
          "name": "_id",
          "type": "uint256"
        }
      ],
      "name": "get721TokenName",
      "outputs": [
        {
          "internalType": "string",
          "name": "",
          "type": "string"
        }
      ],
      "stateMutability": "view",
      "type": "function",
      "constant": true
    },
    {
      "inputs": [
        {
          "internalType": "uint256",
          "name": "_id",
          "type": "uint256"
        }
      ],
      "name": "get721TokenSymbol",
      "outputs": [
        {
          "internalType": "string",
          "name": "",
          "type": "string"
        }
      ],
      "stateMutability": "view",
      "type": "function",
      "constant": true
    },
    {
      "inputs": [
        {
          "internalType": "uint256",
          "name": "_id",
          "type": "uint256"
        }
      ],
      "name": "get721TokenURI",
      "outputs": [
        {
          "internalType": "string",
          "name": "",
          "type": "string"
        }
      ],
      "stateMutability": "view",
      "type": "function",
      "constant": true
    },
    {
      "inputs": [
        {
          "internalType": "uint256",
          "name": "v",
          "type": "uint256"
        }
      ],
      "name": "uint2str",
      "outputs": [
        {
          "internalType": "string",
          "name": "",
          "type": "string"
        }
      ],
      "stateMutability": "pure",
      "type": "function",
      "constant": true
    }
  ],
  "bytecode": "0x608060405260006009556000600a556000600b556000600c553480156200002557600080fd5b50604051620061593803806200615983398181016040528101906200004b919062000257565b600160008190555081600660006101000a81548173ffffffffffffffffffffffffffffffffffffffff021916908373ffffffffffffffffffffffffffffffffffffffff16021790555080600760006101000a81548173ffffffffffffffffffffffffffffffffffffffff021916908373ffffffffffffffffffffffffffffffffffffffff160217905550600660009054906101000a900473ffffffffffffffffffffffffffffffffffffffff1673ffffffffffffffffffffffffffffffffffffffff1663fa5afe40306040518263ffffffff1660e01b8152600401620001329190620002a9565b600060405180830381600087803b1580156200014d57600080fd5b505af115801562000162573d6000803e3d6000fd5b50505050600760009054906101000a900473ffffffffffffffffffffffffffffffffffffffff1673ffffffffffffffffffffffffffffffffffffffff1663fa5afe40306040518263ffffffff1660e01b8152600401620001c39190620002a9565b600060405180830381600087803b158015620001de57600080fd5b505af1158015620001f3573d6000803e3d6000fd5b5050505033600560006101000a81548173ffffffffffffffffffffffffffffffffffffffff021916908373ffffffffffffffffffffffffffffffffffffffff160217905550505062000314565b6000815190506200025181620002fa565b92915050565b600080604083850312156200026b57600080fd5b60006200027b8582860162000240565b92505060206200028e8582860162000240565b9150509250929050565b620002a381620002c6565b82525050565b6000602082019050620002c0600083018462000298565b92915050565b6000620002d382620002da565b9050919050565b600073ffffffffffffffffffffffffffffffffffffffff82169050919050565b6200030581620002c6565b81146200031157600080fd5b50565b615e3580620003246000396000f3fe6080604052600436106101ee5760003560e01c806372f7bec81161010d578063bc197c81116100a0578063e95fcc4c1161006f578063e95fcc4c14610782578063ea87152b146107bf578063f064c32e146107fc578063f23a6e6114610827578063f76f950e14610864576101ee565b8063bc197c81146106d5578063c23b139e14610712578063dbcd674e1461072e578063dce9fc1114610759576101ee565b80639c79afb3116100dc5780639c79afb3146105f35780639ca7aac714610632578063ad3ec90c1461066f578063af8e6c39146106ac576101ee565b806372f7bec81461054b57806378a8956714610574578063833564971461059f578063953e8267146105c8576101ee565b80633bb3a24d116101855780635490b356116101545780635490b3561461047657806367f718a9146104b35780636b3ed26f146104de5780636b4d95331461051b576101ee565b80633bb3a24d146103a35780633e52a165146103e057806343404be1146104095780634f31d0d814610446576101ee565b8063202e3740116101c1578063202e3740146102d357806325762e57146102fe5780632a45b2501461033b578063382edbcf14610378576101ee565b806301ffc9a7146101f3578063145eca8c14610230578063150b7a021461025957806319b88edb14610296575b600080fd5b3480156101ff57600080fd5b5061021a60048036038101906102159190614a7e565b6108a1565b6040516102279190615616565b60405180910390f35b34801561023c57600080fd5b5061025760048036038101906102529190614b7d565b61091b565b005b34801561026557600080fd5b50610280600480360381019061027b91906146ed565b61094d565b60405161028d9190615631565b60405180910390f35b3480156102a257600080fd5b506102bd60048036038101906102b89190614b7d565b610961565b6040516102ca9190615748565b60405180910390f35b3480156102df57600080fd5b506102e8610a15565b6040516102f591906155d2565b60405180910390f35b34801561030a57600080fd5b5061032560048036038101906103209190614b7d565b610d9d565b604051610332919061564c565b60405180910390f35b34801561034757600080fd5b50610362600480360381019061035d9190614b7d565b610e56565b60405161036f919061570a565b60405180910390f35b34801561038457600080fd5b5061038d61102e565b60405161039a91906155d2565b60405180910390f35b3480156103af57600080fd5b506103ca60048036038101906103c59190614b7d565b6113f3565b6040516103d7919061564c565b60405180910390f35b3480156103ec57600080fd5b5061040760048036038101906104029190614b7d565b6114ac565b005b34801561041557600080fd5b50610430600480360381019061042b9190614b7d565b6114de565b60405161043d9190615726565b60405180910390f35b610460600480360381019061045b919061499f565b6115fd565b60405161046d9190615748565b60405180910390f35b34801561048257600080fd5b5061049d60048036038101906104989190614887565b6119eb565b6040516104aa9190615748565b60405180910390f35b3480156104bf57600080fd5b506104c8611deb565b6040516104d591906155f4565b60405180910390f35b3480156104ea57600080fd5b5061050560048036038101906105009190614b7d565b611e97565b604051610512919061564c565b60405180910390f35b61053560048036038101906105309190614916565b611f50565b6040516105429190615748565b60405180910390f35b34801561055757600080fd5b50610572600480360381019061056d91906147f7565b6122f9565b005b34801561058057600080fd5b506105896123d1565b6040516105969190615748565b60405180910390f35b3480156105ab57600080fd5b506105c660048036038101906105c19190614bcf565b612478565b005b3480156105d457600080fd5b506105dd612513565b6040516105ea91906155f4565b60405180910390f35b3480156105ff57600080fd5b5061061a60048036038101906106159190614b7d565b6125bf565b60405161062993929190615763565b60405180910390f35b34801561063e57600080fd5b5061065960048036038101906106549190614b7d565b6126a1565b604051610666919061564c565b60405180910390f35b34801561067b57600080fd5b5061069660048036038101906106919190614887565b61275a565b6040516106a39190615748565b60405180910390f35b3480156106b857600080fd5b506106d360048036038101906106ce9190614aa7565b612b57565b005b3480156106e157600080fd5b506106fc60048036038101906106f7919061462e565b612be7565b6040516107099190615631565b60405180910390f35b61072c6004803603810190610727919061484b565b612bfc565b005b34801561073a57600080fd5b506107436132f1565b6040516107509190615748565b60405180910390f35b34801561076557600080fd5b50610780600480360381019061077b9190614c7a565b613398565b005b34801561078e57600080fd5b506107a960048036038101906107a49190614b7d565b61342d565b6040516107b691906156ee565b60405180910390f35b3480156107cb57600080fd5b506107e660048036038101906107e19190614b29565b613606565b6040516107f39190615616565b60405180910390f35b34801561080857600080fd5b506108116138bb565b60405161081e91906155d2565b60405180910390f35b34801561083357600080fd5b5061084e60048036038101906108499190614768565b613cc4565b60405161085b9190615631565b60405180910390f35b34801561087057600080fd5b5061088b60048036038101906108869190614b7d565b613cd9565b604051610898919061564c565b60405180910390f35b60007f4e2312e0000000000000000000000000000000000000000000000000000000007bffffffffffffffffffffffffffffffffffffffffffffffffffffffff1916827bffffffffffffffffffffffffffffffffffffffffffffffffffffffff19161480610914575061091382613fbf565b5b9050919050565b60016014600083815260200190815260200160002060090160026101000a81548160ff02191690831515021790555050565b600063150b7a0260e01b9050949350505050565b6000600660009054906101000a900473ffffffffffffffffffffffffffffffffffffffff1673ffffffffffffffffffffffffffffffffffffffff166397492c1c836040518263ffffffff1660e01b81526004016109be9190615748565b60206040518083038186803b1580156109d657600080fd5b505afa1580156109ea573d6000803e3d6000fd5b505050506040513d601f19601f82011682018060405250810190610a0e9190614ba6565b9050919050565b60606000601760003373ffffffffffffffffffffffffffffffffffffffff1673ffffffffffffffffffffffffffffffffffffffff168152602001908152602001600020805480602002602001604051908101604052809291908181526020018280548015610aa257602002820191906000526020600020905b815481526020019060010190808311610a8e575b505050505090506000815167ffffffffffffffff811115610aec577f4e487b7100000000000000000000000000000000000000000000000000000000600052604160045260246000fd5b604051908082528060200260200182016040528015610b2557816020015b610b12614128565b815260200190600190039081610b0a5790505b50905060005b8251811015610d945760146000848381518110610b71577f4e487b7100000000000000000000000000000000000000000000000000000000600052603260045260246000fd5b60200260200101518152602001908152602001600020604051806101a0016040529081600082015481526020016001820160009054906101000a900473ffffffffffffffffffffffffffffffffffffffff1673ffffffffffffffffffffffffffffffffffffffff1673ffffffffffffffffffffffffffffffffffffffff168152602001600282015481526020016003820160009054906101000a900473ffffffffffffffffffffffffffffffffffffffff1673ffffffffffffffffffffffffffffffffffffffff1673ffffffffffffffffffffffffffffffffffffffff1681526020016004820160009054906101000a900473ffffffffffffffffffffffffffffffffffffffff1673ffffffffffffffffffffffffffffffffffffffff1673ffffffffffffffffffffffffffffffffffffffff168152602001600582015481526020016006820154815260200160078201548152602001600882015481526020016009820160009054906101000a900460ff161515151581526020016009820160019054906101000a900460ff161515151581526020016009820160029054906101000a900460ff161515151581526020016009820160039054906101000a900460ff161515151581525050828281518110610d76577f4e487b7100000000000000000000000000000000000000000000000000000000600052603260045260246000fd5b60200260200101819052508080610d8c90615b3f565b915050610b2b565b50809250505090565b6060600760009054906101000a900473ffffffffffffffffffffffffffffffffffffffff1673ffffffffffffffffffffffffffffffffffffffff16638ad91345836040518263ffffffff1660e01b8152600401610dfa9190615748565b60006040518083038186803b158015610e1257600080fd5b505afa158015610e26573d6000803e3d6000fd5b505050506040513d6000823e3d601f19601f82011682018060405250810190610e4f9190614ae8565b9050919050565b610e5e614128565b60146000838152602001908152602001600020604051806101a0016040529081600082015481526020016001820160009054906101000a900473ffffffffffffffffffffffffffffffffffffffff1673ffffffffffffffffffffffffffffffffffffffff1673ffffffffffffffffffffffffffffffffffffffff168152602001600282015481526020016003820160009054906101000a900473ffffffffffffffffffffffffffffffffffffffff1673ffffffffffffffffffffffffffffffffffffffff1673ffffffffffffffffffffffffffffffffffffffff1681526020016004820160009054906101000a900473ffffffffffffffffffffffffffffffffffffffff1673ffffffffffffffffffffffffffffffffffffffff1673ffffffffffffffffffffffffffffffffffffffff168152602001600582015481526020016006820154815260200160078201548152602001600882015481526020016009820160009054906101000a900460ff161515151581526020016009820160019054906101000a900460ff161515151581526020016009820160029054906101000a900460ff161515151581526020016009820160039054906101000a900460ff1615151515815250509050919050565b6060600061103c6002614029565b6110466001614029565b611050919061598b565b905060008167ffffffffffffffff811115611094577f4e487b7100000000000000000000000000000000000000000000000000000000600052604160045260246000fd5b6040519080825280602002602001820160405280156110cd57816020015b6110ba614128565b8152602001906001900390816110b25790505b5090506000806110dd6001614029565b905060005b818110156113e857600073ffffffffffffffffffffffffffffffffffffffff16601460006001846111139190615904565b815260200190815260200160002060040160009054906101000a900473ffffffffffffffffffffffffffffffffffffffff1673ffffffffffffffffffffffffffffffffffffffff1614801561119b575060001515601460006001846111789190615904565b815260200190815260200160002060090160029054906101000a900460ff161515145b156113d55760006001826111af9190615904565b9050600060146000838152602001908152602001600020905080604051806101a0016040529081600082015481526020016001820160009054906101000a900473ffffffffffffffffffffffffffffffffffffffff1673ffffffffffffffffffffffffffffffffffffffff1673ffffffffffffffffffffffffffffffffffffffff168152602001600282015481526020016003820160009054906101000a900473ffffffffffffffffffffffffffffffffffffffff1673ffffffffffffffffffffffffffffffffffffffff1673ffffffffffffffffffffffffffffffffffffffff1681526020016004820160009054906101000a900473ffffffffffffffffffffffffffffffffffffffff1673ffffffffffffffffffffffffffffffffffffffff1673ffffffffffffffffffffffffffffffffffffffff168152602001600582015481526020016006820154815260200160078201548152602001600882015481526020016009820160009054906101000a900460ff161515151581526020016009820160019054906101000a900460ff161515151581526020016009820160029054906101000a900460ff161515151581526020016009820160039054906101000a900460ff1615151515815250508686815181106113b8577f4e487b7100000000000000000000000000000000000000000000000000000000600052603260045260246000fd5b60200260200101819052506001856113d09190615904565b945050505b80806113e090615b3f565b9150506110e2565b508294505050505090565b6060600660009054906101000a900473ffffffffffffffffffffffffffffffffffffffff1673ffffffffffffffffffffffffffffffffffffffff16633bb3a24d836040518263ffffffff1660e01b81526004016114509190615748565b60006040518083038186803b15801561146857600080fd5b505afa15801561147c573d6000803e3d6000fd5b505050506040513d6000823e3d601f19601f820116820180604052508101906114a59190614ae8565b9050919050565b60006014600083815260200190815260200160002060090160026101000a81548160ff02191690831515021790555050565b6114e66141da565b601260008381526020019081526020016000206040518060600160405290816000820154815260200160018201805461151e90615adc565b80601f016020809104026020016040519081016040528092919081815260200182805461154a90615adc565b80156115975780601f1061156c57610100808354040283529160200191611597565b820191906000526020600020905b81548152906001019060200180831161157a57829003601f168201915b505050505081526020016002820160009054906101000a900473ffffffffffffffffffffffffffffffffffffffff1673ffffffffffffffffffffffffffffffffffffffff1673ffffffffffffffffffffffffffffffffffffffff16815250509050919050565b600060026000541415611645576040517f08c379a000000000000000000000000000000000000000000000000000000000815260040161163c9061568e565b60405180910390fd5b600260008190555060008611611690576040517f08c379a0000000000000000000000000000000000000000000000000000000008152600401611687906156ae565b60405180910390fd5b61169a6001614037565b60006116a66001614029565b90506000604051806101a001604052808381526020018b73ffffffffffffffffffffffffffffffffffffffff1681526020018a81526020013373ffffffffffffffffffffffffffffffffffffffff168152602001600073ffffffffffffffffffffffffffffffffffffffff168152602001898152602001888152602001878152602001868152602001600015158152602001600115158152602001600015158152602001851515815250905080601460008481526020019081526020016000206000820151816000015560208201518160010160006101000a81548173ffffffffffffffffffffffffffffffffffffffff021916908373ffffffffffffffffffffffffffffffffffffffff1602179055506040820151816002015560608201518160030160006101000a81548173ffffffffffffffffffffffffffffffffffffffff021916908373ffffffffffffffffffffffffffffffffffffffff16021790555060808201518160040160006101000a81548173ffffffffffffffffffffffffffffffffffffffff021916908373ffffffffffffffffffffffffffffffffffffffff16021790555060a0820151816005015560c0820151816006015560e0820151816007015561010082015181600801556101208201518160090160006101000a81548160ff0219169083151502179055506101408201518160090160016101000a81548160ff0219169083151502179055506101608201518160090160026101000a81548160ff0219169083151502179055506101808201518160090160036101000a81548160ff0219169083151502179055509050508973ffffffffffffffffffffffffffffffffffffffff1663f242432a33308c8b6040518563ffffffff1660e01b815260040161193e9493929190615360565b600060405180830381600087803b15801561195857600080fd5b505af115801561196c573d6000803e3d6000fd5b50505050888a73ffffffffffffffffffffffffffffffffffffffff16837f66e97b8164670aa0e694d4edeefadfbd201b7b854d868d7d6e610bbd4b75230c338c8c8c8c6000600160008f6040516119cb99989796959493929190615545565b60405180910390a481925050506001600081905550979650505050505050565b60006119f76003614037565b6000611a036003614029565b905060006040518061014001604052808381526020018973ffffffffffffffffffffffffffffffffffffffff1681526020018881526020013373ffffffffffffffffffffffffffffffffffffffff168152602001600073ffffffffffffffffffffffffffffffffffffffff168152602001600660009054906101000a900473ffffffffffffffffffffffffffffffffffffffff1673ffffffffffffffffffffffffffffffffffffffff16815260200187815260200186815260200186815260200160011515815250905080601960008481526020019081526020016000206000820151816000015560208201518160010160006101000a81548173ffffffffffffffffffffffffffffffffffffffff021916908373ffffffffffffffffffffffffffffffffffffffff1602179055506040820151816002015560608201518160030160006101000a81548173ffffffffffffffffffffffffffffffffffffffff021916908373ffffffffffffffffffffffffffffffffffffffff16021790555060808201518160040160006101000a81548173ffffffffffffffffffffffffffffffffffffffff021916908373ffffffffffffffffffffffffffffffffffffffff16021790555060a08201518160050160006101000a81548173ffffffffffffffffffffffffffffffffffffffff021916908373ffffffffffffffffffffffffffffffffffffffff16021790555060c0820151816006015560e0820151816007015561010082015181600801556101208201518160090160006101000a81548160ff0219169083151502179055509050508773ffffffffffffffffffffffffffffffffffffffff1663f242432a33308a60016040518563ffffffff1660e01b8152600401611c949493929190615308565b600060405180830381600087803b158015611cae57600080fd5b505af1158015611cc2573d6000803e3d6000fd5b50505050611ccf84612b57565b600660009054906101000a900473ffffffffffffffffffffffffffffffffffffffff1673ffffffffffffffffffffffffffffffffffffffff16635a9d10a23384886040518463ffffffff1660e01b8152600401611d2e9392919061550e565b600060405180830381600087803b158015611d4857600080fd5b505af1158015611d5c573d6000803e3d6000fd5b50505050868873ffffffffffffffffffffffffffffffffffffffff16837fedbbc6bc63aa092bba302ac98ddaafe17f6714072cb4cb7caeb89e9b31f6f4ca33600660009054906101000a900473ffffffffffffffffffffffffffffffffffffffff168b8b8c6001604051611dd5969594939291906153b8565b60405180910390a4819250505095945050505050565b6060600660009054906101000a900473ffffffffffffffffffffffffffffffffffffffff1673ffffffffffffffffffffffffffffffffffffffff166367f718a96040518163ffffffff1660e01b815260040160006040518083038186803b158015611e5557600080fd5b505afa158015611e69573d6000803e3d6000fd5b505050506040513d6000823e3d601f19601f82011682018060405250810190611e929190614a3d565b905090565b6060600760009054906101000a900473ffffffffffffffffffffffffffffffffffffffff1673ffffffffffffffffffffffffffffffffffffffff16637b78bd3f836040518263ffffffff1660e01b8152600401611ef49190615748565b60006040518083038186803b158015611f0c57600080fd5b505afa158015611f20573d6000803e3d6000fd5b505050506040513d6000823e3d601f19601f82011682018060405250810190611f499190614ae8565b9050919050565b600060026000541415611f98576040517f08c379a0000000000000000000000000000000000000000000000000000000008152600401611f8f9061568e565b60405180910390fd5b6002600081905550611faa6001614037565b6000611fb66001614029565b90506000604051806101a001604052808381526020018a73ffffffffffffffffffffffffffffffffffffffff1681526020018981526020013373ffffffffffffffffffffffffffffffffffffffff168152602001600073ffffffffffffffffffffffffffffffffffffffff16815260200188815260200160018152602001878152602001868152602001600015158152602001600115158152602001600015158152602001851515815250905080601460008481526020019081526020016000206000820151816000015560208201518160010160006101000a81548173ffffffffffffffffffffffffffffffffffffffff021916908373ffffffffffffffffffffffffffffffffffffffff1602179055506040820151816002015560608201518160030160006101000a81548173ffffffffffffffffffffffffffffffffffffffff021916908373ffffffffffffffffffffffffffffffffffffffff16021790555060808201518160040160006101000a81548173ffffffffffffffffffffffffffffffffffffffff021916908373ffffffffffffffffffffffffffffffffffffffff16021790555060a0820151816005015560c0820151816006015560e0820151816007015561010082015181600801556101208201518160090160006101000a81548160ff0219169083151502179055506101408201518160090160016101000a81548160ff0219169083151502179055506101608201518160090160026101000a81548160ff0219169083151502179055506101808201518160090160036101000a81548160ff0219169083151502179055509050508873ffffffffffffffffffffffffffffffffffffffff166323b872dd33308b6040518463ffffffff1660e01b815260040161224d939291906152d1565b600060405180830381600087803b15801561226757600080fd5b505af115801561227b573d6000803e3d6000fd5b50505050878973ffffffffffffffffffffffffffffffffffffffff16837f66e97b8164670aa0e694d4edeefadfbd201b7b854d868d7d6e610bbd4b75230c338b60018c8c60008060008f6040516122da99989796959493929190615419565b60405180910390a4819250505060016000819055509695505050505050565b6123036004614037565b600061230f6004614029565b9050600060405180606001604052808381526020018481526020018573ffffffffffffffffffffffffffffffffffffffff1681525090508060126000848152602001908152602001600020600082015181600001556020820151816001019080519060200190612380929190614211565b5060408201518160020160006101000a81548173ffffffffffffffffffffffffffffffffffffffff021916908373ffffffffffffffffffffffffffffffffffffffff16021790555090505050505050565b6000600660009054906101000a900473ffffffffffffffffffffffffffffffffffffffff1673ffffffffffffffffffffffffffffffffffffffff166378a895676040518163ffffffff1660e01b815260040160206040518083038186803b15801561243b57600080fd5b505afa15801561244f573d6000803e3d6000fd5b505050506040513d601f19601f820116820180604052508101906124739190614ba6565b905090565b600760009054906101000a900473ffffffffffffffffffffffffffffffffffffffff1673ffffffffffffffffffffffffffffffffffffffff1663257d89db33868686866040518663ffffffff1660e01b81526004016124db9594939291906154a6565b600060405180830381600087803b1580156124f557600080fd5b505af1158015612509573d6000803e3d6000fd5b5050505050505050565b6060600760009054906101000a900473ffffffffffffffffffffffffffffffffffffffff1673ffffffffffffffffffffffffffffffffffffffff166367f718a96040518163ffffffff1660e01b815260040160006040518083038186803b15801561257d57600080fd5b505afa158015612591573d6000803e3d6000fd5b505050506040513d6000823e3d601f19601f820116820180604052508101906125ba9190614a3d565b905090565b600d81815481106125cf57600080fd5b90600052602060002090600302016000915090508060000154908060010180546125f890615adc565b80601f016020809104026020016040519081016040528092919081815260200182805461262490615adc565b80156126715780601f1061264657610100808354040283529160200191612671565b820191906000526020600020905b81548152906001019060200180831161265457829003601f168201915b5050505050908060020160009054906101000a900473ffffffffffffffffffffffffffffffffffffffff16905083565b6060600760009054906101000a900473ffffffffffffffffffffffffffffffffffffffff1673ffffffffffffffffffffffffffffffffffffffff1663dbe16c07836040518263ffffffff1660e01b81526004016126fe9190615748565b60006040518083038186803b15801561271657600080fd5b505afa15801561272a573d6000803e3d6000fd5b505050506040513d6000823e3d601f19601f820116820180604052508101906127539190614ae8565b9050919050565b60006127666003614037565b60006127726003614029565b905060006040518061014001604052808381526020018973ffffffffffffffffffffffffffffffffffffffff1681526020018881526020013373ffffffffffffffffffffffffffffffffffffffff168152602001600073ffffffffffffffffffffffffffffffffffffffff168152602001600660009054906101000a900473ffffffffffffffffffffffffffffffffffffffff1673ffffffffffffffffffffffffffffffffffffffff16815260200187815260200186815260200186815260200160001515815250905080601960008481526020019081526020016000206000820151816000015560208201518160010160006101000a81548173ffffffffffffffffffffffffffffffffffffffff021916908373ffffffffffffffffffffffffffffffffffffffff1602179055506040820151816002015560608201518160030160006101000a81548173ffffffffffffffffffffffffffffffffffffffff021916908373ffffffffffffffffffffffffffffffffffffffff16021790555060808201518160040160006101000a81548173ffffffffffffffffffffffffffffffffffffffff021916908373ffffffffffffffffffffffffffffffffffffffff16021790555060a08201518160050160006101000a81548173ffffffffffffffffffffffffffffffffffffffff021916908373ffffffffffffffffffffffffffffffffffffffff16021790555060c0820151816006015560e0820151816007015561010082015181600801556101208201518160090160006101000a81548160ff0219169083151502179055509050508773ffffffffffffffffffffffffffffffffffffffff166323b872dd33308a6040518463ffffffff1660e01b8152600401612a00939291906152d1565b600060405180830381600087803b158015612a1a57600080fd5b505af1158015612a2e573d6000803e3d6000fd5b50505050612a3b84612b57565b600660009054906101000a900473ffffffffffffffffffffffffffffffffffffffff1673ffffffffffffffffffffffffffffffffffffffff16635a9d10a23384886040518463ffffffff1660e01b8152600401612a9a9392919061550e565b600060405180830381600087803b158015612ab457600080fd5b505af1158015612ac8573d6000803e3d6000fd5b50505050868873ffffffffffffffffffffffffffffffffffffffff16837fedbbc6bc63aa092bba302ac98ddaafe17f6714072cb4cb7caeb89e9b31f6f4ca33600660009054906101000a900473ffffffffffffffffffffffffffffffffffffffff168b8b8c6000604051612b41969594939291906153b8565b60405180910390a4819250505095945050505050565b600660009054906101000a900473ffffffffffffffffffffffffffffffffffffffff1673ffffffffffffffffffffffffffffffffffffffff166302fe5305826040518263ffffffff1660e01b8152600401612bb2919061564c565b600060405180830381600087803b158015612bcc57600080fd5b505af1158015612be0573d6000803e3d6000fd5b5050505050565b600063bc197c8160e01b905095945050505050565b60026000541415612c42576040517f08c379a0000000000000000000000000000000000000000000000000000000008152600401612c399061568e565b60405180910390fd5b6002600081905550600060146000838152602001908152602001600020604051806101a0016040529081600082015481526020016001820160009054906101000a900473ffffffffffffffffffffffffffffffffffffffff1673ffffffffffffffffffffffffffffffffffffffff1673ffffffffffffffffffffffffffffffffffffffff168152602001600282015481526020016003820160009054906101000a900473ffffffffffffffffffffffffffffffffffffffff1673ffffffffffffffffffffffffffffffffffffffff1673ffffffffffffffffffffffffffffffffffffffff1681526020016004820160009054906101000a900473ffffffffffffffffffffffffffffffffffffffff1673ffffffffffffffffffffffffffffffffffffffff1673ffffffffffffffffffffffffffffffffffffffff168152602001600582015481526020016006820154815260200160078201548152602001600882015481526020016009820160009054906101000a900460ff161515151581526020016009820160019054906101000a900460ff161515151581526020016009820160029054906101000a900460ff161515151581526020016009820160039054906101000a900460ff161515151581525050905060008160a0015190506000826040015190506000836101400151905082341015612e76576040517f08c379a0000000000000000000000000000000000000000000000000000000008152600401612e6d9061566e565b60405180910390fd5b836060015173ffffffffffffffffffffffffffffffffffffffff166108fc349081150290604051600060405180830381858888f19350505050158015612ec0573d6000803e3d6000fd5b508015612f45578573ffffffffffffffffffffffffffffffffffffffff1663f242432a303387604001518860c001516040518563ffffffff1660e01b8152600401612f0e9493929190615360565b600060405180830381600087803b158015612f2857600080fd5b505af1158015612f3c573d6000803e3d6000fd5b50505050612fb5565b8573ffffffffffffffffffffffffffffffffffffffff166323b872dd3033856040518463ffffffff1660e01b8152600401612f82939291906152d1565b600060405180830381600087803b158015612f9c57600080fd5b505af1158015612fb0573d6000803e3d6000fd5b505050505b33846080019073ffffffffffffffffffffffffffffffffffffffff16908173ffffffffffffffffffffffffffffffffffffffff16815250506001846101200190151590811515815250506130096002614037565b83601460008781526020019081526020016000206000820151816000015560208201518160010160006101000a81548173ffffffffffffffffffffffffffffffffffffffff021916908373ffffffffffffffffffffffffffffffffffffffff1602179055506040820151816002015560608201518160030160006101000a81548173ffffffffffffffffffffffffffffffffffffffff021916908373ffffffffffffffffffffffffffffffffffffffff16021790555060808201518160040160006101000a81548173ffffffffffffffffffffffffffffffffffffffff021916908373ffffffffffffffffffffffffffffffffffffffff16021790555060a0820151816005015560c0820151816006015560e0820151816007015561010082015181600801556101208201518160090160006101000a81548160ff0219169083151502179055506101408201518160090160016101000a81548160ff0219169083151502179055506101608201518160090160026101000a81548160ff0219169083151502179055506101808201518160090160036101000a81548160ff02191690831515021790555090505060156000856060015173ffffffffffffffffffffffffffffffffffffffff1673ffffffffffffffffffffffffffffffffffffffff168152602001908152602001600020859080600181540180825580915050600190039060005260206000200160009091909190915055601760003373ffffffffffffffffffffffffffffffffffffffff1673ffffffffffffffffffffffffffffffffffffffff168152602001908152602001600020859080600181540180825580915050600190039060005260206000200160009091909190915055818673ffffffffffffffffffffffffffffffffffffffff16867ffeb04e399f6ba62d926a65372cbb5f11e3c7a9ff05e62948769d2ee5d5335b848760600151338860016040516132d9949392919061528c565b60405180910390a45050505060016000819055505050565b6000600760009054906101000a900473ffffffffffffffffffffffffffffffffffffffff1673ffffffffffffffffffffffffffffffffffffffff166378a895676040518163ffffffff1660e01b815260040160206040518083038186803b15801561335b57600080fd5b505afa15801561336f573d6000803e3d6000fd5b505050506040513d601f19601f820116820180604052508101906133939190614ba6565b905090565b600660009054906101000a900473ffffffffffffffffffffffffffffffffffffffff1673ffffffffffffffffffffffffffffffffffffffff16635a9d10a23384846040518463ffffffff1660e01b81526004016133f79392919061550e565b600060405180830381600087803b15801561341157600080fd5b505af1158015613425573d6000803e3d6000fd5b505050505050565b613435614297565b60006019600084815260200190815260200160002060405180610140016040529081600082015481526020016001820160009054906101000a900473ffffffffffffffffffffffffffffffffffffffff1673ffffffffffffffffffffffffffffffffffffffff1673ffffffffffffffffffffffffffffffffffffffff168152602001600282015481526020016003820160009054906101000a900473ffffffffffffffffffffffffffffffffffffffff1673ffffffffffffffffffffffffffffffffffffffff1673ffffffffffffffffffffffffffffffffffffffff1681526020016004820160009054906101000a900473ffffffffffffffffffffffffffffffffffffffff1673ffffffffffffffffffffffffffffffffffffffff1673ffffffffffffffffffffffffffffffffffffffff1681526020016005820160009054906101000a900473ffffffffffffffffffffffffffffffffffffffff1673ffffffffffffffffffffffffffffffffffffffff1673ffffffffffffffffffffffffffffffffffffffff1681526020016006820154815260200160078201548152602001600882015481526020016009820160009054906101000a900460ff161515151581525050905080915050919050565b60008015156136143361404d565b151514613656576040517f08c379a000000000000000000000000000000000000000000000000000000000815260040161364d906156ce565b60405180910390fd5b6001821415613702576000604051806040016040528060095481526020018581525090506009600081548092919061368d90615b3f565b919050555080600f60003373ffffffffffffffffffffffffffffffffffffffff1673ffffffffffffffffffffffffffffffffffffffff1681526020019081526020016000206000820151816000015560208201518160010190805190602001906136f8929190614211565b509050505061384e565b60028214156137ae5760006040518060400160405280600a548152602001858152509050600a600081548092919061373990615b3f565b919050555080601060003373ffffffffffffffffffffffffffffffffffffffff1673ffffffffffffffffffffffffffffffffffffffff1681526020019081526020016000206000820151816000015560208201518160010190805190602001906137a4929190614211565b509050505061384d565b60006040518060400160405280600b548152602001858152509050600b60008154809291906137dc90615b3f565b919050555080601160003373ffffffffffffffffffffffffffffffffffffffff1673ffffffffffffffffffffffffffffffffffffffff168152602001908152602001600020600082015181600001556020820151816001019080519060200190613847929190614211565b50905050505b5b600e339080600181540180825580915050600190039060005260206000200160009091909190916101000a81548173ffffffffffffffffffffffffffffffffffffffff021916908373ffffffffffffffffffffffffffffffffffffffff1602179055506001905092915050565b606060006138c96001614029565b90506000805b82811015613970573373ffffffffffffffffffffffffffffffffffffffff16601460006001846138ff9190615904565b815260200190815260200160002060030160009054906101000a900473ffffffffffffffffffffffffffffffffffffffff1673ffffffffffffffffffffffffffffffffffffffff16141561395d5760018261395a9190615904565b91505b808061396890615b3f565b9150506138cf565b5060008167ffffffffffffffff8111156139b3577f4e487b7100000000000000000000000000000000000000000000000000000000600052604160045260246000fd5b6040519080825280602002602001820160405280156139ec57816020015b6139d9614128565b8152602001906001900390816139d15790505b5090506000805b84811015613cb9573373ffffffffffffffffffffffffffffffffffffffff1660146000600184613a239190615904565b815260200190815260200160002060030160009054906101000a900473ffffffffffffffffffffffffffffffffffffffff1673ffffffffffffffffffffffffffffffffffffffff161415613ca6576000600182613a809190615904565b9050600060146000838152602001908152602001600020905080604051806101a0016040529081600082015481526020016001820160009054906101000a900473ffffffffffffffffffffffffffffffffffffffff1673ffffffffffffffffffffffffffffffffffffffff1673ffffffffffffffffffffffffffffffffffffffff168152602001600282015481526020016003820160009054906101000a900473ffffffffffffffffffffffffffffffffffffffff1673ffffffffffffffffffffffffffffffffffffffff1673ffffffffffffffffffffffffffffffffffffffff1681526020016004820160009054906101000a900473ffffffffffffffffffffffffffffffffffffffff1673ffffffffffffffffffffffffffffffffffffffff1673ffffffffffffffffffffffffffffffffffffffff168152602001600582015481526020016006820154815260200160078201548152602001600882015481526020016009820160009054906101000a900460ff161515151581526020016009820160019054906101000a900460ff161515151581526020016009820160029054906101000a900460ff161515151581526020016009820160039054906101000a900460ff161515151581525050858581518110613c89577f4e487b7100000000000000000000000000000000000000000000000000000000600052603260045260246000fd5b6020026020010181905250600184613ca19190615904565b935050505b8080613cb190615b3f565b9150506139f3565b508194505050505090565b600063f23a6e6160e01b905095945050505050565b60606000821415613d21576040518060400160405280600181526020017f30000000000000000000000000000000000000000000000000000000000000008152509050613fba565b60006064905060008167ffffffffffffffff811115613d69577f4e487b7100000000000000000000000000000000000000000000000000000000600052604160045260246000fd5b6040519080825280601f01601f191660200182016040528015613d9b5781602001600182028036833780820191505090505b50905060005b60008514613e53576000600a86613db89190615bb2565b9050600a86613dc7919061595a565b9550806030613dd69190615904565b60f81b838380613de590615b3f565b945081518110613e1e577f4e487b7100000000000000000000000000000000000000000000000000000000600052603260045260246000fd5b60200101907effffffffffffffffffffffffffffffffffffffffffffffffffffffffffffff1916908160001a90535050613da1565b60008167ffffffffffffffff811115613e95577f4e487b7100000000000000000000000000000000000000000000000000000000600052604160045260246000fd5b6040519080825280601f01601f191660200182016040528015613ec75781602001600182028036833780820191505090505b50905060005b82811015613fab578360018285613ee4919061598b565b613eee919061598b565b81518110613f25577f4e487b7100000000000000000000000000000000000000000000000000000000600052603260045260246000fd5b602001015160f81c60f81b828281518110613f69577f4e487b7100000000000000000000000000000000000000000000000000000000600052603260045260246000fd5b60200101907effffffffffffffffffffffffffffffffffffffffffffffffffffffffffffff1916908160001a9053508080613fa390615b3f565b915050613ecd565b50600081905080955050505050505b919050565b60007f01ffc9a7000000000000000000000000000000000000000000000000000000007bffffffffffffffffffffffffffffffffffffffffffffffffffffffff1916827bffffffffffffffffffffffffffffffffffffffffffffffffffffffff1916149050919050565b600081600001549050919050565b6001816000016000828254019250508190555050565b600080600090505b600e805490508160ff16101561411d578273ffffffffffffffffffffffffffffffffffffffff16600e8260ff16815481106140b9577f4e487b7100000000000000000000000000000000000000000000000000000000600052603260045260246000fd5b9060005260206000200160009054906101000a900473ffffffffffffffffffffffffffffffffffffffff1673ffffffffffffffffffffffffffffffffffffffff16141561410a576001915050614123565b808061411590615b88565b915050614055565b50600090505b919050565b604051806101a0016040528060008152602001600073ffffffffffffffffffffffffffffffffffffffff16815260200160008152602001600073ffffffffffffffffffffffffffffffffffffffff168152602001600073ffffffffffffffffffffffffffffffffffffffff168152602001600081526020016000815260200160008152602001600081526020016000151581526020016000151581526020016000151581526020016000151581525090565b60405180606001604052806000815260200160608152602001600073ffffffffffffffffffffffffffffffffffffffff1681525090565b82805461421d90615adc565b90600052602060002090601f01602090048101928261423f5760008555614286565b82601f1061425857805160ff1916838001178555614286565b82800160010185558215614286579182015b8281111561428557825182559160200191906001019061426a565b5b5090506142939190614344565b5090565b60405180610140016040528060008152602001600073ffffffffffffffffffffffffffffffffffffffff16815260200160008152602001600073ffffffffffffffffffffffffffffffffffffffff168152602001600073ffffffffffffffffffffffffffffffffffffffff168152602001600073ffffffffffffffffffffffffffffffffffffffff1681526020016000815260200160008152602001600081526020016000151581525090565b5b8082111561435d576000816000905550600101614345565b5090565b600061437461436f846157c6565b6157a1565b9050808382526020820190508285602086028201111561439357600080fd5b60005b858110156143c357816143a98882614604565b845260208401935060208301925050600181019050614396565b5050509392505050565b60006143e06143db846157c6565b6157a1565b905080838252602082019050828560208602820111156143ff57600080fd5b60005b8581101561442f57816144158882614619565b845260208401935060208301925050600181019050614402565b5050509392505050565b600061444c614447846157f2565b6157a1565b90508281526020810184848401111561446457600080fd5b61446f848285615a9a565b509392505050565b600061448a61448584615823565b6157a1565b9050828152602081018484840111156144a257600080fd5b6144ad848285615a9a565b509392505050565b60006144c86144c384615823565b6157a1565b9050828152602081018484840111156144e057600080fd5b6144eb848285615aa9565b509392505050565b60008135905061450281615da3565b92915050565b600082601f83011261451957600080fd5b8135614529848260208601614361565b91505092915050565b600082601f83011261454357600080fd5b81516145538482602086016143cd565b91505092915050565b60008135905061456b81615dba565b92915050565b60008135905061458081615dd1565b92915050565b600082601f83011261459757600080fd5b81356145a7848260208601614439565b91505092915050565b600082601f8301126145c157600080fd5b81356145d1848260208601614477565b91505092915050565b600082601f8301126145eb57600080fd5b81516145fb8482602086016144b5565b91505092915050565b60008135905061461381615de8565b92915050565b60008151905061462881615de8565b92915050565b600080600080600060a0868803121561464657600080fd5b6000614654888289016144f3565b9550506020614665888289016144f3565b945050604086013567ffffffffffffffff81111561468257600080fd5b61468e88828901614508565b935050606086013567ffffffffffffffff8111156146ab57600080fd5b6146b788828901614508565b925050608086013567ffffffffffffffff8111156146d457600080fd5b6146e088828901614586565b9150509295509295909350565b6000806000806080858703121561470357600080fd5b6000614711878288016144f3565b9450506020614722878288016144f3565b935050604061473387828801614604565b925050606085013567ffffffffffffffff81111561475057600080fd5b61475c87828801614586565b91505092959194509250565b600080600080600060a0868803121561478057600080fd5b600061478e888289016144f3565b955050602061479f888289016144f3565b94505060406147b088828901614604565b93505060606147c188828901614604565b925050608086013567ffffffffffffffff8111156147de57600080fd5b6147ea88828901614586565b9150509295509295909350565b6000806040838503121561480a57600080fd5b6000614818858286016144f3565b925050602083013567ffffffffffffffff81111561483557600080fd5b614841858286016145b0565b9150509250929050565b6000806040838503121561485e57600080fd5b600061486c858286016144f3565b925050602061487d85828601614604565b9150509250929050565b600080600080600060a0868803121561489f57600080fd5b60006148ad888289016144f3565b95505060206148be88828901614604565b94505060406148cf88828901614604565b93505060606148e088828901614604565b925050608086013567ffffffffffffffff8111156148fd57600080fd5b614909888289016145b0565b9150509295509295909350565b60008060008060008060c0878903121561492f57600080fd5b600061493d89828a016144f3565b965050602061494e89828a01614604565b955050604061495f89828a01614604565b945050606061497089828a01614604565b935050608061498189828a01614604565b92505060a061499289828a0161455c565b9150509295509295509295565b600080600080600080600060e0888a0312156149ba57600080fd5b60006149c88a828b016144f3565b97505060206149d98a828b01614604565b96505060406149ea8a828b01614604565b95505060606149fb8a828b01614604565b9450506080614a0c8a828b01614604565b93505060a0614a1d8a828b01614604565b92505060c0614a2e8a828b0161455c565b91505092959891949750929550565b600060208284031215614a4f57600080fd5b600082015167ffffffffffffffff811115614a6957600080fd5b614a7584828501614532565b91505092915050565b600060208284031215614a9057600080fd5b6000614a9e84828501614571565b91505092915050565b600060208284031215614ab957600080fd5b600082013567ffffffffffffffff811115614ad357600080fd5b614adf848285016145b0565b91505092915050565b600060208284031215614afa57600080fd5b600082015167ffffffffffffffff811115614b1457600080fd5b614b20848285016145da565b91505092915050565b60008060408385031215614b3c57600080fd5b600083013567ffffffffffffffff811115614b5657600080fd5b614b62858286016145b0565b9250506020614b7385828601614604565b9150509250929050565b600060208284031215614b8f57600080fd5b6000614b9d84828501614604565b91505092915050565b600060208284031215614bb857600080fd5b6000614bc684828501614619565b91505092915050565b60008060008060808587031215614be557600080fd5b6000614bf387828801614604565b945050602085013567ffffffffffffffff811115614c1057600080fd5b614c1c878288016145b0565b935050604085013567ffffffffffffffff811115614c3957600080fd5b614c45878288016145b0565b925050606085013567ffffffffffffffff811115614c6257600080fd5b614c6e878288016145b0565b91505092959194509250565b60008060408385031215614c8d57600080fd5b6000614c9b85828601614604565b9250506020614cac85828601614604565b9150509250929050565b6000614cc28383615008565b6101a08301905092915050565b6000614cdb838361526e565b60208301905092915050565b614cf081615a52565b82525050565b614cff816159d1565b82525050565b614d0e816159bf565b82525050565b614d1d816159bf565b82525050565b6000614d2e82615874565b614d3881856158af565b9350614d4383615854565b8060005b83811015614d74578151614d5b8882614cb6565b9750614d6683615895565b925050600181019050614d47565b5085935050505092915050565b6000614d8c8261587f565b614d9681856158c0565b9350614da183615864565b8060005b83811015614dd2578151614db98882614ccf565b9750614dc4836158a2565b925050600181019050614da5565b5085935050505092915050565b614de8816159e3565b82525050565b614df7816159e3565b82525050565b614e06816159ef565b82525050565b614e1581615a64565b82525050565b6000614e268261588a565b614e3081856158e2565b9350614e40818560208601615aa9565b614e4981615c9f565b840191505092915050565b6000614e5f8261588a565b614e6981856158f3565b9350614e79818560208601615aa9565b614e8281615c9f565b840191505092915050565b6000614e9a6002836158d1565b9150614ea582615cb0565b602082019050919050565b6000614ebd603c836158f3565b9150614ec882615cd9565b604082019050919050565b6000614ee0601f836158f3565b9150614eeb82615d28565b602082019050919050565b6000614f03601c836158f3565b9150614f0e82615d51565b602082019050919050565b6000614f266017836158f3565b9150614f3182615d7a565b602082019050919050565b61014082016000820151614f53600085018261526e565b506020820151614f666020850182614d05565b506040820151614f79604085018261526e565b506060820151614f8c6060850182614cf6565b506080820151614f9f6080850182614cf6565b5060a0820151614fb260a0850182614d05565b5060c0820151614fc560c085018261526e565b5060e0820151614fd860e085018261526e565b50610100820151614fed61010085018261526e565b50610120820151615002610120850182614ddf565b50505050565b6101a08201600082015161501f600085018261526e565b5060208201516150326020850182614d05565b506040820151615045604085018261526e565b5060608201516150586060850182614cf6565b50608082015161506b6080850182614cf6565b5060a082015161507e60a085018261526e565b5060c082015161509160c085018261526e565b5060e08201516150a460e085018261526e565b506101008201516150b961010085018261526e565b506101208201516150ce610120850182614ddf565b506101408201516150e3610140850182614ddf565b506101608201516150f8610160850182614ddf565b5061018082015161510d610180850182614ddf565b50505050565b6101a08201600082015161512a600085018261526e565b50602082015161513d6020850182614d05565b506040820151615150604085018261526e565b5060608201516151636060850182614cf6565b5060808201516151766080850182614cf6565b5060a082015161518960a085018261526e565b5060c082015161519c60c085018261526e565b5060e08201516151af60e085018261526e565b506101008201516151c461010085018261526e565b506101208201516151d9610120850182614ddf565b506101408201516151ee610140850182614ddf565b50610160820151615203610160850182614ddf565b50610180820151615218610180850182614ddf565b50505050565b6000606083016000830151615236600086018261526e565b506020830151848203602086015261524e8282614e1b565b91505060408301516152636040860182614d05565b508091505092915050565b61527781615a3b565b82525050565b61528681615a3b565b82525050565b60006080820190506152a16000830187614ce7565b6152ae6020830186614d14565b6152bb604083018561527d565b6152c86060830184614dee565b95945050505050565b60006060820190506152e66000830186614d14565b6152f36020830185614d14565b615300604083018461527d565b949350505050565b600060a08201905061531d6000830187614d14565b61532a6020830186614d14565b615337604083018561527d565b6153446060830184614e0c565b818103608083015261535581614e8d565b905095945050505050565b600060a0820190506153756000830187614d14565b6153826020830186614d14565b61538f604083018561527d565b61539c606083018461527d565b81810360808301526153ad81614e8d565b905095945050505050565b600060c0820190506153cd6000830189614d14565b6153da6020830188614d14565b6153e7604083018761527d565b6153f4606083018661527d565b615401608083018561527d565b61540e60a0830184614dee565b979650505050505050565b60006101208201905061542f600083018c614d14565b61543c602083018b61527d565b615449604083018a614e0c565b615456606083018961527d565b615463608083018861527d565b61547060a0830187614dee565b61547d60c0830186614dee565b61548a60e0830185614dee565b615498610100830184614dee565b9a9950505050505050505050565b600060a0820190506154bb6000830188614d14565b6154c8602083018761527d565b81810360408301526154da8186614e54565b905081810360608301526154ee8185614e54565b905081810360808301526155028184614e54565b90509695505050505050565b60006060820190506155236000830186614d14565b615530602083018561527d565b61553d604083018461527d565b949350505050565b60006101208201905061555b600083018c614d14565b615568602083018b61527d565b615575604083018a61527d565b615582606083018961527d565b61558f608083018861527d565b61559c60a0830187614dee565b6155a960c0830186614dee565b6155b660e0830185614dee565b6155c4610100830184614dee565b9a9950505050505050505050565b600060208201905081810360008301526155ec8184614d23565b905092915050565b6000602082019050818103600083015261560e8184614d81565b905092915050565b600060208201905061562b6000830184614dee565b92915050565b60006020820190506156466000830184614dfd565b92915050565b600060208201905081810360008301526156668184614e54565b905092915050565b6000602082019050818103600083015261568781614eb0565b9050919050565b600060208201905081810360008301526156a781614ed3565b9050919050565b600060208201905081810360008301526156c781614ef6565b9050919050565b600060208201905081810360008301526156e781614f19565b9050919050565b6000610140820190506157046000830184614f3c565b92915050565b60006101a0820190506157206000830184615113565b92915050565b60006020820190508181036000830152615740818461521e565b905092915050565b600060208201905061575d600083018461527d565b92915050565b6000606082019050615778600083018661527d565b818103602083015261578a8185614e54565b90506157996040830184614d14565b949350505050565b60006157ab6157bc565b90506157b78282615b0e565b919050565b6000604051905090565b600067ffffffffffffffff8211156157e1576157e0615c70565b5b602082029050602081019050919050565b600067ffffffffffffffff82111561580d5761580c615c70565b5b61581682615c9f565b9050602081019050919050565b600067ffffffffffffffff82111561583e5761583d615c70565b5b61584782615c9f565b9050602081019050919050565b6000819050602082019050919050565b6000819050602082019050919050565b600081519050919050565b600081519050919050565b600081519050919050565b6000602082019050919050565b6000602082019050919050565b600082825260208201905092915050565b600082825260208201905092915050565b600082825260208201905092915050565b600082825260208201905092915050565b600082825260208201905092915050565b600061590f82615a3b565b915061591a83615a3b565b9250827fffffffffffffffffffffffffffffffffffffffffffffffffffffffffffffffff0382111561594f5761594e615be3565b5b828201905092915050565b600061596582615a3b565b915061597083615a3b565b9250826159805761597f615c12565b5b828204905092915050565b600061599682615a3b565b91506159a183615a3b565b9250828210156159b4576159b3615be3565b5b828203905092915050565b60006159ca82615a1b565b9050919050565b60006159dc82615a1b565b9050919050565b60008115159050919050565b60007fffffffff0000000000000000000000000000000000000000000000000000000082169050919050565b600073ffffffffffffffffffffffffffffffffffffffff82169050919050565b6000819050919050565b600060ff82169050919050565b6000615a5d82615a76565b9050919050565b6000615a6f82615a3b565b9050919050565b6000615a8182615a88565b9050919050565b6000615a9382615a1b565b9050919050565b82818337600083830152505050565b60005b83811015615ac7578082015181840152602081019050615aac565b83811115615ad6576000848401525b50505050565b60006002820490506001821680615af457607f821691505b60208210811415615b0857615b07615c41565b5b50919050565b615b1782615c9f565b810181811067ffffffffffffffff82111715615b3657615b35615c70565b5b80604052505050565b6000615b4a82615a3b565b91507fffffffffffffffffffffffffffffffffffffffffffffffffffffffffffffffff821415615b7d57615b7c615be3565b5b600182019050919050565b6000615b9382615a45565b915060ff821415615ba757615ba6615be3565b5b600182019050919050565b6000615bbd82615a3b565b9150615bc883615a3b565b925082615bd857615bd7615c12565b5b828206905092915050565b7f4e487b7100000000000000000000000000000000000000000000000000000000600052601160045260246000fd5b7f4e487b7100000000000000000000000000000000000000000000000000000000600052601260045260246000fd5b7f4e487b7100000000000000000000000000000000000000000000000000000000600052602260045260246000fd5b7f4e487b7100000000000000000000000000000000000000000000000000000000600052604160045260246000fd5b6000601f19601f8301169050919050565b7f5b5d000000000000000000000000000000000000000000000000000000000000600082015250565b7f4275796572206d757374207472617366657220457468657220657175616c206f60008201527f722067726561746572207468616e205072696365206f66204974656d00000000602082015250565b7f5265656e7472616e637947756172643a207265656e7472616e742063616c6c00600082015250565b7f5072696365206d757374206265206174206c6561737420312077656900000000600082015250565b7f5573657220416c72656164792072656769737465726564000000000000000000600082015250565b615dac816159bf565b8114615db757600080fd5b50565b615dc3816159e3565b8114615dce57600080fd5b50565b615dda816159ef565b8114615de557600080fd5b50565b615df181615a3b565b8114615dfc57600080fd5b5056fea26469706673582212208820a123bef67e3a8113ed4223ec830b96336aae80e3bd8ed1903c96e0b1928d64736f6c63430008030033",
  "immutableReferences": {},
  "source": "// \"SPDX-License-Identifier: UNLICENSED\"\npragma solidity ^ 0.8 .3;\n\nimport \"./ACHouseToken1155.sol\";\nimport \"./ACHouseToken721.sol\";\n\nimport \"@openzeppelin/contracts/utils/Counters.sol\";\nimport \"@openzeppelin/contracts/security/ReentrancyGuard.sol\";\n\n\nimport \"@openzeppelin/contracts/token/ERC721/utils/ERC721Holder.sol\";\nimport \"@openzeppelin/contracts/token/ERC1155/utils/ERC1155Holder.sol\";\n\ncontract ACHouse is ReentrancyGuard, ERC1155Holder, ERC721Holder {\n  using Counters for Counters.Counter;\n  Counters.Counter private _itemIds;\n  Counters.Counter private _itemsSold;\n  Counters.Counter private _fracItemIds;\n  Counters.Counter private _ngoIds;\n\n  address owner;\n\n  ACHouseToken1155 _multiToken;\n  ACHouseToken721 _nftToken;\n\n  MarketItem[] mItems;\n\n  /** Variables and Event Emitters */\n  struct AuctionPlace {\n    uint256 id;\n    string name;\n  } \n  struct Artist {\n    uint256 id;\n    string name;\n  }\n  struct Participant {\n    uint256 id;\n    string name;\n  }\n  struct NGO {\n    uint256 id;\n    string name;\n    address charityAddress;\n  }\n\n  uint auctionPlaceCount = 0;\n  uint artistCount = 0;\n  uint participantCount = 0;\n  uint ngoCount = 0;\n  NGO[] public ngoArray;\n  address[] RegisteredUserAddresses; // might be used??\n\n  // mapping address to type\n  mapping(address => AuctionPlace) AuctionPlaceMapping;\n  mapping(address => Artist) ArtistMapping;\n  mapping(address => Participant) ParticipantMapping;\n\n  mapping(uint256 => NGO) NgoMapping;\n  // User address maps to - Chaities and the donation amount. \n  mapping(address => mapping(address => uint256)) UserNGODonation;\n\n  struct MarketItem {\n    uint itemId;\n    address nftContract;\n    uint256 tokenId;\n    address payable seller;\n    address payable owner;\n    uint256 price;\n    uint256 amount;\n    uint256 charityId;\n    uint256 auctionTime;\n    bool sold;\n    bool isMultiToken;\n    bool isRemoved;\n    bool isFrac;\n  }\n\n  mapping(uint256 => MarketItem) private idToMarketItemMapping;\n  \n  //user mapping to itemSold array\n  mapping( address => uint256[]) userSoldItemMapping;\n  //user sold count mapp;\n  mapping ( address => uint256) userSoldCountMapping;\n  //user mapping to purchased item  array\n  mapping( address => uint256[]) userpurchasedItemMapping;\n  //user purchased count mapp;\n  mapping ( address => uint256) userPurchasedCountMapping;\n  \n  event MarketItemCreated(uint indexed itemId, address indexed nftContract, uint256 indexed tokenId, \n    address seller, uint256 price, uint256 amount, uint256 charityId, uint256 auctionTime, bool sold, bool isMultiToken, bool isRemoved, bool isFrac);\n  \n  event MarketItemSold(uint indexed itemId, address indexed nftContract, uint256 indexed tokenId, \n    address seller, address owner, uint256 price, bool sold);\n\n  /*******************fractionalize NFT */\n  struct FractionalizeToken {\n    uint itemId;\n    address nftContract;\n    uint256 tokenId;\n    address payable seller;\n    address payable owner;\n    address fractionalContract;\n    uint256 shardId;\n    uint256 supplyMinted;\n    uint256 supplyRemaining;\n    bool isMultiToken;\n  }\n  // id to fracToken\n  mapping(uint256 => FractionalizeToken) idToFracToken;\n  //user purchase to id to amount purchased\n  mapping (address => mapping(uint256 => uint256)) userShardPurchaseAmount;\n  \n  event FractionalTokenCreated(uint indexed itemId, address indexed nftContract, uint256 indexed tokenId, \n    address seller, address fractionalContract, uint256 shardId, uint256 supplyMinted, uint256 supplyRemaining,  bool isMultiToken);\n    \n\n  constructor(address _mToken, address _nToken) {\n    _multiToken = ACHouseToken1155(_mToken);\n    _nftToken = ACHouseToken721(_nToken);\n    \n    _multiToken.setParentAddress(address(this));\n    _nftToken.setParentAddress(address(this));\n    owner = payable(msg.sender);\n  }\n\n  function addCharity(address charityAddress, string memory name) public {\n    _ngoIds.increment();\n    uint256 id = _ngoIds.current();\n    NGO memory charity = NGO(id, name, charityAddress);\n\n    NgoMapping[id] = charity;\n  }\n\n  function getCharityInfo(uint256 _id) public view returns(NGO memory) {\n    return NgoMapping[_id];\n  }\n  \n  /***************************************************************************************************************************************/\n  /**MarketPlace functionality */\n  function create1155MarketItem(address nftContract, uint256 tokenId, uint256 price, uint256 amount, uint256 _charityId, uint256 auctionTime, bool isFrac) public payable nonReentrant returns (uint256){\n    require(price > 0, \"Price must be at least 1 wei\");\n\n    _itemIds.increment();\n    uint256 itemId = _itemIds.current();\n    \n    MarketItem memory item = MarketItem(itemId, nftContract, tokenId, payable(msg.sender), payable(address(0)), price, amount, _charityId, auctionTime, false, true, false, isFrac); // amount will always be 1. \n    idToMarketItemMapping[itemId] = item;\n\n    IERC1155(nftContract).safeTransferFrom(msg.sender, address(this), tokenId, amount, '[]');\n\n    emit MarketItemCreated(itemId, nftContract, tokenId, msg.sender, price, amount, _charityId, auctionTime, false, true, false, isFrac);\n\n    return itemId;\n  }\n\n  function create721MarketItem(address nftContract, uint256 tokenId, uint256 price, uint256 _charityId, uint256 auctionTime, bool isFrac ) public payable nonReentrant returns (uint256){\n    // require(price > 0, \"Price must be at least 1 wei\");\n    // require(msg.value == listingPrice, \"Price must be equal to listing price\");\n\n    _itemIds.increment();\n    uint256 itemId = _itemIds.current();\n\n    MarketItem memory item = MarketItem(itemId, nftContract, tokenId, payable(msg.sender), payable(address(0)), price, 1, _charityId, auctionTime, false, true, false, isFrac); // amount will always be 1. \n    idToMarketItemMapping[itemId] = item;\n\n    IERC721(nftContract).transferFrom(msg.sender, address(this), tokenId);\n\n    emit MarketItemCreated(itemId, nftContract, tokenId, msg.sender, price, 1, _charityId, auctionTime, false, false, false, isFrac);\n\n    return itemId;\n  }\n  \n  // Remove item from marketplace\n  function removeMarketPlaceItem( uint256 itemId) public {\n      \n      idToMarketItemMapping[itemId].isRemoved = true;\n  }\n  \n  // re add item to marketplace\n  function addMarketPlaceItem( uint256 itemId) public {\n      \n      idToMarketItemMapping[itemId].isRemoved = false;\n  }\n  \n  /* Creates the sale of a marketplace item */\n  /* Transfers ownership of the item, as well as funds between parties */\n  function createMarketSale(address nftContract, uint256 itemId) public payable nonReentrant {\n    \n    MarketItem memory item = idToMarketItemMapping[itemId];\n    \n    uint price = item.price;\n    uint tokenId = item.tokenId;\n    bool isMultiToken = item.isMultiToken;\n    require(msg.value >= price, \"Buyer must trasfer Ether equal or greater than Price of Item\");\n\n    // transfer funds\n    item.seller.transfer(msg.value);\n\n    //transfer ownership.\n    if(isMultiToken){\n      IERC1155(nftContract).safeTransferFrom(address(this), msg.sender, item.tokenId, item.amount, '[]');\n    }else{\n      IERC721(nftContract).transferFrom(address(this), msg.sender, tokenId);\n    }\n    \n    //set new owner inrecords.\n    item.owner = payable(msg.sender);\n    //set sold to true\n    item.sold = true;\n    //increament itemSold counter.\n    _itemsSold.increment();\n    \n    idToMarketItemMapping[itemId] = item;\n    // mapp user address to itemSold [] and purchased[]\n    userSoldItemMapping[item.seller].push(itemId);\n    \n    //user mapping to purchased item  array\n    userpurchasedItemMapping[msg.sender].push(itemId);\n\n    emit MarketItemSold( itemId, nftContract, tokenId, item.seller, msg.sender, price, true);\n  }\n\n  function fetchMarketItem(uint256 _id) public view returns(MarketItem memory){\n    return idToMarketItemMapping[_id];\n  }\n\n  /* Returns all unsold market items */\n  function fetchUnSoldMarketItems() public view returns(MarketItem[] memory) {\n    \n    uint totalUnSoldCount = _itemIds.current() - _itemsSold.current();\n    MarketItem[] memory items = new MarketItem[] (totalUnSoldCount);\n    \n    uint unsoldCurrentIndex = 0;\n    \n    uint totalItemCount = _itemIds.current();\n      \n    for(uint i=0; i < totalItemCount; i++){\n        // only way i found to iterate through a mapping. \n        if(idToMarketItemMapping[i+1].owner == address(0) && idToMarketItemMapping[i+1].isRemoved == false ) { \n            uint currentID = i+1;\n\n            MarketItem storage currentItem = idToMarketItemMapping[currentID];\n            items[unsoldCurrentIndex] = currentItem;\n            \n            // uint itemId =idToMarketItemMapping[currentID].itemId;\n            // string memory str =  uint2str(itemId);\n            \n            // itemIdStr.push(str);\n            \n            unsoldCurrentIndex +=1;\n        }\n    }\n    \n    return items; \n  }\n\n  /* Returns only items that a user has purchased */\n  function fetchMyNFTs() public view returns (MarketItem[] memory) {\n    \n    uint256[] memory userPurchasedIds = userpurchasedItemMapping[msg.sender];\n    \n    \n    MarketItem[] memory items = new MarketItem[](userPurchasedIds.length);\n    for(uint i =0; i< userPurchasedIds.length; i++){\n        \n        // MarketItem memory item = idToMarketItemMapping[userPurchasedIds[i]];\n        \n        items[i] = idToMarketItemMapping[userPurchasedIds[i]];\n    }\n    return items;\n  }\n\n  /* Returns only items a user has created */\n  function fetchItemsCreated() public view returns (MarketItem[] memory) {\n    //get total item count - created nin MarketItem.\n    uint totalItemCount = _itemIds.current();\n    uint itemCount = 0;\n    \n    for (uint i = 0; i < totalItemCount; i++) {\n      if (idToMarketItemMapping[i + 1].seller == msg.sender) {\n        itemCount += 1;\n      }\n    }\n\n    MarketItem[] memory items = new MarketItem[](itemCount);\n    uint currentIndex = 0;\n    \n    for (uint i = 0; i < totalItemCount; i++) {\n      if (idToMarketItemMapping[i + 1].seller == msg.sender) {\n        uint currentId = i + 1;\n        MarketItem storage currentItem = idToMarketItemMapping[currentId];\n        items[currentIndex] = currentItem;\n        currentIndex += 1;\n      }\n    }\n    return items;\n  }\n  \n  /***************************************************************************************************************************************/\n  /**Functions - Registration  */\n  function register(string memory _name, uint _userType) public returns(bool) {\n    require(isUserRegistered(msg.sender) == false, \"User Already registered\");\n\n    //userType { 1: Auction, 2: Artist, 3: Participant}\n    // register user by type\n    if (_userType == 1) {\n      AuctionPlace memory ac = AuctionPlace(auctionPlaceCount, _name);\n      auctionPlaceCount++;\n\n      AuctionPlaceMapping[msg.sender] = ac;\n    } else if (_userType == 2) {\n      Artist memory ar = Artist(artistCount, _name);\n      artistCount++;\n\n      ArtistMapping[msg.sender] = ar;\n    } else {\n      Participant memory part = Participant(participantCount, _name);\n      participantCount++;\n\n      ParticipantMapping[msg.sender] = part;\n    }\n\n    RegisteredUserAddresses.push(msg.sender);\n    return true;\n  }\n\n  /**ERC1155 functionality ***********************************************/\n  function setURI1155(string memory _uri) public {\n    _multiToken.setURI(_uri);\n  }\n\n  function getTokenURI(uint256 _tokenId) public view returns(string memory){\n    return _multiToken.getTokenURI(_tokenId);\n  }\n  // mint 1155 NFT - set supply to 1. \n  function createNFT1155(uint256 _id, uint256 _amount) public {\n    _multiToken.mintNFT(msg.sender, _id, _amount);\n  }\n\n  //get tokens totalnumber. \n  function getTokenCount() public view returns(uint256) {\n    return _multiToken.getTokenCount();\n  }\n  //returns the array of all tokenids. \n  function getTokenIds() public view returns(uint256[] memory) {\n    return _multiToken.getTokenIds();\n  }\n\n  function getTokenSupply(uint256 _tokenId) public view returns(uint256) {\n    return _multiToken.getTotalSupplyOfToken(_tokenId);\n  }\n\n  /*************Fractional NFT */\n\n  //hold NFT and trasnfer ownership to ACHouse. \n  // ACHouse will mint 1155 then set it to orig owner of nft. \n  function fractionalize1155NFT(address nftContract, uint256 tokenId, uint256 shardId, uint256 supplyToCreate, string memory uri) public returns (uint256) {\n    _fracItemIds.increment();\n    uint fracId = _fracItemIds.current();\n\n    FractionalizeToken memory fracItem = FractionalizeToken(fracId, nftContract, tokenId, payable(msg.sender), \n      payable(address(0)), address(_multiToken), shardId, supplyToCreate, supplyToCreate, true); // supplyMinted and SupplyRemaining will be set as same for now. \n    \n    idToFracToken[fracId] = fracItem;\n\n    //get ownership of nftContract and its token.\n    IERC1155(nftContract).safeTransferFrom(msg.sender, address(this), tokenId, 1, '[]');\n    \n    //Mint 1155 fungible tokens. \n    setURI1155(uri); // call functiont to set uRL in 1155 token\n    _multiToken.mintNFT(msg.sender, fracId, supplyToCreate); //shard tokens created and ownership set to msg.sender ( person who decided to frac nft.)\n    \n    emit FractionalTokenCreated(fracId, nftContract, tokenId, msg.sender, address(_multiToken), shardId, supplyToCreate, supplyToCreate, true);\n    \n    return fracId;\n    \n    \n  }\n\n  function fractionalize721NFT(address nftContract, uint256 tokenId, uint256 shardId, uint256 supplyToCreate, string memory uri) public returns (uint256) {\n    _fracItemIds.increment();\n    uint fracId = _fracItemIds.current();\n    \n     FractionalizeToken memory fracItem = FractionalizeToken(fracId, nftContract, tokenId, payable(msg.sender), \n      payable(address(0)), address(_multiToken), shardId, supplyToCreate, supplyToCreate, false); // supplyMinted and SupplyRemaining will be set as same for now. \n    \n    idToFracToken[fracId] = fracItem;\n\n    //get ownership of nftContract and its token.\n    IERC721(nftContract).transferFrom(msg.sender, address(this), tokenId);\n\n    //Mint 1155 fungible tokens.\n    setURI1155(uri); // call functiont to set uRL in 1155 token\n    _multiToken.mintNFT(msg.sender, fracId, supplyToCreate); //shard tokens created and ownership set to msg.sender ( person who decided to frac nft.)\n    \n    emit FractionalTokenCreated(fracId, nftContract, tokenId, msg.sender, address(_multiToken), shardId, supplyToCreate, supplyToCreate, false);\n    \n    return fracId;\n  }\n\n  function getFractionalInformation(uint256 _fracId) public view returns (FractionalizeToken memory ){\n      \n      FractionalizeToken memory item = idToFracToken[_fracId];\n      \n      return item;\n  }\n  \n  /**ERC721 functionzlity *************************************************/\n  // mint 721 NFT - set supply to 1. \n  function createNFT721(uint256 _id, string memory uri, string memory name, string memory symbol) public {\n    _nftToken.mintNFT(msg.sender, _id, uri, name, symbol);\n  }\n\n  //get tokens totalnumber. \n  function get721TokenCount() public view returns(uint256) {\n    return _nftToken.getTokenCount();\n  }\n  //returns the array of all tokenids. \n  function get721TokenIds() public view returns(uint256[] memory) {\n    return _nftToken.getTokenIds();\n  }\n\n  function get721TokenName(uint256 _id) public view returns(string memory){\n    return _nftToken.getTokenName(_id);\n  }\n\n  function get721TokenSymbol(uint256 _id) public view returns(string memory){\n    return _nftToken.getTokenSymbol(_id);\n  }\n\n  function get721TokenURI(uint256 _id) public view returns(string memory) {\n    return _nftToken.getTokenUri(_id);\n  }\n\n  /**Helpers */\n  function isUserRegistered(address _address) internal view returns(bool) {\n    for (uint8 j = 0; j < RegisteredUserAddresses.length; j++) {\n      if (RegisteredUserAddresses[j] == _address) {\n        return (true); // user is registered.\n      }\n    }\n    return (false); // user is not registered.\n  }\n  \n   function uint2str(uint v) public pure returns (string memory) {\n        if(v == 0){\n            return '0';\n        }\n        uint maxlength = 100;\n        bytes memory reversed = new bytes(maxlength);\n        uint i = 0;\n        while (v != 0) {\n            uint remainder = v % 10;\n            v = v / 10;\n            reversed[i++] = bytes1(uint8(48 + remainder));\n        }\n        bytes memory s = new bytes(i); // i + 1 is inefficient\n        for (uint j = 0; j < i; j++) {\n            s[j] = reversed[i - j - 1]; // to avoid the off-by-one error\n        }\n        string memory str = string(s);  // memory isn't implicitly convertible to storage\n        return str;\n    }\n  \n}",
  "sourcePath": "/home/dinesh/Projects/EthOnline/contracts/ACHouse.sol",
  "compiler": {
    "name": "solc",
    "version": "0.8.3+commit.8d00100c.Emscripten.clang"
  },
  "schemaVersion": "3.3.4",
  "updatedAt": "2021-10-10T21:21:15.659Z",
  "networkType": "ethereum",
  "devdoc": {
    "kind": "dev",
    "methods": {
      "onERC721Received(address,address,uint256,bytes)": {
        "details": "See {IERC721Receiver-onERC721Received}. Always returns `IERC721Receiver.onERC721Received.selector`."
      },
      "supportsInterface(bytes4)": {
        "details": "See {IERC165-supportsInterface}."
      }
    },
    "version": 1
  },
  "userdoc": {
    "kind": "user",
    "methods": {
      "create1155MarketItem(address,uint256,uint256,uint256,uint256,uint256,bool)": {
        "notice": "MarketPlace functionality "
      },
      "createNFT721(uint256,string,string,string)": {
        "notice": "ERC721 functionzlity ************************************************"
      },
      "register(string,uint256)": {
        "notice": "Functions - Registration  "
      },
      "setURI1155(string)": {
        "notice": "ERC1155 functionality **********************************************"
      }
    },
    "version": 1
  }
}