{
  "contractName": "ACHouseToken1155",
  "abi": [
    {
      "inputs": [],
      "stateMutability": "nonpayable",
      "type": "constructor"
    },
    {
      "anonymous": false,
      "inputs": [
        {
          "indexed": true,
          "internalType": "address",
          "name": "account",
          "type": "address"
        },
        {
          "indexed": true,
          "internalType": "address",
          "name": "operator",
          "type": "address"
        },
        {
          "indexed": false,
          "internalType": "bool",
          "name": "approved",
          "type": "bool"
        }
      ],
      "name": "ApprovalForAll",
      "type": "event"
    },
    {
      "anonymous": false,
      "inputs": [
        {
          "indexed": true,
          "internalType": "address",
          "name": "operator",
          "type": "address"
        },
        {
          "indexed": true,
          "internalType": "address",
          "name": "from",
          "type": "address"
        },
        {
          "indexed": true,
          "internalType": "address",
          "name": "to",
          "type": "address"
        },
        {
          "indexed": false,
          "internalType": "uint256[]",
          "name": "ids",
          "type": "uint256[]"
        },
        {
          "indexed": false,
          "internalType": "uint256[]",
          "name": "values",
          "type": "uint256[]"
        }
      ],
      "name": "TransferBatch",
      "type": "event"
    },
    {
      "anonymous": false,
      "inputs": [
        {
          "indexed": true,
          "internalType": "address",
          "name": "operator",
          "type": "address"
        },
        {
          "indexed": true,
          "internalType": "address",
          "name": "from",
          "type": "address"
        },
        {
          "indexed": true,
          "internalType": "address",
          "name": "to",
          "type": "address"
        },
        {
          "indexed": false,
          "internalType": "uint256",
          "name": "id",
          "type": "uint256"
        },
        {
          "indexed": false,
          "internalType": "uint256",
          "name": "value",
          "type": "uint256"
        }
      ],
      "name": "TransferSingle",
      "type": "event"
    },
    {
      "anonymous": false,
      "inputs": [
        {
          "indexed": false,
          "internalType": "string",
          "name": "value",
          "type": "string"
        },
        {
          "indexed": true,
          "internalType": "uint256",
          "name": "id",
          "type": "uint256"
        }
      ],
      "name": "URI",
      "type": "event"
    },
    {
      "inputs": [
        {
          "internalType": "address",
          "name": "account",
          "type": "address"
        },
        {
          "internalType": "uint256",
          "name": "id",
          "type": "uint256"
        }
      ],
      "name": "balanceOf",
      "outputs": [
        {
          "internalType": "uint256",
          "name": "",
          "type": "uint256"
        }
      ],
      "stateMutability": "view",
      "type": "function"
    },
    {
      "inputs": [
        {
          "internalType": "address[]",
          "name": "accounts",
          "type": "address[]"
        },
        {
          "internalType": "uint256[]",
          "name": "ids",
          "type": "uint256[]"
        }
      ],
      "name": "balanceOfBatch",
      "outputs": [
        {
          "internalType": "uint256[]",
          "name": "",
          "type": "uint256[]"
        }
      ],
      "stateMutability": "view",
      "type": "function"
    },
    {
      "inputs": [
        {
          "internalType": "address",
          "name": "account",
          "type": "address"
        },
        {
          "internalType": "address",
          "name": "operator",
          "type": "address"
        }
      ],
      "name": "isApprovedForAll",
      "outputs": [
        {
          "internalType": "bool",
          "name": "",
          "type": "bool"
        }
      ],
      "stateMutability": "view",
      "type": "function"
    },
    {
      "inputs": [
        {
          "internalType": "address",
          "name": "from",
          "type": "address"
        },
        {
          "internalType": "address",
          "name": "to",
          "type": "address"
        },
        {
          "internalType": "uint256[]",
          "name": "ids",
          "type": "uint256[]"
        },
        {
          "internalType": "uint256[]",
          "name": "amounts",
          "type": "uint256[]"
        },
        {
          "internalType": "bytes",
          "name": "data",
          "type": "bytes"
        }
      ],
      "name": "safeBatchTransferFrom",
      "outputs": [],
      "stateMutability": "nonpayable",
      "type": "function"
    },
    {
      "inputs": [
        {
          "internalType": "address",
          "name": "from",
          "type": "address"
        },
        {
          "internalType": "address",
          "name": "to",
          "type": "address"
        },
        {
          "internalType": "uint256",
          "name": "id",
          "type": "uint256"
        },
        {
          "internalType": "uint256",
          "name": "amount",
          "type": "uint256"
        },
        {
          "internalType": "bytes",
          "name": "data",
          "type": "bytes"
        }
      ],
      "name": "safeTransferFrom",
      "outputs": [],
      "stateMutability": "nonpayable",
      "type": "function"
    },
    {
      "inputs": [
        {
          "internalType": "address",
          "name": "operator",
          "type": "address"
        },
        {
          "internalType": "bool",
          "name": "approved",
          "type": "bool"
        }
      ],
      "name": "setApprovalForAll",
      "outputs": [],
      "stateMutability": "nonpayable",
      "type": "function"
    },
    {
      "inputs": [
        {
          "internalType": "bytes4",
          "name": "interfaceId",
          "type": "bytes4"
        }
      ],
      "name": "supportsInterface",
      "outputs": [
        {
          "internalType": "bool",
          "name": "",
          "type": "bool"
        }
      ],
      "stateMutability": "view",
      "type": "function"
    },
    {
      "inputs": [
        {
          "internalType": "uint256",
          "name": "",
          "type": "uint256"
        }
      ],
      "name": "uri",
      "outputs": [
        {
          "internalType": "string",
          "name": "",
          "type": "string"
        }
      ],
      "stateMutability": "view",
      "type": "function"
    },
    {
      "inputs": [
        {
          "internalType": "address",
          "name": "_address",
          "type": "address"
        }
      ],
      "name": "setParentAddress",
      "outputs": [],
      "stateMutability": "nonpayable",
      "type": "function"
    },
    {
      "inputs": [
        {
          "internalType": "string",
          "name": "newuri",
          "type": "string"
        }
      ],
      "name": "setURI",
      "outputs": [],
      "stateMutability": "nonpayable",
      "type": "function"
    },
    {
      "inputs": [
        {
          "internalType": "address",
          "name": "_ownerAddress",
          "type": "address"
        },
        {
          "internalType": "uint256",
          "name": "_id",
          "type": "uint256"
        },
        {
          "internalType": "uint256",
          "name": "amount",
          "type": "uint256"
        }
      ],
      "name": "mintNFT",
      "outputs": [],
      "stateMutability": "nonpayable",
      "type": "function"
    },
    {
      "inputs": [],
      "name": "getTokenCount",
      "outputs": [
        {
          "internalType": "uint256",
          "name": "",
          "type": "uint256"
        }
      ],
      "stateMutability": "view",
      "type": "function"
    },
    {
      "inputs": [],
      "name": "getTokenIds",
      "outputs": [
        {
          "internalType": "uint256[]",
          "name": "",
          "type": "uint256[]"
        }
      ],
      "stateMutability": "view",
      "type": "function"
    }
  ],
  "bytecode": "0x60806040523480156200001157600080fd5b506040518060200160405280600081525062000033816200003a60201b60201c565b506200016b565b80600290805190602001906200005292919062000056565b5050565b828054620000649062000106565b90600052602060002090601f016020900481019282620000885760008555620000d4565b82601f10620000a357805160ff1916838001178555620000d4565b82800160010185558215620000d4579182015b82811115620000d3578251825591602001919060010190620000b6565b5b509050620000e39190620000e7565b5090565b5b8082111562000102576000816000905550600101620000e8565b5090565b600060028204905060018216806200011f57607f821691505b602082108114156200013657620001356200013c565b5b50919050565b7f4e487b7100000000000000000000000000000000000000000000000000000000600052602260045260246000fd5b612c79806200017b6000396000f3fe608060405234801561001057600080fd5b50600436106100ce5760003560e01c80635a9d10a21161008c578063a22cb46511610066578063a22cb46514610223578063e985e9c51461023f578063f242432a1461026f578063fa5afe401461028b576100ce565b80635a9d10a2146101cb57806367f718a9146101e757806378a8956714610205576100ce565b8062fdd58e146100d357806301ffc9a71461010357806302fe5305146101335780630e89341c1461014f5780632eb2c2d61461017f5780634e1273f41461019b575b600080fd5b6100ed60048036038101906100e89190611cc3565b6102a7565b6040516100fa91906123d3565b60405180910390f35b61011d60048036038101906101189190611dba565b610370565b60405161012a9190612236565b60405180910390f35b61014d60048036038101906101489190611e0c565b610452565b005b61016960048036038101906101649190611e4d565b61045e565b6040516101769190612251565b60405180910390f35b61019960048036038101906101949190611b39565b6104f2565b005b6101b560048036038101906101b09190611d4e565b610593565b6040516101c291906121dd565b60405180910390f35b6101e560048036038101906101e09190611cff565b610744565b005b6101ef6107ba565b6040516101fc91906121dd565b60405180910390f35b61020d610812565b60405161021a91906123d3565b60405180910390f35b61023d60048036038101906102389190611c87565b61081f565b005b61025960048036038101906102549190611afd565b6109a0565b6040516102669190612236565b60405180910390f35b61028960048036038101906102849190611bf8565b610a34565b005b6102a560048036038101906102a09190611ad4565b610ad5565b005b60008073ffffffffffffffffffffffffffffffffffffffff168373ffffffffffffffffffffffffffffffffffffffff161415610318576040517f08c379a000000000000000000000000000000000000000000000000000000000815260040161030f906122b3565b60405180910390fd5b60008083815260200190815260200160002060008473ffffffffffffffffffffffffffffffffffffffff1673ffffffffffffffffffffffffffffffffffffffff16815260200190815260200160002054905092915050565b60007fd9b67a26000000000000000000000000000000000000000000000000000000007bffffffffffffffffffffffffffffffffffffffffffffffffffffffff1916827bffffffffffffffffffffffffffffffffffffffffffffffffffffffff1916148061043b57507f0e89341c000000000000000000000000000000000000000000000000000000007bffffffffffffffffffffffffffffffffffffffffffffffffffffffff1916827bffffffffffffffffffffffffffffffffffffffffffffffffffffffff1916145b8061044b575061044a82610b19565b5b9050919050565b61045b81610b83565b50565b60606002805461046d90612673565b80601f016020809104026020016040519081016040528092919081815260200182805461049990612673565b80156104e65780601f106104bb576101008083540402835291602001916104e6565b820191906000526020600020905b8154815290600101906020018083116104c957829003601f168201915b50505050509050919050565b6104fa610b9d565b73ffffffffffffffffffffffffffffffffffffffff168573ffffffffffffffffffffffffffffffffffffffff161480610540575061053f8561053a610b9d565b6109a0565b5b61057f576040517f08c379a000000000000000000000000000000000000000000000000000000000815260040161057690612313565b60405180910390fd5b61058c8585858585610ba5565b5050505050565b606081518351146105d9576040517f08c379a00000000000000000000000000000000000000000000000000000000081526004016105d090612373565b60405180910390fd5b6000835167ffffffffffffffff81111561061c577f4e487b7100000000000000000000000000000000000000000000000000000000600052604160045260246000fd5b60405190808252806020026020018201604052801561064a5781602001602082028036833780820191505090505b50905060005b8451811015610739576106e3858281518110610695577f4e487b7100000000000000000000000000000000000000000000000000000000600052603260045260246000fd5b60200260200101518583815181106106d6577f4e487b7100000000000000000000000000000000000000000000000000000000600052603260045260246000fd5b60200260200101516102a7565b82828151811061071c577f4e487b7100000000000000000000000000000000000000000000000000000000600052603260045260246000fd5b60200260200101818152505080610732906126d6565b9050610650565b508091505092915050565b61075f83838360405180602001604052806000815250610f05565b60048290806001815401808255809150506001900390600052602060002001600090919091909150556107b5600360009054906101000a900473ffffffffffffffffffffffffffffffffffffffff16600161081f565b505050565b6060600480548060200260200160405190810160405280929190818152602001828054801561080857602002820191906000526020600020905b8154815260200190600101908083116107f4575b5050505050905090565b6000600480549050905090565b8173ffffffffffffffffffffffffffffffffffffffff1661083e610b9d565b73ffffffffffffffffffffffffffffffffffffffff161415610895576040517f08c379a000000000000000000000000000000000000000000000000000000000815260040161088c90612353565b60405180910390fd5b80600160006108a2610b9d565b73ffffffffffffffffffffffffffffffffffffffff1673ffffffffffffffffffffffffffffffffffffffff16815260200190815260200160002060008473ffffffffffffffffffffffffffffffffffffffff1673ffffffffffffffffffffffffffffffffffffffff16815260200190815260200160002060006101000a81548160ff0219169083151502179055508173ffffffffffffffffffffffffffffffffffffffff1661094f610b9d565b73ffffffffffffffffffffffffffffffffffffffff167f17307eab39ab6107e8899845ad3d59bd9653f200f220920489ca2b5937696c31836040516109949190612236565b60405180910390a35050565b6000600160008473ffffffffffffffffffffffffffffffffffffffff1673ffffffffffffffffffffffffffffffffffffffff16815260200190815260200160002060008373ffffffffffffffffffffffffffffffffffffffff1673ffffffffffffffffffffffffffffffffffffffff16815260200190815260200160002060009054906101000a900460ff16905092915050565b610a3c610b9d565b73ffffffffffffffffffffffffffffffffffffffff168573ffffffffffffffffffffffffffffffffffffffff161480610a825750610a8185610a7c610b9d565b6109a0565b5b610ac1576040517f08c379a0000000000000000000000000000000000000000000000000000000008152600401610ab8906122d3565b60405180910390fd5b610ace858585858561109b565b5050505050565b80600360006101000a81548173ffffffffffffffffffffffffffffffffffffffff021916908373ffffffffffffffffffffffffffffffffffffffff16021790555050565b60007f01ffc9a7000000000000000000000000000000000000000000000000000000007bffffffffffffffffffffffffffffffffffffffffffffffffffffffff1916827bffffffffffffffffffffffffffffffffffffffffffffffffffffffff1916149050919050565b8060029080519060200190610b999291906117cc565b5050565b600033905090565b8151835114610be9576040517f08c379a0000000000000000000000000000000000000000000000000000000008152600401610be090612393565b60405180910390fd5b600073ffffffffffffffffffffffffffffffffffffffff168473ffffffffffffffffffffffffffffffffffffffff161415610c59576040517f08c379a0000000000000000000000000000000000000000000000000000000008152600401610c50906122f3565b60405180910390fd5b6000610c63610b9d565b9050610c7381878787878761131d565b60005b8451811015610e70576000858281518110610cba577f4e487b7100000000000000000000000000000000000000000000000000000000600052603260045260246000fd5b602002602001015190506000858381518110610cff577f4e487b7100000000000000000000000000000000000000000000000000000000600052603260045260246000fd5b60200260200101519050600080600084815260200190815260200160002060008b73ffffffffffffffffffffffffffffffffffffffff1673ffffffffffffffffffffffffffffffffffffffff16815260200190815260200160002054905081811015610da0576040517f08c379a0000000000000000000000000000000000000000000000000000000008152600401610d9790612333565b60405180910390fd5b81810360008085815260200190815260200160002060008c73ffffffffffffffffffffffffffffffffffffffff1673ffffffffffffffffffffffffffffffffffffffff168152602001908152602001600020819055508160008085815260200190815260200160002060008b73ffffffffffffffffffffffffffffffffffffffff1673ffffffffffffffffffffffffffffffffffffffff1681526020019081526020016000206000828254610e559190612567565b9250508190555050505080610e69906126d6565b9050610c76565b508473ffffffffffffffffffffffffffffffffffffffff168673ffffffffffffffffffffffffffffffffffffffff168273ffffffffffffffffffffffffffffffffffffffff167f4a39dc06d4c0dbc64b70af90fd698a233a518aa5d07e595d983b8c0526c8f7fb8787604051610ee79291906121ff565b60405180910390a4610efd818787878787611325565b505050505050565b600073ffffffffffffffffffffffffffffffffffffffff168473ffffffffffffffffffffffffffffffffffffffff161415610f75576040517f08c379a0000000000000000000000000000000000000000000000000000000008152600401610f6c906123b3565b60405180910390fd5b6000610f7f610b9d565b9050610fa081600087610f918861150c565b610f9a8861150c565b8761131d565b8260008086815260200190815260200160002060008773ffffffffffffffffffffffffffffffffffffffff1673ffffffffffffffffffffffffffffffffffffffff1681526020019081526020016000206000828254610fff9190612567565b925050819055508473ffffffffffffffffffffffffffffffffffffffff16600073ffffffffffffffffffffffffffffffffffffffff168273ffffffffffffffffffffffffffffffffffffffff167fc3d58168c5ae7397731d063d5bbf3d657854427343f4c083240f7aacaa2d0f62878760405161107d9291906123ee565b60405180910390a4611094816000878787876115d2565b5050505050565b600073ffffffffffffffffffffffffffffffffffffffff168473ffffffffffffffffffffffffffffffffffffffff16141561110b576040517f08c379a0000000000000000000000000000000000000000000000000000000008152600401611102906122f3565b60405180910390fd5b6000611115610b9d565b90506111358187876111268861150c565b61112f8861150c565b8761131d565b600080600086815260200190815260200160002060008873ffffffffffffffffffffffffffffffffffffffff1673ffffffffffffffffffffffffffffffffffffffff168152602001908152602001600020549050838110156111cc576040517f08c379a00000000000000000000000000000000000000000000000000000000081526004016111c390612333565b60405180910390fd5b83810360008087815260200190815260200160002060008973ffffffffffffffffffffffffffffffffffffffff1673ffffffffffffffffffffffffffffffffffffffff168152602001908152602001600020819055508360008087815260200190815260200160002060008873ffffffffffffffffffffffffffffffffffffffff1673ffffffffffffffffffffffffffffffffffffffff16815260200190815260200160002060008282546112819190612567565b925050819055508573ffffffffffffffffffffffffffffffffffffffff168773ffffffffffffffffffffffffffffffffffffffff168373ffffffffffffffffffffffffffffffffffffffff167fc3d58168c5ae7397731d063d5bbf3d657854427343f4c083240f7aacaa2d0f6288886040516112fe9291906123ee565b60405180910390a46113148288888888886115d2565b50505050505050565b505050505050565b6113448473ffffffffffffffffffffffffffffffffffffffff166117b9565b15611504578373ffffffffffffffffffffffffffffffffffffffff1663bc197c8187878686866040518663ffffffff1660e01b815260040161138a95949392919061211b565b602060405180830381600087803b1580156113a457600080fd5b505af19250505080156113d557506040513d601f19601f820116820180604052508101906113d29190611de3565b60015b61147b576113e16127ac565b806308c379a0141561143e57506113f6612b51565b806114015750611440565b806040517f08c379a00000000000000000000000000000000000000000000000000000000081526004016114359190612251565b60405180910390fd5b505b6040517f08c379a000000000000000000000000000000000000000000000000000000000815260040161147290612273565b60405180910390fd5b63bc197c8160e01b7bffffffffffffffffffffffffffffffffffffffffffffffffffffffff1916817bffffffffffffffffffffffffffffffffffffffffffffffffffffffff191614611502576040517f08c379a00000000000000000000000000000000000000000000000000000000081526004016114f990612293565b60405180910390fd5b505b505050505050565b60606000600167ffffffffffffffff811115611551577f4e487b7100000000000000000000000000000000000000000000000000000000600052604160045260246000fd5b60405190808252806020026020018201604052801561157f5781602001602082028036833780820191505090505b50905082816000815181106115bd577f4e487b7100000000000000000000000000000000000000000000000000000000600052603260045260246000fd5b60200260200101818152505080915050919050565b6115f18473ffffffffffffffffffffffffffffffffffffffff166117b9565b156117b1578373ffffffffffffffffffffffffffffffffffffffff1663f23a6e6187878686866040518663ffffffff1660e01b8152600401611637959493929190612183565b602060405180830381600087803b15801561165157600080fd5b505af192505050801561168257506040513d601f19601f8201168201806040525081019061167f9190611de3565b60015b6117285761168e6127ac565b806308c379a014156116eb57506116a3612b51565b806116ae57506116ed565b806040517f08c379a00000000000000000000000000000000000000000000000000000000081526004016116e29190612251565b60405180910390fd5b505b6040517f08c379a000000000000000000000000000000000000000000000000000000000815260040161171f90612273565b60405180910390fd5b63f23a6e6160e01b7bffffffffffffffffffffffffffffffffffffffffffffffffffffffff1916817bffffffffffffffffffffffffffffffffffffffffffffffffffffffff1916146117af576040517f08c379a00000000000000000000000000000000000000000000000000000000081526004016117a690612293565b60405180910390fd5b505b505050505050565b600080823b905060008111915050919050565b8280546117d890612673565b90600052602060002090601f0160209004810192826117fa5760008555611841565b82601f1061181357805160ff1916838001178555611841565b82800160010185558215611841579182015b82811115611840578251825591602001919060010190611825565b5b50905061184e9190611852565b5090565b5b8082111561186b576000816000905550600101611853565b5090565b600061188261187d8461243c565b612417565b905080838252602082019050828560208602820111156118a157600080fd5b60005b858110156118d157816118b788826119c3565b8452602084019350602083019250506001810190506118a4565b5050509392505050565b60006118ee6118e984612468565b612417565b9050808382526020820190508285602086028201111561190d57600080fd5b60005b8581101561193d57816119238882611abf565b845260208401935060208301925050600181019050611910565b5050509392505050565b600061195a61195584612494565b612417565b90508281526020810184848401111561197257600080fd5b61197d848285612631565b509392505050565b6000611998611993846124c5565b612417565b9050828152602081018484840111156119b057600080fd5b6119bb848285612631565b509392505050565b6000813590506119d281612be7565b92915050565b600082601f8301126119e957600080fd5b81356119f984826020860161186f565b91505092915050565b600082601f830112611a1357600080fd5b8135611a238482602086016118db565b91505092915050565b600081359050611a3b81612bfe565b92915050565b600081359050611a5081612c15565b92915050565b600081519050611a6581612c15565b92915050565b600082601f830112611a7c57600080fd5b8135611a8c848260208601611947565b91505092915050565b600082601f830112611aa657600080fd5b8135611ab6848260208601611985565b91505092915050565b600081359050611ace81612c2c565b92915050565b600060208284031215611ae657600080fd5b6000611af4848285016119c3565b91505092915050565b60008060408385031215611b1057600080fd5b6000611b1e858286016119c3565b9250506020611b2f858286016119c3565b9150509250929050565b600080600080600060a08688031215611b5157600080fd5b6000611b5f888289016119c3565b9550506020611b70888289016119c3565b945050604086013567ffffffffffffffff811115611b8d57600080fd5b611b9988828901611a02565b935050606086013567ffffffffffffffff811115611bb657600080fd5b611bc288828901611a02565b925050608086013567ffffffffffffffff811115611bdf57600080fd5b611beb88828901611a6b565b9150509295509295909350565b600080600080600060a08688031215611c1057600080fd5b6000611c1e888289016119c3565b9550506020611c2f888289016119c3565b9450506040611c4088828901611abf565b9350506060611c5188828901611abf565b925050608086013567ffffffffffffffff811115611c6e57600080fd5b611c7a88828901611a6b565b9150509295509295909350565b60008060408385031215611c9a57600080fd5b6000611ca8858286016119c3565b9250506020611cb985828601611a2c565b9150509250929050565b60008060408385031215611cd657600080fd5b6000611ce4858286016119c3565b9250506020611cf585828601611abf565b9150509250929050565b600080600060608486031215611d1457600080fd5b6000611d22868287016119c3565b9350506020611d3386828701611abf565b9250506040611d4486828701611abf565b9150509250925092565b60008060408385031215611d6157600080fd5b600083013567ffffffffffffffff811115611d7b57600080fd5b611d87858286016119d8565b925050602083013567ffffffffffffffff811115611da457600080fd5b611db085828601611a02565b9150509250929050565b600060208284031215611dcc57600080fd5b6000611dda84828501611a41565b91505092915050565b600060208284031215611df557600080fd5b6000611e0384828501611a56565b91505092915050565b600060208284031215611e1e57600080fd5b600082013567ffffffffffffffff811115611e3857600080fd5b611e4484828501611a95565b91505092915050565b600060208284031215611e5f57600080fd5b6000611e6d84828501611abf565b91505092915050565b6000611e8283836120fd565b60208301905092915050565b611e97816125bd565b82525050565b6000611ea882612506565b611eb28185612534565b9350611ebd836124f6565b8060005b83811015611eee578151611ed58882611e76565b9750611ee083612527565b925050600181019050611ec1565b5085935050505092915050565b611f04816125cf565b82525050565b6000611f1582612511565b611f1f8185612545565b9350611f2f818560208601612640565b611f38816127ce565b840191505092915050565b6000611f4e8261251c565b611f588185612556565b9350611f68818560208601612640565b611f71816127ce565b840191505092915050565b6000611f89603483612556565b9150611f94826127ec565b604082019050919050565b6000611fac602883612556565b9150611fb78261283b565b604082019050919050565b6000611fcf602b83612556565b9150611fda8261288a565b604082019050919050565b6000611ff2602983612556565b9150611ffd826128d9565b604082019050919050565b6000612015602583612556565b915061202082612928565b604082019050919050565b6000612038603283612556565b915061204382612977565b604082019050919050565b600061205b602a83612556565b9150612066826129c6565b604082019050919050565b600061207e602983612556565b915061208982612a15565b604082019050919050565b60006120a1602983612556565b91506120ac82612a64565b604082019050919050565b60006120c4602883612556565b91506120cf82612ab3565b604082019050919050565b60006120e7602183612556565b91506120f282612b02565b604082019050919050565b61210681612627565b82525050565b61211581612627565b82525050565b600060a0820190506121306000830188611e8e565b61213d6020830187611e8e565b818103604083015261214f8186611e9d565b905081810360608301526121638185611e9d565b905081810360808301526121778184611f0a565b90509695505050505050565b600060a0820190506121986000830188611e8e565b6121a56020830187611e8e565b6121b2604083018661210c565b6121bf606083018561210c565b81810360808301526121d18184611f0a565b90509695505050505050565b600060208201905081810360008301526121f78184611e9d565b905092915050565b600060408201905081810360008301526122198185611e9d565b9050818103602083015261222d8184611e9d565b90509392505050565b600060208201905061224b6000830184611efb565b92915050565b6000602082019050818103600083015261226b8184611f43565b905092915050565b6000602082019050818103600083015261228c81611f7c565b9050919050565b600060208201905081810360008301526122ac81611f9f565b9050919050565b600060208201905081810360008301526122cc81611fc2565b9050919050565b600060208201905081810360008301526122ec81611fe5565b9050919050565b6000602082019050818103600083015261230c81612008565b9050919050565b6000602082019050818103600083015261232c8161202b565b9050919050565b6000602082019050818103600083015261234c8161204e565b9050919050565b6000602082019050818103600083015261236c81612071565b9050919050565b6000602082019050818103600083015261238c81612094565b9050919050565b600060208201905081810360008301526123ac816120b7565b9050919050565b600060208201905081810360008301526123cc816120da565b9050919050565b60006020820190506123e8600083018461210c565b92915050565b6000604082019050612403600083018561210c565b612410602083018461210c565b9392505050565b6000612421612432565b905061242d82826126a5565b919050565b6000604051905090565b600067ffffffffffffffff8211156124575761245661277d565b5b602082029050602081019050919050565b600067ffffffffffffffff8211156124835761248261277d565b5b602082029050602081019050919050565b600067ffffffffffffffff8211156124af576124ae61277d565b5b6124b8826127ce565b9050602081019050919050565b600067ffffffffffffffff8211156124e0576124df61277d565b5b6124e9826127ce565b9050602081019050919050565b6000819050602082019050919050565b600081519050919050565b600081519050919050565b600081519050919050565b6000602082019050919050565b600082825260208201905092915050565b600082825260208201905092915050565b600082825260208201905092915050565b600061257282612627565b915061257d83612627565b9250827fffffffffffffffffffffffffffffffffffffffffffffffffffffffffffffffff038211156125b2576125b161271f565b5b828201905092915050565b60006125c882612607565b9050919050565b60008115159050919050565b60007fffffffff0000000000000000000000000000000000000000000000000000000082169050919050565b600073ffffffffffffffffffffffffffffffffffffffff82169050919050565b6000819050919050565b82818337600083830152505050565b60005b8381101561265e578082015181840152602081019050612643565b8381111561266d576000848401525b50505050565b6000600282049050600182168061268b57607f821691505b6020821081141561269f5761269e61274e565b5b50919050565b6126ae826127ce565b810181811067ffffffffffffffff821117156126cd576126cc61277d565b5b80604052505050565b60006126e182612627565b91507fffffffffffffffffffffffffffffffffffffffffffffffffffffffffffffffff8214156127145761271361271f565b5b600182019050919050565b7f4e487b7100000000000000000000000000000000000000000000000000000000600052601160045260246000fd5b7f4e487b7100000000000000000000000000000000000000000000000000000000600052602260045260246000fd5b7f4e487b7100000000000000000000000000000000000000000000000000000000600052604160045260246000fd5b600060033d11156127cb5760046000803e6127c86000516127df565b90505b90565b6000601f19601f8301169050919050565b60008160e01c9050919050565b7f455243313135353a207472616e7366657220746f206e6f6e204552433131353560008201527f526563656976657220696d706c656d656e746572000000000000000000000000602082015250565b7f455243313135353a204552433131353552656365697665722072656a6563746560008201527f6420746f6b656e73000000000000000000000000000000000000000000000000602082015250565b7f455243313135353a2062616c616e636520717565727920666f7220746865207a60008201527f65726f2061646472657373000000000000000000000000000000000000000000602082015250565b7f455243313135353a2063616c6c6572206973206e6f74206f776e6572206e6f7260008201527f20617070726f7665640000000000000000000000000000000000000000000000602082015250565b7f455243313135353a207472616e7366657220746f20746865207a65726f20616460008201527f6472657373000000000000000000000000000000000000000000000000000000602082015250565b7f455243313135353a207472616e736665722063616c6c6572206973206e6f742060008201527f6f776e6572206e6f7220617070726f7665640000000000000000000000000000602082015250565b7f455243313135353a20696e73756666696369656e742062616c616e636520666f60008201527f72207472616e7366657200000000000000000000000000000000000000000000602082015250565b7f455243313135353a2073657474696e6720617070726f76616c2073746174757360008201527f20666f722073656c660000000000000000000000000000000000000000000000602082015250565b7f455243313135353a206163636f756e747320616e6420696473206c656e67746860008201527f206d69736d617463680000000000000000000000000000000000000000000000602082015250565b7f455243313135353a2069647320616e6420616d6f756e7473206c656e6774682060008201527f6d69736d61746368000000000000000000000000000000000000000000000000602082015250565b7f455243313135353a206d696e7420746f20746865207a65726f2061646472657360008201527f7300000000000000000000000000000000000000000000000000000000000000602082015250565b600060443d1015612b6157612be4565b612b69612432565b60043d036004823e80513d602482011167ffffffffffffffff82111715612b91575050612be4565b808201805167ffffffffffffffff811115612baf5750505050612be4565b80602083010160043d038501811115612bcc575050505050612be4565b612bdb826020018501866126a5565b82955050505050505b90565b612bf0816125bd565b8114612bfb57600080fd5b50565b612c07816125cf565b8114612c1257600080fd5b50565b612c1e816125db565b8114612c2957600080fd5b50565b612c3581612627565b8114612c4057600080fd5b5056fea26469706673582212209faa697b2c6a915e088a3597c4a031efeca3c4be489addc7527d722880b3705064736f6c63430008030033",
  "immutableReferences": {},
  "source": "pragma solidity ^0.8.3;\n//\"SPDX-License-Identifier: UNLICENSED\"\n\nimport \"@openzeppelin/contracts/token/ERC1155/ERC1155.sol\";\nimport \"@openzeppelin/contracts/token/ERC1155/utils/ERC1155Receiver.sol\";\n\n\ncontract ACHouseToken1155 is ERC1155 {\n    address parentAddress;\n\n    uint256[] tokensIdscreated;\n    \n    constructor() ERC1155(\"\") {}\n    \n    \n    function setParentAddress(address _address) public {\n        parentAddress = _address;\n    }\n\n    function setURI(string memory newuri) public {\n        _setURI(newuri);\n    }\n\n    function mintNFT(address _ownerAddress, uint256 _id, uint256 amount ) public {\n       // using erc 1155 to creat NFT\n       // mint will create NFT and send it to the address. IF address is parent contract then it will throw error unless IERC1155Receiver.onERC1155BatchReceived is implemented. \n\n       _mint(_ownerAddress, _id, amount, \"\"); \n       tokensIdscreated.push(_id);\n\n       //apprvove parent contract to handle tokens and transactions.\n        setApprovalForAll(parentAddress, true);\n\n    }\n    \n    //get tokens totalnumber. \n    function getTokenCount() public view returns (uint256) {\n        return tokensIdscreated.length;\n    }\n    //returns the array of all tokenids. \n    function getTokenIds() public  view returns ( uint256[] memory) {\n        return tokensIdscreated;\n    }\n    \n    // function onERC1155Received( address operator, address from,uint256 id, uint256 value, bytes calldata data) override pure external returns (bytes4){\n    //     // TransferSingle.emit(operator, from, , id, value);\n    //     return bytes4(keccak256(\"onERC1155Received(address,address,uint256,uint256,bytes)\"));\n    // }\n    \n    // function onERC1155BatchReceived( address operator, address from, uint256[] calldata ids, uint256[] calldata values, bytes calldata data ) override pure external returns (bytes4){\n    //     return bytes4(keccak256(\"onERC1155BatchReceived(address,address,uint256[],uint256[],bytes)\"));\n    // }\n \n\n}\n\n\n    /**\n    public functions available through implementation of ERC1155\n    -supportsInterface\n    -uri - get the current set uri\n    -balanceOf\n    -balanceBatch\n    -setApprovalForAll\n    -isApprovedForAll\n    -safeTransferFrom\n    -safeBatchTransferFrom\n\n     */ ",
  "sourcePath": "/home/dinesh/Projects/EthOnline/contracts/ACHouseToken1155.sol",
  "compiler": {
    "name": "solc",
    "version": "0.8.3+commit.8d00100c.Emscripten.clang"
  },
  "schemaVersion": "3.3.4",
  "updatedAt": "2021-10-07T05:04:42.468Z",
  "devdoc": {
    "kind": "dev",
    "methods": {
      "balanceOf(address,uint256)": {
        "details": "See {IERC1155-balanceOf}. Requirements: - `account` cannot be the zero address."
      },
      "balanceOfBatch(address[],uint256[])": {
        "details": "See {IERC1155-balanceOfBatch}. Requirements: - `accounts` and `ids` must have the same length."
      },
      "isApprovedForAll(address,address)": {
        "details": "See {IERC1155-isApprovedForAll}."
      },
      "safeBatchTransferFrom(address,address,uint256[],uint256[],bytes)": {
        "details": "See {IERC1155-safeBatchTransferFrom}."
      },
      "safeTransferFrom(address,address,uint256,uint256,bytes)": {
        "details": "See {IERC1155-safeTransferFrom}."
      },
      "setApprovalForAll(address,bool)": {
        "details": "See {IERC1155-setApprovalForAll}."
      },
      "supportsInterface(bytes4)": {
        "details": "See {IERC165-supportsInterface}."
      },
      "uri(uint256)": {
        "details": "See {IERC1155MetadataURI-uri}. This implementation returns the same URI for *all* token types. It relies on the token type ID substitution mechanism https://eips.ethereum.org/EIPS/eip-1155#metadata[defined in the EIP]. Clients calling this function must replace the `\\{id\\}` substring with the actual token type ID."
      }
    },
    "version": 1
  },
  "userdoc": {
    "kind": "user",
    "methods": {},
    "version": 1
  }
}