{
  "contractName": "ACHouseToken721",
  "abi": [
    {
      "inputs": [],
      "stateMutability": "nonpayable",
      "type": "constructor"
    },
    {
      "anonymous": false,
      "inputs": [
        {
          "indexed": true,
          "internalType": "address",
          "name": "owner",
          "type": "address"
        },
        {
          "indexed": true,
          "internalType": "address",
          "name": "approved",
          "type": "address"
        },
        {
          "indexed": true,
          "internalType": "uint256",
          "name": "tokenId",
          "type": "uint256"
        }
      ],
      "name": "Approval",
      "type": "event"
    },
    {
      "anonymous": false,
      "inputs": [
        {
          "indexed": true,
          "internalType": "address",
          "name": "owner",
          "type": "address"
        },
        {
          "indexed": true,
          "internalType": "address",
          "name": "operator",
          "type": "address"
        },
        {
          "indexed": false,
          "internalType": "bool",
          "name": "approved",
          "type": "bool"
        }
      ],
      "name": "ApprovalForAll",
      "type": "event"
    },
    {
      "anonymous": false,
      "inputs": [
        {
          "indexed": true,
          "internalType": "address",
          "name": "from",
          "type": "address"
        },
        {
          "indexed": true,
          "internalType": "address",
          "name": "to",
          "type": "address"
        },
        {
          "indexed": true,
          "internalType": "uint256",
          "name": "tokenId",
          "type": "uint256"
        }
      ],
      "name": "Transfer",
      "type": "event"
    },
    {
      "inputs": [
        {
          "internalType": "address",
          "name": "to",
          "type": "address"
        },
        {
          "internalType": "uint256",
          "name": "tokenId",
          "type": "uint256"
        }
      ],
      "name": "approve",
      "outputs": [],
      "stateMutability": "nonpayable",
      "type": "function"
    },
    {
      "inputs": [
        {
          "internalType": "address",
          "name": "owner",
          "type": "address"
        }
      ],
      "name": "balanceOf",
      "outputs": [
        {
          "internalType": "uint256",
          "name": "",
          "type": "uint256"
        }
      ],
      "stateMutability": "view",
      "type": "function",
      "constant": true
    },
    {
      "inputs": [
        {
          "internalType": "uint256",
          "name": "tokenId",
          "type": "uint256"
        }
      ],
      "name": "getApproved",
      "outputs": [
        {
          "internalType": "address",
          "name": "",
          "type": "address"
        }
      ],
      "stateMutability": "view",
      "type": "function",
      "constant": true
    },
    {
      "inputs": [
        {
          "internalType": "address",
          "name": "owner",
          "type": "address"
        },
        {
          "internalType": "address",
          "name": "operator",
          "type": "address"
        }
      ],
      "name": "isApprovedForAll",
      "outputs": [
        {
          "internalType": "bool",
          "name": "",
          "type": "bool"
        }
      ],
      "stateMutability": "view",
      "type": "function",
      "constant": true
    },
    {
      "inputs": [],
      "name": "name",
      "outputs": [
        {
          "internalType": "string",
          "name": "",
          "type": "string"
        }
      ],
      "stateMutability": "view",
      "type": "function",
      "constant": true
    },
    {
      "inputs": [
        {
          "internalType": "uint256",
          "name": "tokenId",
          "type": "uint256"
        }
      ],
      "name": "ownerOf",
      "outputs": [
        {
          "internalType": "address",
          "name": "",
          "type": "address"
        }
      ],
      "stateMutability": "view",
      "type": "function",
      "constant": true
    },
    {
      "inputs": [
        {
          "internalType": "address",
          "name": "from",
          "type": "address"
        },
        {
          "internalType": "address",
          "name": "to",
          "type": "address"
        },
        {
          "internalType": "uint256",
          "name": "tokenId",
          "type": "uint256"
        }
      ],
      "name": "safeTransferFrom",
      "outputs": [],
      "stateMutability": "nonpayable",
      "type": "function"
    },
    {
      "inputs": [
        {
          "internalType": "address",
          "name": "from",
          "type": "address"
        },
        {
          "internalType": "address",
          "name": "to",
          "type": "address"
        },
        {
          "internalType": "uint256",
          "name": "tokenId",
          "type": "uint256"
        },
        {
          "internalType": "bytes",
          "name": "_data",
          "type": "bytes"
        }
      ],
      "name": "safeTransferFrom",
      "outputs": [],
      "stateMutability": "nonpayable",
      "type": "function"
    },
    {
      "inputs": [
        {
          "internalType": "address",
          "name": "operator",
          "type": "address"
        },
        {
          "internalType": "bool",
          "name": "approved",
          "type": "bool"
        }
      ],
      "name": "setApprovalForAll",
      "outputs": [],
      "stateMutability": "nonpayable",
      "type": "function"
    },
    {
      "inputs": [
        {
          "internalType": "bytes4",
          "name": "interfaceId",
          "type": "bytes4"
        }
      ],
      "name": "supportsInterface",
      "outputs": [
        {
          "internalType": "bool",
          "name": "",
          "type": "bool"
        }
      ],
      "stateMutability": "view",
      "type": "function",
      "constant": true
    },
    {
      "inputs": [],
      "name": "symbol",
      "outputs": [
        {
          "internalType": "string",
          "name": "",
          "type": "string"
        }
      ],
      "stateMutability": "view",
      "type": "function",
      "constant": true
    },
    {
      "inputs": [
        {
          "internalType": "uint256",
          "name": "tokenId",
          "type": "uint256"
        }
      ],
      "name": "tokenURI",
      "outputs": [
        {
          "internalType": "string",
          "name": "",
          "type": "string"
        }
      ],
      "stateMutability": "view",
      "type": "function",
      "constant": true
    },
    {
      "inputs": [
        {
          "internalType": "address",
          "name": "from",
          "type": "address"
        },
        {
          "internalType": "address",
          "name": "to",
          "type": "address"
        },
        {
          "internalType": "uint256",
          "name": "tokenId",
          "type": "uint256"
        }
      ],
      "name": "transferFrom",
      "outputs": [],
      "stateMutability": "nonpayable",
      "type": "function"
    },
    {
      "inputs": [
        {
          "internalType": "address",
          "name": "_address",
          "type": "address"
        }
      ],
      "name": "setParentAddress",
      "outputs": [],
      "stateMutability": "nonpayable",
      "type": "function"
    },
    {
      "inputs": [
        {
          "internalType": "address",
          "name": "_ownerAddress",
          "type": "address"
        },
        {
          "internalType": "uint256",
          "name": "_id",
          "type": "uint256"
        },
        {
          "internalType": "string",
          "name": "_tokenUri",
          "type": "string"
        }
      ],
      "name": "mintNFT",
      "outputs": [],
      "stateMutability": "nonpayable",
      "type": "function"
    },
    {
      "inputs": [
        {
          "internalType": "uint256",
          "name": "tokenId",
          "type": "uint256"
        }
      ],
      "name": "getTokenUri",
      "outputs": [
        {
          "internalType": "string",
          "name": "",
          "type": "string"
        }
      ],
      "stateMutability": "nonpayable",
      "type": "function"
    },
    {
      "inputs": [],
      "name": "getTokenCount",
      "outputs": [
        {
          "internalType": "uint256",
          "name": "",
          "type": "uint256"
        }
      ],
      "stateMutability": "view",
      "type": "function",
      "constant": true
    },
    {
      "inputs": [],
      "name": "getTokenIds",
      "outputs": [
        {
          "internalType": "uint256[]",
          "name": "",
          "type": "uint256[]"
        }
      ],
      "stateMutability": "view",
      "type": "function",
      "constant": true
    }
  ],
  "bytecode": "0x60806040523480156200001157600080fd5b50604051806020016040528060008152506040518060200160405280600081525081600090805190602001906200004a9291906200006c565b508060019080519060200190620000639291906200006c565b50505062000181565b8280546200007a906200011c565b90600052602060002090601f0160209004810192826200009e5760008555620000ea565b82601f10620000b957805160ff1916838001178555620000ea565b82800160010185558215620000ea579182015b82811115620000e9578251825591602001919060010190620000cc565b5b509050620000f99190620000fd565b5090565b5b8082111562000118576000816000905550600101620000fe565b5090565b600060028204905060018216806200013557607f821691505b602082108114156200014c576200014b62000152565b5b50919050565b7f4e487b7100000000000000000000000000000000000000000000000000000000600052602260045260246000fd5b612aa180620001916000396000f3fe608060405234801561001057600080fd5b50600436106101165760003560e01c806370a08231116100a2578063a22cb46511610071578063a22cb465146102f3578063b88d4fde1461030f578063c87b56dd1461032b578063e985e9c51461035b578063fa5afe401461038b57610116565b806370a082311461025757806378a89567146102875780638ad91345146102a557806395d89b41146102d557610116565b80631e576912116100e95780631e576912146101b557806323b872dd146101d157806342842e0e146101ed5780636352211e1461020957806367f718a91461023957610116565b806301ffc9a71461011b57806306fdde031461014b578063081812fc14610169578063095ea7b314610199575b600080fd5b61013560048036038101906101309190611b92565b6103a7565b6040516101429190611ff9565b60405180910390f35b610153610489565b6040516101609190612014565b60405180910390f35b610183600480360381019061017e9190611be4565b61051b565b6040516101909190611f70565b60405180910390f35b6101b360048036038101906101ae9190611aef565b6105a0565b005b6101cf60048036038101906101ca9190611b2b565b6106b8565b005b6101eb60048036038101906101e691906119e9565b61072d565b005b610207600480360381019061020291906119e9565b61078d565b005b610223600480360381019061021e9190611be4565b6107ad565b6040516102309190611f70565b60405180910390f35b61024161085f565b60405161024e9190611fd7565b60405180910390f35b610271600480360381019061026c9190611984565b6108b7565b60405161027e91906121f6565b60405180910390f35b61028f61096f565b60405161029c91906121f6565b60405180910390f35b6102bf60048036038101906102ba9190611be4565b61097c565b6040516102cc9190612014565b60405180910390f35b6102dd61098e565b6040516102ea9190612014565b60405180910390f35b61030d60048036038101906103089190611ab3565b610a20565b005b61032960048036038101906103249190611a38565b610ba1565b005b61034560048036038101906103409190611be4565b610c03565b6040516103529190612014565b60405180910390f35b610375600480360381019061037091906119ad565b610caa565b6040516103829190611ff9565b60405180910390f35b6103a560048036038101906103a09190611984565b610d3e565b005b60007f80ac58cd000000000000000000000000000000000000000000000000000000007bffffffffffffffffffffffffffffffffffffffffffffffffffffffff1916827bffffffffffffffffffffffffffffffffffffffffffffffffffffffff1916148061047257507f5b5e139f000000000000000000000000000000000000000000000000000000007bffffffffffffffffffffffffffffffffffffffffffffffffffffffff1916827bffffffffffffffffffffffffffffffffffffffffffffffffffffffff1916145b80610482575061048182610d82565b5b9050919050565b60606000805461049890612485565b80601f01602080910402602001604051908101604052809291908181526020018280546104c490612485565b80156105115780601f106104e657610100808354040283529160200191610511565b820191906000526020600020905b8154815290600101906020018083116104f457829003601f168201915b5050505050905090565b600061052682610dec565b610565576040517f08c379a000000000000000000000000000000000000000000000000000000000815260040161055c90612156565b60405180910390fd5b6004600083815260200190815260200160002060009054906101000a900473ffffffffffffffffffffffffffffffffffffffff169050919050565b60006105ab826107ad565b90508073ffffffffffffffffffffffffffffffffffffffff168373ffffffffffffffffffffffffffffffffffffffff16141561061c576040517f08c379a0000000000000000000000000000000000000000000000000000000008152600401610613906121b6565b60405180910390fd5b8073ffffffffffffffffffffffffffffffffffffffff1661063b610e58565b73ffffffffffffffffffffffffffffffffffffffff16148061066a575061066981610664610e58565b610caa565b5b6106a9576040517f08c379a00000000000000000000000000000000000000000000000000000000081526004016106a0906120d6565b60405180910390fd5b6106b38383610e60565b505050565b6106d2838360405180602001604052806000815250610f19565b6007829080600181540180825580915050600190039060005260206000200160009091909190915055610728600660009054906101000a900473ffffffffffffffffffffffffffffffffffffffff166001610a20565b505050565b61073e610738610e58565b82610f74565b61077d576040517f08c379a0000000000000000000000000000000000000000000000000000000008152600401610774906121d6565b60405180910390fd5b610788838383611052565b505050565b6107a883838360405180602001604052806000815250610ba1565b505050565b6000806002600084815260200190815260200160002060009054906101000a900473ffffffffffffffffffffffffffffffffffffffff169050600073ffffffffffffffffffffffffffffffffffffffff168173ffffffffffffffffffffffffffffffffffffffff161415610856576040517f08c379a000000000000000000000000000000000000000000000000000000000815260040161084d90612116565b60405180910390fd5b80915050919050565b606060078054806020026020016040519081016040528092919081815260200182805480156108ad57602002820191906000526020600020905b815481526020019060010190808311610899575b5050505050905090565b60008073ffffffffffffffffffffffffffffffffffffffff168273ffffffffffffffffffffffffffffffffffffffff161415610928576040517f08c379a000000000000000000000000000000000000000000000000000000000815260040161091f906120f6565b60405180910390fd5b600360008373ffffffffffffffffffffffffffffffffffffffff1673ffffffffffffffffffffffffffffffffffffffff168152602001908152602001600020549050919050565b6000600780549050905090565b606061098782610c03565b9050919050565b60606001805461099d90612485565b80601f01602080910402602001604051908101604052809291908181526020018280546109c990612485565b8015610a165780601f106109eb57610100808354040283529160200191610a16565b820191906000526020600020905b8154815290600101906020018083116109f957829003601f168201915b5050505050905090565b610a28610e58565b73ffffffffffffffffffffffffffffffffffffffff168273ffffffffffffffffffffffffffffffffffffffff161415610a96576040517f08c379a0000000000000000000000000000000000000000000000000000000008152600401610a8d90612096565b60405180910390fd5b8060056000610aa3610e58565b73ffffffffffffffffffffffffffffffffffffffff1673ffffffffffffffffffffffffffffffffffffffff16815260200190815260200160002060008473ffffffffffffffffffffffffffffffffffffffff1673ffffffffffffffffffffffffffffffffffffffff16815260200190815260200160002060006101000a81548160ff0219169083151502179055508173ffffffffffffffffffffffffffffffffffffffff16610b50610e58565b73ffffffffffffffffffffffffffffffffffffffff167f17307eab39ab6107e8899845ad3d59bd9653f200f220920489ca2b5937696c3183604051610b959190611ff9565b60405180910390a35050565b610bb2610bac610e58565b83610f74565b610bf1576040517f08c379a0000000000000000000000000000000000000000000000000000000008152600401610be8906121d6565b60405180910390fd5b610bfd848484846112ae565b50505050565b6060610c0e82610dec565b610c4d576040517f08c379a0000000000000000000000000000000000000000000000000000000008152600401610c4490612196565b60405180910390fd5b6000610c5761130a565b90506000815111610c775760405180602001604052806000815250610ca2565b80610c8184611321565b604051602001610c92929190611f4c565b6040516020818303038152906040525b915050919050565b6000600560008473ffffffffffffffffffffffffffffffffffffffff1673ffffffffffffffffffffffffffffffffffffffff16815260200190815260200160002060008373ffffffffffffffffffffffffffffffffffffffff1673ffffffffffffffffffffffffffffffffffffffff16815260200190815260200160002060009054906101000a900460ff16905092915050565b80600660006101000a81548173ffffffffffffffffffffffffffffffffffffffff021916908373ffffffffffffffffffffffffffffffffffffffff16021790555050565b60007f01ffc9a7000000000000000000000000000000000000000000000000000000007bffffffffffffffffffffffffffffffffffffffffffffffffffffffff1916827bffffffffffffffffffffffffffffffffffffffffffffffffffffffff1916149050919050565b60008073ffffffffffffffffffffffffffffffffffffffff166002600084815260200190815260200160002060009054906101000a900473ffffffffffffffffffffffffffffffffffffffff1673ffffffffffffffffffffffffffffffffffffffff1614159050919050565b600033905090565b816004600083815260200190815260200160002060006101000a81548173ffffffffffffffffffffffffffffffffffffffff021916908373ffffffffffffffffffffffffffffffffffffffff160217905550808273ffffffffffffffffffffffffffffffffffffffff16610ed3836107ad565b73ffffffffffffffffffffffffffffffffffffffff167f8c5be1e5ebec7d5bd14f71427d1e84f3dd0314c0f7b2291e5b200ac8c7c3b92560405160405180910390a45050565b610f2383836114ce565b610f30600084848461169c565b610f6f576040517f08c379a0000000000000000000000000000000000000000000000000000000008152600401610f6690612036565b60405180910390fd5b505050565b6000610f7f82610dec565b610fbe576040517f08c379a0000000000000000000000000000000000000000000000000000000008152600401610fb5906120b6565b60405180910390fd5b6000610fc9836107ad565b90508073ffffffffffffffffffffffffffffffffffffffff168473ffffffffffffffffffffffffffffffffffffffff16148061103857508373ffffffffffffffffffffffffffffffffffffffff166110208461051b565b73ffffffffffffffffffffffffffffffffffffffff16145b8061104957506110488185610caa565b5b91505092915050565b8273ffffffffffffffffffffffffffffffffffffffff16611072826107ad565b73ffffffffffffffffffffffffffffffffffffffff16146110c8576040517f08c379a00000000000000000000000000000000000000000000000000000000081526004016110bf90612176565b60405180910390fd5b600073ffffffffffffffffffffffffffffffffffffffff168273ffffffffffffffffffffffffffffffffffffffff161415611138576040517f08c379a000000000000000000000000000000000000000000000000000000000815260040161112f90612076565b60405180910390fd5b611143838383611833565b61114e600082610e60565b6001600360008573ffffffffffffffffffffffffffffffffffffffff1673ffffffffffffffffffffffffffffffffffffffff168152602001908152602001600020600082825461119e919061239b565b925050819055506001600360008473ffffffffffffffffffffffffffffffffffffffff1673ffffffffffffffffffffffffffffffffffffffff16815260200190815260200160002060008282546111f59190612314565b92505081905550816002600083815260200190815260200160002060006101000a81548173ffffffffffffffffffffffffffffffffffffffff021916908373ffffffffffffffffffffffffffffffffffffffff160217905550808273ffffffffffffffffffffffffffffffffffffffff168473ffffffffffffffffffffffffffffffffffffffff167fddf252ad1be2c89b69c2b068fc378daa952ba7f163c4a11628f55a4df523b3ef60405160405180910390a4505050565b6112b9848484611052565b6112c58484848461169c565b611304576040517f08c379a00000000000000000000000000000000000000000000000000000000081526004016112fb90612036565b60405180910390fd5b50505050565b606060405180602001604052806000815250905090565b60606000821415611369576040518060400160405280600181526020017f300000000000000000000000000000000000000000000000000000000000000081525090506114c9565b600082905060005b6000821461139b578080611384906124e8565b915050600a82611394919061236a565b9150611371565b60008167ffffffffffffffff8111156113dd577f4e487b7100000000000000000000000000000000000000000000000000000000600052604160045260246000fd5b6040519080825280601f01601f19166020018201604052801561140f5781602001600182028036833780820191505090505b5090505b600085146114c257600182611428919061239b565b9150600a856114379190612531565b60306114439190612314565b60f81b81838151811061147f577f4e487b7100000000000000000000000000000000000000000000000000000000600052603260045260246000fd5b60200101907effffffffffffffffffffffffffffffffffffffffffffffffffffffffffffff1916908160001a905350600a856114bb919061236a565b9450611413565b8093505050505b919050565b600073ffffffffffffffffffffffffffffffffffffffff168273ffffffffffffffffffffffffffffffffffffffff16141561153e576040517f08c379a000000000000000000000000000000000000000000000000000000000815260040161153590612136565b60405180910390fd5b61154781610dec565b15611587576040517f08c379a000000000000000000000000000000000000000000000000000000000815260040161157e90612056565b60405180910390fd5b61159360008383611833565b6001600360008473ffffffffffffffffffffffffffffffffffffffff1673ffffffffffffffffffffffffffffffffffffffff16815260200190815260200160002060008282546115e39190612314565b92505081905550816002600083815260200190815260200160002060006101000a81548173ffffffffffffffffffffffffffffffffffffffff021916908373ffffffffffffffffffffffffffffffffffffffff160217905550808273ffffffffffffffffffffffffffffffffffffffff16600073ffffffffffffffffffffffffffffffffffffffff167fddf252ad1be2c89b69c2b068fc378daa952ba7f163c4a11628f55a4df523b3ef60405160405180910390a45050565b60006116bd8473ffffffffffffffffffffffffffffffffffffffff16611838565b15611826578373ffffffffffffffffffffffffffffffffffffffff1663150b7a026116e6610e58565b8786866040518563ffffffff1660e01b81526004016117089493929190611f8b565b602060405180830381600087803b15801561172257600080fd5b505af192505050801561175357506040513d601f19601f820116820180604052508101906117509190611bbb565b60015b6117d6573d8060008114611783576040519150601f19603f3d011682016040523d82523d6000602084013e611788565b606091505b506000815114156117ce576040517f08c379a00000000000000000000000000000000000000000000000000000000081526004016117c590612036565b60405180910390fd5b805181602001fd5b63150b7a0260e01b7bffffffffffffffffffffffffffffffffffffffffffffffffffffffff1916817bffffffffffffffffffffffffffffffffffffffffffffffffffffffff19161491505061182b565b600190505b949350505050565b505050565b600080823b905060008111915050919050565b600061185e61185984612236565b612211565b90508281526020810184848401111561187657600080fd5b611881848285612443565b509392505050565b600061189c61189784612267565b612211565b9050828152602081018484840111156118b457600080fd5b6118bf848285612443565b509392505050565b6000813590506118d681612a0f565b92915050565b6000813590506118eb81612a26565b92915050565b60008135905061190081612a3d565b92915050565b60008151905061191581612a3d565b92915050565b600082601f83011261192c57600080fd5b813561193c84826020860161184b565b91505092915050565b600082601f83011261195657600080fd5b8135611966848260208601611889565b91505092915050565b60008135905061197e81612a54565b92915050565b60006020828403121561199657600080fd5b60006119a4848285016118c7565b91505092915050565b600080604083850312156119c057600080fd5b60006119ce858286016118c7565b92505060206119df858286016118c7565b9150509250929050565b6000806000606084860312156119fe57600080fd5b6000611a0c868287016118c7565b9350506020611a1d868287016118c7565b9250506040611a2e8682870161196f565b9150509250925092565b60008060008060808587031215611a4e57600080fd5b6000611a5c878288016118c7565b9450506020611a6d878288016118c7565b9350506040611a7e8782880161196f565b925050606085013567ffffffffffffffff811115611a9b57600080fd5b611aa78782880161191b565b91505092959194509250565b60008060408385031215611ac657600080fd5b6000611ad4858286016118c7565b9250506020611ae5858286016118dc565b9150509250929050565b60008060408385031215611b0257600080fd5b6000611b10858286016118c7565b9250506020611b218582860161196f565b9150509250929050565b600080600060608486031215611b4057600080fd5b6000611b4e868287016118c7565b9350506020611b5f8682870161196f565b925050604084013567ffffffffffffffff811115611b7c57600080fd5b611b8886828701611945565b9150509250925092565b600060208284031215611ba457600080fd5b6000611bb2848285016118f1565b91505092915050565b600060208284031215611bcd57600080fd5b6000611bdb84828501611906565b91505092915050565b600060208284031215611bf657600080fd5b6000611c048482850161196f565b91505092915050565b6000611c198383611f2e565b60208301905092915050565b611c2e816123cf565b82525050565b6000611c3f826122a8565b611c4981856122d6565b9350611c5483612298565b8060005b83811015611c85578151611c6c8882611c0d565b9750611c77836122c9565b925050600181019050611c58565b5085935050505092915050565b611c9b816123e1565b82525050565b6000611cac826122b3565b611cb681856122e7565b9350611cc6818560208601612452565b611ccf8161261e565b840191505092915050565b6000611ce5826122be565b611cef81856122f8565b9350611cff818560208601612452565b611d088161261e565b840191505092915050565b6000611d1e826122be565b611d288185612309565b9350611d38818560208601612452565b80840191505092915050565b6000611d516032836122f8565b9150611d5c8261262f565b604082019050919050565b6000611d74601c836122f8565b9150611d7f8261267e565b602082019050919050565b6000611d976024836122f8565b9150611da2826126a7565b604082019050919050565b6000611dba6019836122f8565b9150611dc5826126f6565b602082019050919050565b6000611ddd602c836122f8565b9150611de88261271f565b604082019050919050565b6000611e006038836122f8565b9150611e0b8261276e565b604082019050919050565b6000611e23602a836122f8565b9150611e2e826127bd565b604082019050919050565b6000611e466029836122f8565b9150611e518261280c565b604082019050919050565b6000611e696020836122f8565b9150611e748261285b565b602082019050919050565b6000611e8c602c836122f8565b9150611e9782612884565b604082019050919050565b6000611eaf6029836122f8565b9150611eba826128d3565b604082019050919050565b6000611ed2602f836122f8565b9150611edd82612922565b604082019050919050565b6000611ef56021836122f8565b9150611f0082612971565b604082019050919050565b6000611f186031836122f8565b9150611f23826129c0565b604082019050919050565b611f3781612439565b82525050565b611f4681612439565b82525050565b6000611f588285611d13565b9150611f648284611d13565b91508190509392505050565b6000602082019050611f856000830184611c25565b92915050565b6000608082019050611fa06000830187611c25565b611fad6020830186611c25565b611fba6040830185611f3d565b8181036060830152611fcc8184611ca1565b905095945050505050565b60006020820190508181036000830152611ff18184611c34565b905092915050565b600060208201905061200e6000830184611c92565b92915050565b6000602082019050818103600083015261202e8184611cda565b905092915050565b6000602082019050818103600083015261204f81611d44565b9050919050565b6000602082019050818103600083015261206f81611d67565b9050919050565b6000602082019050818103600083015261208f81611d8a565b9050919050565b600060208201905081810360008301526120af81611dad565b9050919050565b600060208201905081810360008301526120cf81611dd0565b9050919050565b600060208201905081810360008301526120ef81611df3565b9050919050565b6000602082019050818103600083015261210f81611e16565b9050919050565b6000602082019050818103600083015261212f81611e39565b9050919050565b6000602082019050818103600083015261214f81611e5c565b9050919050565b6000602082019050818103600083015261216f81611e7f565b9050919050565b6000602082019050818103600083015261218f81611ea2565b9050919050565b600060208201905081810360008301526121af81611ec5565b9050919050565b600060208201905081810360008301526121cf81611ee8565b9050919050565b600060208201905081810360008301526121ef81611f0b565b9050919050565b600060208201905061220b6000830184611f3d565b92915050565b600061221b61222c565b905061222782826124b7565b919050565b6000604051905090565b600067ffffffffffffffff821115612251576122506125ef565b5b61225a8261261e565b9050602081019050919050565b600067ffffffffffffffff821115612282576122816125ef565b5b61228b8261261e565b9050602081019050919050565b6000819050602082019050919050565b600081519050919050565b600081519050919050565b600081519050919050565b6000602082019050919050565b600082825260208201905092915050565b600082825260208201905092915050565b600082825260208201905092915050565b600081905092915050565b600061231f82612439565b915061232a83612439565b9250827fffffffffffffffffffffffffffffffffffffffffffffffffffffffffffffffff0382111561235f5761235e612562565b5b828201905092915050565b600061237582612439565b915061238083612439565b9250826123905761238f612591565b5b828204905092915050565b60006123a682612439565b91506123b183612439565b9250828210156123c4576123c3612562565b5b828203905092915050565b60006123da82612419565b9050919050565b60008115159050919050565b60007fffffffff0000000000000000000000000000000000000000000000000000000082169050919050565b600073ffffffffffffffffffffffffffffffffffffffff82169050919050565b6000819050919050565b82818337600083830152505050565b60005b83811015612470578082015181840152602081019050612455565b8381111561247f576000848401525b50505050565b6000600282049050600182168061249d57607f821691505b602082108114156124b1576124b06125c0565b5b50919050565b6124c08261261e565b810181811067ffffffffffffffff821117156124df576124de6125ef565b5b80604052505050565b60006124f382612439565b91507fffffffffffffffffffffffffffffffffffffffffffffffffffffffffffffffff82141561252657612525612562565b5b600182019050919050565b600061253c82612439565b915061254783612439565b92508261255757612556612591565b5b828206905092915050565b7f4e487b7100000000000000000000000000000000000000000000000000000000600052601160045260246000fd5b7f4e487b7100000000000000000000000000000000000000000000000000000000600052601260045260246000fd5b7f4e487b7100000000000000000000000000000000000000000000000000000000600052602260045260246000fd5b7f4e487b7100000000000000000000000000000000000000000000000000000000600052604160045260246000fd5b6000601f19601f8301169050919050565b7f4552433732313a207472616e7366657220746f206e6f6e20455243373231526560008201527f63656976657220696d706c656d656e7465720000000000000000000000000000602082015250565b7f4552433732313a20746f6b656e20616c7265616479206d696e74656400000000600082015250565b7f4552433732313a207472616e7366657220746f20746865207a65726f2061646460008201527f7265737300000000000000000000000000000000000000000000000000000000602082015250565b7f4552433732313a20617070726f766520746f2063616c6c657200000000000000600082015250565b7f4552433732313a206f70657261746f7220717565727920666f72206e6f6e657860008201527f697374656e7420746f6b656e0000000000000000000000000000000000000000602082015250565b7f4552433732313a20617070726f76652063616c6c6572206973206e6f74206f7760008201527f6e6572206e6f7220617070726f76656420666f7220616c6c0000000000000000602082015250565b7f4552433732313a2062616c616e636520717565727920666f7220746865207a6560008201527f726f206164647265737300000000000000000000000000000000000000000000602082015250565b7f4552433732313a206f776e657220717565727920666f72206e6f6e657869737460008201527f656e7420746f6b656e0000000000000000000000000000000000000000000000602082015250565b7f4552433732313a206d696e7420746f20746865207a65726f2061646472657373600082015250565b7f4552433732313a20617070726f76656420717565727920666f72206e6f6e657860008201527f697374656e7420746f6b656e0000000000000000000000000000000000000000602082015250565b7f4552433732313a207472616e73666572206f6620746f6b656e2074686174206960008201527f73206e6f74206f776e0000000000000000000000000000000000000000000000602082015250565b7f4552433732314d657461646174613a2055524920717565727920666f72206e6f60008201527f6e6578697374656e7420746f6b656e0000000000000000000000000000000000602082015250565b7f4552433732313a20617070726f76616c20746f2063757272656e74206f776e6560008201527f7200000000000000000000000000000000000000000000000000000000000000602082015250565b7f4552433732313a207472616e736665722063616c6c6572206973206e6f74206f60008201527f776e6572206e6f7220617070726f766564000000000000000000000000000000602082015250565b612a18816123cf565b8114612a2357600080fd5b50565b612a2f816123e1565b8114612a3a57600080fd5b50565b612a46816123ed565b8114612a5157600080fd5b50565b612a5d81612439565b8114612a6857600080fd5b5056fea2646970667358221220e94053ed2ab58fe4db9ffd3cd6bfb8c838a72e3853d8ea1910b1717ed0f4fd5c64736f6c63430008030033",
  "immutableReferences": {},
  "source": "pragma solidity ^0.8.3;\r\n//\"SPDX-License-Identifier: UNLICENSED\"\r\n\r\nimport \"@openzeppelin/contracts/token/ERC721/ERC721.sol\";\r\nimport \"@openzeppelin/contracts/token/ERC721/extensions/ERC721URIStorage.sol\";\r\n\r\ncontract ACHouseToken721 is ERC721 {\r\n\r\n    address parentAddress;\r\n\r\n    uint256[] tokensIdscreated;\r\n    \r\n    constructor() ERC721(\"\",\"\") {\r\n    }\r\n    \r\n    function setParentAddress(address _address) public {\r\n        parentAddress = _address;\r\n    }\r\n\r\n    function mintNFT(address _ownerAddress, uint256 _id, string memory _tokenUri) public {\r\n       // using erc 721 to creat NFT\r\n       // mint will create NFT and send it to the address. \r\n\r\n       _safeMint(_ownerAddress, _id, \"\"); \r\n    //    _setTokenURI(_id, _tokenUri);\r\n       \r\n       tokensIdscreated.push(_id);\r\n       \r\n       //apprvove parent contract to handle tokens and transactions.\r\n       setApprovalForAll(parentAddress, true);\r\n    }\r\n\r\n    function getTokenUri(uint256 tokenId) public returns(string memory){\r\n        return tokenURI(tokenId);\r\n    }\r\n\r\n    //get tokens totalnumber. \r\n    function getTokenCount() public view returns (uint256) {\r\n        return tokensIdscreated.length;\r\n    }\r\n    //returns the array of all tokenids. \r\n    function getTokenIds() public  view returns ( uint256[] memory) {\r\n        return tokensIdscreated;\r\n    }\r\n    \r\n}",
  "sourcePath": "C:/Users/sendm/OneDrive/Desktop/HeartDrops/contracts/ACHouseToken721.sol",
  "compiler": {
    "name": "solc",
    "version": "0.8.3+commit.8d00100c.Emscripten.clang"
  },
  "schemaVersion": "3.4.1",
  "updatedAt": "2021-10-07T05:11:00.618Z",
  "networkType": "ethereum",
  "devdoc": {
    "kind": "dev",
    "methods": {
      "approve(address,uint256)": {
        "details": "See {IERC721-approve}."
      },
      "balanceOf(address)": {
        "details": "See {IERC721-balanceOf}."
      },
      "getApproved(uint256)": {
        "details": "See {IERC721-getApproved}."
      },
      "isApprovedForAll(address,address)": {
        "details": "See {IERC721-isApprovedForAll}."
      },
      "name()": {
        "details": "See {IERC721Metadata-name}."
      },
      "ownerOf(uint256)": {
        "details": "See {IERC721-ownerOf}."
      },
      "safeTransferFrom(address,address,uint256)": {
        "details": "See {IERC721-safeTransferFrom}."
      },
      "safeTransferFrom(address,address,uint256,bytes)": {
        "details": "See {IERC721-safeTransferFrom}."
      },
      "setApprovalForAll(address,bool)": {
        "details": "See {IERC721-setApprovalForAll}."
      },
      "supportsInterface(bytes4)": {
        "details": "See {IERC165-supportsInterface}."
      },
      "symbol()": {
        "details": "See {IERC721Metadata-symbol}."
      },
      "tokenURI(uint256)": {
        "details": "See {IERC721Metadata-tokenURI}."
      },
      "transferFrom(address,address,uint256)": {
        "details": "See {IERC721-transferFrom}."
      }
    },
    "version": 1
  },
  "userdoc": {
    "kind": "user",
    "methods": {},
    "version": 1
  }
}