{
  "contractName": "ACHouse",
  "abi": [
    {
      "inputs": [
        {
          "internalType": "address",
          "name": "_mToken",
          "type": "address"
        },
        {
          "internalType": "address",
          "name": "_nToken",
          "type": "address"
        }
      ],
      "stateMutability": "nonpayable",
      "type": "constructor"
    },
    {
      "anonymous": false,
      "inputs": [
        {
          "indexed": true,
          "internalType": "uint256",
          "name": "itemId",
          "type": "uint256"
        },
        {
          "indexed": true,
          "internalType": "address",
          "name": "nftContract",
          "type": "address"
        },
        {
          "indexed": true,
          "internalType": "uint256",
          "name": "tokenId",
          "type": "uint256"
        },
        {
          "indexed": false,
          "internalType": "address",
          "name": "seller",
          "type": "address"
        },
        {
          "indexed": false,
          "internalType": "address",
          "name": "fractionalContract",
          "type": "address"
        },
        {
          "indexed": false,
          "internalType": "uint256",
          "name": "shardId",
          "type": "uint256"
        },
        {
          "indexed": false,
          "internalType": "uint256",
          "name": "supplyMinted",
          "type": "uint256"
        },
        {
          "indexed": false,
          "internalType": "uint256",
          "name": "supplyRemaining",
          "type": "uint256"
        },
        {
          "indexed": false,
          "internalType": "bool",
          "name": "isMultiToken",
          "type": "bool"
        }
      ],
      "name": "FractionalTokenCreated",
      "type": "event"
    },
    {
      "anonymous": false,
      "inputs": [
        {
          "indexed": true,
          "internalType": "uint256",
          "name": "itemId",
          "type": "uint256"
        },
        {
          "indexed": true,
          "internalType": "address",
          "name": "nftContract",
          "type": "address"
        },
        {
          "indexed": true,
          "internalType": "uint256",
          "name": "tokenId",
          "type": "uint256"
        },
        {
          "indexed": false,
          "internalType": "address",
          "name": "seller",
          "type": "address"
        },
        {
          "indexed": false,
          "internalType": "uint256",
          "name": "price",
          "type": "uint256"
        },
        {
          "indexed": false,
          "internalType": "uint256",
          "name": "amount",
          "type": "uint256"
        },
        {
          "indexed": false,
          "internalType": "uint256",
          "name": "charityId",
          "type": "uint256"
        },
        {
          "indexed": false,
          "internalType": "uint256",
          "name": "auctionTime",
          "type": "uint256"
        },
        {
          "indexed": false,
          "internalType": "bool",
          "name": "sold",
          "type": "bool"
        },
        {
          "indexed": false,
          "internalType": "bool",
          "name": "isMultiToken",
          "type": "bool"
        },
        {
          "indexed": false,
          "internalType": "bool",
          "name": "isRemoved",
          "type": "bool"
        },
        {
          "indexed": false,
          "internalType": "bool",
          "name": "isFrac",
          "type": "bool"
        }
      ],
      "name": "MarketItemCreated",
      "type": "event"
    },
    {
      "anonymous": false,
      "inputs": [
        {
          "indexed": true,
          "internalType": "uint256",
          "name": "itemId",
          "type": "uint256"
        },
        {
          "indexed": true,
          "internalType": "address",
          "name": "nftContract",
          "type": "address"
        },
        {
          "indexed": true,
          "internalType": "uint256",
          "name": "tokenId",
          "type": "uint256"
        },
        {
          "indexed": false,
          "internalType": "address",
          "name": "seller",
          "type": "address"
        },
        {
          "indexed": false,
          "internalType": "address",
          "name": "owner",
          "type": "address"
        },
        {
          "indexed": false,
          "internalType": "uint256",
          "name": "price",
          "type": "uint256"
        },
        {
          "indexed": false,
          "internalType": "bool",
          "name": "sold",
          "type": "bool"
        }
      ],
      "name": "MarketItemSold",
      "type": "event"
    },
    {
      "inputs": [
        {
          "internalType": "uint256",
          "name": "",
          "type": "uint256"
        }
      ],
      "name": "ngoArray",
      "outputs": [
        {
          "internalType": "uint256",
          "name": "id",
          "type": "uint256"
        },
        {
          "internalType": "string",
          "name": "name",
          "type": "string"
        },
        {
          "internalType": "address",
          "name": "charityAddress",
          "type": "address"
        }
      ],
      "stateMutability": "view",
      "type": "function"
    },
    {
      "inputs": [
        {
          "internalType": "address",
          "name": "",
          "type": "address"
        },
        {
          "internalType": "address",
          "name": "",
          "type": "address"
        },
        {
          "internalType": "uint256[]",
          "name": "",
          "type": "uint256[]"
        },
        {
          "internalType": "uint256[]",
          "name": "",
          "type": "uint256[]"
        },
        {
          "internalType": "bytes",
          "name": "",
          "type": "bytes"
        }
      ],
      "name": "onERC1155BatchReceived",
      "outputs": [
        {
          "internalType": "bytes4",
          "name": "",
          "type": "bytes4"
        }
      ],
      "stateMutability": "nonpayable",
      "type": "function"
    },
    {
      "inputs": [
        {
          "internalType": "address",
          "name": "",
          "type": "address"
        },
        {
          "internalType": "address",
          "name": "",
          "type": "address"
        },
        {
          "internalType": "uint256",
          "name": "",
          "type": "uint256"
        },
        {
          "internalType": "uint256",
          "name": "",
          "type": "uint256"
        },
        {
          "internalType": "bytes",
          "name": "",
          "type": "bytes"
        }
      ],
      "name": "onERC1155Received",
      "outputs": [
        {
          "internalType": "bytes4",
          "name": "",
          "type": "bytes4"
        }
      ],
      "stateMutability": "nonpayable",
      "type": "function"
    },
    {
      "inputs": [
        {
          "internalType": "address",
          "name": "",
          "type": "address"
        },
        {
          "internalType": "address",
          "name": "",
          "type": "address"
        },
        {
          "internalType": "uint256",
          "name": "",
          "type": "uint256"
        },
        {
          "internalType": "bytes",
          "name": "",
          "type": "bytes"
        }
      ],
      "name": "onERC721Received",
      "outputs": [
        {
          "internalType": "bytes4",
          "name": "",
          "type": "bytes4"
        }
      ],
      "stateMutability": "nonpayable",
      "type": "function"
    },
    {
      "inputs": [
        {
          "internalType": "bytes4",
          "name": "interfaceId",
          "type": "bytes4"
        }
      ],
      "name": "supportsInterface",
      "outputs": [
        {
          "internalType": "bool",
          "name": "",
          "type": "bool"
        }
      ],
      "stateMutability": "view",
      "type": "function"
    },
    {
      "inputs": [
        {
          "internalType": "address",
          "name": "charityAddress",
          "type": "address"
        },
        {
          "internalType": "string",
          "name": "name",
          "type": "string"
        }
      ],
      "name": "addCharity",
      "outputs": [],
      "stateMutability": "nonpayable",
      "type": "function"
    },
    {
      "inputs": [
        {
          "internalType": "uint256",
          "name": "_id",
          "type": "uint256"
        }
      ],
      "name": "getCharityInfo",
      "outputs": [
        {
          "components": [
            {
              "internalType": "uint256",
              "name": "id",
              "type": "uint256"
            },
            {
              "internalType": "string",
              "name": "name",
              "type": "string"
            },
            {
              "internalType": "address",
              "name": "charityAddress",
              "type": "address"
            }
          ],
          "internalType": "struct ACHouse.NGO",
          "name": "",
          "type": "tuple"
        }
      ],
      "stateMutability": "view",
      "type": "function"
    },
    {
      "inputs": [
        {
          "internalType": "address",
          "name": "nftContract",
          "type": "address"
        },
        {
          "internalType": "uint256",
          "name": "tokenId",
          "type": "uint256"
        },
        {
          "internalType": "uint256",
          "name": "price",
          "type": "uint256"
        },
        {
          "internalType": "uint256",
          "name": "amount",
          "type": "uint256"
        },
        {
          "internalType": "uint256",
          "name": "_charityId",
          "type": "uint256"
        },
        {
          "internalType": "uint256",
          "name": "auctionTime",
          "type": "uint256"
        },
        {
          "internalType": "bool",
          "name": "isFrac",
          "type": "bool"
        }
      ],
      "name": "create1155MarketItem",
      "outputs": [
        {
          "internalType": "uint256",
          "name": "",
          "type": "uint256"
        }
      ],
      "stateMutability": "payable",
      "type": "function"
    },
    {
      "inputs": [
        {
          "internalType": "address",
          "name": "nftContract",
          "type": "address"
        },
        {
          "internalType": "uint256",
          "name": "tokenId",
          "type": "uint256"
        },
        {
          "internalType": "uint256",
          "name": "price",
          "type": "uint256"
        },
        {
          "internalType": "uint256",
          "name": "_charityId",
          "type": "uint256"
        },
        {
          "internalType": "uint256",
          "name": "auctionTime",
          "type": "uint256"
        },
        {
          "internalType": "bool",
          "name": "isFrac",
          "type": "bool"
        }
      ],
      "name": "create721MarketItem",
      "outputs": [
        {
          "internalType": "uint256",
          "name": "",
          "type": "uint256"
        }
      ],
      "stateMutability": "payable",
      "type": "function"
    },
    {
      "inputs": [
        {
          "internalType": "uint256",
          "name": "itemId",
          "type": "uint256"
        }
      ],
      "name": "removeMarketPlaceItem",
      "outputs": [],
      "stateMutability": "nonpayable",
      "type": "function"
    },
    {
      "inputs": [
        {
          "internalType": "uint256",
          "name": "itemId",
          "type": "uint256"
        }
      ],
      "name": "addMarketPlaceItem",
      "outputs": [],
      "stateMutability": "nonpayable",
      "type": "function"
    },
    {
      "inputs": [
        {
          "internalType": "address",
          "name": "nftContract",
          "type": "address"
        },
        {
          "internalType": "uint256",
          "name": "itemId",
          "type": "uint256"
        }
      ],
      "name": "createMarketSale",
      "outputs": [],
      "stateMutability": "payable",
      "type": "function"
    },
    {
      "inputs": [
        {
          "internalType": "uint256",
          "name": "_id",
          "type": "uint256"
        }
      ],
      "name": "fetchMarketItem",
      "outputs": [
        {
          "components": [
            {
              "internalType": "uint256",
              "name": "itemId",
              "type": "uint256"
            },
            {
              "internalType": "address",
              "name": "nftContract",
              "type": "address"
            },
            {
              "internalType": "uint256",
              "name": "tokenId",
              "type": "uint256"
            },
            {
              "internalType": "address payable",
              "name": "seller",
              "type": "address"
            },
            {
              "internalType": "address payable",
              "name": "owner",
              "type": "address"
            },
            {
              "internalType": "uint256",
              "name": "price",
              "type": "uint256"
            },
            {
              "internalType": "uint256",
              "name": "amount",
              "type": "uint256"
            },
            {
              "internalType": "uint256",
              "name": "charityId",
              "type": "uint256"
            },
            {
              "internalType": "uint256",
              "name": "auctionTime",
              "type": "uint256"
            },
            {
              "internalType": "bool",
              "name": "sold",
              "type": "bool"
            },
            {
              "internalType": "bool",
              "name": "isMultiToken",
              "type": "bool"
            },
            {
              "internalType": "bool",
              "name": "isRemoved",
              "type": "bool"
            },
            {
              "internalType": "bool",
              "name": "isFrac",
              "type": "bool"
            }
          ],
          "internalType": "struct ACHouse.MarketItem",
          "name": "",
          "type": "tuple"
        }
      ],
      "stateMutability": "view",
      "type": "function"
    },
    {
      "inputs": [],
      "name": "getUnSoldMarketItems",
      "outputs": [
        {
          "components": [
            {
              "internalType": "uint256",
              "name": "itemId",
              "type": "uint256"
            },
            {
              "internalType": "address",
              "name": "nftContract",
              "type": "address"
            },
            {
              "internalType": "uint256",
              "name": "tokenId",
              "type": "uint256"
            },
            {
              "internalType": "address payable",
              "name": "seller",
              "type": "address"
            },
            {
              "internalType": "address payable",
              "name": "owner",
              "type": "address"
            },
            {
              "internalType": "uint256",
              "name": "price",
              "type": "uint256"
            },
            {
              "internalType": "uint256",
              "name": "amount",
              "type": "uint256"
            },
            {
              "internalType": "uint256",
              "name": "charityId",
              "type": "uint256"
            },
            {
              "internalType": "uint256",
              "name": "auctionTime",
              "type": "uint256"
            },
            {
              "internalType": "bool",
              "name": "sold",
              "type": "bool"
            },
            {
              "internalType": "bool",
              "name": "isMultiToken",
              "type": "bool"
            },
            {
              "internalType": "bool",
              "name": "isRemoved",
              "type": "bool"
            },
            {
              "internalType": "bool",
              "name": "isFrac",
              "type": "bool"
            }
          ],
          "internalType": "struct ACHouse.MarketItem[]",
          "name": "",
          "type": "tuple[]"
        }
      ],
      "stateMutability": "view",
      "type": "function"
    },
    {
      "inputs": [],
      "name": "fetchMyNFTs",
      "outputs": [
        {
          "components": [
            {
              "internalType": "uint256",
              "name": "itemId",
              "type": "uint256"
            },
            {
              "internalType": "address",
              "name": "nftContract",
              "type": "address"
            },
            {
              "internalType": "uint256",
              "name": "tokenId",
              "type": "uint256"
            },
            {
              "internalType": "address payable",
              "name": "seller",
              "type": "address"
            },
            {
              "internalType": "address payable",
              "name": "owner",
              "type": "address"
            },
            {
              "internalType": "uint256",
              "name": "price",
              "type": "uint256"
            },
            {
              "internalType": "uint256",
              "name": "amount",
              "type": "uint256"
            },
            {
              "internalType": "uint256",
              "name": "charityId",
              "type": "uint256"
            },
            {
              "internalType": "uint256",
              "name": "auctionTime",
              "type": "uint256"
            },
            {
              "internalType": "bool",
              "name": "sold",
              "type": "bool"
            },
            {
              "internalType": "bool",
              "name": "isMultiToken",
              "type": "bool"
            },
            {
              "internalType": "bool",
              "name": "isRemoved",
              "type": "bool"
            },
            {
              "internalType": "bool",
              "name": "isFrac",
              "type": "bool"
            }
          ],
          "internalType": "struct ACHouse.MarketItem[]",
          "name": "",
          "type": "tuple[]"
        }
      ],
      "stateMutability": "view",
      "type": "function"
    },
    {
      "inputs": [],
      "name": "fetchItemsCreated",
      "outputs": [
        {
          "components": [
            {
              "internalType": "uint256",
              "name": "itemId",
              "type": "uint256"
            },
            {
              "internalType": "address",
              "name": "nftContract",
              "type": "address"
            },
            {
              "internalType": "uint256",
              "name": "tokenId",
              "type": "uint256"
            },
            {
              "internalType": "address payable",
              "name": "seller",
              "type": "address"
            },
            {
              "internalType": "address payable",
              "name": "owner",
              "type": "address"
            },
            {
              "internalType": "uint256",
              "name": "price",
              "type": "uint256"
            },
            {
              "internalType": "uint256",
              "name": "amount",
              "type": "uint256"
            },
            {
              "internalType": "uint256",
              "name": "charityId",
              "type": "uint256"
            },
            {
              "internalType": "uint256",
              "name": "auctionTime",
              "type": "uint256"
            },
            {
              "internalType": "bool",
              "name": "sold",
              "type": "bool"
            },
            {
              "internalType": "bool",
              "name": "isMultiToken",
              "type": "bool"
            },
            {
              "internalType": "bool",
              "name": "isRemoved",
              "type": "bool"
            },
            {
              "internalType": "bool",
              "name": "isFrac",
              "type": "bool"
            }
          ],
          "internalType": "struct ACHouse.MarketItem[]",
          "name": "",
          "type": "tuple[]"
        }
      ],
      "stateMutability": "view",
      "type": "function"
    },
    {
      "inputs": [
        {
          "internalType": "string",
          "name": "_name",
          "type": "string"
        },
        {
          "internalType": "uint256",
          "name": "_userType",
          "type": "uint256"
        }
      ],
      "name": "register",
      "outputs": [
        {
          "internalType": "bool",
          "name": "",
          "type": "bool"
        }
      ],
      "stateMutability": "nonpayable",
      "type": "function"
    },
    {
      "inputs": [
        {
          "internalType": "string",
          "name": "_uri",
          "type": "string"
        }
      ],
      "name": "setURI1155",
      "outputs": [],
      "stateMutability": "nonpayable",
      "type": "function"
    },
    {
      "inputs": [
        {
          "internalType": "uint256",
          "name": "_tokenId",
          "type": "uint256"
        }
      ],
      "name": "getTokenURI",
      "outputs": [
        {
          "internalType": "string",
          "name": "",
          "type": "string"
        }
      ],
      "stateMutability": "view",
      "type": "function"
    },
    {
      "inputs": [
        {
          "internalType": "uint256",
          "name": "_id",
          "type": "uint256"
        },
        {
          "internalType": "uint256",
          "name": "_amount",
          "type": "uint256"
        }
      ],
      "name": "createNFT1155",
      "outputs": [],
      "stateMutability": "nonpayable",
      "type": "function"
    },
    {
      "inputs": [],
      "name": "getTokenCount",
      "outputs": [
        {
          "internalType": "uint256",
          "name": "",
          "type": "uint256"
        }
      ],
      "stateMutability": "view",
      "type": "function"
    },
    {
      "inputs": [],
      "name": "getTokenIds",
      "outputs": [
        {
          "internalType": "uint256[]",
          "name": "",
          "type": "uint256[]"
        }
      ],
      "stateMutability": "view",
      "type": "function"
    },
    {
      "inputs": [
        {
          "internalType": "uint256",
          "name": "_tokenId",
          "type": "uint256"
        }
      ],
      "name": "getTokenSupply",
      "outputs": [
        {
          "internalType": "uint256",
          "name": "",
          "type": "uint256"
        }
      ],
      "stateMutability": "view",
      "type": "function"
    },
    {
      "inputs": [
        {
          "internalType": "address",
          "name": "nftContract",
          "type": "address"
        },
        {
          "internalType": "uint256",
          "name": "tokenId",
          "type": "uint256"
        },
        {
          "internalType": "uint256",
          "name": "shardId",
          "type": "uint256"
        },
        {
          "internalType": "uint256",
          "name": "supplyToCreate",
          "type": "uint256"
        },
        {
          "internalType": "string",
          "name": "uri",
          "type": "string"
        }
      ],
      "name": "fractionalize1155NFT",
      "outputs": [
        {
          "internalType": "uint256",
          "name": "",
          "type": "uint256"
        }
      ],
      "stateMutability": "nonpayable",
      "type": "function"
    },
    {
      "inputs": [
        {
          "internalType": "address",
          "name": "nftContract",
          "type": "address"
        },
        {
          "internalType": "uint256",
          "name": "tokenId",
          "type": "uint256"
        },
        {
          "internalType": "uint256",
          "name": "shardId",
          "type": "uint256"
        },
        {
          "internalType": "uint256",
          "name": "supplyToCreate",
          "type": "uint256"
        },
        {
          "internalType": "string",
          "name": "uri",
          "type": "string"
        }
      ],
      "name": "fractionalize721NFT",
      "outputs": [
        {
          "internalType": "uint256",
          "name": "",
          "type": "uint256"
        }
      ],
      "stateMutability": "nonpayable",
      "type": "function"
    },
    {
      "inputs": [
        {
          "internalType": "uint256",
          "name": "_fracId",
          "type": "uint256"
        }
      ],
      "name": "getFractionalInformation",
      "outputs": [
        {
          "components": [
            {
              "internalType": "uint256",
              "name": "itemId",
              "type": "uint256"
            },
            {
              "internalType": "address",
              "name": "nftContract",
              "type": "address"
            },
            {
              "internalType": "uint256",
              "name": "tokenId",
              "type": "uint256"
            },
            {
              "internalType": "address payable",
              "name": "seller",
              "type": "address"
            },
            {
              "internalType": "address payable",
              "name": "owner",
              "type": "address"
            },
            {
              "internalType": "address",
              "name": "fractionalContract",
              "type": "address"
            },
            {
              "internalType": "uint256",
              "name": "shardId",
              "type": "uint256"
            },
            {
              "internalType": "uint256",
              "name": "supplyMinted",
              "type": "uint256"
            },
            {
              "internalType": "uint256",
              "name": "supplyRemaining",
              "type": "uint256"
            },
            {
              "internalType": "bool",
              "name": "isMultiToken",
              "type": "bool"
            }
          ],
          "internalType": "struct ACHouse.FractionalizeToken",
          "name": "",
          "type": "tuple"
        }
      ],
      "stateMutability": "view",
      "type": "function"
    },
    {
      "inputs": [
        {
          "internalType": "uint256",
          "name": "_id",
          "type": "uint256"
        },
        {
          "internalType": "string",
          "name": "uri",
          "type": "string"
        },
        {
          "internalType": "string",
          "name": "name",
          "type": "string"
        },
        {
          "internalType": "string",
          "name": "symbol",
          "type": "string"
        }
      ],
      "name": "createNFT721",
      "outputs": [],
      "stateMutability": "nonpayable",
      "type": "function"
    },
    {
      "inputs": [],
      "name": "get721TokenCount",
      "outputs": [
        {
          "internalType": "uint256",
          "name": "",
          "type": "uint256"
        }
      ],
      "stateMutability": "view",
      "type": "function"
    },
    {
      "inputs": [],
      "name": "get721TokenIds",
      "outputs": [
        {
          "internalType": "uint256[]",
          "name": "",
          "type": "uint256[]"
        }
      ],
      "stateMutability": "view",
      "type": "function"
    },
    {
      "inputs": [
        {
          "internalType": "uint256",
          "name": "_id",
          "type": "uint256"
        }
      ],
      "name": "get721TokenName",
      "outputs": [
        {
          "internalType": "string",
          "name": "",
          "type": "string"
        }
      ],
      "stateMutability": "view",
      "type": "function"
    },
    {
      "inputs": [
        {
          "internalType": "uint256",
          "name": "_id",
          "type": "uint256"
        }
      ],
      "name": "get721TokenSymbol",
      "outputs": [
        {
          "internalType": "string",
          "name": "",
          "type": "string"
        }
      ],
      "stateMutability": "view",
      "type": "function"
    },
    {
      "inputs": [
        {
          "internalType": "uint256",
          "name": "_id",
          "type": "uint256"
        }
      ],
      "name": "get721TokenURI",
      "outputs": [
        {
          "internalType": "string",
          "name": "",
          "type": "string"
        }
      ],
      "stateMutability": "view",
      "type": "function"
    },
    {
      "inputs": [
        {
          "internalType": "uint256",
          "name": "v",
          "type": "uint256"
        }
      ],
      "name": "uint2str",
      "outputs": [
        {
          "internalType": "string",
          "name": "",
          "type": "string"
        }
      ],
      "stateMutability": "pure",
      "type": "function"
    }
  ],
  "bytecode": "0x608060405260006009556000600a556000600b556000600c553480156200002557600080fd5b50604051620061c5380380620061c583398181016040528101906200004b919062000257565b600160008190555081600660006101000a81548173ffffffffffffffffffffffffffffffffffffffff021916908373ffffffffffffffffffffffffffffffffffffffff16021790555080600760006101000a81548173ffffffffffffffffffffffffffffffffffffffff021916908373ffffffffffffffffffffffffffffffffffffffff160217905550600660009054906101000a900473ffffffffffffffffffffffffffffffffffffffff1673ffffffffffffffffffffffffffffffffffffffff1663fa5afe40306040518263ffffffff1660e01b8152600401620001329190620002a9565b600060405180830381600087803b1580156200014d57600080fd5b505af115801562000162573d6000803e3d6000fd5b50505050600760009054906101000a900473ffffffffffffffffffffffffffffffffffffffff1673ffffffffffffffffffffffffffffffffffffffff1663fa5afe40306040518263ffffffff1660e01b8152600401620001c39190620002a9565b600060405180830381600087803b158015620001de57600080fd5b505af1158015620001f3573d6000803e3d6000fd5b5050505033600560006101000a81548173ffffffffffffffffffffffffffffffffffffffff021916908373ffffffffffffffffffffffffffffffffffffffff160217905550505062000314565b6000815190506200025181620002fa565b92915050565b600080604083850312156200026b57600080fd5b60006200027b8582860162000240565b92505060206200028e8582860162000240565b9150509250929050565b620002a381620002c6565b82525050565b6000602082019050620002c0600083018462000298565b92915050565b6000620002d382620002da565b9050919050565b600073ffffffffffffffffffffffffffffffffffffffff82169050919050565b6200030581620002c6565b81146200031157600080fd5b50565b615ea180620003246000396000f3fe6080604052600436106101ee5760003560e01c806372f7bec81161010d578063bc197c81116100a0578063e95fcc4c1161006f578063e95fcc4c14610782578063ea87152b146107bf578063f064c32e146107fc578063f23a6e6114610827578063f76f950e14610864576101ee565b8063bc197c81146106d5578063c23b139e14610712578063dbcd674e1461072e578063dce9fc1114610759576101ee565b80639c79afb3116100dc5780639c79afb3146105f35780639ca7aac714610632578063ad3ec90c1461066f578063af8e6c39146106ac576101ee565b806372f7bec81461054b57806378a8956714610574578063833564971461059f578063953e8267146105c8576101ee565b80633bb3a24d116101855780635490b356116101545780635490b3561461047657806367f718a9146104b35780636b3ed26f146104de5780636b4d95331461051b576101ee565b80633bb3a24d146103a35780633e52a165146103e057806343404be1146104095780634f31d0d814610446576101ee565b8063202e3740116101c1578063202e3740146102d357806325762e57146102fe5780632a45b2501461033b5780632f7179f614610378576101ee565b806301ffc9a7146101f3578063145eca8c14610230578063150b7a021461025957806319b88edb14610296575b600080fd5b3480156101ff57600080fd5b5061021a60048036038101906102159190614aea565b6108a1565b6040516102279190615682565b60405180910390f35b34801561023c57600080fd5b5061025760048036038101906102529190614be9565b61091b565b005b34801561026557600080fd5b50610280600480360381019061027b9190614759565b61094d565b60405161028d919061569d565b60405180910390f35b3480156102a257600080fd5b506102bd60048036038101906102b89190614be9565b610961565b6040516102ca91906157b4565b60405180910390f35b3480156102df57600080fd5b506102e8610a15565b6040516102f5919061563e565b60405180910390f35b34801561030a57600080fd5b5061032560048036038101906103209190614be9565b610d9d565b60405161033291906156b8565b60405180910390f35b34801561034757600080fd5b50610362600480360381019061035d9190614be9565b610e56565b60405161036f9190615776565b60405180910390f35b34801561038457600080fd5b5061038d61102e565b60405161039a919061563e565b60405180910390f35b3480156103af57600080fd5b506103ca60048036038101906103c59190614be9565b6113f3565b6040516103d791906156b8565b60405180910390f35b3480156103ec57600080fd5b5061040760048036038101906104029190614be9565b6114ac565b005b34801561041557600080fd5b50610430600480360381019061042b9190614be9565b6114de565b60405161043d9190615792565b60405180910390f35b610460600480360381019061045b9190614a0b565b6115fd565b60405161046d91906157b4565b60405180910390f35b34801561048257600080fd5b5061049d600480360381019061049891906148f3565b6119fe565b6040516104aa91906157b4565b60405180910390f35b3480156104bf57600080fd5b506104c8611dfe565b6040516104d59190615660565b60405180910390f35b3480156104ea57600080fd5b5061050560048036038101906105009190614be9565b611eaa565b60405161051291906156b8565b60405180910390f35b61053560048036038101906105309190614982565b611f63565b60405161054291906157b4565b60405180910390f35b34801561055757600080fd5b50610572600480360381019061056d9190614863565b61230c565b005b34801561058057600080fd5b506105896123e4565b60405161059691906157b4565b60405180910390f35b3480156105ab57600080fd5b506105c660048036038101906105c19190614c3b565b61248b565b005b3480156105d457600080fd5b506105dd612526565b6040516105ea9190615660565b60405180910390f35b3480156105ff57600080fd5b5061061a60048036038101906106159190614be9565b6125d2565b604051610629939291906157cf565b60405180910390f35b34801561063e57600080fd5b5061065960048036038101906106549190614be9565b6126b4565b60405161066691906156b8565b60405180910390f35b34801561067b57600080fd5b50610696600480360381019061069191906148f3565b61276d565b6040516106a391906157b4565b60405180910390f35b3480156106b857600080fd5b506106d360048036038101906106ce9190614b13565b612b6a565b005b3480156106e157600080fd5b506106fc60048036038101906106f7919061469a565b612bfa565b604051610709919061569d565b60405180910390f35b61072c600480360381019061072791906148b7565b612c0f565b005b34801561073a57600080fd5b5061074361335d565b60405161075091906157b4565b60405180910390f35b34801561076557600080fd5b50610780600480360381019061077b9190614ce6565b613404565b005b34801561078e57600080fd5b506107a960048036038101906107a49190614be9565b613499565b6040516107b6919061575a565b60405180910390f35b3480156107cb57600080fd5b506107e660048036038101906107e19190614b95565b613672565b6040516107f39190615682565b60405180910390f35b34801561080857600080fd5b50610811613927565b60405161081e919061563e565b60405180910390f35b34801561083357600080fd5b5061084e600480360381019061084991906147d4565b613d30565b60405161085b919061569d565b60405180910390f35b34801561087057600080fd5b5061088b60048036038101906108869190614be9565b613d45565b60405161089891906156b8565b60405180910390f35b60007f4e2312e0000000000000000000000000000000000000000000000000000000007bffffffffffffffffffffffffffffffffffffffffffffffffffffffff1916827bffffffffffffffffffffffffffffffffffffffffffffffffffffffff1916148061091457506109138261402b565b5b9050919050565b60016014600083815260200190815260200160002060090160026101000a81548160ff02191690831515021790555050565b600063150b7a0260e01b9050949350505050565b6000600660009054906101000a900473ffffffffffffffffffffffffffffffffffffffff1673ffffffffffffffffffffffffffffffffffffffff166397492c1c836040518263ffffffff1660e01b81526004016109be91906157b4565b60206040518083038186803b1580156109d657600080fd5b505afa1580156109ea573d6000803e3d6000fd5b505050506040513d601f19601f82011682018060405250810190610a0e9190614c12565b9050919050565b60606000601760003373ffffffffffffffffffffffffffffffffffffffff1673ffffffffffffffffffffffffffffffffffffffff168152602001908152602001600020805480602002602001604051908101604052809291908181526020018280548015610aa257602002820191906000526020600020905b815481526020019060010190808311610a8e575b505050505090506000815167ffffffffffffffff811115610aec577f4e487b7100000000000000000000000000000000000000000000000000000000600052604160045260246000fd5b604051908082528060200260200182016040528015610b2557816020015b610b12614194565b815260200190600190039081610b0a5790505b50905060005b8251811015610d945760146000848381518110610b71577f4e487b7100000000000000000000000000000000000000000000000000000000600052603260045260246000fd5b60200260200101518152602001908152602001600020604051806101a0016040529081600082015481526020016001820160009054906101000a900473ffffffffffffffffffffffffffffffffffffffff1673ffffffffffffffffffffffffffffffffffffffff1673ffffffffffffffffffffffffffffffffffffffff168152602001600282015481526020016003820160009054906101000a900473ffffffffffffffffffffffffffffffffffffffff1673ffffffffffffffffffffffffffffffffffffffff1673ffffffffffffffffffffffffffffffffffffffff1681526020016004820160009054906101000a900473ffffffffffffffffffffffffffffffffffffffff1673ffffffffffffffffffffffffffffffffffffffff1673ffffffffffffffffffffffffffffffffffffffff168152602001600582015481526020016006820154815260200160078201548152602001600882015481526020016009820160009054906101000a900460ff161515151581526020016009820160019054906101000a900460ff161515151581526020016009820160029054906101000a900460ff161515151581526020016009820160039054906101000a900460ff161515151581525050828281518110610d76577f4e487b7100000000000000000000000000000000000000000000000000000000600052603260045260246000fd5b60200260200101819052508080610d8c90615bab565b915050610b2b565b50809250505090565b6060600760009054906101000a900473ffffffffffffffffffffffffffffffffffffffff1673ffffffffffffffffffffffffffffffffffffffff16638ad91345836040518263ffffffff1660e01b8152600401610dfa91906157b4565b60006040518083038186803b158015610e1257600080fd5b505afa158015610e26573d6000803e3d6000fd5b505050506040513d6000823e3d601f19601f82011682018060405250810190610e4f9190614b54565b9050919050565b610e5e614194565b60146000838152602001908152602001600020604051806101a0016040529081600082015481526020016001820160009054906101000a900473ffffffffffffffffffffffffffffffffffffffff1673ffffffffffffffffffffffffffffffffffffffff1673ffffffffffffffffffffffffffffffffffffffff168152602001600282015481526020016003820160009054906101000a900473ffffffffffffffffffffffffffffffffffffffff1673ffffffffffffffffffffffffffffffffffffffff1673ffffffffffffffffffffffffffffffffffffffff1681526020016004820160009054906101000a900473ffffffffffffffffffffffffffffffffffffffff1673ffffffffffffffffffffffffffffffffffffffff1673ffffffffffffffffffffffffffffffffffffffff168152602001600582015481526020016006820154815260200160078201548152602001600882015481526020016009820160009054906101000a900460ff161515151581526020016009820160019054906101000a900460ff161515151581526020016009820160029054906101000a900460ff161515151581526020016009820160039054906101000a900460ff1615151515815250509050919050565b6060600061103c6002614095565b6110466001614095565b61105091906159f7565b905060008167ffffffffffffffff811115611094577f4e487b7100000000000000000000000000000000000000000000000000000000600052604160045260246000fd5b6040519080825280602002602001820160405280156110cd57816020015b6110ba614194565b8152602001906001900390816110b25790505b5090506000806110dd6001614095565b905060005b818110156113e857600073ffffffffffffffffffffffffffffffffffffffff16601460006001846111139190615970565b815260200190815260200160002060040160009054906101000a900473ffffffffffffffffffffffffffffffffffffffff1673ffffffffffffffffffffffffffffffffffffffff1614801561119b575060001515601460006001846111789190615970565b815260200190815260200160002060090160029054906101000a900460ff161515145b156113d55760006001826111af9190615970565b9050600060146000838152602001908152602001600020604051806101a0016040529081600082015481526020016001820160009054906101000a900473ffffffffffffffffffffffffffffffffffffffff1673ffffffffffffffffffffffffffffffffffffffff1673ffffffffffffffffffffffffffffffffffffffff168152602001600282015481526020016003820160009054906101000a900473ffffffffffffffffffffffffffffffffffffffff1673ffffffffffffffffffffffffffffffffffffffff1673ffffffffffffffffffffffffffffffffffffffff1681526020016004820160009054906101000a900473ffffffffffffffffffffffffffffffffffffffff1673ffffffffffffffffffffffffffffffffffffffff1673ffffffffffffffffffffffffffffffffffffffff168152602001600582015481526020016006820154815260200160078201548152602001600882015481526020016009820160009054906101000a900460ff161515151581526020016009820160019054906101000a900460ff161515151581526020016009820160029054906101000a900460ff161515151581526020016009820160039054906101000a900460ff1615151515815250509050808686815181106113b8577f4e487b7100000000000000000000000000000000000000000000000000000000600052603260045260246000fd5b60200260200101819052506001856113d09190615970565b945050505b80806113e090615bab565b9150506110e2565b508294505050505090565b6060600660009054906101000a900473ffffffffffffffffffffffffffffffffffffffff1673ffffffffffffffffffffffffffffffffffffffff16633bb3a24d836040518263ffffffff1660e01b815260040161145091906157b4565b60006040518083038186803b15801561146857600080fd5b505afa15801561147c573d6000803e3d6000fd5b505050506040513d6000823e3d601f19601f820116820180604052508101906114a59190614b54565b9050919050565b60006014600083815260200190815260200160002060090160026101000a81548160ff02191690831515021790555050565b6114e6614246565b601260008381526020019081526020016000206040518060600160405290816000820154815260200160018201805461151e90615b48565b80601f016020809104026020016040519081016040528092919081815260200182805461154a90615b48565b80156115975780601f1061156c57610100808354040283529160200191611597565b820191906000526020600020905b81548152906001019060200180831161157a57829003601f168201915b505050505081526020016002820160009054906101000a900473ffffffffffffffffffffffffffffffffffffffff1673ffffffffffffffffffffffffffffffffffffffff1673ffffffffffffffffffffffffffffffffffffffff16815250509050919050565b600060026000541415611645576040517f08c379a000000000000000000000000000000000000000000000000000000000815260040161163c906156fa565b60405180910390fd5b600260008190555060008611611690576040517f08c379a00000000000000000000000000000000000000000000000000000000081526004016116879061571a565b60405180910390fd5b61169a60016140a3565b60006116a66001614095565b90506000604051806101a001604052808381526020018b73ffffffffffffffffffffffffffffffffffffffff1681526020018a81526020013373ffffffffffffffffffffffffffffffffffffffff168152602001600073ffffffffffffffffffffffffffffffffffffffff168152602001670de0b6b3a76400008a61172b91906159c6565b8152602001888152602001878152602001868152602001600015158152602001600115158152602001600015158152602001851515815250905080601460008481526020019081526020016000206000820151816000015560208201518160010160006101000a81548173ffffffffffffffffffffffffffffffffffffffff021916908373ffffffffffffffffffffffffffffffffffffffff1602179055506040820151816002015560608201518160030160006101000a81548173ffffffffffffffffffffffffffffffffffffffff021916908373ffffffffffffffffffffffffffffffffffffffff16021790555060808201518160040160006101000a81548173ffffffffffffffffffffffffffffffffffffffff021916908373ffffffffffffffffffffffffffffffffffffffff16021790555060a0820151816005015560c0820151816006015560e0820151816007015561010082015181600801556101208201518160090160006101000a81548160ff0219169083151502179055506101408201518160090160016101000a81548160ff0219169083151502179055506101608201518160090160026101000a81548160ff0219169083151502179055506101808201518160090160036101000a81548160ff0219169083151502179055509050508973ffffffffffffffffffffffffffffffffffffffff1663f242432a33308c8b6040518563ffffffff1660e01b815260040161195194939291906153cc565b600060405180830381600087803b15801561196b57600080fd5b505af115801561197f573d6000803e3d6000fd5b50505050888a73ffffffffffffffffffffffffffffffffffffffff16837f66e97b8164670aa0e694d4edeefadfbd201b7b854d868d7d6e610bbd4b75230c338c8c8c8c6000600160008f6040516119de999897969594939291906155b1565b60405180910390a481925050506001600081905550979650505050505050565b6000611a0a60036140a3565b6000611a166003614095565b905060006040518061014001604052808381526020018973ffffffffffffffffffffffffffffffffffffffff1681526020018881526020013373ffffffffffffffffffffffffffffffffffffffff168152602001600073ffffffffffffffffffffffffffffffffffffffff168152602001600660009054906101000a900473ffffffffffffffffffffffffffffffffffffffff1673ffffffffffffffffffffffffffffffffffffffff16815260200187815260200186815260200186815260200160011515815250905080601960008481526020019081526020016000206000820151816000015560208201518160010160006101000a81548173ffffffffffffffffffffffffffffffffffffffff021916908373ffffffffffffffffffffffffffffffffffffffff1602179055506040820151816002015560608201518160030160006101000a81548173ffffffffffffffffffffffffffffffffffffffff021916908373ffffffffffffffffffffffffffffffffffffffff16021790555060808201518160040160006101000a81548173ffffffffffffffffffffffffffffffffffffffff021916908373ffffffffffffffffffffffffffffffffffffffff16021790555060a08201518160050160006101000a81548173ffffffffffffffffffffffffffffffffffffffff021916908373ffffffffffffffffffffffffffffffffffffffff16021790555060c0820151816006015560e0820151816007015561010082015181600801556101208201518160090160006101000a81548160ff0219169083151502179055509050508773ffffffffffffffffffffffffffffffffffffffff1663f242432a33308a60016040518563ffffffff1660e01b8152600401611ca79493929190615374565b600060405180830381600087803b158015611cc157600080fd5b505af1158015611cd5573d6000803e3d6000fd5b50505050611ce284612b6a565b600660009054906101000a900473ffffffffffffffffffffffffffffffffffffffff1673ffffffffffffffffffffffffffffffffffffffff16635a9d10a23384886040518463ffffffff1660e01b8152600401611d419392919061557a565b600060405180830381600087803b158015611d5b57600080fd5b505af1158015611d6f573d6000803e3d6000fd5b50505050868873ffffffffffffffffffffffffffffffffffffffff16837fedbbc6bc63aa092bba302ac98ddaafe17f6714072cb4cb7caeb89e9b31f6f4ca33600660009054906101000a900473ffffffffffffffffffffffffffffffffffffffff168b8b8c6001604051611de896959493929190615424565b60405180910390a4819250505095945050505050565b6060600660009054906101000a900473ffffffffffffffffffffffffffffffffffffffff1673ffffffffffffffffffffffffffffffffffffffff166367f718a96040518163ffffffff1660e01b815260040160006040518083038186803b158015611e6857600080fd5b505afa158015611e7c573d6000803e3d6000fd5b505050506040513d6000823e3d601f19601f82011682018060405250810190611ea59190614aa9565b905090565b6060600760009054906101000a900473ffffffffffffffffffffffffffffffffffffffff1673ffffffffffffffffffffffffffffffffffffffff16637b78bd3f836040518263ffffffff1660e01b8152600401611f0791906157b4565b60006040518083038186803b158015611f1f57600080fd5b505afa158015611f33573d6000803e3d6000fd5b505050506040513d6000823e3d601f19601f82011682018060405250810190611f5c9190614b54565b9050919050565b600060026000541415611fab576040517f08c379a0000000000000000000000000000000000000000000000000000000008152600401611fa2906156fa565b60405180910390fd5b6002600081905550611fbd60016140a3565b6000611fc96001614095565b90506000604051806101a001604052808381526020018a73ffffffffffffffffffffffffffffffffffffffff1681526020018981526020013373ffffffffffffffffffffffffffffffffffffffff168152602001600073ffffffffffffffffffffffffffffffffffffffff16815260200188815260200160018152602001878152602001868152602001600015158152602001600115158152602001600015158152602001851515815250905080601460008481526020019081526020016000206000820151816000015560208201518160010160006101000a81548173ffffffffffffffffffffffffffffffffffffffff021916908373ffffffffffffffffffffffffffffffffffffffff1602179055506040820151816002015560608201518160030160006101000a81548173ffffffffffffffffffffffffffffffffffffffff021916908373ffffffffffffffffffffffffffffffffffffffff16021790555060808201518160040160006101000a81548173ffffffffffffffffffffffffffffffffffffffff021916908373ffffffffffffffffffffffffffffffffffffffff16021790555060a0820151816005015560c0820151816006015560e0820151816007015561010082015181600801556101208201518160090160006101000a81548160ff0219169083151502179055506101408201518160090160016101000a81548160ff0219169083151502179055506101608201518160090160026101000a81548160ff0219169083151502179055506101808201518160090160036101000a81548160ff0219169083151502179055509050508873ffffffffffffffffffffffffffffffffffffffff166323b872dd33308b6040518463ffffffff1660e01b81526004016122609392919061533d565b600060405180830381600087803b15801561227a57600080fd5b505af115801561228e573d6000803e3d6000fd5b50505050878973ffffffffffffffffffffffffffffffffffffffff16837f66e97b8164670aa0e694d4edeefadfbd201b7b854d868d7d6e610bbd4b75230c338b60018c8c60008060008f6040516122ed99989796959493929190615485565b60405180910390a4819250505060016000819055509695505050505050565b61231660046140a3565b60006123226004614095565b9050600060405180606001604052808381526020018481526020018573ffffffffffffffffffffffffffffffffffffffff168152509050806012600084815260200190815260200160002060008201518160000155602082015181600101908051906020019061239392919061427d565b5060408201518160020160006101000a81548173ffffffffffffffffffffffffffffffffffffffff021916908373ffffffffffffffffffffffffffffffffffffffff16021790555090505050505050565b6000600660009054906101000a900473ffffffffffffffffffffffffffffffffffffffff1673ffffffffffffffffffffffffffffffffffffffff166378a895676040518163ffffffff1660e01b815260040160206040518083038186803b15801561244e57600080fd5b505afa158015612462573d6000803e3d6000fd5b505050506040513d601f19601f820116820180604052508101906124869190614c12565b905090565b600760009054906101000a900473ffffffffffffffffffffffffffffffffffffffff1673ffffffffffffffffffffffffffffffffffffffff1663257d89db33868686866040518663ffffffff1660e01b81526004016124ee959493929190615512565b600060405180830381600087803b15801561250857600080fd5b505af115801561251c573d6000803e3d6000fd5b5050505050505050565b6060600760009054906101000a900473ffffffffffffffffffffffffffffffffffffffff1673ffffffffffffffffffffffffffffffffffffffff166367f718a96040518163ffffffff1660e01b815260040160006040518083038186803b15801561259057600080fd5b505afa1580156125a4573d6000803e3d6000fd5b505050506040513d6000823e3d601f19601f820116820180604052508101906125cd9190614aa9565b905090565b600d81815481106125e257600080fd5b906000526020600020906003020160009150905080600001549080600101805461260b90615b48565b80601f016020809104026020016040519081016040528092919081815260200182805461263790615b48565b80156126845780601f1061265957610100808354040283529160200191612684565b820191906000526020600020905b81548152906001019060200180831161266757829003601f168201915b5050505050908060020160009054906101000a900473ffffffffffffffffffffffffffffffffffffffff16905083565b6060600760009054906101000a900473ffffffffffffffffffffffffffffffffffffffff1673ffffffffffffffffffffffffffffffffffffffff1663dbe16c07836040518263ffffffff1660e01b815260040161271191906157b4565b60006040518083038186803b15801561272957600080fd5b505afa15801561273d573d6000803e3d6000fd5b505050506040513d6000823e3d601f19601f820116820180604052508101906127669190614b54565b9050919050565b600061277960036140a3565b60006127856003614095565b905060006040518061014001604052808381526020018973ffffffffffffffffffffffffffffffffffffffff1681526020018881526020013373ffffffffffffffffffffffffffffffffffffffff168152602001600073ffffffffffffffffffffffffffffffffffffffff168152602001600660009054906101000a900473ffffffffffffffffffffffffffffffffffffffff1673ffffffffffffffffffffffffffffffffffffffff16815260200187815260200186815260200186815260200160001515815250905080601960008481526020019081526020016000206000820151816000015560208201518160010160006101000a81548173ffffffffffffffffffffffffffffffffffffffff021916908373ffffffffffffffffffffffffffffffffffffffff1602179055506040820151816002015560608201518160030160006101000a81548173ffffffffffffffffffffffffffffffffffffffff021916908373ffffffffffffffffffffffffffffffffffffffff16021790555060808201518160040160006101000a81548173ffffffffffffffffffffffffffffffffffffffff021916908373ffffffffffffffffffffffffffffffffffffffff16021790555060a08201518160050160006101000a81548173ffffffffffffffffffffffffffffffffffffffff021916908373ffffffffffffffffffffffffffffffffffffffff16021790555060c0820151816006015560e0820151816007015561010082015181600801556101208201518160090160006101000a81548160ff0219169083151502179055509050508773ffffffffffffffffffffffffffffffffffffffff166323b872dd33308a6040518463ffffffff1660e01b8152600401612a139392919061533d565b600060405180830381600087803b158015612a2d57600080fd5b505af1158015612a41573d6000803e3d6000fd5b50505050612a4e84612b6a565b600660009054906101000a900473ffffffffffffffffffffffffffffffffffffffff1673ffffffffffffffffffffffffffffffffffffffff16635a9d10a23384886040518463ffffffff1660e01b8152600401612aad9392919061557a565b600060405180830381600087803b158015612ac757600080fd5b505af1158015612adb573d6000803e3d6000fd5b50505050868873ffffffffffffffffffffffffffffffffffffffff16837fedbbc6bc63aa092bba302ac98ddaafe17f6714072cb4cb7caeb89e9b31f6f4ca33600660009054906101000a900473ffffffffffffffffffffffffffffffffffffffff168b8b8c6000604051612b5496959493929190615424565b60405180910390a4819250505095945050505050565b600660009054906101000a900473ffffffffffffffffffffffffffffffffffffffff1673ffffffffffffffffffffffffffffffffffffffff166302fe5305826040518263ffffffff1660e01b8152600401612bc591906156b8565b600060405180830381600087803b158015612bdf57600080fd5b505af1158015612bf3573d6000803e3d6000fd5b5050505050565b600063bc197c8160e01b905095945050505050565b60026000541415612c55576040517f08c379a0000000000000000000000000000000000000000000000000000000008152600401612c4c906156fa565b60405180910390fd5b6002600081905550600060146000838152602001908152602001600020604051806101a0016040529081600082015481526020016001820160009054906101000a900473ffffffffffffffffffffffffffffffffffffffff1673ffffffffffffffffffffffffffffffffffffffff1673ffffffffffffffffffffffffffffffffffffffff168152602001600282015481526020016003820160009054906101000a900473ffffffffffffffffffffffffffffffffffffffff1673ffffffffffffffffffffffffffffffffffffffff1673ffffffffffffffffffffffffffffffffffffffff1681526020016004820160009054906101000a900473ffffffffffffffffffffffffffffffffffffffff1673ffffffffffffffffffffffffffffffffffffffff1673ffffffffffffffffffffffffffffffffffffffff168152602001600582015481526020016006820154815260200160078201548152602001600882015481526020016009820160009054906101000a900460ff161515151581526020016009820160019054906101000a900460ff161515151581526020016009820160029054906101000a900460ff161515151581526020016009820160039054906101000a900460ff161515151581525050905060008160a0015190506000826040015190506000836101400151905082341015612e89576040517f08c379a0000000000000000000000000000000000000000000000000000000008152600401612e80906156da565b60405180910390fd5b33846080019073ffffffffffffffffffffffffffffffffffffffff16908173ffffffffffffffffffffffffffffffffffffffff1681525050600184610120019015159081151581525050612edd60026140a3565b83601460008781526020019081526020016000206000820151816000015560208201518160010160006101000a81548173ffffffffffffffffffffffffffffffffffffffff021916908373ffffffffffffffffffffffffffffffffffffffff1602179055506040820151816002015560608201518160030160006101000a81548173ffffffffffffffffffffffffffffffffffffffff021916908373ffffffffffffffffffffffffffffffffffffffff16021790555060808201518160040160006101000a81548173ffffffffffffffffffffffffffffffffffffffff021916908373ffffffffffffffffffffffffffffffffffffffff16021790555060a0820151816005015560c0820151816006015560e0820151816007015561010082015181600801556101208201518160090160006101000a81548160ff0219169083151502179055506101408201518160090160016101000a81548160ff0219169083151502179055506101608201518160090160026101000a81548160ff0219169083151502179055506101808201518160090160036101000a81548160ff02191690831515021790555090505060156000856060015173ffffffffffffffffffffffffffffffffffffffff1673ffffffffffffffffffffffffffffffffffffffff16815260200190815260200160002085908060018154018082558091505060019003906000526020600020016000909190919091505560166000856060015173ffffffffffffffffffffffffffffffffffffffff1673ffffffffffffffffffffffffffffffffffffffff168152602001908152602001600020600081548092919061314890615bab565b9190505550601760003373ffffffffffffffffffffffffffffffffffffffff1673ffffffffffffffffffffffffffffffffffffffff168152602001908152602001600020859080600181540180825580915050600190039060005260206000200160009091909190915055836060015173ffffffffffffffffffffffffffffffffffffffff166108fc349081150290604051600060405180830381858888f193505050501580156131fd573d6000803e3d6000fd5b508015613282578573ffffffffffffffffffffffffffffffffffffffff1663f242432a303387604001518860c001516040518563ffffffff1660e01b815260040161324b94939291906153cc565b600060405180830381600087803b15801561326557600080fd5b505af1158015613279573d6000803e3d6000fd5b505050506132f2565b8573ffffffffffffffffffffffffffffffffffffffff166323b872dd3033856040518463ffffffff1660e01b81526004016132bf9392919061533d565b600060405180830381600087803b1580156132d957600080fd5b505af11580156132ed573d6000803e3d6000fd5b505050505b818673ffffffffffffffffffffffffffffffffffffffff16867ffeb04e399f6ba62d926a65372cbb5f11e3c7a9ff05e62948769d2ee5d5335b8487606001513388600160405161334594939291906152f8565b60405180910390a45050505060016000819055505050565b6000600760009054906101000a900473ffffffffffffffffffffffffffffffffffffffff1673ffffffffffffffffffffffffffffffffffffffff166378a895676040518163ffffffff1660e01b815260040160206040518083038186803b1580156133c757600080fd5b505afa1580156133db573d6000803e3d6000fd5b505050506040513d601f19601f820116820180604052508101906133ff9190614c12565b905090565b600660009054906101000a900473ffffffffffffffffffffffffffffffffffffffff1673ffffffffffffffffffffffffffffffffffffffff16635a9d10a23384846040518463ffffffff1660e01b81526004016134639392919061557a565b600060405180830381600087803b15801561347d57600080fd5b505af1158015613491573d6000803e3d6000fd5b505050505050565b6134a1614303565b60006019600084815260200190815260200160002060405180610140016040529081600082015481526020016001820160009054906101000a900473ffffffffffffffffffffffffffffffffffffffff1673ffffffffffffffffffffffffffffffffffffffff1673ffffffffffffffffffffffffffffffffffffffff168152602001600282015481526020016003820160009054906101000a900473ffffffffffffffffffffffffffffffffffffffff1673ffffffffffffffffffffffffffffffffffffffff1673ffffffffffffffffffffffffffffffffffffffff1681526020016004820160009054906101000a900473ffffffffffffffffffffffffffffffffffffffff1673ffffffffffffffffffffffffffffffffffffffff1673ffffffffffffffffffffffffffffffffffffffff1681526020016005820160009054906101000a900473ffffffffffffffffffffffffffffffffffffffff1673ffffffffffffffffffffffffffffffffffffffff1673ffffffffffffffffffffffffffffffffffffffff1681526020016006820154815260200160078201548152602001600882015481526020016009820160009054906101000a900460ff161515151581525050905080915050919050565b6000801515613680336140b9565b1515146136c2576040517f08c379a00000000000000000000000000000000000000000000000000000000081526004016136b99061573a565b60405180910390fd5b600182141561376e57600060405180604001604052806009548152602001858152509050600960008154809291906136f990615bab565b919050555080600f60003373ffffffffffffffffffffffffffffffffffffffff1673ffffffffffffffffffffffffffffffffffffffff16815260200190815260200160002060008201518160000155602082015181600101908051906020019061376492919061427d565b50905050506138ba565b600282141561381a5760006040518060400160405280600a548152602001858152509050600a60008154809291906137a590615bab565b919050555080601060003373ffffffffffffffffffffffffffffffffffffffff1673ffffffffffffffffffffffffffffffffffffffff16815260200190815260200160002060008201518160000155602082015181600101908051906020019061381092919061427d565b50905050506138b9565b60006040518060400160405280600b548152602001858152509050600b600081548092919061384890615bab565b919050555080601160003373ffffffffffffffffffffffffffffffffffffffff1673ffffffffffffffffffffffffffffffffffffffff1681526020019081526020016000206000820151816000015560208201518160010190805190602001906138b392919061427d565b50905050505b5b600e339080600181540180825580915050600190039060005260206000200160009091909190916101000a81548173ffffffffffffffffffffffffffffffffffffffff021916908373ffffffffffffffffffffffffffffffffffffffff1602179055506001905092915050565b606060006139356001614095565b90506000805b828110156139dc573373ffffffffffffffffffffffffffffffffffffffff166014600060018461396b9190615970565b815260200190815260200160002060030160009054906101000a900473ffffffffffffffffffffffffffffffffffffffff1673ffffffffffffffffffffffffffffffffffffffff1614156139c9576001826139c69190615970565b91505b80806139d490615bab565b91505061393b565b5060008167ffffffffffffffff811115613a1f577f4e487b7100000000000000000000000000000000000000000000000000000000600052604160045260246000fd5b604051908082528060200260200182016040528015613a5857816020015b613a45614194565b815260200190600190039081613a3d5790505b5090506000805b84811015613d25573373ffffffffffffffffffffffffffffffffffffffff1660146000600184613a8f9190615970565b815260200190815260200160002060030160009054906101000a900473ffffffffffffffffffffffffffffffffffffffff1673ffffffffffffffffffffffffffffffffffffffff161415613d12576000600182613aec9190615970565b9050600060146000838152602001908152602001600020604051806101a0016040529081600082015481526020016001820160009054906101000a900473ffffffffffffffffffffffffffffffffffffffff1673ffffffffffffffffffffffffffffffffffffffff1673ffffffffffffffffffffffffffffffffffffffff168152602001600282015481526020016003820160009054906101000a900473ffffffffffffffffffffffffffffffffffffffff1673ffffffffffffffffffffffffffffffffffffffff1673ffffffffffffffffffffffffffffffffffffffff1681526020016004820160009054906101000a900473ffffffffffffffffffffffffffffffffffffffff1673ffffffffffffffffffffffffffffffffffffffff1673ffffffffffffffffffffffffffffffffffffffff168152602001600582015481526020016006820154815260200160078201548152602001600882015481526020016009820160009054906101000a900460ff161515151581526020016009820160019054906101000a900460ff161515151581526020016009820160029054906101000a900460ff161515151581526020016009820160039054906101000a900460ff161515151581525050905080858581518110613cf5577f4e487b7100000000000000000000000000000000000000000000000000000000600052603260045260246000fd5b6020026020010181905250600184613d0d9190615970565b935050505b8080613d1d90615bab565b915050613a5f565b508194505050505090565b600063f23a6e6160e01b905095945050505050565b60606000821415613d8d576040518060400160405280600181526020017f30000000000000000000000000000000000000000000000000000000000000008152509050614026565b60006064905060008167ffffffffffffffff811115613dd5577f4e487b7100000000000000000000000000000000000000000000000000000000600052604160045260246000fd5b6040519080825280601f01601f191660200182016040528015613e075781602001600182028036833780820191505090505b50905060005b60008514613ebf576000600a86613e249190615c1e565b9050600a86613e3391906159c6565b9550806030613e429190615970565b60f81b838380613e5190615bab565b945081518110613e8a577f4e487b7100000000000000000000000000000000000000000000000000000000600052603260045260246000fd5b60200101907effffffffffffffffffffffffffffffffffffffffffffffffffffffffffffff1916908160001a90535050613e0d565b60008167ffffffffffffffff811115613f01577f4e487b7100000000000000000000000000000000000000000000000000000000600052604160045260246000fd5b6040519080825280601f01601f191660200182016040528015613f335781602001600182028036833780820191505090505b50905060005b82811015614017578360018285613f5091906159f7565b613f5a91906159f7565b81518110613f91577f4e487b7100000000000000000000000000000000000000000000000000000000600052603260045260246000fd5b602001015160f81c60f81b828281518110613fd5577f4e487b7100000000000000000000000000000000000000000000000000000000600052603260045260246000fd5b60200101907effffffffffffffffffffffffffffffffffffffffffffffffffffffffffffff1916908160001a905350808061400f90615bab565b915050613f39565b50600081905080955050505050505b919050565b60007f01ffc9a7000000000000000000000000000000000000000000000000000000007bffffffffffffffffffffffffffffffffffffffffffffffffffffffff1916827bffffffffffffffffffffffffffffffffffffffffffffffffffffffff1916149050919050565b600081600001549050919050565b6001816000016000828254019250508190555050565b600080600090505b600e805490508160ff161015614189578273ffffffffffffffffffffffffffffffffffffffff16600e8260ff1681548110614125577f4e487b7100000000000000000000000000000000000000000000000000000000600052603260045260246000fd5b9060005260206000200160009054906101000a900473ffffffffffffffffffffffffffffffffffffffff1673ffffffffffffffffffffffffffffffffffffffff16141561417657600191505061418f565b808061418190615bf4565b9150506140c1565b50600090505b919050565b604051806101a0016040528060008152602001600073ffffffffffffffffffffffffffffffffffffffff16815260200160008152602001600073ffffffffffffffffffffffffffffffffffffffff168152602001600073ffffffffffffffffffffffffffffffffffffffff168152602001600081526020016000815260200160008152602001600081526020016000151581526020016000151581526020016000151581526020016000151581525090565b60405180606001604052806000815260200160608152602001600073ffffffffffffffffffffffffffffffffffffffff1681525090565b82805461428990615b48565b90600052602060002090601f0160209004810192826142ab57600085556142f2565b82601f106142c457805160ff19168380011785556142f2565b828001600101855582156142f2579182015b828111156142f15782518255916020019190600101906142d6565b5b5090506142ff91906143b0565b5090565b60405180610140016040528060008152602001600073ffffffffffffffffffffffffffffffffffffffff16815260200160008152602001600073ffffffffffffffffffffffffffffffffffffffff168152602001600073ffffffffffffffffffffffffffffffffffffffff168152602001600073ffffffffffffffffffffffffffffffffffffffff1681526020016000815260200160008152602001600081526020016000151581525090565b5b808211156143c95760008160009055506001016143b1565b5090565b60006143e06143db84615832565b61580d565b905080838252602082019050828560208602820111156143ff57600080fd5b60005b8581101561442f57816144158882614670565b845260208401935060208301925050600181019050614402565b5050509392505050565b600061444c61444784615832565b61580d565b9050808382526020820190508285602086028201111561446b57600080fd5b60005b8581101561449b57816144818882614685565b84526020840193506020830192505060018101905061446e565b5050509392505050565b60006144b86144b38461585e565b61580d565b9050828152602081018484840111156144d057600080fd5b6144db848285615b06565b509392505050565b60006144f66144f18461588f565b61580d565b90508281526020810184848401111561450e57600080fd5b614519848285615b06565b509392505050565b600061453461452f8461588f565b61580d565b90508281526020810184848401111561454c57600080fd5b614557848285615b15565b509392505050565b60008135905061456e81615e0f565b92915050565b600082601f83011261458557600080fd5b81356145958482602086016143cd565b91505092915050565b600082601f8301126145af57600080fd5b81516145bf848260208601614439565b91505092915050565b6000813590506145d781615e26565b92915050565b6000813590506145ec81615e3d565b92915050565b600082601f83011261460357600080fd5b81356146138482602086016144a5565b91505092915050565b600082601f83011261462d57600080fd5b813561463d8482602086016144e3565b91505092915050565b600082601f83011261465757600080fd5b8151614667848260208601614521565b91505092915050565b60008135905061467f81615e54565b92915050565b60008151905061469481615e54565b92915050565b600080600080600060a086880312156146b257600080fd5b60006146c08882890161455f565b95505060206146d18882890161455f565b945050604086013567ffffffffffffffff8111156146ee57600080fd5b6146fa88828901614574565b935050606086013567ffffffffffffffff81111561471757600080fd5b61472388828901614574565b925050608086013567ffffffffffffffff81111561474057600080fd5b61474c888289016145f2565b9150509295509295909350565b6000806000806080858703121561476f57600080fd5b600061477d8782880161455f565b945050602061478e8782880161455f565b935050604061479f87828801614670565b925050606085013567ffffffffffffffff8111156147bc57600080fd5b6147c8878288016145f2565b91505092959194509250565b600080600080600060a086880312156147ec57600080fd5b60006147fa8882890161455f565b955050602061480b8882890161455f565b945050604061481c88828901614670565b935050606061482d88828901614670565b925050608086013567ffffffffffffffff81111561484a57600080fd5b614856888289016145f2565b9150509295509295909350565b6000806040838503121561487657600080fd5b60006148848582860161455f565b925050602083013567ffffffffffffffff8111156148a157600080fd5b6148ad8582860161461c565b9150509250929050565b600080604083850312156148ca57600080fd5b60006148d88582860161455f565b92505060206148e985828601614670565b9150509250929050565b600080600080600060a0868803121561490b57600080fd5b60006149198882890161455f565b955050602061492a88828901614670565b945050604061493b88828901614670565b935050606061494c88828901614670565b925050608086013567ffffffffffffffff81111561496957600080fd5b6149758882890161461c565b9150509295509295909350565b60008060008060008060c0878903121561499b57600080fd5b60006149a989828a0161455f565b96505060206149ba89828a01614670565b95505060406149cb89828a01614670565b94505060606149dc89828a01614670565b93505060806149ed89828a01614670565b92505060a06149fe89828a016145c8565b9150509295509295509295565b600080600080600080600060e0888a031215614a2657600080fd5b6000614a348a828b0161455f565b9750506020614a458a828b01614670565b9650506040614a568a828b01614670565b9550506060614a678a828b01614670565b9450506080614a788a828b01614670565b93505060a0614a898a828b01614670565b92505060c0614a9a8a828b016145c8565b91505092959891949750929550565b600060208284031215614abb57600080fd5b600082015167ffffffffffffffff811115614ad557600080fd5b614ae18482850161459e565b91505092915050565b600060208284031215614afc57600080fd5b6000614b0a848285016145dd565b91505092915050565b600060208284031215614b2557600080fd5b600082013567ffffffffffffffff811115614b3f57600080fd5b614b4b8482850161461c565b91505092915050565b600060208284031215614b6657600080fd5b600082015167ffffffffffffffff811115614b8057600080fd5b614b8c84828501614646565b91505092915050565b60008060408385031215614ba857600080fd5b600083013567ffffffffffffffff811115614bc257600080fd5b614bce8582860161461c565b9250506020614bdf85828601614670565b9150509250929050565b600060208284031215614bfb57600080fd5b6000614c0984828501614670565b91505092915050565b600060208284031215614c2457600080fd5b6000614c3284828501614685565b91505092915050565b60008060008060808587031215614c5157600080fd5b6000614c5f87828801614670565b945050602085013567ffffffffffffffff811115614c7c57600080fd5b614c888782880161461c565b935050604085013567ffffffffffffffff811115614ca557600080fd5b614cb18782880161461c565b925050606085013567ffffffffffffffff811115614cce57600080fd5b614cda8782880161461c565b91505092959194509250565b60008060408385031215614cf957600080fd5b6000614d0785828601614670565b9250506020614d1885828601614670565b9150509250929050565b6000614d2e8383615074565b6101a08301905092915050565b6000614d4783836152da565b60208301905092915050565b614d5c81615abe565b82525050565b614d6b81615a3d565b82525050565b614d7a81615a2b565b82525050565b614d8981615a2b565b82525050565b6000614d9a826158e0565b614da4818561591b565b9350614daf836158c0565b8060005b83811015614de0578151614dc78882614d22565b9750614dd283615901565b925050600181019050614db3565b5085935050505092915050565b6000614df8826158eb565b614e02818561592c565b9350614e0d836158d0565b8060005b83811015614e3e578151614e258882614d3b565b9750614e308361590e565b925050600181019050614e11565b5085935050505092915050565b614e5481615a4f565b82525050565b614e6381615a4f565b82525050565b614e7281615a5b565b82525050565b614e8181615ad0565b82525050565b6000614e92826158f6565b614e9c818561594e565b9350614eac818560208601615b15565b614eb581615d0b565b840191505092915050565b6000614ecb826158f6565b614ed5818561595f565b9350614ee5818560208601615b15565b614eee81615d0b565b840191505092915050565b6000614f0660028361593d565b9150614f1182615d1c565b602082019050919050565b6000614f29603c8361595f565b9150614f3482615d45565b604082019050919050565b6000614f4c601f8361595f565b9150614f5782615d94565b602082019050919050565b6000614f6f601c8361595f565b9150614f7a82615dbd565b602082019050919050565b6000614f9260178361595f565b9150614f9d82615de6565b602082019050919050565b61014082016000820151614fbf60008501826152da565b506020820151614fd26020850182614d71565b506040820151614fe560408501826152da565b506060820151614ff86060850182614d62565b50608082015161500b6080850182614d62565b5060a082015161501e60a0850182614d71565b5060c082015161503160c08501826152da565b5060e082015161504460e08501826152da565b506101008201516150596101008501826152da565b5061012082015161506e610120850182614e4b565b50505050565b6101a08201600082015161508b60008501826152da565b50602082015161509e6020850182614d71565b5060408201516150b160408501826152da565b5060608201516150c46060850182614d62565b5060808201516150d76080850182614d62565b5060a08201516150ea60a08501826152da565b5060c08201516150fd60c08501826152da565b5060e082015161511060e08501826152da565b506101008201516151256101008501826152da565b5061012082015161513a610120850182614e4b565b5061014082015161514f610140850182614e4b565b50610160820151615164610160850182614e4b565b50610180820151615179610180850182614e4b565b50505050565b6101a08201600082015161519660008501826152da565b5060208201516151a96020850182614d71565b5060408201516151bc60408501826152da565b5060608201516151cf6060850182614d62565b5060808201516151e26080850182614d62565b5060a08201516151f560a08501826152da565b5060c082015161520860c08501826152da565b5060e082015161521b60e08501826152da565b506101008201516152306101008501826152da565b50610120820151615245610120850182614e4b565b5061014082015161525a610140850182614e4b565b5061016082015161526f610160850182614e4b565b50610180820151615284610180850182614e4b565b50505050565b60006060830160008301516152a260008601826152da565b50602083015184820360208601526152ba8282614e87565b91505060408301516152cf6040860182614d71565b508091505092915050565b6152e381615aa7565b82525050565b6152f281615aa7565b82525050565b600060808201905061530d6000830187614d53565b61531a6020830186614d80565b61532760408301856152e9565b6153346060830184614e5a565b95945050505050565b60006060820190506153526000830186614d80565b61535f6020830185614d80565b61536c60408301846152e9565b949350505050565b600060a0820190506153896000830187614d80565b6153966020830186614d80565b6153a360408301856152e9565b6153b06060830184614e78565b81810360808301526153c181614ef9565b905095945050505050565b600060a0820190506153e16000830187614d80565b6153ee6020830186614d80565b6153fb60408301856152e9565b61540860608301846152e9565b818103608083015261541981614ef9565b905095945050505050565b600060c0820190506154396000830189614d80565b6154466020830188614d80565b61545360408301876152e9565b61546060608301866152e9565b61546d60808301856152e9565b61547a60a0830184614e5a565b979650505050505050565b60006101208201905061549b600083018c614d80565b6154a8602083018b6152e9565b6154b5604083018a614e78565b6154c260608301896152e9565b6154cf60808301886152e9565b6154dc60a0830187614e5a565b6154e960c0830186614e5a565b6154f660e0830185614e5a565b615504610100830184614e5a565b9a9950505050505050505050565b600060a0820190506155276000830188614d80565b61553460208301876152e9565b81810360408301526155468186614ec0565b9050818103606083015261555a8185614ec0565b9050818103608083015261556e8184614ec0565b90509695505050505050565b600060608201905061558f6000830186614d80565b61559c60208301856152e9565b6155a960408301846152e9565b949350505050565b6000610120820190506155c7600083018c614d80565b6155d4602083018b6152e9565b6155e1604083018a6152e9565b6155ee60608301896152e9565b6155fb60808301886152e9565b61560860a0830187614e5a565b61561560c0830186614e5a565b61562260e0830185614e5a565b615630610100830184614e5a565b9a9950505050505050505050565b600060208201905081810360008301526156588184614d8f565b905092915050565b6000602082019050818103600083015261567a8184614ded565b905092915050565b60006020820190506156976000830184614e5a565b92915050565b60006020820190506156b26000830184614e69565b92915050565b600060208201905081810360008301526156d28184614ec0565b905092915050565b600060208201905081810360008301526156f381614f1c565b9050919050565b6000602082019050818103600083015261571381614f3f565b9050919050565b6000602082019050818103600083015261573381614f62565b9050919050565b6000602082019050818103600083015261575381614f85565b9050919050565b6000610140820190506157706000830184614fa8565b92915050565b60006101a08201905061578c600083018461517f565b92915050565b600060208201905081810360008301526157ac818461528a565b905092915050565b60006020820190506157c960008301846152e9565b92915050565b60006060820190506157e460008301866152e9565b81810360208301526157f68185614ec0565b90506158056040830184614d80565b949350505050565b6000615817615828565b90506158238282615b7a565b919050565b6000604051905090565b600067ffffffffffffffff82111561584d5761584c615cdc565b5b602082029050602081019050919050565b600067ffffffffffffffff82111561587957615878615cdc565b5b61588282615d0b565b9050602081019050919050565b600067ffffffffffffffff8211156158aa576158a9615cdc565b5b6158b382615d0b565b9050602081019050919050565b6000819050602082019050919050565b6000819050602082019050919050565b600081519050919050565b600081519050919050565b600081519050919050565b6000602082019050919050565b6000602082019050919050565b600082825260208201905092915050565b600082825260208201905092915050565b600082825260208201905092915050565b600082825260208201905092915050565b600082825260208201905092915050565b600061597b82615aa7565b915061598683615aa7565b9250827fffffffffffffffffffffffffffffffffffffffffffffffffffffffffffffffff038211156159bb576159ba615c4f565b5b828201905092915050565b60006159d182615aa7565b91506159dc83615aa7565b9250826159ec576159eb615c7e565b5b828204905092915050565b6000615a0282615aa7565b9150615a0d83615aa7565b925082821015615a2057615a1f615c4f565b5b828203905092915050565b6000615a3682615a87565b9050919050565b6000615a4882615a87565b9050919050565b60008115159050919050565b60007fffffffff0000000000000000000000000000000000000000000000000000000082169050919050565b600073ffffffffffffffffffffffffffffffffffffffff82169050919050565b6000819050919050565b600060ff82169050919050565b6000615ac982615ae2565b9050919050565b6000615adb82615aa7565b9050919050565b6000615aed82615af4565b9050919050565b6000615aff82615a87565b9050919050565b82818337600083830152505050565b60005b83811015615b33578082015181840152602081019050615b18565b83811115615b42576000848401525b50505050565b60006002820490506001821680615b6057607f821691505b60208210811415615b7457615b73615cad565b5b50919050565b615b8382615d0b565b810181811067ffffffffffffffff82111715615ba257615ba1615cdc565b5b80604052505050565b6000615bb682615aa7565b91507fffffffffffffffffffffffffffffffffffffffffffffffffffffffffffffffff821415615be957615be8615c4f565b5b600182019050919050565b6000615bff82615ab1565b915060ff821415615c1357615c12615c4f565b5b600182019050919050565b6000615c2982615aa7565b9150615c3483615aa7565b925082615c4457615c43615c7e565b5b828206905092915050565b7f4e487b7100000000000000000000000000000000000000000000000000000000600052601160045260246000fd5b7f4e487b7100000000000000000000000000000000000000000000000000000000600052601260045260246000fd5b7f4e487b7100000000000000000000000000000000000000000000000000000000600052602260045260246000fd5b7f4e487b7100000000000000000000000000000000000000000000000000000000600052604160045260246000fd5b6000601f19601f8301169050919050565b7f5b5d000000000000000000000000000000000000000000000000000000000000600082015250565b7f4275796572206d757374207472617366657220457468657220657175616c206f60008201527f722067726561746572207468616e205072696365206f66204974656d00000000602082015250565b7f5265656e7472616e637947756172643a207265656e7472616e742063616c6c00600082015250565b7f5072696365206d757374206265206174206c6561737420312077656900000000600082015250565b7f5573657220416c72656164792072656769737465726564000000000000000000600082015250565b615e1881615a2b565b8114615e2357600080fd5b50565b615e2f81615a4f565b8114615e3a57600080fd5b50565b615e4681615a5b565b8114615e5157600080fd5b50565b615e5d81615aa7565b8114615e6857600080fd5b5056fea2646970667358221220f6bb6ef5c1dcb8233499365e9f79cacc225ed488a3c848c77a432f5bc7c2289d64736f6c63430008030033",
  "immutableReferences": {},
  "source": "pragma solidity ^0.8.3;\n// \"SPDX-License-Identifier: UNLICENSED\"\n\nimport \"./ACHouseToken1155.sol\";\nimport \"./ACHouseToken721.sol\";\n\nimport \"@openzeppelin/contracts/utils/Counters.sol\";\nimport \"@openzeppelin/contracts/security/ReentrancyGuard.sol\";\n\n\nimport \"@openzeppelin/contracts/token/ERC721/utils/ERC721Holder.sol\";\nimport \"@openzeppelin/contracts/token/ERC1155/utils/ERC1155Holder.sol\";\n\ncontract ACHouse is ReentrancyGuard, ERC1155Holder, ERC721Holder {\n  using Counters for Counters.Counter;\n  Counters.Counter private _itemIds;\n  Counters.Counter private _itemsSold;\n  Counters.Counter private _fracItemIds;\n  Counters.Counter private _ngoIds;\n\n  address owner;\n\n  ACHouseToken1155 _multiToken;\n  ACHouseToken721 _nftToken;\n\n  MarketItem[] mItems;\n\n  /** Variables and Event Emitters */\n  struct AuctionPlace {\n    uint256 id;\n    string name;\n  } \n  struct Artist {\n    uint256 id;\n    string name;\n  }\n  struct Participant {\n    uint256 id;\n    string name;\n  }\n  struct NGO {\n    uint256 id;\n    string name;\n    address charityAddress;\n  }\n\n  uint auctionPlaceCount = 0;\n  uint artistCount = 0;\n  uint participantCount = 0;\n  uint ngoCount = 0;\n  NGO[] public ngoArray;\n  address[] RegisteredUserAddresses; // might be used??\n\n  // mapping address to type\n  mapping(address => AuctionPlace) AuctionPlaceMapping;\n  mapping(address => Artist) ArtistMapping;\n  mapping(address => Participant) ParticipantMapping;\n\n  mapping(uint256 => NGO) NgoMapping;\n  // User address maps to - Chaities and the donation amount. \n  mapping(address => mapping(address => uint256)) UserNGODonation;\n\n  struct MarketItem {\n    uint itemId;\n    address nftContract;\n    uint256 tokenId;\n    address payable seller;\n    address payable owner;\n    uint256 price;\n    uint256 amount;\n    uint256 charityId;\n    uint256 auctionTime;\n    bool sold;\n    bool isMultiToken;\n    bool isRemoved;\n    bool isFrac;\n  }\n\n  mapping(uint256 => MarketItem) private idMarketItemMapping;\n  \n  //user mapping to itemSold array\n  mapping( address => uint256[]) userSoldItemMapping;\n  //user sold count mapp;\n  mapping ( address => uint256) userSoldCountMapping;\n  //user mapping to purchased item  array\n  mapping( address => uint256[]) userpurchasedItemMapping;\n  //user purchased count mapp;\n  mapping ( address => uint256) userPurchasedCountMapping;\n  \n  event MarketItemCreated(uint indexed itemId, address indexed nftContract, uint256 indexed tokenId, \n    address seller, uint256 price, uint256 amount, uint256 charityId, uint256 auctionTime, bool sold, bool isMultiToken, bool isRemoved, bool isFrac);\n  \n  event MarketItemSold(uint indexed itemId, address indexed nftContract, uint256 indexed tokenId, \n    address seller, address owner, uint256 price, bool sold);\n\n  /*******************fractionalize NFT */\n  struct FractionalizeToken {\n    uint itemId;\n    address nftContract;\n    uint256 tokenId;\n    address payable seller;\n    address payable owner;\n    address fractionalContract;\n    uint256 shardId;\n    uint256 supplyMinted;\n    uint256 supplyRemaining;\n    bool isMultiToken;\n  }\n  // id to fracToken\n  mapping(uint256 => FractionalizeToken) idToFracToken;\n  //user purchase to id to amount purchased\n  mapping (address => mapping(uint256 => uint256)) userShardPurchaseAmount;\n  \n  event FractionalTokenCreated(uint indexed itemId, address indexed nftContract, uint256 indexed tokenId, \n    address seller, address fractionalContract, uint256 shardId, uint256 supplyMinted, uint256 supplyRemaining,  bool isMultiToken);\n    \n\n  constructor(address _mToken, address _nToken) {\n    _multiToken = ACHouseToken1155(_mToken);\n    _nftToken = ACHouseToken721(_nToken);\n    \n    _multiToken.setParentAddress(address(this));\n    _nftToken.setParentAddress(address(this));\n    owner = payable(msg.sender);\n  }\n\n  function addCharity(address charityAddress, string memory name) public {\n    _ngoIds.increment();\n    uint256 id = _ngoIds.current();\n    NGO memory charity = NGO(id, name, charityAddress);\n\n    NgoMapping[id] = charity;\n  }\n\n  function getCharityInfo(uint256 _id) public view returns(NGO memory) {\n    return NgoMapping[_id];\n  }\n  \n  /***************************************************************************************************************************************/\n  /**MarketPlace functionality */\n  function create1155MarketItem(address nftContract, uint256 tokenId, uint256 price, uint256 amount, uint256 _charityId, uint256 auctionTime, bool isFrac) public payable nonReentrant returns (uint256){\n    require(price > 0, \"Price must be at least 1 wei\");\n\n    _itemIds.increment();\n    uint256 itemId = _itemIds.current();\n    \n    MarketItem memory item = MarketItem(itemId, nftContract, tokenId, payable(msg.sender), payable(address(0)), price / 1 ether, amount, _charityId, auctionTime, false, true, false, isFrac); // amount will always be 1. \n    idMarketItemMapping[itemId] = item;\n\n    IERC1155(nftContract).safeTransferFrom(msg.sender, address(this), tokenId, amount, '[]');\n\n    emit MarketItemCreated(itemId, nftContract, tokenId, msg.sender, price, amount, _charityId, auctionTime, false, true, false, isFrac);\n\n    return itemId;\n  }\n\n  function create721MarketItem(address nftContract, uint256 tokenId, uint256 price, uint256 _charityId, uint256 auctionTime, bool isFrac ) public payable nonReentrant returns (uint256){\n    // require(price > 0, \"Price must be at least 1 wei\");\n    // require(msg.value == listingPrice, \"Price must be equal to listing price\");\n\n    _itemIds.increment();\n    uint256 itemId = _itemIds.current();\n\n    MarketItem memory item = MarketItem(itemId, nftContract, tokenId, payable(msg.sender), payable(address(0)), price, 1, _charityId, auctionTime, false, true, false, isFrac); // amount will always be 1. \n    idMarketItemMapping[itemId] = item;\n\n    IERC721(nftContract).transferFrom(msg.sender, address(this), tokenId);\n\n    emit MarketItemCreated(itemId, nftContract, tokenId, msg.sender, price, 1, _charityId, auctionTime, false, false, false, isFrac);\n\n    return itemId;\n  }\n  \n  // Remove item from marketplace\n  function removeMarketPlaceItem( uint256 itemId) public {\n    idMarketItemMapping[itemId].isRemoved = true;\n  }\n  \n  // re add item to marketplace\n  function addMarketPlaceItem( uint256 itemId) public {\n    idMarketItemMapping[itemId].isRemoved = false;\n  }\n  \n  /* Creates the sale of a marketplace item */\n  /* Transfers ownership of the item, as well as funds between parties */\n  function createMarketSale(address nftContract, uint256 itemId) public payable nonReentrant {\n    \n    MarketItem memory item = idMarketItemMapping[itemId];\n    \n    uint price = item.price;\n    uint tokenId = item.tokenId;\n    bool isMultiToken = item.isMultiToken;\n    require(msg.value >= price, \"Buyer must trasfer Ether equal or greater than Price of Item\");\n\n    //set new owner inrecords.\n    item.owner = payable(msg.sender);\n    //set sold to true\n    item.sold = true;\n    //increament itemSold counter.\n    _itemsSold.increment();\n    \n    //save updated item mapping. \n    idMarketItemMapping[itemId] = item;\n\n    // mapp seller user-address to itemSold [] \n    userSoldItemMapping[item.seller].push(itemId);\n    userSoldCountMapping[item.seller]++;\n    \n    //// mapp buyer user-address to itemPurchased [] \n    userpurchasedItemMapping[msg.sender].push(itemId);\n\n    // transfer funds to seller. \n    item.seller.transfer(msg.value);\n\n    //transfer ownership to buyer.\n    if(isMultiToken){\n      IERC1155(nftContract).safeTransferFrom(address(this), msg.sender, item.tokenId, item.amount, '[]');\n    }else{\n      IERC721(nftContract).transferFrom(address(this), msg.sender, tokenId);\n    }\n\n    emit MarketItemSold( itemId, nftContract, tokenId, item.seller, msg.sender, price, true);\n  }\n\n  function fetchMarketItem(uint256 _id) public view returns(MarketItem memory){\n    return idMarketItemMapping[_id];\n  }\n\n  /* Returns all unsold market items */\n  function getUnSoldMarketItems() public view returns(MarketItem[] memory) {\n    \n    uint totalUnSoldCount = _itemIds.current() - _itemsSold.current();\n    MarketItem[] memory items = new MarketItem[] (totalUnSoldCount);\n    \n    uint unsoldCurrentIndex = 0;\n    \n    uint totalItemCount = _itemIds.current();\n      \n    for(uint i=0; i < totalItemCount; i++){\n        // only way i found to iterate through a mapping. \n        if(idMarketItemMapping[i+1].owner == address(0) && idMarketItemMapping[i+1].isRemoved == false ) { \n            uint currentID = i+1;\n\n            MarketItem memory currentItem = idMarketItemMapping[currentID];\n            items[unsoldCurrentIndex] = currentItem;\n            unsoldCurrentIndex +=1;\n        }\n    }\n    \n    return items; \n  }\n\n  /* Returns only items that a user has purchased */\n  function fetchMyNFTs() public view returns (MarketItem[] memory) {\n    \n    uint256[] memory userPurchasedIds = userpurchasedItemMapping[msg.sender];\n\n    MarketItem[] memory items = new MarketItem[](userPurchasedIds.length);\n\n    for(uint i =0; i< userPurchasedIds.length; i++){\n        items[i] = idMarketItemMapping[userPurchasedIds[i]];\n    }\n    return items;\n  }\n\n  /* Returns only items a user has created */\n  function fetchItemsCreated() public view returns (MarketItem[] memory) {\n    //get total item count - created nin MarketItem.\n    uint totalItemCount = _itemIds.current();\n    uint itemCount = 0;\n    \n    for (uint i = 0; i < totalItemCount; i++) {\n      if (idMarketItemMapping[i + 1].seller == msg.sender) {\n        itemCount += 1;\n      }\n    }\n\n    MarketItem[] memory items = new MarketItem[](itemCount);\n    uint currentIndex = 0;\n    \n    for (uint i = 0; i < totalItemCount; i++) {\n      if (idMarketItemMapping[i + 1].seller == msg.sender) {\n        uint currentId = i + 1;\n        MarketItem memory currentItem = idMarketItemMapping[currentId];\n        items[currentIndex] = currentItem;\n        currentIndex += 1;\n      }\n    }\n    return items;\n  }\n  \n  /***************************************************************************************************************************************/\n  /**Functions - Registration  */\n  function register(string memory _name, uint _userType) public returns(bool) {\n    require(isUserRegistered(msg.sender) == false, \"User Already registered\");\n\n    //userType { 1: Auction, 2: Artist, 3: Participant}\n    // register user by type\n    if (_userType == 1) {\n      AuctionPlace memory ac = AuctionPlace(auctionPlaceCount, _name);\n      auctionPlaceCount++;\n\n      AuctionPlaceMapping[msg.sender] = ac;\n    } else if (_userType == 2) {\n      Artist memory ar = Artist(artistCount, _name);\n      artistCount++;\n\n      ArtistMapping[msg.sender] = ar;\n    } else {\n      Participant memory part = Participant(participantCount, _name);\n      participantCount++;\n\n      ParticipantMapping[msg.sender] = part;\n    }\n\n    RegisteredUserAddresses.push(msg.sender);\n    return true;\n  }\n\n  /**ERC1155 functionality ***********************************************/\n  function setURI1155(string memory _uri) public {\n    _multiToken.setURI(_uri);\n  }\n\n  function getTokenURI(uint256 _tokenId) public view returns(string memory){\n    return _multiToken.getTokenURI(_tokenId);\n  }\n  // mint 1155 NFT - set supply to 1. \n  function createNFT1155(uint256 _id, uint256 _amount) public {\n    _multiToken.mintNFT(msg.sender, _id, _amount);\n  }\n\n  //get tokens totalnumber. \n  function getTokenCount() public view returns(uint256) {\n    return _multiToken.getTokenCount();\n  }\n  //returns the array of all tokenids. \n  function getTokenIds() public view returns(uint256[] memory) {\n    return _multiToken.getTokenIds();\n  }\n\n  function getTokenSupply(uint256 _tokenId) public view returns(uint256) {\n    return _multiToken.getTotalSupplyOfToken(_tokenId);\n  }\n\n  /*************Fractional NFT */\n\n  //hold NFT and trasnfer ownership to ACHouse. \n  // ACHouse will mint 1155 then set it to orig owner of nft. \n  function fractionalize1155NFT(address nftContract, uint256 tokenId, uint256 shardId, uint256 supplyToCreate, string memory uri) public returns (uint256) {\n    _fracItemIds.increment();\n    uint fracId = _fracItemIds.current();\n\n    FractionalizeToken memory fracItem = FractionalizeToken(fracId, nftContract, tokenId, payable(msg.sender), \n      payable(address(0)), address(_multiToken), shardId, supplyToCreate, supplyToCreate, true); // supplyMinted and SupplyRemaining will be set as same for now. \n    \n    idToFracToken[fracId] = fracItem;\n\n    //get ownership of nftContract and its token.\n    IERC1155(nftContract).safeTransferFrom(msg.sender, address(this), tokenId, 1, '[]');\n    \n    //Mint 1155 fungible tokens. \n    setURI1155(uri); // call functiont to set uRL in 1155 token\n    _multiToken.mintNFT(msg.sender, fracId, supplyToCreate); //shard tokens created and ownership set to msg.sender ( person who decided to frac nft.)\n    \n    emit FractionalTokenCreated(fracId, nftContract, tokenId, msg.sender, address(_multiToken), shardId, supplyToCreate, supplyToCreate, true);\n    \n    return fracId;\n    \n    \n  }\n\n  function fractionalize721NFT(address nftContract, uint256 tokenId, uint256 shardId, uint256 supplyToCreate, string memory uri) public returns (uint256) {\n    _fracItemIds.increment();\n    uint fracId = _fracItemIds.current();\n    \n     FractionalizeToken memory fracItem = FractionalizeToken(fracId, nftContract, tokenId, payable(msg.sender), \n      payable(address(0)), address(_multiToken), shardId, supplyToCreate, supplyToCreate, false); // supplyMinted and SupplyRemaining will be set as same for now. \n    \n    idToFracToken[fracId] = fracItem;\n\n    //get ownership of nftContract and its token.\n    IERC721(nftContract).transferFrom(msg.sender, address(this), tokenId);\n\n    //Mint 1155 fungible tokens.\n    setURI1155(uri); // call functiont to set uRL in 1155 token\n    _multiToken.mintNFT(msg.sender, fracId, supplyToCreate); //shard tokens created and ownership set to msg.sender ( person who decided to frac nft.)\n    \n    emit FractionalTokenCreated(fracId, nftContract, tokenId, msg.sender, address(_multiToken), shardId, supplyToCreate, supplyToCreate, false);\n    \n    return fracId;\n  }\n\n  function getFractionalInformation(uint256 _fracId) public view returns (FractionalizeToken memory ){\n      \n      FractionalizeToken memory item = idToFracToken[_fracId];\n      \n      return item;\n  }\n  \n  /**ERC721 functionzlity *************************************************/\n  // mint 721 NFT - set supply to 1. \n  function createNFT721(uint256 _id, string memory uri, string memory name, string memory symbol) public {\n    _nftToken.mintNFT(msg.sender, _id, uri, name, symbol);\n  }\n\n  //get tokens totalnumber. \n  function get721TokenCount() public view returns(uint256) {\n    return _nftToken.getTokenCount();\n  }\n  //returns the array of all tokenids. \n  function get721TokenIds() public view returns(uint256[] memory) {\n    return _nftToken.getTokenIds();\n  }\n\n  function get721TokenName(uint256 _id) public view returns(string memory){\n    return _nftToken.getTokenName(_id);\n  }\n\n  function get721TokenSymbol(uint256 _id) public view returns(string memory){\n    return _nftToken.getTokenSymbol(_id);\n  }\n\n  function get721TokenURI(uint256 _id) public view returns(string memory) {\n    return _nftToken.getTokenUri(_id);\n  }\n\n  /**Helpers */\n  function isUserRegistered(address _address) internal view returns(bool) {\n    for (uint8 j = 0; j < RegisteredUserAddresses.length; j++) {\n      if (RegisteredUserAddresses[j] == _address) {\n        return (true); // user is registered.\n      }\n    }\n    return (false); // user is not registered.\n  }\n  \n   function uint2str(uint v) public pure returns (string memory) {\n        if(v == 0){\n            return '0';\n        }\n        uint maxlength = 100;\n        bytes memory reversed = new bytes(maxlength);\n        uint i = 0;\n        while (v != 0) {\n            uint remainder = v % 10;\n            v = v / 10;\n            reversed[i++] = bytes1(uint8(48 + remainder));\n        }\n        bytes memory s = new bytes(i); // i + 1 is inefficient\n        for (uint j = 0; j < i; j++) {\n            s[j] = reversed[i - j - 1]; // to avoid the off-by-one error\n        }\n        string memory str = string(s);  // memory isn't implicitly convertible to storage\n        return str;\n    }\n  \n}",
  "sourcePath": "/home/dinesh/Projects/EthOnline/contracts/ACHouse.sol",
  "compiler": {
    "name": "solc",
    "version": "0.8.3+commit.8d00100c.Emscripten.clang"
  },
  "schemaVersion": "3.3.4",
  "updatedAt": "2021-10-22T22:56:46.732Z",
  "devdoc": {
    "kind": "dev",
    "methods": {
      "onERC721Received(address,address,uint256,bytes)": {
        "details": "See {IERC721Receiver-onERC721Received}. Always returns `IERC721Receiver.onERC721Received.selector`."
      },
      "supportsInterface(bytes4)": {
        "details": "See {IERC165-supportsInterface}."
      }
    },
    "version": 1
  },
  "userdoc": {
    "kind": "user",
    "methods": {
      "create1155MarketItem(address,uint256,uint256,uint256,uint256,uint256,bool)": {
        "notice": "MarketPlace functionality "
      },
      "createNFT721(uint256,string,string,string)": {
        "notice": "ERC721 functionzlity ************************************************"
      },
      "register(string,uint256)": {
        "notice": "Functions - Registration  "
      },
      "setURI1155(string)": {
        "notice": "ERC1155 functionality **********************************************"
      }
    },
    "version": 1
  }
}