{
  "contractName": "ACHouse",
  "abi": [
    {
      "inputs": [
        {
          "internalType": "address",
          "name": "_mToken",
          "type": "address"
        },
        {
          "internalType": "address",
          "name": "_nToken",
          "type": "address"
        }
      ],
      "stateMutability": "nonpayable",
      "type": "constructor"
    },
    {
      "anonymous": false,
      "inputs": [
        {
          "indexed": true,
          "internalType": "uint256",
          "name": "itemId",
          "type": "uint256"
        },
        {
          "indexed": true,
          "internalType": "address",
          "name": "nftContract",
          "type": "address"
        },
        {
          "indexed": true,
          "internalType": "uint256",
          "name": "tokenId",
          "type": "uint256"
        },
        {
          "indexed": false,
          "internalType": "address",
          "name": "seller",
          "type": "address"
        },
        {
          "indexed": false,
          "internalType": "address",
          "name": "owner",
          "type": "address"
        },
        {
          "indexed": false,
          "internalType": "uint256",
          "name": "price",
          "type": "uint256"
        },
        {
          "indexed": false,
          "internalType": "uint256",
          "name": "amount",
          "type": "uint256"
        },
        {
          "indexed": false,
          "internalType": "bool",
          "name": "sold",
          "type": "bool"
        },
        {
          "indexed": false,
          "internalType": "bool",
          "name": "isMultiToken",
          "type": "bool"
        }
      ],
      "name": "MarketItemCreated",
      "type": "event"
    },
    {
      "anonymous": false,
      "inputs": [
        {
          "indexed": true,
          "internalType": "uint256",
          "name": "itemId",
          "type": "uint256"
        },
        {
          "indexed": true,
          "internalType": "address",
          "name": "nftContract",
          "type": "address"
        },
        {
          "indexed": true,
          "internalType": "uint256",
          "name": "tokenId",
          "type": "uint256"
        },
        {
          "indexed": false,
          "internalType": "address",
          "name": "seller",
          "type": "address"
        },
        {
          "indexed": false,
          "internalType": "address",
          "name": "owner",
          "type": "address"
        },
        {
          "indexed": false,
          "internalType": "uint256",
          "name": "price",
          "type": "uint256"
        },
        {
          "indexed": false,
          "internalType": "bool",
          "name": "sold",
          "type": "bool"
        }
      ],
      "name": "MarketItemSold",
      "type": "event"
    },
    {
      "inputs": [
        {
          "internalType": "uint256",
          "name": "",
          "type": "uint256"
        }
      ],
      "name": "ngoArray",
      "outputs": [
        {
          "internalType": "uint256",
          "name": "id",
          "type": "uint256"
        },
        {
          "internalType": "string",
          "name": "name",
          "type": "string"
        }
      ],
      "stateMutability": "view",
      "type": "function"
    },
    {
      "inputs": [
        {
          "internalType": "address",
          "name": "",
          "type": "address"
        },
        {
          "internalType": "address",
          "name": "",
          "type": "address"
        },
        {
          "internalType": "uint256[]",
          "name": "",
          "type": "uint256[]"
        },
        {
          "internalType": "uint256[]",
          "name": "",
          "type": "uint256[]"
        },
        {
          "internalType": "bytes",
          "name": "",
          "type": "bytes"
        }
      ],
      "name": "onERC1155BatchReceived",
      "outputs": [
        {
          "internalType": "bytes4",
          "name": "",
          "type": "bytes4"
        }
      ],
      "stateMutability": "nonpayable",
      "type": "function"
    },
    {
      "inputs": [
        {
          "internalType": "address",
          "name": "",
          "type": "address"
        },
        {
          "internalType": "address",
          "name": "",
          "type": "address"
        },
        {
          "internalType": "uint256",
          "name": "",
          "type": "uint256"
        },
        {
          "internalType": "uint256",
          "name": "",
          "type": "uint256"
        },
        {
          "internalType": "bytes",
          "name": "",
          "type": "bytes"
        }
      ],
      "name": "onERC1155Received",
      "outputs": [
        {
          "internalType": "bytes4",
          "name": "",
          "type": "bytes4"
        }
      ],
      "stateMutability": "nonpayable",
      "type": "function"
    },
    {
      "inputs": [
        {
          "internalType": "address",
          "name": "",
          "type": "address"
        },
        {
          "internalType": "address",
          "name": "",
          "type": "address"
        },
        {
          "internalType": "uint256",
          "name": "",
          "type": "uint256"
        },
        {
          "internalType": "bytes",
          "name": "",
          "type": "bytes"
        }
      ],
      "name": "onERC721Received",
      "outputs": [
        {
          "internalType": "bytes4",
          "name": "",
          "type": "bytes4"
        }
      ],
      "stateMutability": "nonpayable",
      "type": "function"
    },
    {
      "inputs": [
        {
          "internalType": "bytes4",
          "name": "interfaceId",
          "type": "bytes4"
        }
      ],
      "name": "supportsInterface",
      "outputs": [
        {
          "internalType": "bool",
          "name": "",
          "type": "bool"
        }
      ],
      "stateMutability": "view",
      "type": "function"
    },
    {
      "inputs": [
        {
          "internalType": "address",
          "name": "nftContract",
          "type": "address"
        },
        {
          "internalType": "uint256",
          "name": "tokenId",
          "type": "uint256"
        },
        {
          "internalType": "uint256",
          "name": "price",
          "type": "uint256"
        },
        {
          "internalType": "uint256",
          "name": "amount",
          "type": "uint256"
        }
      ],
      "name": "create1155MarketItem",
      "outputs": [],
      "stateMutability": "payable",
      "type": "function"
    },
    {
      "inputs": [
        {
          "internalType": "address",
          "name": "nftContract",
          "type": "address"
        },
        {
          "internalType": "uint256",
          "name": "tokenId",
          "type": "uint256"
        },
        {
          "internalType": "uint256",
          "name": "price",
          "type": "uint256"
        }
      ],
      "name": "create721MarketItem",
      "outputs": [],
      "stateMutability": "payable",
      "type": "function"
    },
    {
      "inputs": [
        {
          "internalType": "uint256",
          "name": "itemId",
          "type": "uint256"
        }
      ],
      "name": "removeMarketPlaceItem",
      "outputs": [],
      "stateMutability": "nonpayable",
      "type": "function"
    },
    {
      "inputs": [
        {
          "internalType": "uint256",
          "name": "itemId",
          "type": "uint256"
        }
      ],
      "name": "addMarketPlaceItem",
      "outputs": [],
      "stateMutability": "nonpayable",
      "type": "function"
    },
    {
      "inputs": [
        {
          "internalType": "address",
          "name": "nftContract",
          "type": "address"
        },
        {
          "internalType": "uint256",
          "name": "itemId",
          "type": "uint256"
        }
      ],
      "name": "createMarketSale",
      "outputs": [],
      "stateMutability": "payable",
      "type": "function"
    },
    {
      "inputs": [],
      "name": "fetchUnSoldMarketItems",
      "outputs": [
        {
          "components": [
            {
              "internalType": "uint256",
              "name": "itemId",
              "type": "uint256"
            },
            {
              "internalType": "address",
              "name": "nftContract",
              "type": "address"
            },
            {
              "internalType": "uint256",
              "name": "tokenId",
              "type": "uint256"
            },
            {
              "internalType": "address payable",
              "name": "seller",
              "type": "address"
            },
            {
              "internalType": "address payable",
              "name": "owner",
              "type": "address"
            },
            {
              "internalType": "uint256",
              "name": "price",
              "type": "uint256"
            },
            {
              "internalType": "uint256",
              "name": "amount",
              "type": "uint256"
            },
            {
              "internalType": "bool",
              "name": "sold",
              "type": "bool"
            },
            {
              "internalType": "bool",
              "name": "isMultiToken",
              "type": "bool"
            },
            {
              "internalType": "bool",
              "name": "isRemoved",
              "type": "bool"
            }
          ],
          "internalType": "struct ACHouse.MarketItem[]",
          "name": "",
          "type": "tuple[]"
        }
      ],
      "stateMutability": "view",
      "type": "function"
    },
    {
      "inputs": [],
      "name": "fetchMyNFTs",
      "outputs": [
        {
          "components": [
            {
              "internalType": "uint256",
              "name": "itemId",
              "type": "uint256"
            },
            {
              "internalType": "address",
              "name": "nftContract",
              "type": "address"
            },
            {
              "internalType": "uint256",
              "name": "tokenId",
              "type": "uint256"
            },
            {
              "internalType": "address payable",
              "name": "seller",
              "type": "address"
            },
            {
              "internalType": "address payable",
              "name": "owner",
              "type": "address"
            },
            {
              "internalType": "uint256",
              "name": "price",
              "type": "uint256"
            },
            {
              "internalType": "uint256",
              "name": "amount",
              "type": "uint256"
            },
            {
              "internalType": "bool",
              "name": "sold",
              "type": "bool"
            },
            {
              "internalType": "bool",
              "name": "isMultiToken",
              "type": "bool"
            },
            {
              "internalType": "bool",
              "name": "isRemoved",
              "type": "bool"
            }
          ],
          "internalType": "struct ACHouse.MarketItem[]",
          "name": "",
          "type": "tuple[]"
        }
      ],
      "stateMutability": "view",
      "type": "function"
    },
    {
      "inputs": [],
      "name": "fetchItemsCreated",
      "outputs": [
        {
          "components": [
            {
              "internalType": "uint256",
              "name": "itemId",
              "type": "uint256"
            },
            {
              "internalType": "address",
              "name": "nftContract",
              "type": "address"
            },
            {
              "internalType": "uint256",
              "name": "tokenId",
              "type": "uint256"
            },
            {
              "internalType": "address payable",
              "name": "seller",
              "type": "address"
            },
            {
              "internalType": "address payable",
              "name": "owner",
              "type": "address"
            },
            {
              "internalType": "uint256",
              "name": "price",
              "type": "uint256"
            },
            {
              "internalType": "uint256",
              "name": "amount",
              "type": "uint256"
            },
            {
              "internalType": "bool",
              "name": "sold",
              "type": "bool"
            },
            {
              "internalType": "bool",
              "name": "isMultiToken",
              "type": "bool"
            },
            {
              "internalType": "bool",
              "name": "isRemoved",
              "type": "bool"
            }
          ],
          "internalType": "struct ACHouse.MarketItem[]",
          "name": "",
          "type": "tuple[]"
        }
      ],
      "stateMutability": "view",
      "type": "function"
    },
    {
      "inputs": [
        {
          "internalType": "string",
          "name": "_name",
          "type": "string"
        },
        {
          "internalType": "uint256",
          "name": "_userType",
          "type": "uint256"
        }
      ],
      "name": "register",
      "outputs": [
        {
          "internalType": "bool",
          "name": "",
          "type": "bool"
        }
      ],
      "stateMutability": "nonpayable",
      "type": "function"
    },
    {
      "inputs": [
        {
          "internalType": "string",
          "name": "_uri",
          "type": "string"
        }
      ],
      "name": "setURI1155",
      "outputs": [],
      "stateMutability": "nonpayable",
      "type": "function"
    },
    {
      "inputs": [
        {
          "internalType": "uint256",
          "name": "_id",
          "type": "uint256"
        },
        {
          "internalType": "uint256",
          "name": "_amount",
          "type": "uint256"
        }
      ],
      "name": "createNFT1155",
      "outputs": [],
      "stateMutability": "nonpayable",
      "type": "function"
    },
    {
      "inputs": [],
      "name": "getTokenCount",
      "outputs": [
        {
          "internalType": "uint256",
          "name": "",
          "type": "uint256"
        }
      ],
      "stateMutability": "view",
      "type": "function"
    },
    {
      "inputs": [],
      "name": "getTokenIds",
      "outputs": [
        {
          "internalType": "uint256[]",
          "name": "",
          "type": "uint256[]"
        }
      ],
      "stateMutability": "view",
      "type": "function"
    }
  ],
  "bytecode": "0x608060405260006006556000600755600060085560006009553480156200002557600080fd5b50604051620037de380380620037de83398181016040528101906200004b919062000135565b600160008190555081600460006101000a81548173ffffffffffffffffffffffffffffffffffffffff021916908373ffffffffffffffffffffffffffffffffffffffff16021790555080600560006101000a81548173ffffffffffffffffffffffffffffffffffffffff021916908373ffffffffffffffffffffffffffffffffffffffff16021790555033600360006101000a81548173ffffffffffffffffffffffffffffffffffffffff021916908373ffffffffffffffffffffffffffffffffffffffff1602179055505050620001c4565b6000815190506200012f81620001aa565b92915050565b600080604083850312156200014957600080fd5b600062000159858286016200011e565b92505060206200016c858286016200011e565b9150509250929050565b600062000183826200018a565b9050919050565b600073ffffffffffffffffffffffffffffffffffffffff82169050919050565b620001b58162000176565b8114620001c157600080fd5b50565b61360a80620001d46000396000f3fe6080604052600436106101095760003560e01c806393e1938311610095578063c23b139e11610064578063c23b139e14610362578063dce9fc111461037e578063ea87152b146103a7578063f064c32e146103e4578063f23a6e611461040f57610109565b806393e19383146102a25780639c79afb3146102be578063af8e6c39146102fc578063bc197c811461032557610109565b8063382edbcf116100dc578063382edbcf146101dc5780633e52a1651461020757806367f718a91461023057806378a895671461025b5780639240ccae1461028657610109565b806301ffc9a71461010e578063145eca8c1461014b578063150b7a0214610174578063202e3740146101b1575b600080fd5b34801561011a57600080fd5b5061013560048036038101906101309190612976565b61044c565b6040516101429190612fc4565b60405180910390f35b34801561015757600080fd5b50610172600480360381019061016d9190612a34565b6104c6565b005b34801561018057600080fd5b5061019b6004803603810190610196919061273d565b6104f8565b6040516101a89190612fdf565b60405180910390f35b3480156101bd57600080fd5b506101c661050c565b6040516101d39190612f80565b60405180910390f35b3480156101e857600080fd5b506101f1610865565b6040516101fe9190612f80565b60405180910390f35b34801561021357600080fd5b5061022e60048036038101906102299190612a34565b610bf5565b005b34801561023c57600080fd5b50610245610c27565b6040516102529190612fa2565b60405180910390f35b34801561026757600080fd5b50610270610cd3565b60405161027d919061305c565b60405180910390f35b6102a0600480360381019061029b91906128d2565b610d7a565b005b6102bc60048036038101906102b79190612883565b6110ca565b005b3480156102ca57600080fd5b506102e560048036038101906102e09190612a34565b611418565b6040516102f3929190613077565b60405180910390f35b34801561030857600080fd5b50610323600480360381019061031e919061299f565b6114d4565b005b34801561033157600080fd5b5061034c6004803603810190610347919061267e565b611564565b6040516103599190612fdf565b60405180910390f35b61037c60048036038101906103779190612847565b611579565b005b34801561038a57600080fd5b506103a560048036038101906103a09190612a86565b611a4e565b005b3480156103b357600080fd5b506103ce60048036038101906103c991906129e0565b611ae3565b6040516103db9190612fc4565b60405180910390f35b3480156103f057600080fd5b506103f9611d98565b6040516104069190612f80565b60405180910390f35b34801561041b57600080fd5b50610436600480360381019061043191906127b8565b612172565b6040516104439190612fdf565b60405180910390f35b60007f4e2312e0000000000000000000000000000000000000000000000000000000007bffffffffffffffffffffffffffffffffffffffffffffffffffffffff1916827bffffffffffffffffffffffffffffffffffffffffffffffffffffffff191614806104bf57506104be82612187565b5b9050919050565b60016011600083815260200190815260200160002060070160026101000a81548160ff02191690831515021790555050565b600063150b7a0260e01b9050949350505050565b60606000601460003373ffffffffffffffffffffffffffffffffffffffff1673ffffffffffffffffffffffffffffffffffffffff16815260200190815260200160002080548060200260200160405190810160405280929190818152602001828054801561059957602002820191906000526020600020905b815481526020019060010190808311610585575b505050505090506000815167ffffffffffffffff8111156105e3577f4e487b7100000000000000000000000000000000000000000000000000000000600052604160045260246000fd5b60405190808252806020026020018201604052801561061c57816020015b6106096122f0565b8152602001906001900390816106015790505b50905060005b825181101561085c5760116000848381518110610668577f4e487b7100000000000000000000000000000000000000000000000000000000600052603260045260246000fd5b6020026020010151815260200190815260200160002060405180610140016040529081600082015481526020016001820160009054906101000a900473ffffffffffffffffffffffffffffffffffffffff1673ffffffffffffffffffffffffffffffffffffffff1673ffffffffffffffffffffffffffffffffffffffff168152602001600282015481526020016003820160009054906101000a900473ffffffffffffffffffffffffffffffffffffffff1673ffffffffffffffffffffffffffffffffffffffff1673ffffffffffffffffffffffffffffffffffffffff1681526020016004820160009054906101000a900473ffffffffffffffffffffffffffffffffffffffff1673ffffffffffffffffffffffffffffffffffffffff1673ffffffffffffffffffffffffffffffffffffffff16815260200160058201548152602001600682015481526020016007820160009054906101000a900460ff161515151581526020016007820160019054906101000a900460ff161515151581526020016007820160029054906101000a900460ff16151515158152505082828151811061083e577f4e487b7100000000000000000000000000000000000000000000000000000000600052603260045260246000fd5b6020026020010181905250808061085490613403565b915050610622565b50809250505090565b6060600061087360026121f1565b61087d60016121f1565b610887919061324f565b905060008167ffffffffffffffff8111156108cb577f4e487b7100000000000000000000000000000000000000000000000000000000600052604160045260246000fd5b60405190808252806020026020018201604052801561090457816020015b6108f16122f0565b8152602001906001900390816108e95790505b50905060008061091460016121f1565b905060005b81811015610bea57600073ffffffffffffffffffffffffffffffffffffffff166011600060018461094a91906131f9565b815260200190815260200160002060040160009054906101000a900473ffffffffffffffffffffffffffffffffffffffff1673ffffffffffffffffffffffffffffffffffffffff161480156109d2575060001515601160006001846109af91906131f9565b815260200190815260200160002060070160029054906101000a900460ff161515145b15610bd75760006001826109e691906131f9565b90506011600082815260200190815260200160002060405180610140016040529081600082015481526020016001820160009054906101000a900473ffffffffffffffffffffffffffffffffffffffff1673ffffffffffffffffffffffffffffffffffffffff1673ffffffffffffffffffffffffffffffffffffffff168152602001600282015481526020016003820160009054906101000a900473ffffffffffffffffffffffffffffffffffffffff1673ffffffffffffffffffffffffffffffffffffffff1673ffffffffffffffffffffffffffffffffffffffff1681526020016004820160009054906101000a900473ffffffffffffffffffffffffffffffffffffffff1673ffffffffffffffffffffffffffffffffffffffff1673ffffffffffffffffffffffffffffffffffffffff16815260200160058201548152602001600682015481526020016007820160009054906101000a900460ff161515151581526020016007820160019054906101000a900460ff161515151581526020016007820160029054906101000a900460ff161515151581525050858581518110610bbb577f4e487b7100000000000000000000000000000000000000000000000000000000600052603260045260246000fd5b6020026020010181905250600184610bd391906131f9565b9350505b8080610be290613403565b915050610919565b508294505050505090565b60006011600083815260200190815260200160002060070160026101000a81548160ff02191690831515021790555050565b6060600460009054906101000a900473ffffffffffffffffffffffffffffffffffffffff1673ffffffffffffffffffffffffffffffffffffffff166367f718a96040518163ffffffff1660e01b815260040160006040518083038186803b158015610c9157600080fd5b505afa158015610ca5573d6000803e3d6000fd5b505050506040513d6000823e3d601f19601f82011682018060405250810190610cce9190612935565b905090565b6000600460009054906101000a900473ffffffffffffffffffffffffffffffffffffffff1673ffffffffffffffffffffffffffffffffffffffff166378a895676040518163ffffffff1660e01b815260040160206040518083038186803b158015610d3d57600080fd5b505afa158015610d51573d6000803e3d6000fd5b505050506040513d601f19601f82011682018060405250810190610d759190612a5d565b905090565b60026000541415610dc0576040517f08c379a0000000000000000000000000000000000000000000000000000000008152600401610db79061301c565b60405180910390fd5b6002600081905550610dd260016121ff565b6000610dde60016121f1565b905060006040518061014001604052808381526020018773ffffffffffffffffffffffffffffffffffffffff1681526020018681526020013373ffffffffffffffffffffffffffffffffffffffff168152602001600073ffffffffffffffffffffffffffffffffffffffff16815260200185815260200184815260200160001515815260200160011515815260200160001515815250905080601160008481526020019081526020016000206000820151816000015560208201518160010160006101000a81548173ffffffffffffffffffffffffffffffffffffffff021916908373ffffffffffffffffffffffffffffffffffffffff1602179055506040820151816002015560608201518160030160006101000a81548173ffffffffffffffffffffffffffffffffffffffff021916908373ffffffffffffffffffffffffffffffffffffffff16021790555060808201518160040160006101000a81548173ffffffffffffffffffffffffffffffffffffffff021916908373ffffffffffffffffffffffffffffffffffffffff16021790555060a0820151816005015560c0820151816006015560e08201518160070160006101000a81548160ff0219169083151502179055506101008201518160070160016101000a81548160ff0219169083151502179055506101208201518160070160026101000a81548160ff0219169083151502179055509050508573ffffffffffffffffffffffffffffffffffffffff1663f242432a333088876040518563ffffffff1660e01b815260040161102b9493929190612ef1565b600060405180830381600087803b15801561104557600080fd5b505af1158015611059573d6000803e3d6000fd5b50505050848673ffffffffffffffffffffffffffffffffffffffff16837fecbc33f6e1b7df72a609c0b81c4cdbe2b2b609ec99b99618c5f4dd8839b2ae063360008989600060016040516110b296959493929190612e90565b60405180910390a45050600160008190555050505050565b60026000541415611110576040517f08c379a00000000000000000000000000000000000000000000000000000000081526004016111079061301c565b60405180910390fd5b600260008190555061112260016121ff565b600061112e60016121f1565b905060006040518061014001604052808381526020018673ffffffffffffffffffffffffffffffffffffffff1681526020018581526020013373ffffffffffffffffffffffffffffffffffffffff168152602001600073ffffffffffffffffffffffffffffffffffffffff1681526020018481526020016001815260200160001515815260200160011515815260200160001515815250905080601160008481526020019081526020016000206000820151816000015560208201518160010160006101000a81548173ffffffffffffffffffffffffffffffffffffffff021916908373ffffffffffffffffffffffffffffffffffffffff1602179055506040820151816002015560608201518160030160006101000a81548173ffffffffffffffffffffffffffffffffffffffff021916908373ffffffffffffffffffffffffffffffffffffffff16021790555060808201518160040160006101000a81548173ffffffffffffffffffffffffffffffffffffffff021916908373ffffffffffffffffffffffffffffffffffffffff16021790555060a0820151816005015560c0820151816006015560e08201518160070160006101000a81548160ff0219169083151502179055506101008201518160070160016101000a81548160ff0219169083151502179055506101208201518160070160026101000a81548160ff0219169083151502179055509050508473ffffffffffffffffffffffffffffffffffffffff166323b872dd3330876040518463ffffffff1660e01b815260040161137a93929190612df8565b600060405180830381600087803b15801561139457600080fd5b505af11580156113a8573d6000803e3d6000fd5b50505050838573ffffffffffffffffffffffffffffffffffffffff16837fecbc33f6e1b7df72a609c0b81c4cdbe2b2b609ec99b99618c5f4dd8839b2ae0633600088600160008060405161140196959493929190612e2f565b60405180910390a450506001600081905550505050565b600a818154811061142857600080fd5b9060005260206000209060020201600091509050806000015490806001018054611451906133a0565b80601f016020809104026020016040519081016040528092919081815260200182805461147d906133a0565b80156114ca5780601f1061149f576101008083540402835291602001916114ca565b820191906000526020600020905b8154815290600101906020018083116114ad57829003601f168201915b5050505050905082565b600460009054906101000a900473ffffffffffffffffffffffffffffffffffffffff1673ffffffffffffffffffffffffffffffffffffffff166302fe5305826040518263ffffffff1660e01b815260040161152f9190612ffa565b600060405180830381600087803b15801561154957600080fd5b505af115801561155d573d6000803e3d6000fd5b5050505050565b600063bc197c8160e01b905095945050505050565b600260005414156115bf576040517f08c379a00000000000000000000000000000000000000000000000000000000081526004016115b69061301c565b60405180910390fd5b600260008190555060006011600083815260200190815260200160002060405180610140016040529081600082015481526020016001820160009054906101000a900473ffffffffffffffffffffffffffffffffffffffff1673ffffffffffffffffffffffffffffffffffffffff1673ffffffffffffffffffffffffffffffffffffffff168152602001600282015481526020016003820160009054906101000a900473ffffffffffffffffffffffffffffffffffffffff1673ffffffffffffffffffffffffffffffffffffffff1673ffffffffffffffffffffffffffffffffffffffff1681526020016004820160009054906101000a900473ffffffffffffffffffffffffffffffffffffffff1673ffffffffffffffffffffffffffffffffffffffff1673ffffffffffffffffffffffffffffffffffffffff16815260200160058201548152602001600682015481526020016007820160009054906101000a900460ff161515151581526020016007820160019054906101000a900460ff161515151581526020016007820160029054906101000a900460ff161515151581525050905060008160a00151905060008260400151905060008361010001519050836060015173ffffffffffffffffffffffffffffffffffffffff166108fc349081150290604051600060405180830381858888f193505050501580156117cb573d6000803e3d6000fd5b508015611850578573ffffffffffffffffffffffffffffffffffffffff1663f242432a303387604001518860c001516040518563ffffffff1660e01b81526004016118199493929190612ef1565b600060405180830381600087803b15801561183357600080fd5b505af1158015611847573d6000803e3d6000fd5b505050506118c0565b8573ffffffffffffffffffffffffffffffffffffffff166323b872dd3033856040518463ffffffff1660e01b815260040161188d93929190612df8565b600060405180830381600087803b1580156118a757600080fd5b505af11580156118bb573d6000803e3d6000fd5b505050505b33846080019073ffffffffffffffffffffffffffffffffffffffff16908173ffffffffffffffffffffffffffffffffffffffff168152505060018460e001901515908115158152505061191360026121ff565b60126000856060015173ffffffffffffffffffffffffffffffffffffffff1673ffffffffffffffffffffffffffffffffffffffff168152602001908152602001600020859080600181540180825580915050600190039060005260206000200160009091909190915055601460003373ffffffffffffffffffffffffffffffffffffffff1673ffffffffffffffffffffffffffffffffffffffff168152602001908152602001600020859080600181540180825580915050600190039060005260206000200160009091909190915055818673ffffffffffffffffffffffffffffffffffffffff16867ffeb04e399f6ba62d926a65372cbb5f11e3c7a9ff05e62948769d2ee5d5335b84876060015133886001604051611a369493929190612db3565b60405180910390a45050505060016000819055505050565b600460009054906101000a900473ffffffffffffffffffffffffffffffffffffffff1673ffffffffffffffffffffffffffffffffffffffff16635a9d10a23384846040518463ffffffff1660e01b8152600401611aad93929190612f49565b600060405180830381600087803b158015611ac757600080fd5b505af1158015611adb573d6000803e3d6000fd5b505050505050565b6000801515611af133612215565b151514611b33576040517f08c379a0000000000000000000000000000000000000000000000000000000008152600401611b2a9061303c565b60405180910390fd5b6001821415611bdf5760006040518060400160405280600654815260200185815250905060066000815480929190611b6a90613403565b919050555080600c60003373ffffffffffffffffffffffffffffffffffffffff1673ffffffffffffffffffffffffffffffffffffffff168152602001908152602001600020600082015181600001556020820151816001019080519060200190611bd592919061238b565b5090505050611d2b565b6002821415611c8b5760006040518060400160405280600754815260200185815250905060076000815480929190611c1690613403565b919050555080600d60003373ffffffffffffffffffffffffffffffffffffffff1673ffffffffffffffffffffffffffffffffffffffff168152602001908152602001600020600082015181600001556020820151816001019080519060200190611c8192919061238b565b5090505050611d2a565b60006040518060400160405280600854815260200185815250905060086000815480929190611cb990613403565b919050555080600e60003373ffffffffffffffffffffffffffffffffffffffff1673ffffffffffffffffffffffffffffffffffffffff168152602001908152602001600020600082015181600001556020820151816001019080519060200190611d2492919061238b565b50905050505b5b600b339080600181540180825580915050600190039060005260206000200160009091909190916101000a81548173ffffffffffffffffffffffffffffffffffffffff021916908373ffffffffffffffffffffffffffffffffffffffff1602179055506001905092915050565b60606000611da660016121f1565b90506000805b82811015611e4d573373ffffffffffffffffffffffffffffffffffffffff1660116000600184611ddc91906131f9565b815260200190815260200160002060030160009054906101000a900473ffffffffffffffffffffffffffffffffffffffff1673ffffffffffffffffffffffffffffffffffffffff161415611e3a57600182611e3791906131f9565b91505b8080611e4590613403565b915050611dac565b5060008167ffffffffffffffff811115611e90577f4e487b7100000000000000000000000000000000000000000000000000000000600052604160045260246000fd5b604051908082528060200260200182016040528015611ec957816020015b611eb66122f0565b815260200190600190039081611eae5790505b5090506000805b84811015612167573373ffffffffffffffffffffffffffffffffffffffff1660116000600184611f0091906131f9565b815260200190815260200160002060030160009054906101000a900473ffffffffffffffffffffffffffffffffffffffff1673ffffffffffffffffffffffffffffffffffffffff161415612154576000600182611f5d91906131f9565b905060006011600083815260200190815260200160002090508060405180610140016040529081600082015481526020016001820160009054906101000a900473ffffffffffffffffffffffffffffffffffffffff1673ffffffffffffffffffffffffffffffffffffffff1673ffffffffffffffffffffffffffffffffffffffff168152602001600282015481526020016003820160009054906101000a900473ffffffffffffffffffffffffffffffffffffffff1673ffffffffffffffffffffffffffffffffffffffff1673ffffffffffffffffffffffffffffffffffffffff1681526020016004820160009054906101000a900473ffffffffffffffffffffffffffffffffffffffff1673ffffffffffffffffffffffffffffffffffffffff1673ffffffffffffffffffffffffffffffffffffffff16815260200160058201548152602001600682015481526020016007820160009054906101000a900460ff161515151581526020016007820160019054906101000a900460ff161515151581526020016007820160029054906101000a900460ff161515151581525050858581518110612137577f4e487b7100000000000000000000000000000000000000000000000000000000600052603260045260246000fd5b602002602001018190525060018461214f91906131f9565b935050505b808061215f90613403565b915050611ed0565b508194505050505090565b600063f23a6e6160e01b905095945050505050565b60007f01ffc9a7000000000000000000000000000000000000000000000000000000007bffffffffffffffffffffffffffffffffffffffffffffffffffffffff1916827bffffffffffffffffffffffffffffffffffffffffffffffffffffffff1916149050919050565b600081600001549050919050565b6001816000016000828254019250508190555050565b600080600090505b600b805490508160ff1610156122e5578273ffffffffffffffffffffffffffffffffffffffff16600b8260ff1681548110612281577f4e487b7100000000000000000000000000000000000000000000000000000000600052603260045260246000fd5b9060005260206000200160009054906101000a900473ffffffffffffffffffffffffffffffffffffffff1673ffffffffffffffffffffffffffffffffffffffff1614156122d25760019150506122eb565b80806122dd9061344c565b91505061221d565b50600090505b919050565b60405180610140016040528060008152602001600073ffffffffffffffffffffffffffffffffffffffff16815260200160008152602001600073ffffffffffffffffffffffffffffffffffffffff168152602001600073ffffffffffffffffffffffffffffffffffffffff16815260200160008152602001600081526020016000151581526020016000151581526020016000151581525090565b828054612397906133a0565b90600052602060002090601f0160209004810192826123b95760008555612400565b82601f106123d257805160ff1916838001178555612400565b82800160010185558215612400579182015b828111156123ff5782518255916020019190600101906123e4565b5b50905061240d9190612411565b5090565b5b8082111561242a576000816000905550600101612412565b5090565b600061244161243c846130cc565b6130a7565b9050808382526020820190508285602086028201111561246057600080fd5b60005b8581101561249057816124768882612654565b845260208401935060208301925050600181019050612463565b5050509392505050565b60006124ad6124a8846130cc565b6130a7565b905080838252602082019050828560208602820111156124cc57600080fd5b60005b858110156124fc57816124e28882612669565b8452602084019350602083019250506001810190506124cf565b5050509392505050565b6000612519612514846130f8565b6130a7565b90508281526020810184848401111561253157600080fd5b61253c84828561335e565b509392505050565b600061255761255284613129565b6130a7565b90508281526020810184848401111561256f57600080fd5b61257a84828561335e565b509392505050565b6000813590506125918161358f565b92915050565b600082601f8301126125a857600080fd5b81356125b884826020860161242e565b91505092915050565b600082601f8301126125d257600080fd5b81516125e284826020860161249a565b91505092915050565b6000813590506125fa816135a6565b92915050565b600082601f83011261261157600080fd5b8135612621848260208601612506565b91505092915050565b600082601f83011261263b57600080fd5b813561264b848260208601612544565b91505092915050565b600081359050612663816135bd565b92915050565b600081519050612678816135bd565b92915050565b600080600080600060a0868803121561269657600080fd5b60006126a488828901612582565b95505060206126b588828901612582565b945050604086013567ffffffffffffffff8111156126d257600080fd5b6126de88828901612597565b935050606086013567ffffffffffffffff8111156126fb57600080fd5b61270788828901612597565b925050608086013567ffffffffffffffff81111561272457600080fd5b61273088828901612600565b9150509295509295909350565b6000806000806080858703121561275357600080fd5b600061276187828801612582565b945050602061277287828801612582565b935050604061278387828801612654565b925050606085013567ffffffffffffffff8111156127a057600080fd5b6127ac87828801612600565b91505092959194509250565b600080600080600060a086880312156127d057600080fd5b60006127de88828901612582565b95505060206127ef88828901612582565b945050604061280088828901612654565b935050606061281188828901612654565b925050608086013567ffffffffffffffff81111561282e57600080fd5b61283a88828901612600565b9150509295509295909350565b6000806040838503121561285a57600080fd5b600061286885828601612582565b925050602061287985828601612654565b9150509250929050565b60008060006060848603121561289857600080fd5b60006128a686828701612582565b93505060206128b786828701612654565b92505060406128c886828701612654565b9150509250925092565b600080600080608085870312156128e857600080fd5b60006128f687828801612582565b945050602061290787828801612654565b935050604061291887828801612654565b925050606061292987828801612654565b91505092959194509250565b60006020828403121561294757600080fd5b600082015167ffffffffffffffff81111561296157600080fd5b61296d848285016125c1565b91505092915050565b60006020828403121561298857600080fd5b6000612996848285016125eb565b91505092915050565b6000602082840312156129b157600080fd5b600082013567ffffffffffffffff8111156129cb57600080fd5b6129d78482850161262a565b91505092915050565b600080604083850312156129f357600080fd5b600083013567ffffffffffffffff811115612a0d57600080fd5b612a198582860161262a565b9250506020612a2a85828601612654565b9150509250929050565b600060208284031215612a4657600080fd5b6000612a5484828501612654565b91505092915050565b600060208284031215612a6f57600080fd5b6000612a7d84828501612669565b91505092915050565b60008060408385031215612a9957600080fd5b6000612aa785828601612654565b9250506020612ab885828601612654565b9150509250929050565b6000612ace8383612cc9565b6101408301905092915050565b6000612ae78383612d95565b60208301905092915050565b612afc81613316565b82525050565b612b0b81613295565b82525050565b612b1a81613283565b82525050565b612b2981613283565b82525050565b6000612b3a8261317a565b612b4481856131b5565b9350612b4f8361315a565b8060005b83811015612b80578151612b678882612ac2565b9750612b728361319b565b925050600181019050612b53565b5085935050505092915050565b6000612b9882613185565b612ba281856131c6565b9350612bad8361316a565b8060005b83811015612bde578151612bc58882612adb565b9750612bd0836131a8565b925050600181019050612bb1565b5085935050505092915050565b612bf4816132a7565b82525050565b612c03816132a7565b82525050565b612c12816132b3565b82525050565b612c2181613328565b82525050565b6000612c3282613190565b612c3c81856131e8565b9350612c4c81856020860161336d565b612c5581613503565b840191505092915050565b6000612c6d6002836131d7565b9150612c7882613514565b602082019050919050565b6000612c90601f836131e8565b9150612c9b8261353d565b602082019050919050565b6000612cb36017836131e8565b9150612cbe82613566565b602082019050919050565b61014082016000820151612ce06000850182612d95565b506020820151612cf36020850182612b11565b506040820151612d066040850182612d95565b506060820151612d196060850182612b02565b506080820151612d2c6080850182612b02565b5060a0820151612d3f60a0850182612d95565b5060c0820151612d5260c0850182612d95565b5060e0820151612d6560e0850182612beb565b50610100820151612d7a610100850182612beb565b50610120820151612d8f610120850182612beb565b50505050565b612d9e816132ff565b82525050565b612dad816132ff565b82525050565b6000608082019050612dc86000830187612af3565b612dd56020830186612b20565b612de26040830185612da4565b612def6060830184612bfa565b95945050505050565b6000606082019050612e0d6000830186612b20565b612e1a6020830185612b20565b612e276040830184612da4565b949350505050565b600060c082019050612e446000830189612b20565b612e516020830188612b20565b612e5e6040830187612da4565b612e6b6060830186612c18565b612e786080830185612bfa565b612e8560a0830184612bfa565b979650505050505050565b600060c082019050612ea56000830189612b20565b612eb26020830188612b20565b612ebf6040830187612da4565b612ecc6060830186612da4565b612ed96080830185612bfa565b612ee660a0830184612bfa565b979650505050505050565b600060a082019050612f066000830187612b20565b612f136020830186612b20565b612f206040830185612da4565b612f2d6060830184612da4565b8181036080830152612f3e81612c60565b905095945050505050565b6000606082019050612f5e6000830186612b20565b612f6b6020830185612da4565b612f786040830184612da4565b949350505050565b60006020820190508181036000830152612f9a8184612b2f565b905092915050565b60006020820190508181036000830152612fbc8184612b8d565b905092915050565b6000602082019050612fd96000830184612bfa565b92915050565b6000602082019050612ff46000830184612c09565b92915050565b600060208201905081810360008301526130148184612c27565b905092915050565b6000602082019050818103600083015261303581612c83565b9050919050565b6000602082019050818103600083015261305581612ca6565b9050919050565b60006020820190506130716000830184612da4565b92915050565b600060408201905061308c6000830185612da4565b818103602083015261309e8184612c27565b90509392505050565b60006130b16130c2565b90506130bd82826133d2565b919050565b6000604051905090565b600067ffffffffffffffff8211156130e7576130e66134d4565b5b602082029050602081019050919050565b600067ffffffffffffffff821115613113576131126134d4565b5b61311c82613503565b9050602081019050919050565b600067ffffffffffffffff821115613144576131436134d4565b5b61314d82613503565b9050602081019050919050565b6000819050602082019050919050565b6000819050602082019050919050565b600081519050919050565b600081519050919050565b600081519050919050565b6000602082019050919050565b6000602082019050919050565b600082825260208201905092915050565b600082825260208201905092915050565b600082825260208201905092915050565b600082825260208201905092915050565b6000613204826132ff565b915061320f836132ff565b9250827fffffffffffffffffffffffffffffffffffffffffffffffffffffffffffffffff0382111561324457613243613476565b5b828201905092915050565b600061325a826132ff565b9150613265836132ff565b92508282101561327857613277613476565b5b828203905092915050565b600061328e826132df565b9050919050565b60006132a0826132df565b9050919050565b60008115159050919050565b60007fffffffff0000000000000000000000000000000000000000000000000000000082169050919050565b600073ffffffffffffffffffffffffffffffffffffffff82169050919050565b6000819050919050565b600060ff82169050919050565b60006133218261333a565b9050919050565b6000613333826132ff565b9050919050565b60006133458261334c565b9050919050565b6000613357826132df565b9050919050565b82818337600083830152505050565b60005b8381101561338b578082015181840152602081019050613370565b8381111561339a576000848401525b50505050565b600060028204905060018216806133b857607f821691505b602082108114156133cc576133cb6134a5565b5b50919050565b6133db82613503565b810181811067ffffffffffffffff821117156133fa576133f96134d4565b5b80604052505050565b600061340e826132ff565b91507fffffffffffffffffffffffffffffffffffffffffffffffffffffffffffffffff82141561344157613440613476565b5b600182019050919050565b600061345782613309565b915060ff82141561346b5761346a613476565b5b600182019050919050565b7f4e487b7100000000000000000000000000000000000000000000000000000000600052601160045260246000fd5b7f4e487b7100000000000000000000000000000000000000000000000000000000600052602260045260246000fd5b7f4e487b7100000000000000000000000000000000000000000000000000000000600052604160045260246000fd5b6000601f19601f8301169050919050565b7f5b5d000000000000000000000000000000000000000000000000000000000000600082015250565b7f5265656e7472616e637947756172643a207265656e7472616e742063616c6c00600082015250565b7f5573657220416c72656164792072656769737465726564000000000000000000600082015250565b61359881613283565b81146135a357600080fd5b50565b6135af816132b3565b81146135ba57600080fd5b50565b6135c6816132ff565b81146135d157600080fd5b5056fea264697066735822122039c9b21ed4a25aa9f68cc5283a9464cfca1bd5ea22703dbd825d4749aa575db564736f6c63430008030033",
  "immutableReferences": {},
  "source": "// \"SPDX-License-Identifier: UNLICENSED\"\npragma solidity ^ 0.8 .3;\n\nimport \"./ACHouseToken1155.sol\";\nimport \"./ACHouseToken721.sol\";\n\nimport \"@openzeppelin/contracts/utils/Counters.sol\";\nimport \"@openzeppelin/contracts/security/ReentrancyGuard.sol\";\n\n\nimport \"@openzeppelin/contracts/token/ERC721/utils/ERC721Holder.sol\";\nimport \"@openzeppelin/contracts/token/ERC1155/utils/ERC1155Holder.sol\";\n\ncontract ACHouse is ReentrancyGuard, ERC1155Holder, ERC721Holder {\n  using Counters\n  for Counters.Counter;\n  Counters.Counter private _itemIds;\n  Counters.Counter private _itemsSold;\n\n  address owner;\n\n  ACHouseToken1155 _multiToken;\n  ACHouseToken721 _nftToken;\n\n  /** Variables and Event Emitters */\n  struct AuctionPlace {\n    uint256 id;\n    string name;\n  }\n  struct Artist {\n    uint256 id;\n    string name;\n  }\n  struct Participant {\n    uint256 id;\n    string name;\n  }\n  struct NGO {\n    uint256 id;\n    string name;\n  }\n\n  uint auctionPlaceCount = 0;\n  uint artistCount = 0;\n  uint participantCount = 0;\n  uint ngoCount = 0;\n  NGO[] public ngoArray;\n  address[] RegisteredUserAddresses; // might be used??\n\n  // mapping address to type\n  mapping(address => AuctionPlace) AuctionPlaceMapping;\n  mapping(address => Artist) ArtistMapping;\n  mapping(address => Participant) ParticipantMapping;\n  mapping(address => NGO) NgoMapping;\n  // User address maps to - Chaities and the donation amount. \n  mapping(address => mapping(address => uint256)) UserNGODonation;\n\n  struct MarketItem {\n    uint itemId;\n    address nftContract;\n    uint256 tokenId;\n    address payable seller;\n    address payable owner;\n    uint256 price;\n    uint256 amount;\n    bool sold;\n    bool isMultiToken;\n    bool isRemoved;\n  }\n\n  mapping(uint256 => MarketItem) private idToMarketItem;\n  \n  //user mapping to itemSold array\n  mapping( address => uint256[]) userSoldItemMapping;\n  //user sold count mapp;\n  mapping ( address => uint256) userSoldCountMapping;\n  //user mapping to purchased item  array\n  mapping( address => uint256[]) userpurchasedItemMapping;\n  //user purchased count mapp;\n  mapping ( address => uint256) userPurchasedCountMapping;\n  \n  event MarketItemCreated(uint indexed itemId, address indexed nftContract, uint256 indexed tokenId, \n    address seller, address owner, uint256 price, uint256 amount, bool sold, bool isMultiToken);\n  \n  event MarketItemSold(uint indexed itemId, address indexed nftContract, uint256 indexed tokenId, \n    address seller, address owner, uint256 price, bool sold);\n\n  constructor(address _mToken, address _nToken) {\n    _multiToken = ACHouseToken1155(_mToken);\n    _nftToken = ACHouseToken721(_nToken);\n    owner = payable(msg.sender);\n  }\n  \n  /***************************************************************************************************************************************/\n  /**MarketPlace functionality */\n  function create1155MarketItem(address nftContract, uint256 tokenId, uint256 price, uint256 amount) public payable nonReentrant {\n    //   require(price > 0, \"Price must be at least 1 wei\");\n    //   require(msg.value == listingPrice, \"Price must be equal to listing price\");\n\n    _itemIds.increment();\n    uint256 itemId = _itemIds.current();\n\n    MarketItem memory item = MarketItem(itemId, nftContract, tokenId, payable(msg.sender), payable(address(0)), price, amount, false, true, false);\n    idToMarketItem[itemId] = item;\n\n    IERC1155(nftContract).safeTransferFrom(msg.sender, address(this), tokenId, amount, '[]');\n\n    emit MarketItemCreated(itemId, nftContract, tokenId, msg.sender, address(0), price, amount, false, true);\n  }\n\n  function create721MarketItem(address nftContract, uint256 tokenId, uint256 price ) public payable nonReentrant {\n    // require(price > 0, \"Price must be at least 1 wei\");\n    // require(msg.value == listingPrice, \"Price must be equal to listing price\");\n\n    _itemIds.increment();\n    uint256 itemId = _itemIds.current();\n\n    MarketItem memory item = MarketItem(itemId, nftContract, tokenId, payable(msg.sender), payable(address(0)), price, 1, false, true, false); // amount will always be 1. \n    idToMarketItem[itemId] = item;\n\n    IERC721(nftContract).transferFrom(msg.sender, address(this), tokenId);\n\n    emit MarketItemCreated(itemId, nftContract, tokenId, msg.sender, address(0), price, 1, false, false);\n  }\n  \n  // Remove item from marketplace\n  function removeMarketPlaceItem( uint256 itemId) public {\n      \n      idToMarketItem[itemId].isRemoved = true;\n  }\n  \n  // re add item to marketplace\n  function addMarketPlaceItem( uint256 itemId) public {\n      \n      idToMarketItem[itemId].isRemoved = false;\n  }\n  \n  /* Creates the sale of a marketplace item */\n  /* Transfers ownership of the item, as well as funds between parties */\n  function createMarketSale(address nftContract, uint256 itemId) public payable nonReentrant {\n    \n    MarketItem memory item = idToMarketItem[itemId];\n    \n    uint price = item.price;\n    uint tokenId = item.tokenId;\n    bool isMultiToken = item.isMultiToken;\n    // require(msg.value == price, \"Please submit the asking price in order to complete the purchase\");\n\n    // transfer funds\n    item.seller.transfer(msg.value);\n\n    //transfer ownership.\n    if(isMultiToken){\n      IERC1155(nftContract).safeTransferFrom(address(this), msg.sender, item.tokenId, item.amount, '[]');\n    }else{\n      IERC721(nftContract).transferFrom(address(this), msg.sender, tokenId);\n    }\n    \n    //set new owner inrecords.\n    item.owner = payable(msg.sender);\n    //set sold to true\n    item.sold = true;\n    //increament itemSold counter.\n    _itemsSold.increment();\n    \n    // mapp user address to itemSold [] and purchased[]\n    userSoldItemMapping[item.seller].push(itemId);\n    \n    //user mapping to purchased item  array\n    userpurchasedItemMapping[msg.sender].push(itemId);\n\n    emit MarketItemSold( itemId, nftContract, tokenId, item.seller, msg.sender, price, true);\n  }\n\n  /* Returns all unsold market items */\n  function fetchUnSoldMarketItems() public view returns(MarketItem[] memory) {\n    \n    uint totalUnSoldCount = _itemIds.current() - _itemsSold.current();\n    MarketItem[] memory items = new MarketItem[](totalUnSoldCount);\n    uint unsoldCurrentIndex = 0;\n    \n    uint totalItemCount = _itemIds.current();\n    \n    for(uint i=0; i < totalItemCount; i++){\n        // only way i found to iterate through a mapping. \n        if(idToMarketItem[i+1].owner == address(0) && idToMarketItem[i+1].isRemoved == false ) { \n            uint currentID = i+1;\n            items[unsoldCurrentIndex] = idToMarketItem[currentID];\n            unsoldCurrentIndex +=1;\n        }\n    }\n    \n    return items;\n    \n  }\n\n  /* Returns only items that a user has purchased */\n  function fetchMyNFTs() public view returns (MarketItem[] memory) {\n    \n    uint256[] memory userPurchasedIds = userpurchasedItemMapping[msg.sender];\n    \n    \n    MarketItem[] memory items = new MarketItem[](userPurchasedIds.length);\n    for(uint i =0; i< userPurchasedIds.length; i++){\n        \n        // MarketItem memory item = idToMarketItem[userPurchasedIds[i]];\n        \n        items[i] = idToMarketItem[userPurchasedIds[i]];\n    }\n    return items;\n  }\n\n  /* Returns only items a user has created */\n  function fetchItemsCreated() public view returns (MarketItem[] memory) {\n    //get total item count - created nin MarketItem.\n    uint totalItemCount = _itemIds.current();\n    uint itemCount = 0;\n    \n    for (uint i = 0; i < totalItemCount; i++) {\n      if (idToMarketItem[i + 1].seller == msg.sender) {\n        itemCount += 1;\n      }\n    }\n\n    MarketItem[] memory items = new MarketItem[](itemCount);\n    uint currentIndex = 0;\n    \n    for (uint i = 0; i < totalItemCount; i++) {\n      if (idToMarketItem[i + 1].seller == msg.sender) {\n        uint currentId = i + 1;\n        MarketItem storage currentItem = idToMarketItem[currentId];\n        items[currentIndex] = currentItem;\n        currentIndex += 1;\n      }\n    }\n    return items;\n  }\n  \n  /***************************************************************************************************************************************/\n  /**Functions - Registration  */\n  function register(string memory _name, uint _userType) public returns(bool) {\n    require(isUserRegistered(msg.sender) == false, \"User Already registered\");\n\n    //userType { 1: Auction, 2: Artist, 3: Participant}\n    // register user by type\n    if (_userType == 1) {\n      AuctionPlace memory ac = AuctionPlace(auctionPlaceCount, _name);\n      auctionPlaceCount++;\n\n      AuctionPlaceMapping[msg.sender] = ac;\n    } else if (_userType == 2) {\n      Artist memory ar = Artist(artistCount, _name);\n      artistCount++;\n\n      ArtistMapping[msg.sender] = ar;\n    } else {\n      Participant memory part = Participant(participantCount, _name);\n      participantCount++;\n\n      ParticipantMapping[msg.sender] = part;\n    }\n\n    RegisteredUserAddresses.push(msg.sender);\n    return true;\n  }\n\n  /**ERC1155 functionality */\n  function setURI1155(string memory _uri) public {\n    _multiToken.setURI(_uri);\n  }\n  // mint 1155 NFT - set supply to 1. \n  function createNFT1155(uint256 _id, uint256 _amount) public {\n    _multiToken.mintNFT(msg.sender, _id, _amount);\n  }\n\n  //get tokens totalnumber. \n  function getTokenCount() public view returns(uint256) {\n    return _multiToken.getTokenCount();\n  }\n  //returns the array of all tokenids. \n  function getTokenIds() public view returns(uint256[] memory) {\n    return _multiToken.getTokenIds();\n  }\n\n\n\n  /**Helpers */\n  function isUserRegistered(address _address) internal view returns(bool) {\n    for (uint8 j = 0; j < RegisteredUserAddresses.length; j++) {\n      if (RegisteredUserAddresses[j] == _address) {\n        return (true); // user is registered.\n      }\n    }\n    return (false); // user is not registered.\n  }\n}",
  "sourcePath": "/home/dinesh/Projects/EthOnline/contracts/ACHouse.sol",
  "compiler": {
    "name": "solc",
    "version": "0.8.3+commit.8d00100c.Emscripten.clang"
  },
  "schemaVersion": "3.3.4",
  "updatedAt": "2021-10-06T15:14:53.688Z",
  "devdoc": {
    "kind": "dev",
    "methods": {
      "onERC721Received(address,address,uint256,bytes)": {
        "details": "See {IERC721Receiver-onERC721Received}. Always returns `IERC721Receiver.onERC721Received.selector`."
      },
      "supportsInterface(bytes4)": {
        "details": "See {IERC165-supportsInterface}."
      }
    },
    "version": 1
  },
  "userdoc": {
    "kind": "user",
    "methods": {
      "create1155MarketItem(address,uint256,uint256,uint256)": {
        "notice": "MarketPlace functionality "
      },
      "register(string,uint256)": {
        "notice": "Functions - Registration  "
      },
      "setURI1155(string)": {
        "notice": "ERC1155 functionality "
      }
    },
    "version": 1
  }
}