{
  "contractName": "ACHouse",
  "abi": [
    {
      "inputs": [
        {
          "internalType": "address",
          "name": "_mToken",
          "type": "address"
        },
        {
          "internalType": "address",
          "name": "_nToken",
          "type": "address"
        }
      ],
      "stateMutability": "nonpayable",
      "type": "constructor"
    },
    {
      "anonymous": false,
      "inputs": [
        {
          "indexed": true,
          "internalType": "uint256",
          "name": "itemId",
          "type": "uint256"
        },
        {
          "indexed": true,
          "internalType": "address",
          "name": "nftContract",
          "type": "address"
        },
        {
          "indexed": true,
          "internalType": "uint256",
          "name": "tokenId",
          "type": "uint256"
        },
        {
          "indexed": false,
          "internalType": "address",
          "name": "seller",
          "type": "address"
        },
        {
          "indexed": false,
          "internalType": "address",
          "name": "owner",
          "type": "address"
        },
        {
          "indexed": false,
          "internalType": "uint256",
          "name": "price",
          "type": "uint256"
        },
        {
          "indexed": false,
          "internalType": "uint256",
          "name": "amount",
          "type": "uint256"
        },
        {
          "indexed": false,
          "internalType": "uint256",
          "name": "charityId",
          "type": "uint256"
        },
        {
          "indexed": false,
          "internalType": "bool",
          "name": "sold",
          "type": "bool"
        },
        {
          "indexed": false,
          "internalType": "bool",
          "name": "isMultiToken",
          "type": "bool"
        },
        {
          "indexed": false,
          "internalType": "bool",
          "name": "isRemoved",
          "type": "bool"
        }
      ],
      "name": "MarketItemCreated",
      "type": "event"
    },
    {
      "anonymous": false,
      "inputs": [
        {
          "indexed": true,
          "internalType": "uint256",
          "name": "itemId",
          "type": "uint256"
        },
        {
          "indexed": true,
          "internalType": "address",
          "name": "nftContract",
          "type": "address"
        },
        {
          "indexed": true,
          "internalType": "uint256",
          "name": "tokenId",
          "type": "uint256"
        },
        {
          "indexed": false,
          "internalType": "address",
          "name": "seller",
          "type": "address"
        },
        {
          "indexed": false,
          "internalType": "address",
          "name": "owner",
          "type": "address"
        },
        {
          "indexed": false,
          "internalType": "uint256",
          "name": "price",
          "type": "uint256"
        },
        {
          "indexed": false,
          "internalType": "bool",
          "name": "sold",
          "type": "bool"
        }
      ],
      "name": "MarketItemSold",
      "type": "event"
    },
    {
      "inputs": [
        {
          "internalType": "uint256",
          "name": "",
          "type": "uint256"
        }
      ],
      "name": "ngoArray",
      "outputs": [
        {
          "internalType": "uint256",
          "name": "id",
          "type": "uint256"
        },
        {
          "internalType": "string",
          "name": "name",
          "type": "string"
        },
        {
          "internalType": "address",
          "name": "charityAddress",
          "type": "address"
        }
      ],
      "stateMutability": "view",
      "type": "function"
    },
    {
      "inputs": [
        {
          "internalType": "address",
          "name": "",
          "type": "address"
        },
        {
          "internalType": "address",
          "name": "",
          "type": "address"
        },
        {
          "internalType": "uint256[]",
          "name": "",
          "type": "uint256[]"
        },
        {
          "internalType": "uint256[]",
          "name": "",
          "type": "uint256[]"
        },
        {
          "internalType": "bytes",
          "name": "",
          "type": "bytes"
        }
      ],
      "name": "onERC1155BatchReceived",
      "outputs": [
        {
          "internalType": "bytes4",
          "name": "",
          "type": "bytes4"
        }
      ],
      "stateMutability": "nonpayable",
      "type": "function"
    },
    {
      "inputs": [
        {
          "internalType": "address",
          "name": "",
          "type": "address"
        },
        {
          "internalType": "address",
          "name": "",
          "type": "address"
        },
        {
          "internalType": "uint256",
          "name": "",
          "type": "uint256"
        },
        {
          "internalType": "uint256",
          "name": "",
          "type": "uint256"
        },
        {
          "internalType": "bytes",
          "name": "",
          "type": "bytes"
        }
      ],
      "name": "onERC1155Received",
      "outputs": [
        {
          "internalType": "bytes4",
          "name": "",
          "type": "bytes4"
        }
      ],
      "stateMutability": "nonpayable",
      "type": "function"
    },
    {
      "inputs": [
        {
          "internalType": "address",
          "name": "",
          "type": "address"
        },
        {
          "internalType": "address",
          "name": "",
          "type": "address"
        },
        {
          "internalType": "uint256",
          "name": "",
          "type": "uint256"
        },
        {
          "internalType": "bytes",
          "name": "",
          "type": "bytes"
        }
      ],
      "name": "onERC721Received",
      "outputs": [
        {
          "internalType": "bytes4",
          "name": "",
          "type": "bytes4"
        }
      ],
      "stateMutability": "nonpayable",
      "type": "function"
    },
    {
      "inputs": [
        {
          "internalType": "bytes4",
          "name": "interfaceId",
          "type": "bytes4"
        }
      ],
      "name": "supportsInterface",
      "outputs": [
        {
          "internalType": "bool",
          "name": "",
          "type": "bool"
        }
      ],
      "stateMutability": "view",
      "type": "function"
    },
    {
      "inputs": [
        {
          "internalType": "address",
          "name": "charityAddress",
          "type": "address"
        },
        {
          "internalType": "string",
          "name": "name",
          "type": "string"
        }
      ],
      "name": "addCharity",
      "outputs": [],
      "stateMutability": "nonpayable",
      "type": "function"
    },
    {
      "inputs": [
        {
          "internalType": "uint256",
          "name": "_id",
          "type": "uint256"
        }
      ],
      "name": "getCharityInfo",
      "outputs": [
        {
          "components": [
            {
              "internalType": "uint256",
              "name": "id",
              "type": "uint256"
            },
            {
              "internalType": "string",
              "name": "name",
              "type": "string"
            },
            {
              "internalType": "address",
              "name": "charityAddress",
              "type": "address"
            }
          ],
          "internalType": "struct ACHouse.NGO",
          "name": "",
          "type": "tuple"
        }
      ],
      "stateMutability": "view",
      "type": "function"
    },
    {
      "inputs": [
        {
          "internalType": "address",
          "name": "nftContract",
          "type": "address"
        },
        {
          "internalType": "uint256",
          "name": "tokenId",
          "type": "uint256"
        },
        {
          "internalType": "uint256",
          "name": "price",
          "type": "uint256"
        },
        {
          "internalType": "uint256",
          "name": "amount",
          "type": "uint256"
        },
        {
          "internalType": "uint256",
          "name": "_charityId",
          "type": "uint256"
        }
      ],
      "name": "create1155MarketItem",
      "outputs": [
        {
          "internalType": "uint256",
          "name": "",
          "type": "uint256"
        }
      ],
      "stateMutability": "payable",
      "type": "function"
    },
    {
      "inputs": [
        {
          "internalType": "address",
          "name": "nftContract",
          "type": "address"
        },
        {
          "internalType": "uint256",
          "name": "tokenId",
          "type": "uint256"
        },
        {
          "internalType": "uint256",
          "name": "price",
          "type": "uint256"
        },
        {
          "internalType": "uint256",
          "name": "_charityId",
          "type": "uint256"
        }
      ],
      "name": "create721MarketItem",
      "outputs": [
        {
          "internalType": "uint256",
          "name": "",
          "type": "uint256"
        }
      ],
      "stateMutability": "payable",
      "type": "function"
    },
    {
      "inputs": [
        {
          "internalType": "uint256",
          "name": "itemId",
          "type": "uint256"
        }
      ],
      "name": "removeMarketPlaceItem",
      "outputs": [],
      "stateMutability": "nonpayable",
      "type": "function"
    },
    {
      "inputs": [
        {
          "internalType": "uint256",
          "name": "itemId",
          "type": "uint256"
        }
      ],
      "name": "addMarketPlaceItem",
      "outputs": [],
      "stateMutability": "nonpayable",
      "type": "function"
    },
    {
      "inputs": [
        {
          "internalType": "address",
          "name": "nftContract",
          "type": "address"
        },
        {
          "internalType": "uint256",
          "name": "itemId",
          "type": "uint256"
        }
      ],
      "name": "createMarketSale",
      "outputs": [],
      "stateMutability": "payable",
      "type": "function"
    },
    {
      "inputs": [],
      "name": "fetchUnSoldMarketItems",
      "outputs": [
        {
          "components": [
            {
              "internalType": "uint256",
              "name": "itemId",
              "type": "uint256"
            },
            {
              "internalType": "address",
              "name": "nftContract",
              "type": "address"
            },
            {
              "internalType": "uint256",
              "name": "tokenId",
              "type": "uint256"
            },
            {
              "internalType": "address payable",
              "name": "seller",
              "type": "address"
            },
            {
              "internalType": "address payable",
              "name": "owner",
              "type": "address"
            },
            {
              "internalType": "uint256",
              "name": "price",
              "type": "uint256"
            },
            {
              "internalType": "uint256",
              "name": "amount",
              "type": "uint256"
            },
            {
              "internalType": "uint256",
              "name": "charityId",
              "type": "uint256"
            },
            {
              "internalType": "bool",
              "name": "sold",
              "type": "bool"
            },
            {
              "internalType": "bool",
              "name": "isMultiToken",
              "type": "bool"
            },
            {
              "internalType": "bool",
              "name": "isRemoved",
              "type": "bool"
            }
          ],
          "internalType": "struct ACHouse.MarketItem[]",
          "name": "",
          "type": "tuple[]"
        }
      ],
      "stateMutability": "view",
      "type": "function"
    },
    {
      "inputs": [],
      "name": "fetchMyNFTs",
      "outputs": [
        {
          "components": [
            {
              "internalType": "uint256",
              "name": "itemId",
              "type": "uint256"
            },
            {
              "internalType": "address",
              "name": "nftContract",
              "type": "address"
            },
            {
              "internalType": "uint256",
              "name": "tokenId",
              "type": "uint256"
            },
            {
              "internalType": "address payable",
              "name": "seller",
              "type": "address"
            },
            {
              "internalType": "address payable",
              "name": "owner",
              "type": "address"
            },
            {
              "internalType": "uint256",
              "name": "price",
              "type": "uint256"
            },
            {
              "internalType": "uint256",
              "name": "amount",
              "type": "uint256"
            },
            {
              "internalType": "uint256",
              "name": "charityId",
              "type": "uint256"
            },
            {
              "internalType": "bool",
              "name": "sold",
              "type": "bool"
            },
            {
              "internalType": "bool",
              "name": "isMultiToken",
              "type": "bool"
            },
            {
              "internalType": "bool",
              "name": "isRemoved",
              "type": "bool"
            }
          ],
          "internalType": "struct ACHouse.MarketItem[]",
          "name": "",
          "type": "tuple[]"
        }
      ],
      "stateMutability": "view",
      "type": "function"
    },
    {
      "inputs": [],
      "name": "fetchItemsCreated",
      "outputs": [
        {
          "components": [
            {
              "internalType": "uint256",
              "name": "itemId",
              "type": "uint256"
            },
            {
              "internalType": "address",
              "name": "nftContract",
              "type": "address"
            },
            {
              "internalType": "uint256",
              "name": "tokenId",
              "type": "uint256"
            },
            {
              "internalType": "address payable",
              "name": "seller",
              "type": "address"
            },
            {
              "internalType": "address payable",
              "name": "owner",
              "type": "address"
            },
            {
              "internalType": "uint256",
              "name": "price",
              "type": "uint256"
            },
            {
              "internalType": "uint256",
              "name": "amount",
              "type": "uint256"
            },
            {
              "internalType": "uint256",
              "name": "charityId",
              "type": "uint256"
            },
            {
              "internalType": "bool",
              "name": "sold",
              "type": "bool"
            },
            {
              "internalType": "bool",
              "name": "isMultiToken",
              "type": "bool"
            },
            {
              "internalType": "bool",
              "name": "isRemoved",
              "type": "bool"
            }
          ],
          "internalType": "struct ACHouse.MarketItem[]",
          "name": "",
          "type": "tuple[]"
        }
      ],
      "stateMutability": "view",
      "type": "function"
    },
    {
      "inputs": [
        {
          "internalType": "string",
          "name": "_name",
          "type": "string"
        },
        {
          "internalType": "uint256",
          "name": "_userType",
          "type": "uint256"
        }
      ],
      "name": "register",
      "outputs": [
        {
          "internalType": "bool",
          "name": "",
          "type": "bool"
        }
      ],
      "stateMutability": "nonpayable",
      "type": "function"
    },
    {
      "inputs": [
        {
          "internalType": "string",
          "name": "_uri",
          "type": "string"
        }
      ],
      "name": "setURI1155",
      "outputs": [],
      "stateMutability": "nonpayable",
      "type": "function"
    },
    {
      "inputs": [
        {
          "internalType": "uint256",
          "name": "_tokenId",
          "type": "uint256"
        }
      ],
      "name": "getTokenURI",
      "outputs": [
        {
          "internalType": "string",
          "name": "",
          "type": "string"
        }
      ],
      "stateMutability": "view",
      "type": "function"
    },
    {
      "inputs": [
        {
          "internalType": "uint256",
          "name": "_id",
          "type": "uint256"
        },
        {
          "internalType": "uint256",
          "name": "_amount",
          "type": "uint256"
        }
      ],
      "name": "createNFT1155",
      "outputs": [],
      "stateMutability": "nonpayable",
      "type": "function"
    },
    {
      "inputs": [],
      "name": "getTokenCount",
      "outputs": [
        {
          "internalType": "uint256",
          "name": "",
          "type": "uint256"
        }
      ],
      "stateMutability": "view",
      "type": "function"
    },
    {
      "inputs": [],
      "name": "getTokenIds",
      "outputs": [
        {
          "internalType": "uint256[]",
          "name": "",
          "type": "uint256[]"
        }
      ],
      "stateMutability": "view",
      "type": "function"
    },
    {
      "inputs": [
        {
          "internalType": "uint256",
          "name": "_tokenId",
          "type": "uint256"
        }
      ],
      "name": "getTokenSupply",
      "outputs": [
        {
          "internalType": "uint256",
          "name": "",
          "type": "uint256"
        }
      ],
      "stateMutability": "view",
      "type": "function"
    },
    {
      "inputs": [
        {
          "internalType": "address",
          "name": "nftContract",
          "type": "address"
        },
        {
          "internalType": "uint256",
          "name": "tokenId",
          "type": "uint256"
        },
        {
          "internalType": "uint256",
          "name": "shardId",
          "type": "uint256"
        },
        {
          "internalType": "uint256",
          "name": "priceOfShard",
          "type": "uint256"
        },
        {
          "internalType": "uint256",
          "name": "supplyToCreate",
          "type": "uint256"
        },
        {
          "internalType": "string",
          "name": "uri",
          "type": "string"
        }
      ],
      "name": "fractionalize1155NFT",
      "outputs": [
        {
          "internalType": "uint256",
          "name": "",
          "type": "uint256"
        }
      ],
      "stateMutability": "nonpayable",
      "type": "function"
    },
    {
      "inputs": [
        {
          "internalType": "address",
          "name": "nftContract",
          "type": "address"
        },
        {
          "internalType": "uint256",
          "name": "tokenId",
          "type": "uint256"
        },
        {
          "internalType": "uint256",
          "name": "shardId",
          "type": "uint256"
        },
        {
          "internalType": "uint256",
          "name": "priceOfShard",
          "type": "uint256"
        },
        {
          "internalType": "uint256",
          "name": "supplyToCreate",
          "type": "uint256"
        },
        {
          "internalType": "string",
          "name": "uri",
          "type": "string"
        }
      ],
      "name": "fractionalize721NFT",
      "outputs": [
        {
          "internalType": "uint256",
          "name": "",
          "type": "uint256"
        }
      ],
      "stateMutability": "nonpayable",
      "type": "function"
    },
    {
      "inputs": [
        {
          "internalType": "uint256",
          "name": "_id",
          "type": "uint256"
        },
        {
          "internalType": "string",
          "name": "uri",
          "type": "string"
        }
      ],
      "name": "createNFT721",
      "outputs": [],
      "stateMutability": "nonpayable",
      "type": "function"
    },
    {
      "inputs": [],
      "name": "get721TokenCount",
      "outputs": [
        {
          "internalType": "uint256",
          "name": "",
          "type": "uint256"
        }
      ],
      "stateMutability": "view",
      "type": "function"
    },
    {
      "inputs": [],
      "name": "get721TokenIds",
      "outputs": [
        {
          "internalType": "uint256[]",
          "name": "",
          "type": "uint256[]"
        }
      ],
      "stateMutability": "view",
      "type": "function"
    },
    {
      "inputs": [
        {
          "internalType": "uint256",
          "name": "_id",
          "type": "uint256"
        }
      ],
      "name": "get721TokenURI",
      "outputs": [
        {
          "internalType": "string",
          "name": "",
          "type": "string"
        }
      ],
      "stateMutability": "view",
      "type": "function"
    }
  ],
  "bytecode": "0x6080604052600060085560006009556000600a556000600b553480156200002557600080fd5b5060405162004e8a38038062004e8a83398181016040528101906200004b919062000135565b600160008190555081600660006101000a81548173ffffffffffffffffffffffffffffffffffffffff021916908373ffffffffffffffffffffffffffffffffffffffff16021790555080600760006101000a81548173ffffffffffffffffffffffffffffffffffffffff021916908373ffffffffffffffffffffffffffffffffffffffff16021790555033600560006101000a81548173ffffffffffffffffffffffffffffffffffffffff021916908373ffffffffffffffffffffffffffffffffffffffff1602179055505050620001c4565b6000815190506200012f81620001aa565b92915050565b600080604083850312156200014957600080fd5b600062000159858286016200011e565b92505060206200016c858286016200011e565b9150509250929050565b600062000183826200018a565b9050919050565b600073ffffffffffffffffffffffffffffffffffffffff82169050919050565b620001b58162000176565b8114620001c157600080fd5b50565b614cb680620001d46000396000f3fe6080604052600436106101b65760003560e01c806372f7bec8116100ec578063c23b139e1161008a578063dce9fc1111610064578063dce9fc111461066a578063ea87152b14610693578063f064c32e146106d0578063f23a6e61146106fb576101b6565b8063c23b139e146105fa578063cf27532414610616578063dbcd674e1461063f576101b6565b80639c79afb3116100c65780639c79afb314610518578063af8e6c3914610557578063b5daa4fc14610580578063bc197c81146105bd576101b6565b806372f7bec81461049957806378a89567146104c2578063953e8267146104ed576101b6565b80632642c74f116101595780633e52a165116101335780633e52a165146103d857806342ce70861461040157806343404be11461043157806367f718a91461046e576101b6565b80632642c74f14610333578063382edbcf146103705780633bb3a24d1461039b576101b6565b8063150b7a0211610195578063150b7a021461025157806319b88edb1461028e578063202e3740146102cb57806325762e57146102f6576101b6565b80621ca2b6146101bb57806301ffc9a7146101eb578063145eca8c14610228575b600080fd5b6101d560048036038101906101d09190613bf3565b610738565b6040516101e2919061469a565b60405180910390f35b3480156101f757600080fd5b50610212600480360381019061020d9190613d4c565b610aa7565b60405161021f91906145c0565b60405180910390f35b34801561023457600080fd5b5061024f600480360381019061024a9190613e4b565b610b21565b005b34801561025d57600080fd5b50610278600480360381019061027391906139f6565b610b53565b60405161028591906145db565b60405180910390f35b34801561029a57600080fd5b506102b560048036038101906102b09190613e4b565b610b67565b6040516102c2919061469a565b60405180910390f35b3480156102d757600080fd5b506102e0610c1b565b6040516102ed919061457c565b60405180910390f35b34801561030257600080fd5b5061031d60048036038101906103189190613e4b565b610f7e565b60405161032a91906145f6565b60405180910390f35b34801561033f57600080fd5b5061035a60048036038101906103559190613c6a565b611037565b604051610367919061469a565b60405180910390f35b34801561037c57600080fd5b5061038561139f565b604051610392919061457c565b60405180910390f35b3480156103a757600080fd5b506103c260048036038101906103bd9190613e4b565b611739565b6040516103cf91906145f6565b60405180910390f35b3480156103e457600080fd5b506103ff60048036038101906103fa9190613e4b565b6117f2565b005b61041b60048036038101906104169190613b90565b611824565b604051610428919061469a565b60405180910390f35b34801561043d57600080fd5b5061045860048036038101906104539190613e4b565b611b90565b6040516104659190614678565b60405180910390f35b34801561047a57600080fd5b50610483611caf565b604051610490919061459e565b60405180910390f35b3480156104a557600080fd5b506104c060048036038101906104bb9190613b00565b611d5b565b005b3480156104ce57600080fd5b506104d7611e33565b6040516104e4919061469a565b60405180910390f35b3480156104f957600080fd5b50610502611eda565b60405161050f919061459e565b60405180910390f35b34801561052457600080fd5b5061053f600480360381019061053a9190613e4b565b611f86565b60405161054e939291906146b5565b60405180910390f35b34801561056357600080fd5b5061057e60048036038101906105799190613d75565b612068565b005b34801561058c57600080fd5b506105a760048036038101906105a29190613c6a565b6120f8565b6040516105b4919061469a565b60405180910390f35b3480156105c957600080fd5b506105e460048036038101906105df9190613937565b612463565b6040516105f191906145db565b60405180910390f35b610614600480360381019061060f9190613b54565b612478565b005b34801561062257600080fd5b5061063d60048036038101906106389190613e9d565b612b1b565b005b34801561064b57600080fd5b50610654612bb0565b604051610661919061469a565b60405180910390f35b34801561067657600080fd5b50610691600480360381019061068c9190613ef1565b612c57565b005b34801561069f57600080fd5b506106ba60048036038101906106b59190613df7565b612cec565b6040516106c791906145c0565b60405180910390f35b3480156106dc57600080fd5b506106e5612fa1565b6040516106f2919061457c565b60405180910390f35b34801561070757600080fd5b50610722600480360381019061071d9190613a71565b613385565b60405161072f91906145db565b60405180910390f35b600060026000541415610780576040517f08c379a000000000000000000000000000000000000000000000000000000000815260040161077790614638565b60405180910390fd5b6002600081905550610792600161339a565b600061079e60016133b0565b905060006040518061016001604052808381526020018973ffffffffffffffffffffffffffffffffffffffff1681526020018881526020013373ffffffffffffffffffffffffffffffffffffffff168152602001600073ffffffffffffffffffffffffffffffffffffffff1681526020018781526020016001815260200185815260200160001515815260200160011515815260200160001515815250905080601360008481526020019081526020016000206000820151816000015560208201518160010160006101000a81548173ffffffffffffffffffffffffffffffffffffffff021916908373ffffffffffffffffffffffffffffffffffffffff1602179055506040820151816002015560608201518160030160006101000a81548173ffffffffffffffffffffffffffffffffffffffff021916908373ffffffffffffffffffffffffffffffffffffffff16021790555060808201518160040160006101000a81548173ffffffffffffffffffffffffffffffffffffffff021916908373ffffffffffffffffffffffffffffffffffffffff16021790555060a0820151816005015560c0820151816006015560e082015181600701556101008201518160080160006101000a81548160ff0219169083151502179055506101208201518160080160016101000a81548160ff0219169083151502179055506101408201518160080160026101000a81548160ff0219169083151502179055509050508773ffffffffffffffffffffffffffffffffffffffff1663f242432a33308a896040518563ffffffff1660e01b81526004016109fd9493929190614431565b600060405180830381600087803b158015610a1757600080fd5b505af1158015610a2b573d6000803e3d6000fd5b50505050868873ffffffffffffffffffffffffffffffffffffffff16837f47b157db2ce13c732b7847769bacdaa60f52fc3efbb1973993d0081d53f9a7693360008b8b8b600060016000604051610a89989796959493929190614489565b60405180910390a48192505050600160008190555095945050505050565b60007f4e2312e0000000000000000000000000000000000000000000000000000000007bffffffffffffffffffffffffffffffffffffffffffffffffffffffff1916827bffffffffffffffffffffffffffffffffffffffffffffffffffffffff19161480610b1a5750610b19826133be565b5b9050919050565b60016013600083815260200190815260200160002060080160026101000a81548160ff02191690831515021790555050565b600063150b7a0260e01b9050949350505050565b6000600660009054906101000a900473ffffffffffffffffffffffffffffffffffffffff1673ffffffffffffffffffffffffffffffffffffffff166397492c1c836040518263ffffffff1660e01b8152600401610bc4919061469a565b60206040518083038186803b158015610bdc57600080fd5b505afa158015610bf0573d6000803e3d6000fd5b505050506040513d601f19601f82011682018060405250810190610c149190613e74565b9050919050565b60606000601660003373ffffffffffffffffffffffffffffffffffffffff1673ffffffffffffffffffffffffffffffffffffffff168152602001908152602001600020805480602002602001604051908101604052809291908181526020018280548015610ca857602002820191906000526020600020905b815481526020019060010190808311610c94575b505050505090506000815167ffffffffffffffff811115610cf2577f4e487b7100000000000000000000000000000000000000000000000000000000600052604160045260246000fd5b604051908082528060200260200182016040528015610d2b57816020015b610d18613503565b815260200190600190039081610d105790505b50905060005b8251811015610f755760136000848381518110610d77577f4e487b7100000000000000000000000000000000000000000000000000000000600052603260045260246000fd5b6020026020010151815260200190815260200160002060405180610160016040529081600082015481526020016001820160009054906101000a900473ffffffffffffffffffffffffffffffffffffffff1673ffffffffffffffffffffffffffffffffffffffff1673ffffffffffffffffffffffffffffffffffffffff168152602001600282015481526020016003820160009054906101000a900473ffffffffffffffffffffffffffffffffffffffff1673ffffffffffffffffffffffffffffffffffffffff1673ffffffffffffffffffffffffffffffffffffffff1681526020016004820160009054906101000a900473ffffffffffffffffffffffffffffffffffffffff1673ffffffffffffffffffffffffffffffffffffffff1673ffffffffffffffffffffffffffffffffffffffff1681526020016005820154815260200160068201548152602001600782015481526020016008820160009054906101000a900460ff161515151581526020016008820160019054906101000a900460ff161515151581526020016008820160029054906101000a900460ff161515151581525050828281518110610f57577f4e487b7100000000000000000000000000000000000000000000000000000000600052603260045260246000fd5b60200260200101819052508080610f6d90614a60565b915050610d31565b50809250505090565b6060600760009054906101000a900473ffffffffffffffffffffffffffffffffffffffff1673ffffffffffffffffffffffffffffffffffffffff16638ad91345836040518263ffffffff1660e01b8152600401610fdb919061469a565b60006040518083038186803b158015610ff357600080fd5b505afa158015611007573d6000803e3d6000fd5b505050506040513d6000823e3d601f19601f820116820180604052508101906110309190613db6565b9050919050565b6000611043600361339a565b600061104f60036133b0565b905060006040518061014001604052808381526020018a73ffffffffffffffffffffffffffffffffffffffff1681526020018981526020013373ffffffffffffffffffffffffffffffffffffffff168152602001600073ffffffffffffffffffffffffffffffffffffffff168152602001600660009054906101000a900473ffffffffffffffffffffffffffffffffffffffff1673ffffffffffffffffffffffffffffffffffffffff16815260200188815260200187815260200186815260200186815250905080601860008481526020019081526020016000206000820151816000015560208201518160010160006101000a81548173ffffffffffffffffffffffffffffffffffffffff021916908373ffffffffffffffffffffffffffffffffffffffff1602179055506040820151816002015560608201518160030160006101000a81548173ffffffffffffffffffffffffffffffffffffffff021916908373ffffffffffffffffffffffffffffffffffffffff16021790555060808201518160040160006101000a81548173ffffffffffffffffffffffffffffffffffffffff021916908373ffffffffffffffffffffffffffffffffffffffff16021790555060a08201518160050160006101000a81548173ffffffffffffffffffffffffffffffffffffffff021916908373ffffffffffffffffffffffffffffffffffffffff16021790555060c0820151816006015560e08201518160070155610100820151816008015561012082015181600901559050508873ffffffffffffffffffffffffffffffffffffffff166323b872dd33308b6040518463ffffffff1660e01b81526004016112c493929190614324565b600060405180830381600087803b1580156112de57600080fd5b505af11580156112f2573d6000803e3d6000fd5b505050506112ff84612068565b600660009054906101000a900473ffffffffffffffffffffffffffffffffffffffff1673ffffffffffffffffffffffffffffffffffffffff16635a9d10a23384886040518463ffffffff1660e01b815260040161135e93929190614545565b600060405180830381600087803b15801561137857600080fd5b505af115801561138c573d6000803e3d6000fd5b5050505081925050509695505050505050565b606060006113ad60026133b0565b6113b760016133b0565b6113c191906148ac565b905060008167ffffffffffffffff811115611405577f4e487b7100000000000000000000000000000000000000000000000000000000600052604160045260246000fd5b60405190808252806020026020018201604052801561143e57816020015b61142b613503565b8152602001906001900390816114235790505b50905060008061144e60016133b0565b905060005b8181101561172e57600073ffffffffffffffffffffffffffffffffffffffff16601360006001846114849190614856565b815260200190815260200160002060040160009054906101000a900473ffffffffffffffffffffffffffffffffffffffff1673ffffffffffffffffffffffffffffffffffffffff1614801561150c575060001515601360006001846114e99190614856565b815260200190815260200160002060080160029054906101000a900460ff161515145b1561171b5760006001826115209190614856565b90506013600082815260200190815260200160002060405180610160016040529081600082015481526020016001820160009054906101000a900473ffffffffffffffffffffffffffffffffffffffff1673ffffffffffffffffffffffffffffffffffffffff1673ffffffffffffffffffffffffffffffffffffffff168152602001600282015481526020016003820160009054906101000a900473ffffffffffffffffffffffffffffffffffffffff1673ffffffffffffffffffffffffffffffffffffffff1673ffffffffffffffffffffffffffffffffffffffff1681526020016004820160009054906101000a900473ffffffffffffffffffffffffffffffffffffffff1673ffffffffffffffffffffffffffffffffffffffff1673ffffffffffffffffffffffffffffffffffffffff1681526020016005820154815260200160068201548152602001600782015481526020016008820160009054906101000a900460ff161515151581526020016008820160019054906101000a900460ff161515151581526020016008820160029054906101000a900460ff1615151515815250508585815181106116ff577f4e487b7100000000000000000000000000000000000000000000000000000000600052603260045260246000fd5b60200260200101819052506001846117179190614856565b9350505b808061172690614a60565b915050611453565b508294505050505090565b6060600660009054906101000a900473ffffffffffffffffffffffffffffffffffffffff1673ffffffffffffffffffffffffffffffffffffffff16633bb3a24d836040518263ffffffff1660e01b8152600401611796919061469a565b60006040518083038186803b1580156117ae57600080fd5b505afa1580156117c2573d6000803e3d6000fd5b505050506040513d6000823e3d601f19601f820116820180604052508101906117eb9190613db6565b9050919050565b60006013600083815260200190815260200160002060080160026101000a81548160ff02191690831515021790555050565b60006002600054141561186c576040517f08c379a000000000000000000000000000000000000000000000000000000000815260040161186390614638565b60405180910390fd5b600260008190555061187e600161339a565b600061188a60016133b0565b905060006040518061016001604052808381526020018873ffffffffffffffffffffffffffffffffffffffff1681526020018781526020013373ffffffffffffffffffffffffffffffffffffffff168152602001600073ffffffffffffffffffffffffffffffffffffffff1681526020018681526020016001815260200185815260200160001515815260200160011515815260200160001515815250905080601360008481526020019081526020016000206000820151816000015560208201518160010160006101000a81548173ffffffffffffffffffffffffffffffffffffffff021916908373ffffffffffffffffffffffffffffffffffffffff1602179055506040820151816002015560608201518160030160006101000a81548173ffffffffffffffffffffffffffffffffffffffff021916908373ffffffffffffffffffffffffffffffffffffffff16021790555060808201518160040160006101000a81548173ffffffffffffffffffffffffffffffffffffffff021916908373ffffffffffffffffffffffffffffffffffffffff16021790555060a0820151816005015560c0820151816006015560e082015181600701556101008201518160080160006101000a81548160ff0219169083151502179055506101208201518160080160016101000a81548160ff0219169083151502179055506101408201518160080160026101000a81548160ff0219169083151502179055509050508673ffffffffffffffffffffffffffffffffffffffff166323b872dd3330896040518463ffffffff1660e01b8152600401611ae793929190614324565b600060405180830381600087803b158015611b0157600080fd5b505af1158015611b15573d6000803e3d6000fd5b50505050858773ffffffffffffffffffffffffffffffffffffffff16837f47b157db2ce13c732b7847769bacdaa60f52fc3efbb1973993d0081d53f9a7693360008a60018b6000806000604051611b739897969594939291906143b3565b60405180910390a481925050506001600081905550949350505050565b611b986135a5565b6011600083815260200190815260200160002060405180606001604052908160008201548152602001600182018054611bd0906149fd565b80601f0160208091040260200160405190810160405280929190818152602001828054611bfc906149fd565b8015611c495780601f10611c1e57610100808354040283529160200191611c49565b820191906000526020600020905b815481529060010190602001808311611c2c57829003601f168201915b505050505081526020016002820160009054906101000a900473ffffffffffffffffffffffffffffffffffffffff1673ffffffffffffffffffffffffffffffffffffffff1673ffffffffffffffffffffffffffffffffffffffff16815250509050919050565b6060600660009054906101000a900473ffffffffffffffffffffffffffffffffffffffff1673ffffffffffffffffffffffffffffffffffffffff166367f718a96040518163ffffffff1660e01b815260040160006040518083038186803b158015611d1957600080fd5b505afa158015611d2d573d6000803e3d6000fd5b505050506040513d6000823e3d601f19601f82011682018060405250810190611d569190613d0b565b905090565b611d65600461339a565b6000611d7160046133b0565b9050600060405180606001604052808381526020018481526020018573ffffffffffffffffffffffffffffffffffffffff1681525090508060116000848152602001908152602001600020600082015181600001556020820151816001019080519060200190611de29291906135dc565b5060408201518160020160006101000a81548173ffffffffffffffffffffffffffffffffffffffff021916908373ffffffffffffffffffffffffffffffffffffffff16021790555090505050505050565b6000600660009054906101000a900473ffffffffffffffffffffffffffffffffffffffff1673ffffffffffffffffffffffffffffffffffffffff166378a895676040518163ffffffff1660e01b815260040160206040518083038186803b158015611e9d57600080fd5b505afa158015611eb1573d6000803e3d6000fd5b505050506040513d601f19601f82011682018060405250810190611ed59190613e74565b905090565b6060600760009054906101000a900473ffffffffffffffffffffffffffffffffffffffff1673ffffffffffffffffffffffffffffffffffffffff166367f718a96040518163ffffffff1660e01b815260040160006040518083038186803b158015611f4457600080fd5b505afa158015611f58573d6000803e3d6000fd5b505050506040513d6000823e3d601f19601f82011682018060405250810190611f819190613d0b565b905090565b600c8181548110611f9657600080fd5b9060005260206000209060030201600091509050806000015490806001018054611fbf906149fd565b80601f0160208091040260200160405190810160405280929190818152602001828054611feb906149fd565b80156120385780601f1061200d57610100808354040283529160200191612038565b820191906000526020600020905b81548152906001019060200180831161201b57829003601f168201915b5050505050908060020160009054906101000a900473ffffffffffffffffffffffffffffffffffffffff16905083565b600660009054906101000a900473ffffffffffffffffffffffffffffffffffffffff1673ffffffffffffffffffffffffffffffffffffffff166302fe5305826040518263ffffffff1660e01b81526004016120c391906145f6565b600060405180830381600087803b1580156120dd57600080fd5b505af11580156120f1573d6000803e3d6000fd5b5050505050565b6000612104600361339a565b600061211060036133b0565b905060006040518061014001604052808381526020018a73ffffffffffffffffffffffffffffffffffffffff1681526020018981526020013373ffffffffffffffffffffffffffffffffffffffff168152602001600073ffffffffffffffffffffffffffffffffffffffff168152602001600660009054906101000a900473ffffffffffffffffffffffffffffffffffffffff1673ffffffffffffffffffffffffffffffffffffffff16815260200188815260200187815260200186815260200186815250905080601860008481526020019081526020016000206000820151816000015560208201518160010160006101000a81548173ffffffffffffffffffffffffffffffffffffffff021916908373ffffffffffffffffffffffffffffffffffffffff1602179055506040820151816002015560608201518160030160006101000a81548173ffffffffffffffffffffffffffffffffffffffff021916908373ffffffffffffffffffffffffffffffffffffffff16021790555060808201518160040160006101000a81548173ffffffffffffffffffffffffffffffffffffffff021916908373ffffffffffffffffffffffffffffffffffffffff16021790555060a08201518160050160006101000a81548173ffffffffffffffffffffffffffffffffffffffff021916908373ffffffffffffffffffffffffffffffffffffffff16021790555060c0820151816006015560e08201518160070155610100820151816008015561012082015181600901559050508873ffffffffffffffffffffffffffffffffffffffff1663f242432a33308b60016040518563ffffffff1660e01b8152600401612388949392919061435b565b600060405180830381600087803b1580156123a257600080fd5b505af11580156123b6573d6000803e3d6000fd5b505050506123c384612068565b600660009054906101000a900473ffffffffffffffffffffffffffffffffffffffff1673ffffffffffffffffffffffffffffffffffffffff16635a9d10a23384886040518463ffffffff1660e01b815260040161242293929190614545565b600060405180830381600087803b15801561243c57600080fd5b505af1158015612450573d6000803e3d6000fd5b5050505081925050509695505050505050565b600063bc197c8160e01b905095945050505050565b600260005414156124be576040517f08c379a00000000000000000000000000000000000000000000000000000000081526004016124b590614638565b60405180910390fd5b600260008190555060006013600083815260200190815260200160002060405180610160016040529081600082015481526020016001820160009054906101000a900473ffffffffffffffffffffffffffffffffffffffff1673ffffffffffffffffffffffffffffffffffffffff1673ffffffffffffffffffffffffffffffffffffffff168152602001600282015481526020016003820160009054906101000a900473ffffffffffffffffffffffffffffffffffffffff1673ffffffffffffffffffffffffffffffffffffffff1673ffffffffffffffffffffffffffffffffffffffff1681526020016004820160009054906101000a900473ffffffffffffffffffffffffffffffffffffffff1673ffffffffffffffffffffffffffffffffffffffff1673ffffffffffffffffffffffffffffffffffffffff1681526020016005820154815260200160068201548152602001600782015481526020016008820160009054906101000a900460ff161515151581526020016008820160019054906101000a900460ff161515151581526020016008820160029054906101000a900460ff161515151581525050905060008160a001519050600082604001519050600083610120015190508234146126cc576040517f08c379a00000000000000000000000000000000000000000000000000000000081526004016126c390614618565b60405180910390fd5b836060015173ffffffffffffffffffffffffffffffffffffffff166108fc349081150290604051600060405180830381858888f19350505050158015612716573d6000803e3d6000fd5b50801561279b578573ffffffffffffffffffffffffffffffffffffffff1663f242432a303387604001518860c001516040518563ffffffff1660e01b81526004016127649493929190614431565b600060405180830381600087803b15801561277e57600080fd5b505af1158015612792573d6000803e3d6000fd5b5050505061280b565b8573ffffffffffffffffffffffffffffffffffffffff166323b872dd3033856040518463ffffffff1660e01b81526004016127d893929190614324565b600060405180830381600087803b1580156127f257600080fd5b505af1158015612806573d6000803e3d6000fd5b505050505b33846080019073ffffffffffffffffffffffffffffffffffffffff16908173ffffffffffffffffffffffffffffffffffffffff168152505060018461010001901515908115158152505061285f600261339a565b83601360008781526020019081526020016000206000820151816000015560208201518160010160006101000a81548173ffffffffffffffffffffffffffffffffffffffff021916908373ffffffffffffffffffffffffffffffffffffffff1602179055506040820151816002015560608201518160030160006101000a81548173ffffffffffffffffffffffffffffffffffffffff021916908373ffffffffffffffffffffffffffffffffffffffff16021790555060808201518160040160006101000a81548173ffffffffffffffffffffffffffffffffffffffff021916908373ffffffffffffffffffffffffffffffffffffffff16021790555060a0820151816005015560c0820151816006015560e082015181600701556101008201518160080160006101000a81548160ff0219169083151502179055506101208201518160080160016101000a81548160ff0219169083151502179055506101408201518160080160026101000a81548160ff02191690831515021790555090505060146000856060015173ffffffffffffffffffffffffffffffffffffffff1673ffffffffffffffffffffffffffffffffffffffff168152602001908152602001600020859080600181540180825580915050600190039060005260206000200160009091909190915055601660003373ffffffffffffffffffffffffffffffffffffffff1673ffffffffffffffffffffffffffffffffffffffff168152602001908152602001600020859080600181540180825580915050600190039060005260206000200160009091909190915055818673ffffffffffffffffffffffffffffffffffffffff16867ffeb04e399f6ba62d926a65372cbb5f11e3c7a9ff05e62948769d2ee5d5335b84876060015133886001604051612b0394939291906142df565b60405180910390a45050505060016000819055505050565b600760009054906101000a900473ffffffffffffffffffffffffffffffffffffffff1673ffffffffffffffffffffffffffffffffffffffff16631e5769123384846040518463ffffffff1660e01b8152600401612b7a93929190614507565b600060405180830381600087803b158015612b9457600080fd5b505af1158015612ba8573d6000803e3d6000fd5b505050505050565b6000600760009054906101000a900473ffffffffffffffffffffffffffffffffffffffff1673ffffffffffffffffffffffffffffffffffffffff166378a895676040518163ffffffff1660e01b815260040160206040518083038186803b158015612c1a57600080fd5b505afa158015612c2e573d6000803e3d6000fd5b505050506040513d601f19601f82011682018060405250810190612c529190613e74565b905090565b600660009054906101000a900473ffffffffffffffffffffffffffffffffffffffff1673ffffffffffffffffffffffffffffffffffffffff16635a9d10a23384846040518463ffffffff1660e01b8152600401612cb693929190614545565b600060405180830381600087803b158015612cd057600080fd5b505af1158015612ce4573d6000803e3d6000fd5b505050505050565b6000801515612cfa33613428565b151514612d3c576040517f08c379a0000000000000000000000000000000000000000000000000000000008152600401612d3390614658565b60405180910390fd5b6001821415612de85760006040518060400160405280600854815260200185815250905060086000815480929190612d7390614a60565b919050555080600e60003373ffffffffffffffffffffffffffffffffffffffff1673ffffffffffffffffffffffffffffffffffffffff168152602001908152602001600020600082015181600001556020820151816001019080519060200190612dde9291906135dc565b5090505050612f34565b6002821415612e945760006040518060400160405280600954815260200185815250905060096000815480929190612e1f90614a60565b919050555080600f60003373ffffffffffffffffffffffffffffffffffffffff1673ffffffffffffffffffffffffffffffffffffffff168152602001908152602001600020600082015181600001556020820151816001019080519060200190612e8a9291906135dc565b5090505050612f33565b60006040518060400160405280600a548152602001858152509050600a6000815480929190612ec290614a60565b919050555080601060003373ffffffffffffffffffffffffffffffffffffffff1673ffffffffffffffffffffffffffffffffffffffff168152602001908152602001600020600082015181600001556020820151816001019080519060200190612f2d9291906135dc565b50905050505b5b600d339080600181540180825580915050600190039060005260206000200160009091909190916101000a81548173ffffffffffffffffffffffffffffffffffffffff021916908373ffffffffffffffffffffffffffffffffffffffff1602179055506001905092915050565b60606000612faf60016133b0565b90506000805b82811015613056573373ffffffffffffffffffffffffffffffffffffffff1660136000600184612fe59190614856565b815260200190815260200160002060030160009054906101000a900473ffffffffffffffffffffffffffffffffffffffff1673ffffffffffffffffffffffffffffffffffffffff161415613043576001826130409190614856565b91505b808061304e90614a60565b915050612fb5565b5060008167ffffffffffffffff811115613099577f4e487b7100000000000000000000000000000000000000000000000000000000600052604160045260246000fd5b6040519080825280602002602001820160405280156130d257816020015b6130bf613503565b8152602001906001900390816130b75790505b5090506000805b8481101561337a573373ffffffffffffffffffffffffffffffffffffffff16601360006001846131099190614856565b815260200190815260200160002060030160009054906101000a900473ffffffffffffffffffffffffffffffffffffffff1673ffffffffffffffffffffffffffffffffffffffff1614156133675760006001826131669190614856565b905060006013600083815260200190815260200160002090508060405180610160016040529081600082015481526020016001820160009054906101000a900473ffffffffffffffffffffffffffffffffffffffff1673ffffffffffffffffffffffffffffffffffffffff1673ffffffffffffffffffffffffffffffffffffffff168152602001600282015481526020016003820160009054906101000a900473ffffffffffffffffffffffffffffffffffffffff1673ffffffffffffffffffffffffffffffffffffffff1673ffffffffffffffffffffffffffffffffffffffff1681526020016004820160009054906101000a900473ffffffffffffffffffffffffffffffffffffffff1673ffffffffffffffffffffffffffffffffffffffff1673ffffffffffffffffffffffffffffffffffffffff1681526020016005820154815260200160068201548152602001600782015481526020016008820160009054906101000a900460ff161515151581526020016008820160019054906101000a900460ff161515151581526020016008820160029054906101000a900460ff16151515158152505085858151811061334a577f4e487b7100000000000000000000000000000000000000000000000000000000600052603260045260246000fd5b60200260200101819052506001846133629190614856565b935050505b808061337290614a60565b9150506130d9565b508194505050505090565b600063f23a6e6160e01b905095945050505050565b6001816000016000828254019250508190555050565b600081600001549050919050565b60007f01ffc9a7000000000000000000000000000000000000000000000000000000007bffffffffffffffffffffffffffffffffffffffffffffffffffffffff1916827bffffffffffffffffffffffffffffffffffffffffffffffffffffffff1916149050919050565b600080600090505b600d805490508160ff1610156134f8578273ffffffffffffffffffffffffffffffffffffffff16600d8260ff1681548110613494577f4e487b7100000000000000000000000000000000000000000000000000000000600052603260045260246000fd5b9060005260206000200160009054906101000a900473ffffffffffffffffffffffffffffffffffffffff1673ffffffffffffffffffffffffffffffffffffffff1614156134e55760019150506134fe565b80806134f090614aa9565b915050613430565b50600090505b919050565b60405180610160016040528060008152602001600073ffffffffffffffffffffffffffffffffffffffff16815260200160008152602001600073ffffffffffffffffffffffffffffffffffffffff168152602001600073ffffffffffffffffffffffffffffffffffffffff1681526020016000815260200160008152602001600081526020016000151581526020016000151581526020016000151581525090565b60405180606001604052806000815260200160608152602001600073ffffffffffffffffffffffffffffffffffffffff1681525090565b8280546135e8906149fd565b90600052602060002090601f01602090048101928261360a5760008555613651565b82601f1061362357805160ff1916838001178555613651565b82800160010185558215613651579182015b82811115613650578251825591602001919060010190613635565b5b50905061365e9190613662565b5090565b5b8082111561367b576000816000905550600101613663565b5090565b600061369261368d84614718565b6146f3565b905080838252602082019050828560208602820111156136b157600080fd5b60005b858110156136e157816136c7888261390d565b8452602084019350602083019250506001810190506136b4565b5050509392505050565b60006136fe6136f984614718565b6146f3565b9050808382526020820190508285602086028201111561371d57600080fd5b60005b8581101561374d57816137338882613922565b845260208401935060208301925050600181019050613720565b5050509392505050565b600061376a61376584614744565b6146f3565b90508281526020810184848401111561378257600080fd5b61378d8482856149bb565b509392505050565b60006137a86137a384614775565b6146f3565b9050828152602081018484840111156137c057600080fd5b6137cb8482856149bb565b509392505050565b60006137e66137e184614775565b6146f3565b9050828152602081018484840111156137fe57600080fd5b6138098482856149ca565b509392505050565b60008135905061382081614c3b565b92915050565b600082601f83011261383757600080fd5b813561384784826020860161367f565b91505092915050565b600082601f83011261386157600080fd5b81516138718482602086016136eb565b91505092915050565b60008135905061388981614c52565b92915050565b600082601f8301126138a057600080fd5b81356138b0848260208601613757565b91505092915050565b600082601f8301126138ca57600080fd5b81356138da848260208601613795565b91505092915050565b600082601f8301126138f457600080fd5b81516139048482602086016137d3565b91505092915050565b60008135905061391c81614c69565b92915050565b60008151905061393181614c69565b92915050565b600080600080600060a0868803121561394f57600080fd5b600061395d88828901613811565b955050602061396e88828901613811565b945050604086013567ffffffffffffffff81111561398b57600080fd5b61399788828901613826565b935050606086013567ffffffffffffffff8111156139b457600080fd5b6139c088828901613826565b925050608086013567ffffffffffffffff8111156139dd57600080fd5b6139e98882890161388f565b9150509295509295909350565b60008060008060808587031215613a0c57600080fd5b6000613a1a87828801613811565b9450506020613a2b87828801613811565b9350506040613a3c8782880161390d565b925050606085013567ffffffffffffffff811115613a5957600080fd5b613a658782880161388f565b91505092959194509250565b600080600080600060a08688031215613a8957600080fd5b6000613a9788828901613811565b9550506020613aa888828901613811565b9450506040613ab98882890161390d565b9350506060613aca8882890161390d565b925050608086013567ffffffffffffffff811115613ae757600080fd5b613af38882890161388f565b9150509295509295909350565b60008060408385031215613b1357600080fd5b6000613b2185828601613811565b925050602083013567ffffffffffffffff811115613b3e57600080fd5b613b4a858286016138b9565b9150509250929050565b60008060408385031215613b6757600080fd5b6000613b7585828601613811565b9250506020613b868582860161390d565b9150509250929050565b60008060008060808587031215613ba657600080fd5b6000613bb487828801613811565b9450506020613bc58782880161390d565b9350506040613bd68782880161390d565b9250506060613be78782880161390d565b91505092959194509250565b600080600080600060a08688031215613c0b57600080fd5b6000613c1988828901613811565b9550506020613c2a8882890161390d565b9450506040613c3b8882890161390d565b9350506060613c4c8882890161390d565b9250506080613c5d8882890161390d565b9150509295509295909350565b60008060008060008060c08789031215613c8357600080fd5b6000613c9189828a01613811565b9650506020613ca289828a0161390d565b9550506040613cb389828a0161390d565b9450506060613cc489828a0161390d565b9350506080613cd589828a0161390d565b92505060a087013567ffffffffffffffff811115613cf257600080fd5b613cfe89828a016138b9565b9150509295509295509295565b600060208284031215613d1d57600080fd5b600082015167ffffffffffffffff811115613d3757600080fd5b613d4384828501613850565b91505092915050565b600060208284031215613d5e57600080fd5b6000613d6c8482850161387a565b91505092915050565b600060208284031215613d8757600080fd5b600082013567ffffffffffffffff811115613da157600080fd5b613dad848285016138b9565b91505092915050565b600060208284031215613dc857600080fd5b600082015167ffffffffffffffff811115613de257600080fd5b613dee848285016138e3565b91505092915050565b60008060408385031215613e0a57600080fd5b600083013567ffffffffffffffff811115613e2457600080fd5b613e30858286016138b9565b9250506020613e418582860161390d565b9150509250929050565b600060208284031215613e5d57600080fd5b6000613e6b8482850161390d565b91505092915050565b600060208284031215613e8657600080fd5b6000613e9484828501613922565b91505092915050565b60008060408385031215613eb057600080fd5b6000613ebe8582860161390d565b925050602083013567ffffffffffffffff811115613edb57600080fd5b613ee7858286016138b9565b9150509250929050565b60008060408385031215613f0457600080fd5b6000613f128582860161390d565b9250506020613f238582860161390d565b9150509250929050565b6000613f398383614190565b6101608301905092915050565b6000613f5283836142c1565b60208301905092915050565b613f6781614973565b82525050565b613f76816148f2565b82525050565b613f85816148e0565b82525050565b613f94816148e0565b82525050565b6000613fa5826147c6565b613faf8185614801565b9350613fba836147a6565b8060005b83811015613feb578151613fd28882613f2d565b9750613fdd836147e7565b925050600181019050613fbe565b5085935050505092915050565b6000614003826147d1565b61400d8185614812565b9350614018836147b6565b8060005b838110156140495781516140308882613f46565b975061403b836147f4565b92505060018101905061401c565b5085935050505092915050565b61405f81614904565b82525050565b61406e81614904565b82525050565b61407d81614910565b82525050565b61408c81614985565b82525050565b600061409d826147dc565b6140a78185614834565b93506140b78185602086016149ca565b6140c081614b60565b840191505092915050565b60006140d6826147dc565b6140e08185614845565b93506140f08185602086016149ca565b6140f981614b60565b840191505092915050565b6000614111600283614823565b915061411c82614b71565b602082019050919050565b6000614134604083614845565b915061413f82614b9a565b604082019050919050565b6000614157601f83614845565b915061416282614be9565b602082019050919050565b600061417a601783614845565b915061418582614c12565b602082019050919050565b610160820160008201516141a760008501826142c1565b5060208201516141ba6020850182613f7c565b5060408201516141cd60408501826142c1565b5060608201516141e06060850182613f6d565b5060808201516141f36080850182613f6d565b5060a082015161420660a08501826142c1565b5060c082015161421960c08501826142c1565b5060e082015161422c60e08501826142c1565b50610100820151614241610100850182614056565b50610120820151614256610120850182614056565b5061014082015161426b610140850182614056565b50505050565b600060608301600083015161428960008601826142c1565b50602083015184820360208601526142a18282614092565b91505060408301516142b66040860182613f7c565b508091505092915050565b6142ca8161495c565b82525050565b6142d98161495c565b82525050565b60006080820190506142f46000830187613f5e565b6143016020830186613f8b565b61430e60408301856142d0565b61431b6060830184614065565b95945050505050565b60006060820190506143396000830186613f8b565b6143466020830185613f8b565b61435360408301846142d0565b949350505050565b600060a0820190506143706000830187613f8b565b61437d6020830186613f8b565b61438a60408301856142d0565b6143976060830184614083565b81810360808301526143a881614104565b905095945050505050565b6000610100820190506143c9600083018b613f8b565b6143d6602083018a613f8b565b6143e360408301896142d0565b6143f06060830188614083565b6143fd60808301876142d0565b61440a60a0830186614065565b61441760c0830185614065565b61442460e0830184614065565b9998505050505050505050565b600060a0820190506144466000830187613f8b565b6144536020830186613f8b565b61446060408301856142d0565b61446d60608301846142d0565b818103608083015261447e81614104565b905095945050505050565b60006101008201905061449f600083018b613f8b565b6144ac602083018a613f8b565b6144b960408301896142d0565b6144c660608301886142d0565b6144d360808301876142d0565b6144e060a0830186614065565b6144ed60c0830185614065565b6144fa60e0830184614065565b9998505050505050505050565b600060608201905061451c6000830186613f8b565b61452960208301856142d0565b818103604083015261453b81846140cb565b9050949350505050565b600060608201905061455a6000830186613f8b565b61456760208301856142d0565b61457460408301846142d0565b949350505050565b600060208201905081810360008301526145968184613f9a565b905092915050565b600060208201905081810360008301526145b88184613ff8565b905092915050565b60006020820190506145d56000830184614065565b92915050565b60006020820190506145f06000830184614074565b92915050565b6000602082019050818103600083015261461081846140cb565b905092915050565b6000602082019050818103600083015261463181614127565b9050919050565b600060208201905081810360008301526146518161414a565b9050919050565b600060208201905081810360008301526146718161416d565b9050919050565b600060208201905081810360008301526146928184614271565b905092915050565b60006020820190506146af60008301846142d0565b92915050565b60006060820190506146ca60008301866142d0565b81810360208301526146dc81856140cb565b90506146eb6040830184613f8b565b949350505050565b60006146fd61470e565b90506147098282614a2f565b919050565b6000604051905090565b600067ffffffffffffffff82111561473357614732614b31565b5b602082029050602081019050919050565b600067ffffffffffffffff82111561475f5761475e614b31565b5b61476882614b60565b9050602081019050919050565b600067ffffffffffffffff8211156147905761478f614b31565b5b61479982614b60565b9050602081019050919050565b6000819050602082019050919050565b6000819050602082019050919050565b600081519050919050565b600081519050919050565b600081519050919050565b6000602082019050919050565b6000602082019050919050565b600082825260208201905092915050565b600082825260208201905092915050565b600082825260208201905092915050565b600082825260208201905092915050565b600082825260208201905092915050565b60006148618261495c565b915061486c8361495c565b9250827fffffffffffffffffffffffffffffffffffffffffffffffffffffffffffffffff038211156148a1576148a0614ad3565b5b828201905092915050565b60006148b78261495c565b91506148c28361495c565b9250828210156148d5576148d4614ad3565b5b828203905092915050565b60006148eb8261493c565b9050919050565b60006148fd8261493c565b9050919050565b60008115159050919050565b60007fffffffff0000000000000000000000000000000000000000000000000000000082169050919050565b600073ffffffffffffffffffffffffffffffffffffffff82169050919050565b6000819050919050565b600060ff82169050919050565b600061497e82614997565b9050919050565b60006149908261495c565b9050919050565b60006149a2826149a9565b9050919050565b60006149b48261493c565b9050919050565b82818337600083830152505050565b60005b838110156149e85780820151818401526020810190506149cd565b838111156149f7576000848401525b50505050565b60006002820490506001821680614a1557607f821691505b60208210811415614a2957614a28614b02565b5b50919050565b614a3882614b60565b810181811067ffffffffffffffff82111715614a5757614a56614b31565b5b80604052505050565b6000614a6b8261495c565b91507fffffffffffffffffffffffffffffffffffffffffffffffffffffffffffffffff821415614a9e57614a9d614ad3565b5b600182019050919050565b6000614ab482614966565b915060ff821415614ac857614ac7614ad3565b5b600182019050919050565b7f4e487b7100000000000000000000000000000000000000000000000000000000600052601160045260246000fd5b7f4e487b7100000000000000000000000000000000000000000000000000000000600052602260045260246000fd5b7f4e487b7100000000000000000000000000000000000000000000000000000000600052604160045260246000fd5b6000601f19601f8301169050919050565b7f5b5d000000000000000000000000000000000000000000000000000000000000600082015250565b7f506c65617365207375626d6974207468652061736b696e67207072696365206960008201527f6e206f7264657220746f20636f6d706c65746520746865207075726368617365602082015250565b7f5265656e7472616e637947756172643a207265656e7472616e742063616c6c00600082015250565b7f5573657220416c72656164792072656769737465726564000000000000000000600082015250565b614c44816148e0565b8114614c4f57600080fd5b50565b614c5b81614910565b8114614c6657600080fd5b50565b614c728161495c565b8114614c7d57600080fd5b5056fea2646970667358221220b677a4c3493840e1c3bd412725d8c6e5458c7cb0a32a1671eaa80819ac76972064736f6c63430008030033",
  "immutableReferences": {},
  "source": "// \"SPDX-License-Identifier: UNLICENSED\"\npragma solidity ^ 0.8 .3;\n\nimport \"./ACHouseToken1155.sol\";\nimport \"./ACHouseToken721.sol\";\n\nimport \"@openzeppelin/contracts/utils/Counters.sol\";\nimport \"@openzeppelin/contracts/security/ReentrancyGuard.sol\";\n\n\nimport \"@openzeppelin/contracts/token/ERC721/utils/ERC721Holder.sol\";\nimport \"@openzeppelin/contracts/token/ERC1155/utils/ERC1155Holder.sol\";\n\ncontract ACHouse is ReentrancyGuard, ERC1155Holder, ERC721Holder {\n  using Counters for Counters.Counter;\n  Counters.Counter private _itemIds;\n  Counters.Counter private _itemsSold;\n  Counters.Counter private _fracItemIds;\n  Counters.Counter private _ngoIds;\n\n  address owner;\n\n  ACHouseToken1155 _multiToken;\n  ACHouseToken721 _nftToken;\n\n  /** Variables and Event Emitters */\n  struct AuctionPlace {\n    uint256 id;\n    string name;\n  } \n  struct Artist {\n    uint256 id;\n    string name;\n  }\n  struct Participant {\n    uint256 id;\n    string name;\n  }\n  struct NGO {\n    uint256 id;\n    string name;\n    address charityAddress;\n  }\n\n  uint auctionPlaceCount = 0;\n  uint artistCount = 0;\n  uint participantCount = 0;\n  uint ngoCount = 0;\n  NGO[] public ngoArray;\n  address[] RegisteredUserAddresses; // might be used??\n\n  // mapping address to type\n  mapping(address => AuctionPlace) AuctionPlaceMapping;\n  mapping(address => Artist) ArtistMapping;\n  mapping(address => Participant) ParticipantMapping;\n\n  mapping(uint256 => NGO) NgoMapping;\n  // User address maps to - Chaities and the donation amount. \n  mapping(address => mapping(address => uint256)) UserNGODonation;\n\n  struct MarketItem {\n    uint itemId;\n    address nftContract;\n    uint256 tokenId;\n    address payable seller;\n    address payable owner;\n    uint256 price;\n    uint256 amount;\n    uint256 charityId;\n    bool sold;\n    bool isMultiToken;\n    bool isRemoved;\n  }\n\n  mapping(uint256 => MarketItem) private idToMarketItem;\n  \n  //user mapping to itemSold array\n  mapping( address => uint256[]) userSoldItemMapping;\n  //user sold count mapp;\n  mapping ( address => uint256) userSoldCountMapping;\n  //user mapping to purchased item  array\n  mapping( address => uint256[]) userpurchasedItemMapping;\n  //user purchased count mapp;\n  mapping ( address => uint256) userPurchasedCountMapping;\n  \n  event MarketItemCreated(uint indexed itemId, address indexed nftContract, uint256 indexed tokenId, \n    address seller, address owner, uint256 price, uint256 amount, uint256 charityId, bool sold, bool isMultiToken, bool isRemoved);\n  \n  event MarketItemSold(uint indexed itemId, address indexed nftContract, uint256 indexed tokenId, \n    address seller, address owner, uint256 price, bool sold);\n\n  /*******************fractionalize NFT */\n  struct FractionalizeToken {\n    uint itemId;\n    address nftContract;\n    uint256 tokenId;\n    address payable seller;\n    address payable owner;\n    address fractionalContract;\n    uint256 shardId;\n    uint256 priceOfShard;\n    uint256 supplyMinted;\n    uint256 supplyRemaining;\n  }\n  // id to fracToken\n  mapping(uint256 => FractionalizeToken) idToFracToken;\n  //user purchase to id to amount purchased\n  mapping (address => mapping(uint256 => uint256)) userShardPurchaseAmount;\n\n\n  constructor(address _mToken, address _nToken) {\n    _multiToken = ACHouseToken1155(_mToken);\n    _nftToken = ACHouseToken721(_nToken);\n    owner = payable(msg.sender);\n  }\n\n  function addCharity(address charityAddress, string memory name) public {\n    _ngoIds.increment();\n    uint256 id = _ngoIds.current();\n    NGO memory charity = NGO(id, name, charityAddress);\n\n    NgoMapping[id] = charity;\n  }\n\n  function getCharityInfo(uint256 _id) public view returns(NGO memory) {\n    return NgoMapping[_id];\n  }\n  \n  /***************************************************************************************************************************************/\n  /**MarketPlace functionality */\n  function create1155MarketItem(address nftContract, uint256 tokenId, uint256 price, uint256 amount, uint256 _charityId) public payable nonReentrant returns (uint256){\n    //   require(price > 0, \"Price must be at least 1 wei\");\n    //   require(msg.value == listingPrice, \"Price must be equal to l_charityId\n\n    _itemIds.increment();\n    uint256 itemId = _itemIds.current();\n\n    MarketItem memory item = MarketItem(itemId, nftContract, tokenId, payable(msg.sender), payable(address(0)), price, 1, _charityId, false, true, false); // amount will always be 1. \n    idToMarketItem[itemId] = item;\n\n    IERC1155(nftContract).safeTransferFrom(msg.sender, address(this), tokenId, amount, '[]');\n\n    emit MarketItemCreated(itemId, nftContract, tokenId, msg.sender, address(0), price, amount, _charityId, false, true, false);\n\n    return itemId;\n  }\n\n  function create721MarketItem(address nftContract, uint256 tokenId, uint256 price, uint256 _charityId ) public payable nonReentrant returns (uint256){\n    // require(price > 0, \"Price must be at least 1 wei\");\n    // require(msg.value == listingPrice, \"Price must be equal to listing price\");\n\n    _itemIds.increment();\n    uint256 itemId = _itemIds.current();\n\n    MarketItem memory item = MarketItem(itemId, nftContract, tokenId, payable(msg.sender), payable(address(0)), price, 1, _charityId, false, true, false); // amount will always be 1. \n    idToMarketItem[itemId] = item;\n\n    IERC721(nftContract).transferFrom(msg.sender, address(this), tokenId);\n\n    emit MarketItemCreated(itemId, nftContract, tokenId, msg.sender, address(0), price, 1, _charityId, false, false, false);\n\n    return itemId;\n  }\n  \n  // Remove item from marketplace\n  function removeMarketPlaceItem( uint256 itemId) public {\n      \n      idToMarketItem[itemId].isRemoved = true;\n  }\n  \n  // re add item to marketplace\n  function addMarketPlaceItem( uint256 itemId) public {\n      \n      idToMarketItem[itemId].isRemoved = false;\n  }\n  \n  /* Creates the sale of a marketplace item */\n  /* Transfers ownership of the item, as well as funds between parties */\n  function createMarketSale(address nftContract, uint256 itemId) public payable nonReentrant {\n    \n    MarketItem memory item = idToMarketItem[itemId];\n    \n    uint price = item.price;\n    uint tokenId = item.tokenId;\n    bool isMultiToken = item.isMultiToken;\n    require(msg.value == price, \"Please submit the asking price in order to complete the purchase\");\n\n    // transfer funds\n    item.seller.transfer(msg.value);\n\n    //transfer ownership.\n    if(isMultiToken){\n      IERC1155(nftContract).safeTransferFrom(address(this), msg.sender, item.tokenId, item.amount, '[]');\n    }else{\n      IERC721(nftContract).transferFrom(address(this), msg.sender, tokenId);\n    }\n    \n    //set new owner inrecords.\n    item.owner = payable(msg.sender);\n    //set sold to true\n    item.sold = true;\n    //increament itemSold counter.\n    _itemsSold.increment();\n    \n    idToMarketItem[itemId] = item;\n    // mapp user address to itemSold [] and purchased[]\n    userSoldItemMapping[item.seller].push(itemId);\n    \n    //user mapping to purchased item  array\n    userpurchasedItemMapping[msg.sender].push(itemId);\n\n    emit MarketItemSold( itemId, nftContract, tokenId, item.seller, msg.sender, price, true);\n  }\n\n  /* Returns all unsold market items */\n  function fetchUnSoldMarketItems() public view returns(MarketItem[] memory) {\n    \n    uint totalUnSoldCount = _itemIds.current() - _itemsSold.current();\n    MarketItem[] memory items = new MarketItem[](totalUnSoldCount);\n    uint unsoldCurrentIndex = 0;\n    \n    uint totalItemCount = _itemIds.current();\n    \n    for(uint i=0; i < totalItemCount; i++){\n        // only way i found to iterate through a mapping. \n        if(idToMarketItem[i+1].owner == address(0) && idToMarketItem[i+1].isRemoved == false ) { \n            uint currentID = i+1;\n            items[unsoldCurrentIndex] = idToMarketItem[currentID];\n            unsoldCurrentIndex +=1;\n        }\n    }\n    \n    return items; \n  }\n\n  /* Returns only items that a user has purchased */\n  function fetchMyNFTs() public view returns (MarketItem[] memory) {\n    \n    uint256[] memory userPurchasedIds = userpurchasedItemMapping[msg.sender];\n    \n    \n    MarketItem[] memory items = new MarketItem[](userPurchasedIds.length);\n    for(uint i =0; i< userPurchasedIds.length; i++){\n        \n        // MarketItem memory item = idToMarketItem[userPurchasedIds[i]];\n        \n        items[i] = idToMarketItem[userPurchasedIds[i]];\n    }\n    return items;\n  }\n\n  /* Returns only items a user has created */\n  function fetchItemsCreated() public view returns (MarketItem[] memory) {\n    //get total item count - created nin MarketItem.\n    uint totalItemCount = _itemIds.current();\n    uint itemCount = 0;\n    \n    for (uint i = 0; i < totalItemCount; i++) {\n      if (idToMarketItem[i + 1].seller == msg.sender) {\n        itemCount += 1;\n      }\n    }\n\n    MarketItem[] memory items = new MarketItem[](itemCount);\n    uint currentIndex = 0;\n    \n    for (uint i = 0; i < totalItemCount; i++) {\n      if (idToMarketItem[i + 1].seller == msg.sender) {\n        uint currentId = i + 1;\n        MarketItem storage currentItem = idToMarketItem[currentId];\n        items[currentIndex] = currentItem;\n        currentIndex += 1;\n      }\n    }\n    return items;\n  }\n  \n  /***************************************************************************************************************************************/\n  /**Functions - Registration  */\n  function register(string memory _name, uint _userType) public returns(bool) {\n    require(isUserRegistered(msg.sender) == false, \"User Already registered\");\n\n    //userType { 1: Auction, 2: Artist, 3: Participant}\n    // register user by type\n    if (_userType == 1) {\n      AuctionPlace memory ac = AuctionPlace(auctionPlaceCount, _name);\n      auctionPlaceCount++;\n\n      AuctionPlaceMapping[msg.sender] = ac;\n    } else if (_userType == 2) {\n      Artist memory ar = Artist(artistCount, _name);\n      artistCount++;\n\n      ArtistMapping[msg.sender] = ar;\n    } else {\n      Participant memory part = Participant(participantCount, _name);\n      participantCount++;\n\n      ParticipantMapping[msg.sender] = part;\n    }\n\n    RegisteredUserAddresses.push(msg.sender);\n    return true;\n  }\n\n  /**ERC1155 functionality ***********************************************/\n  function setURI1155(string memory _uri) public {\n    _multiToken.setURI(_uri);\n  }\n\n  function getTokenURI(uint256 _tokenId) public view returns(string memory){\n    return _multiToken.getTokenURI(_tokenId);\n  }\n  // mint 1155 NFT - set supply to 1. \n  function createNFT1155(uint256 _id, uint256 _amount) public {\n    _multiToken.mintNFT(msg.sender, _id, _amount);\n  }\n\n  //get tokens totalnumber. \n  function getTokenCount() public view returns(uint256) {\n    return _multiToken.getTokenCount();\n  }\n  //returns the array of all tokenids. \n  function getTokenIds() public view returns(uint256[] memory) {\n    return _multiToken.getTokenIds();\n  }\n\n  function getTokenSupply(uint256 _tokenId) public view returns(uint256) {\n    return _multiToken.getTotalSupplyOfToken(_tokenId);\n  }\n\n  /*************Fractional NFT */\n\n  //hold NFT and trasnfer ownership to ACHouse. \n  // ACHouse will mint 1155 then set it to orig owner of nft. \n  function fractionalize1155NFT(address nftContract, uint256 tokenId, uint256 shardId, uint256 priceOfShard, uint256 supplyToCreate, string memory uri) public returns (uint256) {\n    _fracItemIds.increment();\n    uint fracId = _fracItemIds.current();\n\n    FractionalizeToken memory fracItem = FractionalizeToken(fracId, nftContract, tokenId, payable(msg.sender), \n      payable(address(0)), address(_multiToken), shardId, priceOfShard, supplyToCreate, supplyToCreate); // supplyMinted and SupplyRemaining will be set as same for now. \n    \n    idToFracToken[fracId] = fracItem;\n\n    //get ownership of nftContract and its token.\n    IERC1155(nftContract).safeTransferFrom(msg.sender, address(this), tokenId, 1, '[]');\n    \n    //Mint 1155 fungible tokens. \n    setURI1155(uri); // call functiont to set uRL in 1155 token\n    _multiToken.mintNFT(msg.sender, fracId, supplyToCreate); //shard tokens created and ownership set to msg.sender ( person who decided to frac nft.)\n    return fracId;\n  }\n\n  function fractionalize721NFT(address nftContract, uint256 tokenId, uint256 shardId, uint256 priceOfShard, uint256 supplyToCreate, string memory uri) public returns (uint256) {\n    _fracItemIds.increment();\n    uint fracId = _fracItemIds.current();\n    \n     FractionalizeToken memory fracItem = FractionalizeToken(fracId, nftContract, tokenId, payable(msg.sender), \n      payable(address(0)), address(_multiToken), shardId, priceOfShard, supplyToCreate, supplyToCreate); // supplyMinted and SupplyRemaining will be set as same for now. \n    \n    idToFracToken[fracId] = fracItem;\n\n    //get ownership of nftContract and its token.\n    IERC721(nftContract).transferFrom(msg.sender, address(this), tokenId);\n\n    //Mint 1155 fungible tokens.\n    setURI1155(uri); // call functiont to set uRL in 1155 token\n    _multiToken.mintNFT(msg.sender, fracId, supplyToCreate); //shard tokens created and ownership set to msg.sender ( person who decided to frac nft.)\n    return fracId;\n  }\n  \n  /**ERC721 functionzlity *************************************************/\n  // mint 721 NFT - set supply to 1. \n  function createNFT721(uint256 _id, string memory uri) public {\n    _nftToken.mintNFT(msg.sender, _id, uri);\n  }\n\n  //get tokens totalnumber. \n  function get721TokenCount() public view returns(uint256) {\n    return _nftToken.getTokenCount();\n  }\n  //returns the array of all tokenids. \n  function get721TokenIds() public view returns(uint256[] memory) {\n    return _nftToken.getTokenIds();\n  }\n\n  function get721TokenURI(uint256 _id) public view returns(string memory) {\n    return _nftToken.getTokenUri(_id);\n  }\n\n  /**Helpers */\n  function isUserRegistered(address _address) internal view returns(bool) {\n    for (uint8 j = 0; j < RegisteredUserAddresses.length; j++) {\n      if (RegisteredUserAddresses[j] == _address) {\n        return (true); // user is registered.\n      }\n    }\n    return (false); // user is not registered.\n  }\n  \n}",
  "sourcePath": "/home/dinesh/Projects/EthOnline/contracts/ACHouse.sol",
  "compiler": {
    "name": "solc",
    "version": "0.8.3+commit.8d00100c.Emscripten.clang"
  },
  "schemaVersion": "3.3.4",
  "updatedAt": "2021-10-08T13:39:53.368Z",
  "devdoc": {
    "kind": "dev",
    "methods": {
      "onERC721Received(address,address,uint256,bytes)": {
        "details": "See {IERC721Receiver-onERC721Received}. Always returns `IERC721Receiver.onERC721Received.selector`."
      },
      "supportsInterface(bytes4)": {
        "details": "See {IERC165-supportsInterface}."
      }
    },
    "version": 1
  },
  "userdoc": {
    "kind": "user",
    "methods": {
      "create1155MarketItem(address,uint256,uint256,uint256,uint256)": {
        "notice": "MarketPlace functionality "
      },
      "createNFT721(uint256,string)": {
        "notice": "ERC721 functionzlity ************************************************"
      },
      "register(string,uint256)": {
        "notice": "Functions - Registration  "
      },
      "setURI1155(string)": {
        "notice": "ERC1155 functionality **********************************************"
      }
    },
    "version": 1
  }
}