{
  "contractName": "ACHouse",
  "abi": [
    {
      "inputs": [
        {
          "internalType": "address",
          "name": "_mToken",
          "type": "address"
        },
        {
          "internalType": "address",
          "name": "_nToken",
          "type": "address"
        }
      ],
      "stateMutability": "nonpayable",
      "type": "constructor"
    },
    {
      "anonymous": false,
      "inputs": [
        {
          "indexed": true,
          "internalType": "uint256",
          "name": "itemId",
          "type": "uint256"
        },
        {
          "indexed": true,
          "internalType": "address",
          "name": "nftContract",
          "type": "address"
        },
        {
          "indexed": true,
          "internalType": "uint256",
          "name": "tokenId",
          "type": "uint256"
        },
        {
          "indexed": false,
          "internalType": "address",
          "name": "seller",
          "type": "address"
        },
        {
          "indexed": false,
          "internalType": "address",
          "name": "fractionalContract",
          "type": "address"
        },
        {
          "indexed": false,
          "internalType": "uint256",
          "name": "shardId",
          "type": "uint256"
        },
        {
          "indexed": false,
          "internalType": "uint256",
          "name": "supplyMinted",
          "type": "uint256"
        },
        {
          "indexed": false,
          "internalType": "uint256",
          "name": "supplyRemaining",
          "type": "uint256"
        },
        {
          "indexed": false,
          "internalType": "bool",
          "name": "isMultiToken",
          "type": "bool"
        }
      ],
      "name": "FractionalTokenCreated",
      "type": "event"
    },
    {
      "anonymous": false,
      "inputs": [
        {
          "indexed": true,
          "internalType": "uint256",
          "name": "itemId",
          "type": "uint256"
        },
        {
          "indexed": true,
          "internalType": "address",
          "name": "nftContract",
          "type": "address"
        },
        {
          "indexed": true,
          "internalType": "uint256",
          "name": "tokenId",
          "type": "uint256"
        },
        {
          "indexed": false,
          "internalType": "address",
          "name": "seller",
          "type": "address"
        },
        {
          "indexed": false,
          "internalType": "uint256",
          "name": "price",
          "type": "uint256"
        },
        {
          "indexed": false,
          "internalType": "uint256",
          "name": "amount",
          "type": "uint256"
        },
        {
          "indexed": false,
          "internalType": "uint256",
          "name": "charityId",
          "type": "uint256"
        },
        {
          "indexed": false,
          "internalType": "uint256",
          "name": "auctionTime",
          "type": "uint256"
        },
        {
          "indexed": false,
          "internalType": "bool",
          "name": "sold",
          "type": "bool"
        },
        {
          "indexed": false,
          "internalType": "bool",
          "name": "isMultiToken",
          "type": "bool"
        },
        {
          "indexed": false,
          "internalType": "bool",
          "name": "isRemoved",
          "type": "bool"
        },
        {
          "indexed": false,
          "internalType": "bool",
          "name": "isFrac",
          "type": "bool"
        }
      ],
      "name": "MarketItemCreated",
      "type": "event"
    },
    {
      "anonymous": false,
      "inputs": [
        {
          "indexed": true,
          "internalType": "uint256",
          "name": "itemId",
          "type": "uint256"
        },
        {
          "indexed": true,
          "internalType": "address",
          "name": "nftContract",
          "type": "address"
        },
        {
          "indexed": true,
          "internalType": "uint256",
          "name": "tokenId",
          "type": "uint256"
        },
        {
          "indexed": false,
          "internalType": "address",
          "name": "seller",
          "type": "address"
        },
        {
          "indexed": false,
          "internalType": "address",
          "name": "owner",
          "type": "address"
        },
        {
          "indexed": false,
          "internalType": "uint256",
          "name": "price",
          "type": "uint256"
        },
        {
          "indexed": false,
          "internalType": "bool",
          "name": "sold",
          "type": "bool"
        }
      ],
      "name": "MarketItemSold",
      "type": "event"
    },
    {
      "inputs": [
        {
          "internalType": "uint256",
          "name": "",
          "type": "uint256"
        }
      ],
      "name": "ngoArray",
      "outputs": [
        {
          "internalType": "uint256",
          "name": "id",
          "type": "uint256"
        },
        {
          "internalType": "string",
          "name": "name",
          "type": "string"
        },
        {
          "internalType": "address",
          "name": "charityAddress",
          "type": "address"
        }
      ],
      "stateMutability": "view",
      "type": "function"
    },
    {
      "inputs": [
        {
          "internalType": "address",
          "name": "",
          "type": "address"
        },
        {
          "internalType": "address",
          "name": "",
          "type": "address"
        },
        {
          "internalType": "uint256[]",
          "name": "",
          "type": "uint256[]"
        },
        {
          "internalType": "uint256[]",
          "name": "",
          "type": "uint256[]"
        },
        {
          "internalType": "bytes",
          "name": "",
          "type": "bytes"
        }
      ],
      "name": "onERC1155BatchReceived",
      "outputs": [
        {
          "internalType": "bytes4",
          "name": "",
          "type": "bytes4"
        }
      ],
      "stateMutability": "nonpayable",
      "type": "function"
    },
    {
      "inputs": [
        {
          "internalType": "address",
          "name": "",
          "type": "address"
        },
        {
          "internalType": "address",
          "name": "",
          "type": "address"
        },
        {
          "internalType": "uint256",
          "name": "",
          "type": "uint256"
        },
        {
          "internalType": "uint256",
          "name": "",
          "type": "uint256"
        },
        {
          "internalType": "bytes",
          "name": "",
          "type": "bytes"
        }
      ],
      "name": "onERC1155Received",
      "outputs": [
        {
          "internalType": "bytes4",
          "name": "",
          "type": "bytes4"
        }
      ],
      "stateMutability": "nonpayable",
      "type": "function"
    },
    {
      "inputs": [
        {
          "internalType": "address",
          "name": "",
          "type": "address"
        },
        {
          "internalType": "address",
          "name": "",
          "type": "address"
        },
        {
          "internalType": "uint256",
          "name": "",
          "type": "uint256"
        },
        {
          "internalType": "bytes",
          "name": "",
          "type": "bytes"
        }
      ],
      "name": "onERC721Received",
      "outputs": [
        {
          "internalType": "bytes4",
          "name": "",
          "type": "bytes4"
        }
      ],
      "stateMutability": "nonpayable",
      "type": "function"
    },
    {
      "inputs": [
        {
          "internalType": "bytes4",
          "name": "interfaceId",
          "type": "bytes4"
        }
      ],
      "name": "supportsInterface",
      "outputs": [
        {
          "internalType": "bool",
          "name": "",
          "type": "bool"
        }
      ],
      "stateMutability": "view",
      "type": "function"
    },
    {
      "inputs": [
        {
          "internalType": "address",
          "name": "charityAddress",
          "type": "address"
        },
        {
          "internalType": "string",
          "name": "name",
          "type": "string"
        }
      ],
      "name": "addCharity",
      "outputs": [],
      "stateMutability": "nonpayable",
      "type": "function"
    },
    {
      "inputs": [
        {
          "internalType": "uint256",
          "name": "_id",
          "type": "uint256"
        }
      ],
      "name": "getCharityInfo",
      "outputs": [
        {
          "components": [
            {
              "internalType": "uint256",
              "name": "id",
              "type": "uint256"
            },
            {
              "internalType": "string",
              "name": "name",
              "type": "string"
            },
            {
              "internalType": "address",
              "name": "charityAddress",
              "type": "address"
            }
          ],
          "internalType": "struct ACHouse.NGO",
          "name": "",
          "type": "tuple"
        }
      ],
      "stateMutability": "view",
      "type": "function"
    },
    {
      "inputs": [
        {
          "internalType": "address",
          "name": "nftContract",
          "type": "address"
        },
        {
          "internalType": "uint256",
          "name": "tokenId",
          "type": "uint256"
        },
        {
          "internalType": "uint256",
          "name": "price",
          "type": "uint256"
        },
        {
          "internalType": "uint256",
          "name": "amount",
          "type": "uint256"
        },
        {
          "internalType": "uint256",
          "name": "_charityId",
          "type": "uint256"
        },
        {
          "internalType": "uint256",
          "name": "auctionTime",
          "type": "uint256"
        },
        {
          "internalType": "bool",
          "name": "isFrac",
          "type": "bool"
        }
      ],
      "name": "create1155MarketItem",
      "outputs": [
        {
          "internalType": "uint256",
          "name": "",
          "type": "uint256"
        }
      ],
      "stateMutability": "payable",
      "type": "function"
    },
    {
      "inputs": [
        {
          "internalType": "address",
          "name": "nftContract",
          "type": "address"
        },
        {
          "internalType": "uint256",
          "name": "tokenId",
          "type": "uint256"
        },
        {
          "internalType": "uint256",
          "name": "price",
          "type": "uint256"
        },
        {
          "internalType": "uint256",
          "name": "_charityId",
          "type": "uint256"
        },
        {
          "internalType": "uint256",
          "name": "auctionTime",
          "type": "uint256"
        },
        {
          "internalType": "bool",
          "name": "isFrac",
          "type": "bool"
        }
      ],
      "name": "create721MarketItem",
      "outputs": [
        {
          "internalType": "uint256",
          "name": "",
          "type": "uint256"
        }
      ],
      "stateMutability": "payable",
      "type": "function"
    },
    {
      "inputs": [
        {
          "internalType": "uint256",
          "name": "itemId",
          "type": "uint256"
        }
      ],
      "name": "removeMarketPlaceItem",
      "outputs": [],
      "stateMutability": "nonpayable",
      "type": "function"
    },
    {
      "inputs": [
        {
          "internalType": "uint256",
          "name": "itemId",
          "type": "uint256"
        }
      ],
      "name": "addMarketPlaceItem",
      "outputs": [],
      "stateMutability": "nonpayable",
      "type": "function"
    },
    {
      "inputs": [
        {
          "internalType": "address",
          "name": "nftContract",
          "type": "address"
        },
        {
          "internalType": "uint256",
          "name": "itemId",
          "type": "uint256"
        }
      ],
      "name": "createMarketSale",
      "outputs": [],
      "stateMutability": "payable",
      "type": "function"
    },
    {
      "inputs": [
        {
          "internalType": "uint256",
          "name": "_id",
          "type": "uint256"
        }
      ],
      "name": "fetchMarketItem",
      "outputs": [
        {
          "components": [
            {
              "internalType": "uint256",
              "name": "itemId",
              "type": "uint256"
            },
            {
              "internalType": "address",
              "name": "nftContract",
              "type": "address"
            },
            {
              "internalType": "uint256",
              "name": "tokenId",
              "type": "uint256"
            },
            {
              "internalType": "address payable",
              "name": "seller",
              "type": "address"
            },
            {
              "internalType": "address payable",
              "name": "owner",
              "type": "address"
            },
            {
              "internalType": "uint256",
              "name": "price",
              "type": "uint256"
            },
            {
              "internalType": "uint256",
              "name": "amount",
              "type": "uint256"
            },
            {
              "internalType": "uint256",
              "name": "charityId",
              "type": "uint256"
            },
            {
              "internalType": "uint256",
              "name": "auctionTime",
              "type": "uint256"
            },
            {
              "internalType": "bool",
              "name": "sold",
              "type": "bool"
            },
            {
              "internalType": "bool",
              "name": "isMultiToken",
              "type": "bool"
            },
            {
              "internalType": "bool",
              "name": "isRemoved",
              "type": "bool"
            },
            {
              "internalType": "bool",
              "name": "isFrac",
              "type": "bool"
            }
          ],
          "internalType": "struct ACHouse.MarketItem",
          "name": "",
          "type": "tuple"
        }
      ],
      "stateMutability": "view",
      "type": "function"
    },
    {
      "inputs": [],
      "name": "fetchUnSoldMarketItems",
      "outputs": [
        {
          "components": [
            {
              "internalType": "uint256",
              "name": "itemId",
              "type": "uint256"
            },
            {
              "internalType": "address",
              "name": "nftContract",
              "type": "address"
            },
            {
              "internalType": "uint256",
              "name": "tokenId",
              "type": "uint256"
            },
            {
              "internalType": "address payable",
              "name": "seller",
              "type": "address"
            },
            {
              "internalType": "address payable",
              "name": "owner",
              "type": "address"
            },
            {
              "internalType": "uint256",
              "name": "price",
              "type": "uint256"
            },
            {
              "internalType": "uint256",
              "name": "amount",
              "type": "uint256"
            },
            {
              "internalType": "uint256",
              "name": "charityId",
              "type": "uint256"
            },
            {
              "internalType": "uint256",
              "name": "auctionTime",
              "type": "uint256"
            },
            {
              "internalType": "bool",
              "name": "sold",
              "type": "bool"
            },
            {
              "internalType": "bool",
              "name": "isMultiToken",
              "type": "bool"
            },
            {
              "internalType": "bool",
              "name": "isRemoved",
              "type": "bool"
            },
            {
              "internalType": "bool",
              "name": "isFrac",
              "type": "bool"
            }
          ],
          "internalType": "struct ACHouse.MarketItem[]",
          "name": "",
          "type": "tuple[]"
        }
      ],
      "stateMutability": "view",
      "type": "function"
    },
    {
      "inputs": [],
      "name": "fetchMyNFTs",
      "outputs": [
        {
          "components": [
            {
              "internalType": "uint256",
              "name": "itemId",
              "type": "uint256"
            },
            {
              "internalType": "address",
              "name": "nftContract",
              "type": "address"
            },
            {
              "internalType": "uint256",
              "name": "tokenId",
              "type": "uint256"
            },
            {
              "internalType": "address payable",
              "name": "seller",
              "type": "address"
            },
            {
              "internalType": "address payable",
              "name": "owner",
              "type": "address"
            },
            {
              "internalType": "uint256",
              "name": "price",
              "type": "uint256"
            },
            {
              "internalType": "uint256",
              "name": "amount",
              "type": "uint256"
            },
            {
              "internalType": "uint256",
              "name": "charityId",
              "type": "uint256"
            },
            {
              "internalType": "uint256",
              "name": "auctionTime",
              "type": "uint256"
            },
            {
              "internalType": "bool",
              "name": "sold",
              "type": "bool"
            },
            {
              "internalType": "bool",
              "name": "isMultiToken",
              "type": "bool"
            },
            {
              "internalType": "bool",
              "name": "isRemoved",
              "type": "bool"
            },
            {
              "internalType": "bool",
              "name": "isFrac",
              "type": "bool"
            }
          ],
          "internalType": "struct ACHouse.MarketItem[]",
          "name": "",
          "type": "tuple[]"
        }
      ],
      "stateMutability": "view",
      "type": "function"
    },
    {
      "inputs": [],
      "name": "fetchItemsCreated",
      "outputs": [
        {
          "components": [
            {
              "internalType": "uint256",
              "name": "itemId",
              "type": "uint256"
            },
            {
              "internalType": "address",
              "name": "nftContract",
              "type": "address"
            },
            {
              "internalType": "uint256",
              "name": "tokenId",
              "type": "uint256"
            },
            {
              "internalType": "address payable",
              "name": "seller",
              "type": "address"
            },
            {
              "internalType": "address payable",
              "name": "owner",
              "type": "address"
            },
            {
              "internalType": "uint256",
              "name": "price",
              "type": "uint256"
            },
            {
              "internalType": "uint256",
              "name": "amount",
              "type": "uint256"
            },
            {
              "internalType": "uint256",
              "name": "charityId",
              "type": "uint256"
            },
            {
              "internalType": "uint256",
              "name": "auctionTime",
              "type": "uint256"
            },
            {
              "internalType": "bool",
              "name": "sold",
              "type": "bool"
            },
            {
              "internalType": "bool",
              "name": "isMultiToken",
              "type": "bool"
            },
            {
              "internalType": "bool",
              "name": "isRemoved",
              "type": "bool"
            },
            {
              "internalType": "bool",
              "name": "isFrac",
              "type": "bool"
            }
          ],
          "internalType": "struct ACHouse.MarketItem[]",
          "name": "",
          "type": "tuple[]"
        }
      ],
      "stateMutability": "view",
      "type": "function"
    },
    {
      "inputs": [
        {
          "internalType": "string",
          "name": "_name",
          "type": "string"
        },
        {
          "internalType": "uint256",
          "name": "_userType",
          "type": "uint256"
        }
      ],
      "name": "register",
      "outputs": [
        {
          "internalType": "bool",
          "name": "",
          "type": "bool"
        }
      ],
      "stateMutability": "nonpayable",
      "type": "function"
    },
    {
      "inputs": [
        {
          "internalType": "string",
          "name": "_uri",
          "type": "string"
        }
      ],
      "name": "setURI1155",
      "outputs": [],
      "stateMutability": "nonpayable",
      "type": "function"
    },
    {
      "inputs": [
        {
          "internalType": "uint256",
          "name": "_tokenId",
          "type": "uint256"
        }
      ],
      "name": "getTokenURI",
      "outputs": [
        {
          "internalType": "string",
          "name": "",
          "type": "string"
        }
      ],
      "stateMutability": "view",
      "type": "function"
    },
    {
      "inputs": [
        {
          "internalType": "uint256",
          "name": "_id",
          "type": "uint256"
        },
        {
          "internalType": "uint256",
          "name": "_amount",
          "type": "uint256"
        }
      ],
      "name": "createNFT1155",
      "outputs": [],
      "stateMutability": "nonpayable",
      "type": "function"
    },
    {
      "inputs": [],
      "name": "getTokenCount",
      "outputs": [
        {
          "internalType": "uint256",
          "name": "",
          "type": "uint256"
        }
      ],
      "stateMutability": "view",
      "type": "function"
    },
    {
      "inputs": [],
      "name": "getTokenIds",
      "outputs": [
        {
          "internalType": "uint256[]",
          "name": "",
          "type": "uint256[]"
        }
      ],
      "stateMutability": "view",
      "type": "function"
    },
    {
      "inputs": [
        {
          "internalType": "uint256",
          "name": "_tokenId",
          "type": "uint256"
        }
      ],
      "name": "getTokenSupply",
      "outputs": [
        {
          "internalType": "uint256",
          "name": "",
          "type": "uint256"
        }
      ],
      "stateMutability": "view",
      "type": "function"
    },
    {
      "inputs": [
        {
          "internalType": "address",
          "name": "nftContract",
          "type": "address"
        },
        {
          "internalType": "uint256",
          "name": "tokenId",
          "type": "uint256"
        },
        {
          "internalType": "uint256",
          "name": "shardId",
          "type": "uint256"
        },
        {
          "internalType": "uint256",
          "name": "supplyToCreate",
          "type": "uint256"
        },
        {
          "internalType": "string",
          "name": "uri",
          "type": "string"
        }
      ],
      "name": "fractionalize1155NFT",
      "outputs": [
        {
          "internalType": "uint256",
          "name": "",
          "type": "uint256"
        }
      ],
      "stateMutability": "nonpayable",
      "type": "function"
    },
    {
      "inputs": [
        {
          "internalType": "address",
          "name": "nftContract",
          "type": "address"
        },
        {
          "internalType": "uint256",
          "name": "tokenId",
          "type": "uint256"
        },
        {
          "internalType": "uint256",
          "name": "shardId",
          "type": "uint256"
        },
        {
          "internalType": "uint256",
          "name": "supplyToCreate",
          "type": "uint256"
        },
        {
          "internalType": "string",
          "name": "uri",
          "type": "string"
        }
      ],
      "name": "fractionalize721NFT",
      "outputs": [
        {
          "internalType": "uint256",
          "name": "",
          "type": "uint256"
        }
      ],
      "stateMutability": "nonpayable",
      "type": "function"
    },
    {
      "inputs": [
        {
          "internalType": "uint256",
          "name": "_fracId",
          "type": "uint256"
        }
      ],
      "name": "getFractionalInformation",
      "outputs": [
        {
          "components": [
            {
              "internalType": "uint256",
              "name": "itemId",
              "type": "uint256"
            },
            {
              "internalType": "address",
              "name": "nftContract",
              "type": "address"
            },
            {
              "internalType": "uint256",
              "name": "tokenId",
              "type": "uint256"
            },
            {
              "internalType": "address payable",
              "name": "seller",
              "type": "address"
            },
            {
              "internalType": "address payable",
              "name": "owner",
              "type": "address"
            },
            {
              "internalType": "address",
              "name": "fractionalContract",
              "type": "address"
            },
            {
              "internalType": "uint256",
              "name": "shardId",
              "type": "uint256"
            },
            {
              "internalType": "uint256",
              "name": "supplyMinted",
              "type": "uint256"
            },
            {
              "internalType": "uint256",
              "name": "supplyRemaining",
              "type": "uint256"
            },
            {
              "internalType": "bool",
              "name": "isMultiToken",
              "type": "bool"
            }
          ],
          "internalType": "struct ACHouse.FractionalizeToken",
          "name": "",
          "type": "tuple"
        }
      ],
      "stateMutability": "view",
      "type": "function"
    },
    {
      "inputs": [
        {
          "internalType": "uint256",
          "name": "_id",
          "type": "uint256"
        },
        {
          "internalType": "string",
          "name": "uri",
          "type": "string"
        },
        {
          "internalType": "string",
          "name": "name",
          "type": "string"
        },
        {
          "internalType": "string",
          "name": "symbol",
          "type": "string"
        }
      ],
      "name": "createNFT721",
      "outputs": [],
      "stateMutability": "nonpayable",
      "type": "function"
    },
    {
      "inputs": [],
      "name": "get721TokenCount",
      "outputs": [
        {
          "internalType": "uint256",
          "name": "",
          "type": "uint256"
        }
      ],
      "stateMutability": "view",
      "type": "function"
    },
    {
      "inputs": [],
      "name": "get721TokenIds",
      "outputs": [
        {
          "internalType": "uint256[]",
          "name": "",
          "type": "uint256[]"
        }
      ],
      "stateMutability": "view",
      "type": "function"
    },
    {
      "inputs": [
        {
          "internalType": "uint256",
          "name": "_id",
          "type": "uint256"
        }
      ],
      "name": "get721TokenName",
      "outputs": [
        {
          "internalType": "string",
          "name": "",
          "type": "string"
        }
      ],
      "stateMutability": "view",
      "type": "function"
    },
    {
      "inputs": [
        {
          "internalType": "uint256",
          "name": "_id",
          "type": "uint256"
        }
      ],
      "name": "get721TokenSymbol",
      "outputs": [
        {
          "internalType": "string",
          "name": "",
          "type": "string"
        }
      ],
      "stateMutability": "view",
      "type": "function"
    },
    {
      "inputs": [
        {
          "internalType": "uint256",
          "name": "_id",
          "type": "uint256"
        }
      ],
      "name": "get721TokenURI",
      "outputs": [
        {
          "internalType": "string",
          "name": "",
          "type": "string"
        }
      ],
      "stateMutability": "view",
      "type": "function"
    },
    {
      "inputs": [
        {
          "internalType": "uint256",
          "name": "v",
          "type": "uint256"
        }
      ],
      "name": "uint2str",
      "outputs": [
        {
          "internalType": "string",
          "name": "",
          "type": "string"
        }
      ],
      "stateMutability": "pure",
      "type": "function"
    }
  ],
  "bytecode": "0x608060405260006009556000600a556000600b556000600c553480156200002557600080fd5b50604051620060a9380380620060a983398181016040528101906200004b919062000257565b600160008190555081600660006101000a81548173ffffffffffffffffffffffffffffffffffffffff021916908373ffffffffffffffffffffffffffffffffffffffff16021790555080600760006101000a81548173ffffffffffffffffffffffffffffffffffffffff021916908373ffffffffffffffffffffffffffffffffffffffff160217905550600660009054906101000a900473ffffffffffffffffffffffffffffffffffffffff1673ffffffffffffffffffffffffffffffffffffffff1663fa5afe40306040518263ffffffff1660e01b8152600401620001329190620002a9565b600060405180830381600087803b1580156200014d57600080fd5b505af115801562000162573d6000803e3d6000fd5b50505050600760009054906101000a900473ffffffffffffffffffffffffffffffffffffffff1673ffffffffffffffffffffffffffffffffffffffff1663fa5afe40306040518263ffffffff1660e01b8152600401620001c39190620002a9565b600060405180830381600087803b158015620001de57600080fd5b505af1158015620001f3573d6000803e3d6000fd5b5050505033600560006101000a81548173ffffffffffffffffffffffffffffffffffffffff021916908373ffffffffffffffffffffffffffffffffffffffff160217905550505062000314565b6000815190506200025181620002fa565b92915050565b600080604083850312156200026b57600080fd5b60006200027b8582860162000240565b92505060206200028e8582860162000240565b9150509250929050565b620002a381620002c6565b82525050565b6000602082019050620002c0600083018462000298565b92915050565b6000620002d382620002da565b9050919050565b600073ffffffffffffffffffffffffffffffffffffffff82169050919050565b6200030581620002c6565b81146200031157600080fd5b50565b615d8580620003246000396000f3fe6080604052600436106101ee5760003560e01c806372f7bec81161010d578063bc197c81116100a0578063e95fcc4c1161006f578063e95fcc4c14610782578063ea87152b146107bf578063f064c32e146107fc578063f23a6e6114610827578063f76f950e14610864576101ee565b8063bc197c81146106d5578063c23b139e14610712578063dbcd674e1461072e578063dce9fc1114610759576101ee565b80639c79afb3116100dc5780639c79afb3146105f35780639ca7aac714610632578063ad3ec90c1461066f578063af8e6c39146106ac576101ee565b806372f7bec81461054b57806378a8956714610574578063833564971461059f578063953e8267146105c8576101ee565b80633bb3a24d116101855780635490b356116101545780635490b3561461047657806367f718a9146104b35780636b3ed26f146104de5780636b4d95331461051b576101ee565b80633bb3a24d146103a35780633e52a165146103e057806343404be1146104095780634f31d0d814610446576101ee565b8063202e3740116101c1578063202e3740146102d357806325762e57146102fe5780632a45b2501461033b578063382edbcf14610378576101ee565b806301ffc9a7146101f3578063145eca8c14610230578063150b7a021461025957806319b88edb14610296575b600080fd5b3480156101ff57600080fd5b5061021a60048036038101906102159190614a3a565b6108a1565b60405161022791906155af565b60405180910390f35b34801561023c57600080fd5b5061025760048036038101906102529190614b39565b61091b565b005b34801561026557600080fd5b50610280600480360381019061027b91906146a9565b61094d565b60405161028d91906155ca565b60405180910390f35b3480156102a257600080fd5b506102bd60048036038101906102b89190614b39565b610961565b6040516102ca91906156c1565b60405180910390f35b3480156102df57600080fd5b506102e8610a15565b6040516102f5919061556b565b60405180910390f35b34801561030a57600080fd5b5061032560048036038101906103209190614b39565b610d9d565b60405161033291906155e5565b60405180910390f35b34801561034757600080fd5b50610362600480360381019061035d9190614b39565b610e56565b60405161036f9190615683565b60405180910390f35b34801561038457600080fd5b5061038d61102e565b60405161039a919061556b565b60405180910390f35b3480156103af57600080fd5b506103ca60048036038101906103c59190614b39565b6113f3565b6040516103d791906155e5565b60405180910390f35b3480156103ec57600080fd5b5061040760048036038101906104029190614b39565b6114ac565b005b34801561041557600080fd5b50610430600480360381019061042b9190614b39565b6114de565b60405161043d919061569f565b60405180910390f35b610460600480360381019061045b919061495b565b6115fd565b60405161046d91906156c1565b60405180910390f35b34801561048257600080fd5b5061049d60048036038101906104989190614843565b6119a8565b6040516104aa91906156c1565b60405180910390f35b3480156104bf57600080fd5b506104c8611da8565b6040516104d5919061558d565b60405180910390f35b3480156104ea57600080fd5b5061050560048036038101906105009190614b39565b611e54565b60405161051291906155e5565b60405180910390f35b610535600480360381019061053091906148d2565b611f0d565b60405161054291906156c1565b60405180910390f35b34801561055757600080fd5b50610572600480360381019061056d91906147b3565b6122b6565b005b34801561058057600080fd5b5061058961238e565b60405161059691906156c1565b60405180910390f35b3480156105ab57600080fd5b506105c660048036038101906105c19190614b8b565b612435565b005b3480156105d457600080fd5b506105dd6124d0565b6040516105ea919061558d565b60405180910390f35b3480156105ff57600080fd5b5061061a60048036038101906106159190614b39565b61257c565b604051610629939291906156dc565b60405180910390f35b34801561063e57600080fd5b5061065960048036038101906106549190614b39565b61265e565b60405161066691906155e5565b60405180910390f35b34801561067b57600080fd5b5061069660048036038101906106919190614843565b612717565b6040516106a391906156c1565b60405180910390f35b3480156106b857600080fd5b506106d360048036038101906106ce9190614a63565b612b14565b005b3480156106e157600080fd5b506106fc60048036038101906106f791906145ea565b612ba4565b60405161070991906155ca565b60405180910390f35b61072c60048036038101906107279190614807565b612bb9565b005b34801561073a57600080fd5b506107436132ad565b60405161075091906156c1565b60405180910390f35b34801561076557600080fd5b50610780600480360381019061077b9190614c36565b613354565b005b34801561078e57600080fd5b506107a960048036038101906107a49190614b39565b6133e9565b6040516107b69190615667565b60405180910390f35b3480156107cb57600080fd5b506107e660048036038101906107e19190614ae5565b6135c2565b6040516107f391906155af565b60405180910390f35b34801561080857600080fd5b50610811613877565b60405161081e919061556b565b60405180910390f35b34801561083357600080fd5b5061084e60048036038101906108499190614724565b613c80565b60405161085b91906155ca565b60405180910390f35b34801561087057600080fd5b5061088b60048036038101906108869190614b39565b613c95565b60405161089891906155e5565b60405180910390f35b60007f4e2312e0000000000000000000000000000000000000000000000000000000007bffffffffffffffffffffffffffffffffffffffffffffffffffffffff1916827bffffffffffffffffffffffffffffffffffffffffffffffffffffffff19161480610914575061091382613f7b565b5b9050919050565b60016014600083815260200190815260200160002060090160026101000a81548160ff02191690831515021790555050565b600063150b7a0260e01b9050949350505050565b6000600660009054906101000a900473ffffffffffffffffffffffffffffffffffffffff1673ffffffffffffffffffffffffffffffffffffffff166397492c1c836040518263ffffffff1660e01b81526004016109be91906156c1565b60206040518083038186803b1580156109d657600080fd5b505afa1580156109ea573d6000803e3d6000fd5b505050506040513d601f19601f82011682018060405250810190610a0e9190614b62565b9050919050565b60606000601760003373ffffffffffffffffffffffffffffffffffffffff1673ffffffffffffffffffffffffffffffffffffffff168152602001908152602001600020805480602002602001604051908101604052809291908181526020018280548015610aa257602002820191906000526020600020905b815481526020019060010190808311610a8e575b505050505090506000815167ffffffffffffffff811115610aec577f4e487b7100000000000000000000000000000000000000000000000000000000600052604160045260246000fd5b604051908082528060200260200182016040528015610b2557816020015b610b126140e4565b815260200190600190039081610b0a5790505b50905060005b8251811015610d945760146000848381518110610b71577f4e487b7100000000000000000000000000000000000000000000000000000000600052603260045260246000fd5b60200260200101518152602001908152602001600020604051806101a0016040529081600082015481526020016001820160009054906101000a900473ffffffffffffffffffffffffffffffffffffffff1673ffffffffffffffffffffffffffffffffffffffff1673ffffffffffffffffffffffffffffffffffffffff168152602001600282015481526020016003820160009054906101000a900473ffffffffffffffffffffffffffffffffffffffff1673ffffffffffffffffffffffffffffffffffffffff1673ffffffffffffffffffffffffffffffffffffffff1681526020016004820160009054906101000a900473ffffffffffffffffffffffffffffffffffffffff1673ffffffffffffffffffffffffffffffffffffffff1673ffffffffffffffffffffffffffffffffffffffff168152602001600582015481526020016006820154815260200160078201548152602001600882015481526020016009820160009054906101000a900460ff161515151581526020016009820160019054906101000a900460ff161515151581526020016009820160029054906101000a900460ff161515151581526020016009820160039054906101000a900460ff161515151581525050828281518110610d76577f4e487b7100000000000000000000000000000000000000000000000000000000600052603260045260246000fd5b60200260200101819052508080610d8c90615ab8565b915050610b2b565b50809250505090565b6060600760009054906101000a900473ffffffffffffffffffffffffffffffffffffffff1673ffffffffffffffffffffffffffffffffffffffff16638ad91345836040518263ffffffff1660e01b8152600401610dfa91906156c1565b60006040518083038186803b158015610e1257600080fd5b505afa158015610e26573d6000803e3d6000fd5b505050506040513d6000823e3d601f19601f82011682018060405250810190610e4f9190614aa4565b9050919050565b610e5e6140e4565b60146000838152602001908152602001600020604051806101a0016040529081600082015481526020016001820160009054906101000a900473ffffffffffffffffffffffffffffffffffffffff1673ffffffffffffffffffffffffffffffffffffffff1673ffffffffffffffffffffffffffffffffffffffff168152602001600282015481526020016003820160009054906101000a900473ffffffffffffffffffffffffffffffffffffffff1673ffffffffffffffffffffffffffffffffffffffff1673ffffffffffffffffffffffffffffffffffffffff1681526020016004820160009054906101000a900473ffffffffffffffffffffffffffffffffffffffff1673ffffffffffffffffffffffffffffffffffffffff1673ffffffffffffffffffffffffffffffffffffffff168152602001600582015481526020016006820154815260200160078201548152602001600882015481526020016009820160009054906101000a900460ff161515151581526020016009820160019054906101000a900460ff161515151581526020016009820160029054906101000a900460ff161515151581526020016009820160039054906101000a900460ff1615151515815250509050919050565b6060600061103c6002613fe5565b6110466001613fe5565b6110509190615904565b905060008167ffffffffffffffff811115611094577f4e487b7100000000000000000000000000000000000000000000000000000000600052604160045260246000fd5b6040519080825280602002602001820160405280156110cd57816020015b6110ba6140e4565b8152602001906001900390816110b25790505b5090506000806110dd6001613fe5565b905060005b818110156113e857600073ffffffffffffffffffffffffffffffffffffffff1660146000600184611113919061587d565b815260200190815260200160002060040160009054906101000a900473ffffffffffffffffffffffffffffffffffffffff1673ffffffffffffffffffffffffffffffffffffffff1614801561119b57506000151560146000600184611178919061587d565b815260200190815260200160002060090160029054906101000a900460ff161515145b156113d55760006001826111af919061587d565b9050600060146000838152602001908152602001600020905080604051806101a0016040529081600082015481526020016001820160009054906101000a900473ffffffffffffffffffffffffffffffffffffffff1673ffffffffffffffffffffffffffffffffffffffff1673ffffffffffffffffffffffffffffffffffffffff168152602001600282015481526020016003820160009054906101000a900473ffffffffffffffffffffffffffffffffffffffff1673ffffffffffffffffffffffffffffffffffffffff1673ffffffffffffffffffffffffffffffffffffffff1681526020016004820160009054906101000a900473ffffffffffffffffffffffffffffffffffffffff1673ffffffffffffffffffffffffffffffffffffffff1673ffffffffffffffffffffffffffffffffffffffff168152602001600582015481526020016006820154815260200160078201548152602001600882015481526020016009820160009054906101000a900460ff161515151581526020016009820160019054906101000a900460ff161515151581526020016009820160029054906101000a900460ff161515151581526020016009820160039054906101000a900460ff1615151515815250508686815181106113b8577f4e487b7100000000000000000000000000000000000000000000000000000000600052603260045260246000fd5b60200260200101819052506001856113d0919061587d565b945050505b80806113e090615ab8565b9150506110e2565b508294505050505090565b6060600660009054906101000a900473ffffffffffffffffffffffffffffffffffffffff1673ffffffffffffffffffffffffffffffffffffffff16633bb3a24d836040518263ffffffff1660e01b815260040161145091906156c1565b60006040518083038186803b15801561146857600080fd5b505afa15801561147c573d6000803e3d6000fd5b505050506040513d6000823e3d601f19601f820116820180604052508101906114a59190614aa4565b9050919050565b60006014600083815260200190815260200160002060090160026101000a81548160ff02191690831515021790555050565b6114e6614196565b601260008381526020019081526020016000206040518060600160405290816000820154815260200160018201805461151e90615a55565b80601f016020809104026020016040519081016040528092919081815260200182805461154a90615a55565b80156115975780601f1061156c57610100808354040283529160200191611597565b820191906000526020600020905b81548152906001019060200180831161157a57829003601f168201915b505050505081526020016002820160009054906101000a900473ffffffffffffffffffffffffffffffffffffffff1673ffffffffffffffffffffffffffffffffffffffff1673ffffffffffffffffffffffffffffffffffffffff16815250509050919050565b600060026000541415611645576040517f08c379a000000000000000000000000000000000000000000000000000000000815260040161163c90615627565b60405180910390fd5b60026000819055506116576001613ff3565b60006116636001613fe5565b90506000604051806101a001604052808381526020018b73ffffffffffffffffffffffffffffffffffffffff1681526020018a81526020013373ffffffffffffffffffffffffffffffffffffffff168152602001600073ffffffffffffffffffffffffffffffffffffffff168152602001898152602001888152602001878152602001868152602001600015158152602001600115158152602001600015158152602001851515815250905080601460008481526020019081526020016000206000820151816000015560208201518160010160006101000a81548173ffffffffffffffffffffffffffffffffffffffff021916908373ffffffffffffffffffffffffffffffffffffffff1602179055506040820151816002015560608201518160030160006101000a81548173ffffffffffffffffffffffffffffffffffffffff021916908373ffffffffffffffffffffffffffffffffffffffff16021790555060808201518160040160006101000a81548173ffffffffffffffffffffffffffffffffffffffff021916908373ffffffffffffffffffffffffffffffffffffffff16021790555060a0820151816005015560c0820151816006015560e0820151816007015561010082015181600801556101208201518160090160006101000a81548160ff0219169083151502179055506101408201518160090160016101000a81548160ff0219169083151502179055506101608201518160090160026101000a81548160ff0219169083151502179055506101808201518160090160036101000a81548160ff0219169083151502179055509050508973ffffffffffffffffffffffffffffffffffffffff1663f242432a33308c8b6040518563ffffffff1660e01b81526004016118fb94939291906152f9565b600060405180830381600087803b15801561191557600080fd5b505af1158015611929573d6000803e3d6000fd5b50505050888a73ffffffffffffffffffffffffffffffffffffffff16837f66e97b8164670aa0e694d4edeefadfbd201b7b854d868d7d6e610bbd4b75230c338c8c8c8c6000600160008f604051611988999897969594939291906154de565b60405180910390a481925050506001600081905550979650505050505050565b60006119b46003613ff3565b60006119c06003613fe5565b905060006040518061014001604052808381526020018973ffffffffffffffffffffffffffffffffffffffff1681526020018881526020013373ffffffffffffffffffffffffffffffffffffffff168152602001600073ffffffffffffffffffffffffffffffffffffffff168152602001600660009054906101000a900473ffffffffffffffffffffffffffffffffffffffff1673ffffffffffffffffffffffffffffffffffffffff16815260200187815260200186815260200186815260200160011515815250905080601960008481526020019081526020016000206000820151816000015560208201518160010160006101000a81548173ffffffffffffffffffffffffffffffffffffffff021916908373ffffffffffffffffffffffffffffffffffffffff1602179055506040820151816002015560608201518160030160006101000a81548173ffffffffffffffffffffffffffffffffffffffff021916908373ffffffffffffffffffffffffffffffffffffffff16021790555060808201518160040160006101000a81548173ffffffffffffffffffffffffffffffffffffffff021916908373ffffffffffffffffffffffffffffffffffffffff16021790555060a08201518160050160006101000a81548173ffffffffffffffffffffffffffffffffffffffff021916908373ffffffffffffffffffffffffffffffffffffffff16021790555060c0820151816006015560e0820151816007015561010082015181600801556101208201518160090160006101000a81548160ff0219169083151502179055509050508773ffffffffffffffffffffffffffffffffffffffff1663f242432a33308a60016040518563ffffffff1660e01b8152600401611c5194939291906152a1565b600060405180830381600087803b158015611c6b57600080fd5b505af1158015611c7f573d6000803e3d6000fd5b50505050611c8c84612b14565b600660009054906101000a900473ffffffffffffffffffffffffffffffffffffffff1673ffffffffffffffffffffffffffffffffffffffff16635a9d10a23384886040518463ffffffff1660e01b8152600401611ceb939291906154a7565b600060405180830381600087803b158015611d0557600080fd5b505af1158015611d19573d6000803e3d6000fd5b50505050868873ffffffffffffffffffffffffffffffffffffffff16837fedbbc6bc63aa092bba302ac98ddaafe17f6714072cb4cb7caeb89e9b31f6f4ca33600660009054906101000a900473ffffffffffffffffffffffffffffffffffffffff168b8b8c6001604051611d9296959493929190615351565b60405180910390a4819250505095945050505050565b6060600660009054906101000a900473ffffffffffffffffffffffffffffffffffffffff1673ffffffffffffffffffffffffffffffffffffffff166367f718a96040518163ffffffff1660e01b815260040160006040518083038186803b158015611e1257600080fd5b505afa158015611e26573d6000803e3d6000fd5b505050506040513d6000823e3d601f19601f82011682018060405250810190611e4f91906149f9565b905090565b6060600760009054906101000a900473ffffffffffffffffffffffffffffffffffffffff1673ffffffffffffffffffffffffffffffffffffffff16637b78bd3f836040518263ffffffff1660e01b8152600401611eb191906156c1565b60006040518083038186803b158015611ec957600080fd5b505afa158015611edd573d6000803e3d6000fd5b505050506040513d6000823e3d601f19601f82011682018060405250810190611f069190614aa4565b9050919050565b600060026000541415611f55576040517f08c379a0000000000000000000000000000000000000000000000000000000008152600401611f4c90615627565b60405180910390fd5b6002600081905550611f676001613ff3565b6000611f736001613fe5565b90506000604051806101a001604052808381526020018a73ffffffffffffffffffffffffffffffffffffffff1681526020018981526020013373ffffffffffffffffffffffffffffffffffffffff168152602001600073ffffffffffffffffffffffffffffffffffffffff16815260200188815260200160018152602001878152602001868152602001600015158152602001600115158152602001600015158152602001851515815250905080601460008481526020019081526020016000206000820151816000015560208201518160010160006101000a81548173ffffffffffffffffffffffffffffffffffffffff021916908373ffffffffffffffffffffffffffffffffffffffff1602179055506040820151816002015560608201518160030160006101000a81548173ffffffffffffffffffffffffffffffffffffffff021916908373ffffffffffffffffffffffffffffffffffffffff16021790555060808201518160040160006101000a81548173ffffffffffffffffffffffffffffffffffffffff021916908373ffffffffffffffffffffffffffffffffffffffff16021790555060a0820151816005015560c0820151816006015560e0820151816007015561010082015181600801556101208201518160090160006101000a81548160ff0219169083151502179055506101408201518160090160016101000a81548160ff0219169083151502179055506101608201518160090160026101000a81548160ff0219169083151502179055506101808201518160090160036101000a81548160ff0219169083151502179055509050508873ffffffffffffffffffffffffffffffffffffffff166323b872dd33308b6040518463ffffffff1660e01b815260040161220a9392919061526a565b600060405180830381600087803b15801561222457600080fd5b505af1158015612238573d6000803e3d6000fd5b50505050878973ffffffffffffffffffffffffffffffffffffffff16837f66e97b8164670aa0e694d4edeefadfbd201b7b854d868d7d6e610bbd4b75230c338b60018c8c60008060008f604051612297999897969594939291906153b2565b60405180910390a4819250505060016000819055509695505050505050565b6122c06004613ff3565b60006122cc6004613fe5565b9050600060405180606001604052808381526020018481526020018573ffffffffffffffffffffffffffffffffffffffff168152509050806012600084815260200190815260200160002060008201518160000155602082015181600101908051906020019061233d9291906141cd565b5060408201518160020160006101000a81548173ffffffffffffffffffffffffffffffffffffffff021916908373ffffffffffffffffffffffffffffffffffffffff16021790555090505050505050565b6000600660009054906101000a900473ffffffffffffffffffffffffffffffffffffffff1673ffffffffffffffffffffffffffffffffffffffff166378a895676040518163ffffffff1660e01b815260040160206040518083038186803b1580156123f857600080fd5b505afa15801561240c573d6000803e3d6000fd5b505050506040513d601f19601f820116820180604052508101906124309190614b62565b905090565b600760009054906101000a900473ffffffffffffffffffffffffffffffffffffffff1673ffffffffffffffffffffffffffffffffffffffff1663257d89db33868686866040518663ffffffff1660e01b815260040161249895949392919061543f565b600060405180830381600087803b1580156124b257600080fd5b505af11580156124c6573d6000803e3d6000fd5b5050505050505050565b6060600760009054906101000a900473ffffffffffffffffffffffffffffffffffffffff1673ffffffffffffffffffffffffffffffffffffffff166367f718a96040518163ffffffff1660e01b815260040160006040518083038186803b15801561253a57600080fd5b505afa15801561254e573d6000803e3d6000fd5b505050506040513d6000823e3d601f19601f8201168201806040525081019061257791906149f9565b905090565b600d818154811061258c57600080fd5b90600052602060002090600302016000915090508060000154908060010180546125b590615a55565b80601f01602080910402602001604051908101604052809291908181526020018280546125e190615a55565b801561262e5780601f106126035761010080835404028352916020019161262e565b820191906000526020600020905b81548152906001019060200180831161261157829003601f168201915b5050505050908060020160009054906101000a900473ffffffffffffffffffffffffffffffffffffffff16905083565b6060600760009054906101000a900473ffffffffffffffffffffffffffffffffffffffff1673ffffffffffffffffffffffffffffffffffffffff1663dbe16c07836040518263ffffffff1660e01b81526004016126bb91906156c1565b60006040518083038186803b1580156126d357600080fd5b505afa1580156126e7573d6000803e3d6000fd5b505050506040513d6000823e3d601f19601f820116820180604052508101906127109190614aa4565b9050919050565b60006127236003613ff3565b600061272f6003613fe5565b905060006040518061014001604052808381526020018973ffffffffffffffffffffffffffffffffffffffff1681526020018881526020013373ffffffffffffffffffffffffffffffffffffffff168152602001600073ffffffffffffffffffffffffffffffffffffffff168152602001600660009054906101000a900473ffffffffffffffffffffffffffffffffffffffff1673ffffffffffffffffffffffffffffffffffffffff16815260200187815260200186815260200186815260200160001515815250905080601960008481526020019081526020016000206000820151816000015560208201518160010160006101000a81548173ffffffffffffffffffffffffffffffffffffffff021916908373ffffffffffffffffffffffffffffffffffffffff1602179055506040820151816002015560608201518160030160006101000a81548173ffffffffffffffffffffffffffffffffffffffff021916908373ffffffffffffffffffffffffffffffffffffffff16021790555060808201518160040160006101000a81548173ffffffffffffffffffffffffffffffffffffffff021916908373ffffffffffffffffffffffffffffffffffffffff16021790555060a08201518160050160006101000a81548173ffffffffffffffffffffffffffffffffffffffff021916908373ffffffffffffffffffffffffffffffffffffffff16021790555060c0820151816006015560e0820151816007015561010082015181600801556101208201518160090160006101000a81548160ff0219169083151502179055509050508773ffffffffffffffffffffffffffffffffffffffff166323b872dd33308a6040518463ffffffff1660e01b81526004016129bd9392919061526a565b600060405180830381600087803b1580156129d757600080fd5b505af11580156129eb573d6000803e3d6000fd5b505050506129f884612b14565b600660009054906101000a900473ffffffffffffffffffffffffffffffffffffffff1673ffffffffffffffffffffffffffffffffffffffff16635a9d10a23384886040518463ffffffff1660e01b8152600401612a57939291906154a7565b600060405180830381600087803b158015612a7157600080fd5b505af1158015612a85573d6000803e3d6000fd5b50505050868873ffffffffffffffffffffffffffffffffffffffff16837fedbbc6bc63aa092bba302ac98ddaafe17f6714072cb4cb7caeb89e9b31f6f4ca33600660009054906101000a900473ffffffffffffffffffffffffffffffffffffffff168b8b8c6000604051612afe96959493929190615351565b60405180910390a4819250505095945050505050565b600660009054906101000a900473ffffffffffffffffffffffffffffffffffffffff1673ffffffffffffffffffffffffffffffffffffffff166302fe5305826040518263ffffffff1660e01b8152600401612b6f91906155e5565b600060405180830381600087803b158015612b8957600080fd5b505af1158015612b9d573d6000803e3d6000fd5b5050505050565b600063bc197c8160e01b905095945050505050565b60026000541415612bff576040517f08c379a0000000000000000000000000000000000000000000000000000000008152600401612bf690615627565b60405180910390fd5b6002600081905550600060146000838152602001908152602001600020604051806101a0016040529081600082015481526020016001820160009054906101000a900473ffffffffffffffffffffffffffffffffffffffff1673ffffffffffffffffffffffffffffffffffffffff1673ffffffffffffffffffffffffffffffffffffffff168152602001600282015481526020016003820160009054906101000a900473ffffffffffffffffffffffffffffffffffffffff1673ffffffffffffffffffffffffffffffffffffffff1673ffffffffffffffffffffffffffffffffffffffff1681526020016004820160009054906101000a900473ffffffffffffffffffffffffffffffffffffffff1673ffffffffffffffffffffffffffffffffffffffff1673ffffffffffffffffffffffffffffffffffffffff168152602001600582015481526020016006820154815260200160078201548152602001600882015481526020016009820160009054906101000a900460ff161515151581526020016009820160019054906101000a900460ff161515151581526020016009820160029054906101000a900460ff161515151581526020016009820160039054906101000a900460ff161515151581525050905060008160a00151905060008260400151905060008361014001519050823414612e32576040517f08c379a0000000000000000000000000000000000000000000000000000000008152600401612e2990615607565b60405180910390fd5b836060015173ffffffffffffffffffffffffffffffffffffffff166108fc349081150290604051600060405180830381858888f19350505050158015612e7c573d6000803e3d6000fd5b508015612f01578573ffffffffffffffffffffffffffffffffffffffff1663f242432a303387604001518860c001516040518563ffffffff1660e01b8152600401612eca94939291906152f9565b600060405180830381600087803b158015612ee457600080fd5b505af1158015612ef8573d6000803e3d6000fd5b50505050612f71565b8573ffffffffffffffffffffffffffffffffffffffff166323b872dd3033856040518463ffffffff1660e01b8152600401612f3e9392919061526a565b600060405180830381600087803b158015612f5857600080fd5b505af1158015612f6c573d6000803e3d6000fd5b505050505b33846080019073ffffffffffffffffffffffffffffffffffffffff16908173ffffffffffffffffffffffffffffffffffffffff1681525050600184610120019015159081151581525050612fc56002613ff3565b83601460008781526020019081526020016000206000820151816000015560208201518160010160006101000a81548173ffffffffffffffffffffffffffffffffffffffff021916908373ffffffffffffffffffffffffffffffffffffffff1602179055506040820151816002015560608201518160030160006101000a81548173ffffffffffffffffffffffffffffffffffffffff021916908373ffffffffffffffffffffffffffffffffffffffff16021790555060808201518160040160006101000a81548173ffffffffffffffffffffffffffffffffffffffff021916908373ffffffffffffffffffffffffffffffffffffffff16021790555060a0820151816005015560c0820151816006015560e0820151816007015561010082015181600801556101208201518160090160006101000a81548160ff0219169083151502179055506101408201518160090160016101000a81548160ff0219169083151502179055506101608201518160090160026101000a81548160ff0219169083151502179055506101808201518160090160036101000a81548160ff02191690831515021790555090505060156000856060015173ffffffffffffffffffffffffffffffffffffffff1673ffffffffffffffffffffffffffffffffffffffff168152602001908152602001600020859080600181540180825580915050600190039060005260206000200160009091909190915055601760003373ffffffffffffffffffffffffffffffffffffffff1673ffffffffffffffffffffffffffffffffffffffff168152602001908152602001600020859080600181540180825580915050600190039060005260206000200160009091909190915055818673ffffffffffffffffffffffffffffffffffffffff16867ffeb04e399f6ba62d926a65372cbb5f11e3c7a9ff05e62948769d2ee5d5335b848760600151338860016040516132959493929190615225565b60405180910390a45050505060016000819055505050565b6000600760009054906101000a900473ffffffffffffffffffffffffffffffffffffffff1673ffffffffffffffffffffffffffffffffffffffff166378a895676040518163ffffffff1660e01b815260040160206040518083038186803b15801561331757600080fd5b505afa15801561332b573d6000803e3d6000fd5b505050506040513d601f19601f8201168201806040525081019061334f9190614b62565b905090565b600660009054906101000a900473ffffffffffffffffffffffffffffffffffffffff1673ffffffffffffffffffffffffffffffffffffffff16635a9d10a23384846040518463ffffffff1660e01b81526004016133b3939291906154a7565b600060405180830381600087803b1580156133cd57600080fd5b505af11580156133e1573d6000803e3d6000fd5b505050505050565b6133f1614253565b60006019600084815260200190815260200160002060405180610140016040529081600082015481526020016001820160009054906101000a900473ffffffffffffffffffffffffffffffffffffffff1673ffffffffffffffffffffffffffffffffffffffff1673ffffffffffffffffffffffffffffffffffffffff168152602001600282015481526020016003820160009054906101000a900473ffffffffffffffffffffffffffffffffffffffff1673ffffffffffffffffffffffffffffffffffffffff1673ffffffffffffffffffffffffffffffffffffffff1681526020016004820160009054906101000a900473ffffffffffffffffffffffffffffffffffffffff1673ffffffffffffffffffffffffffffffffffffffff1673ffffffffffffffffffffffffffffffffffffffff1681526020016005820160009054906101000a900473ffffffffffffffffffffffffffffffffffffffff1673ffffffffffffffffffffffffffffffffffffffff1673ffffffffffffffffffffffffffffffffffffffff1681526020016006820154815260200160078201548152602001600882015481526020016009820160009054906101000a900460ff161515151581525050905080915050919050565b60008015156135d033614009565b151514613612576040517f08c379a000000000000000000000000000000000000000000000000000000000815260040161360990615647565b60405180910390fd5b60018214156136be576000604051806040016040528060095481526020018581525090506009600081548092919061364990615ab8565b919050555080600f60003373ffffffffffffffffffffffffffffffffffffffff1673ffffffffffffffffffffffffffffffffffffffff1681526020019081526020016000206000820151816000015560208201518160010190805190602001906136b49291906141cd565b509050505061380a565b600282141561376a5760006040518060400160405280600a548152602001858152509050600a60008154809291906136f590615ab8565b919050555080601060003373ffffffffffffffffffffffffffffffffffffffff1673ffffffffffffffffffffffffffffffffffffffff1681526020019081526020016000206000820151816000015560208201518160010190805190602001906137609291906141cd565b5090505050613809565b60006040518060400160405280600b548152602001858152509050600b600081548092919061379890615ab8565b919050555080601160003373ffffffffffffffffffffffffffffffffffffffff1673ffffffffffffffffffffffffffffffffffffffff1681526020019081526020016000206000820151816000015560208201518160010190805190602001906138039291906141cd565b50905050505b5b600e339080600181540180825580915050600190039060005260206000200160009091909190916101000a81548173ffffffffffffffffffffffffffffffffffffffff021916908373ffffffffffffffffffffffffffffffffffffffff1602179055506001905092915050565b606060006138856001613fe5565b90506000805b8281101561392c573373ffffffffffffffffffffffffffffffffffffffff16601460006001846138bb919061587d565b815260200190815260200160002060030160009054906101000a900473ffffffffffffffffffffffffffffffffffffffff1673ffffffffffffffffffffffffffffffffffffffff16141561391957600182613916919061587d565b91505b808061392490615ab8565b91505061388b565b5060008167ffffffffffffffff81111561396f577f4e487b7100000000000000000000000000000000000000000000000000000000600052604160045260246000fd5b6040519080825280602002602001820160405280156139a857816020015b6139956140e4565b81526020019060019003908161398d5790505b5090506000805b84811015613c75573373ffffffffffffffffffffffffffffffffffffffff16601460006001846139df919061587d565b815260200190815260200160002060030160009054906101000a900473ffffffffffffffffffffffffffffffffffffffff1673ffffffffffffffffffffffffffffffffffffffff161415613c62576000600182613a3c919061587d565b9050600060146000838152602001908152602001600020905080604051806101a0016040529081600082015481526020016001820160009054906101000a900473ffffffffffffffffffffffffffffffffffffffff1673ffffffffffffffffffffffffffffffffffffffff1673ffffffffffffffffffffffffffffffffffffffff168152602001600282015481526020016003820160009054906101000a900473ffffffffffffffffffffffffffffffffffffffff1673ffffffffffffffffffffffffffffffffffffffff1673ffffffffffffffffffffffffffffffffffffffff1681526020016004820160009054906101000a900473ffffffffffffffffffffffffffffffffffffffff1673ffffffffffffffffffffffffffffffffffffffff1673ffffffffffffffffffffffffffffffffffffffff168152602001600582015481526020016006820154815260200160078201548152602001600882015481526020016009820160009054906101000a900460ff161515151581526020016009820160019054906101000a900460ff161515151581526020016009820160029054906101000a900460ff161515151581526020016009820160039054906101000a900460ff161515151581525050858581518110613c45577f4e487b7100000000000000000000000000000000000000000000000000000000600052603260045260246000fd5b6020026020010181905250600184613c5d919061587d565b935050505b8080613c6d90615ab8565b9150506139af565b508194505050505090565b600063f23a6e6160e01b905095945050505050565b60606000821415613cdd576040518060400160405280600181526020017f30000000000000000000000000000000000000000000000000000000000000008152509050613f76565b60006064905060008167ffffffffffffffff811115613d25577f4e487b7100000000000000000000000000000000000000000000000000000000600052604160045260246000fd5b6040519080825280601f01601f191660200182016040528015613d575781602001600182028036833780820191505090505b50905060005b60008514613e0f576000600a86613d749190615b2b565b9050600a86613d8391906158d3565b9550806030613d92919061587d565b60f81b838380613da190615ab8565b945081518110613dda577f4e487b7100000000000000000000000000000000000000000000000000000000600052603260045260246000fd5b60200101907effffffffffffffffffffffffffffffffffffffffffffffffffffffffffffff1916908160001a90535050613d5d565b60008167ffffffffffffffff811115613e51577f4e487b7100000000000000000000000000000000000000000000000000000000600052604160045260246000fd5b6040519080825280601f01601f191660200182016040528015613e835781602001600182028036833780820191505090505b50905060005b82811015613f67578360018285613ea09190615904565b613eaa9190615904565b81518110613ee1577f4e487b7100000000000000000000000000000000000000000000000000000000600052603260045260246000fd5b602001015160f81c60f81b828281518110613f25577f4e487b7100000000000000000000000000000000000000000000000000000000600052603260045260246000fd5b60200101907effffffffffffffffffffffffffffffffffffffffffffffffffffffffffffff1916908160001a9053508080613f5f90615ab8565b915050613e89565b50600081905080955050505050505b919050565b60007f01ffc9a7000000000000000000000000000000000000000000000000000000007bffffffffffffffffffffffffffffffffffffffffffffffffffffffff1916827bffffffffffffffffffffffffffffffffffffffffffffffffffffffff1916149050919050565b600081600001549050919050565b6001816000016000828254019250508190555050565b600080600090505b600e805490508160ff1610156140d9578273ffffffffffffffffffffffffffffffffffffffff16600e8260ff1681548110614075577f4e487b7100000000000000000000000000000000000000000000000000000000600052603260045260246000fd5b9060005260206000200160009054906101000a900473ffffffffffffffffffffffffffffffffffffffff1673ffffffffffffffffffffffffffffffffffffffff1614156140c65760019150506140df565b80806140d190615b01565b915050614011565b50600090505b919050565b604051806101a0016040528060008152602001600073ffffffffffffffffffffffffffffffffffffffff16815260200160008152602001600073ffffffffffffffffffffffffffffffffffffffff168152602001600073ffffffffffffffffffffffffffffffffffffffff168152602001600081526020016000815260200160008152602001600081526020016000151581526020016000151581526020016000151581526020016000151581525090565b60405180606001604052806000815260200160608152602001600073ffffffffffffffffffffffffffffffffffffffff1681525090565b8280546141d990615a55565b90600052602060002090601f0160209004810192826141fb5760008555614242565b82601f1061421457805160ff1916838001178555614242565b82800160010185558215614242579182015b82811115614241578251825591602001919060010190614226565b5b50905061424f9190614300565b5090565b60405180610140016040528060008152602001600073ffffffffffffffffffffffffffffffffffffffff16815260200160008152602001600073ffffffffffffffffffffffffffffffffffffffff168152602001600073ffffffffffffffffffffffffffffffffffffffff168152602001600073ffffffffffffffffffffffffffffffffffffffff1681526020016000815260200160008152602001600081526020016000151581525090565b5b80821115614319576000816000905550600101614301565b5090565b600061433061432b8461573f565b61571a565b9050808382526020820190508285602086028201111561434f57600080fd5b60005b8581101561437f578161436588826145c0565b845260208401935060208301925050600181019050614352565b5050509392505050565b600061439c6143978461573f565b61571a565b905080838252602082019050828560208602820111156143bb57600080fd5b60005b858110156143eb57816143d188826145d5565b8452602084019350602083019250506001810190506143be565b5050509392505050565b60006144086144038461576b565b61571a565b90508281526020810184848401111561442057600080fd5b61442b848285615a13565b509392505050565b60006144466144418461579c565b61571a565b90508281526020810184848401111561445e57600080fd5b614469848285615a13565b509392505050565b600061448461447f8461579c565b61571a565b90508281526020810184848401111561449c57600080fd5b6144a7848285615a22565b509392505050565b6000813590506144be81615cf3565b92915050565b600082601f8301126144d557600080fd5b81356144e584826020860161431d565b91505092915050565b600082601f8301126144ff57600080fd5b815161450f848260208601614389565b91505092915050565b60008135905061452781615d0a565b92915050565b60008135905061453c81615d21565b92915050565b600082601f83011261455357600080fd5b81356145638482602086016143f5565b91505092915050565b600082601f83011261457d57600080fd5b813561458d848260208601614433565b91505092915050565b600082601f8301126145a757600080fd5b81516145b7848260208601614471565b91505092915050565b6000813590506145cf81615d38565b92915050565b6000815190506145e481615d38565b92915050565b600080600080600060a0868803121561460257600080fd5b6000614610888289016144af565b9550506020614621888289016144af565b945050604086013567ffffffffffffffff81111561463e57600080fd5b61464a888289016144c4565b935050606086013567ffffffffffffffff81111561466757600080fd5b614673888289016144c4565b925050608086013567ffffffffffffffff81111561469057600080fd5b61469c88828901614542565b9150509295509295909350565b600080600080608085870312156146bf57600080fd5b60006146cd878288016144af565b94505060206146de878288016144af565b93505060406146ef878288016145c0565b925050606085013567ffffffffffffffff81111561470c57600080fd5b61471887828801614542565b91505092959194509250565b600080600080600060a0868803121561473c57600080fd5b600061474a888289016144af565b955050602061475b888289016144af565b945050604061476c888289016145c0565b935050606061477d888289016145c0565b925050608086013567ffffffffffffffff81111561479a57600080fd5b6147a688828901614542565b9150509295509295909350565b600080604083850312156147c657600080fd5b60006147d4858286016144af565b925050602083013567ffffffffffffffff8111156147f157600080fd5b6147fd8582860161456c565b9150509250929050565b6000806040838503121561481a57600080fd5b6000614828858286016144af565b9250506020614839858286016145c0565b9150509250929050565b600080600080600060a0868803121561485b57600080fd5b6000614869888289016144af565b955050602061487a888289016145c0565b945050604061488b888289016145c0565b935050606061489c888289016145c0565b925050608086013567ffffffffffffffff8111156148b957600080fd5b6148c58882890161456c565b9150509295509295909350565b60008060008060008060c087890312156148eb57600080fd5b60006148f989828a016144af565b965050602061490a89828a016145c0565b955050604061491b89828a016145c0565b945050606061492c89828a016145c0565b935050608061493d89828a016145c0565b92505060a061494e89828a01614518565b9150509295509295509295565b600080600080600080600060e0888a03121561497657600080fd5b60006149848a828b016144af565b97505060206149958a828b016145c0565b96505060406149a68a828b016145c0565b95505060606149b78a828b016145c0565b94505060806149c88a828b016145c0565b93505060a06149d98a828b016145c0565b92505060c06149ea8a828b01614518565b91505092959891949750929550565b600060208284031215614a0b57600080fd5b600082015167ffffffffffffffff811115614a2557600080fd5b614a31848285016144ee565b91505092915050565b600060208284031215614a4c57600080fd5b6000614a5a8482850161452d565b91505092915050565b600060208284031215614a7557600080fd5b600082013567ffffffffffffffff811115614a8f57600080fd5b614a9b8482850161456c565b91505092915050565b600060208284031215614ab657600080fd5b600082015167ffffffffffffffff811115614ad057600080fd5b614adc84828501614596565b91505092915050565b60008060408385031215614af857600080fd5b600083013567ffffffffffffffff811115614b1257600080fd5b614b1e8582860161456c565b9250506020614b2f858286016145c0565b9150509250929050565b600060208284031215614b4b57600080fd5b6000614b59848285016145c0565b91505092915050565b600060208284031215614b7457600080fd5b6000614b82848285016145d5565b91505092915050565b60008060008060808587031215614ba157600080fd5b6000614baf878288016145c0565b945050602085013567ffffffffffffffff811115614bcc57600080fd5b614bd88782880161456c565b935050604085013567ffffffffffffffff811115614bf557600080fd5b614c018782880161456c565b925050606085013567ffffffffffffffff811115614c1e57600080fd5b614c2a8782880161456c565b91505092959194509250565b60008060408385031215614c4957600080fd5b6000614c57858286016145c0565b9250506020614c68858286016145c0565b9150509250929050565b6000614c7e8383614fa1565b6101a08301905092915050565b6000614c978383615207565b60208301905092915050565b614cac816159cb565b82525050565b614cbb8161594a565b82525050565b614cca81615938565b82525050565b614cd981615938565b82525050565b6000614cea826157ed565b614cf48185615828565b9350614cff836157cd565b8060005b83811015614d30578151614d178882614c72565b9750614d228361580e565b925050600181019050614d03565b5085935050505092915050565b6000614d48826157f8565b614d528185615839565b9350614d5d836157dd565b8060005b83811015614d8e578151614d758882614c8b565b9750614d808361581b565b925050600181019050614d61565b5085935050505092915050565b614da48161595c565b82525050565b614db38161595c565b82525050565b614dc281615968565b82525050565b614dd1816159dd565b82525050565b6000614de282615803565b614dec818561585b565b9350614dfc818560208601615a22565b614e0581615c18565b840191505092915050565b6000614e1b82615803565b614e25818561586c565b9350614e35818560208601615a22565b614e3e81615c18565b840191505092915050565b6000614e5660028361584a565b9150614e6182615c29565b602082019050919050565b6000614e7960408361586c565b9150614e8482615c52565b604082019050919050565b6000614e9c601f8361586c565b9150614ea782615ca1565b602082019050919050565b6000614ebf60178361586c565b9150614eca82615cca565b602082019050919050565b61014082016000820151614eec6000850182615207565b506020820151614eff6020850182614cc1565b506040820151614f126040850182615207565b506060820151614f256060850182614cb2565b506080820151614f386080850182614cb2565b5060a0820151614f4b60a0850182614cc1565b5060c0820151614f5e60c0850182615207565b5060e0820151614f7160e0850182615207565b50610100820151614f86610100850182615207565b50610120820151614f9b610120850182614d9b565b50505050565b6101a082016000820151614fb86000850182615207565b506020820151614fcb6020850182614cc1565b506040820151614fde6040850182615207565b506060820151614ff16060850182614cb2565b5060808201516150046080850182614cb2565b5060a082015161501760a0850182615207565b5060c082015161502a60c0850182615207565b5060e082015161503d60e0850182615207565b50610100820151615052610100850182615207565b50610120820151615067610120850182614d9b565b5061014082015161507c610140850182614d9b565b50610160820151615091610160850182614d9b565b506101808201516150a6610180850182614d9b565b50505050565b6101a0820160008201516150c36000850182615207565b5060208201516150d66020850182614cc1565b5060408201516150e96040850182615207565b5060608201516150fc6060850182614cb2565b50608082015161510f6080850182614cb2565b5060a082015161512260a0850182615207565b5060c082015161513560c0850182615207565b5060e082015161514860e0850182615207565b5061010082015161515d610100850182615207565b50610120820151615172610120850182614d9b565b50610140820151615187610140850182614d9b565b5061016082015161519c610160850182614d9b565b506101808201516151b1610180850182614d9b565b50505050565b60006060830160008301516151cf6000860182615207565b50602083015184820360208601526151e78282614dd7565b91505060408301516151fc6040860182614cc1565b508091505092915050565b615210816159b4565b82525050565b61521f816159b4565b82525050565b600060808201905061523a6000830187614ca3565b6152476020830186614cd0565b6152546040830185615216565b6152616060830184614daa565b95945050505050565b600060608201905061527f6000830186614cd0565b61528c6020830185614cd0565b6152996040830184615216565b949350505050565b600060a0820190506152b66000830187614cd0565b6152c36020830186614cd0565b6152d06040830185615216565b6152dd6060830184614dc8565b81810360808301526152ee81614e49565b905095945050505050565b600060a08201905061530e6000830187614cd0565b61531b6020830186614cd0565b6153286040830185615216565b6153356060830184615216565b818103608083015261534681614e49565b905095945050505050565b600060c0820190506153666000830189614cd0565b6153736020830188614cd0565b6153806040830187615216565b61538d6060830186615216565b61539a6080830185615216565b6153a760a0830184614daa565b979650505050505050565b6000610120820190506153c8600083018c614cd0565b6153d5602083018b615216565b6153e2604083018a614dc8565b6153ef6060830189615216565b6153fc6080830188615216565b61540960a0830187614daa565b61541660c0830186614daa565b61542360e0830185614daa565b615431610100830184614daa565b9a9950505050505050505050565b600060a0820190506154546000830188614cd0565b6154616020830187615216565b81810360408301526154738186614e10565b905081810360608301526154878185614e10565b9050818103608083015261549b8184614e10565b90509695505050505050565b60006060820190506154bc6000830186614cd0565b6154c96020830185615216565b6154d66040830184615216565b949350505050565b6000610120820190506154f4600083018c614cd0565b615501602083018b615216565b61550e604083018a615216565b61551b6060830189615216565b6155286080830188615216565b61553560a0830187614daa565b61554260c0830186614daa565b61554f60e0830185614daa565b61555d610100830184614daa565b9a9950505050505050505050565b600060208201905081810360008301526155858184614cdf565b905092915050565b600060208201905081810360008301526155a78184614d3d565b905092915050565b60006020820190506155c46000830184614daa565b92915050565b60006020820190506155df6000830184614db9565b92915050565b600060208201905081810360008301526155ff8184614e10565b905092915050565b6000602082019050818103600083015261562081614e6c565b9050919050565b6000602082019050818103600083015261564081614e8f565b9050919050565b6000602082019050818103600083015261566081614eb2565b9050919050565b60006101408201905061567d6000830184614ed5565b92915050565b60006101a08201905061569960008301846150ac565b92915050565b600060208201905081810360008301526156b981846151b7565b905092915050565b60006020820190506156d66000830184615216565b92915050565b60006060820190506156f16000830186615216565b81810360208301526157038185614e10565b90506157126040830184614cd0565b949350505050565b6000615724615735565b90506157308282615a87565b919050565b6000604051905090565b600067ffffffffffffffff82111561575a57615759615be9565b5b602082029050602081019050919050565b600067ffffffffffffffff82111561578657615785615be9565b5b61578f82615c18565b9050602081019050919050565b600067ffffffffffffffff8211156157b7576157b6615be9565b5b6157c082615c18565b9050602081019050919050565b6000819050602082019050919050565b6000819050602082019050919050565b600081519050919050565b600081519050919050565b600081519050919050565b6000602082019050919050565b6000602082019050919050565b600082825260208201905092915050565b600082825260208201905092915050565b600082825260208201905092915050565b600082825260208201905092915050565b600082825260208201905092915050565b6000615888826159b4565b9150615893836159b4565b9250827fffffffffffffffffffffffffffffffffffffffffffffffffffffffffffffffff038211156158c8576158c7615b5c565b5b828201905092915050565b60006158de826159b4565b91506158e9836159b4565b9250826158f9576158f8615b8b565b5b828204905092915050565b600061590f826159b4565b915061591a836159b4565b92508282101561592d5761592c615b5c565b5b828203905092915050565b600061594382615994565b9050919050565b600061595582615994565b9050919050565b60008115159050919050565b60007fffffffff0000000000000000000000000000000000000000000000000000000082169050919050565b600073ffffffffffffffffffffffffffffffffffffffff82169050919050565b6000819050919050565b600060ff82169050919050565b60006159d6826159ef565b9050919050565b60006159e8826159b4565b9050919050565b60006159fa82615a01565b9050919050565b6000615a0c82615994565b9050919050565b82818337600083830152505050565b60005b83811015615a40578082015181840152602081019050615a25565b83811115615a4f576000848401525b50505050565b60006002820490506001821680615a6d57607f821691505b60208210811415615a8157615a80615bba565b5b50919050565b615a9082615c18565b810181811067ffffffffffffffff82111715615aaf57615aae615be9565b5b80604052505050565b6000615ac3826159b4565b91507fffffffffffffffffffffffffffffffffffffffffffffffffffffffffffffffff821415615af657615af5615b5c565b5b600182019050919050565b6000615b0c826159be565b915060ff821415615b2057615b1f615b5c565b5b600182019050919050565b6000615b36826159b4565b9150615b41836159b4565b925082615b5157615b50615b8b565b5b828206905092915050565b7f4e487b7100000000000000000000000000000000000000000000000000000000600052601160045260246000fd5b7f4e487b7100000000000000000000000000000000000000000000000000000000600052601260045260246000fd5b7f4e487b7100000000000000000000000000000000000000000000000000000000600052602260045260246000fd5b7f4e487b7100000000000000000000000000000000000000000000000000000000600052604160045260246000fd5b6000601f19601f8301169050919050565b7f5b5d000000000000000000000000000000000000000000000000000000000000600082015250565b7f506c65617365207375626d6974207468652061736b696e67207072696365206960008201527f6e206f7264657220746f20636f6d706c65746520746865207075726368617365602082015250565b7f5265656e7472616e637947756172643a207265656e7472616e742063616c6c00600082015250565b7f5573657220416c72656164792072656769737465726564000000000000000000600082015250565b615cfc81615938565b8114615d0757600080fd5b50565b615d138161595c565b8114615d1e57600080fd5b50565b615d2a81615968565b8114615d3557600080fd5b50565b615d41816159b4565b8114615d4c57600080fd5b5056fea26469706673582212201777b3e71551ad4e8ca15e49c19098df2bba0db4acad253ce257338b4d1182a664736f6c63430008030033",
  "immutableReferences": {},
  "source": "// \"SPDX-License-Identifier: UNLICENSED\"\r\npragma solidity ^ 0.8 .3;\r\n\r\nimport \"./ACHouseToken1155.sol\";\r\nimport \"./ACHouseToken721.sol\";\r\n\r\nimport \"@openzeppelin/contracts/utils/Counters.sol\";\r\nimport \"@openzeppelin/contracts/security/ReentrancyGuard.sol\";\r\n\r\n\r\nimport \"@openzeppelin/contracts/token/ERC721/utils/ERC721Holder.sol\";\r\nimport \"@openzeppelin/contracts/token/ERC1155/utils/ERC1155Holder.sol\";\r\n\r\ncontract ACHouse is ReentrancyGuard, ERC1155Holder, ERC721Holder {\r\n  using Counters for Counters.Counter;\r\n  Counters.Counter private _itemIds;\r\n  Counters.Counter private _itemsSold;\r\n  Counters.Counter private _fracItemIds;\r\n  Counters.Counter private _ngoIds;\r\n\r\n  address owner;\r\n\r\n  ACHouseToken1155 _multiToken;\r\n  ACHouseToken721 _nftToken;\r\n\r\n  MarketItem[] mItems;\r\n\r\n  /** Variables and Event Emitters */\r\n  struct AuctionPlace {\r\n    uint256 id;\r\n    string name;\r\n  } \r\n  struct Artist {\r\n    uint256 id;\r\n    string name;\r\n  }\r\n  struct Participant {\r\n    uint256 id;\r\n    string name;\r\n  }\r\n  struct NGO {\r\n    uint256 id;\r\n    string name;\r\n    address charityAddress;\r\n  }\r\n\r\n  uint auctionPlaceCount = 0;\r\n  uint artistCount = 0;\r\n  uint participantCount = 0;\r\n  uint ngoCount = 0;\r\n  NGO[] public ngoArray;\r\n  address[] RegisteredUserAddresses; // might be used??\r\n\r\n  // mapping address to type\r\n  mapping(address => AuctionPlace) AuctionPlaceMapping;\r\n  mapping(address => Artist) ArtistMapping;\r\n  mapping(address => Participant) ParticipantMapping;\r\n\r\n  mapping(uint256 => NGO) NgoMapping;\r\n  // User address maps to - Chaities and the donation amount. \r\n  mapping(address => mapping(address => uint256)) UserNGODonation;\r\n\r\n  struct MarketItem {\r\n    uint itemId;\r\n    address nftContract;\r\n    uint256 tokenId;\r\n    address payable seller;\r\n    address payable owner;\r\n    uint256 price;\r\n    uint256 amount;\r\n    uint256 charityId;\r\n    uint256 auctionTime;\r\n    bool sold;\r\n    bool isMultiToken;\r\n    bool isRemoved;\r\n    bool isFrac;\r\n  }\r\n\r\n  mapping(uint256 => MarketItem) private idToMarketItem;\r\n  \r\n  //user mapping to itemSold array\r\n  mapping( address => uint256[]) userSoldItemMapping;\r\n  //user sold count mapp;\r\n  mapping ( address => uint256) userSoldCountMapping;\r\n  //user mapping to purchased item  array\r\n  mapping( address => uint256[]) userpurchasedItemMapping;\r\n  //user purchased count mapp;\r\n  mapping ( address => uint256) userPurchasedCountMapping;\r\n  \r\n  event MarketItemCreated(uint indexed itemId, address indexed nftContract, uint256 indexed tokenId, \r\n    address seller, uint256 price, uint256 amount, uint256 charityId, uint256 auctionTime, bool sold, bool isMultiToken, bool isRemoved, bool isFrac);\r\n  \r\n  event MarketItemSold(uint indexed itemId, address indexed nftContract, uint256 indexed tokenId, \r\n    address seller, address owner, uint256 price, bool sold);\r\n\r\n  /*******************fractionalize NFT */\r\n  struct FractionalizeToken {\r\n    uint itemId;\r\n    address nftContract;\r\n    uint256 tokenId;\r\n    address payable seller;\r\n    address payable owner;\r\n    address fractionalContract;\r\n    uint256 shardId;\r\n    uint256 supplyMinted;\r\n    uint256 supplyRemaining;\r\n    bool isMultiToken;\r\n  }\r\n  // id to fracToken\r\n  mapping(uint256 => FractionalizeToken) idToFracToken;\r\n  //user purchase to id to amount purchased\r\n  mapping (address => mapping(uint256 => uint256)) userShardPurchaseAmount;\r\n  \r\n  event FractionalTokenCreated(uint indexed itemId, address indexed nftContract, uint256 indexed tokenId, \r\n    address seller, address fractionalContract, uint256 shardId, uint256 supplyMinted, uint256 supplyRemaining,  bool isMultiToken);\r\n    \r\n\r\n  constructor(address _mToken, address _nToken) {\r\n    _multiToken = ACHouseToken1155(_mToken);\r\n    _nftToken = ACHouseToken721(_nToken);\r\n    \r\n    _multiToken.setParentAddress(address(this));\r\n    _nftToken.setParentAddress(address(this));\r\n    owner = payable(msg.sender);\r\n  }\r\n\r\n  function addCharity(address charityAddress, string memory name) public {\r\n    _ngoIds.increment();\r\n    uint256 id = _ngoIds.current();\r\n    NGO memory charity = NGO(id, name, charityAddress);\r\n\r\n    NgoMapping[id] = charity;\r\n  }\r\n\r\n  function getCharityInfo(uint256 _id) public view returns(NGO memory) {\r\n    return NgoMapping[_id];\r\n  }\r\n  \r\n  /***************************************************************************************************************************************/\r\n  /**MarketPlace functionality */\r\n  function create1155MarketItem(address nftContract, uint256 tokenId, uint256 price, uint256 amount, uint256 _charityId, uint256 auctionTime, bool isFrac) public payable nonReentrant returns (uint256){\r\n    //   require(price > 0, \"Price must be at least 1 wei\");\r\n    //   require(msg.value == listingPrice, \"Price must be equal to l_charityId\r\n\r\n    _itemIds.increment();\r\n    uint256 itemId = _itemIds.current();\r\n    \r\n    MarketItem memory item = MarketItem(itemId, nftContract, tokenId, payable(msg.sender), payable(address(0)), price, amount, _charityId, auctionTime, false, true, false, isFrac); // amount will always be 1. \r\n    idToMarketItem[itemId] = item;\r\n\r\n    IERC1155(nftContract).safeTransferFrom(msg.sender, address(this), tokenId, amount, '[]');\r\n\r\n    emit MarketItemCreated(itemId, nftContract, tokenId, msg.sender, price, amount, _charityId, auctionTime, false, true, false, isFrac);\r\n\r\n    return itemId;\r\n  }\r\n\r\n  function create721MarketItem(address nftContract, uint256 tokenId, uint256 price, uint256 _charityId, uint256 auctionTime, bool isFrac ) public payable nonReentrant returns (uint256){\r\n    // require(price > 0, \"Price must be at least 1 wei\");\r\n    // require(msg.value == listingPrice, \"Price must be equal to listing price\");\r\n\r\n    _itemIds.increment();\r\n    uint256 itemId = _itemIds.current();\r\n\r\n    MarketItem memory item = MarketItem(itemId, nftContract, tokenId, payable(msg.sender), payable(address(0)), price, 1, _charityId, auctionTime, false, true, false, isFrac); // amount will always be 1. \r\n    idToMarketItem[itemId] = item;\r\n\r\n    IERC721(nftContract).transferFrom(msg.sender, address(this), tokenId);\r\n\r\n    emit MarketItemCreated(itemId, nftContract, tokenId, msg.sender, price, 1, _charityId, auctionTime, false, false, false, isFrac);\r\n\r\n    return itemId;\r\n  }\r\n  \r\n  // Remove item from marketplace\r\n  function removeMarketPlaceItem( uint256 itemId) public {\r\n      \r\n      idToMarketItem[itemId].isRemoved = true;\r\n  }\r\n  \r\n  // re add item to marketplace\r\n  function addMarketPlaceItem( uint256 itemId) public {\r\n      \r\n      idToMarketItem[itemId].isRemoved = false;\r\n  }\r\n  \r\n  /* Creates the sale of a marketplace item */\r\n  /* Transfers ownership of the item, as well as funds between parties */\r\n  function createMarketSale(address nftContract, uint256 itemId) public payable nonReentrant {\r\n    \r\n    MarketItem memory item = idToMarketItem[itemId];\r\n    \r\n    uint price = item.price;\r\n    uint tokenId = item.tokenId;\r\n    bool isMultiToken = item.isMultiToken;\r\n    require(msg.value == price, \"Please submit the asking price in order to complete the purchase\");\r\n\r\n    // transfer funds\r\n    item.seller.transfer(msg.value);\r\n\r\n    //transfer ownership.\r\n    if(isMultiToken){\r\n      IERC1155(nftContract).safeTransferFrom(address(this), msg.sender, item.tokenId, item.amount, '[]');\r\n    }else{\r\n      IERC721(nftContract).transferFrom(address(this), msg.sender, tokenId);\r\n    }\r\n    \r\n    //set new owner inrecords.\r\n    item.owner = payable(msg.sender);\r\n    //set sold to true\r\n    item.sold = true;\r\n    //increament itemSold counter.\r\n    _itemsSold.increment();\r\n    \r\n    idToMarketItem[itemId] = item;\r\n    // mapp user address to itemSold [] and purchased[]\r\n    userSoldItemMapping[item.seller].push(itemId);\r\n    \r\n    //user mapping to purchased item  array\r\n    userpurchasedItemMapping[msg.sender].push(itemId);\r\n\r\n    emit MarketItemSold( itemId, nftContract, tokenId, item.seller, msg.sender, price, true);\r\n  }\r\n\r\n  function fetchMarketItem(uint256 _id) public view returns(MarketItem memory){\r\n    return idToMarketItem[_id];\r\n  }\r\n\r\n  /* Returns all unsold market items */\r\n  function fetchUnSoldMarketItems() public view returns(MarketItem[] memory) {\r\n    \r\n    uint totalUnSoldCount = _itemIds.current() - _itemsSold.current();\r\n    MarketItem[] memory items = new MarketItem[] (totalUnSoldCount);\r\n    \r\n    uint unsoldCurrentIndex = 0;\r\n    \r\n    uint totalItemCount = _itemIds.current();\r\n      \r\n    for(uint i=0; i < totalItemCount; i++){\r\n        // only way i found to iterate through a mapping. \r\n        if(idToMarketItem[i+1].owner == address(0) && idToMarketItem[i+1].isRemoved == false ) { \r\n            uint currentID = i+1;\r\n\r\n            MarketItem storage currentItem = idToMarketItem[currentID];\r\n            items[unsoldCurrentIndex] = currentItem;\r\n            \r\n            // uint itemId =idToMarketItem[currentID].itemId;\r\n            // string memory str =  uint2str(itemId);\r\n            \r\n            // itemIdStr.push(str);\r\n            \r\n            unsoldCurrentIndex +=1;\r\n        }\r\n    }\r\n    \r\n    return items; \r\n  }\r\n\r\n  /* Returns only items that a user has purchased */\r\n  function fetchMyNFTs() public view returns (MarketItem[] memory) {\r\n    \r\n    uint256[] memory userPurchasedIds = userpurchasedItemMapping[msg.sender];\r\n    \r\n    \r\n    MarketItem[] memory items = new MarketItem[](userPurchasedIds.length);\r\n    for(uint i =0; i< userPurchasedIds.length; i++){\r\n        \r\n        // MarketItem memory item = idToMarketItem[userPurchasedIds[i]];\r\n        \r\n        items[i] = idToMarketItem[userPurchasedIds[i]];\r\n    }\r\n    return items;\r\n  }\r\n\r\n  /* Returns only items a user has created */\r\n  function fetchItemsCreated() public view returns (MarketItem[] memory) {\r\n    //get total item count - created nin MarketItem.\r\n    uint totalItemCount = _itemIds.current();\r\n    uint itemCount = 0;\r\n    \r\n    for (uint i = 0; i < totalItemCount; i++) {\r\n      if (idToMarketItem[i + 1].seller == msg.sender) {\r\n        itemCount += 1;\r\n      }\r\n    }\r\n\r\n    MarketItem[] memory items = new MarketItem[](itemCount);\r\n    uint currentIndex = 0;\r\n    \r\n    for (uint i = 0; i < totalItemCount; i++) {\r\n      if (idToMarketItem[i + 1].seller == msg.sender) {\r\n        uint currentId = i + 1;\r\n        MarketItem storage currentItem = idToMarketItem[currentId];\r\n        items[currentIndex] = currentItem;\r\n        currentIndex += 1;\r\n      }\r\n    }\r\n    return items;\r\n  }\r\n  \r\n  /***************************************************************************************************************************************/\r\n  /**Functions - Registration  */\r\n  function register(string memory _name, uint _userType) public returns(bool) {\r\n    require(isUserRegistered(msg.sender) == false, \"User Already registered\");\r\n\r\n    //userType { 1: Auction, 2: Artist, 3: Participant}\r\n    // register user by type\r\n    if (_userType == 1) {\r\n      AuctionPlace memory ac = AuctionPlace(auctionPlaceCount, _name);\r\n      auctionPlaceCount++;\r\n\r\n      AuctionPlaceMapping[msg.sender] = ac;\r\n    } else if (_userType == 2) {\r\n      Artist memory ar = Artist(artistCount, _name);\r\n      artistCount++;\r\n\r\n      ArtistMapping[msg.sender] = ar;\r\n    } else {\r\n      Participant memory part = Participant(participantCount, _name);\r\n      participantCount++;\r\n\r\n      ParticipantMapping[msg.sender] = part;\r\n    }\r\n\r\n    RegisteredUserAddresses.push(msg.sender);\r\n    return true;\r\n  }\r\n\r\n  /**ERC1155 functionality ***********************************************/\r\n  function setURI1155(string memory _uri) public {\r\n    _multiToken.setURI(_uri);\r\n  }\r\n\r\n  function getTokenURI(uint256 _tokenId) public view returns(string memory){\r\n    return _multiToken.getTokenURI(_tokenId);\r\n  }\r\n  // mint 1155 NFT - set supply to 1. \r\n  function createNFT1155(uint256 _id, uint256 _amount) public {\r\n    _multiToken.mintNFT(msg.sender, _id, _amount);\r\n  }\r\n\r\n  //get tokens totalnumber. \r\n  function getTokenCount() public view returns(uint256) {\r\n    return _multiToken.getTokenCount();\r\n  }\r\n  //returns the array of all tokenids. \r\n  function getTokenIds() public view returns(uint256[] memory) {\r\n    return _multiToken.getTokenIds();\r\n  }\r\n\r\n  function getTokenSupply(uint256 _tokenId) public view returns(uint256) {\r\n    return _multiToken.getTotalSupplyOfToken(_tokenId);\r\n  }\r\n\r\n  /*************Fractional NFT */\r\n\r\n  //hold NFT and trasnfer ownership to ACHouse. \r\n  // ACHouse will mint 1155 then set it to orig owner of nft. \r\n  function fractionalize1155NFT(address nftContract, uint256 tokenId, uint256 shardId, uint256 supplyToCreate, string memory uri) public returns (uint256) {\r\n    _fracItemIds.increment();\r\n    uint fracId = _fracItemIds.current();\r\n\r\n    FractionalizeToken memory fracItem = FractionalizeToken(fracId, nftContract, tokenId, payable(msg.sender), \r\n      payable(address(0)), address(_multiToken), shardId, supplyToCreate, supplyToCreate, true); // supplyMinted and SupplyRemaining will be set as same for now. \r\n    \r\n    idToFracToken[fracId] = fracItem;\r\n\r\n    //get ownership of nftContract and its token.\r\n    IERC1155(nftContract).safeTransferFrom(msg.sender, address(this), tokenId, 1, '[]');\r\n    \r\n    //Mint 1155 fungible tokens. \r\n    setURI1155(uri); // call functiont to set uRL in 1155 token\r\n    _multiToken.mintNFT(msg.sender, fracId, supplyToCreate); //shard tokens created and ownership set to msg.sender ( person who decided to frac nft.)\r\n    \r\n    emit FractionalTokenCreated(fracId, nftContract, tokenId, msg.sender, address(_multiToken), shardId, supplyToCreate, supplyToCreate, true);\r\n    \r\n    return fracId;\r\n    \r\n    \r\n  }\r\n\r\n  function fractionalize721NFT(address nftContract, uint256 tokenId, uint256 shardId, uint256 supplyToCreate, string memory uri) public returns (uint256) {\r\n    _fracItemIds.increment();\r\n    uint fracId = _fracItemIds.current();\r\n    \r\n     FractionalizeToken memory fracItem = FractionalizeToken(fracId, nftContract, tokenId, payable(msg.sender), \r\n      payable(address(0)), address(_multiToken), shardId, supplyToCreate, supplyToCreate, false); // supplyMinted and SupplyRemaining will be set as same for now. \r\n    \r\n    idToFracToken[fracId] = fracItem;\r\n\r\n    //get ownership of nftContract and its token.\r\n    IERC721(nftContract).transferFrom(msg.sender, address(this), tokenId);\r\n\r\n    //Mint 1155 fungible tokens.\r\n    setURI1155(uri); // call functiont to set uRL in 1155 token\r\n    _multiToken.mintNFT(msg.sender, fracId, supplyToCreate); //shard tokens created and ownership set to msg.sender ( person who decided to frac nft.)\r\n    \r\n    emit FractionalTokenCreated(fracId, nftContract, tokenId, msg.sender, address(_multiToken), shardId, supplyToCreate, supplyToCreate, false);\r\n    \r\n    return fracId;\r\n  }\r\n\r\n  function getFractionalInformation(uint256 _fracId) public view returns (FractionalizeToken memory ){\r\n      \r\n      FractionalizeToken memory item = idToFracToken[_fracId];\r\n      \r\n      return item;\r\n  }\r\n  \r\n  /**ERC721 functionzlity *************************************************/\r\n  // mint 721 NFT - set supply to 1. \r\n  function createNFT721(uint256 _id, string memory uri, string memory name, string memory symbol) public {\r\n    _nftToken.mintNFT(msg.sender, _id, uri, name, symbol);\r\n  }\r\n\r\n  //get tokens totalnumber. \r\n  function get721TokenCount() public view returns(uint256) {\r\n    return _nftToken.getTokenCount();\r\n  }\r\n  //returns the array of all tokenids. \r\n  function get721TokenIds() public view returns(uint256[] memory) {\r\n    return _nftToken.getTokenIds();\r\n  }\r\n\r\n  function get721TokenName(uint256 _id) public view returns(string memory){\r\n    return _nftToken.getTokenName(_id);\r\n  }\r\n\r\n  function get721TokenSymbol(uint256 _id) public view returns(string memory){\r\n    return _nftToken.getTokenSymbol(_id);\r\n  }\r\n\r\n  function get721TokenURI(uint256 _id) public view returns(string memory) {\r\n    return _nftToken.getTokenUri(_id);\r\n  }\r\n\r\n  /**Helpers */\r\n  function isUserRegistered(address _address) internal view returns(bool) {\r\n    for (uint8 j = 0; j < RegisteredUserAddresses.length; j++) {\r\n      if (RegisteredUserAddresses[j] == _address) {\r\n        return (true); // user is registered.\r\n      }\r\n    }\r\n    return (false); // user is not registered.\r\n  }\r\n  \r\n   function uint2str(uint v) public pure returns (string memory) {\r\n        if(v == 0){\r\n            return '0';\r\n        }\r\n        uint maxlength = 100;\r\n        bytes memory reversed = new bytes(maxlength);\r\n        uint i = 0;\r\n        while (v != 0) {\r\n            uint remainder = v % 10;\r\n            v = v / 10;\r\n            reversed[i++] = bytes1(uint8(48 + remainder));\r\n        }\r\n        bytes memory s = new bytes(i); // i + 1 is inefficient\r\n        for (uint j = 0; j < i; j++) {\r\n            s[j] = reversed[i - j - 1]; // to avoid the off-by-one error\r\n        }\r\n        string memory str = string(s);  // memory isn't implicitly convertible to storage\r\n        return str;\r\n    }\r\n  \r\n}",
  "sourcePath": "C:/Users/sendm/OneDrive/Desktop/HeartDrops/contracts/ACHouse.sol",
  "compiler": {
    "name": "solc",
    "version": "0.8.3+commit.8d00100c.Emscripten.clang"
  },
  "schemaVersion": "3.4.1",
  "updatedAt": "2021-10-10T15:12:28.905Z",
  "devdoc": {
    "kind": "dev",
    "methods": {
      "onERC721Received(address,address,uint256,bytes)": {
        "details": "See {IERC721Receiver-onERC721Received}. Always returns `IERC721Receiver.onERC721Received.selector`."
      },
      "supportsInterface(bytes4)": {
        "details": "See {IERC165-supportsInterface}."
      }
    },
    "version": 1
  },
  "userdoc": {
    "kind": "user",
    "methods": {
      "create1155MarketItem(address,uint256,uint256,uint256,uint256,uint256,bool)": {
        "notice": "MarketPlace functionality "
      },
      "createNFT721(uint256,string,string,string)": {
        "notice": "ERC721 functionzlity ************************************************"
      },
      "register(string,uint256)": {
        "notice": "Functions - Registration  "
      },
      "setURI1155(string)": {
        "notice": "ERC1155 functionality **********************************************"
      }
    },
    "version": 1
  }
}