{
  "contractName": "ACHouse",
  "abi": [
    {
      "inputs": [
        {
          "internalType": "address",
          "name": "_mToken",
          "type": "address"
        },
        {
          "internalType": "address",
          "name": "_nToken",
          "type": "address"
        }
      ],
      "stateMutability": "nonpayable",
      "type": "constructor"
    },
    {
      "anonymous": false,
      "inputs": [
        {
          "indexed": true,
          "internalType": "uint256",
          "name": "itemId",
          "type": "uint256"
        },
        {
          "indexed": true,
          "internalType": "address",
          "name": "nftContract",
          "type": "address"
        },
        {
          "indexed": true,
          "internalType": "uint256",
          "name": "tokenId",
          "type": "uint256"
        },
        {
          "indexed": false,
          "internalType": "address",
          "name": "seller",
          "type": "address"
        },
        {
          "indexed": false,
          "internalType": "address",
          "name": "owner",
          "type": "address"
        },
        {
          "indexed": false,
          "internalType": "uint256",
          "name": "price",
          "type": "uint256"
        },
        {
          "indexed": false,
          "internalType": "uint256",
          "name": "amount",
          "type": "uint256"
        },
        {
          "indexed": false,
          "internalType": "bool",
          "name": "sold",
          "type": "bool"
        },
        {
          "indexed": false,
          "internalType": "bool",
          "name": "isMultiToken",
          "type": "bool"
        }
      ],
      "name": "MarketItemCreated",
      "type": "event"
    },
    {
      "anonymous": false,
      "inputs": [
        {
          "indexed": true,
          "internalType": "uint256",
          "name": "itemId",
          "type": "uint256"
        },
        {
          "indexed": true,
          "internalType": "address",
          "name": "nftContract",
          "type": "address"
        },
        {
          "indexed": true,
          "internalType": "uint256",
          "name": "tokenId",
          "type": "uint256"
        },
        {
          "indexed": false,
          "internalType": "address",
          "name": "seller",
          "type": "address"
        },
        {
          "indexed": false,
          "internalType": "address",
          "name": "owner",
          "type": "address"
        },
        {
          "indexed": false,
          "internalType": "uint256",
          "name": "price",
          "type": "uint256"
        },
        {
          "indexed": false,
          "internalType": "bool",
          "name": "sold",
          "type": "bool"
        }
      ],
      "name": "MarketItemSold",
      "type": "event"
    },
    {
      "inputs": [
        {
          "internalType": "uint256",
          "name": "",
          "type": "uint256"
        }
      ],
      "name": "ngoArray",
      "outputs": [
        {
          "internalType": "uint256",
          "name": "id",
          "type": "uint256"
        },
        {
          "internalType": "string",
          "name": "name",
          "type": "string"
        }
      ],
      "stateMutability": "view",
      "type": "function",
      "constant": true
    },
    {
      "inputs": [
        {
          "internalType": "address",
          "name": "",
          "type": "address"
        },
        {
          "internalType": "address",
          "name": "",
          "type": "address"
        },
        {
          "internalType": "uint256[]",
          "name": "",
          "type": "uint256[]"
        },
        {
          "internalType": "uint256[]",
          "name": "",
          "type": "uint256[]"
        },
        {
          "internalType": "bytes",
          "name": "",
          "type": "bytes"
        }
      ],
      "name": "onERC1155BatchReceived",
      "outputs": [
        {
          "internalType": "bytes4",
          "name": "",
          "type": "bytes4"
        }
      ],
      "stateMutability": "nonpayable",
      "type": "function"
    },
    {
      "inputs": [
        {
          "internalType": "address",
          "name": "",
          "type": "address"
        },
        {
          "internalType": "address",
          "name": "",
          "type": "address"
        },
        {
          "internalType": "uint256",
          "name": "",
          "type": "uint256"
        },
        {
          "internalType": "uint256",
          "name": "",
          "type": "uint256"
        },
        {
          "internalType": "bytes",
          "name": "",
          "type": "bytes"
        }
      ],
      "name": "onERC1155Received",
      "outputs": [
        {
          "internalType": "bytes4",
          "name": "",
          "type": "bytes4"
        }
      ],
      "stateMutability": "nonpayable",
      "type": "function"
    },
    {
      "inputs": [
        {
          "internalType": "address",
          "name": "",
          "type": "address"
        },
        {
          "internalType": "address",
          "name": "",
          "type": "address"
        },
        {
          "internalType": "uint256",
          "name": "",
          "type": "uint256"
        },
        {
          "internalType": "bytes",
          "name": "",
          "type": "bytes"
        }
      ],
      "name": "onERC721Received",
      "outputs": [
        {
          "internalType": "bytes4",
          "name": "",
          "type": "bytes4"
        }
      ],
      "stateMutability": "nonpayable",
      "type": "function"
    },
    {
      "inputs": [
        {
          "internalType": "bytes4",
          "name": "interfaceId",
          "type": "bytes4"
        }
      ],
      "name": "supportsInterface",
      "outputs": [
        {
          "internalType": "bool",
          "name": "",
          "type": "bool"
        }
      ],
      "stateMutability": "view",
      "type": "function",
      "constant": true
    },
    {
      "inputs": [
        {
          "internalType": "address",
          "name": "nftContract",
          "type": "address"
        },
        {
          "internalType": "uint256",
          "name": "tokenId",
          "type": "uint256"
        },
        {
          "internalType": "uint256",
          "name": "price",
          "type": "uint256"
        },
        {
          "internalType": "uint256",
          "name": "amount",
          "type": "uint256"
        }
      ],
      "name": "create1155MarketItem",
      "outputs": [],
      "stateMutability": "payable",
      "type": "function",
      "payable": true
    },
    {
      "inputs": [
        {
          "internalType": "address",
          "name": "nftContract",
          "type": "address"
        },
        {
          "internalType": "uint256",
          "name": "tokenId",
          "type": "uint256"
        },
        {
          "internalType": "uint256",
          "name": "price",
          "type": "uint256"
        }
      ],
      "name": "create721MarketItem",
      "outputs": [],
      "stateMutability": "payable",
      "type": "function",
      "payable": true
    },
    {
      "inputs": [
        {
          "internalType": "uint256",
          "name": "itemId",
          "type": "uint256"
        }
      ],
      "name": "removeMarketPlaceItem",
      "outputs": [],
      "stateMutability": "nonpayable",
      "type": "function"
    },
    {
      "inputs": [
        {
          "internalType": "uint256",
          "name": "itemId",
          "type": "uint256"
        }
      ],
      "name": "addMarketPlaceItem",
      "outputs": [],
      "stateMutability": "nonpayable",
      "type": "function"
    },
    {
      "inputs": [
        {
          "internalType": "address",
          "name": "nftContract",
          "type": "address"
        },
        {
          "internalType": "uint256",
          "name": "itemId",
          "type": "uint256"
        }
      ],
      "name": "createMarketSale",
      "outputs": [],
      "stateMutability": "payable",
      "type": "function",
      "payable": true
    },
    {
      "inputs": [],
      "name": "fetchUnSoldMarketItems",
      "outputs": [
        {
          "components": [
            {
              "internalType": "uint256",
              "name": "itemId",
              "type": "uint256"
            },
            {
              "internalType": "address",
              "name": "nftContract",
              "type": "address"
            },
            {
              "internalType": "uint256",
              "name": "tokenId",
              "type": "uint256"
            },
            {
              "internalType": "address payable",
              "name": "seller",
              "type": "address"
            },
            {
              "internalType": "address payable",
              "name": "owner",
              "type": "address"
            },
            {
              "internalType": "uint256",
              "name": "price",
              "type": "uint256"
            },
            {
              "internalType": "uint256",
              "name": "amount",
              "type": "uint256"
            },
            {
              "internalType": "bool",
              "name": "sold",
              "type": "bool"
            },
            {
              "internalType": "bool",
              "name": "isMultiToken",
              "type": "bool"
            },
            {
              "internalType": "bool",
              "name": "isRemoved",
              "type": "bool"
            }
          ],
          "internalType": "struct ACHouse.MarketItem[]",
          "name": "",
          "type": "tuple[]"
        }
      ],
      "stateMutability": "view",
      "type": "function",
      "constant": true
    },
    {
      "inputs": [],
      "name": "fetchMyNFTs",
      "outputs": [
        {
          "components": [
            {
              "internalType": "uint256",
              "name": "itemId",
              "type": "uint256"
            },
            {
              "internalType": "address",
              "name": "nftContract",
              "type": "address"
            },
            {
              "internalType": "uint256",
              "name": "tokenId",
              "type": "uint256"
            },
            {
              "internalType": "address payable",
              "name": "seller",
              "type": "address"
            },
            {
              "internalType": "address payable",
              "name": "owner",
              "type": "address"
            },
            {
              "internalType": "uint256",
              "name": "price",
              "type": "uint256"
            },
            {
              "internalType": "uint256",
              "name": "amount",
              "type": "uint256"
            },
            {
              "internalType": "bool",
              "name": "sold",
              "type": "bool"
            },
            {
              "internalType": "bool",
              "name": "isMultiToken",
              "type": "bool"
            },
            {
              "internalType": "bool",
              "name": "isRemoved",
              "type": "bool"
            }
          ],
          "internalType": "struct ACHouse.MarketItem[]",
          "name": "",
          "type": "tuple[]"
        }
      ],
      "stateMutability": "view",
      "type": "function",
      "constant": true
    },
    {
      "inputs": [],
      "name": "fetchItemsCreated",
      "outputs": [
        {
          "components": [
            {
              "internalType": "uint256",
              "name": "itemId",
              "type": "uint256"
            },
            {
              "internalType": "address",
              "name": "nftContract",
              "type": "address"
            },
            {
              "internalType": "uint256",
              "name": "tokenId",
              "type": "uint256"
            },
            {
              "internalType": "address payable",
              "name": "seller",
              "type": "address"
            },
            {
              "internalType": "address payable",
              "name": "owner",
              "type": "address"
            },
            {
              "internalType": "uint256",
              "name": "price",
              "type": "uint256"
            },
            {
              "internalType": "uint256",
              "name": "amount",
              "type": "uint256"
            },
            {
              "internalType": "bool",
              "name": "sold",
              "type": "bool"
            },
            {
              "internalType": "bool",
              "name": "isMultiToken",
              "type": "bool"
            },
            {
              "internalType": "bool",
              "name": "isRemoved",
              "type": "bool"
            }
          ],
          "internalType": "struct ACHouse.MarketItem[]",
          "name": "",
          "type": "tuple[]"
        }
      ],
      "stateMutability": "view",
      "type": "function",
      "constant": true
    },
    {
      "inputs": [
        {
          "internalType": "string",
          "name": "_name",
          "type": "string"
        },
        {
          "internalType": "uint256",
          "name": "_userType",
          "type": "uint256"
        }
      ],
      "name": "register",
      "outputs": [
        {
          "internalType": "bool",
          "name": "",
          "type": "bool"
        }
      ],
      "stateMutability": "nonpayable",
      "type": "function"
    },
    {
      "inputs": [
        {
          "internalType": "string",
          "name": "_uri",
          "type": "string"
        }
      ],
      "name": "setURI1155",
      "outputs": [],
      "stateMutability": "nonpayable",
      "type": "function"
    },
    {
      "inputs": [],
      "name": "getTokenCount",
      "outputs": [
        {
          "internalType": "uint256",
          "name": "",
          "type": "uint256"
        }
      ],
      "stateMutability": "view",
      "type": "function",
      "constant": true
    },
    {
      "inputs": [],
      "name": "getTokenIds",
      "outputs": [
        {
          "internalType": "uint256[]",
          "name": "",
          "type": "uint256[]"
        }
      ],
      "stateMutability": "view",
      "type": "function",
      "constant": true
    },
    {
      "inputs": [
        {
          "internalType": "address",
          "name": "nftContract",
          "type": "address"
        },
        {
          "internalType": "uint256",
          "name": "tokenId",
          "type": "uint256"
        },
        {
          "internalType": "uint256",
          "name": "shardId",
          "type": "uint256"
        },
        {
          "internalType": "uint256",
          "name": "priceOfShard",
          "type": "uint256"
        },
        {
          "internalType": "uint256",
          "name": "supplyToCreate",
          "type": "uint256"
        },
        {
          "internalType": "string",
          "name": "uri",
          "type": "string"
        }
      ],
      "name": "fractionalize1155NFT",
      "outputs": [],
      "stateMutability": "nonpayable",
      "type": "function"
    },
    {
      "inputs": [
        {
          "internalType": "address",
          "name": "nftContract",
          "type": "address"
        },
        {
          "internalType": "uint256",
          "name": "tokenId",
          "type": "uint256"
        },
        {
          "internalType": "uint256",
          "name": "shardId",
          "type": "uint256"
        },
        {
          "internalType": "uint256",
          "name": "priceOfShard",
          "type": "uint256"
        },
        {
          "internalType": "uint256",
          "name": "supplyToCreate",
          "type": "uint256"
        },
        {
          "internalType": "string",
          "name": "uri",
          "type": "string"
        }
      ],
      "name": "fractionalize721NFT",
      "outputs": [],
      "stateMutability": "nonpayable",
      "type": "function"
    },
    {
      "inputs": [
        {
          "internalType": "uint256",
          "name": "_id",
          "type": "uint256"
        },
        {
          "internalType": "string",
          "name": "uri",
          "type": "string"
        }
      ],
      "name": "createNFT1155",
      "outputs": [],
      "stateMutability": "nonpayable",
      "type": "function"
    },
    {
      "inputs": [
        {
          "internalType": "uint256",
          "name": "_id",
          "type": "uint256"
        },
        {
          "internalType": "uint256",
          "name": "_amount",
          "type": "uint256"
        }
      ],
      "name": "createNFT1155",
      "outputs": [],
      "stateMutability": "nonpayable",
      "type": "function"
    },
    {
      "inputs": [],
      "name": "get721TokenCount",
      "outputs": [
        {
          "internalType": "uint256",
          "name": "",
          "type": "uint256"
        }
      ],
      "stateMutability": "view",
      "type": "function",
      "constant": true
    },
    {
      "inputs": [],
      "name": "get721TokenIds",
      "outputs": [
        {
          "internalType": "uint256[]",
          "name": "",
          "type": "uint256[]"
        }
      ],
      "stateMutability": "view",
      "type": "function",
      "constant": true
    }
  ],
  "bytecode": "0x60806040526000600755600060085560006009556000600a553480156200002557600080fd5b5060405162003d7c38038062003d7c83398181016040528101906200004b919062000135565b600160008190555081600560006101000a81548173ffffffffffffffffffffffffffffffffffffffff021916908373ffffffffffffffffffffffffffffffffffffffff16021790555080600660006101000a81548173ffffffffffffffffffffffffffffffffffffffff021916908373ffffffffffffffffffffffffffffffffffffffff16021790555033600460006101000a81548173ffffffffffffffffffffffffffffffffffffffff021916908373ffffffffffffffffffffffffffffffffffffffff1602179055505050620001c4565b6000815190506200012f81620001aa565b92915050565b600080604083850312156200014957600080fd5b600062000159858286016200011e565b92505060206200016c858286016200011e565b9150509250929050565b600062000183826200018a565b9050919050565b600073ffffffffffffffffffffffffffffffffffffffff82169050919050565b620001b58162000176565b8114620001c157600080fd5b50565b613ba880620001d46000396000f3fe6080604052600436106101405760003560e01c806393e19383116100b6578063c23b139e1161006f578063c23b139e1461043f578063dbcd674e1461045b578063dce9fc1114610486578063ea87152b146104af578063f064c32e146104ec578063f23a6e611461051757610140565b806393e193831461032b578063953e8267146103475780639c79afb314610372578063af8e6c39146103b0578063b5daa4fc146103d9578063bc197c811461040257610140565b8063382edbcf11610108578063382edbcf1461023c5780633e52a165146102675780634eab9b9f1461029057806367f718a9146102b957806378a89567146102e45780639240ccae1461030f57610140565b806301ffc9a714610145578063145eca8c14610182578063150b7a02146101ab578063202e3740146101e85780632642c74f14610213575b600080fd5b34801561015157600080fd5b5061016c60048036038101906101679190612e2a565b610554565b6040516101799190613562565b60405180910390f35b34801561018e57600080fd5b506101a960048036038101906101a49190612ee8565b6105ce565b005b3480156101b757600080fd5b506101d260048036038101906101cd9190612b50565b610600565b6040516101df919061357d565b60405180910390f35b3480156101f457600080fd5b506101fd610614565b60405161020a919061351e565b60405180910390f35b34801561021f57600080fd5b5061023a60048036038101906102359190612d48565b61096d565b005b34801561024857600080fd5b506102516109fd565b60405161025e919061351e565b60405180910390f35b34801561027357600080fd5b5061028e60048036038101906102899190612ee8565b610d8d565b005b34801561029c57600080fd5b506102b760048036038101906102b29190612f3a565b610dbf565b005b3480156102c557600080fd5b506102ce610e54565b6040516102db9190613540565b60405180910390f35b3480156102f057600080fd5b506102f9610f00565b60405161030691906135fa565b60405180910390f35b61032960048036038101906103249190612ce5565b610fa7565b005b61034560048036038101906103409190612c96565b6112f7565b005b34801561035357600080fd5b5061035c611645565b6040516103699190613540565b60405180910390f35b34801561037e57600080fd5b5061039960048036038101906103949190612ee8565b6116f1565b6040516103a7929190613615565b60405180910390f35b3480156103bc57600080fd5b506103d760048036038101906103d29190612e53565b6117ad565b005b3480156103e557600080fd5b5061040060048036038101906103fb9190612d48565b61183d565b005b34801561040e57600080fd5b5061042960048036038101906104249190612a91565b6118d0565b604051610436919061357d565b60405180910390f35b61045960048036038101906104549190612c5a565b6118e5565b005b34801561046757600080fd5b50610470611dba565b60405161047d91906135fa565b60405180910390f35b34801561049257600080fd5b506104ad60048036038101906104a89190612f8e565b611e61565b005b3480156104bb57600080fd5b506104d660048036038101906104d19190612e94565b611ef6565b6040516104e39190613562565b60405180910390f35b3480156104f857600080fd5b506105016121ab565b60405161050e919061351e565b60405180910390f35b34801561052357600080fd5b5061053e60048036038101906105399190612bcb565b612585565b60405161054b919061357d565b60405180910390f35b60007f4e2312e0000000000000000000000000000000000000000000000000000000007bffffffffffffffffffffffffffffffffffffffffffffffffffffffff1916827bffffffffffffffffffffffffffffffffffffffffffffffffffffffff191614806105c757506105c68261259a565b5b9050919050565b60016012600083815260200190815260200160002060070160026101000a81548160ff02191690831515021790555050565b600063150b7a0260e01b9050949350505050565b60606000601560003373ffffffffffffffffffffffffffffffffffffffff1673ffffffffffffffffffffffffffffffffffffffff1681526020019081526020016000208054806020026020016040519081016040528092919081815260200182805480156106a157602002820191906000526020600020905b81548152602001906001019080831161068d575b505050505090506000815167ffffffffffffffff8111156106eb577f4e487b7100000000000000000000000000000000000000000000000000000000600052604160045260246000fd5b60405190808252806020026020018201604052801561072457816020015b610711612703565b8152602001906001900390816107095790505b50905060005b82518110156109645760126000848381518110610770577f4e487b7100000000000000000000000000000000000000000000000000000000600052603260045260246000fd5b6020026020010151815260200190815260200160002060405180610140016040529081600082015481526020016001820160009054906101000a900473ffffffffffffffffffffffffffffffffffffffff1673ffffffffffffffffffffffffffffffffffffffff1673ffffffffffffffffffffffffffffffffffffffff168152602001600282015481526020016003820160009054906101000a900473ffffffffffffffffffffffffffffffffffffffff1673ffffffffffffffffffffffffffffffffffffffff1673ffffffffffffffffffffffffffffffffffffffff1681526020016004820160009054906101000a900473ffffffffffffffffffffffffffffffffffffffff1673ffffffffffffffffffffffffffffffffffffffff1673ffffffffffffffffffffffffffffffffffffffff16815260200160058201548152602001600682015481526020016007820160009054906101000a900460ff161515151581526020016007820160019054906101000a900460ff161515151581526020016007820160029054906101000a900460ff161515151581525050828281518110610946577f4e487b7100000000000000000000000000000000000000000000000000000000600052603260045260246000fd5b6020026020010181905250808061095c906139a1565b91505061072a565b50809250505090565b6109776003612604565b6000610983600361261a565b90508673ffffffffffffffffffffffffffffffffffffffff166323b872dd3330896040518463ffffffff1660e01b81526004016109c293929190613300565b600060405180830381600087803b1580156109dc57600080fd5b505af11580156109f0573d6000803e3d6000fd5b5050505050505050505050565b60606000610a0b600261261a565b610a15600161261a565b610a1f91906137ed565b905060008167ffffffffffffffff811115610a63577f4e487b7100000000000000000000000000000000000000000000000000000000600052604160045260246000fd5b604051908082528060200260200182016040528015610a9c57816020015b610a89612703565b815260200190600190039081610a815790505b509050600080610aac600161261a565b905060005b81811015610d8257600073ffffffffffffffffffffffffffffffffffffffff1660126000600184610ae29190613797565b815260200190815260200160002060040160009054906101000a900473ffffffffffffffffffffffffffffffffffffffff1673ffffffffffffffffffffffffffffffffffffffff16148015610b6a57506000151560126000600184610b479190613797565b815260200190815260200160002060070160029054906101000a900460ff161515145b15610d6f576000600182610b7e9190613797565b90506012600082815260200190815260200160002060405180610140016040529081600082015481526020016001820160009054906101000a900473ffffffffffffffffffffffffffffffffffffffff1673ffffffffffffffffffffffffffffffffffffffff1673ffffffffffffffffffffffffffffffffffffffff168152602001600282015481526020016003820160009054906101000a900473ffffffffffffffffffffffffffffffffffffffff1673ffffffffffffffffffffffffffffffffffffffff1673ffffffffffffffffffffffffffffffffffffffff1681526020016004820160009054906101000a900473ffffffffffffffffffffffffffffffffffffffff1673ffffffffffffffffffffffffffffffffffffffff1673ffffffffffffffffffffffffffffffffffffffff16815260200160058201548152602001600682015481526020016007820160009054906101000a900460ff161515151581526020016007820160019054906101000a900460ff161515151581526020016007820160029054906101000a900460ff161515151581525050858581518110610d53577f4e487b7100000000000000000000000000000000000000000000000000000000600052603260045260246000fd5b6020026020010181905250600184610d6b9190613797565b9350505b8080610d7a906139a1565b915050610ab1565b508294505050505090565b60006012600083815260200190815260200160002060070160026101000a81548160ff02191690831515021790555050565b600660009054906101000a900473ffffffffffffffffffffffffffffffffffffffff1673ffffffffffffffffffffffffffffffffffffffff16631e5769123384846040518463ffffffff1660e01b8152600401610e1e939291906134a9565b600060405180830381600087803b158015610e3857600080fd5b505af1158015610e4c573d6000803e3d6000fd5b505050505050565b6060600560009054906101000a900473ffffffffffffffffffffffffffffffffffffffff1673ffffffffffffffffffffffffffffffffffffffff166367f718a96040518163ffffffff1660e01b815260040160006040518083038186803b158015610ebe57600080fd5b505afa158015610ed2573d6000803e3d6000fd5b505050506040513d6000823e3d601f19601f82011682018060405250810190610efb9190612de9565b905090565b6000600560009054906101000a900473ffffffffffffffffffffffffffffffffffffffff1673ffffffffffffffffffffffffffffffffffffffff166378a895676040518163ffffffff1660e01b815260040160206040518083038186803b158015610f6a57600080fd5b505afa158015610f7e573d6000803e3d6000fd5b505050506040513d601f19601f82011682018060405250810190610fa29190612f11565b905090565b60026000541415610fed576040517f08c379a0000000000000000000000000000000000000000000000000000000008152600401610fe4906135ba565b60405180910390fd5b6002600081905550610fff6001612604565b600061100b600161261a565b905060006040518061014001604052808381526020018773ffffffffffffffffffffffffffffffffffffffff1681526020018681526020013373ffffffffffffffffffffffffffffffffffffffff168152602001600073ffffffffffffffffffffffffffffffffffffffff16815260200185815260200184815260200160001515815260200160011515815260200160001515815250905080601260008481526020019081526020016000206000820151816000015560208201518160010160006101000a81548173ffffffffffffffffffffffffffffffffffffffff021916908373ffffffffffffffffffffffffffffffffffffffff1602179055506040820151816002015560608201518160030160006101000a81548173ffffffffffffffffffffffffffffffffffffffff021916908373ffffffffffffffffffffffffffffffffffffffff16021790555060808201518160040160006101000a81548173ffffffffffffffffffffffffffffffffffffffff021916908373ffffffffffffffffffffffffffffffffffffffff16021790555060a0820151816005015560c0820151816006015560e08201518160070160006101000a81548160ff0219169083151502179055506101008201518160070160016101000a81548160ff0219169083151502179055506101208201518160070160026101000a81548160ff0219169083151502179055509050508573ffffffffffffffffffffffffffffffffffffffff1663f242432a333088876040518563ffffffff1660e01b81526004016112589493929190613451565b600060405180830381600087803b15801561127257600080fd5b505af1158015611286573d6000803e3d6000fd5b50505050848673ffffffffffffffffffffffffffffffffffffffff16837fecbc33f6e1b7df72a609c0b81c4cdbe2b2b609ec99b99618c5f4dd8839b2ae063360008989600060016040516112df969594939291906133f0565b60405180910390a45050600160008190555050505050565b6002600054141561133d576040517f08c379a0000000000000000000000000000000000000000000000000000000008152600401611334906135ba565b60405180910390fd5b600260008190555061134f6001612604565b600061135b600161261a565b905060006040518061014001604052808381526020018673ffffffffffffffffffffffffffffffffffffffff1681526020018581526020013373ffffffffffffffffffffffffffffffffffffffff168152602001600073ffffffffffffffffffffffffffffffffffffffff1681526020018481526020016001815260200160001515815260200160011515815260200160001515815250905080601260008481526020019081526020016000206000820151816000015560208201518160010160006101000a81548173ffffffffffffffffffffffffffffffffffffffff021916908373ffffffffffffffffffffffffffffffffffffffff1602179055506040820151816002015560608201518160030160006101000a81548173ffffffffffffffffffffffffffffffffffffffff021916908373ffffffffffffffffffffffffffffffffffffffff16021790555060808201518160040160006101000a81548173ffffffffffffffffffffffffffffffffffffffff021916908373ffffffffffffffffffffffffffffffffffffffff16021790555060a0820151816005015560c0820151816006015560e08201518160070160006101000a81548160ff0219169083151502179055506101008201518160070160016101000a81548160ff0219169083151502179055506101208201518160070160026101000a81548160ff0219169083151502179055509050508473ffffffffffffffffffffffffffffffffffffffff166323b872dd3330876040518463ffffffff1660e01b81526004016115a793929190613300565b600060405180830381600087803b1580156115c157600080fd5b505af11580156115d5573d6000803e3d6000fd5b50505050838573ffffffffffffffffffffffffffffffffffffffff16837fecbc33f6e1b7df72a609c0b81c4cdbe2b2b609ec99b99618c5f4dd8839b2ae0633600088600160008060405161162e96959493929190613337565b60405180910390a450506001600081905550505050565b6060600660009054906101000a900473ffffffffffffffffffffffffffffffffffffffff1673ffffffffffffffffffffffffffffffffffffffff166367f718a96040518163ffffffff1660e01b815260040160006040518083038186803b1580156116af57600080fd5b505afa1580156116c3573d6000803e3d6000fd5b505050506040513d6000823e3d601f19601f820116820180604052508101906116ec9190612de9565b905090565b600b818154811061170157600080fd5b906000526020600020906002020160009150905080600001549080600101805461172a9061393e565b80601f01602080910402602001604051908101604052809291908181526020018280546117569061393e565b80156117a35780601f10611778576101008083540402835291602001916117a3565b820191906000526020600020905b81548152906001019060200180831161178657829003601f168201915b5050505050905082565b600560009054906101000a900473ffffffffffffffffffffffffffffffffffffffff1673ffffffffffffffffffffffffffffffffffffffff166302fe5305826040518263ffffffff1660e01b81526004016118089190613598565b600060405180830381600087803b15801561182257600080fd5b505af1158015611836573d6000803e3d6000fd5b5050505050565b6118476003612604565b6000611853600361261a565b90508673ffffffffffffffffffffffffffffffffffffffff1663f242432a33308960016040518563ffffffff1660e01b81526004016118959493929190613398565b600060405180830381600087803b1580156118af57600080fd5b505af11580156118c3573d6000803e3d6000fd5b5050505050505050505050565b600063bc197c8160e01b905095945050505050565b6002600054141561192b576040517f08c379a0000000000000000000000000000000000000000000000000000000008152600401611922906135ba565b60405180910390fd5b600260008190555060006012600083815260200190815260200160002060405180610140016040529081600082015481526020016001820160009054906101000a900473ffffffffffffffffffffffffffffffffffffffff1673ffffffffffffffffffffffffffffffffffffffff1673ffffffffffffffffffffffffffffffffffffffff168152602001600282015481526020016003820160009054906101000a900473ffffffffffffffffffffffffffffffffffffffff1673ffffffffffffffffffffffffffffffffffffffff1673ffffffffffffffffffffffffffffffffffffffff1681526020016004820160009054906101000a900473ffffffffffffffffffffffffffffffffffffffff1673ffffffffffffffffffffffffffffffffffffffff1673ffffffffffffffffffffffffffffffffffffffff16815260200160058201548152602001600682015481526020016007820160009054906101000a900460ff161515151581526020016007820160019054906101000a900460ff161515151581526020016007820160029054906101000a900460ff161515151581525050905060008160a00151905060008260400151905060008361010001519050836060015173ffffffffffffffffffffffffffffffffffffffff166108fc349081150290604051600060405180830381858888f19350505050158015611b37573d6000803e3d6000fd5b508015611bbc578573ffffffffffffffffffffffffffffffffffffffff1663f242432a303387604001518860c001516040518563ffffffff1660e01b8152600401611b859493929190613451565b600060405180830381600087803b158015611b9f57600080fd5b505af1158015611bb3573d6000803e3d6000fd5b50505050611c2c565b8573ffffffffffffffffffffffffffffffffffffffff166323b872dd3033856040518463ffffffff1660e01b8152600401611bf993929190613300565b600060405180830381600087803b158015611c1357600080fd5b505af1158015611c27573d6000803e3d6000fd5b505050505b33846080019073ffffffffffffffffffffffffffffffffffffffff16908173ffffffffffffffffffffffffffffffffffffffff168152505060018460e0019015159081151581525050611c7f6002612604565b60136000856060015173ffffffffffffffffffffffffffffffffffffffff1673ffffffffffffffffffffffffffffffffffffffff168152602001908152602001600020859080600181540180825580915050600190039060005260206000200160009091909190915055601560003373ffffffffffffffffffffffffffffffffffffffff1673ffffffffffffffffffffffffffffffffffffffff168152602001908152602001600020859080600181540180825580915050600190039060005260206000200160009091909190915055818673ffffffffffffffffffffffffffffffffffffffff16867ffeb04e399f6ba62d926a65372cbb5f11e3c7a9ff05e62948769d2ee5d5335b84876060015133886001604051611da294939291906132bb565b60405180910390a45050505060016000819055505050565b6000600660009054906101000a900473ffffffffffffffffffffffffffffffffffffffff1673ffffffffffffffffffffffffffffffffffffffff166378a895676040518163ffffffff1660e01b815260040160206040518083038186803b158015611e2457600080fd5b505afa158015611e38573d6000803e3d6000fd5b505050506040513d601f19601f82011682018060405250810190611e5c9190612f11565b905090565b600560009054906101000a900473ffffffffffffffffffffffffffffffffffffffff1673ffffffffffffffffffffffffffffffffffffffff16635a9d10a23384846040518463ffffffff1660e01b8152600401611ec0939291906134e7565b600060405180830381600087803b158015611eda57600080fd5b505af1158015611eee573d6000803e3d6000fd5b505050505050565b6000801515611f0433612628565b151514611f46576040517f08c379a0000000000000000000000000000000000000000000000000000000008152600401611f3d906135da565b60405180910390fd5b6001821415611ff25760006040518060400160405280600754815260200185815250905060076000815480929190611f7d906139a1565b919050555080600d60003373ffffffffffffffffffffffffffffffffffffffff1673ffffffffffffffffffffffffffffffffffffffff168152602001908152602001600020600082015181600001556020820151816001019080519060200190611fe892919061279e565b509050505061213e565b600282141561209e5760006040518060400160405280600854815260200185815250905060086000815480929190612029906139a1565b919050555080600e60003373ffffffffffffffffffffffffffffffffffffffff1673ffffffffffffffffffffffffffffffffffffffff16815260200190815260200160002060008201518160000155602082015181600101908051906020019061209492919061279e565b509050505061213d565b600060405180604001604052806009548152602001858152509050600960008154809291906120cc906139a1565b919050555080600f60003373ffffffffffffffffffffffffffffffffffffffff1673ffffffffffffffffffffffffffffffffffffffff16815260200190815260200160002060008201518160000155602082015181600101908051906020019061213792919061279e565b50905050505b5b600c339080600181540180825580915050600190039060005260206000200160009091909190916101000a81548173ffffffffffffffffffffffffffffffffffffffff021916908373ffffffffffffffffffffffffffffffffffffffff1602179055506001905092915050565b606060006121b9600161261a565b90506000805b82811015612260573373ffffffffffffffffffffffffffffffffffffffff16601260006001846121ef9190613797565b815260200190815260200160002060030160009054906101000a900473ffffffffffffffffffffffffffffffffffffffff1673ffffffffffffffffffffffffffffffffffffffff16141561224d5760018261224a9190613797565b91505b8080612258906139a1565b9150506121bf565b5060008167ffffffffffffffff8111156122a3577f4e487b7100000000000000000000000000000000000000000000000000000000600052604160045260246000fd5b6040519080825280602002602001820160405280156122dc57816020015b6122c9612703565b8152602001906001900390816122c15790505b5090506000805b8481101561257a573373ffffffffffffffffffffffffffffffffffffffff16601260006001846123139190613797565b815260200190815260200160002060030160009054906101000a900473ffffffffffffffffffffffffffffffffffffffff1673ffffffffffffffffffffffffffffffffffffffff1614156125675760006001826123709190613797565b905060006012600083815260200190815260200160002090508060405180610140016040529081600082015481526020016001820160009054906101000a900473ffffffffffffffffffffffffffffffffffffffff1673ffffffffffffffffffffffffffffffffffffffff1673ffffffffffffffffffffffffffffffffffffffff168152602001600282015481526020016003820160009054906101000a900473ffffffffffffffffffffffffffffffffffffffff1673ffffffffffffffffffffffffffffffffffffffff1673ffffffffffffffffffffffffffffffffffffffff1681526020016004820160009054906101000a900473ffffffffffffffffffffffffffffffffffffffff1673ffffffffffffffffffffffffffffffffffffffff1673ffffffffffffffffffffffffffffffffffffffff16815260200160058201548152602001600682015481526020016007820160009054906101000a900460ff161515151581526020016007820160019054906101000a900460ff161515151581526020016007820160029054906101000a900460ff16151515158152505085858151811061254a577f4e487b7100000000000000000000000000000000000000000000000000000000600052603260045260246000fd5b60200260200101819052506001846125629190613797565b935050505b8080612572906139a1565b9150506122e3565b508194505050505090565b600063f23a6e6160e01b905095945050505050565b60007f01ffc9a7000000000000000000000000000000000000000000000000000000007bffffffffffffffffffffffffffffffffffffffffffffffffffffffff1916827bffffffffffffffffffffffffffffffffffffffffffffffffffffffff1916149050919050565b6001816000016000828254019250508190555050565b600081600001549050919050565b600080600090505b600c805490508160ff1610156126f8578273ffffffffffffffffffffffffffffffffffffffff16600c8260ff1681548110612694577f4e487b7100000000000000000000000000000000000000000000000000000000600052603260045260246000fd5b9060005260206000200160009054906101000a900473ffffffffffffffffffffffffffffffffffffffff1673ffffffffffffffffffffffffffffffffffffffff1614156126e55760019150506126fe565b80806126f0906139ea565b915050612630565b50600090505b919050565b60405180610140016040528060008152602001600073ffffffffffffffffffffffffffffffffffffffff16815260200160008152602001600073ffffffffffffffffffffffffffffffffffffffff168152602001600073ffffffffffffffffffffffffffffffffffffffff16815260200160008152602001600081526020016000151581526020016000151581526020016000151581525090565b8280546127aa9061393e565b90600052602060002090601f0160209004810192826127cc5760008555612813565b82601f106127e557805160ff1916838001178555612813565b82800160010185558215612813579182015b828111156128125782518255916020019190600101906127f7565b5b5090506128209190612824565b5090565b5b8082111561283d576000816000905550600101612825565b5090565b600061285461284f8461366a565b613645565b9050808382526020820190508285602086028201111561287357600080fd5b60005b858110156128a357816128898882612a67565b845260208401935060208301925050600181019050612876565b5050509392505050565b60006128c06128bb8461366a565b613645565b905080838252602082019050828560208602820111156128df57600080fd5b60005b8581101561290f57816128f58882612a7c565b8452602084019350602083019250506001810190506128e2565b5050509392505050565b600061292c61292784613696565b613645565b90508281526020810184848401111561294457600080fd5b61294f8482856138fc565b509392505050565b600061296a612965846136c7565b613645565b90508281526020810184848401111561298257600080fd5b61298d8482856138fc565b509392505050565b6000813590506129a481613b2d565b92915050565b600082601f8301126129bb57600080fd5b81356129cb848260208601612841565b91505092915050565b600082601f8301126129e557600080fd5b81516129f58482602086016128ad565b91505092915050565b600081359050612a0d81613b44565b92915050565b600082601f830112612a2457600080fd5b8135612a34848260208601612919565b91505092915050565b600082601f830112612a4e57600080fd5b8135612a5e848260208601612957565b91505092915050565b600081359050612a7681613b5b565b92915050565b600081519050612a8b81613b5b565b92915050565b600080600080600060a08688031215612aa957600080fd5b6000612ab788828901612995565b9550506020612ac888828901612995565b945050604086013567ffffffffffffffff811115612ae557600080fd5b612af1888289016129aa565b935050606086013567ffffffffffffffff811115612b0e57600080fd5b612b1a888289016129aa565b925050608086013567ffffffffffffffff811115612b3757600080fd5b612b4388828901612a13565b9150509295509295909350565b60008060008060808587031215612b6657600080fd5b6000612b7487828801612995565b9450506020612b8587828801612995565b9350506040612b9687828801612a67565b925050606085013567ffffffffffffffff811115612bb357600080fd5b612bbf87828801612a13565b91505092959194509250565b600080600080600060a08688031215612be357600080fd5b6000612bf188828901612995565b9550506020612c0288828901612995565b9450506040612c1388828901612a67565b9350506060612c2488828901612a67565b925050608086013567ffffffffffffffff811115612c4157600080fd5b612c4d88828901612a13565b9150509295509295909350565b60008060408385031215612c6d57600080fd5b6000612c7b85828601612995565b9250506020612c8c85828601612a67565b9150509250929050565b600080600060608486031215612cab57600080fd5b6000612cb986828701612995565b9350506020612cca86828701612a67565b9250506040612cdb86828701612a67565b9150509250925092565b60008060008060808587031215612cfb57600080fd5b6000612d0987828801612995565b9450506020612d1a87828801612a67565b9350506040612d2b87828801612a67565b9250506060612d3c87828801612a67565b91505092959194509250565b60008060008060008060c08789031215612d6157600080fd5b6000612d6f89828a01612995565b9650506020612d8089828a01612a67565b9550506040612d9189828a01612a67565b9450506060612da289828a01612a67565b9350506080612db389828a01612a67565b92505060a087013567ffffffffffffffff811115612dd057600080fd5b612ddc89828a01612a3d565b9150509295509295509295565b600060208284031215612dfb57600080fd5b600082015167ffffffffffffffff811115612e1557600080fd5b612e21848285016129d4565b91505092915050565b600060208284031215612e3c57600080fd5b6000612e4a848285016129fe565b91505092915050565b600060208284031215612e6557600080fd5b600082013567ffffffffffffffff811115612e7f57600080fd5b612e8b84828501612a3d565b91505092915050565b60008060408385031215612ea757600080fd5b600083013567ffffffffffffffff811115612ec157600080fd5b612ecd85828601612a3d565b9250506020612ede85828601612a67565b9150509250929050565b600060208284031215612efa57600080fd5b6000612f0884828501612a67565b91505092915050565b600060208284031215612f2357600080fd5b6000612f3184828501612a7c565b91505092915050565b60008060408385031215612f4d57600080fd5b6000612f5b85828601612a67565b925050602083013567ffffffffffffffff811115612f7857600080fd5b612f8485828601612a3d565b9150509250929050565b60008060408385031215612fa157600080fd5b6000612faf85828601612a67565b9250506020612fc085828601612a67565b9150509250929050565b6000612fd683836131d1565b6101408301905092915050565b6000612fef838361329d565b60208301905092915050565b613004816138b4565b82525050565b61301381613833565b82525050565b61302281613821565b82525050565b61303181613821565b82525050565b600061304282613718565b61304c8185613753565b9350613057836136f8565b8060005b8381101561308857815161306f8882612fca565b975061307a83613739565b92505060018101905061305b565b5085935050505092915050565b60006130a082613723565b6130aa8185613764565b93506130b583613708565b8060005b838110156130e65781516130cd8882612fe3565b97506130d883613746565b9250506001810190506130b9565b5085935050505092915050565b6130fc81613845565b82525050565b61310b81613845565b82525050565b61311a81613851565b82525050565b613129816138c6565b82525050565b600061313a8261372e565b6131448185613786565b935061315481856020860161390b565b61315d81613aa1565b840191505092915050565b6000613175600283613775565b915061318082613ab2565b602082019050919050565b6000613198601f83613786565b91506131a382613adb565b602082019050919050565b60006131bb601783613786565b91506131c682613b04565b602082019050919050565b610140820160008201516131e8600085018261329d565b5060208201516131fb6020850182613019565b50604082015161320e604085018261329d565b506060820151613221606085018261300a565b506080820151613234608085018261300a565b5060a082015161324760a085018261329d565b5060c082015161325a60c085018261329d565b5060e082015161326d60e08501826130f3565b506101008201516132826101008501826130f3565b506101208201516132976101208501826130f3565b50505050565b6132a68161389d565b82525050565b6132b58161389d565b82525050565b60006080820190506132d06000830187612ffb565b6132dd6020830186613028565b6132ea60408301856132ac565b6132f76060830184613102565b95945050505050565b60006060820190506133156000830186613028565b6133226020830185613028565b61332f60408301846132ac565b949350505050565b600060c08201905061334c6000830189613028565b6133596020830188613028565b61336660408301876132ac565b6133736060830186613120565b6133806080830185613102565b61338d60a0830184613102565b979650505050505050565b600060a0820190506133ad6000830187613028565b6133ba6020830186613028565b6133c760408301856132ac565b6133d46060830184613120565b81810360808301526133e581613168565b905095945050505050565b600060c0820190506134056000830189613028565b6134126020830188613028565b61341f60408301876132ac565b61342c60608301866132ac565b6134396080830185613102565b61344660a0830184613102565b979650505050505050565b600060a0820190506134666000830187613028565b6134736020830186613028565b61348060408301856132ac565b61348d60608301846132ac565b818103608083015261349e81613168565b905095945050505050565b60006060820190506134be6000830186613028565b6134cb60208301856132ac565b81810360408301526134dd818461312f565b9050949350505050565b60006060820190506134fc6000830186613028565b61350960208301856132ac565b61351660408301846132ac565b949350505050565b600060208201905081810360008301526135388184613037565b905092915050565b6000602082019050818103600083015261355a8184613095565b905092915050565b60006020820190506135776000830184613102565b92915050565b60006020820190506135926000830184613111565b92915050565b600060208201905081810360008301526135b2818461312f565b905092915050565b600060208201905081810360008301526135d38161318b565b9050919050565b600060208201905081810360008301526135f3816131ae565b9050919050565b600060208201905061360f60008301846132ac565b92915050565b600060408201905061362a60008301856132ac565b818103602083015261363c818461312f565b90509392505050565b600061364f613660565b905061365b8282613970565b919050565b6000604051905090565b600067ffffffffffffffff82111561368557613684613a72565b5b602082029050602081019050919050565b600067ffffffffffffffff8211156136b1576136b0613a72565b5b6136ba82613aa1565b9050602081019050919050565b600067ffffffffffffffff8211156136e2576136e1613a72565b5b6136eb82613aa1565b9050602081019050919050565b6000819050602082019050919050565b6000819050602082019050919050565b600081519050919050565b600081519050919050565b600081519050919050565b6000602082019050919050565b6000602082019050919050565b600082825260208201905092915050565b600082825260208201905092915050565b600082825260208201905092915050565b600082825260208201905092915050565b60006137a28261389d565b91506137ad8361389d565b9250827fffffffffffffffffffffffffffffffffffffffffffffffffffffffffffffffff038211156137e2576137e1613a14565b5b828201905092915050565b60006137f88261389d565b91506138038361389d565b92508282101561381657613815613a14565b5b828203905092915050565b600061382c8261387d565b9050919050565b600061383e8261387d565b9050919050565b60008115159050919050565b60007fffffffff0000000000000000000000000000000000000000000000000000000082169050919050565b600073ffffffffffffffffffffffffffffffffffffffff82169050919050565b6000819050919050565b600060ff82169050919050565b60006138bf826138d8565b9050919050565b60006138d18261389d565b9050919050565b60006138e3826138ea565b9050919050565b60006138f58261387d565b9050919050565b82818337600083830152505050565b60005b8381101561392957808201518184015260208101905061390e565b83811115613938576000848401525b50505050565b6000600282049050600182168061395657607f821691505b6020821081141561396a57613969613a43565b5b50919050565b61397982613aa1565b810181811067ffffffffffffffff8211171561399857613997613a72565b5b80604052505050565b60006139ac8261389d565b91507fffffffffffffffffffffffffffffffffffffffffffffffffffffffffffffffff8214156139df576139de613a14565b5b600182019050919050565b60006139f5826138a7565b915060ff821415613a0957613a08613a14565b5b600182019050919050565b7f4e487b7100000000000000000000000000000000000000000000000000000000600052601160045260246000fd5b7f4e487b7100000000000000000000000000000000000000000000000000000000600052602260045260246000fd5b7f4e487b7100000000000000000000000000000000000000000000000000000000600052604160045260246000fd5b6000601f19601f8301169050919050565b7f5b5d000000000000000000000000000000000000000000000000000000000000600082015250565b7f5265656e7472616e637947756172643a207265656e7472616e742063616c6c00600082015250565b7f5573657220416c72656164792072656769737465726564000000000000000000600082015250565b613b3681613821565b8114613b4157600080fd5b50565b613b4d81613851565b8114613b5857600080fd5b50565b613b648161389d565b8114613b6f57600080fd5b5056fea2646970667358221220900418d1f3e1c8a5379c8418308039bb6bb4d177b408a9f592a22b27e732064264736f6c63430008030033",
  "immutableReferences": {},
  "source": "// \"SPDX-License-Identifier: UNLICENSED\"\r\npragma solidity ^ 0.8 .3;\r\n\r\nimport \"./ACHouseToken1155.sol\";\r\nimport \"./ACHouseToken721.sol\";\r\n\r\nimport \"@openzeppelin/contracts/utils/Counters.sol\";\r\nimport \"@openzeppelin/contracts/security/ReentrancyGuard.sol\";\r\n\r\n\r\nimport \"@openzeppelin/contracts/token/ERC721/utils/ERC721Holder.sol\";\r\nimport \"@openzeppelin/contracts/token/ERC1155/utils/ERC1155Holder.sol\";\r\n\r\ncontract ACHouse is ReentrancyGuard, ERC1155Holder, ERC721Holder {\r\n  using Counters for Counters.Counter;\r\n  Counters.Counter private _itemIds;\r\n  Counters.Counter private _itemsSold;\r\n  Counters.Counter private _fracItemIds;\r\n\r\n  address owner;\r\n\r\n  ACHouseToken1155 _multiToken;\r\n  ACHouseToken721 _nftToken;\r\n\r\n  /** Variables and Event Emitters */\r\n  struct AuctionPlace {\r\n    uint256 id;\r\n    string name;\r\n  } \r\n  struct Artist {\r\n    uint256 id;\r\n    string name;\r\n  }\r\n  struct Participant {\r\n    uint256 id;\r\n    string name;\r\n  }\r\n  struct NGO {\r\n    uint256 id;\r\n    string name;\r\n  }\r\n\r\n  uint auctionPlaceCount = 0;\r\n  uint artistCount = 0;\r\n  uint participantCount = 0;\r\n  uint ngoCount = 0;\r\n  NGO[] public ngoArray;\r\n  address[] RegisteredUserAddresses; // might be used??\r\n\r\n  // mapping address to type\r\n  mapping(address => AuctionPlace) AuctionPlaceMapping;\r\n  mapping(address => Artist) ArtistMapping;\r\n  mapping(address => Participant) ParticipantMapping;\r\n  mapping(address => NGO) NgoMapping;\r\n  // User address maps to - Chaities and the donation amount. \r\n  mapping(address => mapping(address => uint256)) UserNGODonation;\r\n\r\n  struct MarketItem {\r\n    uint itemId;\r\n    address nftContract;\r\n    uint256 tokenId;\r\n    address payable seller;\r\n    address payable owner;\r\n    uint256 price;\r\n    uint256 amount;\r\n    bool sold;\r\n    bool isMultiToken;\r\n    bool isRemoved;\r\n  }\r\n\r\n  mapping(uint256 => MarketItem) private idToMarketItem;\r\n  \r\n  //user mapping to itemSold array\r\n  mapping( address => uint256[]) userSoldItemMapping;\r\n  //user sold count mapp;\r\n  mapping ( address => uint256) userSoldCountMapping;\r\n  //user mapping to purchased item  array\r\n  mapping( address => uint256[]) userpurchasedItemMapping;\r\n  //user purchased count mapp;\r\n  mapping ( address => uint256) userPurchasedCountMapping;\r\n  \r\n  event MarketItemCreated(uint indexed itemId, address indexed nftContract, uint256 indexed tokenId, \r\n    address seller, address owner, uint256 price, uint256 amount, bool sold, bool isMultiToken);\r\n  \r\n  event MarketItemSold(uint indexed itemId, address indexed nftContract, uint256 indexed tokenId, \r\n    address seller, address owner, uint256 price, bool sold);\r\n\r\n  /*******************fractionalize NFT */\r\n  struct FractionalizeToken {\r\n    uint itemId;\r\n    address nftContract;\r\n    uint256 tokenId;\r\n    address payable seller;\r\n    address payable owner;\r\n    address fractionalContract;\r\n    uint256 shardId;\r\n    uint256 priceOfShard;\r\n    uint256 supplyMinted;\r\n    uint256 supplyRemaining;\r\n  }\r\n  // id to fracToken\r\n  mapping(uint256 => FractionalizeToken) idToFracToken;\r\n  //user purchase to id to amount purchased\r\n  mapping (address => mapping(uint256 => uint256)) userShardPurchaseAmount;\r\n\r\n\r\n  constructor(address _mToken, address _nToken) {\r\n    _multiToken = ACHouseToken1155(_mToken);\r\n    _nftToken = ACHouseToken721(_nToken);\r\n    owner = payable(msg.sender);\r\n  }\r\n  \r\n  /***************************************************************************************************************************************/\r\n  /**MarketPlace functionality */\r\n  function create1155MarketItem(address nftContract, uint256 tokenId, uint256 price, uint256 amount) public payable nonReentrant {\r\n    //   require(price > 0, \"Price must be at least 1 wei\");\r\n    //   require(msg.value == listingPrice, \"Price must be equal to listing price\");\r\n\r\n    _itemIds.increment();\r\n    uint256 itemId = _itemIds.current();\r\n\r\n    MarketItem memory item = MarketItem(itemId, nftContract, tokenId, payable(msg.sender), payable(address(0)), price, amount, false, true, false);\r\n    idToMarketItem[itemId] = item;\r\n\r\n    IERC1155(nftContract).safeTransferFrom(msg.sender, address(this), tokenId, amount, '[]');\r\n\r\n    emit MarketItemCreated(itemId, nftContract, tokenId, msg.sender, address(0), price, amount, false, true);\r\n  }\r\n\r\n  function create721MarketItem(address nftContract, uint256 tokenId, uint256 price ) public payable nonReentrant {\r\n    // require(price > 0, \"Price must be at least 1 wei\");\r\n    // require(msg.value == listingPrice, \"Price must be equal to listing price\");\r\n\r\n    _itemIds.increment();\r\n    uint256 itemId = _itemIds.current();\r\n\r\n    MarketItem memory item = MarketItem(itemId, nftContract, tokenId, payable(msg.sender), payable(address(0)), price, 1, false, true, false); // amount will always be 1. \r\n    idToMarketItem[itemId] = item;\r\n\r\n    IERC721(nftContract).transferFrom(msg.sender, address(this), tokenId);\r\n\r\n    emit MarketItemCreated(itemId, nftContract, tokenId, msg.sender, address(0), price, 1, false, false);\r\n  }\r\n  \r\n  // Remove item from marketplace\r\n  function removeMarketPlaceItem( uint256 itemId) public {\r\n      \r\n      idToMarketItem[itemId].isRemoved = true;\r\n  }\r\n  \r\n  // re add item to marketplace\r\n  function addMarketPlaceItem( uint256 itemId) public {\r\n      \r\n      idToMarketItem[itemId].isRemoved = false;\r\n  }\r\n  \r\n  /* Creates the sale of a marketplace item */\r\n  /* Transfers ownership of the item, as well as funds between parties */\r\n  function createMarketSale(address nftContract, uint256 itemId) public payable nonReentrant {\r\n    \r\n    MarketItem memory item = idToMarketItem[itemId];\r\n    \r\n    uint price = item.price;\r\n    uint tokenId = item.tokenId;\r\n    bool isMultiToken = item.isMultiToken;\r\n    // require(msg.value == price, \"Please submit the asking price in order to complete the purchase\");\r\n\r\n    // transfer funds\r\n    item.seller.transfer(msg.value);\r\n\r\n    //transfer ownership.\r\n    if(isMultiToken){\r\n      IERC1155(nftContract).safeTransferFrom(address(this), msg.sender, item.tokenId, item.amount, '[]');\r\n    }else{\r\n      IERC721(nftContract).transferFrom(address(this), msg.sender, tokenId);\r\n    }\r\n    \r\n    //set new owner inrecords.\r\n    item.owner = payable(msg.sender);\r\n    //set sold to true\r\n    item.sold = true;\r\n    //increament itemSold counter.\r\n    _itemsSold.increment();\r\n    \r\n    // mapp user address to itemSold [] and purchased[]\r\n    userSoldItemMapping[item.seller].push(itemId);\r\n    \r\n    //user mapping to purchased item  array\r\n    userpurchasedItemMapping[msg.sender].push(itemId);\r\n\r\n    emit MarketItemSold( itemId, nftContract, tokenId, item.seller, msg.sender, price, true);\r\n  }\r\n\r\n  /* Returns all unsold market items */\r\n  function fetchUnSoldMarketItems() public view returns(MarketItem[] memory) {\r\n    \r\n    uint totalUnSoldCount = _itemIds.current() - _itemsSold.current();\r\n    MarketItem[] memory items = new MarketItem[](totalUnSoldCount);\r\n    uint unsoldCurrentIndex = 0;\r\n    \r\n    uint totalItemCount = _itemIds.current();\r\n    \r\n    for(uint i=0; i < totalItemCount; i++){\r\n        // only way i found to iterate through a mapping. \r\n        if(idToMarketItem[i+1].owner == address(0) && idToMarketItem[i+1].isRemoved == false ) { \r\n            uint currentID = i+1;\r\n            items[unsoldCurrentIndex] = idToMarketItem[currentID];\r\n            unsoldCurrentIndex +=1;\r\n        }\r\n    }\r\n    \r\n    return items;\r\n    \r\n  }\r\n\r\n  /* Returns only items that a user has purchased */\r\n  function fetchMyNFTs() public view returns (MarketItem[] memory) {\r\n    \r\n    uint256[] memory userPurchasedIds = userpurchasedItemMapping[msg.sender];\r\n    \r\n    \r\n    MarketItem[] memory items = new MarketItem[](userPurchasedIds.length);\r\n    for(uint i =0; i< userPurchasedIds.length; i++){\r\n        \r\n        // MarketItem memory item = idToMarketItem[userPurchasedIds[i]];\r\n        \r\n        items[i] = idToMarketItem[userPurchasedIds[i]];\r\n    }\r\n    return items;\r\n  }\r\n\r\n  /* Returns only items a user has created */\r\n  function fetchItemsCreated() public view returns (MarketItem[] memory) {\r\n    //get total item count - created nin MarketItem.\r\n    uint totalItemCount = _itemIds.current();\r\n    uint itemCount = 0;\r\n    \r\n    for (uint i = 0; i < totalItemCount; i++) {\r\n      if (idToMarketItem[i + 1].seller == msg.sender) {\r\n        itemCount += 1;\r\n      }\r\n    }\r\n\r\n    MarketItem[] memory items = new MarketItem[](itemCount);\r\n    uint currentIndex = 0;\r\n    \r\n    for (uint i = 0; i < totalItemCount; i++) {\r\n      if (idToMarketItem[i + 1].seller == msg.sender) {\r\n        uint currentId = i + 1;\r\n        MarketItem storage currentItem = idToMarketItem[currentId];\r\n        items[currentIndex] = currentItem;\r\n        currentIndex += 1;\r\n      }\r\n    }\r\n    return items;\r\n  }\r\n  \r\n  /***************************************************************************************************************************************/\r\n  /**Functions - Registration  */\r\n  function register(string memory _name, uint _userType) public returns(bool) {\r\n    require(isUserRegistered(msg.sender) == false, \"User Already registered\");\r\n\r\n    //userType { 1: Auction, 2: Artist, 3: Participant}\r\n    // register user by type\r\n    if (_userType == 1) {\r\n      AuctionPlace memory ac = AuctionPlace(auctionPlaceCount, _name);\r\n      auctionPlaceCount++;\r\n\r\n      AuctionPlaceMapping[msg.sender] = ac;\r\n    } else if (_userType == 2) {\r\n      Artist memory ar = Artist(artistCount, _name);\r\n      artistCount++;\r\n\r\n      ArtistMapping[msg.sender] = ar;\r\n    } else {\r\n      Participant memory part = Participant(participantCount, _name);\r\n      participantCount++;\r\n\r\n      ParticipantMapping[msg.sender] = part;\r\n    }\r\n\r\n    RegisteredUserAddresses.push(msg.sender);\r\n    return true;\r\n  }\r\n\r\n  /**ERC1155 functionality ***********************************************/\r\n  function setURI1155(string memory _uri) public {\r\n    _multiToken.setURI(_uri);\r\n  }\r\n  // mint 1155 NFT - set supply to 1. \r\n  function createNFT1155(uint256 _id, uint256 _amount) public {\r\n    _multiToken.mintNFT(msg.sender, _id, _amount);\r\n  }\r\n\r\n  //get tokens totalnumber. \r\n  function getTokenCount() public view returns(uint256) {\r\n    return _multiToken.getTokenCount();\r\n  }\r\n  //returns the array of all tokenids. \r\n  function getTokenIds() public view returns(uint256[] memory) {\r\n    return _multiToken.getTokenIds();\r\n  }\r\n\r\n  /*************Fractional NFT */\r\n\r\n  //hold NFT and trasnfer ownership to ACHouse. \r\n  // ACHouse will mint 1155 then set it to orig owner of nft. \r\n  function fractionalize1155NFT(address nftContract, uint256 tokenId, uint256 shardId, uint256 priceOfShard, uint256 supplyToCreate, string memory uri) public {\r\n    _fracItemIds.increment();\r\n    uint fracId = _fracItemIds.current();\r\n\r\n    // FractionalizeToken memory fracItem = FractionalizeToken(fracId, nftContract, tokenId, payable(msg.sender), \r\n    //   payable(address(0)), _multiToken.address, shardId, priceOfShard, supplyToCreate, supplyToCreate); // supplyMinted and SupplyRemaining will be set as same for now. \r\n    \r\n    // idToFracToken[fracId] = fracItem;\r\n\r\n    //get ownership of nftContract and its token.\r\n    IERC1155(nftContract).safeTransferFrom(msg.sender, address(this), tokenId, 1, '[]');\r\n    \r\n    //Mint 1155 fungible tokens. \r\n\r\n\r\n  }\r\n\r\n  function fractionalize721NFT(address nftContract, uint256 tokenId, uint256 shardId, uint256 priceOfShard, uint256 supplyToCreate, string memory uri) public {\r\n    _fracItemIds.increment();\r\n    uint fracId = _fracItemIds.current();\r\n\r\n    // FractionalizeToken memory fracItem = FractionalizeToken(fracId, nftContract, tokenId, payable(msg.sender), \r\n    //   payable(address(0)), payable(_multiToken.address), shardId, priceOfShard, supplyToCreate, supplyToCreate); // supplyMinted and SupplyRemaining will be set as same for now. \r\n    \r\n    // idToFracToken[fracId] = fracItem;\r\n\r\n    //get ownership of nftContract and its token.\r\n    IERC721(nftContract).transferFrom(msg.sender, address(this), tokenId);\r\n\r\n    //Mint 1155 fungible tokens.\r\n    \r\n    \r\n\r\n  }\r\n  \r\n  /**ERC721 functionzlity *************************************************/\r\n  // mint 721 NFT - set supply to 1. \r\n  function createNFT1155(uint256 _id, string memory uri) public {\r\n    _nftToken.mintNFT(msg.sender, _id, uri);\r\n  }\r\n\r\n  //get tokens totalnumber. \r\n  function get721TokenCount() public view returns(uint256) {\r\n    return _nftToken.getTokenCount();\r\n  }\r\n  //returns the array of all tokenids. \r\n  function get721TokenIds() public view returns(uint256[] memory) {\r\n    return _nftToken.getTokenIds();\r\n  }\r\n\r\n  /**Helpers */\r\n  function isUserRegistered(address _address) internal view returns(bool) {\r\n    for (uint8 j = 0; j < RegisteredUserAddresses.length; j++) {\r\n      if (RegisteredUserAddresses[j] == _address) {\r\n        return (true); // user is registered.\r\n      }\r\n    }\r\n    return (false); // user is not registered.\r\n  }\r\n}",
  "sourcePath": "C:/Users/sendm/OneDrive/Desktop/HeartDrops/contracts/ACHouse.sol",
  "compiler": {
    "name": "solc",
    "version": "0.8.3+commit.8d00100c.Emscripten.clang"
  },
  "schemaVersion": "3.4.1",
  "updatedAt": "2021-10-07T05:11:00.565Z",
  "networkType": "ethereum",
  "devdoc": {
    "kind": "dev",
    "methods": {
      "onERC721Received(address,address,uint256,bytes)": {
        "details": "See {IERC721Receiver-onERC721Received}. Always returns `IERC721Receiver.onERC721Received.selector`."
      },
      "supportsInterface(bytes4)": {
        "details": "See {IERC165-supportsInterface}."
      }
    },
    "version": 1
  },
  "userdoc": {
    "kind": "user",
    "methods": {
      "create1155MarketItem(address,uint256,uint256,uint256)": {
        "notice": "MarketPlace functionality "
      },
      "createNFT1155(uint256,string)": {
        "notice": "ERC721 functionzlity ************************************************"
      },
      "register(string,uint256)": {
        "notice": "Functions - Registration  "
      },
      "setURI1155(string)": {
        "notice": "ERC1155 functionality **********************************************"
      }
    },
    "version": 1
  }
}