{
  "contractName": "ACHouseToken20",
  "abi": [
    {
      "inputs": [
        {
          "internalType": "string",
          "name": "name",
          "type": "string"
        },
        {
          "internalType": "string",
          "name": "symbol",
          "type": "string"
        },
        {
          "internalType": "uint256",
          "name": "count",
          "type": "uint256"
        }
      ],
      "stateMutability": "nonpayable",
      "type": "constructor"
    },
    {
      "anonymous": false,
      "inputs": [
        {
          "indexed": true,
          "internalType": "address",
          "name": "owner",
          "type": "address"
        },
        {
          "indexed": true,
          "internalType": "address",
          "name": "spender",
          "type": "address"
        },
        {
          "indexed": false,
          "internalType": "uint256",
          "name": "value",
          "type": "uint256"
        }
      ],
      "name": "Approval",
      "type": "event"
    },
    {
      "anonymous": false,
      "inputs": [
        {
          "indexed": true,
          "internalType": "address",
          "name": "from",
          "type": "address"
        },
        {
          "indexed": true,
          "internalType": "address",
          "name": "to",
          "type": "address"
        },
        {
          "indexed": false,
          "internalType": "uint256",
          "name": "value",
          "type": "uint256"
        }
      ],
      "name": "Transfer",
      "type": "event"
    },
    {
      "inputs": [
        {
          "internalType": "address",
          "name": "owner",
          "type": "address"
        },
        {
          "internalType": "address",
          "name": "spender",
          "type": "address"
        }
      ],
      "name": "allowance",
      "outputs": [
        {
          "internalType": "uint256",
          "name": "",
          "type": "uint256"
        }
      ],
      "stateMutability": "view",
      "type": "function"
    },
    {
      "inputs": [
        {
          "internalType": "address",
          "name": "spender",
          "type": "address"
        },
        {
          "internalType": "uint256",
          "name": "amount",
          "type": "uint256"
        }
      ],
      "name": "approve",
      "outputs": [
        {
          "internalType": "bool",
          "name": "",
          "type": "bool"
        }
      ],
      "stateMutability": "nonpayable",
      "type": "function"
    },
    {
      "inputs": [
        {
          "internalType": "address",
          "name": "account",
          "type": "address"
        }
      ],
      "name": "balanceOf",
      "outputs": [
        {
          "internalType": "uint256",
          "name": "",
          "type": "uint256"
        }
      ],
      "stateMutability": "view",
      "type": "function"
    },
    {
      "inputs": [],
      "name": "decimals",
      "outputs": [
        {
          "internalType": "uint8",
          "name": "",
          "type": "uint8"
        }
      ],
      "stateMutability": "view",
      "type": "function"
    },
    {
      "inputs": [
        {
          "internalType": "address",
          "name": "spender",
          "type": "address"
        },
        {
          "internalType": "uint256",
          "name": "subtractedValue",
          "type": "uint256"
        }
      ],
      "name": "decreaseAllowance",
      "outputs": [
        {
          "internalType": "bool",
          "name": "",
          "type": "bool"
        }
      ],
      "stateMutability": "nonpayable",
      "type": "function"
    },
    {
      "inputs": [
        {
          "internalType": "address",
          "name": "spender",
          "type": "address"
        },
        {
          "internalType": "uint256",
          "name": "addedValue",
          "type": "uint256"
        }
      ],
      "name": "increaseAllowance",
      "outputs": [
        {
          "internalType": "bool",
          "name": "",
          "type": "bool"
        }
      ],
      "stateMutability": "nonpayable",
      "type": "function"
    },
    {
      "inputs": [],
      "name": "name",
      "outputs": [
        {
          "internalType": "string",
          "name": "",
          "type": "string"
        }
      ],
      "stateMutability": "view",
      "type": "function"
    },
    {
      "inputs": [],
      "name": "owner",
      "outputs": [
        {
          "internalType": "address",
          "name": "",
          "type": "address"
        }
      ],
      "stateMutability": "view",
      "type": "function"
    },
    {
      "inputs": [],
      "name": "symbol",
      "outputs": [
        {
          "internalType": "string",
          "name": "",
          "type": "string"
        }
      ],
      "stateMutability": "view",
      "type": "function"
    },
    {
      "inputs": [],
      "name": "totalSupply",
      "outputs": [
        {
          "internalType": "uint256",
          "name": "",
          "type": "uint256"
        }
      ],
      "stateMutability": "view",
      "type": "function"
    },
    {
      "inputs": [
        {
          "internalType": "address",
          "name": "recipient",
          "type": "address"
        },
        {
          "internalType": "uint256",
          "name": "amount",
          "type": "uint256"
        }
      ],
      "name": "transfer",
      "outputs": [
        {
          "internalType": "bool",
          "name": "",
          "type": "bool"
        }
      ],
      "stateMutability": "nonpayable",
      "type": "function"
    },
    {
      "inputs": [
        {
          "internalType": "address",
          "name": "sender",
          "type": "address"
        },
        {
          "internalType": "address",
          "name": "recipient",
          "type": "address"
        },
        {
          "internalType": "uint256",
          "name": "amount",
          "type": "uint256"
        }
      ],
      "name": "transferFrom",
      "outputs": [
        {
          "internalType": "bool",
          "name": "",
          "type": "bool"
        }
      ],
      "stateMutability": "nonpayable",
      "type": "function"
    }
  ],
  "bytecode": "0x60806040523480156200001157600080fd5b5060405162001afc38038062001afc833981810160405281019062000037919062000385565b82828160039080519060200190620000519291906200024c565b5080600490805190602001906200006a9291906200024c565b50505033600560006101000a81548173ffffffffffffffffffffffffffffffffffffffff021916908373ffffffffffffffffffffffffffffffffffffffff160217905550620000c03382620000c960201b60201c565b505050620006de565b600073ffffffffffffffffffffffffffffffffffffffff168273ffffffffffffffffffffffffffffffffffffffff1614156200013c576040517f08c379a0000000000000000000000000000000000000000000000000000000008152600401620001339062000445565b60405180910390fd5b62000150600083836200024260201b60201c565b8060026000828254620001649190620004f4565b92505081905550806000808473ffffffffffffffffffffffffffffffffffffffff1673ffffffffffffffffffffffffffffffffffffffff1681526020019081526020016000206000828254620001bb9190620004f4565b925050819055508173ffffffffffffffffffffffffffffffffffffffff16600073ffffffffffffffffffffffffffffffffffffffff167fddf252ad1be2c89b69c2b068fc378daa952ba7f163c4a11628f55a4df523b3ef8360405162000222919062000467565b60405180910390a36200023e600083836200024760201b60201c565b5050565b505050565b505050565b8280546200025a9062000591565b90600052602060002090601f0160209004810192826200027e5760008555620002ca565b82601f106200029957805160ff1916838001178555620002ca565b82800160010185558215620002ca579182015b82811115620002c9578251825591602001919060010190620002ac565b5b509050620002d99190620002dd565b5090565b5b80821115620002f8576000816000905550600101620002de565b5090565b6000620003136200030d84620004ad565b62000484565b9050828152602081018484840111156200032c57600080fd5b620003398482856200055b565b509392505050565b600082601f8301126200035357600080fd5b815162000365848260208601620002fc565b91505092915050565b6000815190506200037f81620006c4565b92915050565b6000806000606084860312156200039b57600080fd5b600084015167ffffffffffffffff811115620003b657600080fd5b620003c48682870162000341565b935050602084015167ffffffffffffffff811115620003e257600080fd5b620003f08682870162000341565b925050604062000403868287016200036e565b9150509250925092565b60006200041c601f83620004e3565b915062000429826200069b565b602082019050919050565b6200043f8162000551565b82525050565b6000602082019050818103600083015262000460816200040d565b9050919050565b60006020820190506200047e600083018462000434565b92915050565b600062000490620004a3565b90506200049e8282620005c7565b919050565b6000604051905090565b600067ffffffffffffffff821115620004cb57620004ca6200065b565b5b620004d6826200068a565b9050602081019050919050565b600082825260208201905092915050565b6000620005018262000551565b91506200050e8362000551565b9250827fffffffffffffffffffffffffffffffffffffffffffffffffffffffffffffffff03821115620005465762000545620005fd565b5b828201905092915050565b6000819050919050565b60005b838110156200057b5780820151818401526020810190506200055e565b838111156200058b576000848401525b50505050565b60006002820490506001821680620005aa57607f821691505b60208210811415620005c157620005c06200062c565b5b50919050565b620005d2826200068a565b810181811067ffffffffffffffff82111715620005f457620005f36200065b565b5b80604052505050565b7f4e487b7100000000000000000000000000000000000000000000000000000000600052601160045260246000fd5b7f4e487b7100000000000000000000000000000000000000000000000000000000600052602260045260246000fd5b7f4e487b7100000000000000000000000000000000000000000000000000000000600052604160045260246000fd5b6000601f19601f8301169050919050565b7f45524332303a206d696e7420746f20746865207a65726f206164647265737300600082015250565b620006cf8162000551565b8114620006db57600080fd5b50565b61140e80620006ee6000396000f3fe608060405234801561001057600080fd5b50600436106100b45760003560e01c806370a082311161007157806370a08231146101a35780638da5cb5b146101d357806395d89b41146101f1578063a457c2d71461020f578063a9059cbb1461023f578063dd62ed3e1461026f576100b4565b806306fdde03146100b9578063095ea7b3146100d757806318160ddd1461010757806323b872dd14610125578063313ce567146101555780633950935114610173575b600080fd5b6100c161029f565b6040516100ce9190610eae565b60405180910390f35b6100f160048036038101906100ec9190610cd2565b610331565b6040516100fe9190610e93565b60405180910390f35b61010f61034f565b60405161011c9190610fb0565b60405180910390f35b61013f600480360381019061013a9190610c83565b610359565b60405161014c9190610e93565b60405180910390f35b61015d610451565b60405161016a9190610fcb565b60405180910390f35b61018d60048036038101906101889190610cd2565b61045a565b60405161019a9190610e93565b60405180910390f35b6101bd60048036038101906101b89190610c1e565b610506565b6040516101ca9190610fb0565b60405180910390f35b6101db61054e565b6040516101e89190610e78565b60405180910390f35b6101f9610574565b6040516102069190610eae565b60405180910390f35b61022960048036038101906102249190610cd2565b610606565b6040516102369190610e93565b60405180910390f35b61025960048036038101906102549190610cd2565b6106f1565b6040516102669190610e93565b60405180910390f35b61028960048036038101906102849190610c47565b61070f565b6040516102969190610fb0565b60405180910390f35b6060600380546102ae906110e0565b80601f01602080910402602001604051908101604052809291908181526020018280546102da906110e0565b80156103275780601f106102fc57610100808354040283529160200191610327565b820191906000526020600020905b81548152906001019060200180831161030a57829003601f168201915b5050505050905090565b600061034561033e610796565b848461079e565b6001905092915050565b6000600254905090565b6000610366848484610969565b6000600160008673ffffffffffffffffffffffffffffffffffffffff1673ffffffffffffffffffffffffffffffffffffffff16815260200190815260200160002060006103b1610796565b73ffffffffffffffffffffffffffffffffffffffff1673ffffffffffffffffffffffffffffffffffffffff16815260200190815260200160002054905082811015610431576040517f08c379a000000000000000000000000000000000000000000000000000000000815260040161042890610f30565b60405180910390fd5b6104458561043d610796565b85840361079e565b60019150509392505050565b60006012905090565b60006104fc610467610796565b848460016000610475610796565b73ffffffffffffffffffffffffffffffffffffffff1673ffffffffffffffffffffffffffffffffffffffff16815260200190815260200160002060008873ffffffffffffffffffffffffffffffffffffffff1673ffffffffffffffffffffffffffffffffffffffff168152602001908152602001600020546104f79190611002565b61079e565b6001905092915050565b60008060008373ffffffffffffffffffffffffffffffffffffffff1673ffffffffffffffffffffffffffffffffffffffff168152602001908152602001600020549050919050565b600560009054906101000a900473ffffffffffffffffffffffffffffffffffffffff1681565b606060048054610583906110e0565b80601f01602080910402602001604051908101604052809291908181526020018280546105af906110e0565b80156105fc5780601f106105d1576101008083540402835291602001916105fc565b820191906000526020600020905b8154815290600101906020018083116105df57829003601f168201915b5050505050905090565b60008060016000610615610796565b73ffffffffffffffffffffffffffffffffffffffff1673ffffffffffffffffffffffffffffffffffffffff16815260200190815260200160002060008573ffffffffffffffffffffffffffffffffffffffff1673ffffffffffffffffffffffffffffffffffffffff168152602001908152602001600020549050828110156106d2576040517f08c379a00000000000000000000000000000000000000000000000000000000081526004016106c990610f90565b60405180910390fd5b6106e66106dd610796565b8585840361079e565b600191505092915050565b60006107056106fe610796565b8484610969565b6001905092915050565b6000600160008473ffffffffffffffffffffffffffffffffffffffff1673ffffffffffffffffffffffffffffffffffffffff16815260200190815260200160002060008373ffffffffffffffffffffffffffffffffffffffff1673ffffffffffffffffffffffffffffffffffffffff16815260200190815260200160002054905092915050565b600033905090565b600073ffffffffffffffffffffffffffffffffffffffff168373ffffffffffffffffffffffffffffffffffffffff16141561080e576040517f08c379a000000000000000000000000000000000000000000000000000000000815260040161080590610f70565b60405180910390fd5b600073ffffffffffffffffffffffffffffffffffffffff168273ffffffffffffffffffffffffffffffffffffffff16141561087e576040517f08c379a000000000000000000000000000000000000000000000000000000000815260040161087590610ef0565b60405180910390fd5b80600160008573ffffffffffffffffffffffffffffffffffffffff1673ffffffffffffffffffffffffffffffffffffffff16815260200190815260200160002060008473ffffffffffffffffffffffffffffffffffffffff1673ffffffffffffffffffffffffffffffffffffffff168152602001908152602001600020819055508173ffffffffffffffffffffffffffffffffffffffff168373ffffffffffffffffffffffffffffffffffffffff167f8c5be1e5ebec7d5bd14f71427d1e84f3dd0314c0f7b2291e5b200ac8c7c3b9258360405161095c9190610fb0565b60405180910390a3505050565b600073ffffffffffffffffffffffffffffffffffffffff168373ffffffffffffffffffffffffffffffffffffffff1614156109d9576040517f08c379a00000000000000000000000000000000000000000000000000000000081526004016109d090610f50565b60405180910390fd5b600073ffffffffffffffffffffffffffffffffffffffff168273ffffffffffffffffffffffffffffffffffffffff161415610a49576040517f08c379a0000000000000000000000000000000000000000000000000000000008152600401610a4090610ed0565b60405180910390fd5b610a54838383610bea565b60008060008573ffffffffffffffffffffffffffffffffffffffff1673ffffffffffffffffffffffffffffffffffffffff16815260200190815260200160002054905081811015610ada576040517f08c379a0000000000000000000000000000000000000000000000000000000008152600401610ad190610f10565b60405180910390fd5b8181036000808673ffffffffffffffffffffffffffffffffffffffff1673ffffffffffffffffffffffffffffffffffffffff16815260200190815260200160002081905550816000808573ffffffffffffffffffffffffffffffffffffffff1673ffffffffffffffffffffffffffffffffffffffff1681526020019081526020016000206000828254610b6d9190611002565b925050819055508273ffffffffffffffffffffffffffffffffffffffff168473ffffffffffffffffffffffffffffffffffffffff167fddf252ad1be2c89b69c2b068fc378daa952ba7f163c4a11628f55a4df523b3ef84604051610bd19190610fb0565b60405180910390a3610be4848484610bef565b50505050565b505050565b505050565b600081359050610c03816113aa565b92915050565b600081359050610c18816113c1565b92915050565b600060208284031215610c3057600080fd5b6000610c3e84828501610bf4565b91505092915050565b60008060408385031215610c5a57600080fd5b6000610c6885828601610bf4565b9250506020610c7985828601610bf4565b9150509250929050565b600080600060608486031215610c9857600080fd5b6000610ca686828701610bf4565b9350506020610cb786828701610bf4565b9250506040610cc886828701610c09565b9150509250925092565b60008060408385031215610ce557600080fd5b6000610cf385828601610bf4565b9250506020610d0485828601610c09565b9150509250929050565b610d1781611058565b82525050565b610d268161106a565b82525050565b6000610d3782610fe6565b610d418185610ff1565b9350610d518185602086016110ad565b610d5a81611170565b840191505092915050565b6000610d72602383610ff1565b9150610d7d82611181565b604082019050919050565b6000610d95602283610ff1565b9150610da0826111d0565b604082019050919050565b6000610db8602683610ff1565b9150610dc38261121f565b604082019050919050565b6000610ddb602883610ff1565b9150610de68261126e565b604082019050919050565b6000610dfe602583610ff1565b9150610e09826112bd565b604082019050919050565b6000610e21602483610ff1565b9150610e2c8261130c565b604082019050919050565b6000610e44602583610ff1565b9150610e4f8261135b565b604082019050919050565b610e6381611096565b82525050565b610e72816110a0565b82525050565b6000602082019050610e8d6000830184610d0e565b92915050565b6000602082019050610ea86000830184610d1d565b92915050565b60006020820190508181036000830152610ec88184610d2c565b905092915050565b60006020820190508181036000830152610ee981610d65565b9050919050565b60006020820190508181036000830152610f0981610d88565b9050919050565b60006020820190508181036000830152610f2981610dab565b9050919050565b60006020820190508181036000830152610f4981610dce565b9050919050565b60006020820190508181036000830152610f6981610df1565b9050919050565b60006020820190508181036000830152610f8981610e14565b9050919050565b60006020820190508181036000830152610fa981610e37565b9050919050565b6000602082019050610fc56000830184610e5a565b92915050565b6000602082019050610fe06000830184610e69565b92915050565b600081519050919050565b600082825260208201905092915050565b600061100d82611096565b915061101883611096565b9250827fffffffffffffffffffffffffffffffffffffffffffffffffffffffffffffffff0382111561104d5761104c611112565b5b828201905092915050565b600061106382611076565b9050919050565b60008115159050919050565b600073ffffffffffffffffffffffffffffffffffffffff82169050919050565b6000819050919050565b600060ff82169050919050565b60005b838110156110cb5780820151818401526020810190506110b0565b838111156110da576000848401525b50505050565b600060028204905060018216806110f857607f821691505b6020821081141561110c5761110b611141565b5b50919050565b7f4e487b7100000000000000000000000000000000000000000000000000000000600052601160045260246000fd5b7f4e487b7100000000000000000000000000000000000000000000000000000000600052602260045260246000fd5b6000601f19601f8301169050919050565b7f45524332303a207472616e7366657220746f20746865207a65726f206164647260008201527f6573730000000000000000000000000000000000000000000000000000000000602082015250565b7f45524332303a20617070726f766520746f20746865207a65726f20616464726560008201527f7373000000000000000000000000000000000000000000000000000000000000602082015250565b7f45524332303a207472616e7366657220616d6f756e742065786365656473206260008201527f616c616e63650000000000000000000000000000000000000000000000000000602082015250565b7f45524332303a207472616e7366657220616d6f756e742065786365656473206160008201527f6c6c6f77616e6365000000000000000000000000000000000000000000000000602082015250565b7f45524332303a207472616e736665722066726f6d20746865207a65726f20616460008201527f6472657373000000000000000000000000000000000000000000000000000000602082015250565b7f45524332303a20617070726f76652066726f6d20746865207a65726f2061646460008201527f7265737300000000000000000000000000000000000000000000000000000000602082015250565b7f45524332303a2064656372656173656420616c6c6f77616e63652062656c6f7760008201527f207a65726f000000000000000000000000000000000000000000000000000000602082015250565b6113b381611058565b81146113be57600080fd5b50565b6113ca81611096565b81146113d557600080fd5b5056fea26469706673582212205d958cb60f7dbbff63cef445d3bfbba2d67b8582ca9d51c1d2e9d2aa56499ad964736f6c63430008030033",
  "immutableReferences": {},
  "source": "pragma solidity ^0.8.3;\n//\"SPDX-License-Identifier: UNLICENSED\"\n\nimport \"@openzeppelin/contracts/token/ERC20/ERC20.sol\";\n\n\ncontract ACHouseToken20 is ERC20 {\n    \n    address public owner;\n    \n    uint256 totalSupply_;\n    \n    constructor(string memory name, string memory symbol, uint256 count) ERC20(name, symbol) {\n        \n        owner = msg.sender;\n        \n        _mint(msg.sender, count);\n        \n    }\n    \n    \n}",
  "sourcePath": "/home/dinesh/Projects/EthOnline/contracts/ACHouseToken20.sol",
  "compiler": {
    "name": "solc",
    "version": "0.8.3+commit.8d00100c.Emscripten.clang"
  },
  "schemaVersion": "3.3.4",
  "updatedAt": "2021-10-08T13:03:59.560Z",
  "devdoc": {
    "kind": "dev",
    "methods": {
      "allowance(address,address)": {
        "details": "See {IERC20-allowance}."
      },
      "approve(address,uint256)": {
        "details": "See {IERC20-approve}. Requirements: - `spender` cannot be the zero address."
      },
      "balanceOf(address)": {
        "details": "See {IERC20-balanceOf}."
      },
      "decimals()": {
        "details": "Returns the number of decimals used to get its user representation. For example, if `decimals` equals `2`, a balance of `505` tokens should be displayed to a user as `5.05` (`505 / 10 ** 2`). Tokens usually opt for a value of 18, imitating the relationship between Ether and Wei. This is the value {ERC20} uses, unless this function is overridden; NOTE: This information is only used for _display_ purposes: it in no way affects any of the arithmetic of the contract, including {IERC20-balanceOf} and {IERC20-transfer}."
      },
      "decreaseAllowance(address,uint256)": {
        "details": "Atomically decreases the allowance granted to `spender` by the caller. This is an alternative to {approve} that can be used as a mitigation for problems described in {IERC20-approve}. Emits an {Approval} event indicating the updated allowance. Requirements: - `spender` cannot be the zero address. - `spender` must have allowance for the caller of at least `subtractedValue`."
      },
      "increaseAllowance(address,uint256)": {
        "details": "Atomically increases the allowance granted to `spender` by the caller. This is an alternative to {approve} that can be used as a mitigation for problems described in {IERC20-approve}. Emits an {Approval} event indicating the updated allowance. Requirements: - `spender` cannot be the zero address."
      },
      "name()": {
        "details": "Returns the name of the token."
      },
      "symbol()": {
        "details": "Returns the symbol of the token, usually a shorter version of the name."
      },
      "totalSupply()": {
        "details": "See {IERC20-totalSupply}."
      },
      "transfer(address,uint256)": {
        "details": "See {IERC20-transfer}. Requirements: - `recipient` cannot be the zero address. - the caller must have a balance of at least `amount`."
      },
      "transferFrom(address,address,uint256)": {
        "details": "See {IERC20-transferFrom}. Emits an {Approval} event indicating the updated allowance. This is not required by the EIP. See the note at the beginning of {ERC20}. Requirements: - `sender` and `recipient` cannot be the zero address. - `sender` must have a balance of at least `amount`. - the caller must have allowance for ``sender``'s tokens of at least `amount`."
      }
    },
    "version": 1
  },
  "userdoc": {
    "kind": "user",
    "methods": {},
    "version": 1
  }
}