{
  "contractName": "ACHouse",
  "abi": [
    {
      "inputs": [
        {
          "internalType": "string",
          "name": "_name",
          "type": "string"
        },
        {
          "internalType": "uint256",
          "name": "_userType",
          "type": "uint256"
        }
      ],
      "name": "register",
      "outputs": [
        {
          "internalType": "bool",
          "name": "",
          "type": "bool"
        }
      ],
      "stateMutability": "nonpayable",
      "type": "function"
    },
    {
      "inputs": [],
      "name": "createNFT",
      "outputs": [],
      "stateMutability": "nonpayable",
      "type": "function"
    }
  ],
  "bytecode": "0x608060405234801561001057600080fd5b506108cd806100206000396000f3fe608060405234801561001057600080fd5b50600436106100365760003560e01c80638a97ec2a1461003b578063ea87152b14610045575b600080fd5b610043610075565b005b61005f600480360381019061005a91906105d2565b610077565b60405161006c9190610658565b60405180910390f35b565b6000801515610085336103d7565b1515146100c7576040517f08c379a00000000000000000000000000000000000000000000000000000000081526004016100be90610673565b60405180910390fd5b60018214156101ac57600060405180604001604052808581526020013373ffffffffffffffffffffffffffffffffffffffff16815250905080600160003373ffffffffffffffffffffffffffffffffffffffff1673ffffffffffffffffffffffffffffffffffffffff168152602001908152602001600020600082015181600001908051906020019061015b9291906104b2565b5060208201518160010160006101000a81548173ffffffffffffffffffffffffffffffffffffffff021916908373ffffffffffffffffffffffffffffffffffffffff1602179055509050505061036a565b600282141561029157600060405180604001604052808581526020013373ffffffffffffffffffffffffffffffffffffffff16815250905080600260003373ffffffffffffffffffffffffffffffffffffffff1673ffffffffffffffffffffffffffffffffffffffff16815260200190815260200160002060008201518160000190805190602001906102409291906104b2565b5060208201518160010160006101000a81548173ffffffffffffffffffffffffffffffffffffffff021916908373ffffffffffffffffffffffffffffffffffffffff16021790555090505050610369565b600060405180604001604052808581526020013373ffffffffffffffffffffffffffffffffffffffff16815250905080600360003373ffffffffffffffffffffffffffffffffffffffff1673ffffffffffffffffffffffffffffffffffffffff168152602001908152602001600020600082015181600001908051906020019061031c9291906104b2565b5060208201518160010160006101000a81548173ffffffffffffffffffffffffffffffffffffffff021916908373ffffffffffffffffffffffffffffffffffffffff160217905550905050505b5b6000339080600181540180825580915050600190039060005260206000200160009091909190916101000a81548173ffffffffffffffffffffffffffffffffffffffff021916908373ffffffffffffffffffffffffffffffffffffffff1602179055506001905092915050565b600080600090505b6000805490508160ff1610156104a7578273ffffffffffffffffffffffffffffffffffffffff1660008260ff1681548110610443577f4e487b7100000000000000000000000000000000000000000000000000000000600052603260045260246000fd5b9060005260206000200160009054906101000a900473ffffffffffffffffffffffffffffffffffffffff1673ffffffffffffffffffffffffffffffffffffffff1614156104945760019150506104ad565b808061049f9061078f565b9150506103df565b50600090505b919050565b8280546104be9061072c565b90600052602060002090601f0160209004810192826104e05760008555610527565b82601f106104f957805160ff1916838001178555610527565b82800160010185558215610527579182015b8281111561052657825182559160200191906001019061050b565b5b5090506105349190610538565b5090565b5b80821115610551576000816000905550600101610539565b5090565b6000610568610563846106b8565b610693565b90508281526020810184848401111561058057600080fd5b61058b84828561071d565b509392505050565b600082601f8301126105a457600080fd5b81356105b4848260208601610555565b91505092915050565b6000813590506105cc81610880565b92915050565b600080604083850312156105e557600080fd5b600083013567ffffffffffffffff8111156105ff57600080fd5b61060b85828601610593565b925050602061061c858286016105bd565b9150509250929050565b61062f816106fa565b82525050565b60006106426017836106e9565b915061064d82610857565b602082019050919050565b600060208201905061066d6000830184610626565b92915050565b6000602082019050818103600083015261068c81610635565b9050919050565b600061069d6106ae565b90506106a9828261075e565b919050565b6000604051905090565b600067ffffffffffffffff8211156106d3576106d2610817565b5b6106dc82610846565b9050602081019050919050565b600082825260208201905092915050565b60008115159050919050565b6000819050919050565b600060ff82169050919050565b82818337600083830152505050565b6000600282049050600182168061074457607f821691505b60208210811415610758576107576107e8565b5b50919050565b61076782610846565b810181811067ffffffffffffffff8211171561078657610785610817565b5b80604052505050565b600061079a82610710565b915060ff8214156107ae576107ad6107b9565b5b600182019050919050565b7f4e487b7100000000000000000000000000000000000000000000000000000000600052601160045260246000fd5b7f4e487b7100000000000000000000000000000000000000000000000000000000600052602260045260246000fd5b7f4e487b7100000000000000000000000000000000000000000000000000000000600052604160045260246000fd5b6000601f19601f8301169050919050565b7f5573657220416c72656164792072656769737465726564000000000000000000600082015250565b61088981610706565b811461089457600080fd5b5056fea264697066735822122071c29edbd79b410425525b5b3f3128df5308502d7b04c95bc4b6b14e72c03dd464736f6c63430008030033",
  "immutableReferences": {},
  "source": "// \"SPDX-License-Identifier: UNLICENSED\"\n\npragma solidity ^0.8.3;\n\n// import \"./ACHouseToken.sol\";\n\ncontract ACHouse  {\n    \n    \n    /** Variables and Event Emitters */\n    struct Auction {\n        string name;\n        address id; // wallet address of init setup\n    }\n\n    struct Artist {\n        string name;\n        address id; // wallet address of init setup\n    }\n\n    struct Participant {\n        string name;\n        address id;\n    }\n\n    address[] RegisteredUserAddresses;\n\n    mapping (address => Auction) AuctionMapping;\n    mapping (address => Artist) ArtistMapping;\n    mapping (address => Participant ) ParticipantMapping;\n\n    /**Functions - Registration  */\n    function register(string memory _name, uint _userType) public returns (bool) {\n        require(isUserRegistered(msg.sender) == false, \"User Already registered\");\n\n        //userType { 1: Auction, 2: Artist, 3: Participant}\n        // register user by type\n        if(_userType == 1){\n            Auction memory ac = Auction(_name, msg.sender);\n            AuctionMapping[msg.sender] = ac;\n        }else if( _userType == 2){\n            Artist memory ar = Artist(_name, msg.sender);\n            ArtistMapping[msg.sender] = ar;\n        }else {\n            Participant memory part = Participant(_name, msg.sender);\n            ParticipantMapping[msg.sender] = part;\n        }\n\n        RegisteredUserAddresses.push(msg.sender);\n        return true;\n    }\n\n    /** after user connects wallet to web3 and gets access to website. \n    Options avaiable for USER:\n        Create NFT \n        Fractionalize NFT\n\n    function createNFT(string memory _name, string memory _symbol, string memory _desc, string memory _imageURL) public {\n\n        // if using ERC1155 - we need to create a JSON object and store it in IPFS or in blockchain. it requires a URI pointed at json file and then minting can take place. \n        // if using ERC721 - only name and symbol is needed to along with unique id for the NFT to create. \n\n        //calls ACHouseToken.mintERC1155 or ACHouseToken.mintERC721 depending on implementation\n    }\n\n    function fracNFT(string memory _shardName, string memory _shardSymbol, uint256 supply, uint256 _ownerRetain, uint256 _price) public {\n        // owner retain - amount of shards (tokes) will be given to the user, if all then end of steps. \n        // if user wants to generate funds, owner retain will be less than 100 and user sets price per shard (token). \n\n        //calls ACHouseToken.mintERC1155 or ACHouseToken.mintERC20 depending on implementation\n    }\n    */\n\n    function createNFT() public {\n\n        // if using ERC1155 - we need to create a JSON object and store it in IPFS or in blockchain. it requires a URI pointed at json file and then minting can take place. \n        // if using ERC721 - only name and symbol is needed to along with unique id for the NFT to create. \n        //calls ACHouseToken.mintERC1155 or ACHouseToken.mintERC721 depending on implementation\n    }\n\n\n\n    function isUserRegistered( address _address) internal view returns (bool) {\n         \n        for( uint8 j = 0; j < RegisteredUserAddresses.length; j++){\n             \n            if(RegisteredUserAddresses[j] == _address){\n                return (true); // user is registered.\n            }\n        }\n        return (false); // user is not registered.\n    }\n\n}\n",
  "sourcePath": "/home/dinesh/Projects/BnktAuction/contracts/ACHouse.sol",
  "compiler": {
    "name": "solc",
    "version": "0.8.3+commit.8d00100c.Emscripten.clang"
  },
  "schemaVersion": "3.3.4",
  "updatedAt": "2021-09-29T01:55:33.299Z",
  "devdoc": {
    "kind": "dev",
    "methods": {},
    "version": 1
  },
  "userdoc": {
    "kind": "user",
    "methods": {
      "createNFT()": {
        "notice": "after user connects wallet to web3 and gets access to website.  Options avaiable for USER: Create NFT  Fractionalize NFT function createNFT(string memory _name, string memory _symbol, string memory _desc, string memory _imageURL) public { // if using ERC1155 - we need to create a JSON object and store it in IPFS or in blockchain. it requires a URI pointed at json file and then minting can take place.  // if using ERC721 - only name and symbol is needed to along with unique id for the NFT to create.  //calls ACHouseToken.mintERC1155 or ACHouseToken.mintERC721 depending on implementation } function fracNFT(string memory _shardName, string memory _shardSymbol, uint256 supply, uint256 _ownerRetain, uint256 _price) public { // owner retain - amount of shards (tokes) will be given to the user, if all then end of steps.  // if user wants to generate funds, owner retain will be less than 100 and user sets price per shard (token).  //calls ACHouseToken.mintERC1155 or ACHouseToken.mintERC20 depending on implementation }"
      },
      "register(string,uint256)": {
        "notice": "Functions - Registration  "
      }
    },
    "version": 1
  }
}