{
  "contractName": "ACHouseToken1155",
  "abi": [
    {
      "inputs": [],
      "stateMutability": "nonpayable",
      "type": "constructor"
    },
    {
      "anonymous": false,
      "inputs": [
        {
          "indexed": true,
          "internalType": "address",
          "name": "account",
          "type": "address"
        },
        {
          "indexed": true,
          "internalType": "address",
          "name": "operator",
          "type": "address"
        },
        {
          "indexed": false,
          "internalType": "bool",
          "name": "approved",
          "type": "bool"
        }
      ],
      "name": "ApprovalForAll",
      "type": "event"
    },
    {
      "anonymous": false,
      "inputs": [
        {
          "indexed": true,
          "internalType": "address",
          "name": "operator",
          "type": "address"
        },
        {
          "indexed": true,
          "internalType": "address",
          "name": "from",
          "type": "address"
        },
        {
          "indexed": true,
          "internalType": "address",
          "name": "to",
          "type": "address"
        },
        {
          "indexed": false,
          "internalType": "uint256[]",
          "name": "ids",
          "type": "uint256[]"
        },
        {
          "indexed": false,
          "internalType": "uint256[]",
          "name": "values",
          "type": "uint256[]"
        }
      ],
      "name": "TransferBatch",
      "type": "event"
    },
    {
      "anonymous": false,
      "inputs": [
        {
          "indexed": true,
          "internalType": "address",
          "name": "operator",
          "type": "address"
        },
        {
          "indexed": true,
          "internalType": "address",
          "name": "from",
          "type": "address"
        },
        {
          "indexed": true,
          "internalType": "address",
          "name": "to",
          "type": "address"
        },
        {
          "indexed": false,
          "internalType": "uint256",
          "name": "id",
          "type": "uint256"
        },
        {
          "indexed": false,
          "internalType": "uint256",
          "name": "value",
          "type": "uint256"
        }
      ],
      "name": "TransferSingle",
      "type": "event"
    },
    {
      "anonymous": false,
      "inputs": [
        {
          "indexed": false,
          "internalType": "string",
          "name": "value",
          "type": "string"
        },
        {
          "indexed": true,
          "internalType": "uint256",
          "name": "id",
          "type": "uint256"
        }
      ],
      "name": "URI",
      "type": "event"
    },
    {
      "inputs": [
        {
          "internalType": "address",
          "name": "account",
          "type": "address"
        },
        {
          "internalType": "uint256",
          "name": "id",
          "type": "uint256"
        }
      ],
      "name": "balanceOf",
      "outputs": [
        {
          "internalType": "uint256",
          "name": "",
          "type": "uint256"
        }
      ],
      "stateMutability": "view",
      "type": "function"
    },
    {
      "inputs": [
        {
          "internalType": "address[]",
          "name": "accounts",
          "type": "address[]"
        },
        {
          "internalType": "uint256[]",
          "name": "ids",
          "type": "uint256[]"
        }
      ],
      "name": "balanceOfBatch",
      "outputs": [
        {
          "internalType": "uint256[]",
          "name": "",
          "type": "uint256[]"
        }
      ],
      "stateMutability": "view",
      "type": "function"
    },
    {
      "inputs": [
        {
          "internalType": "address",
          "name": "account",
          "type": "address"
        },
        {
          "internalType": "address",
          "name": "operator",
          "type": "address"
        }
      ],
      "name": "isApprovedForAll",
      "outputs": [
        {
          "internalType": "bool",
          "name": "",
          "type": "bool"
        }
      ],
      "stateMutability": "view",
      "type": "function"
    },
    {
      "inputs": [
        {
          "internalType": "address",
          "name": "from",
          "type": "address"
        },
        {
          "internalType": "address",
          "name": "to",
          "type": "address"
        },
        {
          "internalType": "uint256[]",
          "name": "ids",
          "type": "uint256[]"
        },
        {
          "internalType": "uint256[]",
          "name": "amounts",
          "type": "uint256[]"
        },
        {
          "internalType": "bytes",
          "name": "data",
          "type": "bytes"
        }
      ],
      "name": "safeBatchTransferFrom",
      "outputs": [],
      "stateMutability": "nonpayable",
      "type": "function"
    },
    {
      "inputs": [
        {
          "internalType": "address",
          "name": "from",
          "type": "address"
        },
        {
          "internalType": "address",
          "name": "to",
          "type": "address"
        },
        {
          "internalType": "uint256",
          "name": "id",
          "type": "uint256"
        },
        {
          "internalType": "uint256",
          "name": "amount",
          "type": "uint256"
        },
        {
          "internalType": "bytes",
          "name": "data",
          "type": "bytes"
        }
      ],
      "name": "safeTransferFrom",
      "outputs": [],
      "stateMutability": "nonpayable",
      "type": "function"
    },
    {
      "inputs": [
        {
          "internalType": "address",
          "name": "operator",
          "type": "address"
        },
        {
          "internalType": "bool",
          "name": "approved",
          "type": "bool"
        }
      ],
      "name": "setApprovalForAll",
      "outputs": [],
      "stateMutability": "nonpayable",
      "type": "function"
    },
    {
      "inputs": [
        {
          "internalType": "bytes4",
          "name": "interfaceId",
          "type": "bytes4"
        }
      ],
      "name": "supportsInterface",
      "outputs": [
        {
          "internalType": "bool",
          "name": "",
          "type": "bool"
        }
      ],
      "stateMutability": "view",
      "type": "function"
    },
    {
      "inputs": [
        {
          "internalType": "uint256",
          "name": "",
          "type": "uint256"
        }
      ],
      "name": "uri",
      "outputs": [
        {
          "internalType": "string",
          "name": "",
          "type": "string"
        }
      ],
      "stateMutability": "view",
      "type": "function"
    },
    {
      "inputs": [
        {
          "internalType": "address",
          "name": "_address",
          "type": "address"
        }
      ],
      "name": "setParentAddress",
      "outputs": [],
      "stateMutability": "nonpayable",
      "type": "function"
    },
    {
      "inputs": [
        {
          "internalType": "address",
          "name": "_ownerAddress",
          "type": "address"
        },
        {
          "internalType": "uint256",
          "name": "_id",
          "type": "uint256"
        },
        {
          "internalType": "uint256",
          "name": "amount",
          "type": "uint256"
        }
      ],
      "name": "mintNFT",
      "outputs": [],
      "stateMutability": "nonpayable",
      "type": "function"
    },
    {
      "inputs": [
        {
          "internalType": "string",
          "name": "newuri",
          "type": "string"
        }
      ],
      "name": "setURI",
      "outputs": [],
      "stateMutability": "nonpayable",
      "type": "function"
    },
    {
      "inputs": [],
      "name": "getTokenCount",
      "outputs": [
        {
          "internalType": "uint256",
          "name": "",
          "type": "uint256"
        }
      ],
      "stateMutability": "view",
      "type": "function"
    },
    {
      "inputs": [],
      "name": "getTokenIds",
      "outputs": [
        {
          "internalType": "uint256[]",
          "name": "",
          "type": "uint256[]"
        }
      ],
      "stateMutability": "view",
      "type": "function"
    },
    {
      "inputs": [
        {
          "internalType": "address",
          "name": "operator",
          "type": "address"
        },
        {
          "internalType": "address",
          "name": "from",
          "type": "address"
        },
        {
          "internalType": "uint256",
          "name": "id",
          "type": "uint256"
        },
        {
          "internalType": "uint256",
          "name": "value",
          "type": "uint256"
        },
        {
          "internalType": "bytes",
          "name": "data",
          "type": "bytes"
        }
      ],
      "name": "onERC1155Received",
      "outputs": [
        {
          "internalType": "bytes4",
          "name": "",
          "type": "bytes4"
        }
      ],
      "stateMutability": "pure",
      "type": "function"
    },
    {
      "inputs": [
        {
          "internalType": "address",
          "name": "operator",
          "type": "address"
        },
        {
          "internalType": "address",
          "name": "from",
          "type": "address"
        },
        {
          "internalType": "uint256[]",
          "name": "ids",
          "type": "uint256[]"
        },
        {
          "internalType": "uint256[]",
          "name": "values",
          "type": "uint256[]"
        },
        {
          "internalType": "bytes",
          "name": "data",
          "type": "bytes"
        }
      ],
      "name": "onERC1155BatchReceived",
      "outputs": [
        {
          "internalType": "bytes4",
          "name": "",
          "type": "bytes4"
        }
      ],
      "stateMutability": "pure",
      "type": "function"
    }
  ],
  "bytecode": "0x60806040523480156200001157600080fd5b506040518060200160405280600081525062000033816200003a60201b60201c565b506200016b565b80600290805190602001906200005292919062000056565b5050565b828054620000649062000106565b90600052602060002090601f016020900481019282620000885760008555620000d4565b82601f10620000a357805160ff1916838001178555620000d4565b82800160010185558215620000d4579182015b82811115620000d3578251825591602001919060010190620000b6565b5b509050620000e39190620000e7565b5090565b5b8082111562000102576000816000905550600101620000e8565b5090565b600060028204905060018216806200011f57607f821691505b602082108114156200013657620001356200013c565b5b50919050565b7f4e487b7100000000000000000000000000000000000000000000000000000000600052602260045260246000fd5b612f4e806200017b6000396000f3fe608060405234801561001057600080fd5b50600436106100f45760003560e01c806367f718a911610097578063e985e9c511610066578063e985e9c514610295578063f23a6e61146102c5578063f242432a146102f5578063fa5afe4014610311576100f4565b806367f718a91461020d57806378a895671461022b578063a22cb46514610249578063bc197c8114610265576100f4565b80630e89341c116100d35780630e89341c146101755780632eb2c2d6146101a55780634e1273f4146101c15780635a9d10a2146101f1576100f4565b8062fdd58e146100f957806301ffc9a71461012957806302fe530514610159575b600080fd5b610113600480360381019061010e9190611f6e565b61032d565b60405161012091906126a8565b60405180910390f35b610143600480360381019061013e9190612065565b6103f6565b60405161015091906124f0565b60405180910390f35b610173600480360381019061016e91906120b7565b6104d8565b005b61018f600480360381019061018a91906120f8565b6104e4565b60405161019c9190612526565b60405180910390f35b6101bf60048036038101906101ba9190611d52565b610578565b005b6101db60048036038101906101d69190611ff9565b610619565b6040516101e89190612497565b60405180910390f35b61020b60048036038101906102069190611faa565b6107ca565b005b610215610813565b6040516102229190612497565b60405180910390f35b61023361086b565b60405161024091906126a8565b60405180910390f35b610263600480360381019061025e9190611f32565b610878565b005b61027f600480360381019061027a9190611c86565b6109f9565b60405161028c919061250b565b60405180910390f35b6102af60048036038101906102aa9190611c4a565b610a2a565b6040516102bc91906124f0565b60405180910390f35b6102df60048036038101906102da9190611e11565b610abe565b6040516102ec919061250b565b60405180910390f35b61030f600480360381019061030a9190611ea3565b610aed565b005b61032b60048036038101906103269190611c21565b610b8e565b005b60008073ffffffffffffffffffffffffffffffffffffffff168373ffffffffffffffffffffffffffffffffffffffff16141561039e576040517f08c379a000000000000000000000000000000000000000000000000000000000815260040161039590612588565b60405180910390fd5b60008083815260200190815260200160002060008473ffffffffffffffffffffffffffffffffffffffff1673ffffffffffffffffffffffffffffffffffffffff16815260200190815260200160002054905092915050565b60007fd9b67a26000000000000000000000000000000000000000000000000000000007bffffffffffffffffffffffffffffffffffffffffffffffffffffffff1916827bffffffffffffffffffffffffffffffffffffffffffffffffffffffff191614806104c157507f0e89341c000000000000000000000000000000000000000000000000000000007bffffffffffffffffffffffffffffffffffffffffffffffffffffffff1916827bffffffffffffffffffffffffffffffffffffffffffffffffffffffff1916145b806104d157506104d082610bd2565b5b9050919050565b6104e181610c3c565b50565b6060600280546104f390612948565b80601f016020809104026020016040519081016040528092919081815260200182805461051f90612948565b801561056c5780601f106105415761010080835404028352916020019161056c565b820191906000526020600020905b81548152906001019060200180831161054f57829003601f168201915b50505050509050919050565b610580610c56565b73ffffffffffffffffffffffffffffffffffffffff168573ffffffffffffffffffffffffffffffffffffffff1614806105c657506105c5856105c0610c56565b610a2a565b5b610605576040517f08c379a00000000000000000000000000000000000000000000000000000000081526004016105fc906125e8565b60405180910390fd5b6106128585858585610c5e565b5050505050565b6060815183511461065f576040517f08c379a000000000000000000000000000000000000000000000000000000000815260040161065690612648565b60405180910390fd5b6000835167ffffffffffffffff8111156106a2577f4e487b7100000000000000000000000000000000000000000000000000000000600052604160045260246000fd5b6040519080825280602002602001820160405280156106d05781602001602082028036833780820191505090505b50905060005b84518110156107bf5761076985828151811061071b577f4e487b7100000000000000000000000000000000000000000000000000000000600052603260045260246000fd5b602002602001015185838151811061075c577f4e487b7100000000000000000000000000000000000000000000000000000000600052603260045260246000fd5b602002602001015161032d565b8282815181106107a2577f4e487b7100000000000000000000000000000000000000000000000000000000600052603260045260246000fd5b602002602001018181525050806107b8906129ab565b90506106d6565b508091505092915050565b6107e583838360405180602001604052806000815250610fbe565b6004829080600181540180825580915050600190039060005260206000200160009091909190915055505050565b6060600480548060200260200160405190810160405280929190818152602001828054801561086157602002820191906000526020600020905b81548152602001906001019080831161084d575b5050505050905090565b6000600480549050905090565b8173ffffffffffffffffffffffffffffffffffffffff16610897610c56565b73ffffffffffffffffffffffffffffffffffffffff1614156108ee576040517f08c379a00000000000000000000000000000000000000000000000000000000081526004016108e590612628565b60405180910390fd5b80600160006108fb610c56565b73ffffffffffffffffffffffffffffffffffffffff1673ffffffffffffffffffffffffffffffffffffffff16815260200190815260200160002060008473ffffffffffffffffffffffffffffffffffffffff1673ffffffffffffffffffffffffffffffffffffffff16815260200190815260200160002060006101000a81548160ff0219169083151502179055508173ffffffffffffffffffffffffffffffffffffffff166109a8610c56565b73ffffffffffffffffffffffffffffffffffffffff167f17307eab39ab6107e8899845ad3d59bd9653f200f220920489ca2b5937696c31836040516109ed91906124f0565b60405180910390a35050565b60007fbc197c819b3e337a6f9652dd10becd7eef83032af3b9d958d3d42f6694146621905098975050505050505050565b6000600160008473ffffffffffffffffffffffffffffffffffffffff1673ffffffffffffffffffffffffffffffffffffffff16815260200190815260200160002060008373ffffffffffffffffffffffffffffffffffffffff1673ffffffffffffffffffffffffffffffffffffffff16815260200190815260200160002060009054906101000a900460ff16905092915050565b60007ff23a6e612e1ff4830e658fe43f4e3cb4a5f8170bd5d9e69fb5d7a7fa9e4fdf9790509695505050505050565b610af5610c56565b73ffffffffffffffffffffffffffffffffffffffff168573ffffffffffffffffffffffffffffffffffffffff161480610b3b5750610b3a85610b35610c56565b610a2a565b5b610b7a576040517f08c379a0000000000000000000000000000000000000000000000000000000008152600401610b71906125a8565b60405180910390fd5b610b878585858585611154565b5050505050565b80600360006101000a81548173ffffffffffffffffffffffffffffffffffffffff021916908373ffffffffffffffffffffffffffffffffffffffff16021790555050565b60007f01ffc9a7000000000000000000000000000000000000000000000000000000007bffffffffffffffffffffffffffffffffffffffffffffffffffffffff1916827bffffffffffffffffffffffffffffffffffffffffffffffffffffffff1916149050919050565b8060029080519060200190610c52929190611885565b5050565b600033905090565b8151835114610ca2576040517f08c379a0000000000000000000000000000000000000000000000000000000008152600401610c9990612668565b60405180910390fd5b600073ffffffffffffffffffffffffffffffffffffffff168473ffffffffffffffffffffffffffffffffffffffff161415610d12576040517f08c379a0000000000000000000000000000000000000000000000000000000008152600401610d09906125c8565b60405180910390fd5b6000610d1c610c56565b9050610d2c8187878787876113d6565b60005b8451811015610f29576000858281518110610d73577f4e487b7100000000000000000000000000000000000000000000000000000000600052603260045260246000fd5b602002602001015190506000858381518110610db8577f4e487b7100000000000000000000000000000000000000000000000000000000600052603260045260246000fd5b60200260200101519050600080600084815260200190815260200160002060008b73ffffffffffffffffffffffffffffffffffffffff1673ffffffffffffffffffffffffffffffffffffffff16815260200190815260200160002054905081811015610e59576040517f08c379a0000000000000000000000000000000000000000000000000000000008152600401610e5090612608565b60405180910390fd5b81810360008085815260200190815260200160002060008c73ffffffffffffffffffffffffffffffffffffffff1673ffffffffffffffffffffffffffffffffffffffff168152602001908152602001600020819055508160008085815260200190815260200160002060008b73ffffffffffffffffffffffffffffffffffffffff1673ffffffffffffffffffffffffffffffffffffffff1681526020019081526020016000206000828254610f0e919061283c565b9250508190555050505080610f22906129ab565b9050610d2f565b508473ffffffffffffffffffffffffffffffffffffffff168673ffffffffffffffffffffffffffffffffffffffff168273ffffffffffffffffffffffffffffffffffffffff167f4a39dc06d4c0dbc64b70af90fd698a233a518aa5d07e595d983b8c0526c8f7fb8787604051610fa09291906124b9565b60405180910390a4610fb68187878787876113de565b505050505050565b600073ffffffffffffffffffffffffffffffffffffffff168473ffffffffffffffffffffffffffffffffffffffff16141561102e576040517f08c379a000000000000000000000000000000000000000000000000000000000815260040161102590612688565b60405180910390fd5b6000611038610c56565b90506110598160008761104a886115c5565b611053886115c5565b876113d6565b8260008086815260200190815260200160002060008773ffffffffffffffffffffffffffffffffffffffff1673ffffffffffffffffffffffffffffffffffffffff16815260200190815260200160002060008282546110b8919061283c565b925050819055508473ffffffffffffffffffffffffffffffffffffffff16600073ffffffffffffffffffffffffffffffffffffffff168273ffffffffffffffffffffffffffffffffffffffff167fc3d58168c5ae7397731d063d5bbf3d657854427343f4c083240f7aacaa2d0f6287876040516111369291906126c3565b60405180910390a461114d8160008787878761168b565b5050505050565b600073ffffffffffffffffffffffffffffffffffffffff168473ffffffffffffffffffffffffffffffffffffffff1614156111c4576040517f08c379a00000000000000000000000000000000000000000000000000000000081526004016111bb906125c8565b60405180910390fd5b60006111ce610c56565b90506111ee8187876111df886115c5565b6111e8886115c5565b876113d6565b600080600086815260200190815260200160002060008873ffffffffffffffffffffffffffffffffffffffff1673ffffffffffffffffffffffffffffffffffffffff16815260200190815260200160002054905083811015611285576040517f08c379a000000000000000000000000000000000000000000000000000000000815260040161127c90612608565b60405180910390fd5b83810360008087815260200190815260200160002060008973ffffffffffffffffffffffffffffffffffffffff1673ffffffffffffffffffffffffffffffffffffffff168152602001908152602001600020819055508360008087815260200190815260200160002060008873ffffffffffffffffffffffffffffffffffffffff1673ffffffffffffffffffffffffffffffffffffffff168152602001908152602001600020600082825461133a919061283c565b925050819055508573ffffffffffffffffffffffffffffffffffffffff168773ffffffffffffffffffffffffffffffffffffffff168373ffffffffffffffffffffffffffffffffffffffff167fc3d58168c5ae7397731d063d5bbf3d657854427343f4c083240f7aacaa2d0f6288886040516113b79291906126c3565b60405180910390a46113cd82888888888861168b565b50505050505050565b505050505050565b6113fd8473ffffffffffffffffffffffffffffffffffffffff16611872565b156115bd578373ffffffffffffffffffffffffffffffffffffffff1663bc197c8187878686866040518663ffffffff1660e01b81526004016114439594939291906123d5565b602060405180830381600087803b15801561145d57600080fd5b505af192505050801561148e57506040513d601f19601f8201168201806040525081019061148b919061208e565b60015b6115345761149a612a81565b806308c379a014156114f757506114af612e26565b806114ba57506114f9565b806040517f08c379a00000000000000000000000000000000000000000000000000000000081526004016114ee9190612526565b60405180910390fd5b505b6040517f08c379a000000000000000000000000000000000000000000000000000000000815260040161152b90612548565b60405180910390fd5b63bc197c8160e01b7bffffffffffffffffffffffffffffffffffffffffffffffffffffffff1916817bffffffffffffffffffffffffffffffffffffffffffffffffffffffff1916146115bb576040517f08c379a00000000000000000000000000000000000000000000000000000000081526004016115b290612568565b60405180910390fd5b505b505050505050565b60606000600167ffffffffffffffff81111561160a577f4e487b7100000000000000000000000000000000000000000000000000000000600052604160045260246000fd5b6040519080825280602002602001820160405280156116385781602001602082028036833780820191505090505b5090508281600081518110611676577f4e487b7100000000000000000000000000000000000000000000000000000000600052603260045260246000fd5b60200260200101818152505080915050919050565b6116aa8473ffffffffffffffffffffffffffffffffffffffff16611872565b1561186a578373ffffffffffffffffffffffffffffffffffffffff1663f23a6e6187878686866040518663ffffffff1660e01b81526004016116f095949392919061243d565b602060405180830381600087803b15801561170a57600080fd5b505af192505050801561173b57506040513d601f19601f82011682018060405250810190611738919061208e565b60015b6117e157611747612a81565b806308c379a014156117a4575061175c612e26565b8061176757506117a6565b806040517f08c379a000000000000000000000000000000000000000000000000000000000815260040161179b9190612526565b60405180910390fd5b505b6040517f08c379a00000000000000000000000000000000000000000000000000000000081526004016117d890612548565b60405180910390fd5b63f23a6e6160e01b7bffffffffffffffffffffffffffffffffffffffffffffffffffffffff1916817bffffffffffffffffffffffffffffffffffffffffffffffffffffffff191614611868576040517f08c379a000000000000000000000000000000000000000000000000000000000815260040161185f90612568565b60405180910390fd5b505b505050505050565b600080823b905060008111915050919050565b82805461189190612948565b90600052602060002090601f0160209004810192826118b357600085556118fa565b82601f106118cc57805160ff19168380011785556118fa565b828001600101855582156118fa579182015b828111156118f95782518255916020019190600101906118de565b5b509050611907919061190b565b5090565b5b8082111561192457600081600090555060010161190c565b5090565b600061193b61193684612711565b6126ec565b9050808382526020820190508285602086028201111561195a57600080fd5b60005b8581101561198a57816119708882611a7c565b84526020840193506020830192505060018101905061195d565b5050509392505050565b60006119a76119a28461273d565b6126ec565b905080838252602082019050828560208602820111156119c657600080fd5b60005b858110156119f657816119dc8882611c0c565b8452602084019350602083019250506001810190506119c9565b5050509392505050565b6000611a13611a0e84612769565b6126ec565b905082815260208101848484011115611a2b57600080fd5b611a36848285612906565b509392505050565b6000611a51611a4c8461279a565b6126ec565b905082815260208101848484011115611a6957600080fd5b611a74848285612906565b509392505050565b600081359050611a8b81612ebc565b92915050565b600082601f830112611aa257600080fd5b8135611ab2848260208601611928565b91505092915050565b60008083601f840112611acd57600080fd5b8235905067ffffffffffffffff811115611ae657600080fd5b602083019150836020820283011115611afe57600080fd5b9250929050565b600082601f830112611b1657600080fd5b8135611b26848260208601611994565b91505092915050565b600081359050611b3e81612ed3565b92915050565b600081359050611b5381612eea565b92915050565b600081519050611b6881612eea565b92915050565b60008083601f840112611b8057600080fd5b8235905067ffffffffffffffff811115611b9957600080fd5b602083019150836001820283011115611bb157600080fd5b9250929050565b600082601f830112611bc957600080fd5b8135611bd9848260208601611a00565b91505092915050565b600082601f830112611bf357600080fd5b8135611c03848260208601611a3e565b91505092915050565b600081359050611c1b81612f01565b92915050565b600060208284031215611c3357600080fd5b6000611c4184828501611a7c565b91505092915050565b60008060408385031215611c5d57600080fd5b6000611c6b85828601611a7c565b9250506020611c7c85828601611a7c565b9150509250929050565b60008060008060008060008060a0898b031215611ca257600080fd5b6000611cb08b828c01611a7c565b9850506020611cc18b828c01611a7c565b975050604089013567ffffffffffffffff811115611cde57600080fd5b611cea8b828c01611abb565b9650965050606089013567ffffffffffffffff811115611d0957600080fd5b611d158b828c01611abb565b9450945050608089013567ffffffffffffffff811115611d3457600080fd5b611d408b828c01611b6e565b92509250509295985092959890939650565b600080600080600060a08688031215611d6a57600080fd5b6000611d7888828901611a7c565b9550506020611d8988828901611a7c565b945050604086013567ffffffffffffffff811115611da657600080fd5b611db288828901611b05565b935050606086013567ffffffffffffffff811115611dcf57600080fd5b611ddb88828901611b05565b925050608086013567ffffffffffffffff811115611df857600080fd5b611e0488828901611bb8565b9150509295509295909350565b60008060008060008060a08789031215611e2a57600080fd5b6000611e3889828a01611a7c565b9650506020611e4989828a01611a7c565b9550506040611e5a89828a01611c0c565b9450506060611e6b89828a01611c0c565b935050608087013567ffffffffffffffff811115611e8857600080fd5b611e9489828a01611b6e565b92509250509295509295509295565b600080600080600060a08688031215611ebb57600080fd5b6000611ec988828901611a7c565b9550506020611eda88828901611a7c565b9450506040611eeb88828901611c0c565b9350506060611efc88828901611c0c565b925050608086013567ffffffffffffffff811115611f1957600080fd5b611f2588828901611bb8565b9150509295509295909350565b60008060408385031215611f4557600080fd5b6000611f5385828601611a7c565b9250506020611f6485828601611b2f565b9150509250929050565b60008060408385031215611f8157600080fd5b6000611f8f85828601611a7c565b9250506020611fa085828601611c0c565b9150509250929050565b600080600060608486031215611fbf57600080fd5b6000611fcd86828701611a7c565b9350506020611fde86828701611c0c565b9250506040611fef86828701611c0c565b9150509250925092565b6000806040838503121561200c57600080fd5b600083013567ffffffffffffffff81111561202657600080fd5b61203285828601611a91565b925050602083013567ffffffffffffffff81111561204f57600080fd5b61205b85828601611b05565b9150509250929050565b60006020828403121561207757600080fd5b600061208584828501611b44565b91505092915050565b6000602082840312156120a057600080fd5b60006120ae84828501611b59565b91505092915050565b6000602082840312156120c957600080fd5b600082013567ffffffffffffffff8111156120e357600080fd5b6120ef84828501611be2565b91505092915050565b60006020828403121561210a57600080fd5b600061211884828501611c0c565b91505092915050565b600061212d83836123b7565b60208301905092915050565b61214281612892565b82525050565b6000612153826127db565b61215d8185612809565b9350612168836127cb565b8060005b838110156121995781516121808882612121565b975061218b836127fc565b92505060018101905061216c565b5085935050505092915050565b6121af816128a4565b82525050565b6121be816128b0565b82525050565b60006121cf826127e6565b6121d9818561281a565b93506121e9818560208601612915565b6121f281612aa3565b840191505092915050565b6000612208826127f1565b612212818561282b565b9350612222818560208601612915565b61222b81612aa3565b840191505092915050565b600061224360348361282b565b915061224e82612ac1565b604082019050919050565b600061226660288361282b565b915061227182612b10565b604082019050919050565b6000612289602b8361282b565b915061229482612b5f565b604082019050919050565b60006122ac60298361282b565b91506122b782612bae565b604082019050919050565b60006122cf60258361282b565b91506122da82612bfd565b604082019050919050565b60006122f260328361282b565b91506122fd82612c4c565b604082019050919050565b6000612315602a8361282b565b915061232082612c9b565b604082019050919050565b600061233860298361282b565b915061234382612cea565b604082019050919050565b600061235b60298361282b565b915061236682612d39565b604082019050919050565b600061237e60288361282b565b915061238982612d88565b604082019050919050565b60006123a160218361282b565b91506123ac82612dd7565b604082019050919050565b6123c0816128fc565b82525050565b6123cf816128fc565b82525050565b600060a0820190506123ea6000830188612139565b6123f76020830187612139565b81810360408301526124098186612148565b9050818103606083015261241d8185612148565b9050818103608083015261243181846121c4565b90509695505050505050565b600060a0820190506124526000830188612139565b61245f6020830187612139565b61246c60408301866123c6565b61247960608301856123c6565b818103608083015261248b81846121c4565b90509695505050505050565b600060208201905081810360008301526124b18184612148565b905092915050565b600060408201905081810360008301526124d38185612148565b905081810360208301526124e78184612148565b90509392505050565b600060208201905061250560008301846121a6565b92915050565b600060208201905061252060008301846121b5565b92915050565b6000602082019050818103600083015261254081846121fd565b905092915050565b6000602082019050818103600083015261256181612236565b9050919050565b6000602082019050818103600083015261258181612259565b9050919050565b600060208201905081810360008301526125a18161227c565b9050919050565b600060208201905081810360008301526125c18161229f565b9050919050565b600060208201905081810360008301526125e1816122c2565b9050919050565b60006020820190508181036000830152612601816122e5565b9050919050565b6000602082019050818103600083015261262181612308565b9050919050565b600060208201905081810360008301526126418161232b565b9050919050565b600060208201905081810360008301526126618161234e565b9050919050565b6000602082019050818103600083015261268181612371565b9050919050565b600060208201905081810360008301526126a181612394565b9050919050565b60006020820190506126bd60008301846123c6565b92915050565b60006040820190506126d860008301856123c6565b6126e560208301846123c6565b9392505050565b60006126f6612707565b9050612702828261297a565b919050565b6000604051905090565b600067ffffffffffffffff82111561272c5761272b612a52565b5b602082029050602081019050919050565b600067ffffffffffffffff82111561275857612757612a52565b5b602082029050602081019050919050565b600067ffffffffffffffff82111561278457612783612a52565b5b61278d82612aa3565b9050602081019050919050565b600067ffffffffffffffff8211156127b5576127b4612a52565b5b6127be82612aa3565b9050602081019050919050565b6000819050602082019050919050565b600081519050919050565b600081519050919050565b600081519050919050565b6000602082019050919050565b600082825260208201905092915050565b600082825260208201905092915050565b600082825260208201905092915050565b6000612847826128fc565b9150612852836128fc565b9250827fffffffffffffffffffffffffffffffffffffffffffffffffffffffffffffffff03821115612887576128866129f4565b5b828201905092915050565b600061289d826128dc565b9050919050565b60008115159050919050565b60007fffffffff0000000000000000000000000000000000000000000000000000000082169050919050565b600073ffffffffffffffffffffffffffffffffffffffff82169050919050565b6000819050919050565b82818337600083830152505050565b60005b83811015612933578082015181840152602081019050612918565b83811115612942576000848401525b50505050565b6000600282049050600182168061296057607f821691505b6020821081141561297457612973612a23565b5b50919050565b61298382612aa3565b810181811067ffffffffffffffff821117156129a2576129a1612a52565b5b80604052505050565b60006129b6826128fc565b91507fffffffffffffffffffffffffffffffffffffffffffffffffffffffffffffffff8214156129e9576129e86129f4565b5b600182019050919050565b7f4e487b7100000000000000000000000000000000000000000000000000000000600052601160045260246000fd5b7f4e487b7100000000000000000000000000000000000000000000000000000000600052602260045260246000fd5b7f4e487b7100000000000000000000000000000000000000000000000000000000600052604160045260246000fd5b600060033d1115612aa05760046000803e612a9d600051612ab4565b90505b90565b6000601f19601f8301169050919050565b60008160e01c9050919050565b7f455243313135353a207472616e7366657220746f206e6f6e204552433131353560008201527f526563656976657220696d706c656d656e746572000000000000000000000000602082015250565b7f455243313135353a204552433131353552656365697665722072656a6563746560008201527f6420746f6b656e73000000000000000000000000000000000000000000000000602082015250565b7f455243313135353a2062616c616e636520717565727920666f7220746865207a60008201527f65726f2061646472657373000000000000000000000000000000000000000000602082015250565b7f455243313135353a2063616c6c6572206973206e6f74206f776e6572206e6f7260008201527f20617070726f7665640000000000000000000000000000000000000000000000602082015250565b7f455243313135353a207472616e7366657220746f20746865207a65726f20616460008201527f6472657373000000000000000000000000000000000000000000000000000000602082015250565b7f455243313135353a207472616e736665722063616c6c6572206973206e6f742060008201527f6f776e6572206e6f7220617070726f7665640000000000000000000000000000602082015250565b7f455243313135353a20696e73756666696369656e742062616c616e636520666f60008201527f72207472616e7366657200000000000000000000000000000000000000000000602082015250565b7f455243313135353a2073657474696e6720617070726f76616c2073746174757360008201527f20666f722073656c660000000000000000000000000000000000000000000000602082015250565b7f455243313135353a206163636f756e747320616e6420696473206c656e67746860008201527f206d69736d617463680000000000000000000000000000000000000000000000602082015250565b7f455243313135353a2069647320616e6420616d6f756e7473206c656e6774682060008201527f6d69736d61746368000000000000000000000000000000000000000000000000602082015250565b7f455243313135353a206d696e7420746f20746865207a65726f2061646472657360008201527f7300000000000000000000000000000000000000000000000000000000000000602082015250565b600060443d1015612e3657612eb9565b612e3e612707565b60043d036004823e80513d602482011167ffffffffffffffff82111715612e66575050612eb9565b808201805167ffffffffffffffff811115612e845750505050612eb9565b80602083010160043d038501811115612ea1575050505050612eb9565b612eb08260200185018661297a565b82955050505050505b90565b612ec581612892565b8114612ed057600080fd5b50565b612edc816128a4565b8114612ee757600080fd5b50565b612ef3816128b0565b8114612efe57600080fd5b50565b612f0a816128fc565b8114612f1557600080fd5b5056fea264697066735822122034ab1e5a38a2be8bbca6d153144d40e1824353dba9bd38f0364e0e64d77516c964736f6c63430008030033",
  "immutableReferences": {},
  "source": "pragma solidity ^0.8.3;\n//\"SPDX-License-Identifier: UNLICENSED\"\n\nimport \"@openzeppelin/contracts/token/ERC1155/ERC1155.sol\";\nimport \"@openzeppelin/contracts/token/ERC1155/utils/ERC1155Receiver.sol\";\n\n\ncontract ACHouseToken1155 is ERC1155, IERC1155Receiver {\n    address parentAddress;\n\n    uint256[] tokensIdscreated;\n    \n    constructor() ERC1155(\"\") {}\n    \n    \n    function setParentAddress(address _address) public {\n        parentAddress = _address;\n    }\n\n    /**\n    public functions available through implementation of ERC1155\n    -supportsInterface\n    -uri - get the current set uri\n    -balanceOf\n    -balanceBatch\n    -setApprovalForAll\n    -isApprovedForAll\n    -safeTransferFrom\n    -safeBatchTransferFrom\n\n     */ \n    function mintNFT(address _ownerAddress, uint256 _id, uint256 amount ) public {\n       // using erc 1155 to creat NFT\n       // mint will create NFT and send it to the address. IF address is parent contract then it will throw error unless IERC1155Receiver.onERC1155BatchReceived is implemented. \n\n       _mint(_ownerAddress, _id, amount, \"\"); \n       tokensIdscreated.push(_id);\n\n    }\n\n    function setURI(string memory newuri) public {\n        _setURI(newuri);\n    }\n    \n    //get tokens totalnumber. \n    function getTokenCount() public view returns (uint256) {\n        return tokensIdscreated.length;\n    }\n    //returns the array of all tokenids. \n    function getTokenIds() public  view returns ( uint256[] memory) {\n        return tokensIdscreated;\n    }\n    \n    function onERC1155Received( address operator, address from,uint256 id, uint256 value, bytes calldata data) override pure external returns (bytes4){\n        return bytes4(keccak256(\"onERC1155Received(address,address,uint256,uint256,bytes)\"));\n    }\n    \n    function onERC1155BatchReceived( address operator, address from, uint256[] calldata ids, uint256[] calldata values, bytes calldata data ) override pure external returns (bytes4){\n        return bytes4(keccak256(\"onERC1155BatchReceived(address,address,uint256[],uint256[],bytes)\"));\n    }\n\n\n}",
  "sourcePath": "/home/dinesh/Projects/EthOnline/contracts/ACHouseToken1155.sol",
  "compiler": {
    "name": "solc",
    "version": "0.8.3+commit.8d00100c.Emscripten.clang"
  },
  "schemaVersion": "3.3.4",
  "updatedAt": "2021-10-05T04:06:14.356Z",
  "devdoc": {
    "kind": "dev",
    "methods": {
      "balanceOf(address,uint256)": {
        "details": "See {IERC1155-balanceOf}. Requirements: - `account` cannot be the zero address."
      },
      "balanceOfBatch(address[],uint256[])": {
        "details": "See {IERC1155-balanceOfBatch}. Requirements: - `accounts` and `ids` must have the same length."
      },
      "isApprovedForAll(address,address)": {
        "details": "See {IERC1155-isApprovedForAll}."
      },
      "onERC1155BatchReceived(address,address,uint256[],uint256[],bytes)": {
        "details": "Handles the receipt of a multiple ERC1155 token types. This function is called at the end of a `safeBatchTransferFrom` after the balances have been updated. To accept the transfer(s), this must return `bytes4(keccak256(\"onERC1155BatchReceived(address,address,uint256[],uint256[],bytes)\"))` (i.e. 0xbc197c81, or its own function selector).",
        "params": {
          "data": "Additional data with no specified format",
          "from": "The address which previously owned the token",
          "ids": "An array containing ids of each token being transferred (order and length must match values array)",
          "operator": "The address which initiated the batch transfer (i.e. msg.sender)",
          "values": "An array containing amounts of each token being transferred (order and length must match ids array)"
        },
        "returns": {
          "_0": "`bytes4(keccak256(\"onERC1155BatchReceived(address,address,uint256[],uint256[],bytes)\"))` if transfer is allowed"
        }
      },
      "onERC1155Received(address,address,uint256,uint256,bytes)": {
        "details": "Handles the receipt of a single ERC1155 token type. This function is called at the end of a `safeTransferFrom` after the balance has been updated. To accept the transfer, this must return `bytes4(keccak256(\"onERC1155Received(address,address,uint256,uint256,bytes)\"))` (i.e. 0xf23a6e61, or its own function selector).",
        "params": {
          "data": "Additional data with no specified format",
          "from": "The address which previously owned the token",
          "id": "The ID of the token being transferred",
          "operator": "The address which initiated the transfer (i.e. msg.sender)",
          "value": "The amount of tokens being transferred"
        },
        "returns": {
          "_0": "`bytes4(keccak256(\"onERC1155Received(address,address,uint256,uint256,bytes)\"))` if transfer is allowed"
        }
      },
      "safeBatchTransferFrom(address,address,uint256[],uint256[],bytes)": {
        "details": "See {IERC1155-safeBatchTransferFrom}."
      },
      "safeTransferFrom(address,address,uint256,uint256,bytes)": {
        "details": "See {IERC1155-safeTransferFrom}."
      },
      "setApprovalForAll(address,bool)": {
        "details": "See {IERC1155-setApprovalForAll}."
      },
      "supportsInterface(bytes4)": {
        "details": "See {IERC165-supportsInterface}."
      },
      "uri(uint256)": {
        "details": "See {IERC1155MetadataURI-uri}. This implementation returns the same URI for *all* token types. It relies on the token type ID substitution mechanism https://eips.ethereum.org/EIPS/eip-1155#metadata[defined in the EIP]. Clients calling this function must replace the `\\{id\\}` substring with the actual token type ID."
      }
    },
    "version": 1
  },
  "userdoc": {
    "kind": "user",
    "methods": {
      "mintNFT(address,uint256,uint256)": {
        "notice": "public functions available through implementation of ERC1155 -supportsInterface -uri - get the current set uri -balanceOf -balanceBatch -setApprovalForAll -isApprovedForAll -safeTransferFrom -safeBatchTransferFrom"
      }
    },
    "version": 1
  }
}