{
  "contractName": "ACHouse",
  "abi": [
    {
      "inputs": [
        {
          "internalType": "address",
          "name": "_mToken",
          "type": "address"
        },
        {
          "internalType": "address",
          "name": "_nToken",
          "type": "address"
        }
      ],
      "stateMutability": "nonpayable",
      "type": "constructor"
    },
    {
      "anonymous": false,
      "inputs": [
        {
          "indexed": true,
          "internalType": "uint256",
          "name": "itemId",
          "type": "uint256"
        },
        {
          "indexed": true,
          "internalType": "address",
          "name": "nftContract",
          "type": "address"
        },
        {
          "indexed": true,
          "internalType": "uint256",
          "name": "tokenId",
          "type": "uint256"
        },
        {
          "indexed": false,
          "internalType": "address",
          "name": "seller",
          "type": "address"
        },
        {
          "indexed": false,
          "internalType": "address",
          "name": "fractionalContract",
          "type": "address"
        },
        {
          "indexed": false,
          "internalType": "uint256",
          "name": "shardId",
          "type": "uint256"
        },
        {
          "indexed": false,
          "internalType": "uint256",
          "name": "supplyMinted",
          "type": "uint256"
        },
        {
          "indexed": false,
          "internalType": "uint256",
          "name": "supplyRemaining",
          "type": "uint256"
        },
        {
          "indexed": false,
          "internalType": "bool",
          "name": "isMultiToken",
          "type": "bool"
        }
      ],
      "name": "FractionalTokenCreated",
      "type": "event"
    },
    {
      "anonymous": false,
      "inputs": [
        {
          "indexed": true,
          "internalType": "uint256",
          "name": "itemId",
          "type": "uint256"
        },
        {
          "indexed": true,
          "internalType": "address",
          "name": "nftContract",
          "type": "address"
        },
        {
          "indexed": true,
          "internalType": "uint256",
          "name": "tokenId",
          "type": "uint256"
        },
        {
          "indexed": false,
          "internalType": "address",
          "name": "seller",
          "type": "address"
        },
        {
          "indexed": false,
          "internalType": "uint256",
          "name": "price",
          "type": "uint256"
        },
        {
          "indexed": false,
          "internalType": "uint256",
          "name": "amount",
          "type": "uint256"
        },
        {
          "indexed": false,
          "internalType": "uint256",
          "name": "auctionTime",
          "type": "uint256"
        },
        {
          "indexed": false,
          "internalType": "bool",
          "name": "isMultiToken",
          "type": "bool"
        },
        {
          "indexed": false,
          "internalType": "bool",
          "name": "isFrac",
          "type": "bool"
        }
      ],
      "name": "MarketItemCreated",
      "type": "event"
    },
    {
      "anonymous": false,
      "inputs": [
        {
          "indexed": true,
          "internalType": "uint256",
          "name": "itemId",
          "type": "uint256"
        },
        {
          "indexed": true,
          "internalType": "address",
          "name": "nftContract",
          "type": "address"
        },
        {
          "indexed": true,
          "internalType": "uint256",
          "name": "tokenId",
          "type": "uint256"
        },
        {
          "indexed": false,
          "internalType": "address",
          "name": "seller",
          "type": "address"
        },
        {
          "indexed": false,
          "internalType": "address",
          "name": "owner",
          "type": "address"
        },
        {
          "indexed": false,
          "internalType": "uint256",
          "name": "price",
          "type": "uint256"
        },
        {
          "indexed": false,
          "internalType": "bool",
          "name": "sold",
          "type": "bool"
        }
      ],
      "name": "MarketItemSold",
      "type": "event"
    },
    {
      "inputs": [
        {
          "internalType": "uint256",
          "name": "",
          "type": "uint256"
        }
      ],
      "name": "ngoArray",
      "outputs": [
        {
          "internalType": "uint256",
          "name": "id",
          "type": "uint256"
        },
        {
          "internalType": "string",
          "name": "name",
          "type": "string"
        },
        {
          "internalType": "address",
          "name": "charityAddress",
          "type": "address"
        }
      ],
      "stateMutability": "view",
      "type": "function"
    },
    {
      "inputs": [
        {
          "internalType": "address",
          "name": "",
          "type": "address"
        },
        {
          "internalType": "address",
          "name": "",
          "type": "address"
        },
        {
          "internalType": "uint256[]",
          "name": "",
          "type": "uint256[]"
        },
        {
          "internalType": "uint256[]",
          "name": "",
          "type": "uint256[]"
        },
        {
          "internalType": "bytes",
          "name": "",
          "type": "bytes"
        }
      ],
      "name": "onERC1155BatchReceived",
      "outputs": [
        {
          "internalType": "bytes4",
          "name": "",
          "type": "bytes4"
        }
      ],
      "stateMutability": "nonpayable",
      "type": "function"
    },
    {
      "inputs": [
        {
          "internalType": "address",
          "name": "",
          "type": "address"
        },
        {
          "internalType": "address",
          "name": "",
          "type": "address"
        },
        {
          "internalType": "uint256",
          "name": "",
          "type": "uint256"
        },
        {
          "internalType": "uint256",
          "name": "",
          "type": "uint256"
        },
        {
          "internalType": "bytes",
          "name": "",
          "type": "bytes"
        }
      ],
      "name": "onERC1155Received",
      "outputs": [
        {
          "internalType": "bytes4",
          "name": "",
          "type": "bytes4"
        }
      ],
      "stateMutability": "nonpayable",
      "type": "function"
    },
    {
      "inputs": [
        {
          "internalType": "address",
          "name": "",
          "type": "address"
        },
        {
          "internalType": "address",
          "name": "",
          "type": "address"
        },
        {
          "internalType": "uint256",
          "name": "",
          "type": "uint256"
        },
        {
          "internalType": "bytes",
          "name": "",
          "type": "bytes"
        }
      ],
      "name": "onERC721Received",
      "outputs": [
        {
          "internalType": "bytes4",
          "name": "",
          "type": "bytes4"
        }
      ],
      "stateMutability": "nonpayable",
      "type": "function"
    },
    {
      "inputs": [
        {
          "internalType": "bytes4",
          "name": "interfaceId",
          "type": "bytes4"
        }
      ],
      "name": "supportsInterface",
      "outputs": [
        {
          "internalType": "bool",
          "name": "",
          "type": "bool"
        }
      ],
      "stateMutability": "view",
      "type": "function"
    },
    {
      "inputs": [
        {
          "internalType": "address",
          "name": "charityAddress",
          "type": "address"
        },
        {
          "internalType": "string",
          "name": "name",
          "type": "string"
        }
      ],
      "name": "addCharity",
      "outputs": [],
      "stateMutability": "nonpayable",
      "type": "function"
    },
    {
      "inputs": [
        {
          "internalType": "uint256",
          "name": "_id",
          "type": "uint256"
        }
      ],
      "name": "getCharityInfo",
      "outputs": [
        {
          "components": [
            {
              "internalType": "uint256",
              "name": "id",
              "type": "uint256"
            },
            {
              "internalType": "string",
              "name": "name",
              "type": "string"
            },
            {
              "internalType": "address",
              "name": "charityAddress",
              "type": "address"
            }
          ],
          "internalType": "struct ACHouse.NGO",
          "name": "",
          "type": "tuple"
        }
      ],
      "stateMutability": "view",
      "type": "function"
    },
    {
      "inputs": [
        {
          "internalType": "address",
          "name": "nftContract",
          "type": "address"
        },
        {
          "internalType": "uint256",
          "name": "tokenId",
          "type": "uint256"
        },
        {
          "internalType": "uint256",
          "name": "price",
          "type": "uint256"
        },
        {
          "internalType": "uint256",
          "name": "amount",
          "type": "uint256"
        },
        {
          "internalType": "uint256",
          "name": "_charityId",
          "type": "uint256"
        },
        {
          "internalType": "uint256",
          "name": "auctionTime",
          "type": "uint256"
        },
        {
          "internalType": "bool",
          "name": "isFrac",
          "type": "bool"
        }
      ],
      "name": "create1155MarketItem",
      "outputs": [
        {
          "internalType": "uint256",
          "name": "",
          "type": "uint256"
        }
      ],
      "stateMutability": "payable",
      "type": "function"
    },
    {
      "inputs": [
        {
          "internalType": "address",
          "name": "nftContract",
          "type": "address"
        },
        {
          "internalType": "uint256",
          "name": "tokenId",
          "type": "uint256"
        },
        {
          "internalType": "uint256",
          "name": "price",
          "type": "uint256"
        },
        {
          "internalType": "uint256",
          "name": "_charityId",
          "type": "uint256"
        },
        {
          "internalType": "uint256",
          "name": "auctionTime",
          "type": "uint256"
        },
        {
          "internalType": "bool",
          "name": "isFrac",
          "type": "bool"
        }
      ],
      "name": "create721MarketItem",
      "outputs": [
        {
          "internalType": "uint256",
          "name": "",
          "type": "uint256"
        }
      ],
      "stateMutability": "payable",
      "type": "function"
    },
    {
      "inputs": [
        {
          "internalType": "uint256",
          "name": "itemId",
          "type": "uint256"
        }
      ],
      "name": "removeMarketPlaceItem",
      "outputs": [],
      "stateMutability": "nonpayable",
      "type": "function"
    },
    {
      "inputs": [
        {
          "internalType": "uint256",
          "name": "itemId",
          "type": "uint256"
        }
      ],
      "name": "addMarketPlaceItem",
      "outputs": [],
      "stateMutability": "nonpayable",
      "type": "function"
    },
    {
      "inputs": [
        {
          "internalType": "address",
          "name": "nftContract",
          "type": "address"
        },
        {
          "internalType": "uint256",
          "name": "itemId",
          "type": "uint256"
        }
      ],
      "name": "createMarketSale",
      "outputs": [],
      "stateMutability": "payable",
      "type": "function"
    },
    {
      "inputs": [
        {
          "internalType": "uint256",
          "name": "_id",
          "type": "uint256"
        }
      ],
      "name": "fetchMarketItem",
      "outputs": [
        {
          "components": [
            {
              "internalType": "uint256",
              "name": "itemId",
              "type": "uint256"
            },
            {
              "internalType": "address",
              "name": "nftContract",
              "type": "address"
            },
            {
              "internalType": "uint256",
              "name": "tokenId",
              "type": "uint256"
            },
            {
              "internalType": "address payable",
              "name": "seller",
              "type": "address"
            },
            {
              "internalType": "address payable",
              "name": "owner",
              "type": "address"
            },
            {
              "internalType": "uint256",
              "name": "price",
              "type": "uint256"
            },
            {
              "internalType": "uint256",
              "name": "amount",
              "type": "uint256"
            },
            {
              "internalType": "uint256",
              "name": "charityId",
              "type": "uint256"
            },
            {
              "internalType": "uint256",
              "name": "auctionTime",
              "type": "uint256"
            },
            {
              "internalType": "bool",
              "name": "sold",
              "type": "bool"
            },
            {
              "internalType": "bool",
              "name": "isMultiToken",
              "type": "bool"
            },
            {
              "internalType": "bool",
              "name": "isRemoved",
              "type": "bool"
            },
            {
              "internalType": "bool",
              "name": "isFrac",
              "type": "bool"
            }
          ],
          "internalType": "struct ACHouse.MarketItem",
          "name": "",
          "type": "tuple"
        }
      ],
      "stateMutability": "view",
      "type": "function"
    },
    {
      "inputs": [],
      "name": "getUnSoldMarketItems",
      "outputs": [
        {
          "components": [
            {
              "internalType": "uint256",
              "name": "itemId",
              "type": "uint256"
            },
            {
              "internalType": "address",
              "name": "nftContract",
              "type": "address"
            },
            {
              "internalType": "uint256",
              "name": "tokenId",
              "type": "uint256"
            },
            {
              "internalType": "address payable",
              "name": "seller",
              "type": "address"
            },
            {
              "internalType": "address payable",
              "name": "owner",
              "type": "address"
            },
            {
              "internalType": "uint256",
              "name": "price",
              "type": "uint256"
            },
            {
              "internalType": "uint256",
              "name": "amount",
              "type": "uint256"
            },
            {
              "internalType": "uint256",
              "name": "charityId",
              "type": "uint256"
            },
            {
              "internalType": "uint256",
              "name": "auctionTime",
              "type": "uint256"
            },
            {
              "internalType": "bool",
              "name": "sold",
              "type": "bool"
            },
            {
              "internalType": "bool",
              "name": "isMultiToken",
              "type": "bool"
            },
            {
              "internalType": "bool",
              "name": "isRemoved",
              "type": "bool"
            },
            {
              "internalType": "bool",
              "name": "isFrac",
              "type": "bool"
            }
          ],
          "internalType": "struct ACHouse.MarketItem[]",
          "name": "",
          "type": "tuple[]"
        }
      ],
      "stateMutability": "view",
      "type": "function"
    },
    {
      "inputs": [],
      "name": "fetchMyNFTs",
      "outputs": [
        {
          "components": [
            {
              "internalType": "uint256",
              "name": "itemId",
              "type": "uint256"
            },
            {
              "internalType": "address",
              "name": "nftContract",
              "type": "address"
            },
            {
              "internalType": "uint256",
              "name": "tokenId",
              "type": "uint256"
            },
            {
              "internalType": "address payable",
              "name": "seller",
              "type": "address"
            },
            {
              "internalType": "address payable",
              "name": "owner",
              "type": "address"
            },
            {
              "internalType": "uint256",
              "name": "price",
              "type": "uint256"
            },
            {
              "internalType": "uint256",
              "name": "amount",
              "type": "uint256"
            },
            {
              "internalType": "uint256",
              "name": "charityId",
              "type": "uint256"
            },
            {
              "internalType": "uint256",
              "name": "auctionTime",
              "type": "uint256"
            },
            {
              "internalType": "bool",
              "name": "sold",
              "type": "bool"
            },
            {
              "internalType": "bool",
              "name": "isMultiToken",
              "type": "bool"
            },
            {
              "internalType": "bool",
              "name": "isRemoved",
              "type": "bool"
            },
            {
              "internalType": "bool",
              "name": "isFrac",
              "type": "bool"
            }
          ],
          "internalType": "struct ACHouse.MarketItem[]",
          "name": "",
          "type": "tuple[]"
        }
      ],
      "stateMutability": "view",
      "type": "function"
    },
    {
      "inputs": [],
      "name": "fetchItemsCreated",
      "outputs": [
        {
          "components": [
            {
              "internalType": "uint256",
              "name": "itemId",
              "type": "uint256"
            },
            {
              "internalType": "address",
              "name": "nftContract",
              "type": "address"
            },
            {
              "internalType": "uint256",
              "name": "tokenId",
              "type": "uint256"
            },
            {
              "internalType": "address payable",
              "name": "seller",
              "type": "address"
            },
            {
              "internalType": "address payable",
              "name": "owner",
              "type": "address"
            },
            {
              "internalType": "uint256",
              "name": "price",
              "type": "uint256"
            },
            {
              "internalType": "uint256",
              "name": "amount",
              "type": "uint256"
            },
            {
              "internalType": "uint256",
              "name": "charityId",
              "type": "uint256"
            },
            {
              "internalType": "uint256",
              "name": "auctionTime",
              "type": "uint256"
            },
            {
              "internalType": "bool",
              "name": "sold",
              "type": "bool"
            },
            {
              "internalType": "bool",
              "name": "isMultiToken",
              "type": "bool"
            },
            {
              "internalType": "bool",
              "name": "isRemoved",
              "type": "bool"
            },
            {
              "internalType": "bool",
              "name": "isFrac",
              "type": "bool"
            }
          ],
          "internalType": "struct ACHouse.MarketItem[]",
          "name": "",
          "type": "tuple[]"
        }
      ],
      "stateMutability": "view",
      "type": "function"
    },
    {
      "inputs": [],
      "name": "fetchUserSoldCount",
      "outputs": [
        {
          "internalType": "uint256",
          "name": "",
          "type": "uint256"
        }
      ],
      "stateMutability": "view",
      "type": "function"
    },
    {
      "inputs": [],
      "name": "fetchUserPurchasedCount",
      "outputs": [
        {
          "internalType": "uint256",
          "name": "",
          "type": "uint256"
        }
      ],
      "stateMutability": "view",
      "type": "function"
    },
    {
      "inputs": [
        {
          "internalType": "string",
          "name": "_name",
          "type": "string"
        },
        {
          "internalType": "uint256",
          "name": "_userType",
          "type": "uint256"
        }
      ],
      "name": "register",
      "outputs": [
        {
          "internalType": "bool",
          "name": "",
          "type": "bool"
        }
      ],
      "stateMutability": "nonpayable",
      "type": "function"
    },
    {
      "inputs": [
        {
          "internalType": "string",
          "name": "_uri",
          "type": "string"
        }
      ],
      "name": "setURI1155",
      "outputs": [],
      "stateMutability": "nonpayable",
      "type": "function"
    },
    {
      "inputs": [
        {
          "internalType": "uint256",
          "name": "_tokenId",
          "type": "uint256"
        }
      ],
      "name": "getTokenURI",
      "outputs": [
        {
          "internalType": "string",
          "name": "",
          "type": "string"
        }
      ],
      "stateMutability": "view",
      "type": "function"
    },
    {
      "inputs": [
        {
          "internalType": "uint256",
          "name": "_id",
          "type": "uint256"
        },
        {
          "internalType": "uint256",
          "name": "_amount",
          "type": "uint256"
        }
      ],
      "name": "createNFT1155",
      "outputs": [],
      "stateMutability": "nonpayable",
      "type": "function"
    },
    {
      "inputs": [],
      "name": "getTokenCount",
      "outputs": [
        {
          "internalType": "uint256",
          "name": "",
          "type": "uint256"
        }
      ],
      "stateMutability": "view",
      "type": "function"
    },
    {
      "inputs": [],
      "name": "getTokenIds",
      "outputs": [
        {
          "internalType": "uint256[]",
          "name": "",
          "type": "uint256[]"
        }
      ],
      "stateMutability": "view",
      "type": "function"
    },
    {
      "inputs": [
        {
          "internalType": "uint256",
          "name": "_tokenId",
          "type": "uint256"
        }
      ],
      "name": "getTokenSupply",
      "outputs": [
        {
          "internalType": "uint256",
          "name": "",
          "type": "uint256"
        }
      ],
      "stateMutability": "view",
      "type": "function"
    },
    {
      "inputs": [
        {
          "internalType": "address",
          "name": "nftContract",
          "type": "address"
        },
        {
          "internalType": "uint256",
          "name": "tokenId",
          "type": "uint256"
        },
        {
          "internalType": "uint256",
          "name": "shardId",
          "type": "uint256"
        },
        {
          "internalType": "uint256",
          "name": "supplyToCreate",
          "type": "uint256"
        },
        {
          "internalType": "string",
          "name": "uri",
          "type": "string"
        }
      ],
      "name": "fractionalize1155NFT",
      "outputs": [
        {
          "internalType": "uint256",
          "name": "",
          "type": "uint256"
        }
      ],
      "stateMutability": "nonpayable",
      "type": "function"
    },
    {
      "inputs": [
        {
          "internalType": "address",
          "name": "nftContract",
          "type": "address"
        },
        {
          "internalType": "uint256",
          "name": "tokenId",
          "type": "uint256"
        },
        {
          "internalType": "uint256",
          "name": "shardId",
          "type": "uint256"
        },
        {
          "internalType": "uint256",
          "name": "supplyToCreate",
          "type": "uint256"
        },
        {
          "internalType": "string",
          "name": "uri",
          "type": "string"
        }
      ],
      "name": "fractionalize721NFT",
      "outputs": [
        {
          "internalType": "uint256",
          "name": "",
          "type": "uint256"
        }
      ],
      "stateMutability": "nonpayable",
      "type": "function"
    },
    {
      "inputs": [
        {
          "internalType": "uint256",
          "name": "_fracId",
          "type": "uint256"
        }
      ],
      "name": "getFractionalInformation",
      "outputs": [
        {
          "components": [
            {
              "internalType": "uint256",
              "name": "itemId",
              "type": "uint256"
            },
            {
              "internalType": "address",
              "name": "nftContract",
              "type": "address"
            },
            {
              "internalType": "uint256",
              "name": "tokenId",
              "type": "uint256"
            },
            {
              "internalType": "address payable",
              "name": "seller",
              "type": "address"
            },
            {
              "internalType": "address payable",
              "name": "owner",
              "type": "address"
            },
            {
              "internalType": "address",
              "name": "fractionalContract",
              "type": "address"
            },
            {
              "internalType": "uint256",
              "name": "shardId",
              "type": "uint256"
            },
            {
              "internalType": "uint256",
              "name": "supplyMinted",
              "type": "uint256"
            },
            {
              "internalType": "uint256",
              "name": "supplyRemaining",
              "type": "uint256"
            },
            {
              "internalType": "bool",
              "name": "isMultiToken",
              "type": "bool"
            }
          ],
          "internalType": "struct ACHouse.FractionalizeToken",
          "name": "",
          "type": "tuple"
        }
      ],
      "stateMutability": "view",
      "type": "function"
    },
    {
      "inputs": [
        {
          "internalType": "uint256",
          "name": "_id",
          "type": "uint256"
        },
        {
          "internalType": "string",
          "name": "uri",
          "type": "string"
        },
        {
          "internalType": "string",
          "name": "name",
          "type": "string"
        },
        {
          "internalType": "string",
          "name": "symbol",
          "type": "string"
        }
      ],
      "name": "createNFT721",
      "outputs": [],
      "stateMutability": "nonpayable",
      "type": "function"
    },
    {
      "inputs": [],
      "name": "get721TokenCount",
      "outputs": [
        {
          "internalType": "uint256",
          "name": "",
          "type": "uint256"
        }
      ],
      "stateMutability": "view",
      "type": "function"
    },
    {
      "inputs": [],
      "name": "get721TokenIds",
      "outputs": [
        {
          "internalType": "uint256[]",
          "name": "",
          "type": "uint256[]"
        }
      ],
      "stateMutability": "view",
      "type": "function"
    },
    {
      "inputs": [
        {
          "internalType": "uint256",
          "name": "_id",
          "type": "uint256"
        }
      ],
      "name": "get721TokenName",
      "outputs": [
        {
          "internalType": "string",
          "name": "",
          "type": "string"
        }
      ],
      "stateMutability": "view",
      "type": "function"
    },
    {
      "inputs": [
        {
          "internalType": "uint256",
          "name": "_id",
          "type": "uint256"
        }
      ],
      "name": "get721TokenSymbol",
      "outputs": [
        {
          "internalType": "string",
          "name": "",
          "type": "string"
        }
      ],
      "stateMutability": "view",
      "type": "function"
    },
    {
      "inputs": [
        {
          "internalType": "uint256",
          "name": "_id",
          "type": "uint256"
        }
      ],
      "name": "get721TokenURI",
      "outputs": [
        {
          "internalType": "string",
          "name": "",
          "type": "string"
        }
      ],
      "stateMutability": "view",
      "type": "function"
    },
    {
      "inputs": [
        {
          "internalType": "uint256",
          "name": "v",
          "type": "uint256"
        }
      ],
      "name": "uint2str",
      "outputs": [
        {
          "internalType": "string",
          "name": "",
          "type": "string"
        }
      ],
      "stateMutability": "pure",
      "type": "function"
    }
  ],
  "bytecode": "0x608060405260006009556000600a556000600b556000600c553480156200002557600080fd5b50604051620062e6380380620062e683398181016040528101906200004b919062000257565b600160008190555081600660006101000a81548173ffffffffffffffffffffffffffffffffffffffff021916908373ffffffffffffffffffffffffffffffffffffffff16021790555080600760006101000a81548173ffffffffffffffffffffffffffffffffffffffff021916908373ffffffffffffffffffffffffffffffffffffffff160217905550600660009054906101000a900473ffffffffffffffffffffffffffffffffffffffff1673ffffffffffffffffffffffffffffffffffffffff1663fa5afe40306040518263ffffffff1660e01b8152600401620001329190620002a9565b600060405180830381600087803b1580156200014d57600080fd5b505af115801562000162573d6000803e3d6000fd5b50505050600760009054906101000a900473ffffffffffffffffffffffffffffffffffffffff1673ffffffffffffffffffffffffffffffffffffffff1663fa5afe40306040518263ffffffff1660e01b8152600401620001c39190620002a9565b600060405180830381600087803b158015620001de57600080fd5b505af1158015620001f3573d6000803e3d6000fd5b5050505033600560006101000a81548173ffffffffffffffffffffffffffffffffffffffff021916908373ffffffffffffffffffffffffffffffffffffffff160217905550505062000314565b6000815190506200025181620002fa565b92915050565b600080604083850312156200026b57600080fd5b60006200027b8582860162000240565b92505060206200028e8582860162000240565b9150509250929050565b620002a381620002c6565b82525050565b6000602082019050620002c0600083018462000298565b92915050565b6000620002d382620002da565b9050919050565b600073ffffffffffffffffffffffffffffffffffffffff82169050919050565b6200030581620002c6565b81146200031157600080fd5b50565b615fc280620003246000396000f3fe6080604052600436106102045760003560e01c806378a8956711610118578063c23b139e116100a0578063e95fcc4c1161006f578063e95fcc4c146107ee578063ea87152b1461082b578063f064c32e14610868578063f23a6e6114610893578063f76f950e146108d057610204565b8063c23b139e14610753578063d4b9cc431461076f578063dbcd674e1461079a578063dce9fc11146107c557610204565b80639c79afb3116100e75780639c79afb3146106345780639ca7aac714610673578063ad3ec90c146106b0578063af8e6c39146106ed578063bc197c811461071657610204565b806378a895671461058a57806383356497146105b5578063953e8267146105de5780639b3c8b1a1461060957610204565b80633bb3a24d1161019b5780635490b3561161016a5780635490b3561461048c57806367f718a9146104c95780636b3ed26f146104f45780636b4d95331461053157806372f7bec81461056157610204565b80633bb3a24d146103b95780633e52a165146103f657806343404be11461041f5780634f31d0d81461045c57610204565b8063202e3740116101d7578063202e3740146102e957806325762e57146103145780632a45b250146103515780632f7179f61461038e57610204565b806301ffc9a714610209578063145eca8c14610246578063150b7a021461026f57806319b88edb146102ac575b600080fd5b34801561021557600080fd5b50610230600480360381019061022b9190614c63565b61090d565b60405161023d91906157a3565b60405180910390f35b34801561025257600080fd5b5061026d60048036038101906102689190614d62565b610987565b005b34801561027b57600080fd5b50610296600480360381019061029191906148d2565b6109b9565b6040516102a391906157be565b60405180910390f35b3480156102b857600080fd5b506102d360048036038101906102ce9190614d62565b6109cd565b6040516102e091906158d5565b60405180910390f35b3480156102f557600080fd5b506102fe610a81565b60405161030b919061575f565b60405180910390f35b34801561032057600080fd5b5061033b60048036038101906103369190614d62565b610e09565b60405161034891906157d9565b60405180910390f35b34801561035d57600080fd5b5061037860048036038101906103739190614d62565b610ec2565b6040516103859190615897565b60405180910390f35b34801561039a57600080fd5b506103a361109a565b6040516103b0919061575f565b60405180910390f35b3480156103c557600080fd5b506103e060048036038101906103db9190614d62565b61145f565b6040516103ed91906157d9565b60405180910390f35b34801561040257600080fd5b5061041d60048036038101906104189190614d62565b611518565b005b34801561042b57600080fd5b5061044660048036038101906104419190614d62565b61154a565b60405161045391906158b3565b60405180910390f35b61047660048036038101906104719190614b84565b611669565b60405161048391906158d5565b60405180910390f35b34801561049857600080fd5b506104b360048036038101906104ae9190614a6c565b611b5d565b6040516104c091906158d5565b60405180910390f35b3480156104d557600080fd5b506104de611f5d565b6040516104eb9190615781565b60405180910390f35b34801561050057600080fd5b5061051b60048036038101906105169190614d62565b612009565b60405161052891906157d9565b60405180910390f35b61054b60048036038101906105469190614afb565b6120c2565b60405161055891906158d5565b60405180910390f35b34801561056d57600080fd5b50610588600480360381019061058391906149dc565b61255f565b005b34801561059657600080fd5b5061059f612637565b6040516105ac91906158d5565b60405180910390f35b3480156105c157600080fd5b506105dc60048036038101906105d79190614db4565b6126de565b005b3480156105ea57600080fd5b506105f3612779565b6040516106009190615781565b60405180910390f35b34801561061557600080fd5b5061061e612825565b60405161062b91906158d5565b60405180910390f35b34801561064057600080fd5b5061065b60048036038101906106569190614d62565b61286c565b60405161066a939291906158f0565b60405180910390f35b34801561067f57600080fd5b5061069a60048036038101906106959190614d62565b61294e565b6040516106a791906157d9565b60405180910390f35b3480156106bc57600080fd5b506106d760048036038101906106d29190614a6c565b612a07565b6040516106e491906158d5565b60405180910390f35b3480156106f957600080fd5b50610714600480360381019061070f9190614c8c565b612e04565b005b34801561072257600080fd5b5061073d60048036038101906107389190614813565b612e94565b60405161074a91906157be565b60405180910390f35b61076d60048036038101906107689190614a30565b612ea9565b005b34801561077b57600080fd5b506107846136d0565b60405161079191906158d5565b60405180910390f35b3480156107a657600080fd5b506107af613717565b6040516107bc91906158d5565b60405180910390f35b3480156107d157600080fd5b506107ec60048036038101906107e79190614e5f565b6137be565b005b3480156107fa57600080fd5b5061081560048036038101906108109190614d62565b613853565b604051610822919061587b565b60405180910390f35b34801561083757600080fd5b50610852600480360381019061084d9190614d0e565b613a2c565b60405161085f91906157a3565b60405180910390f35b34801561087457600080fd5b5061087d613ce1565b60405161088a919061575f565b60405180910390f35b34801561089f57600080fd5b506108ba60048036038101906108b5919061494d565b613ea9565b6040516108c791906157be565b60405180910390f35b3480156108dc57600080fd5b506108f760048036038101906108f29190614d62565b613ebe565b60405161090491906157d9565b60405180910390f35b60007f4e2312e0000000000000000000000000000000000000000000000000000000007bffffffffffffffffffffffffffffffffffffffffffffffffffffffff1916827bffffffffffffffffffffffffffffffffffffffffffffffffffffffff19161480610980575061097f826141a4565b5b9050919050565b60016014600083815260200190815260200160002060090160026101000a81548160ff02191690831515021790555050565b600063150b7a0260e01b9050949350505050565b6000600660009054906101000a900473ffffffffffffffffffffffffffffffffffffffff1673ffffffffffffffffffffffffffffffffffffffff166397492c1c836040518263ffffffff1660e01b8152600401610a2a91906158d5565b60206040518083038186803b158015610a4257600080fd5b505afa158015610a56573d6000803e3d6000fd5b505050506040513d601f19601f82011682018060405250810190610a7a9190614d8b565b9050919050565b60606000601960003373ffffffffffffffffffffffffffffffffffffffff1673ffffffffffffffffffffffffffffffffffffffff168152602001908152602001600020805480602002602001604051908101604052809291908181526020018280548015610b0e57602002820191906000526020600020905b815481526020019060010190808311610afa575b505050505090506000815167ffffffffffffffff811115610b58577f4e487b7100000000000000000000000000000000000000000000000000000000600052604160045260246000fd5b604051908082528060200260200182016040528015610b9157816020015b610b7e61430d565b815260200190600190039081610b765790505b50905060005b8251811015610e005760146000848381518110610bdd577f4e487b7100000000000000000000000000000000000000000000000000000000600052603260045260246000fd5b60200260200101518152602001908152602001600020604051806101a0016040529081600082015481526020016001820160009054906101000a900473ffffffffffffffffffffffffffffffffffffffff1673ffffffffffffffffffffffffffffffffffffffff1673ffffffffffffffffffffffffffffffffffffffff168152602001600282015481526020016003820160009054906101000a900473ffffffffffffffffffffffffffffffffffffffff1673ffffffffffffffffffffffffffffffffffffffff1673ffffffffffffffffffffffffffffffffffffffff1681526020016004820160009054906101000a900473ffffffffffffffffffffffffffffffffffffffff1673ffffffffffffffffffffffffffffffffffffffff1673ffffffffffffffffffffffffffffffffffffffff168152602001600582015481526020016006820154815260200160078201548152602001600882015481526020016009820160009054906101000a900460ff161515151581526020016009820160019054906101000a900460ff161515151581526020016009820160029054906101000a900460ff161515151581526020016009820160039054906101000a900460ff161515151581525050828281518110610de2577f4e487b7100000000000000000000000000000000000000000000000000000000600052603260045260246000fd5b60200260200101819052508080610df890615ccc565b915050610b97565b50809250505090565b6060600760009054906101000a900473ffffffffffffffffffffffffffffffffffffffff1673ffffffffffffffffffffffffffffffffffffffff16638ad91345836040518263ffffffff1660e01b8152600401610e6691906158d5565b60006040518083038186803b158015610e7e57600080fd5b505afa158015610e92573d6000803e3d6000fd5b505050506040513d6000823e3d601f19601f82011682018060405250810190610ebb9190614ccd565b9050919050565b610eca61430d565b60146000838152602001908152602001600020604051806101a0016040529081600082015481526020016001820160009054906101000a900473ffffffffffffffffffffffffffffffffffffffff1673ffffffffffffffffffffffffffffffffffffffff1673ffffffffffffffffffffffffffffffffffffffff168152602001600282015481526020016003820160009054906101000a900473ffffffffffffffffffffffffffffffffffffffff1673ffffffffffffffffffffffffffffffffffffffff1673ffffffffffffffffffffffffffffffffffffffff1681526020016004820160009054906101000a900473ffffffffffffffffffffffffffffffffffffffff1673ffffffffffffffffffffffffffffffffffffffff1673ffffffffffffffffffffffffffffffffffffffff168152602001600582015481526020016006820154815260200160078201548152602001600882015481526020016009820160009054906101000a900460ff161515151581526020016009820160019054906101000a900460ff161515151581526020016009820160029054906101000a900460ff161515151581526020016009820160039054906101000a900460ff1615151515815250509050919050565b606060006110a8600261420e565b6110b2600161420e565b6110bc9190615b18565b905060008167ffffffffffffffff811115611100577f4e487b7100000000000000000000000000000000000000000000000000000000600052604160045260246000fd5b60405190808252806020026020018201604052801561113957816020015b61112661430d565b81526020019060019003908161111e5790505b509050600080611149600161420e565b905060005b8181101561145457600073ffffffffffffffffffffffffffffffffffffffff166014600060018461117f9190615a91565b815260200190815260200160002060040160009054906101000a900473ffffffffffffffffffffffffffffffffffffffff1673ffffffffffffffffffffffffffffffffffffffff16148015611207575060001515601460006001846111e49190615a91565b815260200190815260200160002060090160029054906101000a900460ff161515145b1561144157600060018261121b9190615a91565b9050600060146000838152602001908152602001600020604051806101a0016040529081600082015481526020016001820160009054906101000a900473ffffffffffffffffffffffffffffffffffffffff1673ffffffffffffffffffffffffffffffffffffffff1673ffffffffffffffffffffffffffffffffffffffff168152602001600282015481526020016003820160009054906101000a900473ffffffffffffffffffffffffffffffffffffffff1673ffffffffffffffffffffffffffffffffffffffff1673ffffffffffffffffffffffffffffffffffffffff1681526020016004820160009054906101000a900473ffffffffffffffffffffffffffffffffffffffff1673ffffffffffffffffffffffffffffffffffffffff1673ffffffffffffffffffffffffffffffffffffffff168152602001600582015481526020016006820154815260200160078201548152602001600882015481526020016009820160009054906101000a900460ff161515151581526020016009820160019054906101000a900460ff161515151581526020016009820160029054906101000a900460ff161515151581526020016009820160039054906101000a900460ff161515151581525050905080868681518110611424577f4e487b7100000000000000000000000000000000000000000000000000000000600052603260045260246000fd5b602002602001018190525060018561143c9190615a91565b945050505b808061144c90615ccc565b91505061114e565b508294505050505090565b6060600660009054906101000a900473ffffffffffffffffffffffffffffffffffffffff1673ffffffffffffffffffffffffffffffffffffffff16633bb3a24d836040518263ffffffff1660e01b81526004016114bc91906158d5565b60006040518083038186803b1580156114d457600080fd5b505afa1580156114e8573d6000803e3d6000fd5b505050506040513d6000823e3d601f19601f820116820180604052508101906115119190614ccd565b9050919050565b60006014600083815260200190815260200160002060090160026101000a81548160ff02191690831515021790555050565b6115526143bf565b601260008381526020019081526020016000206040518060600160405290816000820154815260200160018201805461158a90615c69565b80601f01602080910402602001604051908101604052809291908181526020018280546115b690615c69565b80156116035780601f106115d857610100808354040283529160200191611603565b820191906000526020600020905b8154815290600101906020018083116115e657829003601f168201915b505050505081526020016002820160009054906101000a900473ffffffffffffffffffffffffffffffffffffffff1673ffffffffffffffffffffffffffffffffffffffff1673ffffffffffffffffffffffffffffffffffffffff16815250509050919050565b6000600260005414156116b1576040517f08c379a00000000000000000000000000000000000000000000000000000000081526004016116a89061581b565b60405180910390fd5b6002600081905550600086116116fc576040517f08c379a00000000000000000000000000000000000000000000000000000000081526004016116f39061583b565b60405180910390fd5b611706600161421c565b6000611712600161420e565b90506000604051806101a001604052808381526020018b73ffffffffffffffffffffffffffffffffffffffff1681526020018a81526020013373ffffffffffffffffffffffffffffffffffffffff168152602001600073ffffffffffffffffffffffffffffffffffffffff168152602001670de0b6b3a76400008a6117979190615ae7565b8152602001888152602001878152602001868152602001600015158152602001600115158152602001600015158152602001851515815250905080601460008481526020019081526020016000206000820151816000015560208201518160010160006101000a81548173ffffffffffffffffffffffffffffffffffffffff021916908373ffffffffffffffffffffffffffffffffffffffff1602179055506040820151816002015560608201518160030160006101000a81548173ffffffffffffffffffffffffffffffffffffffff021916908373ffffffffffffffffffffffffffffffffffffffff16021790555060808201518160040160006101000a81548173ffffffffffffffffffffffffffffffffffffffff021916908373ffffffffffffffffffffffffffffffffffffffff16021790555060a0820151816005015560c0820151816006015560e0820151816007015561010082015181600801556101208201518160090160006101000a81548160ff0219169083151502179055506101408201518160090160016101000a81548160ff0219169083151502179055506101608201518160090160026101000a81548160ff0219169083151502179055506101808201518160090160036101000a81548160ff0219169083151502179055509050506000601660003373ffffffffffffffffffffffffffffffffffffffff1673ffffffffffffffffffffffffffffffffffffffff16815260200190815260200160002054905080806119cd90615ccc565b9150601660003373ffffffffffffffffffffffffffffffffffffffff1673ffffffffffffffffffffffffffffffffffffffff16815260200190815260200160002081905550601560003373ffffffffffffffffffffffffffffffffffffffff1673ffffffffffffffffffffffffffffffffffffffff1681526020019081526020016000208390806001815401808255809150506001900390600052602060002001600090919091909150558a73ffffffffffffffffffffffffffffffffffffffff1663f242432a33308d8c6040518563ffffffff1660e01b8152600401611ab79493929190615545565b600060405180830381600087803b158015611ad157600080fd5b505af1158015611ae5573d6000803e3d6000fd5b50505050898b73ffffffffffffffffffffffffffffffffffffffff16847f685d46ca5ed93322742c70905f54af782c8500414709263c63633e7f0a0d4dfd338d8d8c60018d604051611b3c969594939291906156fe565b60405180910390a48293505050506001600081905550979650505050505050565b6000611b69600361421c565b6000611b75600361420e565b905060006040518061014001604052808381526020018973ffffffffffffffffffffffffffffffffffffffff1681526020018881526020013373ffffffffffffffffffffffffffffffffffffffff168152602001600073ffffffffffffffffffffffffffffffffffffffff168152602001600660009054906101000a900473ffffffffffffffffffffffffffffffffffffffff1673ffffffffffffffffffffffffffffffffffffffff16815260200187815260200186815260200186815260200160011515815250905080601b60008481526020019081526020016000206000820151816000015560208201518160010160006101000a81548173ffffffffffffffffffffffffffffffffffffffff021916908373ffffffffffffffffffffffffffffffffffffffff1602179055506040820151816002015560608201518160030160006101000a81548173ffffffffffffffffffffffffffffffffffffffff021916908373ffffffffffffffffffffffffffffffffffffffff16021790555060808201518160040160006101000a81548173ffffffffffffffffffffffffffffffffffffffff021916908373ffffffffffffffffffffffffffffffffffffffff16021790555060a08201518160050160006101000a81548173ffffffffffffffffffffffffffffffffffffffff021916908373ffffffffffffffffffffffffffffffffffffffff16021790555060c0820151816006015560e0820151816007015561010082015181600801556101208201518160090160006101000a81548160ff0219169083151502179055509050508773ffffffffffffffffffffffffffffffffffffffff1663f242432a33308a60016040518563ffffffff1660e01b8152600401611e0694939291906154ed565b600060405180830381600087803b158015611e2057600080fd5b505af1158015611e34573d6000803e3d6000fd5b50505050611e4184612e04565b600660009054906101000a900473ffffffffffffffffffffffffffffffffffffffff1673ffffffffffffffffffffffffffffffffffffffff16635a9d10a23384886040518463ffffffff1660e01b8152600401611ea0939291906156c7565b600060405180830381600087803b158015611eba57600080fd5b505af1158015611ece573d6000803e3d6000fd5b50505050868873ffffffffffffffffffffffffffffffffffffffff16837fedbbc6bc63aa092bba302ac98ddaafe17f6714072cb4cb7caeb89e9b31f6f4ca33600660009054906101000a900473ffffffffffffffffffffffffffffffffffffffff168b8b8c6001604051611f479695949392919061559d565b60405180910390a4819250505095945050505050565b6060600660009054906101000a900473ffffffffffffffffffffffffffffffffffffffff1673ffffffffffffffffffffffffffffffffffffffff166367f718a96040518163ffffffff1660e01b815260040160006040518083038186803b158015611fc757600080fd5b505afa158015611fdb573d6000803e3d6000fd5b505050506040513d6000823e3d601f19601f820116820180604052508101906120049190614c22565b905090565b6060600760009054906101000a900473ffffffffffffffffffffffffffffffffffffffff1673ffffffffffffffffffffffffffffffffffffffff16637b78bd3f836040518263ffffffff1660e01b815260040161206691906158d5565b60006040518083038186803b15801561207e57600080fd5b505afa158015612092573d6000803e3d6000fd5b505050506040513d6000823e3d601f19601f820116820180604052508101906120bb9190614ccd565b9050919050565b60006002600054141561210a576040517f08c379a00000000000000000000000000000000000000000000000000000000081526004016121019061581b565b60405180910390fd5b600260008190555061211c600161421c565b6000612128600161420e565b90506000604051806101a001604052808381526020018a73ffffffffffffffffffffffffffffffffffffffff1681526020018981526020013373ffffffffffffffffffffffffffffffffffffffff168152602001600073ffffffffffffffffffffffffffffffffffffffff16815260200188815260200160018152602001878152602001868152602001600015158152602001600115158152602001600015158152602001851515815250905080601460008481526020019081526020016000206000820151816000015560208201518160010160006101000a81548173ffffffffffffffffffffffffffffffffffffffff021916908373ffffffffffffffffffffffffffffffffffffffff1602179055506040820151816002015560608201518160030160006101000a81548173ffffffffffffffffffffffffffffffffffffffff021916908373ffffffffffffffffffffffffffffffffffffffff16021790555060808201518160040160006101000a81548173ffffffffffffffffffffffffffffffffffffffff021916908373ffffffffffffffffffffffffffffffffffffffff16021790555060a0820151816005015560c0820151816006015560e0820151816007015561010082015181600801556101208201518160090160006101000a81548160ff0219169083151502179055506101408201518160090160016101000a81548160ff0219169083151502179055506101608201518160090160026101000a81548160ff0219169083151502179055506101808201518160090160036101000a81548160ff0219169083151502179055509050506000601660003373ffffffffffffffffffffffffffffffffffffffff1673ffffffffffffffffffffffffffffffffffffffff16815260200190815260200160002054905080806123d190615ccc565b9150601660003373ffffffffffffffffffffffffffffffffffffffff1673ffffffffffffffffffffffffffffffffffffffff16815260200190815260200160002081905550601560003373ffffffffffffffffffffffffffffffffffffffff1673ffffffffffffffffffffffffffffffffffffffff1681526020019081526020016000208390806001815401808255809150506001900390600052602060002001600090919091909150558973ffffffffffffffffffffffffffffffffffffffff166323b872dd33308c6040518463ffffffff1660e01b81526004016124b9939291906154b6565b600060405180830381600087803b1580156124d357600080fd5b505af11580156124e7573d6000803e3d6000fd5b50505050888a73ffffffffffffffffffffffffffffffffffffffff16847f685d46ca5ed93322742c70905f54af782c8500414709263c63633e7f0a0d4dfd338c60018c60008d60405161253f969594939291906155fe565b60405180910390a482935050505060016000819055509695505050505050565b612569600461421c565b6000612575600461420e565b9050600060405180606001604052808381526020018481526020018573ffffffffffffffffffffffffffffffffffffffff16815250905080601260008481526020019081526020016000206000820151816000015560208201518160010190805190602001906125e69291906143f6565b5060408201518160020160006101000a81548173ffffffffffffffffffffffffffffffffffffffff021916908373ffffffffffffffffffffffffffffffffffffffff16021790555090505050505050565b6000600660009054906101000a900473ffffffffffffffffffffffffffffffffffffffff1673ffffffffffffffffffffffffffffffffffffffff166378a895676040518163ffffffff1660e01b815260040160206040518083038186803b1580156126a157600080fd5b505afa1580156126b5573d6000803e3d6000fd5b505050506040513d601f19601f820116820180604052508101906126d99190614d8b565b905090565b600760009054906101000a900473ffffffffffffffffffffffffffffffffffffffff1673ffffffffffffffffffffffffffffffffffffffff1663257d89db33868686866040518663ffffffff1660e01b815260040161274195949392919061565f565b600060405180830381600087803b15801561275b57600080fd5b505af115801561276f573d6000803e3d6000fd5b5050505050505050565b6060600760009054906101000a900473ffffffffffffffffffffffffffffffffffffffff1673ffffffffffffffffffffffffffffffffffffffff166367f718a96040518163ffffffff1660e01b815260040160006040518083038186803b1580156127e357600080fd5b505afa1580156127f7573d6000803e3d6000fd5b505050506040513d6000823e3d601f19601f820116820180604052508101906128209190614c22565b905090565b6000601860003373ffffffffffffffffffffffffffffffffffffffff1673ffffffffffffffffffffffffffffffffffffffff16815260200190815260200160002054905090565b600d818154811061287c57600080fd5b90600052602060002090600302016000915090508060000154908060010180546128a590615c69565b80601f01602080910402602001604051908101604052809291908181526020018280546128d190615c69565b801561291e5780601f106128f35761010080835404028352916020019161291e565b820191906000526020600020905b81548152906001019060200180831161290157829003601f168201915b5050505050908060020160009054906101000a900473ffffffffffffffffffffffffffffffffffffffff16905083565b6060600760009054906101000a900473ffffffffffffffffffffffffffffffffffffffff1673ffffffffffffffffffffffffffffffffffffffff1663dbe16c07836040518263ffffffff1660e01b81526004016129ab91906158d5565b60006040518083038186803b1580156129c357600080fd5b505afa1580156129d7573d6000803e3d6000fd5b505050506040513d6000823e3d601f19601f82011682018060405250810190612a009190614ccd565b9050919050565b6000612a13600361421c565b6000612a1f600361420e565b905060006040518061014001604052808381526020018973ffffffffffffffffffffffffffffffffffffffff1681526020018881526020013373ffffffffffffffffffffffffffffffffffffffff168152602001600073ffffffffffffffffffffffffffffffffffffffff168152602001600660009054906101000a900473ffffffffffffffffffffffffffffffffffffffff1673ffffffffffffffffffffffffffffffffffffffff16815260200187815260200186815260200186815260200160001515815250905080601b60008481526020019081526020016000206000820151816000015560208201518160010160006101000a81548173ffffffffffffffffffffffffffffffffffffffff021916908373ffffffffffffffffffffffffffffffffffffffff1602179055506040820151816002015560608201518160030160006101000a81548173ffffffffffffffffffffffffffffffffffffffff021916908373ffffffffffffffffffffffffffffffffffffffff16021790555060808201518160040160006101000a81548173ffffffffffffffffffffffffffffffffffffffff021916908373ffffffffffffffffffffffffffffffffffffffff16021790555060a08201518160050160006101000a81548173ffffffffffffffffffffffffffffffffffffffff021916908373ffffffffffffffffffffffffffffffffffffffff16021790555060c0820151816006015560e0820151816007015561010082015181600801556101208201518160090160006101000a81548160ff0219169083151502179055509050508773ffffffffffffffffffffffffffffffffffffffff166323b872dd33308a6040518463ffffffff1660e01b8152600401612cad939291906154b6565b600060405180830381600087803b158015612cc757600080fd5b505af1158015612cdb573d6000803e3d6000fd5b50505050612ce884612e04565b600660009054906101000a900473ffffffffffffffffffffffffffffffffffffffff1673ffffffffffffffffffffffffffffffffffffffff16635a9d10a23384886040518463ffffffff1660e01b8152600401612d47939291906156c7565b600060405180830381600087803b158015612d6157600080fd5b505af1158015612d75573d6000803e3d6000fd5b50505050868873ffffffffffffffffffffffffffffffffffffffff16837fedbbc6bc63aa092bba302ac98ddaafe17f6714072cb4cb7caeb89e9b31f6f4ca33600660009054906101000a900473ffffffffffffffffffffffffffffffffffffffff168b8b8c6000604051612dee9695949392919061559d565b60405180910390a4819250505095945050505050565b600660009054906101000a900473ffffffffffffffffffffffffffffffffffffffff1673ffffffffffffffffffffffffffffffffffffffff166302fe5305826040518263ffffffff1660e01b8152600401612e5f91906157d9565b600060405180830381600087803b158015612e7957600080fd5b505af1158015612e8d573d6000803e3d6000fd5b5050505050565b600063bc197c8160e01b905095945050505050565b60026000541415612eef576040517f08c379a0000000000000000000000000000000000000000000000000000000008152600401612ee69061581b565b60405180910390fd5b6002600081905550600060146000838152602001908152602001600020604051806101a0016040529081600082015481526020016001820160009054906101000a900473ffffffffffffffffffffffffffffffffffffffff1673ffffffffffffffffffffffffffffffffffffffff1673ffffffffffffffffffffffffffffffffffffffff168152602001600282015481526020016003820160009054906101000a900473ffffffffffffffffffffffffffffffffffffffff1673ffffffffffffffffffffffffffffffffffffffff1673ffffffffffffffffffffffffffffffffffffffff1681526020016004820160009054906101000a900473ffffffffffffffffffffffffffffffffffffffff1673ffffffffffffffffffffffffffffffffffffffff1673ffffffffffffffffffffffffffffffffffffffff168152602001600582015481526020016006820154815260200160078201548152602001600882015481526020016009820160009054906101000a900460ff161515151581526020016009820160019054906101000a900460ff161515151581526020016009820160029054906101000a900460ff161515151581526020016009820160039054906101000a900460ff161515151581525050905060008160a0015190506000826040015190506000836101400151905082341015613123576040517f08c379a000000000000000000000000000000000000000000000000000000000815260040161311a906157fb565b60405180910390fd5b33846080019073ffffffffffffffffffffffffffffffffffffffff16908173ffffffffffffffffffffffffffffffffffffffff1681525050600184610120019015159081151581525050613177600261421c565b83601460008781526020019081526020016000206000820151816000015560208201518160010160006101000a81548173ffffffffffffffffffffffffffffffffffffffff021916908373ffffffffffffffffffffffffffffffffffffffff1602179055506040820151816002015560608201518160030160006101000a81548173ffffffffffffffffffffffffffffffffffffffff021916908373ffffffffffffffffffffffffffffffffffffffff16021790555060808201518160040160006101000a81548173ffffffffffffffffffffffffffffffffffffffff021916908373ffffffffffffffffffffffffffffffffffffffff16021790555060a0820151816005015560c0820151816006015560e0820151816007015561010082015181600801556101208201518160090160006101000a81548160ff0219169083151502179055506101408201518160090160016101000a81548160ff0219169083151502179055506101608201518160090160026101000a81548160ff0219169083151502179055506101808201518160090160036101000a81548160ff02191690831515021790555090505060176000856060015173ffffffffffffffffffffffffffffffffffffffff1673ffffffffffffffffffffffffffffffffffffffff168152602001908152602001600020859080600181540180825580915050600190039060005260206000200160009091909190915055600060186000866060015173ffffffffffffffffffffffffffffffffffffffff1673ffffffffffffffffffffffffffffffffffffffff16815260200190815260200160002054905080806133e190615ccc565b915060186000876060015173ffffffffffffffffffffffffffffffffffffffff1673ffffffffffffffffffffffffffffffffffffffff16815260200190815260200160002081905550601960003373ffffffffffffffffffffffffffffffffffffffff1673ffffffffffffffffffffffffffffffffffffffff1681526020019081526020016000208690806001815401808255809150506001900390600052602060002001600090919091909150556000601a60003373ffffffffffffffffffffffffffffffffffffffff1673ffffffffffffffffffffffffffffffffffffffff16815260200190815260200160002054905080806134df90615ccc565b9150601a60003373ffffffffffffffffffffffffffffffffffffffff1673ffffffffffffffffffffffffffffffffffffffff16815260200190815260200160002081905550856060015173ffffffffffffffffffffffffffffffffffffffff166108fc349081150290604051600060405180830381858888f1935050505015801561356e573d6000803e3d6000fd5b5082156135f3578773ffffffffffffffffffffffffffffffffffffffff1663f242432a303389604001518a60c001516040518563ffffffff1660e01b81526004016135bc9493929190615545565b600060405180830381600087803b1580156135d657600080fd5b505af11580156135ea573d6000803e3d6000fd5b50505050613663565b8773ffffffffffffffffffffffffffffffffffffffff166323b872dd3033876040518463ffffffff1660e01b8152600401613630939291906154b6565b600060405180830381600087803b15801561364a57600080fd5b505af115801561365e573d6000803e3d6000fd5b505050505b838873ffffffffffffffffffffffffffffffffffffffff16887ffeb04e399f6ba62d926a65372cbb5f11e3c7a9ff05e62948769d2ee5d5335b848960600151338a60016040516136b69493929190615471565b60405180910390a450505050505060016000819055505050565b6000601a60003373ffffffffffffffffffffffffffffffffffffffff1673ffffffffffffffffffffffffffffffffffffffff16815260200190815260200160002054905090565b6000600760009054906101000a900473ffffffffffffffffffffffffffffffffffffffff1673ffffffffffffffffffffffffffffffffffffffff166378a895676040518163ffffffff1660e01b815260040160206040518083038186803b15801561378157600080fd5b505afa158015613795573d6000803e3d6000fd5b505050506040513d601f19601f820116820180604052508101906137b99190614d8b565b905090565b600660009054906101000a900473ffffffffffffffffffffffffffffffffffffffff1673ffffffffffffffffffffffffffffffffffffffff16635a9d10a23384846040518463ffffffff1660e01b815260040161381d939291906156c7565b600060405180830381600087803b15801561383757600080fd5b505af115801561384b573d6000803e3d6000fd5b505050505050565b61385b61447c565b6000601b600084815260200190815260200160002060405180610140016040529081600082015481526020016001820160009054906101000a900473ffffffffffffffffffffffffffffffffffffffff1673ffffffffffffffffffffffffffffffffffffffff1673ffffffffffffffffffffffffffffffffffffffff168152602001600282015481526020016003820160009054906101000a900473ffffffffffffffffffffffffffffffffffffffff1673ffffffffffffffffffffffffffffffffffffffff1673ffffffffffffffffffffffffffffffffffffffff1681526020016004820160009054906101000a900473ffffffffffffffffffffffffffffffffffffffff1673ffffffffffffffffffffffffffffffffffffffff1673ffffffffffffffffffffffffffffffffffffffff1681526020016005820160009054906101000a900473ffffffffffffffffffffffffffffffffffffffff1673ffffffffffffffffffffffffffffffffffffffff1673ffffffffffffffffffffffffffffffffffffffff1681526020016006820154815260200160078201548152602001600882015481526020016009820160009054906101000a900460ff161515151581525050905080915050919050565b6000801515613a3a33614232565b151514613a7c576040517f08c379a0000000000000000000000000000000000000000000000000000000008152600401613a739061585b565b60405180910390fd5b6001821415613b285760006040518060400160405280600954815260200185815250905060096000815480929190613ab390615ccc565b919050555080600f60003373ffffffffffffffffffffffffffffffffffffffff1673ffffffffffffffffffffffffffffffffffffffff168152602001908152602001600020600082015181600001556020820151816001019080519060200190613b1e9291906143f6565b5090505050613c74565b6002821415613bd45760006040518060400160405280600a548152602001858152509050600a6000815480929190613b5f90615ccc565b919050555080601060003373ffffffffffffffffffffffffffffffffffffffff1673ffffffffffffffffffffffffffffffffffffffff168152602001908152602001600020600082015181600001556020820151816001019080519060200190613bca9291906143f6565b5090505050613c73565b60006040518060400160405280600b548152602001858152509050600b6000815480929190613c0290615ccc565b919050555080601160003373ffffffffffffffffffffffffffffffffffffffff1673ffffffffffffffffffffffffffffffffffffffff168152602001908152602001600020600082015181600001556020820151816001019080519060200190613c6d9291906143f6565b50905050505b5b600e339080600181540180825580915050600190039060005260206000200160009091909190916101000a81548173ffffffffffffffffffffffffffffffffffffffff021916908373ffffffffffffffffffffffffffffffffffffffff1602179055506001905092915050565b60606000601560003373ffffffffffffffffffffffffffffffffffffffff1673ffffffffffffffffffffffffffffffffffffffff168152602001908152602001600020805480602002602001604051908101604052809291908181526020018280548015613d6e57602002820191906000526020600020905b815481526020019060010190808311613d5a575b505050505090506000815167ffffffffffffffff811115613db8577f4e487b7100000000000000000000000000000000000000000000000000000000600052604160045260246000fd5b604051908082528060200260200182016040528015613df157816020015b613dde61430d565b815260200190600190039081613dd65790505b50905060005b8251811015613ea057613e49838281518110613e3c577f4e487b7100000000000000000000000000000000000000000000000000000000600052603260045260246000fd5b6020026020010151610ec2565b828281518110613e82577f4e487b7100000000000000000000000000000000000000000000000000000000600052603260045260246000fd5b60200260200101819052508080613e9890615ccc565b915050613df7565b50809250505090565b600063f23a6e6160e01b905095945050505050565b60606000821415613f06576040518060400160405280600181526020017f3000000000000000000000000000000000000000000000000000000000000000815250905061419f565b60006064905060008167ffffffffffffffff811115613f4e577f4e487b7100000000000000000000000000000000000000000000000000000000600052604160045260246000fd5b6040519080825280601f01601f191660200182016040528015613f805781602001600182028036833780820191505090505b50905060005b60008514614038576000600a86613f9d9190615d3f565b9050600a86613fac9190615ae7565b9550806030613fbb9190615a91565b60f81b838380613fca90615ccc565b945081518110614003577f4e487b7100000000000000000000000000000000000000000000000000000000600052603260045260246000fd5b60200101907effffffffffffffffffffffffffffffffffffffffffffffffffffffffffffff1916908160001a90535050613f86565b60008167ffffffffffffffff81111561407a577f4e487b7100000000000000000000000000000000000000000000000000000000600052604160045260246000fd5b6040519080825280601f01601f1916602001820160405280156140ac5781602001600182028036833780820191505090505b50905060005b828110156141905783600182856140c99190615b18565b6140d39190615b18565b8151811061410a577f4e487b7100000000000000000000000000000000000000000000000000000000600052603260045260246000fd5b602001015160f81c60f81b82828151811061414e577f4e487b7100000000000000000000000000000000000000000000000000000000600052603260045260246000fd5b60200101907effffffffffffffffffffffffffffffffffffffffffffffffffffffffffffff1916908160001a905350808061418890615ccc565b9150506140b2565b50600081905080955050505050505b919050565b60007f01ffc9a7000000000000000000000000000000000000000000000000000000007bffffffffffffffffffffffffffffffffffffffffffffffffffffffff1916827bffffffffffffffffffffffffffffffffffffffffffffffffffffffff1916149050919050565b600081600001549050919050565b6001816000016000828254019250508190555050565b600080600090505b600e805490508160ff161015614302578273ffffffffffffffffffffffffffffffffffffffff16600e8260ff168154811061429e577f4e487b7100000000000000000000000000000000000000000000000000000000600052603260045260246000fd5b9060005260206000200160009054906101000a900473ffffffffffffffffffffffffffffffffffffffff1673ffffffffffffffffffffffffffffffffffffffff1614156142ef576001915050614308565b80806142fa90615d15565b91505061423a565b50600090505b919050565b604051806101a0016040528060008152602001600073ffffffffffffffffffffffffffffffffffffffff16815260200160008152602001600073ffffffffffffffffffffffffffffffffffffffff168152602001600073ffffffffffffffffffffffffffffffffffffffff168152602001600081526020016000815260200160008152602001600081526020016000151581526020016000151581526020016000151581526020016000151581525090565b60405180606001604052806000815260200160608152602001600073ffffffffffffffffffffffffffffffffffffffff1681525090565b82805461440290615c69565b90600052602060002090601f016020900481019282614424576000855561446b565b82601f1061443d57805160ff191683800117855561446b565b8280016001018555821561446b579182015b8281111561446a57825182559160200191906001019061444f565b5b5090506144789190614529565b5090565b60405180610140016040528060008152602001600073ffffffffffffffffffffffffffffffffffffffff16815260200160008152602001600073ffffffffffffffffffffffffffffffffffffffff168152602001600073ffffffffffffffffffffffffffffffffffffffff168152602001600073ffffffffffffffffffffffffffffffffffffffff1681526020016000815260200160008152602001600081526020016000151581525090565b5b8082111561454257600081600090555060010161452a565b5090565b600061455961455484615953565b61592e565b9050808382526020820190508285602086028201111561457857600080fd5b60005b858110156145a8578161458e88826147e9565b84526020840193506020830192505060018101905061457b565b5050509392505050565b60006145c56145c084615953565b61592e565b905080838252602082019050828560208602820111156145e457600080fd5b60005b8581101561461457816145fa88826147fe565b8452602084019350602083019250506001810190506145e7565b5050509392505050565b600061463161462c8461597f565b61592e565b90508281526020810184848401111561464957600080fd5b614654848285615c27565b509392505050565b600061466f61466a846159b0565b61592e565b90508281526020810184848401111561468757600080fd5b614692848285615c27565b509392505050565b60006146ad6146a8846159b0565b61592e565b9050828152602081018484840111156146c557600080fd5b6146d0848285615c36565b509392505050565b6000813590506146e781615f30565b92915050565b600082601f8301126146fe57600080fd5b813561470e848260208601614546565b91505092915050565b600082601f83011261472857600080fd5b81516147388482602086016145b2565b91505092915050565b60008135905061475081615f47565b92915050565b60008135905061476581615f5e565b92915050565b600082601f83011261477c57600080fd5b813561478c84826020860161461e565b91505092915050565b600082601f8301126147a657600080fd5b81356147b684826020860161465c565b91505092915050565b600082601f8301126147d057600080fd5b81516147e084826020860161469a565b91505092915050565b6000813590506147f881615f75565b92915050565b60008151905061480d81615f75565b92915050565b600080600080600060a0868803121561482b57600080fd5b6000614839888289016146d8565b955050602061484a888289016146d8565b945050604086013567ffffffffffffffff81111561486757600080fd5b614873888289016146ed565b935050606086013567ffffffffffffffff81111561489057600080fd5b61489c888289016146ed565b925050608086013567ffffffffffffffff8111156148b957600080fd5b6148c58882890161476b565b9150509295509295909350565b600080600080608085870312156148e857600080fd5b60006148f6878288016146d8565b9450506020614907878288016146d8565b9350506040614918878288016147e9565b925050606085013567ffffffffffffffff81111561493557600080fd5b6149418782880161476b565b91505092959194509250565b600080600080600060a0868803121561496557600080fd5b6000614973888289016146d8565b9550506020614984888289016146d8565b9450506040614995888289016147e9565b93505060606149a6888289016147e9565b925050608086013567ffffffffffffffff8111156149c357600080fd5b6149cf8882890161476b565b9150509295509295909350565b600080604083850312156149ef57600080fd5b60006149fd858286016146d8565b925050602083013567ffffffffffffffff811115614a1a57600080fd5b614a2685828601614795565b9150509250929050565b60008060408385031215614a4357600080fd5b6000614a51858286016146d8565b9250506020614a62858286016147e9565b9150509250929050565b600080600080600060a08688031215614a8457600080fd5b6000614a92888289016146d8565b9550506020614aa3888289016147e9565b9450506040614ab4888289016147e9565b9350506060614ac5888289016147e9565b925050608086013567ffffffffffffffff811115614ae257600080fd5b614aee88828901614795565b9150509295509295909350565b60008060008060008060c08789031215614b1457600080fd5b6000614b2289828a016146d8565b9650506020614b3389828a016147e9565b9550506040614b4489828a016147e9565b9450506060614b5589828a016147e9565b9350506080614b6689828a016147e9565b92505060a0614b7789828a01614741565b9150509295509295509295565b600080600080600080600060e0888a031215614b9f57600080fd5b6000614bad8a828b016146d8565b9750506020614bbe8a828b016147e9565b9650506040614bcf8a828b016147e9565b9550506060614be08a828b016147e9565b9450506080614bf18a828b016147e9565b93505060a0614c028a828b016147e9565b92505060c0614c138a828b01614741565b91505092959891949750929550565b600060208284031215614c3457600080fd5b600082015167ffffffffffffffff811115614c4e57600080fd5b614c5a84828501614717565b91505092915050565b600060208284031215614c7557600080fd5b6000614c8384828501614756565b91505092915050565b600060208284031215614c9e57600080fd5b600082013567ffffffffffffffff811115614cb857600080fd5b614cc484828501614795565b91505092915050565b600060208284031215614cdf57600080fd5b600082015167ffffffffffffffff811115614cf957600080fd5b614d05848285016147bf565b91505092915050565b60008060408385031215614d2157600080fd5b600083013567ffffffffffffffff811115614d3b57600080fd5b614d4785828601614795565b9250506020614d58858286016147e9565b9150509250929050565b600060208284031215614d7457600080fd5b6000614d82848285016147e9565b91505092915050565b600060208284031215614d9d57600080fd5b6000614dab848285016147fe565b91505092915050565b60008060008060808587031215614dca57600080fd5b6000614dd8878288016147e9565b945050602085013567ffffffffffffffff811115614df557600080fd5b614e0187828801614795565b935050604085013567ffffffffffffffff811115614e1e57600080fd5b614e2a87828801614795565b925050606085013567ffffffffffffffff811115614e4757600080fd5b614e5387828801614795565b91505092959194509250565b60008060408385031215614e7257600080fd5b6000614e80858286016147e9565b9250506020614e91858286016147e9565b9150509250929050565b6000614ea783836151ed565b6101a08301905092915050565b6000614ec08383615453565b60208301905092915050565b614ed581615bdf565b82525050565b614ee481615b5e565b82525050565b614ef381615b4c565b82525050565b614f0281615b4c565b82525050565b6000614f1382615a01565b614f1d8185615a3c565b9350614f28836159e1565b8060005b83811015614f59578151614f408882614e9b565b9750614f4b83615a22565b925050600181019050614f2c565b5085935050505092915050565b6000614f7182615a0c565b614f7b8185615a4d565b9350614f86836159f1565b8060005b83811015614fb7578151614f9e8882614eb4565b9750614fa983615a2f565b925050600181019050614f8a565b5085935050505092915050565b614fcd81615b70565b82525050565b614fdc81615b70565b82525050565b614feb81615b7c565b82525050565b614ffa81615bf1565b82525050565b600061500b82615a17565b6150158185615a6f565b9350615025818560208601615c36565b61502e81615e2c565b840191505092915050565b600061504482615a17565b61504e8185615a80565b935061505e818560208601615c36565b61506781615e2c565b840191505092915050565b600061507f600283615a5e565b915061508a82615e3d565b602082019050919050565b60006150a2603c83615a80565b91506150ad82615e66565b604082019050919050565b60006150c5601f83615a80565b91506150d082615eb5565b602082019050919050565b60006150e8601c83615a80565b91506150f382615ede565b602082019050919050565b600061510b601783615a80565b915061511682615f07565b602082019050919050565b610140820160008201516151386000850182615453565b50602082015161514b6020850182614eea565b50604082015161515e6040850182615453565b5060608201516151716060850182614edb565b5060808201516151846080850182614edb565b5060a082015161519760a0850182614eea565b5060c08201516151aa60c0850182615453565b5060e08201516151bd60e0850182615453565b506101008201516151d2610100850182615453565b506101208201516151e7610120850182614fc4565b50505050565b6101a0820160008201516152046000850182615453565b5060208201516152176020850182614eea565b50604082015161522a6040850182615453565b50606082015161523d6060850182614edb565b5060808201516152506080850182614edb565b5060a082015161526360a0850182615453565b5060c082015161527660c0850182615453565b5060e082015161528960e0850182615453565b5061010082015161529e610100850182615453565b506101208201516152b3610120850182614fc4565b506101408201516152c8610140850182614fc4565b506101608201516152dd610160850182614fc4565b506101808201516152f2610180850182614fc4565b50505050565b6101a08201600082015161530f6000850182615453565b5060208201516153226020850182614eea565b5060408201516153356040850182615453565b5060608201516153486060850182614edb565b50608082015161535b6080850182614edb565b5060a082015161536e60a0850182615453565b5060c082015161538160c0850182615453565b5060e082015161539460e0850182615453565b506101008201516153a9610100850182615453565b506101208201516153be610120850182614fc4565b506101408201516153d3610140850182614fc4565b506101608201516153e8610160850182614fc4565b506101808201516153fd610180850182614fc4565b50505050565b600060608301600083015161541b6000860182615453565b50602083015184820360208601526154338282615000565b91505060408301516154486040860182614eea565b508091505092915050565b61545c81615bc8565b82525050565b61546b81615bc8565b82525050565b60006080820190506154866000830187614ecc565b6154936020830186614ef9565b6154a06040830185615462565b6154ad6060830184614fd3565b95945050505050565b60006060820190506154cb6000830186614ef9565b6154d86020830185614ef9565b6154e56040830184615462565b949350505050565b600060a0820190506155026000830187614ef9565b61550f6020830186614ef9565b61551c6040830185615462565b6155296060830184614ff1565b818103608083015261553a81615072565b905095945050505050565b600060a08201905061555a6000830187614ef9565b6155676020830186614ef9565b6155746040830185615462565b6155816060830184615462565b818103608083015261559281615072565b905095945050505050565b600060c0820190506155b26000830189614ef9565b6155bf6020830188614ef9565b6155cc6040830187615462565b6155d96060830186615462565b6155e66080830185615462565b6155f360a0830184614fd3565b979650505050505050565b600060c0820190506156136000830189614ef9565b6156206020830188615462565b61562d6040830187614ff1565b61563a6060830186615462565b6156476080830185614fd3565b61565460a0830184614fd3565b979650505050505050565b600060a0820190506156746000830188614ef9565b6156816020830187615462565b81810360408301526156938186615039565b905081810360608301526156a78185615039565b905081810360808301526156bb8184615039565b90509695505050505050565b60006060820190506156dc6000830186614ef9565b6156e96020830185615462565b6156f66040830184615462565b949350505050565b600060c0820190506157136000830189614ef9565b6157206020830188615462565b61572d6040830187615462565b61573a6060830186615462565b6157476080830185614fd3565b61575460a0830184614fd3565b979650505050505050565b600060208201905081810360008301526157798184614f08565b905092915050565b6000602082019050818103600083015261579b8184614f66565b905092915050565b60006020820190506157b86000830184614fd3565b92915050565b60006020820190506157d36000830184614fe2565b92915050565b600060208201905081810360008301526157f38184615039565b905092915050565b6000602082019050818103600083015261581481615095565b9050919050565b60006020820190508181036000830152615834816150b8565b9050919050565b60006020820190508181036000830152615854816150db565b9050919050565b60006020820190508181036000830152615874816150fe565b9050919050565b6000610140820190506158916000830184615121565b92915050565b60006101a0820190506158ad60008301846152f8565b92915050565b600060208201905081810360008301526158cd8184615403565b905092915050565b60006020820190506158ea6000830184615462565b92915050565b60006060820190506159056000830186615462565b81810360208301526159178185615039565b90506159266040830184614ef9565b949350505050565b6000615938615949565b90506159448282615c9b565b919050565b6000604051905090565b600067ffffffffffffffff82111561596e5761596d615dfd565b5b602082029050602081019050919050565b600067ffffffffffffffff82111561599a57615999615dfd565b5b6159a382615e2c565b9050602081019050919050565b600067ffffffffffffffff8211156159cb576159ca615dfd565b5b6159d482615e2c565b9050602081019050919050565b6000819050602082019050919050565b6000819050602082019050919050565b600081519050919050565b600081519050919050565b600081519050919050565b6000602082019050919050565b6000602082019050919050565b600082825260208201905092915050565b600082825260208201905092915050565b600082825260208201905092915050565b600082825260208201905092915050565b600082825260208201905092915050565b6000615a9c82615bc8565b9150615aa783615bc8565b9250827fffffffffffffffffffffffffffffffffffffffffffffffffffffffffffffffff03821115615adc57615adb615d70565b5b828201905092915050565b6000615af282615bc8565b9150615afd83615bc8565b925082615b0d57615b0c615d9f565b5b828204905092915050565b6000615b2382615bc8565b9150615b2e83615bc8565b925082821015615b4157615b40615d70565b5b828203905092915050565b6000615b5782615ba8565b9050919050565b6000615b6982615ba8565b9050919050565b60008115159050919050565b60007fffffffff0000000000000000000000000000000000000000000000000000000082169050919050565b600073ffffffffffffffffffffffffffffffffffffffff82169050919050565b6000819050919050565b600060ff82169050919050565b6000615bea82615c03565b9050919050565b6000615bfc82615bc8565b9050919050565b6000615c0e82615c15565b9050919050565b6000615c2082615ba8565b9050919050565b82818337600083830152505050565b60005b83811015615c54578082015181840152602081019050615c39565b83811115615c63576000848401525b50505050565b60006002820490506001821680615c8157607f821691505b60208210811415615c9557615c94615dce565b5b50919050565b615ca482615e2c565b810181811067ffffffffffffffff82111715615cc357615cc2615dfd565b5b80604052505050565b6000615cd782615bc8565b91507fffffffffffffffffffffffffffffffffffffffffffffffffffffffffffffffff821415615d0a57615d09615d70565b5b600182019050919050565b6000615d2082615bd2565b915060ff821415615d3457615d33615d70565b5b600182019050919050565b6000615d4a82615bc8565b9150615d5583615bc8565b925082615d6557615d64615d9f565b5b828206905092915050565b7f4e487b7100000000000000000000000000000000000000000000000000000000600052601160045260246000fd5b7f4e487b7100000000000000000000000000000000000000000000000000000000600052601260045260246000fd5b7f4e487b7100000000000000000000000000000000000000000000000000000000600052602260045260246000fd5b7f4e487b7100000000000000000000000000000000000000000000000000000000600052604160045260246000fd5b6000601f19601f8301169050919050565b7f5b5d000000000000000000000000000000000000000000000000000000000000600082015250565b7f4275796572206d757374207472617366657220457468657220657175616c206f60008201527f722067726561746572207468616e205072696365206f66204974656d00000000602082015250565b7f5265656e7472616e637947756172643a207265656e7472616e742063616c6c00600082015250565b7f5072696365206d757374206265206174206c6561737420312077656900000000600082015250565b7f5573657220416c72656164792072656769737465726564000000000000000000600082015250565b615f3981615b4c565b8114615f4457600080fd5b50565b615f5081615b70565b8114615f5b57600080fd5b50565b615f6781615b7c565b8114615f7257600080fd5b50565b615f7e81615bc8565b8114615f8957600080fd5b5056fea2646970667358221220f965a871e38be63acd7da5a819964b8f5686c5b722b4d88368da8929f160d4be64736f6c63430008030033",
  "immutableReferences": {},
  "source": "pragma solidity ^0.8.3;\n// \"SPDX-License-Identifier: UNLICENSED\"\n\nimport \"./ACHouseToken1155.sol\";\nimport \"./ACHouseToken721.sol\";\n\nimport \"@openzeppelin/contracts/utils/Counters.sol\";\nimport \"@openzeppelin/contracts/security/ReentrancyGuard.sol\";\n\n\nimport \"@openzeppelin/contracts/token/ERC721/utils/ERC721Holder.sol\";\nimport \"@openzeppelin/contracts/token/ERC1155/utils/ERC1155Holder.sol\";\n\ncontract ACHouse is ReentrancyGuard, ERC1155Holder, ERC721Holder {\n  using Counters for Counters.Counter;\n  Counters.Counter private _itemIds;\n  Counters.Counter private _itemsSold;\n  Counters.Counter private _fracItemIds;\n  Counters.Counter private _ngoIds;\n\n  address owner;\n\n  ACHouseToken1155 _multiToken;\n  ACHouseToken721 _nftToken;\n\n  MarketItem[] mItems;\n\n  /** Variables and Event Emitters */\n  struct AuctionPlace {\n    uint256 id;\n    string name;\n  } \n  struct Artist {\n    uint256 id;\n    string name;\n  }\n  struct Participant {\n    uint256 id;\n    string name;\n  }\n  struct NGO {\n    uint256 id;\n    string name;\n    address charityAddress;\n  }\n\n  uint auctionPlaceCount = 0;\n  uint artistCount = 0;\n  uint participantCount = 0;\n  uint ngoCount = 0;\n  NGO[] public ngoArray;\n  address[] RegisteredUserAddresses; // might be used??\n\n  // mapping address to type\n  mapping(address => AuctionPlace) AuctionPlaceMapping;\n  mapping(address => Artist) ArtistMapping;\n  mapping(address => Participant) ParticipantMapping;\n\n  mapping(uint256 => NGO) NgoMapping;\n  // User address maps to - Chaities and the donation amount. \n  mapping(address => mapping(address => uint256)) UserNGODonation;\n\n  struct MarketItem {\n    uint itemId;\n    address nftContract;\n    uint256 tokenId;\n    address payable seller;\n    address payable owner;\n    uint256 price;\n    uint256 amount;\n    uint256 charityId;\n    uint256 auctionTime;\n    bool sold;\n    bool isMultiToken;\n    bool isRemoved;\n    bool isFrac;\n  }\n\n  mapping(uint256 => MarketItem) private idMarketItemMapping;\n  \n  mapping( address => uint256[]) userItemCreatedMapping;\n  mapping( address => uint256) userItemCreatedCountMapping;\n  //user mapping to itemSold array\n  mapping( address => uint256[]) userSoldItemMapping;\n  //user sold count mapp;\n  mapping ( address => uint256) userSoldCountMapping;\n  //user mapping to purchased item  array\n  mapping( address => uint256[]) userpurchasedItemMapping;\n  //user purchased count mapp;\n  mapping ( address => uint256) userPurchasedCountMapping;\n  \n  event MarketItemCreated(uint indexed itemId, address indexed nftContract, uint256 indexed tokenId, \n    address seller, uint256 price, uint256 amount, uint256 auctionTime, bool isMultiToken, bool isFrac);\n  \n  event MarketItemSold(uint indexed itemId, address indexed nftContract, uint256 indexed tokenId, \n    address seller, address owner, uint256 price, bool sold);\n\n  /*******************fractionalize NFT */\n  struct FractionalizeToken {\n    uint itemId;\n    address nftContract;\n    uint256 tokenId;\n    address payable seller;\n    address payable owner;\n    address fractionalContract;\n    uint256 shardId;\n    uint256 supplyMinted;\n    uint256 supplyRemaining;\n    bool isMultiToken;\n  }\n  // id to fracToken\n  mapping(uint256 => FractionalizeToken) idToFracToken;\n  //user purchase to id to amount purchased\n  mapping (address => mapping(uint256 => uint256)) userShardPurchaseAmount;\n  \n  event FractionalTokenCreated(uint indexed itemId, address indexed nftContract, uint256 indexed tokenId, \n    address seller, address fractionalContract, uint256 shardId, uint256 supplyMinted, uint256 supplyRemaining,  bool isMultiToken);\n    \n\n  constructor(address _mToken, address _nToken) {\n    _multiToken = ACHouseToken1155(_mToken);\n    _nftToken = ACHouseToken721(_nToken);\n    \n    _multiToken.setParentAddress(address(this));\n    _nftToken.setParentAddress(address(this));\n    owner = payable(msg.sender);\n  }\n\n  function addCharity(address charityAddress, string memory name) public {\n    _ngoIds.increment();\n    uint256 id = _ngoIds.current();\n    NGO memory charity = NGO(id, name, charityAddress);\n\n    NgoMapping[id] = charity;\n  }\n\n  function getCharityInfo(uint256 _id) public view returns(NGO memory) {\n    return NgoMapping[_id];\n  }\n  \n  /***************************************************************************************************************************************/\n  /**MarketPlace functionality */\n  function create1155MarketItem(address nftContract, uint256 tokenId, uint256 price, uint256 amount, uint256 _charityId, uint256 auctionTime, bool isFrac) public payable nonReentrant returns (uint256){\n    require(price > 0, \"Price must be at least 1 wei\");\n\n    _itemIds.increment();\n    uint256 itemId = _itemIds.current();\n    \n    MarketItem memory item = MarketItem(itemId, nftContract, tokenId, payable(msg.sender), payable(address(0)), price / 1 ether, amount, _charityId, auctionTime, false, true, false, isFrac); // amount will always be 1. \n    idMarketItemMapping[itemId] = item;\n\n    // increament user item created count and store and push itemId to userItem Created mapping\n    uint256 userCount = userItemCreatedCountMapping[msg.sender];\n    userItemCreatedCountMapping[msg.sender] = userCount++;\n    userItemCreatedMapping[msg.sender].push(itemId);\n\n    IERC1155(nftContract).safeTransferFrom(msg.sender, address(this), tokenId, amount, '[]');\n\n    emit MarketItemCreated(itemId, nftContract, tokenId, msg.sender, price, amount, auctionTime, true, isFrac);\n\n    return itemId;\n  }\n\n  function create721MarketItem(address nftContract, uint256 tokenId, uint256 price, uint256 _charityId, uint256 auctionTime, bool isFrac ) public payable nonReentrant returns (uint256){\n    // require(price > 0, \"Price must be at least 1 wei\");\n    // require(msg.value == listingPrice, \"Price must be equal to listing price\");\n\n    _itemIds.increment();\n    uint256 itemId = _itemIds.current();\n\n    MarketItem memory item = MarketItem(itemId, nftContract, tokenId, payable(msg.sender), payable(address(0)), price, 1, _charityId, auctionTime, false, true, false, isFrac); // amount will always be 1. \n    idMarketItemMapping[itemId] = item;\n\n    // increament user item created count and store and push itemId to userItem Created mapping\n    uint256 userCount = userItemCreatedCountMapping[msg.sender];\n    userItemCreatedCountMapping[msg.sender] = userCount++;\n    userItemCreatedMapping[msg.sender].push(itemId);\n\n    IERC721(nftContract).transferFrom(msg.sender, address(this), tokenId);\n\n    emit MarketItemCreated(itemId, nftContract, tokenId, msg.sender, price, 1, auctionTime, false, isFrac);\n\n    return itemId;\n  }\n  \n  // Remove item from marketplace\n  function removeMarketPlaceItem( uint256 itemId) public {\n    idMarketItemMapping[itemId].isRemoved = true;\n  }\n  \n  // re add item to marketplace\n  function addMarketPlaceItem( uint256 itemId) public {\n    idMarketItemMapping[itemId].isRemoved = false;\n  }\n  \n  /* Creates the sale of a marketplace item */\n  /* Transfers ownership of the item, as well as funds between parties */\n  function createMarketSale(address nftContract, uint256 itemId) public payable nonReentrant {\n    \n    MarketItem memory item = idMarketItemMapping[itemId];\n    \n    uint price = item.price;\n    uint tokenId = item.tokenId;\n    bool isMultiToken = item.isMultiToken;\n    require(msg.value >= price, \"Buyer must trasfer Ether equal or greater than Price of Item\");\n\n    //set new owner inrecords.\n    item.owner = payable(msg.sender);\n    //set sold to true\n    item.sold = true;\n    //increament itemSold counter.\n    _itemsSold.increment();\n    \n    //save updated item mapping. \n    idMarketItemMapping[itemId] = item;\n\n    // mapp seller user-address to itemSold [] and increase sold count\n    userSoldItemMapping[item.seller].push(itemId);\n    uint256 sellerCount = userSoldCountMapping[item.seller];\n    userSoldCountMapping[item.seller] = sellerCount++;\n    \n    //// mapp buyer user-address to itemPurchased [] \n    userpurchasedItemMapping[msg.sender].push(itemId);\n    uint256 buyerCount = userPurchasedCountMapping[msg.sender];\n    userPurchasedCountMapping[msg.sender] = buyerCount++;\n    // transfer funds to seller. \n    item.seller.transfer(msg.value);\n\n    //transfer ownership to buyer.\n    if(isMultiToken){\n      IERC1155(nftContract).safeTransferFrom(address(this), msg.sender, item.tokenId, item.amount, '[]');\n    }else{\n      IERC721(nftContract).transferFrom(address(this), msg.sender, tokenId);\n    }\n\n    emit MarketItemSold( itemId, nftContract, tokenId, item.seller, msg.sender, price, true);\n  }\n\n  function fetchMarketItem(uint256 _id) public view returns(MarketItem memory){\n    return idMarketItemMapping[_id];\n  }\n\n  /* Returns all unsold market items */\n  function getUnSoldMarketItems() public view returns(MarketItem[] memory) {\n\n    uint totalUnSoldCount = _itemIds.current() - _itemsSold.current();\n    MarketItem[] memory items = new MarketItem[] (totalUnSoldCount);\n    \n    uint unsoldCurrentIndex = 0;\n    \n    uint totalItemCount = _itemIds.current();\n      \n    for(uint i=0; i < totalItemCount; i++){\n        // only way i found to iterate through a mapping. \n        if(idMarketItemMapping[i+1].owner == address(0) && idMarketItemMapping[i+1].isRemoved == false ) { \n            uint currentID = i+1;\n\n            MarketItem memory currentItem = idMarketItemMapping[currentID];\n            items[unsoldCurrentIndex] = currentItem;\n            unsoldCurrentIndex +=1;\n        }\n    }\n    \n    return items; \n  }\n\n  /* Returns only items that a user has purchased */\n  function fetchMyNFTs() public view returns (MarketItem[] memory) {\n    \n    uint256[] memory userPurchasedIds = userpurchasedItemMapping[msg.sender];\n\n    MarketItem[] memory items = new MarketItem[](userPurchasedIds.length);\n\n    for(uint i =0; i< userPurchasedIds.length; i++){\n        items[i] = idMarketItemMapping[userPurchasedIds[i]];\n    }\n    return items;\n  }\n\n  /* Returns only items a user has created */\n  function fetchItemsCreated() public view returns (MarketItem[] memory) {\n    \n    // get array of itemId user created.\n    uint256[] memory userItem = userItemCreatedMapping[msg.sender];\n\n    MarketItem[] memory items = new MarketItem[](userItem.length);\n    \n    //loop through array and fetch the marketItems\n    for(uint i = 0; i < userItem.length; i++){\n      items[i] = fetchMarketItem(userItem[i]);\n    }\n\n    return items;\n\n  }\n\n  function fetchUserSoldCount() public view returns (uint256){\n    return userSoldCountMapping[msg.sender];\n  }\n\n  function fetchUserPurchasedCount() public view returns (uint256){\n    return userPurchasedCountMapping[msg.sender];\n  }\n  \n  /***************************************************************************************************************************************/\n  /**Functions - Registration  */\n  function register(string memory _name, uint _userType) public returns(bool) {\n    require(isUserRegistered(msg.sender) == false, \"User Already registered\");\n\n    //userType { 1: Auction, 2: Artist, 3: Participant}\n    // register user by type\n    if (_userType == 1) {\n      AuctionPlace memory ac = AuctionPlace(auctionPlaceCount, _name);\n      auctionPlaceCount++;\n\n      AuctionPlaceMapping[msg.sender] = ac;\n    } else if (_userType == 2) {\n      Artist memory ar = Artist(artistCount, _name);\n      artistCount++;\n\n      ArtistMapping[msg.sender] = ar;\n    } else {\n      Participant memory part = Participant(participantCount, _name);\n      participantCount++;\n\n      ParticipantMapping[msg.sender] = part;\n    }\n\n    RegisteredUserAddresses.push(msg.sender);\n    return true;\n  }\n\n  /**ERC1155 functionality ***********************************************/\n  function setURI1155(string memory _uri) public {\n    _multiToken.setURI(_uri);\n  }\n\n  function getTokenURI(uint256 _tokenId) public view returns(string memory){\n    return _multiToken.getTokenURI(_tokenId);\n  }\n  // mint 1155 NFT - set supply to 1. \n  function createNFT1155(uint256 _id, uint256 _amount) public {\n    _multiToken.mintNFT(msg.sender, _id, _amount);\n  }\n\n  //get tokens totalnumber. \n  function getTokenCount() public view returns(uint256) {\n    return _multiToken.getTokenCount();\n  }\n  //returns the array of all tokenids. \n  function getTokenIds() public view returns(uint256[] memory) {\n    return _multiToken.getTokenIds();\n  }\n\n  function getTokenSupply(uint256 _tokenId) public view returns(uint256) {\n    return _multiToken.getTotalSupplyOfToken(_tokenId);\n  }\n\n  /*************Fractional NFT */\n\n  //hold NFT and trasnfer ownership to ACHouse. \n  // ACHouse will mint 1155 then set it to orig owner of nft. \n  function fractionalize1155NFT(address nftContract, uint256 tokenId, uint256 shardId, uint256 supplyToCreate, string memory uri) public returns (uint256) {\n    _fracItemIds.increment();\n    uint fracId = _fracItemIds.current();\n\n    FractionalizeToken memory fracItem = FractionalizeToken(fracId, nftContract, tokenId, payable(msg.sender), \n      payable(address(0)), address(_multiToken), shardId, supplyToCreate, supplyToCreate, true); // supplyMinted and SupplyRemaining will be set as same for now. \n    \n    idToFracToken[fracId] = fracItem;\n\n    //get ownership of nftContract and its token.\n    IERC1155(nftContract).safeTransferFrom(msg.sender, address(this), tokenId, 1, '[]');\n    \n    //Mint 1155 fungible tokens. \n    setURI1155(uri); // call functiont to set uRL in 1155 token\n    _multiToken.mintNFT(msg.sender, fracId, supplyToCreate); //shard tokens created and ownership set to msg.sender ( person who decided to frac nft.)\n    \n    emit FractionalTokenCreated(fracId, nftContract, tokenId, msg.sender, address(_multiToken), shardId, supplyToCreate, supplyToCreate, true);\n    \n    return fracId;\n    \n    \n  }\n\n  function fractionalize721NFT(address nftContract, uint256 tokenId, uint256 shardId, uint256 supplyToCreate, string memory uri) public returns (uint256) {\n    _fracItemIds.increment();\n    uint fracId = _fracItemIds.current();\n    \n     FractionalizeToken memory fracItem = FractionalizeToken(fracId, nftContract, tokenId, payable(msg.sender), \n      payable(address(0)), address(_multiToken), shardId, supplyToCreate, supplyToCreate, false); // supplyMinted and SupplyRemaining will be set as same for now. \n    \n    idToFracToken[fracId] = fracItem;\n\n    //get ownership of nftContract and its token.\n    IERC721(nftContract).transferFrom(msg.sender, address(this), tokenId);\n\n    //Mint 1155 fungible tokens.\n    setURI1155(uri); // call functiont to set uRL in 1155 token\n    _multiToken.mintNFT(msg.sender, fracId, supplyToCreate); //shard tokens created and ownership set to msg.sender ( person who decided to frac nft.)\n    \n    emit FractionalTokenCreated(fracId, nftContract, tokenId, msg.sender, address(_multiToken), shardId, supplyToCreate, supplyToCreate, false);\n    \n    return fracId;\n  }\n\n  function getFractionalInformation(uint256 _fracId) public view returns (FractionalizeToken memory ){\n      \n      FractionalizeToken memory item = idToFracToken[_fracId];\n      \n      return item;\n  }\n  \n  /**ERC721 functionzlity *************************************************/\n  // mint 721 NFT - set supply to 1. \n  function createNFT721(uint256 _id, string memory uri, string memory name, string memory symbol) public {\n    _nftToken.mintNFT(msg.sender, _id, uri, name, symbol);\n  }\n\n  //get tokens totalnumber. \n  function get721TokenCount() public view returns(uint256) {\n    return _nftToken.getTokenCount();\n  }\n  //returns the array of all tokenids. \n  function get721TokenIds() public view returns(uint256[] memory) {\n    return _nftToken.getTokenIds();\n  }\n\n  function get721TokenName(uint256 _id) public view returns(string memory){\n    return _nftToken.getTokenName(_id);\n  }\n\n  function get721TokenSymbol(uint256 _id) public view returns(string memory){\n    return _nftToken.getTokenSymbol(_id);\n  }\n\n  function get721TokenURI(uint256 _id) public view returns(string memory) {\n    return _nftToken.getTokenUri(_id);\n  }\n\n  /**Helpers */\n  function isUserRegistered(address _address) internal view returns(bool) {\n    for (uint8 j = 0; j < RegisteredUserAddresses.length; j++) {\n      if (RegisteredUserAddresses[j] == _address) {\n        return (true); // user is registered.\n      }\n    }\n    return (false); // user is not registered.\n  }\n  \n   function uint2str(uint v) public pure returns (string memory) {\n        if(v == 0){\n            return '0';\n        }\n        uint maxlength = 100;\n        bytes memory reversed = new bytes(maxlength);\n        uint i = 0;\n        while (v != 0) {\n            uint remainder = v % 10;\n            v = v / 10;\n            reversed[i++] = bytes1(uint8(48 + remainder));\n        }\n        bytes memory s = new bytes(i); // i + 1 is inefficient\n        for (uint j = 0; j < i; j++) {\n            s[j] = reversed[i - j - 1]; // to avoid the off-by-one error\n        }\n        string memory str = string(s);  // memory isn't implicitly convertible to storage\n        return str;\n    }\n  \n}",
  "sourcePath": "/home/dinesh/Projects/EthOnline/contracts/ACHouse.sol",
  "compiler": {
    "name": "solc",
    "version": "0.8.3+commit.8d00100c.Emscripten.clang"
  },
  "schemaVersion": "3.3.4",
  "updatedAt": "2021-10-23T01:14:25.756Z",
  "devdoc": {
    "kind": "dev",
    "methods": {
      "onERC721Received(address,address,uint256,bytes)": {
        "details": "See {IERC721Receiver-onERC721Received}. Always returns `IERC721Receiver.onERC721Received.selector`."
      },
      "supportsInterface(bytes4)": {
        "details": "See {IERC165-supportsInterface}."
      }
    },
    "version": 1
  },
  "userdoc": {
    "kind": "user",
    "methods": {
      "create1155MarketItem(address,uint256,uint256,uint256,uint256,uint256,bool)": {
        "notice": "MarketPlace functionality "
      },
      "createNFT721(uint256,string,string,string)": {
        "notice": "ERC721 functionzlity ************************************************"
      },
      "register(string,uint256)": {
        "notice": "Functions - Registration  "
      },
      "setURI1155(string)": {
        "notice": "ERC1155 functionality **********************************************"
      }
    },
    "version": 1
  }
}