{
  "contractName": "ACHouseToken721",
  "abi": [
    {
      "inputs": [],
      "stateMutability": "nonpayable",
      "type": "constructor"
    },
    {
      "anonymous": false,
      "inputs": [
        {
          "indexed": true,
          "internalType": "address",
          "name": "owner",
          "type": "address"
        },
        {
          "indexed": true,
          "internalType": "address",
          "name": "approved",
          "type": "address"
        },
        {
          "indexed": true,
          "internalType": "uint256",
          "name": "tokenId",
          "type": "uint256"
        }
      ],
      "name": "Approval",
      "type": "event"
    },
    {
      "anonymous": false,
      "inputs": [
        {
          "indexed": true,
          "internalType": "address",
          "name": "owner",
          "type": "address"
        },
        {
          "indexed": true,
          "internalType": "address",
          "name": "operator",
          "type": "address"
        },
        {
          "indexed": false,
          "internalType": "bool",
          "name": "approved",
          "type": "bool"
        }
      ],
      "name": "ApprovalForAll",
      "type": "event"
    },
    {
      "anonymous": false,
      "inputs": [
        {
          "indexed": true,
          "internalType": "address",
          "name": "from",
          "type": "address"
        },
        {
          "indexed": true,
          "internalType": "address",
          "name": "to",
          "type": "address"
        },
        {
          "indexed": true,
          "internalType": "uint256",
          "name": "tokenId",
          "type": "uint256"
        }
      ],
      "name": "Transfer",
      "type": "event"
    },
    {
      "inputs": [
        {
          "internalType": "address",
          "name": "to",
          "type": "address"
        },
        {
          "internalType": "uint256",
          "name": "tokenId",
          "type": "uint256"
        }
      ],
      "name": "approve",
      "outputs": [],
      "stateMutability": "nonpayable",
      "type": "function"
    },
    {
      "inputs": [
        {
          "internalType": "address",
          "name": "owner",
          "type": "address"
        }
      ],
      "name": "balanceOf",
      "outputs": [
        {
          "internalType": "uint256",
          "name": "",
          "type": "uint256"
        }
      ],
      "stateMutability": "view",
      "type": "function"
    },
    {
      "inputs": [
        {
          "internalType": "uint256",
          "name": "tokenId",
          "type": "uint256"
        }
      ],
      "name": "getApproved",
      "outputs": [
        {
          "internalType": "address",
          "name": "",
          "type": "address"
        }
      ],
      "stateMutability": "view",
      "type": "function"
    },
    {
      "inputs": [
        {
          "internalType": "address",
          "name": "owner",
          "type": "address"
        },
        {
          "internalType": "address",
          "name": "operator",
          "type": "address"
        }
      ],
      "name": "isApprovedForAll",
      "outputs": [
        {
          "internalType": "bool",
          "name": "",
          "type": "bool"
        }
      ],
      "stateMutability": "view",
      "type": "function"
    },
    {
      "inputs": [],
      "name": "name",
      "outputs": [
        {
          "internalType": "string",
          "name": "",
          "type": "string"
        }
      ],
      "stateMutability": "view",
      "type": "function"
    },
    {
      "inputs": [
        {
          "internalType": "uint256",
          "name": "tokenId",
          "type": "uint256"
        }
      ],
      "name": "ownerOf",
      "outputs": [
        {
          "internalType": "address",
          "name": "",
          "type": "address"
        }
      ],
      "stateMutability": "view",
      "type": "function"
    },
    {
      "inputs": [
        {
          "internalType": "address",
          "name": "from",
          "type": "address"
        },
        {
          "internalType": "address",
          "name": "to",
          "type": "address"
        },
        {
          "internalType": "uint256",
          "name": "tokenId",
          "type": "uint256"
        }
      ],
      "name": "safeTransferFrom",
      "outputs": [],
      "stateMutability": "nonpayable",
      "type": "function"
    },
    {
      "inputs": [
        {
          "internalType": "address",
          "name": "from",
          "type": "address"
        },
        {
          "internalType": "address",
          "name": "to",
          "type": "address"
        },
        {
          "internalType": "uint256",
          "name": "tokenId",
          "type": "uint256"
        },
        {
          "internalType": "bytes",
          "name": "_data",
          "type": "bytes"
        }
      ],
      "name": "safeTransferFrom",
      "outputs": [],
      "stateMutability": "nonpayable",
      "type": "function"
    },
    {
      "inputs": [
        {
          "internalType": "address",
          "name": "operator",
          "type": "address"
        },
        {
          "internalType": "bool",
          "name": "approved",
          "type": "bool"
        }
      ],
      "name": "setApprovalForAll",
      "outputs": [],
      "stateMutability": "nonpayable",
      "type": "function"
    },
    {
      "inputs": [
        {
          "internalType": "bytes4",
          "name": "interfaceId",
          "type": "bytes4"
        }
      ],
      "name": "supportsInterface",
      "outputs": [
        {
          "internalType": "bool",
          "name": "",
          "type": "bool"
        }
      ],
      "stateMutability": "view",
      "type": "function"
    },
    {
      "inputs": [],
      "name": "symbol",
      "outputs": [
        {
          "internalType": "string",
          "name": "",
          "type": "string"
        }
      ],
      "stateMutability": "view",
      "type": "function"
    },
    {
      "inputs": [
        {
          "internalType": "uint256",
          "name": "tokenId",
          "type": "uint256"
        }
      ],
      "name": "tokenURI",
      "outputs": [
        {
          "internalType": "string",
          "name": "",
          "type": "string"
        }
      ],
      "stateMutability": "view",
      "type": "function"
    },
    {
      "inputs": [
        {
          "internalType": "address",
          "name": "from",
          "type": "address"
        },
        {
          "internalType": "address",
          "name": "to",
          "type": "address"
        },
        {
          "internalType": "uint256",
          "name": "tokenId",
          "type": "uint256"
        }
      ],
      "name": "transferFrom",
      "outputs": [],
      "stateMutability": "nonpayable",
      "type": "function"
    },
    {
      "inputs": [
        {
          "internalType": "address",
          "name": "_address",
          "type": "address"
        }
      ],
      "name": "setParentAddress",
      "outputs": [],
      "stateMutability": "nonpayable",
      "type": "function"
    }
  ],
  "bytecode": "0x60806040523480156200001157600080fd5b50604051806020016040528060008152506040518060200160405280600081525081600090805190602001906200004a9291906200006c565b508060019080519060200190620000639291906200006c565b50505062000181565b8280546200007a906200011c565b90600052602060002090601f0160209004810192826200009e5760008555620000ea565b82601f10620000b957805160ff1916838001178555620000ea565b82800160010185558215620000ea579182015b82811115620000e9578251825591602001919060010190620000cc565b5b509050620000f99190620000fd565b5090565b5b8082111562000118576000816000905550600101620000fe565b5090565b600060028204905060018216806200013557607f821691505b602082108114156200014c576200014b62000152565b5b50919050565b7f4e487b7100000000000000000000000000000000000000000000000000000000600052602260045260246000fd5b61242080620001916000396000f3fe608060405234801561001057600080fd5b50600436106100ea5760003560e01c806370a082311161008c578063b88d4fde11610066578063b88d4fde1461025b578063c87b56dd14610277578063e985e9c5146102a7578063fa5afe40146102d7576100ea565b806370a08231146101f157806395d89b4114610221578063a22cb4651461023f576100ea565b8063095ea7b3116100c8578063095ea7b31461016d57806323b872dd1461018957806342842e0e146101a55780636352211e146101c1576100ea565b806301ffc9a7146100ef57806306fdde031461011f578063081812fc1461013d575b600080fd5b610109600480360381019061010491906116fa565b6102f3565b6040516101169190611a74565b60405180910390f35b6101276103d5565b6040516101349190611a8f565b60405180910390f35b6101576004803603810190610152919061174c565b610467565b6040516101649190611a0d565b60405180910390f35b610187600480360381019061018291906116be565b6104ec565b005b6101a3600480360381019061019e91906115b8565b610604565b005b6101bf60048036038101906101ba91906115b8565b610664565b005b6101db60048036038101906101d6919061174c565b610684565b6040516101e89190611a0d565b60405180910390f35b61020b60048036038101906102069190611553565b610736565b6040516102189190611c31565b60405180910390f35b6102296107ee565b6040516102369190611a8f565b60405180910390f35b61025960048036038101906102549190611682565b610880565b005b61027560048036038101906102709190611607565b610a01565b005b610291600480360381019061028c919061174c565b610a63565b60405161029e9190611a8f565b60405180910390f35b6102c160048036038101906102bc919061157c565b610b0a565b6040516102ce9190611a74565b60405180910390f35b6102f160048036038101906102ec9190611553565b610b9e565b005b60007f80ac58cd000000000000000000000000000000000000000000000000000000007bffffffffffffffffffffffffffffffffffffffffffffffffffffffff1916827bffffffffffffffffffffffffffffffffffffffffffffffffffffffff191614806103be57507f5b5e139f000000000000000000000000000000000000000000000000000000007bffffffffffffffffffffffffffffffffffffffffffffffffffffffff1916827bffffffffffffffffffffffffffffffffffffffffffffffffffffffff1916145b806103ce57506103cd82610be2565b5b9050919050565b6060600080546103e490611e56565b80601f016020809104026020016040519081016040528092919081815260200182805461041090611e56565b801561045d5780601f106104325761010080835404028352916020019161045d565b820191906000526020600020905b81548152906001019060200180831161044057829003601f168201915b5050505050905090565b600061047282610c4c565b6104b1576040517f08c379a00000000000000000000000000000000000000000000000000000000081526004016104a890611b91565b60405180910390fd5b6004600083815260200190815260200160002060009054906101000a900473ffffffffffffffffffffffffffffffffffffffff169050919050565b60006104f782610684565b90508073ffffffffffffffffffffffffffffffffffffffff168373ffffffffffffffffffffffffffffffffffffffff161415610568576040517f08c379a000000000000000000000000000000000000000000000000000000000815260040161055f90611bf1565b60405180910390fd5b8073ffffffffffffffffffffffffffffffffffffffff16610587610cb8565b73ffffffffffffffffffffffffffffffffffffffff1614806105b657506105b5816105b0610cb8565b610b0a565b5b6105f5576040517f08c379a00000000000000000000000000000000000000000000000000000000081526004016105ec90611b31565b60405180910390fd5b6105ff8383610cc0565b505050565b61061561060f610cb8565b82610d79565b610654576040517f08c379a000000000000000000000000000000000000000000000000000000000815260040161064b90611c11565b60405180910390fd5b61065f838383610e57565b505050565b61067f83838360405180602001604052806000815250610a01565b505050565b6000806002600084815260200190815260200160002060009054906101000a900473ffffffffffffffffffffffffffffffffffffffff169050600073ffffffffffffffffffffffffffffffffffffffff168173ffffffffffffffffffffffffffffffffffffffff16141561072d576040517f08c379a000000000000000000000000000000000000000000000000000000000815260040161072490611b71565b60405180910390fd5b80915050919050565b60008073ffffffffffffffffffffffffffffffffffffffff168273ffffffffffffffffffffffffffffffffffffffff1614156107a7576040517f08c379a000000000000000000000000000000000000000000000000000000000815260040161079e90611b51565b60405180910390fd5b600360008373ffffffffffffffffffffffffffffffffffffffff1673ffffffffffffffffffffffffffffffffffffffff168152602001908152602001600020549050919050565b6060600180546107fd90611e56565b80601f016020809104026020016040519081016040528092919081815260200182805461082990611e56565b80156108765780601f1061084b57610100808354040283529160200191610876565b820191906000526020600020905b81548152906001019060200180831161085957829003601f168201915b5050505050905090565b610888610cb8565b73ffffffffffffffffffffffffffffffffffffffff168273ffffffffffffffffffffffffffffffffffffffff1614156108f6576040517f08c379a00000000000000000000000000000000000000000000000000000000081526004016108ed90611af1565b60405180910390fd5b8060056000610903610cb8565b73ffffffffffffffffffffffffffffffffffffffff1673ffffffffffffffffffffffffffffffffffffffff16815260200190815260200160002060008473ffffffffffffffffffffffffffffffffffffffff1673ffffffffffffffffffffffffffffffffffffffff16815260200190815260200160002060006101000a81548160ff0219169083151502179055508173ffffffffffffffffffffffffffffffffffffffff166109b0610cb8565b73ffffffffffffffffffffffffffffffffffffffff167f17307eab39ab6107e8899845ad3d59bd9653f200f220920489ca2b5937696c31836040516109f59190611a74565b60405180910390a35050565b610a12610a0c610cb8565b83610d79565b610a51576040517f08c379a0000000000000000000000000000000000000000000000000000000008152600401610a4890611c11565b60405180910390fd5b610a5d848484846110b3565b50505050565b6060610a6e82610c4c565b610aad576040517f08c379a0000000000000000000000000000000000000000000000000000000008152600401610aa490611bd1565b60405180910390fd5b6000610ab761110f565b90506000815111610ad75760405180602001604052806000815250610b02565b80610ae184611126565b604051602001610af29291906119e9565b6040516020818303038152906040525b915050919050565b6000600560008473ffffffffffffffffffffffffffffffffffffffff1673ffffffffffffffffffffffffffffffffffffffff16815260200190815260200160002060008373ffffffffffffffffffffffffffffffffffffffff1673ffffffffffffffffffffffffffffffffffffffff16815260200190815260200160002060009054906101000a900460ff16905092915050565b80600660006101000a81548173ffffffffffffffffffffffffffffffffffffffff021916908373ffffffffffffffffffffffffffffffffffffffff16021790555050565b60007f01ffc9a7000000000000000000000000000000000000000000000000000000007bffffffffffffffffffffffffffffffffffffffffffffffffffffffff1916827bffffffffffffffffffffffffffffffffffffffffffffffffffffffff1916149050919050565b60008073ffffffffffffffffffffffffffffffffffffffff166002600084815260200190815260200160002060009054906101000a900473ffffffffffffffffffffffffffffffffffffffff1673ffffffffffffffffffffffffffffffffffffffff1614159050919050565b600033905090565b816004600083815260200190815260200160002060006101000a81548173ffffffffffffffffffffffffffffffffffffffff021916908373ffffffffffffffffffffffffffffffffffffffff160217905550808273ffffffffffffffffffffffffffffffffffffffff16610d3383610684565b73ffffffffffffffffffffffffffffffffffffffff167f8c5be1e5ebec7d5bd14f71427d1e84f3dd0314c0f7b2291e5b200ac8c7c3b92560405160405180910390a45050565b6000610d8482610c4c565b610dc3576040517f08c379a0000000000000000000000000000000000000000000000000000000008152600401610dba90611b11565b60405180910390fd5b6000610dce83610684565b90508073ffffffffffffffffffffffffffffffffffffffff168473ffffffffffffffffffffffffffffffffffffffff161480610e3d57508373ffffffffffffffffffffffffffffffffffffffff16610e2584610467565b73ffffffffffffffffffffffffffffffffffffffff16145b80610e4e5750610e4d8185610b0a565b5b91505092915050565b8273ffffffffffffffffffffffffffffffffffffffff16610e7782610684565b73ffffffffffffffffffffffffffffffffffffffff1614610ecd576040517f08c379a0000000000000000000000000000000000000000000000000000000008152600401610ec490611bb1565b60405180910390fd5b600073ffffffffffffffffffffffffffffffffffffffff168273ffffffffffffffffffffffffffffffffffffffff161415610f3d576040517f08c379a0000000000000000000000000000000000000000000000000000000008152600401610f3490611ad1565b60405180910390fd5b610f488383836112d3565b610f53600082610cc0565b6001600360008573ffffffffffffffffffffffffffffffffffffffff1673ffffffffffffffffffffffffffffffffffffffff1681526020019081526020016000206000828254610fa39190611d6c565b925050819055506001600360008473ffffffffffffffffffffffffffffffffffffffff1673ffffffffffffffffffffffffffffffffffffffff1681526020019081526020016000206000828254610ffa9190611ce5565b92505081905550816002600083815260200190815260200160002060006101000a81548173ffffffffffffffffffffffffffffffffffffffff021916908373ffffffffffffffffffffffffffffffffffffffff160217905550808273ffffffffffffffffffffffffffffffffffffffff168473ffffffffffffffffffffffffffffffffffffffff167fddf252ad1be2c89b69c2b068fc378daa952ba7f163c4a11628f55a4df523b3ef60405160405180910390a4505050565b6110be848484610e57565b6110ca848484846112d8565b611109576040517f08c379a000000000000000000000000000000000000000000000000000000000815260040161110090611ab1565b60405180910390fd5b50505050565b606060405180602001604052806000815250905090565b6060600082141561116e576040518060400160405280600181526020017f300000000000000000000000000000000000000000000000000000000000000081525090506112ce565b600082905060005b600082146111a057808061118990611eb9565b915050600a826111999190611d3b565b9150611176565b60008167ffffffffffffffff8111156111e2577f4e487b7100000000000000000000000000000000000000000000000000000000600052604160045260246000fd5b6040519080825280601f01601f1916602001820160405280156112145781602001600182028036833780820191505090505b5090505b600085146112c75760018261122d9190611d6c565b9150600a8561123c9190611f02565b60306112489190611ce5565b60f81b818381518110611284577f4e487b7100000000000000000000000000000000000000000000000000000000600052603260045260246000fd5b60200101907effffffffffffffffffffffffffffffffffffffffffffffffffffffffffffff1916908160001a905350600a856112c09190611d3b565b9450611218565b8093505050505b919050565b505050565b60006112f98473ffffffffffffffffffffffffffffffffffffffff1661146f565b15611462578373ffffffffffffffffffffffffffffffffffffffff1663150b7a02611322610cb8565b8786866040518563ffffffff1660e01b81526004016113449493929190611a28565b602060405180830381600087803b15801561135e57600080fd5b505af192505050801561138f57506040513d601f19601f8201168201806040525081019061138c9190611723565b60015b611412573d80600081146113bf576040519150601f19603f3d011682016040523d82523d6000602084013e6113c4565b606091505b5060008151141561140a576040517f08c379a000000000000000000000000000000000000000000000000000000000815260040161140190611ab1565b60405180910390fd5b805181602001fd5b63150b7a0260e01b7bffffffffffffffffffffffffffffffffffffffffffffffffffffffff1916817bffffffffffffffffffffffffffffffffffffffffffffffffffffffff191614915050611467565b600190505b949350505050565b600080823b905060008111915050919050565b600061149561149084611c71565b611c4c565b9050828152602081018484840111156114ad57600080fd5b6114b8848285611e14565b509392505050565b6000813590506114cf8161238e565b92915050565b6000813590506114e4816123a5565b92915050565b6000813590506114f9816123bc565b92915050565b60008151905061150e816123bc565b92915050565b600082601f83011261152557600080fd5b8135611535848260208601611482565b91505092915050565b60008135905061154d816123d3565b92915050565b60006020828403121561156557600080fd5b6000611573848285016114c0565b91505092915050565b6000806040838503121561158f57600080fd5b600061159d858286016114c0565b92505060206115ae858286016114c0565b9150509250929050565b6000806000606084860312156115cd57600080fd5b60006115db868287016114c0565b93505060206115ec868287016114c0565b92505060406115fd8682870161153e565b9150509250925092565b6000806000806080858703121561161d57600080fd5b600061162b878288016114c0565b945050602061163c878288016114c0565b935050604061164d8782880161153e565b925050606085013567ffffffffffffffff81111561166a57600080fd5b61167687828801611514565b91505092959194509250565b6000806040838503121561169557600080fd5b60006116a3858286016114c0565b92505060206116b4858286016114d5565b9150509250929050565b600080604083850312156116d157600080fd5b60006116df858286016114c0565b92505060206116f08582860161153e565b9150509250929050565b60006020828403121561170c57600080fd5b600061171a848285016114ea565b91505092915050565b60006020828403121561173557600080fd5b6000611743848285016114ff565b91505092915050565b60006020828403121561175e57600080fd5b600061176c8482850161153e565b91505092915050565b61177e81611da0565b82525050565b61178d81611db2565b82525050565b600061179e82611ca2565b6117a88185611cb8565b93506117b8818560208601611e23565b6117c181611fef565b840191505092915050565b60006117d782611cad565b6117e18185611cc9565b93506117f1818560208601611e23565b6117fa81611fef565b840191505092915050565b600061181082611cad565b61181a8185611cda565b935061182a818560208601611e23565b80840191505092915050565b6000611843603283611cc9565b915061184e82612000565b604082019050919050565b6000611866602483611cc9565b91506118718261204f565b604082019050919050565b6000611889601983611cc9565b91506118948261209e565b602082019050919050565b60006118ac602c83611cc9565b91506118b7826120c7565b604082019050919050565b60006118cf603883611cc9565b91506118da82612116565b604082019050919050565b60006118f2602a83611cc9565b91506118fd82612165565b604082019050919050565b6000611915602983611cc9565b9150611920826121b4565b604082019050919050565b6000611938602c83611cc9565b915061194382612203565b604082019050919050565b600061195b602983611cc9565b915061196682612252565b604082019050919050565b600061197e602f83611cc9565b9150611989826122a1565b604082019050919050565b60006119a1602183611cc9565b91506119ac826122f0565b604082019050919050565b60006119c4603183611cc9565b91506119cf8261233f565b604082019050919050565b6119e381611e0a565b82525050565b60006119f58285611805565b9150611a018284611805565b91508190509392505050565b6000602082019050611a226000830184611775565b92915050565b6000608082019050611a3d6000830187611775565b611a4a6020830186611775565b611a5760408301856119da565b8181036060830152611a698184611793565b905095945050505050565b6000602082019050611a896000830184611784565b92915050565b60006020820190508181036000830152611aa981846117cc565b905092915050565b60006020820190508181036000830152611aca81611836565b9050919050565b60006020820190508181036000830152611aea81611859565b9050919050565b60006020820190508181036000830152611b0a8161187c565b9050919050565b60006020820190508181036000830152611b2a8161189f565b9050919050565b60006020820190508181036000830152611b4a816118c2565b9050919050565b60006020820190508181036000830152611b6a816118e5565b9050919050565b60006020820190508181036000830152611b8a81611908565b9050919050565b60006020820190508181036000830152611baa8161192b565b9050919050565b60006020820190508181036000830152611bca8161194e565b9050919050565b60006020820190508181036000830152611bea81611971565b9050919050565b60006020820190508181036000830152611c0a81611994565b9050919050565b60006020820190508181036000830152611c2a816119b7565b9050919050565b6000602082019050611c4660008301846119da565b92915050565b6000611c56611c67565b9050611c628282611e88565b919050565b6000604051905090565b600067ffffffffffffffff821115611c8c57611c8b611fc0565b5b611c9582611fef565b9050602081019050919050565b600081519050919050565b600081519050919050565b600082825260208201905092915050565b600082825260208201905092915050565b600081905092915050565b6000611cf082611e0a565b9150611cfb83611e0a565b9250827fffffffffffffffffffffffffffffffffffffffffffffffffffffffffffffffff03821115611d3057611d2f611f33565b5b828201905092915050565b6000611d4682611e0a565b9150611d5183611e0a565b925082611d6157611d60611f62565b5b828204905092915050565b6000611d7782611e0a565b9150611d8283611e0a565b925082821015611d9557611d94611f33565b5b828203905092915050565b6000611dab82611dea565b9050919050565b60008115159050919050565b60007fffffffff0000000000000000000000000000000000000000000000000000000082169050919050565b600073ffffffffffffffffffffffffffffffffffffffff82169050919050565b6000819050919050565b82818337600083830152505050565b60005b83811015611e41578082015181840152602081019050611e26565b83811115611e50576000848401525b50505050565b60006002820490506001821680611e6e57607f821691505b60208210811415611e8257611e81611f91565b5b50919050565b611e9182611fef565b810181811067ffffffffffffffff82111715611eb057611eaf611fc0565b5b80604052505050565b6000611ec482611e0a565b91507fffffffffffffffffffffffffffffffffffffffffffffffffffffffffffffffff821415611ef757611ef6611f33565b5b600182019050919050565b6000611f0d82611e0a565b9150611f1883611e0a565b925082611f2857611f27611f62565b5b828206905092915050565b7f4e487b7100000000000000000000000000000000000000000000000000000000600052601160045260246000fd5b7f4e487b7100000000000000000000000000000000000000000000000000000000600052601260045260246000fd5b7f4e487b7100000000000000000000000000000000000000000000000000000000600052602260045260246000fd5b7f4e487b7100000000000000000000000000000000000000000000000000000000600052604160045260246000fd5b6000601f19601f8301169050919050565b7f4552433732313a207472616e7366657220746f206e6f6e20455243373231526560008201527f63656976657220696d706c656d656e7465720000000000000000000000000000602082015250565b7f4552433732313a207472616e7366657220746f20746865207a65726f2061646460008201527f7265737300000000000000000000000000000000000000000000000000000000602082015250565b7f4552433732313a20617070726f766520746f2063616c6c657200000000000000600082015250565b7f4552433732313a206f70657261746f7220717565727920666f72206e6f6e657860008201527f697374656e7420746f6b656e0000000000000000000000000000000000000000602082015250565b7f4552433732313a20617070726f76652063616c6c6572206973206e6f74206f7760008201527f6e6572206e6f7220617070726f76656420666f7220616c6c0000000000000000602082015250565b7f4552433732313a2062616c616e636520717565727920666f7220746865207a6560008201527f726f206164647265737300000000000000000000000000000000000000000000602082015250565b7f4552433732313a206f776e657220717565727920666f72206e6f6e657869737460008201527f656e7420746f6b656e0000000000000000000000000000000000000000000000602082015250565b7f4552433732313a20617070726f76656420717565727920666f72206e6f6e657860008201527f697374656e7420746f6b656e0000000000000000000000000000000000000000602082015250565b7f4552433732313a207472616e73666572206f6620746f6b656e2074686174206960008201527f73206e6f74206f776e0000000000000000000000000000000000000000000000602082015250565b7f4552433732314d657461646174613a2055524920717565727920666f72206e6f60008201527f6e6578697374656e7420746f6b656e0000000000000000000000000000000000602082015250565b7f4552433732313a20617070726f76616c20746f2063757272656e74206f776e6560008201527f7200000000000000000000000000000000000000000000000000000000000000602082015250565b7f4552433732313a207472616e736665722063616c6c6572206973206e6f74206f60008201527f776e6572206e6f7220617070726f766564000000000000000000000000000000602082015250565b61239781611da0565b81146123a257600080fd5b50565b6123ae81611db2565b81146123b957600080fd5b50565b6123c581611dbe565b81146123d057600080fd5b50565b6123dc81611e0a565b81146123e757600080fd5b5056fea26469706673582212208a4d9346a5f049082c9b0a7c864b3cad0fc825175284584fb345fc81c003d33064736f6c63430008030033",
  "immutableReferences": {},
  "source": "pragma solidity ^0.8.3;\n//\"SPDX-License-Identifier: UNLICENSED\"\n\nimport \"@openzeppelin/contracts/token/ERC721/ERC721.sol\";\n\ncontract ACHouseToken721 is ERC721 {\n\n    address parentAddress;\n    \n    constructor() ERC721(\"\",\"\") {}\n\n   function setParentAddress(address _address) public {\n       parentAddress = _address;\n   }\n\n\n}",
  "sourcePath": "/home/dinesh/Projects/EthOnline/contracts/ACHouseToken721.sol",
  "compiler": {
    "name": "solc",
    "version": "0.8.3+commit.8d00100c.Emscripten.clang"
  },
  "schemaVersion": "3.3.4",
  "updatedAt": "2021-10-05T04:04:39.226Z",
  "devdoc": {
    "kind": "dev",
    "methods": {
      "approve(address,uint256)": {
        "details": "See {IERC721-approve}."
      },
      "balanceOf(address)": {
        "details": "See {IERC721-balanceOf}."
      },
      "getApproved(uint256)": {
        "details": "See {IERC721-getApproved}."
      },
      "isApprovedForAll(address,address)": {
        "details": "See {IERC721-isApprovedForAll}."
      },
      "name()": {
        "details": "See {IERC721Metadata-name}."
      },
      "ownerOf(uint256)": {
        "details": "See {IERC721-ownerOf}."
      },
      "safeTransferFrom(address,address,uint256)": {
        "details": "See {IERC721-safeTransferFrom}."
      },
      "safeTransferFrom(address,address,uint256,bytes)": {
        "details": "See {IERC721-safeTransferFrom}."
      },
      "setApprovalForAll(address,bool)": {
        "details": "See {IERC721-setApprovalForAll}."
      },
      "supportsInterface(bytes4)": {
        "details": "See {IERC165-supportsInterface}."
      },
      "symbol()": {
        "details": "See {IERC721Metadata-symbol}."
      },
      "tokenURI(uint256)": {
        "details": "See {IERC721Metadata-tokenURI}."
      },
      "transferFrom(address,address,uint256)": {
        "details": "See {IERC721-transferFrom}."
      }
    },
    "version": 1
  },
  "userdoc": {
    "kind": "user",
    "methods": {},
    "version": 1
  }
}