{
  "contractName": "ACHouse",
  "abi": [
    {
      "inputs": [
        {
          "internalType": "uint256",
          "name": "",
          "type": "uint256"
        }
      ],
      "name": "ngoArray",
      "outputs": [
        {
          "internalType": "uint256",
          "name": "id",
          "type": "uint256"
        },
        {
          "internalType": "string",
          "name": "name",
          "type": "string"
        }
      ],
      "stateMutability": "view",
      "type": "function"
    },
    {
      "inputs": [
        {
          "internalType": "string",
          "name": "_nftName",
          "type": "string"
        }
      ],
      "name": "getNftData",
      "outputs": [
        {
          "components": [
            {
              "internalType": "contract ACHouseToken721",
              "name": "contracts",
              "type": "address"
            },
            {
              "internalType": "address",
              "name": "nftcontractAddress",
              "type": "address"
            }
          ],
          "internalType": "struct ACHouse.NFTContracts",
          "name": "",
          "type": "tuple"
        }
      ],
      "stateMutability": "view",
      "type": "function"
    },
    {
      "inputs": [
        {
          "internalType": "string",
          "name": "_shard",
          "type": "string"
        }
      ],
      "name": "getfracNftData",
      "outputs": [
        {
          "components": [
            {
              "internalType": "contract ACHouseToken20",
              "name": "contracts",
              "type": "address"
            },
            {
              "internalType": "address",
              "name": "fraccontractAddress",
              "type": "address"
            }
          ],
          "internalType": "struct ACHouse.fracNFTContracts",
          "name": "",
          "type": "tuple"
        }
      ],
      "stateMutability": "view",
      "type": "function"
    },
    {
      "inputs": [
        {
          "internalType": "string",
          "name": "_name",
          "type": "string"
        },
        {
          "internalType": "uint256",
          "name": "_userType",
          "type": "uint256"
        }
      ],
      "name": "register",
      "outputs": [
        {
          "internalType": "bool",
          "name": "",
          "type": "bool"
        }
      ],
      "stateMutability": "nonpayable",
      "type": "function"
    },
    {
      "inputs": [],
      "name": "createNFt",
      "outputs": [],
      "stateMutability": "nonpayable",
      "type": "function"
    },
    {
      "inputs": [
        {
          "internalType": "string",
          "name": "_shardName",
          "type": "string"
        },
        {
          "internalType": "string",
          "name": "_shardSymbol",
          "type": "string"
        },
        {
          "internalType": "uint256",
          "name": "supply",
          "type": "uint256"
        }
      ],
      "name": "fracNFT",
      "outputs": [],
      "stateMutability": "nonpayable",
      "type": "function"
    }
  ],
  "bytecode": "0x6080604052600060045560006005556000600655600060075534801561002457600080fd5b50612d74806100346000396000f3fe60806040523480156200001157600080fd5b50600436106200006a5760003560e01c806302c9e55b146200006f57806335e5b50814620000a55780639c79afb314620000b1578063c81bef0d14620000e8578063c87e57071462000108578063ea87152b146200013e575b600080fd5b6200008d600480360381019062000087919062000b48565b62000174565b6040516200009c919062000e98565b60405180910390f35b620000af6200025c565b005b620000cf6004803603810190620000c9919062000c6f565b6200025e565b604051620000df92919062000ed2565b60405180910390f35b62000106600480360381019062000100919062000b8d565b62000323565b005b62000126600480360381019062000120919062000b48565b620004e1565b60405162000135919062000eb5565b60405180910390f35b6200015c600480360381019062000156919062000c15565b620005c9565b6040516200016b919062000e0e565b60405180910390f35b6200017e62000975565b600f8260405162000190919062000df5565b90815260200160405180910390206040518060400160405290816000820160009054906101000a900473ffffffffffffffffffffffffffffffffffffffff1673ffffffffffffffffffffffffffffffffffffffff1673ffffffffffffffffffffffffffffffffffffffff1681526020016001820160009054906101000a900473ffffffffffffffffffffffffffffffffffffffff1673ffffffffffffffffffffffffffffffffffffffff1673ffffffffffffffffffffffffffffffffffffffff16815250509050919050565b565b600881815481106200026f57600080fd5b90600052602060002090600202016000915090508060000154908060010180546200029a9062001078565b80601f0160208091040260200160405190810160405280929190818152602001828054620002c89062001078565b8015620003195780601f10620002ed5761010080835404028352916020019162000319565b820191906000526020600020905b815481529060010190602001808311620002fb57829003601f168201915b5050505050905082565b8282826040516200033490620009bb565b620003429392919062000e2b565b604051809103906000f0801580156200035f573d6000803e3d6000fd5b50600360006101000a81548173ffffffffffffffffffffffffffffffffffffffff021916908373ffffffffffffffffffffffffffffffffffffffff16021790555060006040518060400160405280600360009054906101000a900473ffffffffffffffffffffffffffffffffffffffff1673ffffffffffffffffffffffffffffffffffffffff168152602001600360009054906101000a900473ffffffffffffffffffffffffffffffffffffffff1673ffffffffffffffffffffffffffffffffffffffff168152509050806010856040516200043c919062000df5565b908152602001604051809103902060008201518160000160006101000a81548173ffffffffffffffffffffffffffffffffffffffff021916908373ffffffffffffffffffffffffffffffffffffffff16021790555060208201518160010160006101000a81548173ffffffffffffffffffffffffffffffffffffffff021916908373ffffffffffffffffffffffffffffffffffffffff16021790555090505050505050565b620004eb620009c9565b601082604051620004fd919062000df5565b90815260200160405180910390206040518060400160405290816000820160009054906101000a900473ffffffffffffffffffffffffffffffffffffffff1673ffffffffffffffffffffffffffffffffffffffff1673ffffffffffffffffffffffffffffffffffffffff1681526020016001820160009054906101000a900473ffffffffffffffffffffffffffffffffffffffff1673ffffffffffffffffffffffffffffffffffffffff1673ffffffffffffffffffffffffffffffffffffffff16815250509050919050565b6000801515620005d93362000893565b1515146200061e576040517f08c379a0000000000000000000000000000000000000000000000000000000008152600401620006159062000e76565b60405180910390fd5b6001821415620006d057600060405180604001604052806004548152602001858152509050600460008154809291906200065890620010e4565b919050555080600a60003373ffffffffffffffffffffffffffffffffffffffff1673ffffffffffffffffffffffffffffffffffffffff168152602001908152602001600020600082015181600001556020820151816001019080519060200190620006c592919062000a0f565b509050505062000826565b60028214156200078257600060405180604001604052806005548152602001858152509050600560008154809291906200070a90620010e4565b919050555080600b60003373ffffffffffffffffffffffffffffffffffffffff1673ffffffffffffffffffffffffffffffffffffffff1681526020019081526020016000206000820151816000015560208201518160010190805190602001906200077792919062000a0f565b509050505062000825565b60006040518060400160405280600654815260200185815250905060066000815480929190620007b290620010e4565b919050555080600c60003373ffffffffffffffffffffffffffffffffffffffff1673ffffffffffffffffffffffffffffffffffffffff1681526020019081526020016000206000820151816000015560208201518160010190805190602001906200081f92919062000a0f565b50905050505b5b6009339080600181540180825580915050600190039060005260206000200160009091909190916101000a81548173ffffffffffffffffffffffffffffffffffffffff021916908373ffffffffffffffffffffffffffffffffffffffff1602179055506001905092915050565b600080600090505b6009805490508160ff1610156200096a578273ffffffffffffffffffffffffffffffffffffffff1660098260ff168154811062000901577f4e487b7100000000000000000000000000000000000000000000000000000000600052603260045260246000fd5b9060005260206000200160009054906101000a900473ffffffffffffffffffffffffffffffffffffffff1673ffffffffffffffffffffffffffffffffffffffff1614156200095457600191505062000970565b8080620009619062001132565b9150506200089b565b50600090505b919050565b6040518060400160405280600073ffffffffffffffffffffffffffffffffffffffff168152602001600073ffffffffffffffffffffffffffffffffffffffff1681525090565b611afc806200124383390190565b6040518060400160405280600073ffffffffffffffffffffffffffffffffffffffff168152602001600073ffffffffffffffffffffffffffffffffffffffff1681525090565b82805462000a1d9062001078565b90600052602060002090601f01602090048101928262000a41576000855562000a8d565b82601f1062000a5c57805160ff191683800117855562000a8d565b8280016001018555821562000a8d579182015b8281111562000a8c57825182559160200191906001019062000a6f565b5b50905062000a9c919062000aa0565b5090565b5b8082111562000abb57600081600090555060010162000aa1565b5090565b600062000ad662000ad08462000f2f565b62000f06565b90508281526020810184848401111562000aef57600080fd5b62000afc84828562001033565b509392505050565b600082601f83011262000b1657600080fd5b813562000b2884826020860162000abf565b91505092915050565b60008135905062000b428162001228565b92915050565b60006020828403121562000b5b57600080fd5b600082013567ffffffffffffffff81111562000b7657600080fd5b62000b848482850162000b04565b91505092915050565b60008060006060848603121562000ba357600080fd5b600084013567ffffffffffffffff81111562000bbe57600080fd5b62000bcc8682870162000b04565b935050602084013567ffffffffffffffff81111562000bea57600080fd5b62000bf88682870162000b04565b925050604062000c0b8682870162000b31565b9150509250925092565b6000806040838503121562000c2957600080fd5b600083013567ffffffffffffffff81111562000c4457600080fd5b62000c528582860162000b04565b925050602062000c658582860162000b31565b9150509250929050565b60006020828403121562000c8257600080fd5b600062000c928482850162000b31565b91505092915050565b62000ca68162000f8c565b82525050565b62000cb78162000fa0565b82525050565b62000cc88162000fe3565b82525050565b62000cd9816200100b565b82525050565b600062000cec8262000f65565b62000cf8818562000f70565b935062000d0a81856020860162001042565b62000d1581620011ee565b840191505092915050565b600062000d2d8262000f65565b62000d39818562000f81565b935062000d4b81856020860162001042565b80840191505092915050565b600062000d6660178362000f70565b915062000d7382620011ff565b602082019050919050565b60408201600082015162000d96600085018262000cce565b50602082015162000dab602085018262000c9b565b50505050565b60408201600082015162000dc9600085018262000cbd565b50602082015162000dde602085018262000c9b565b50505050565b62000def8162000fcc565b82525050565b600062000e03828462000d20565b915081905092915050565b600060208201905062000e25600083018462000cac565b92915050565b6000606082019050818103600083015262000e47818662000cdf565b9050818103602083015262000e5d818562000cdf565b905062000e6e604083018462000de4565b949350505050565b6000602082019050818103600083015262000e918162000d57565b9050919050565b600060408201905062000eaf600083018462000d7e565b92915050565b600060408201905062000ecc600083018462000db1565b92915050565b600060408201905062000ee9600083018562000de4565b818103602083015262000efd818462000cdf565b90509392505050565b600062000f1262000f25565b905062000f208282620010ae565b919050565b6000604051905090565b600067ffffffffffffffff82111562000f4d5762000f4c620011bf565b5b62000f5882620011ee565b9050602081019050919050565b600081519050919050565b600082825260208201905092915050565b600081905092915050565b600062000f998262000fac565b9050919050565b60008115159050919050565b600073ffffffffffffffffffffffffffffffffffffffff82169050919050565b6000819050919050565b600060ff82169050919050565b600062000ff08262000ff7565b9050919050565b6000620010048262000fac565b9050919050565b600062001018826200101f565b9050919050565b60006200102c8262000fac565b9050919050565b82818337600083830152505050565b60005b838110156200106257808201518184015260208101905062001045565b8381111562001072576000848401525b50505050565b600060028204905060018216806200109157607f821691505b60208210811415620010a857620010a762001190565b5b50919050565b620010b982620011ee565b810181811067ffffffffffffffff82111715620010db57620010da620011bf565b5b80604052505050565b6000620010f18262000fcc565b91507fffffffffffffffffffffffffffffffffffffffffffffffffffffffffffffffff82141562001127576200112662001161565b5b600182019050919050565b60006200113f8262000fd6565b915060ff82141562001156576200115562001161565b5b600182019050919050565b7f4e487b7100000000000000000000000000000000000000000000000000000000600052601160045260246000fd5b7f4e487b7100000000000000000000000000000000000000000000000000000000600052602260045260246000fd5b7f4e487b7100000000000000000000000000000000000000000000000000000000600052604160045260246000fd5b6000601f19601f8301169050919050565b7f5573657220416c72656164792072656769737465726564000000000000000000600082015250565b620012338162000fcc565b81146200123f57600080fd5b5056fe60806040523480156200001157600080fd5b5060405162001afc38038062001afc833981810160405281019062000037919062000385565b82828160039080519060200190620000519291906200024c565b5080600490805190602001906200006a9291906200024c565b50505033600560006101000a81548173ffffffffffffffffffffffffffffffffffffffff021916908373ffffffffffffffffffffffffffffffffffffffff160217905550620000c03382620000c960201b60201c565b505050620006de565b600073ffffffffffffffffffffffffffffffffffffffff168273ffffffffffffffffffffffffffffffffffffffff1614156200013c576040517f08c379a0000000000000000000000000000000000000000000000000000000008152600401620001339062000445565b60405180910390fd5b62000150600083836200024260201b60201c565b8060026000828254620001649190620004f4565b92505081905550806000808473ffffffffffffffffffffffffffffffffffffffff1673ffffffffffffffffffffffffffffffffffffffff1681526020019081526020016000206000828254620001bb9190620004f4565b925050819055508173ffffffffffffffffffffffffffffffffffffffff16600073ffffffffffffffffffffffffffffffffffffffff167fddf252ad1be2c89b69c2b068fc378daa952ba7f163c4a11628f55a4df523b3ef8360405162000222919062000467565b60405180910390a36200023e600083836200024760201b60201c565b5050565b505050565b505050565b8280546200025a9062000591565b90600052602060002090601f0160209004810192826200027e5760008555620002ca565b82601f106200029957805160ff1916838001178555620002ca565b82800160010185558215620002ca579182015b82811115620002c9578251825591602001919060010190620002ac565b5b509050620002d99190620002dd565b5090565b5b80821115620002f8576000816000905550600101620002de565b5090565b6000620003136200030d84620004ad565b62000484565b9050828152602081018484840111156200032c57600080fd5b620003398482856200055b565b509392505050565b600082601f8301126200035357600080fd5b815162000365848260208601620002fc565b91505092915050565b6000815190506200037f81620006c4565b92915050565b6000806000606084860312156200039b57600080fd5b600084015167ffffffffffffffff811115620003b657600080fd5b620003c48682870162000341565b935050602084015167ffffffffffffffff811115620003e257600080fd5b620003f08682870162000341565b925050604062000403868287016200036e565b9150509250925092565b60006200041c601f83620004e3565b915062000429826200069b565b602082019050919050565b6200043f8162000551565b82525050565b6000602082019050818103600083015262000460816200040d565b9050919050565b60006020820190506200047e600083018462000434565b92915050565b600062000490620004a3565b90506200049e8282620005c7565b919050565b6000604051905090565b600067ffffffffffffffff821115620004cb57620004ca6200065b565b5b620004d6826200068a565b9050602081019050919050565b600082825260208201905092915050565b6000620005018262000551565b91506200050e8362000551565b9250827fffffffffffffffffffffffffffffffffffffffffffffffffffffffffffffffff03821115620005465762000545620005fd565b5b828201905092915050565b6000819050919050565b60005b838110156200057b5780820151818401526020810190506200055e565b838111156200058b576000848401525b50505050565b60006002820490506001821680620005aa57607f821691505b60208210811415620005c157620005c06200062c565b5b50919050565b620005d2826200068a565b810181811067ffffffffffffffff82111715620005f457620005f36200065b565b5b80604052505050565b7f4e487b7100000000000000000000000000000000000000000000000000000000600052601160045260246000fd5b7f4e487b7100000000000000000000000000000000000000000000000000000000600052602260045260246000fd5b7f4e487b7100000000000000000000000000000000000000000000000000000000600052604160045260246000fd5b6000601f19601f8301169050919050565b7f45524332303a206d696e7420746f20746865207a65726f206164647265737300600082015250565b620006cf8162000551565b8114620006db57600080fd5b50565b61140e80620006ee6000396000f3fe608060405234801561001057600080fd5b50600436106100b45760003560e01c806370a082311161007157806370a08231146101a35780638da5cb5b146101d357806395d89b41146101f1578063a457c2d71461020f578063a9059cbb1461023f578063dd62ed3e1461026f576100b4565b806306fdde03146100b9578063095ea7b3146100d757806318160ddd1461010757806323b872dd14610125578063313ce567146101555780633950935114610173575b600080fd5b6100c161029f565b6040516100ce9190610eae565b60405180910390f35b6100f160048036038101906100ec9190610cd2565b610331565b6040516100fe9190610e93565b60405180910390f35b61010f61034f565b60405161011c9190610fb0565b60405180910390f35b61013f600480360381019061013a9190610c83565b610359565b60405161014c9190610e93565b60405180910390f35b61015d610451565b60405161016a9190610fcb565b60405180910390f35b61018d60048036038101906101889190610cd2565b61045a565b60405161019a9190610e93565b60405180910390f35b6101bd60048036038101906101b89190610c1e565b610506565b6040516101ca9190610fb0565b60405180910390f35b6101db61054e565b6040516101e89190610e78565b60405180910390f35b6101f9610574565b6040516102069190610eae565b60405180910390f35b61022960048036038101906102249190610cd2565b610606565b6040516102369190610e93565b60405180910390f35b61025960048036038101906102549190610cd2565b6106f1565b6040516102669190610e93565b60405180910390f35b61028960048036038101906102849190610c47565b61070f565b6040516102969190610fb0565b60405180910390f35b6060600380546102ae906110e0565b80601f01602080910402602001604051908101604052809291908181526020018280546102da906110e0565b80156103275780601f106102fc57610100808354040283529160200191610327565b820191906000526020600020905b81548152906001019060200180831161030a57829003601f168201915b5050505050905090565b600061034561033e610796565b848461079e565b6001905092915050565b6000600254905090565b6000610366848484610969565b6000600160008673ffffffffffffffffffffffffffffffffffffffff1673ffffffffffffffffffffffffffffffffffffffff16815260200190815260200160002060006103b1610796565b73ffffffffffffffffffffffffffffffffffffffff1673ffffffffffffffffffffffffffffffffffffffff16815260200190815260200160002054905082811015610431576040517f08c379a000000000000000000000000000000000000000000000000000000000815260040161042890610f30565b60405180910390fd5b6104458561043d610796565b85840361079e565b60019150509392505050565b60006012905090565b60006104fc610467610796565b848460016000610475610796565b73ffffffffffffffffffffffffffffffffffffffff1673ffffffffffffffffffffffffffffffffffffffff16815260200190815260200160002060008873ffffffffffffffffffffffffffffffffffffffff1673ffffffffffffffffffffffffffffffffffffffff168152602001908152602001600020546104f79190611002565b61079e565b6001905092915050565b60008060008373ffffffffffffffffffffffffffffffffffffffff1673ffffffffffffffffffffffffffffffffffffffff168152602001908152602001600020549050919050565b600560009054906101000a900473ffffffffffffffffffffffffffffffffffffffff1681565b606060048054610583906110e0565b80601f01602080910402602001604051908101604052809291908181526020018280546105af906110e0565b80156105fc5780601f106105d1576101008083540402835291602001916105fc565b820191906000526020600020905b8154815290600101906020018083116105df57829003601f168201915b5050505050905090565b60008060016000610615610796565b73ffffffffffffffffffffffffffffffffffffffff1673ffffffffffffffffffffffffffffffffffffffff16815260200190815260200160002060008573ffffffffffffffffffffffffffffffffffffffff1673ffffffffffffffffffffffffffffffffffffffff168152602001908152602001600020549050828110156106d2576040517f08c379a00000000000000000000000000000000000000000000000000000000081526004016106c990610f90565b60405180910390fd5b6106e66106dd610796565b8585840361079e565b600191505092915050565b60006107056106fe610796565b8484610969565b6001905092915050565b6000600160008473ffffffffffffffffffffffffffffffffffffffff1673ffffffffffffffffffffffffffffffffffffffff16815260200190815260200160002060008373ffffffffffffffffffffffffffffffffffffffff1673ffffffffffffffffffffffffffffffffffffffff16815260200190815260200160002054905092915050565b600033905090565b600073ffffffffffffffffffffffffffffffffffffffff168373ffffffffffffffffffffffffffffffffffffffff16141561080e576040517f08c379a000000000000000000000000000000000000000000000000000000000815260040161080590610f70565b60405180910390fd5b600073ffffffffffffffffffffffffffffffffffffffff168273ffffffffffffffffffffffffffffffffffffffff16141561087e576040517f08c379a000000000000000000000000000000000000000000000000000000000815260040161087590610ef0565b60405180910390fd5b80600160008573ffffffffffffffffffffffffffffffffffffffff1673ffffffffffffffffffffffffffffffffffffffff16815260200190815260200160002060008473ffffffffffffffffffffffffffffffffffffffff1673ffffffffffffffffffffffffffffffffffffffff168152602001908152602001600020819055508173ffffffffffffffffffffffffffffffffffffffff168373ffffffffffffffffffffffffffffffffffffffff167f8c5be1e5ebec7d5bd14f71427d1e84f3dd0314c0f7b2291e5b200ac8c7c3b9258360405161095c9190610fb0565b60405180910390a3505050565b600073ffffffffffffffffffffffffffffffffffffffff168373ffffffffffffffffffffffffffffffffffffffff1614156109d9576040517f08c379a00000000000000000000000000000000000000000000000000000000081526004016109d090610f50565b60405180910390fd5b600073ffffffffffffffffffffffffffffffffffffffff168273ffffffffffffffffffffffffffffffffffffffff161415610a49576040517f08c379a0000000000000000000000000000000000000000000000000000000008152600401610a4090610ed0565b60405180910390fd5b610a54838383610bea565b60008060008573ffffffffffffffffffffffffffffffffffffffff1673ffffffffffffffffffffffffffffffffffffffff16815260200190815260200160002054905081811015610ada576040517f08c379a0000000000000000000000000000000000000000000000000000000008152600401610ad190610f10565b60405180910390fd5b8181036000808673ffffffffffffffffffffffffffffffffffffffff1673ffffffffffffffffffffffffffffffffffffffff16815260200190815260200160002081905550816000808573ffffffffffffffffffffffffffffffffffffffff1673ffffffffffffffffffffffffffffffffffffffff1681526020019081526020016000206000828254610b6d9190611002565b925050819055508273ffffffffffffffffffffffffffffffffffffffff168473ffffffffffffffffffffffffffffffffffffffff167fddf252ad1be2c89b69c2b068fc378daa952ba7f163c4a11628f55a4df523b3ef84604051610bd19190610fb0565b60405180910390a3610be4848484610bef565b50505050565b505050565b505050565b600081359050610c03816113aa565b92915050565b600081359050610c18816113c1565b92915050565b600060208284031215610c3057600080fd5b6000610c3e84828501610bf4565b91505092915050565b60008060408385031215610c5a57600080fd5b6000610c6885828601610bf4565b9250506020610c7985828601610bf4565b9150509250929050565b600080600060608486031215610c9857600080fd5b6000610ca686828701610bf4565b9350506020610cb786828701610bf4565b9250506040610cc886828701610c09565b9150509250925092565b60008060408385031215610ce557600080fd5b6000610cf385828601610bf4565b9250506020610d0485828601610c09565b9150509250929050565b610d1781611058565b82525050565b610d268161106a565b82525050565b6000610d3782610fe6565b610d418185610ff1565b9350610d518185602086016110ad565b610d5a81611170565b840191505092915050565b6000610d72602383610ff1565b9150610d7d82611181565b604082019050919050565b6000610d95602283610ff1565b9150610da0826111d0565b604082019050919050565b6000610db8602683610ff1565b9150610dc38261121f565b604082019050919050565b6000610ddb602883610ff1565b9150610de68261126e565b604082019050919050565b6000610dfe602583610ff1565b9150610e09826112bd565b604082019050919050565b6000610e21602483610ff1565b9150610e2c8261130c565b604082019050919050565b6000610e44602583610ff1565b9150610e4f8261135b565b604082019050919050565b610e6381611096565b82525050565b610e72816110a0565b82525050565b6000602082019050610e8d6000830184610d0e565b92915050565b6000602082019050610ea86000830184610d1d565b92915050565b60006020820190508181036000830152610ec88184610d2c565b905092915050565b60006020820190508181036000830152610ee981610d65565b9050919050565b60006020820190508181036000830152610f0981610d88565b9050919050565b60006020820190508181036000830152610f2981610dab565b9050919050565b60006020820190508181036000830152610f4981610dce565b9050919050565b60006020820190508181036000830152610f6981610df1565b9050919050565b60006020820190508181036000830152610f8981610e14565b9050919050565b60006020820190508181036000830152610fa981610e37565b9050919050565b6000602082019050610fc56000830184610e5a565b92915050565b6000602082019050610fe06000830184610e69565b92915050565b600081519050919050565b600082825260208201905092915050565b600061100d82611096565b915061101883611096565b9250827fffffffffffffffffffffffffffffffffffffffffffffffffffffffffffffffff0382111561104d5761104c611112565b5b828201905092915050565b600061106382611076565b9050919050565b60008115159050919050565b600073ffffffffffffffffffffffffffffffffffffffff82169050919050565b6000819050919050565b600060ff82169050919050565b60005b838110156110cb5780820151818401526020810190506110b0565b838111156110da576000848401525b50505050565b600060028204905060018216806110f857607f821691505b6020821081141561110c5761110b611141565b5b50919050565b7f4e487b7100000000000000000000000000000000000000000000000000000000600052601160045260246000fd5b7f4e487b7100000000000000000000000000000000000000000000000000000000600052602260045260246000fd5b6000601f19601f8301169050919050565b7f45524332303a207472616e7366657220746f20746865207a65726f206164647260008201527f6573730000000000000000000000000000000000000000000000000000000000602082015250565b7f45524332303a20617070726f766520746f20746865207a65726f20616464726560008201527f7373000000000000000000000000000000000000000000000000000000000000602082015250565b7f45524332303a207472616e7366657220616d6f756e742065786365656473206260008201527f616c616e63650000000000000000000000000000000000000000000000000000602082015250565b7f45524332303a207472616e7366657220616d6f756e742065786365656473206160008201527f6c6c6f77616e6365000000000000000000000000000000000000000000000000602082015250565b7f45524332303a207472616e736665722066726f6d20746865207a65726f20616460008201527f6472657373000000000000000000000000000000000000000000000000000000602082015250565b7f45524332303a20617070726f76652066726f6d20746865207a65726f2061646460008201527f7265737300000000000000000000000000000000000000000000000000000000602082015250565b7f45524332303a2064656372656173656420616c6c6f77616e63652062656c6f7760008201527f207a65726f000000000000000000000000000000000000000000000000000000602082015250565b6113b381611058565b81146113be57600080fd5b50565b6113ca81611096565b81146113d557600080fd5b5056fea26469706673582212205d958cb60f7dbbff63cef445d3bfbba2d67b8582ca9d51c1d2e9d2aa56499ad964736f6c63430008030033a264697066735822122023aea7f184d823107793b0baec273920848bf463aa4e44830c7578431e7311d164736f6c63430008030033",
  "immutableReferences": {},
  "source": "// \"SPDX-License-Identifier: UNLICENSED\"\npragma solidity ^0.8.3;\n\nimport \"./ACHouseToken1155.sol\";\nimport \"./ACHouseToken721.sol\";\nimport \"./ACHouseToken20.sol\";\n\nimport \"@openzeppelin/contracts/token/ERC721/ERC721.sol\";\n\ncontract ACHouse  {\n\n    address owner;\n\n    ACHouseToken1155 multitoken;\n    ACHouseToken721 nftToken;\n    ACHouseToken20 fractoken;\n\n    // constructor(address _erc1155token){\n\n    //     owner = msg.sender;\n    //     // token = IERC20(_erc20token);\n    //     multitoken = IERC1155(_erc1155token);\n    // }\n    \n    /** Variables and Event Emitters */\n    struct AuctionPlace {\n        uint256 id;\n        string name;\n    }\n    struct Artist {\n        uint256 id;\n        string name;\n    }\n    struct Participant {\n        uint256 id;\n        string name;\n    }\n    struct NGO {\n        uint256 id;\n        string name;\n    }\n\n    uint auctionPlaceCount = 0;\n    uint artistCount = 0;\n    uint participantCount = 0;\n    uint ngoCount = 0;\n    NGO[] public ngoArray;\n    address[] RegisteredUserAddresses; // might be used??\n\n    // mapping address to type\n    mapping (address => AuctionPlace) AuctionPlaceMapping;\n    mapping (address => Artist) ArtistMapping;\n    mapping (address => Participant ) ParticipantMapping;\n    mapping (address => NGO ) NgoMapping; \n    \n    // User address maps to - Chaities and the donation amount. \n    mapping ( address =>  mapping (address => uint256)) UserNGODonation; \n\n    struct NFTContracts{\n        ACHouseToken721 contracts;\n        address nftcontractAddress;\n    }\n\n    struct fracNFTContracts{\n        ACHouseToken20 contracts;\n        address fraccontractAddress;\n    }\n    mapping (string => NFTContracts) NFTContractsMappings;\n    mapping (string => fracNFTContracts) fracNFTContractsMappings;\n    \n    \n    /** Getters function */\n    function getNftData(string memory _nftName) public view returns (NFTContracts memory){\n        return NFTContractsMappings[_nftName];\n    }\n    \n    function getfracNftData(string memory _shard) public view returns (fracNFTContracts memory){\n        return fracNFTContractsMappings[_shard];\n    }\n\n\n    \n    /**Functions - Registration  */\n    function register(string memory _name, uint _userType) public returns (bool) {\n        require(isUserRegistered(msg.sender) == false, \"User Already registered\");\n\n        //userType { 1: Auction, 2: Artist, 3: Participant}\n        // register user by type\n        if(_userType == 1){\n            AuctionPlace memory ac = AuctionPlace(auctionPlaceCount, _name);\n            auctionPlaceCount++;\n\n            AuctionPlaceMapping[msg.sender] = ac;\n        }else if( _userType == 2){\n            Artist memory ar = Artist(artistCount, _name);\n            artistCount++;\n\n            ArtistMapping[msg.sender] = ar;\n        }else {\n            Participant memory part = Participant(participantCount, _name);\n            participantCount++;\n\n            ParticipantMapping[msg.sender] = part;\n        }\n\n        RegisteredUserAddresses.push(msg.sender);\n        return true;\n    }\n\n    function createNFt() public {\n\n    }\n\n    function fracNFT(string memory _shardName, string memory _shardSymbol, uint256 supply) public {\n        // owner retain - amount of shards (tokes) will be given to the user, if all then end of steps. \n        // if user wants to generate funds, owner retain will be less than 100 and user sets price per shard (token). \n        \n        fractoken = new ACHouseToken20(_shardName, _shardSymbol, supply);\n        \n        fracNFTContracts memory cont = fracNFTContracts(fractoken, address(fractoken));\n        \n        fracNFTContractsMappings[_shardName] = cont;\n    }\n    \n    \n\n    /** after user connects wallet to web3 and gets access to website. \n    Options avaiable for USER:\n        Create NFT \n        Fractionalize NFT\n\n    function createNFT(string memory _name, string memory _symbol, string memory _desc, string memory _imageURL) public {\n\n        // if using ERC1155 - we need to create a JSON object and store it in IPFS or in blockchain. it requires a URI pointed at json file and then minting can take place. \n        // if using ERC721 - only name and symbol is needed to along with unique id for the NFT to create. \n\n        //calls ACHouseToken.mintERC1155 or ACHouseToken.mintERC721 depending on implementation\n    }\n\n    */\n\n    // function createNFT() public {\n\n    //     // if using ERC1155 - we need to create a JSON object and store it in IPFS or in blockchain. it requires a URI pointed at json file and then minting can take place. \n    //     // if using ERC721 - only name and symbol is needed to along with unique id for the NFT to create. \n    //     //calls ACHouseToken.mintERC1155 or ACHouseToken.mintERC721 depending on implementation\n    // }\n\n\n\n    function isUserRegistered( address _address) internal view returns (bool) {\n         \n        for( uint8 j = 0; j < RegisteredUserAddresses.length; j++){\n             \n            if(RegisteredUserAddresses[j] == _address){\n                return (true); // user is registered.\n            }\n        }\n        return (false); // user is not registered.\n    }\n\n}\n",
  "sourcePath": "/home/dinesh/Projects/EthOnline/contracts/ACHouse.sol",
  "compiler": {
    "name": "solc",
    "version": "0.8.3+commit.8d00100c.Emscripten.clang"
  },
  "schemaVersion": "3.3.4",
  "updatedAt": "2021-10-04T02:50:11.164Z",
  "devdoc": {
    "kind": "dev",
    "methods": {},
    "version": 1
  },
  "userdoc": {
    "kind": "user",
    "methods": {
      "getNftData(string)": {
        "notice": "Getters function "
      },
      "register(string,uint256)": {
        "notice": "Functions - Registration  "
      }
    },
    "version": 1
  }
}