{
  "contractName": "ACHouseToken",
  "abi": [
    {
      "inputs": [],
      "stateMutability": "nonpayable",
      "type": "constructor"
    },
    {
      "anonymous": false,
      "inputs": [
        {
          "indexed": true,
          "internalType": "address",
          "name": "owner",
          "type": "address"
        },
        {
          "indexed": true,
          "internalType": "address",
          "name": "spender",
          "type": "address"
        },
        {
          "indexed": false,
          "internalType": "uint256",
          "name": "value",
          "type": "uint256"
        }
      ],
      "name": "Approval",
      "type": "event"
    },
    {
      "anonymous": false,
      "inputs": [
        {
          "indexed": true,
          "internalType": "address",
          "name": "account",
          "type": "address"
        },
        {
          "indexed": true,
          "internalType": "address",
          "name": "operator",
          "type": "address"
        },
        {
          "indexed": false,
          "internalType": "bool",
          "name": "approved",
          "type": "bool"
        }
      ],
      "name": "ApprovalForAll",
      "type": "event"
    },
    {
      "anonymous": false,
      "inputs": [
        {
          "indexed": true,
          "internalType": "address",
          "name": "from",
          "type": "address"
        },
        {
          "indexed": true,
          "internalType": "address",
          "name": "to",
          "type": "address"
        },
        {
          "indexed": false,
          "internalType": "uint256",
          "name": "value",
          "type": "uint256"
        }
      ],
      "name": "Transfer",
      "type": "event"
    },
    {
      "anonymous": false,
      "inputs": [
        {
          "indexed": true,
          "internalType": "address",
          "name": "operator",
          "type": "address"
        },
        {
          "indexed": true,
          "internalType": "address",
          "name": "from",
          "type": "address"
        },
        {
          "indexed": true,
          "internalType": "address",
          "name": "to",
          "type": "address"
        },
        {
          "indexed": false,
          "internalType": "uint256[]",
          "name": "ids",
          "type": "uint256[]"
        },
        {
          "indexed": false,
          "internalType": "uint256[]",
          "name": "values",
          "type": "uint256[]"
        }
      ],
      "name": "TransferBatch",
      "type": "event"
    },
    {
      "anonymous": false,
      "inputs": [
        {
          "indexed": true,
          "internalType": "address",
          "name": "operator",
          "type": "address"
        },
        {
          "indexed": true,
          "internalType": "address",
          "name": "from",
          "type": "address"
        },
        {
          "indexed": true,
          "internalType": "address",
          "name": "to",
          "type": "address"
        },
        {
          "indexed": false,
          "internalType": "uint256",
          "name": "id",
          "type": "uint256"
        },
        {
          "indexed": false,
          "internalType": "uint256",
          "name": "value",
          "type": "uint256"
        }
      ],
      "name": "TransferSingle",
      "type": "event"
    },
    {
      "anonymous": false,
      "inputs": [
        {
          "indexed": false,
          "internalType": "string",
          "name": "value",
          "type": "string"
        },
        {
          "indexed": true,
          "internalType": "uint256",
          "name": "id",
          "type": "uint256"
        }
      ],
      "name": "URI",
      "type": "event"
    },
    {
      "inputs": [
        {
          "internalType": "address",
          "name": "owner",
          "type": "address"
        },
        {
          "internalType": "address",
          "name": "spender",
          "type": "address"
        }
      ],
      "name": "allowance",
      "outputs": [
        {
          "internalType": "uint256",
          "name": "",
          "type": "uint256"
        }
      ],
      "stateMutability": "view",
      "type": "function"
    },
    {
      "inputs": [
        {
          "internalType": "address",
          "name": "spender",
          "type": "address"
        },
        {
          "internalType": "uint256",
          "name": "amount",
          "type": "uint256"
        }
      ],
      "name": "approve",
      "outputs": [
        {
          "internalType": "bool",
          "name": "",
          "type": "bool"
        }
      ],
      "stateMutability": "nonpayable",
      "type": "function"
    },
    {
      "inputs": [
        {
          "internalType": "address",
          "name": "account",
          "type": "address"
        },
        {
          "internalType": "uint256",
          "name": "id",
          "type": "uint256"
        }
      ],
      "name": "balanceOf",
      "outputs": [
        {
          "internalType": "uint256",
          "name": "",
          "type": "uint256"
        }
      ],
      "stateMutability": "view",
      "type": "function"
    },
    {
      "inputs": [
        {
          "internalType": "address",
          "name": "account",
          "type": "address"
        }
      ],
      "name": "balanceOf",
      "outputs": [
        {
          "internalType": "uint256",
          "name": "",
          "type": "uint256"
        }
      ],
      "stateMutability": "view",
      "type": "function"
    },
    {
      "inputs": [
        {
          "internalType": "address[]",
          "name": "accounts",
          "type": "address[]"
        },
        {
          "internalType": "uint256[]",
          "name": "ids",
          "type": "uint256[]"
        }
      ],
      "name": "balanceOfBatch",
      "outputs": [
        {
          "internalType": "uint256[]",
          "name": "",
          "type": "uint256[]"
        }
      ],
      "stateMutability": "view",
      "type": "function"
    },
    {
      "inputs": [],
      "name": "decimals",
      "outputs": [
        {
          "internalType": "uint8",
          "name": "",
          "type": "uint8"
        }
      ],
      "stateMutability": "view",
      "type": "function"
    },
    {
      "inputs": [
        {
          "internalType": "address",
          "name": "spender",
          "type": "address"
        },
        {
          "internalType": "uint256",
          "name": "subtractedValue",
          "type": "uint256"
        }
      ],
      "name": "decreaseAllowance",
      "outputs": [
        {
          "internalType": "bool",
          "name": "",
          "type": "bool"
        }
      ],
      "stateMutability": "nonpayable",
      "type": "function"
    },
    {
      "inputs": [
        {
          "internalType": "address",
          "name": "spender",
          "type": "address"
        },
        {
          "internalType": "uint256",
          "name": "addedValue",
          "type": "uint256"
        }
      ],
      "name": "increaseAllowance",
      "outputs": [
        {
          "internalType": "bool",
          "name": "",
          "type": "bool"
        }
      ],
      "stateMutability": "nonpayable",
      "type": "function"
    },
    {
      "inputs": [
        {
          "internalType": "address",
          "name": "account",
          "type": "address"
        },
        {
          "internalType": "address",
          "name": "operator",
          "type": "address"
        }
      ],
      "name": "isApprovedForAll",
      "outputs": [
        {
          "internalType": "bool",
          "name": "",
          "type": "bool"
        }
      ],
      "stateMutability": "view",
      "type": "function"
    },
    {
      "inputs": [],
      "name": "name",
      "outputs": [
        {
          "internalType": "string",
          "name": "",
          "type": "string"
        }
      ],
      "stateMutability": "view",
      "type": "function"
    },
    {
      "inputs": [
        {
          "internalType": "address",
          "name": "from",
          "type": "address"
        },
        {
          "internalType": "address",
          "name": "to",
          "type": "address"
        },
        {
          "internalType": "uint256[]",
          "name": "ids",
          "type": "uint256[]"
        },
        {
          "internalType": "uint256[]",
          "name": "amounts",
          "type": "uint256[]"
        },
        {
          "internalType": "bytes",
          "name": "data",
          "type": "bytes"
        }
      ],
      "name": "safeBatchTransferFrom",
      "outputs": [],
      "stateMutability": "nonpayable",
      "type": "function"
    },
    {
      "inputs": [
        {
          "internalType": "address",
          "name": "from",
          "type": "address"
        },
        {
          "internalType": "address",
          "name": "to",
          "type": "address"
        },
        {
          "internalType": "uint256",
          "name": "id",
          "type": "uint256"
        },
        {
          "internalType": "uint256",
          "name": "amount",
          "type": "uint256"
        },
        {
          "internalType": "bytes",
          "name": "data",
          "type": "bytes"
        }
      ],
      "name": "safeTransferFrom",
      "outputs": [],
      "stateMutability": "nonpayable",
      "type": "function"
    },
    {
      "inputs": [
        {
          "internalType": "address",
          "name": "operator",
          "type": "address"
        },
        {
          "internalType": "bool",
          "name": "approved",
          "type": "bool"
        }
      ],
      "name": "setApprovalForAll",
      "outputs": [],
      "stateMutability": "nonpayable",
      "type": "function"
    },
    {
      "inputs": [
        {
          "internalType": "bytes4",
          "name": "interfaceId",
          "type": "bytes4"
        }
      ],
      "name": "supportsInterface",
      "outputs": [
        {
          "internalType": "bool",
          "name": "",
          "type": "bool"
        }
      ],
      "stateMutability": "view",
      "type": "function"
    },
    {
      "inputs": [],
      "name": "symbol",
      "outputs": [
        {
          "internalType": "string",
          "name": "",
          "type": "string"
        }
      ],
      "stateMutability": "view",
      "type": "function"
    },
    {
      "inputs": [],
      "name": "totalSupply",
      "outputs": [
        {
          "internalType": "uint256",
          "name": "",
          "type": "uint256"
        }
      ],
      "stateMutability": "view",
      "type": "function"
    },
    {
      "inputs": [
        {
          "internalType": "address",
          "name": "recipient",
          "type": "address"
        },
        {
          "internalType": "uint256",
          "name": "amount",
          "type": "uint256"
        }
      ],
      "name": "transfer",
      "outputs": [
        {
          "internalType": "bool",
          "name": "",
          "type": "bool"
        }
      ],
      "stateMutability": "nonpayable",
      "type": "function"
    },
    {
      "inputs": [
        {
          "internalType": "address",
          "name": "sender",
          "type": "address"
        },
        {
          "internalType": "address",
          "name": "recipient",
          "type": "address"
        },
        {
          "internalType": "uint256",
          "name": "amount",
          "type": "uint256"
        }
      ],
      "name": "transferFrom",
      "outputs": [
        {
          "internalType": "bool",
          "name": "",
          "type": "bool"
        }
      ],
      "stateMutability": "nonpayable",
      "type": "function"
    },
    {
      "inputs": [
        {
          "internalType": "uint256",
          "name": "",
          "type": "uint256"
        }
      ],
      "name": "uri",
      "outputs": [
        {
          "internalType": "string",
          "name": "",
          "type": "string"
        }
      ],
      "stateMutability": "view",
      "type": "function"
    },
    {
      "inputs": [
        {
          "internalType": "address",
          "name": "_address",
          "type": "address"
        }
      ],
      "name": "setParentAddress",
      "outputs": [],
      "stateMutability": "nonpayable",
      "type": "function"
    },
    {
      "inputs": [
        {
          "internalType": "address",
          "name": "_ownerAddress",
          "type": "address"
        },
        {
          "internalType": "string",
          "name": "_uri",
          "type": "string"
        },
        {
          "internalType": "uint256",
          "name": "_id",
          "type": "uint256"
        },
        {
          "internalType": "uint256",
          "name": "_supply",
          "type": "uint256"
        }
      ],
      "name": "mintNFT1155",
      "outputs": [],
      "stateMutability": "nonpayable",
      "type": "function"
    }
  ],
  "bytecode": "0x60806040523480156200001157600080fd5b5060405180602001604052806000815250604051806020016040528060008152506040518060200160405280600081525062000053816200008e60201b60201c565b5081600690805190602001906200006c929190620000aa565b50806007908051906020019062000085929190620000aa565b505050620001bf565b8060029080519060200190620000a6929190620000aa565b5050565b828054620000b8906200015a565b90600052602060002090601f016020900481019282620000dc576000855562000128565b82601f10620000f757805160ff191683800117855562000128565b8280016001018555821562000128579182015b82811115620001275782518255916020019190600101906200010a565b5b5090506200013791906200013b565b5090565b5b80821115620001565760008160009055506001016200013c565b5090565b600060028204905060018216806200017357607f821691505b602082108114156200018a576200018962000190565b5b50919050565b7f4e487b7100000000000000000000000000000000000000000000000000000000600052602260045260246000fd5b613b2f80620001cf6000396000f3fe608060405234801561001057600080fd5b50600436106101365760003560e01c80633c3370de116100b8578063a457c2d71161007c578063a457c2d714610387578063a9059cbb146103b7578063dd62ed3e146103e7578063e985e9c514610417578063f242432a14610447578063fa5afe401461046357610136565b80633c3370de146102d15780634e1273f4146102ed57806370a082311461031d57806395d89b411461034d578063a22cb4651461036b57610136565b806318160ddd116100ff57806318160ddd1461021957806323b872dd146102375780632eb2c2d614610267578063313ce5671461028357806339509351146102a157610136565b8062fdd58e1461013b57806301ffc9a71461016b57806306fdde031461019b578063095ea7b3146101b95780630e89341c146101e9575b600080fd5b610155600480360381019061015091906127d4565b61047f565b6040516101629190613038565b60405180910390f35b6101856004803603810190610180919061287c565b610548565b6040516101929190612dbb565b60405180910390f35b6101a361062a565b6040516101b09190612dd6565b60405180910390f35b6101d360048036038101906101ce91906127d4565b6106bc565b6040516101e09190612dbb565b60405180910390f35b61020360048036038101906101fe91906128ce565b6106da565b6040516102109190612dd6565b60405180910390f35b61022161076e565b60405161022e9190613038565b60405180910390f35b610251600480360381019061024c919061263f565b610778565b60405161025e9190612dbb565b60405180910390f35b610281600480360381019061027c9190612580565b610870565b005b61028b610911565b604051610298919061307c565b60405180910390f35b6102bb60048036038101906102b691906127d4565b61091a565b6040516102c89190612dbb565b60405180910390f35b6102eb60048036038101906102e69190612759565b6109c6565b005b61030760048036038101906103029190612810565b6109f1565b6040516103149190612d62565b60405180910390f35b6103376004803603810190610332919061251b565b610ba2565b6040516103449190613038565b60405180910390f35b610355610beb565b6040516103629190612dd6565b60405180910390f35b6103856004803603810190610380919061271d565b610c7d565b005b6103a1600480360381019061039c91906127d4565b610dfe565b6040516103ae9190612dbb565b60405180910390f35b6103d160048036038101906103cc91906127d4565b610ee9565b6040516103de9190612dbb565b60405180910390f35b61040160048036038101906103fc9190612544565b610f07565b60405161040e9190613038565b60405180910390f35b610431600480360381019061042c9190612544565b610f8e565b60405161043e9190612dbb565b60405180910390f35b610461600480360381019061045c919061268e565b611022565b005b61047d6004803603810190610478919061251b565b6110c3565b005b60008073ffffffffffffffffffffffffffffffffffffffff168373ffffffffffffffffffffffffffffffffffffffff1614156104f0576040517f08c379a00000000000000000000000000000000000000000000000000000000081526004016104e790612e58565b60405180910390fd5b60008083815260200190815260200160002060008473ffffffffffffffffffffffffffffffffffffffff1673ffffffffffffffffffffffffffffffffffffffff16815260200190815260200160002054905092915050565b60007fd9b67a26000000000000000000000000000000000000000000000000000000007bffffffffffffffffffffffffffffffffffffffffffffffffffffffff1916827bffffffffffffffffffffffffffffffffffffffffffffffffffffffff1916148061061357507f0e89341c000000000000000000000000000000000000000000000000000000007bffffffffffffffffffffffffffffffffffffffffffffffffffffffff1916827bffffffffffffffffffffffffffffffffffffffffffffffffffffffff1916145b80610623575061062282611107565b5b9050919050565b60606006805461063990613300565b80601f016020809104026020016040519081016040528092919081815260200182805461066590613300565b80156106b25780601f10610687576101008083540402835291602001916106b2565b820191906000526020600020905b81548152906001019060200180831161069557829003601f168201915b5050505050905090565b60006106d06106c9611171565b8484611179565b6001905092915050565b6060600280546106e990613300565b80601f016020809104026020016040519081016040528092919081815260200182805461071590613300565b80156107625780601f1061073757610100808354040283529160200191610762565b820191906000526020600020905b81548152906001019060200180831161074557829003601f168201915b50505050509050919050565b6000600554905090565b6000610785848484611344565b6000600460008673ffffffffffffffffffffffffffffffffffffffff1673ffffffffffffffffffffffffffffffffffffffff16815260200190815260200160002060006107d0611171565b73ffffffffffffffffffffffffffffffffffffffff1673ffffffffffffffffffffffffffffffffffffffff16815260200190815260200160002054905082811015610850576040517f08c379a000000000000000000000000000000000000000000000000000000000815260040161084790612f38565b60405180910390fd5b6108648561085c611171565b858403611179565b60019150509392505050565b610878611171565b73ffffffffffffffffffffffffffffffffffffffff168573ffffffffffffffffffffffffffffffffffffffff1614806108be57506108bd856108b8611171565b610f8e565b5b6108fd576040517f08c379a00000000000000000000000000000000000000000000000000000000081526004016108f490612ef8565b60405180910390fd5b61090a85858585856115c8565b5050505050565b60006012905090565b60006109bc610927611171565b848460046000610935611171565b73ffffffffffffffffffffffffffffffffffffffff1673ffffffffffffffffffffffffffffffffffffffff16815260200190815260200160002060008873ffffffffffffffffffffffffffffffffffffffff1673ffffffffffffffffffffffffffffffffffffffff168152602001908152602001600020546109b791906131e7565b611179565b6001905092915050565b6109cf83611928565b6109eb8483600160405180602001604052806000815250611942565b50505050565b60608151835114610a37576040517f08c379a0000000000000000000000000000000000000000000000000000000008152600401610a2e90612fb8565b60405180910390fd5b6000835167ffffffffffffffff811115610a7a577f4e487b7100000000000000000000000000000000000000000000000000000000600052604160045260246000fd5b604051908082528060200260200182016040528015610aa85781602001602082028036833780820191505090505b50905060005b8451811015610b9757610b41858281518110610af3577f4e487b7100000000000000000000000000000000000000000000000000000000600052603260045260246000fd5b6020026020010151858381518110610b34577f4e487b7100000000000000000000000000000000000000000000000000000000600052603260045260246000fd5b602002602001015161047f565b828281518110610b7a577f4e487b7100000000000000000000000000000000000000000000000000000000600052603260045260246000fd5b60200260200101818152505080610b9090613363565b9050610aae565b508091505092915050565b6000600360008373ffffffffffffffffffffffffffffffffffffffff1673ffffffffffffffffffffffffffffffffffffffff168152602001908152602001600020549050919050565b606060078054610bfa90613300565b80601f0160208091040260200160405190810160405280929190818152602001828054610c2690613300565b8015610c735780601f10610c4857610100808354040283529160200191610c73565b820191906000526020600020905b815481529060010190602001808311610c5657829003601f168201915b5050505050905090565b8173ffffffffffffffffffffffffffffffffffffffff16610c9c611171565b73ffffffffffffffffffffffffffffffffffffffff161415610cf3576040517f08c379a0000000000000000000000000000000000000000000000000000000008152600401610cea90612f98565b60405180910390fd5b8060016000610d00611171565b73ffffffffffffffffffffffffffffffffffffffff1673ffffffffffffffffffffffffffffffffffffffff16815260200190815260200160002060008473ffffffffffffffffffffffffffffffffffffffff1673ffffffffffffffffffffffffffffffffffffffff16815260200190815260200160002060006101000a81548160ff0219169083151502179055508173ffffffffffffffffffffffffffffffffffffffff16610dad611171565b73ffffffffffffffffffffffffffffffffffffffff167f17307eab39ab6107e8899845ad3d59bd9653f200f220920489ca2b5937696c3183604051610df29190612dbb565b60405180910390a35050565b60008060046000610e0d611171565b73ffffffffffffffffffffffffffffffffffffffff1673ffffffffffffffffffffffffffffffffffffffff16815260200190815260200160002060008573ffffffffffffffffffffffffffffffffffffffff1673ffffffffffffffffffffffffffffffffffffffff16815260200190815260200160002054905082811015610eca576040517f08c379a0000000000000000000000000000000000000000000000000000000008152600401610ec190613018565b60405180910390fd5b610ede610ed5611171565b85858403611179565b600191505092915050565b6000610efd610ef6611171565b8484611344565b6001905092915050565b6000600460008473ffffffffffffffffffffffffffffffffffffffff1673ffffffffffffffffffffffffffffffffffffffff16815260200190815260200160002060008373ffffffffffffffffffffffffffffffffffffffff1673ffffffffffffffffffffffffffffffffffffffff16815260200190815260200160002054905092915050565b6000600160008473ffffffffffffffffffffffffffffffffffffffff1673ffffffffffffffffffffffffffffffffffffffff16815260200190815260200160002060008373ffffffffffffffffffffffffffffffffffffffff1673ffffffffffffffffffffffffffffffffffffffff16815260200190815260200160002060009054906101000a900460ff16905092915050565b61102a611171565b73ffffffffffffffffffffffffffffffffffffffff168573ffffffffffffffffffffffffffffffffffffffff161480611070575061106f8561106a611171565b610f8e565b5b6110af576040517f08c379a00000000000000000000000000000000000000000000000000000000081526004016110a690612e98565b60405180910390fd5b6110bc8585858585611ad8565b5050505050565b80600860006101000a81548173ffffffffffffffffffffffffffffffffffffffff021916908373ffffffffffffffffffffffffffffffffffffffff16021790555050565b60007f01ffc9a7000000000000000000000000000000000000000000000000000000007bffffffffffffffffffffffffffffffffffffffffffffffffffffffff1916827bffffffffffffffffffffffffffffffffffffffffffffffffffffffff1916149050919050565b600033905090565b600073ffffffffffffffffffffffffffffffffffffffff168373ffffffffffffffffffffffffffffffffffffffff1614156111e9576040517f08c379a00000000000000000000000000000000000000000000000000000000081526004016111e090612f78565b60405180910390fd5b600073ffffffffffffffffffffffffffffffffffffffff168273ffffffffffffffffffffffffffffffffffffffff161415611259576040517f08c379a000000000000000000000000000000000000000000000000000000000815260040161125090612e78565b60405180910390fd5b80600460008573ffffffffffffffffffffffffffffffffffffffff1673ffffffffffffffffffffffffffffffffffffffff16815260200190815260200160002060008473ffffffffffffffffffffffffffffffffffffffff1673ffffffffffffffffffffffffffffffffffffffff168152602001908152602001600020819055508173ffffffffffffffffffffffffffffffffffffffff168373ffffffffffffffffffffffffffffffffffffffff167f8c5be1e5ebec7d5bd14f71427d1e84f3dd0314c0f7b2291e5b200ac8c7c3b925836040516113379190613038565b60405180910390a3505050565b600073ffffffffffffffffffffffffffffffffffffffff168373ffffffffffffffffffffffffffffffffffffffff1614156113b4576040517f08c379a00000000000000000000000000000000000000000000000000000000081526004016113ab90612f58565b60405180910390fd5b600073ffffffffffffffffffffffffffffffffffffffff168273ffffffffffffffffffffffffffffffffffffffff161415611424576040517f08c379a000000000000000000000000000000000000000000000000000000000815260040161141b90612e18565b60405180910390fd5b61142f838383611d5a565b6000600360008573ffffffffffffffffffffffffffffffffffffffff1673ffffffffffffffffffffffffffffffffffffffff168152602001908152602001600020549050818110156114b6576040517f08c379a00000000000000000000000000000000000000000000000000000000081526004016114ad90612eb8565b60405180910390fd5b818103600360008673ffffffffffffffffffffffffffffffffffffffff1673ffffffffffffffffffffffffffffffffffffffff1681526020019081526020016000208190555081600360008573ffffffffffffffffffffffffffffffffffffffff1673ffffffffffffffffffffffffffffffffffffffff168152602001908152602001600020600082825461154b91906131e7565b925050819055508273ffffffffffffffffffffffffffffffffffffffff168473ffffffffffffffffffffffffffffffffffffffff167fddf252ad1be2c89b69c2b068fc378daa952ba7f163c4a11628f55a4df523b3ef846040516115af9190613038565b60405180910390a36115c2848484611d5f565b50505050565b815183511461160c576040517f08c379a000000000000000000000000000000000000000000000000000000000815260040161160390612fd8565b60405180910390fd5b600073ffffffffffffffffffffffffffffffffffffffff168473ffffffffffffffffffffffffffffffffffffffff16141561167c576040517f08c379a000000000000000000000000000000000000000000000000000000000815260040161167390612ed8565b60405180910390fd5b6000611686611171565b9050611696818787878787611d64565b60005b84518110156118935760008582815181106116dd577f4e487b7100000000000000000000000000000000000000000000000000000000600052603260045260246000fd5b602002602001015190506000858381518110611722577f4e487b7100000000000000000000000000000000000000000000000000000000600052603260045260246000fd5b60200260200101519050600080600084815260200190815260200160002060008b73ffffffffffffffffffffffffffffffffffffffff1673ffffffffffffffffffffffffffffffffffffffff168152602001908152602001600020549050818110156117c3576040517f08c379a00000000000000000000000000000000000000000000000000000000081526004016117ba90612f18565b60405180910390fd5b81810360008085815260200190815260200160002060008c73ffffffffffffffffffffffffffffffffffffffff1673ffffffffffffffffffffffffffffffffffffffff168152602001908152602001600020819055508160008085815260200190815260200160002060008b73ffffffffffffffffffffffffffffffffffffffff1673ffffffffffffffffffffffffffffffffffffffff168152602001908152602001600020600082825461187891906131e7565b925050819055505050508061188c90613363565b9050611699565b508473ffffffffffffffffffffffffffffffffffffffff168673ffffffffffffffffffffffffffffffffffffffff168273ffffffffffffffffffffffffffffffffffffffff167f4a39dc06d4c0dbc64b70af90fd698a233a518aa5d07e595d983b8c0526c8f7fb878760405161190a929190612d84565b60405180910390a4611920818787878787611d6c565b505050505050565b806002908051906020019061193e929190612213565b5050565b600073ffffffffffffffffffffffffffffffffffffffff168473ffffffffffffffffffffffffffffffffffffffff1614156119b2576040517f08c379a00000000000000000000000000000000000000000000000000000000081526004016119a990612ff8565b60405180910390fd5b60006119bc611171565b90506119dd816000876119ce88611f53565b6119d788611f53565b87611d64565b8260008086815260200190815260200160002060008773ffffffffffffffffffffffffffffffffffffffff1673ffffffffffffffffffffffffffffffffffffffff1681526020019081526020016000206000828254611a3c91906131e7565b925050819055508473ffffffffffffffffffffffffffffffffffffffff16600073ffffffffffffffffffffffffffffffffffffffff168273ffffffffffffffffffffffffffffffffffffffff167fc3d58168c5ae7397731d063d5bbf3d657854427343f4c083240f7aacaa2d0f628787604051611aba929190613053565b60405180910390a4611ad181600087878787612019565b5050505050565b600073ffffffffffffffffffffffffffffffffffffffff168473ffffffffffffffffffffffffffffffffffffffff161415611b48576040517f08c379a0000000000000000000000000000000000000000000000000000000008152600401611b3f90612ed8565b60405180910390fd5b6000611b52611171565b9050611b72818787611b6388611f53565b611b6c88611f53565b87611d64565b600080600086815260200190815260200160002060008873ffffffffffffffffffffffffffffffffffffffff1673ffffffffffffffffffffffffffffffffffffffff16815260200190815260200160002054905083811015611c09576040517f08c379a0000000000000000000000000000000000000000000000000000000008152600401611c0090612f18565b60405180910390fd5b83810360008087815260200190815260200160002060008973ffffffffffffffffffffffffffffffffffffffff1673ffffffffffffffffffffffffffffffffffffffff168152602001908152602001600020819055508360008087815260200190815260200160002060008873ffffffffffffffffffffffffffffffffffffffff1673ffffffffffffffffffffffffffffffffffffffff1681526020019081526020016000206000828254611cbe91906131e7565b925050819055508573ffffffffffffffffffffffffffffffffffffffff168773ffffffffffffffffffffffffffffffffffffffff168373ffffffffffffffffffffffffffffffffffffffff167fc3d58168c5ae7397731d063d5bbf3d657854427343f4c083240f7aacaa2d0f628888604051611d3b929190613053565b60405180910390a4611d51828888888888612019565b50505050505050565b505050565b505050565b505050505050565b611d8b8473ffffffffffffffffffffffffffffffffffffffff16612200565b15611f4b578373ffffffffffffffffffffffffffffffffffffffff1663bc197c8187878686866040518663ffffffff1660e01b8152600401611dd1959493929190612ca0565b602060405180830381600087803b158015611deb57600080fd5b505af1925050508015611e1c57506040513d601f19601f82011682018060405250810190611e1991906128a5565b60015b611ec257611e28613439565b806308c379a01415611e855750611e3d613a07565b80611e485750611e87565b806040517f08c379a0000000000000000000000000000000000000000000000000000000008152600401611e7c9190612dd6565b60405180910390fd5b505b6040517f08c379a0000000000000000000000000000000000000000000000000000000008152600401611eb990612df8565b60405180910390fd5b63bc197c8160e01b7bffffffffffffffffffffffffffffffffffffffffffffffffffffffff1916817bffffffffffffffffffffffffffffffffffffffffffffffffffffffff191614611f49576040517f08c379a0000000000000000000000000000000000000000000000000000000008152600401611f4090612e38565b60405180910390fd5b505b505050505050565b60606000600167ffffffffffffffff811115611f98577f4e487b7100000000000000000000000000000000000000000000000000000000600052604160045260246000fd5b604051908082528060200260200182016040528015611fc65781602001602082028036833780820191505090505b5090508281600081518110612004577f4e487b7100000000000000000000000000000000000000000000000000000000600052603260045260246000fd5b60200260200101818152505080915050919050565b6120388473ffffffffffffffffffffffffffffffffffffffff16612200565b156121f8578373ffffffffffffffffffffffffffffffffffffffff1663f23a6e6187878686866040518663ffffffff1660e01b815260040161207e959493929190612d08565b602060405180830381600087803b15801561209857600080fd5b505af19250505080156120c957506040513d601f19601f820116820180604052508101906120c691906128a5565b60015b61216f576120d5613439565b806308c379a0141561213257506120ea613a07565b806120f55750612134565b806040517f08c379a00000000000000000000000000000000000000000000000000000000081526004016121299190612dd6565b60405180910390fd5b505b6040517f08c379a000000000000000000000000000000000000000000000000000000000815260040161216690612df8565b60405180910390fd5b63f23a6e6160e01b7bffffffffffffffffffffffffffffffffffffffffffffffffffffffff1916817bffffffffffffffffffffffffffffffffffffffffffffffffffffffff1916146121f6576040517f08c379a00000000000000000000000000000000000000000000000000000000081526004016121ed90612e38565b60405180910390fd5b505b505050505050565b600080823b905060008111915050919050565b82805461221f90613300565b90600052602060002090601f0160209004810192826122415760008555612288565b82601f1061225a57805160ff1916838001178555612288565b82800160010185558215612288579182015b8281111561228757825182559160200191906001019061226c565b5b5090506122959190612299565b5090565b5b808211156122b257600081600090555060010161229a565b5090565b60006122c96122c4846130bc565b613097565b905080838252602082019050828560208602820111156122e857600080fd5b60005b8581101561231857816122fe888261240a565b8452602084019350602083019250506001810190506122eb565b5050509392505050565b6000612335612330846130e8565b613097565b9050808382526020820190508285602086028201111561235457600080fd5b60005b85811015612384578161236a8882612506565b845260208401935060208301925050600181019050612357565b5050509392505050565b60006123a161239c84613114565b613097565b9050828152602081018484840111156123b957600080fd5b6123c48482856132be565b509392505050565b60006123df6123da84613145565b613097565b9050828152602081018484840111156123f757600080fd5b6124028482856132be565b509392505050565b60008135905061241981613a9d565b92915050565b600082601f83011261243057600080fd5b81356124408482602086016122b6565b91505092915050565b600082601f83011261245a57600080fd5b813561246a848260208601612322565b91505092915050565b60008135905061248281613ab4565b92915050565b60008135905061249781613acb565b92915050565b6000815190506124ac81613acb565b92915050565b600082601f8301126124c357600080fd5b81356124d384826020860161238e565b91505092915050565b600082601f8301126124ed57600080fd5b81356124fd8482602086016123cc565b91505092915050565b60008135905061251581613ae2565b92915050565b60006020828403121561252d57600080fd5b600061253b8482850161240a565b91505092915050565b6000806040838503121561255757600080fd5b60006125658582860161240a565b92505060206125768582860161240a565b9150509250929050565b600080600080600060a0868803121561259857600080fd5b60006125a68882890161240a565b95505060206125b78882890161240a565b945050604086013567ffffffffffffffff8111156125d457600080fd5b6125e088828901612449565b935050606086013567ffffffffffffffff8111156125fd57600080fd5b61260988828901612449565b925050608086013567ffffffffffffffff81111561262657600080fd5b612632888289016124b2565b9150509295509295909350565b60008060006060848603121561265457600080fd5b60006126628682870161240a565b93505060206126738682870161240a565b925050604061268486828701612506565b9150509250925092565b600080600080600060a086880312156126a657600080fd5b60006126b48882890161240a565b95505060206126c58882890161240a565b94505060406126d688828901612506565b93505060606126e788828901612506565b925050608086013567ffffffffffffffff81111561270457600080fd5b612710888289016124b2565b9150509295509295909350565b6000806040838503121561273057600080fd5b600061273e8582860161240a565b925050602061274f85828601612473565b9150509250929050565b6000806000806080858703121561276f57600080fd5b600061277d8782880161240a565b945050602085013567ffffffffffffffff81111561279a57600080fd5b6127a6878288016124dc565b93505060406127b787828801612506565b92505060606127c887828801612506565b91505092959194509250565b600080604083850312156127e757600080fd5b60006127f58582860161240a565b925050602061280685828601612506565b9150509250929050565b6000806040838503121561282357600080fd5b600083013567ffffffffffffffff81111561283d57600080fd5b6128498582860161241f565b925050602083013567ffffffffffffffff81111561286657600080fd5b61287285828601612449565b9150509250929050565b60006020828403121561288e57600080fd5b600061289c84828501612488565b91505092915050565b6000602082840312156128b757600080fd5b60006128c58482850161249d565b91505092915050565b6000602082840312156128e057600080fd5b60006128ee84828501612506565b91505092915050565b60006129038383612c73565b60208301905092915050565b6129188161323d565b82525050565b600061292982613186565b61293381856131b4565b935061293e83613176565b8060005b8381101561296f57815161295688826128f7565b9750612961836131a7565b925050600181019050612942565b5085935050505092915050565b6129858161324f565b82525050565b600061299682613191565b6129a081856131c5565b93506129b08185602086016132cd565b6129b98161345b565b840191505092915050565b60006129cf8261319c565b6129d981856131d6565b93506129e98185602086016132cd565b6129f28161345b565b840191505092915050565b6000612a0a6034836131d6565b9150612a1582613479565b604082019050919050565b6000612a2d6023836131d6565b9150612a38826134c8565b604082019050919050565b6000612a506028836131d6565b9150612a5b82613517565b604082019050919050565b6000612a73602b836131d6565b9150612a7e82613566565b604082019050919050565b6000612a966022836131d6565b9150612aa1826135b5565b604082019050919050565b6000612ab96029836131d6565b9150612ac482613604565b604082019050919050565b6000612adc6026836131d6565b9150612ae782613653565b604082019050919050565b6000612aff6025836131d6565b9150612b0a826136a2565b604082019050919050565b6000612b226032836131d6565b9150612b2d826136f1565b604082019050919050565b6000612b45602a836131d6565b9150612b5082613740565b604082019050919050565b6000612b686028836131d6565b9150612b738261378f565b604082019050919050565b6000612b8b6025836131d6565b9150612b96826137de565b604082019050919050565b6000612bae6024836131d6565b9150612bb98261382d565b604082019050919050565b6000612bd16029836131d6565b9150612bdc8261387c565b604082019050919050565b6000612bf46029836131d6565b9150612bff826138cb565b604082019050919050565b6000612c176028836131d6565b9150612c228261391a565b604082019050919050565b6000612c3a6021836131d6565b9150612c4582613969565b604082019050919050565b6000612c5d6025836131d6565b9150612c68826139b8565b604082019050919050565b612c7c816132a7565b82525050565b612c8b816132a7565b82525050565b612c9a816132b1565b82525050565b600060a082019050612cb5600083018861290f565b612cc2602083018761290f565b8181036040830152612cd4818661291e565b90508181036060830152612ce8818561291e565b90508181036080830152612cfc818461298b565b90509695505050505050565b600060a082019050612d1d600083018861290f565b612d2a602083018761290f565b612d376040830186612c82565b612d446060830185612c82565b8181036080830152612d56818461298b565b90509695505050505050565b60006020820190508181036000830152612d7c818461291e565b905092915050565b60006040820190508181036000830152612d9e818561291e565b90508181036020830152612db2818461291e565b90509392505050565b6000602082019050612dd0600083018461297c565b92915050565b60006020820190508181036000830152612df081846129c4565b905092915050565b60006020820190508181036000830152612e11816129fd565b9050919050565b60006020820190508181036000830152612e3181612a20565b9050919050565b60006020820190508181036000830152612e5181612a43565b9050919050565b60006020820190508181036000830152612e7181612a66565b9050919050565b60006020820190508181036000830152612e9181612a89565b9050919050565b60006020820190508181036000830152612eb181612aac565b9050919050565b60006020820190508181036000830152612ed181612acf565b9050919050565b60006020820190508181036000830152612ef181612af2565b9050919050565b60006020820190508181036000830152612f1181612b15565b9050919050565b60006020820190508181036000830152612f3181612b38565b9050919050565b60006020820190508181036000830152612f5181612b5b565b9050919050565b60006020820190508181036000830152612f7181612b7e565b9050919050565b60006020820190508181036000830152612f9181612ba1565b9050919050565b60006020820190508181036000830152612fb181612bc4565b9050919050565b60006020820190508181036000830152612fd181612be7565b9050919050565b60006020820190508181036000830152612ff181612c0a565b9050919050565b6000602082019050818103600083015261301181612c2d565b9050919050565b6000602082019050818103600083015261303181612c50565b9050919050565b600060208201905061304d6000830184612c82565b92915050565b60006040820190506130686000830185612c82565b6130756020830184612c82565b9392505050565b60006020820190506130916000830184612c91565b92915050565b60006130a16130b2565b90506130ad8282613332565b919050565b6000604051905090565b600067ffffffffffffffff8211156130d7576130d661340a565b5b602082029050602081019050919050565b600067ffffffffffffffff8211156131035761310261340a565b5b602082029050602081019050919050565b600067ffffffffffffffff82111561312f5761312e61340a565b5b6131388261345b565b9050602081019050919050565b600067ffffffffffffffff8211156131605761315f61340a565b5b6131698261345b565b9050602081019050919050565b6000819050602082019050919050565b600081519050919050565b600081519050919050565b600081519050919050565b6000602082019050919050565b600082825260208201905092915050565b600082825260208201905092915050565b600082825260208201905092915050565b60006131f2826132a7565b91506131fd836132a7565b9250827fffffffffffffffffffffffffffffffffffffffffffffffffffffffffffffffff03821115613232576132316133ac565b5b828201905092915050565b600061324882613287565b9050919050565b60008115159050919050565b60007fffffffff0000000000000000000000000000000000000000000000000000000082169050919050565b600073ffffffffffffffffffffffffffffffffffffffff82169050919050565b6000819050919050565b600060ff82169050919050565b82818337600083830152505050565b60005b838110156132eb5780820151818401526020810190506132d0565b838111156132fa576000848401525b50505050565b6000600282049050600182168061331857607f821691505b6020821081141561332c5761332b6133db565b5b50919050565b61333b8261345b565b810181811067ffffffffffffffff8211171561335a5761335961340a565b5b80604052505050565b600061336e826132a7565b91507fffffffffffffffffffffffffffffffffffffffffffffffffffffffffffffffff8214156133a1576133a06133ac565b5b600182019050919050565b7f4e487b7100000000000000000000000000000000000000000000000000000000600052601160045260246000fd5b7f4e487b7100000000000000000000000000000000000000000000000000000000600052602260045260246000fd5b7f4e487b7100000000000000000000000000000000000000000000000000000000600052604160045260246000fd5b600060033d11156134585760046000803e61345560005161346c565b90505b90565b6000601f19601f8301169050919050565b60008160e01c9050919050565b7f455243313135353a207472616e7366657220746f206e6f6e204552433131353560008201527f526563656976657220696d706c656d656e746572000000000000000000000000602082015250565b7f45524332303a207472616e7366657220746f20746865207a65726f206164647260008201527f6573730000000000000000000000000000000000000000000000000000000000602082015250565b7f455243313135353a204552433131353552656365697665722072656a6563746560008201527f6420746f6b656e73000000000000000000000000000000000000000000000000602082015250565b7f455243313135353a2062616c616e636520717565727920666f7220746865207a60008201527f65726f2061646472657373000000000000000000000000000000000000000000602082015250565b7f45524332303a20617070726f766520746f20746865207a65726f20616464726560008201527f7373000000000000000000000000000000000000000000000000000000000000602082015250565b7f455243313135353a2063616c6c6572206973206e6f74206f776e6572206e6f7260008201527f20617070726f7665640000000000000000000000000000000000000000000000602082015250565b7f45524332303a207472616e7366657220616d6f756e742065786365656473206260008201527f616c616e63650000000000000000000000000000000000000000000000000000602082015250565b7f455243313135353a207472616e7366657220746f20746865207a65726f20616460008201527f6472657373000000000000000000000000000000000000000000000000000000602082015250565b7f455243313135353a207472616e736665722063616c6c6572206973206e6f742060008201527f6f776e6572206e6f7220617070726f7665640000000000000000000000000000602082015250565b7f455243313135353a20696e73756666696369656e742062616c616e636520666f60008201527f72207472616e7366657200000000000000000000000000000000000000000000602082015250565b7f45524332303a207472616e7366657220616d6f756e742065786365656473206160008201527f6c6c6f77616e6365000000000000000000000000000000000000000000000000602082015250565b7f45524332303a207472616e736665722066726f6d20746865207a65726f20616460008201527f6472657373000000000000000000000000000000000000000000000000000000602082015250565b7f45524332303a20617070726f76652066726f6d20746865207a65726f2061646460008201527f7265737300000000000000000000000000000000000000000000000000000000602082015250565b7f455243313135353a2073657474696e6720617070726f76616c2073746174757360008201527f20666f722073656c660000000000000000000000000000000000000000000000602082015250565b7f455243313135353a206163636f756e747320616e6420696473206c656e67746860008201527f206d69736d617463680000000000000000000000000000000000000000000000602082015250565b7f455243313135353a2069647320616e6420616d6f756e7473206c656e6774682060008201527f6d69736d61746368000000000000000000000000000000000000000000000000602082015250565b7f455243313135353a206d696e7420746f20746865207a65726f2061646472657360008201527f7300000000000000000000000000000000000000000000000000000000000000602082015250565b7f45524332303a2064656372656173656420616c6c6f77616e63652062656c6f7760008201527f207a65726f000000000000000000000000000000000000000000000000000000602082015250565b600060443d1015613a1757613a9a565b613a1f6130b2565b60043d036004823e80513d602482011167ffffffffffffffff82111715613a47575050613a9a565b808201805167ffffffffffffffff811115613a655750505050613a9a565b80602083010160043d038501811115613a82575050505050613a9a565b613a9182602001850186613332565b82955050505050505b90565b613aa68161323d565b8114613ab157600080fd5b50565b613abd8161324f565b8114613ac857600080fd5b50565b613ad48161325b565b8114613adf57600080fd5b50565b613aeb816132a7565b8114613af657600080fd5b5056fea2646970667358221220fb977f682108b94e23ef6dae5e9a44b46f3b64b4fc6118330d6cbbcc61035a5b64736f6c63430008030033",
  "immutableReferences": {},
  "source": "pragma solidity ^0.8.3;\n//\"SPDX-License-Identifier: UNLICENSED\"\n\nimport \"@openzeppelin/contracts/token/ERC20/ERC20.sol\";\nimport \"@openzeppelin/contracts/token/ERC721/ERC721.sol\";\nimport \"@openzeppelin/contracts/token/ERC1155/ERC1155.sol\";\n\n\n\n\ncontract ACHouseToken is ERC1155, ERC20 {\n\n    address parentAddress;\n    \n    constructor() ERC1155(\"\") ERC20(\"\",\"\") {}\n\n   function setParentAddress(address _address) public {\n       parentAddress = _address;\n   }\n\n   function mintNFT1155(address _ownerAddress, string memory _uri, uint256 _id, uint256 _supply) public {\n       // using erc 1155 to creat NFT\n       \n       // set URI. \n       _setURI(_uri);\n       _mint(_ownerAddress, _id, 1, \"\");\n   }\n\n   \n   \n   \n   \n   // owner address is prob artist address. USING ERC1155\n//    function mintNFT1155(address _ownerAddress, string memory _uri, uint256 _id, uint256 _supply) public {\n\n//        // using erc 1155 to creat NFT\n//        ERC1155(_uri)._mint(_ownerAddress, _id, 1, \"\"); // ERC 721 like but still ERC1155 NFT token\n\n//        ERC1155(_uri)._mint(_ownerAddress, _id, 10**9, \"\"); // ERC 20 like but its still ERC1155 fungible token\n\n//        // transfer to the owner part comes here\n//    }\n\n//    // owner address is prob artist address. USING ERC721\n//    function mintNFT721(address _ownerAddress, string memory _uri, string memory _name, string memory _symbol, uint256 _id, uint256 _supply) public {\n\n//        // using erc 1155 to creat NFT\n//        ERC721(_name, _symbol)._mint(_ownerAddress, _id);\n\n//        // transfer to the owner part comes here\n//    }\n\n//    function mintERC20(address _ownerAddress,string memory _name, string memory _symbol, uint256 _supply) public {\n//        ERC20(_name, _symbol)._mint(_ownerAddress, 10**9);\n//    }\n    \n}",
  "sourcePath": "/home/dinesh/Projects/BnktAuction/contracts/ACHouseToken.sol",
  "compiler": {
    "name": "solc",
    "version": "0.8.3+commit.8d00100c.Emscripten.clang"
  },
  "schemaVersion": "3.3.4",
  "updatedAt": "2021-09-29T01:55:33.304Z",
  "devdoc": {
    "kind": "dev",
    "methods": {
      "allowance(address,address)": {
        "details": "See {IERC20-allowance}."
      },
      "approve(address,uint256)": {
        "details": "See {IERC20-approve}. Requirements: - `spender` cannot be the zero address."
      },
      "balanceOf(address)": {
        "details": "See {IERC20-balanceOf}."
      },
      "balanceOf(address,uint256)": {
        "details": "See {IERC1155-balanceOf}. Requirements: - `account` cannot be the zero address."
      },
      "balanceOfBatch(address[],uint256[])": {
        "details": "See {IERC1155-balanceOfBatch}. Requirements: - `accounts` and `ids` must have the same length."
      },
      "decimals()": {
        "details": "Returns the number of decimals used to get its user representation. For example, if `decimals` equals `2`, a balance of `505` tokens should be displayed to a user as `5.05` (`505 / 10 ** 2`). Tokens usually opt for a value of 18, imitating the relationship between Ether and Wei. This is the value {ERC20} uses, unless this function is overridden; NOTE: This information is only used for _display_ purposes: it in no way affects any of the arithmetic of the contract, including {IERC20-balanceOf} and {IERC20-transfer}."
      },
      "decreaseAllowance(address,uint256)": {
        "details": "Atomically decreases the allowance granted to `spender` by the caller. This is an alternative to {approve} that can be used as a mitigation for problems described in {IERC20-approve}. Emits an {Approval} event indicating the updated allowance. Requirements: - `spender` cannot be the zero address. - `spender` must have allowance for the caller of at least `subtractedValue`."
      },
      "increaseAllowance(address,uint256)": {
        "details": "Atomically increases the allowance granted to `spender` by the caller. This is an alternative to {approve} that can be used as a mitigation for problems described in {IERC20-approve}. Emits an {Approval} event indicating the updated allowance. Requirements: - `spender` cannot be the zero address."
      },
      "isApprovedForAll(address,address)": {
        "details": "See {IERC1155-isApprovedForAll}."
      },
      "name()": {
        "details": "Returns the name of the token."
      },
      "safeBatchTransferFrom(address,address,uint256[],uint256[],bytes)": {
        "details": "See {IERC1155-safeBatchTransferFrom}."
      },
      "safeTransferFrom(address,address,uint256,uint256,bytes)": {
        "details": "See {IERC1155-safeTransferFrom}."
      },
      "setApprovalForAll(address,bool)": {
        "details": "See {IERC1155-setApprovalForAll}."
      },
      "supportsInterface(bytes4)": {
        "details": "See {IERC165-supportsInterface}."
      },
      "symbol()": {
        "details": "Returns the symbol of the token, usually a shorter version of the name."
      },
      "totalSupply()": {
        "details": "See {IERC20-totalSupply}."
      },
      "transfer(address,uint256)": {
        "details": "See {IERC20-transfer}. Requirements: - `recipient` cannot be the zero address. - the caller must have a balance of at least `amount`."
      },
      "transferFrom(address,address,uint256)": {
        "details": "See {IERC20-transferFrom}. Emits an {Approval} event indicating the updated allowance. This is not required by the EIP. See the note at the beginning of {ERC20}. Requirements: - `sender` and `recipient` cannot be the zero address. - `sender` must have a balance of at least `amount`. - the caller must have allowance for ``sender``'s tokens of at least `amount`."
      },
      "uri(uint256)": {
        "details": "See {IERC1155MetadataURI-uri}. This implementation returns the same URI for *all* token types. It relies on the token type ID substitution mechanism https://eips.ethereum.org/EIPS/eip-1155#metadata[defined in the EIP]. Clients calling this function must replace the `\\{id\\}` substring with the actual token type ID."
      }
    },
    "version": 1
  },
  "userdoc": {
    "kind": "user",
    "methods": {},
    "version": 1
  }
}