{
  "contractName": "ACHouseToken721",
  "abi": [
    {
      "inputs": [],
      "stateMutability": "nonpayable",
      "type": "constructor"
    },
    {
      "anonymous": false,
      "inputs": [
        {
          "indexed": true,
          "internalType": "address",
          "name": "owner",
          "type": "address"
        },
        {
          "indexed": true,
          "internalType": "address",
          "name": "approved",
          "type": "address"
        },
        {
          "indexed": true,
          "internalType": "uint256",
          "name": "tokenId",
          "type": "uint256"
        }
      ],
      "name": "Approval",
      "type": "event"
    },
    {
      "anonymous": false,
      "inputs": [
        {
          "indexed": true,
          "internalType": "address",
          "name": "owner",
          "type": "address"
        },
        {
          "indexed": true,
          "internalType": "address",
          "name": "operator",
          "type": "address"
        },
        {
          "indexed": false,
          "internalType": "bool",
          "name": "approved",
          "type": "bool"
        }
      ],
      "name": "ApprovalForAll",
      "type": "event"
    },
    {
      "anonymous": false,
      "inputs": [
        {
          "indexed": true,
          "internalType": "address",
          "name": "from",
          "type": "address"
        },
        {
          "indexed": true,
          "internalType": "address",
          "name": "to",
          "type": "address"
        },
        {
          "indexed": true,
          "internalType": "uint256",
          "name": "tokenId",
          "type": "uint256"
        }
      ],
      "name": "Transfer",
      "type": "event"
    },
    {
      "inputs": [
        {
          "internalType": "address",
          "name": "to",
          "type": "address"
        },
        {
          "internalType": "uint256",
          "name": "tokenId",
          "type": "uint256"
        }
      ],
      "name": "approve",
      "outputs": [],
      "stateMutability": "nonpayable",
      "type": "function"
    },
    {
      "inputs": [
        {
          "internalType": "address",
          "name": "owner",
          "type": "address"
        }
      ],
      "name": "balanceOf",
      "outputs": [
        {
          "internalType": "uint256",
          "name": "",
          "type": "uint256"
        }
      ],
      "stateMutability": "view",
      "type": "function"
    },
    {
      "inputs": [
        {
          "internalType": "uint256",
          "name": "tokenId",
          "type": "uint256"
        }
      ],
      "name": "getApproved",
      "outputs": [
        {
          "internalType": "address",
          "name": "",
          "type": "address"
        }
      ],
      "stateMutability": "view",
      "type": "function"
    },
    {
      "inputs": [
        {
          "internalType": "address",
          "name": "owner",
          "type": "address"
        },
        {
          "internalType": "address",
          "name": "operator",
          "type": "address"
        }
      ],
      "name": "isApprovedForAll",
      "outputs": [
        {
          "internalType": "bool",
          "name": "",
          "type": "bool"
        }
      ],
      "stateMutability": "view",
      "type": "function"
    },
    {
      "inputs": [],
      "name": "name",
      "outputs": [
        {
          "internalType": "string",
          "name": "",
          "type": "string"
        }
      ],
      "stateMutability": "view",
      "type": "function"
    },
    {
      "inputs": [
        {
          "internalType": "uint256",
          "name": "tokenId",
          "type": "uint256"
        }
      ],
      "name": "ownerOf",
      "outputs": [
        {
          "internalType": "address",
          "name": "",
          "type": "address"
        }
      ],
      "stateMutability": "view",
      "type": "function"
    },
    {
      "inputs": [
        {
          "internalType": "address",
          "name": "from",
          "type": "address"
        },
        {
          "internalType": "address",
          "name": "to",
          "type": "address"
        },
        {
          "internalType": "uint256",
          "name": "tokenId",
          "type": "uint256"
        }
      ],
      "name": "safeTransferFrom",
      "outputs": [],
      "stateMutability": "nonpayable",
      "type": "function"
    },
    {
      "inputs": [
        {
          "internalType": "address",
          "name": "from",
          "type": "address"
        },
        {
          "internalType": "address",
          "name": "to",
          "type": "address"
        },
        {
          "internalType": "uint256",
          "name": "tokenId",
          "type": "uint256"
        },
        {
          "internalType": "bytes",
          "name": "_data",
          "type": "bytes"
        }
      ],
      "name": "safeTransferFrom",
      "outputs": [],
      "stateMutability": "nonpayable",
      "type": "function"
    },
    {
      "inputs": [
        {
          "internalType": "address",
          "name": "operator",
          "type": "address"
        },
        {
          "internalType": "bool",
          "name": "approved",
          "type": "bool"
        }
      ],
      "name": "setApprovalForAll",
      "outputs": [],
      "stateMutability": "nonpayable",
      "type": "function"
    },
    {
      "inputs": [
        {
          "internalType": "bytes4",
          "name": "interfaceId",
          "type": "bytes4"
        }
      ],
      "name": "supportsInterface",
      "outputs": [
        {
          "internalType": "bool",
          "name": "",
          "type": "bool"
        }
      ],
      "stateMutability": "view",
      "type": "function"
    },
    {
      "inputs": [],
      "name": "symbol",
      "outputs": [
        {
          "internalType": "string",
          "name": "",
          "type": "string"
        }
      ],
      "stateMutability": "view",
      "type": "function"
    },
    {
      "inputs": [
        {
          "internalType": "uint256",
          "name": "tokenId",
          "type": "uint256"
        }
      ],
      "name": "tokenURI",
      "outputs": [
        {
          "internalType": "string",
          "name": "",
          "type": "string"
        }
      ],
      "stateMutability": "view",
      "type": "function"
    },
    {
      "inputs": [
        {
          "internalType": "address",
          "name": "from",
          "type": "address"
        },
        {
          "internalType": "address",
          "name": "to",
          "type": "address"
        },
        {
          "internalType": "uint256",
          "name": "tokenId",
          "type": "uint256"
        }
      ],
      "name": "transferFrom",
      "outputs": [],
      "stateMutability": "nonpayable",
      "type": "function"
    },
    {
      "inputs": [
        {
          "internalType": "address",
          "name": "_address",
          "type": "address"
        }
      ],
      "name": "setParentAddress",
      "outputs": [],
      "stateMutability": "nonpayable",
      "type": "function"
    },
    {
      "inputs": [
        {
          "internalType": "address",
          "name": "_ownerAddress",
          "type": "address"
        },
        {
          "internalType": "uint256",
          "name": "_id",
          "type": "uint256"
        },
        {
          "internalType": "string",
          "name": "_tokenUri",
          "type": "string"
        }
      ],
      "name": "mintNFT",
      "outputs": [],
      "stateMutability": "nonpayable",
      "type": "function"
    },
    {
      "inputs": [
        {
          "internalType": "uint256",
          "name": "tokenId",
          "type": "uint256"
        }
      ],
      "name": "getTokenUri",
      "outputs": [
        {
          "internalType": "string",
          "name": "",
          "type": "string"
        }
      ],
      "stateMutability": "view",
      "type": "function"
    },
    {
      "inputs": [],
      "name": "getTokenCount",
      "outputs": [
        {
          "internalType": "uint256",
          "name": "",
          "type": "uint256"
        }
      ],
      "stateMutability": "view",
      "type": "function"
    },
    {
      "inputs": [],
      "name": "getTokenIds",
      "outputs": [
        {
          "internalType": "uint256[]",
          "name": "",
          "type": "uint256[]"
        }
      ],
      "stateMutability": "view",
      "type": "function"
    }
  ],
  "bytecode": "0x60806040523480156200001157600080fd5b50604051806020016040528060008152506040518060200160405280600081525081600090805190602001906200004a9291906200006c565b508060019080519060200190620000639291906200006c565b50505062000181565b8280546200007a906200011c565b90600052602060002090601f0160209004810192826200009e5760008555620000ea565b82601f10620000b957805160ff1916838001178555620000ea565b82800160010185558215620000ea579182015b82811115620000e9578251825591602001919060010190620000cc565b5b509050620000f99190620000fd565b5090565b5b8082111562000118576000816000905550600101620000fe565b5090565b600060028204905060018216806200013557607f821691505b602082108114156200014c576200014b62000152565b5b50919050565b7f4e487b7100000000000000000000000000000000000000000000000000000000600052602260045260246000fd5b612e3880620001916000396000f3fe608060405234801561001057600080fd5b50600436106101165760003560e01c806370a08231116100a2578063a22cb46511610071578063a22cb465146102f3578063b88d4fde1461030f578063c87b56dd1461032b578063e985e9c51461035b578063fa5afe401461038b57610116565b806370a082311461025757806378a89567146102875780638ad91345146102a557806395d89b41146102d557610116565b80631e576912116100e95780631e576912146101b557806323b872dd146101d157806342842e0e146101ed5780636352211e1461020957806367f718a91461023957610116565b806301ffc9a71461011b57806306fdde031461014b578063081812fc14610169578063095ea7b314610199575b600080fd5b61013560048036038101906101309190611e05565b6103a7565b60405161014291906122b2565b60405180910390f35b610153610489565b60405161016091906122cd565b60405180910390f35b610183600480360381019061017e9190611e57565b61051b565b6040516101909190612229565b60405180910390f35b6101b360048036038101906101ae9190611d62565b6105a0565b005b6101cf60048036038101906101ca9190611d9e565b6106b8565b005b6101eb60048036038101906101e69190611c5c565b610737565b005b61020760048036038101906102029190611c5c565b610797565b005b610223600480360381019061021e9190611e57565b6107b7565b6040516102309190612229565b60405180910390f35b610241610869565b60405161024e9190612290565b60405180910390f35b610271600480360381019061026c9190611bf7565b6108c1565b60405161027e91906124ef565b60405180910390f35b61028f610979565b60405161029c91906124ef565b60405180910390f35b6102bf60048036038101906102ba9190611e57565b610986565b6040516102cc91906122cd565b60405180910390f35b6102dd610998565b6040516102ea91906122cd565b60405180910390f35b61030d60048036038101906103089190611d26565b610a2a565b005b61032960048036038101906103249190611cab565b610bab565b005b61034560048036038101906103409190611e57565b610c0d565b60405161035291906122cd565b60405180910390f35b61037560048036038101906103709190611c20565b610d5f565b60405161038291906122b2565b60405180910390f35b6103a560048036038101906103a09190611bf7565b610df3565b005b60007f80ac58cd000000000000000000000000000000000000000000000000000000007bffffffffffffffffffffffffffffffffffffffffffffffffffffffff1916827bffffffffffffffffffffffffffffffffffffffffffffffffffffffff1916148061047257507f5b5e139f000000000000000000000000000000000000000000000000000000007bffffffffffffffffffffffffffffffffffffffffffffffffffffffff1916827bffffffffffffffffffffffffffffffffffffffffffffffffffffffff1916145b80610482575061048182610e37565b5b9050919050565b6060600080546104989061277e565b80601f01602080910402602001604051908101604052809291908181526020018280546104c49061277e565b80156105115780601f106104e657610100808354040283529160200191610511565b820191906000526020600020905b8154815290600101906020018083116104f457829003601f168201915b5050505050905090565b600061052682610ea1565b610565576040517f08c379a000000000000000000000000000000000000000000000000000000000815260040161055c9061244f565b60405180910390fd5b6004600083815260200190815260200160002060009054906101000a900473ffffffffffffffffffffffffffffffffffffffff169050919050565b60006105ab826107b7565b90508073ffffffffffffffffffffffffffffffffffffffff168373ffffffffffffffffffffffffffffffffffffffff16141561061c576040517f08c379a0000000000000000000000000000000000000000000000000000000008152600401610613906124af565b60405180910390fd5b8073ffffffffffffffffffffffffffffffffffffffff1661063b610f0d565b73ffffffffffffffffffffffffffffffffffffffff16148061066a575061066981610664610f0d565b610d5f565b5b6106a9576040517f08c379a00000000000000000000000000000000000000000000000000000000081526004016106a09061238f565b60405180910390fd5b6106b38383610f15565b505050565b6106d2838360405180602001604052806000815250610fce565b6106dc8282611029565b6008829080600181540180825580915050600190039060005260206000200160009091909190915055610732600760009054906101000a900473ffffffffffffffffffffffffffffffffffffffff166001610a2a565b505050565b610748610742610f0d565b8261109d565b610787576040517f08c379a000000000000000000000000000000000000000000000000000000000815260040161077e906124cf565b60405180910390fd5b61079283838361117b565b505050565b6107b283838360405180602001604052806000815250610bab565b505050565b6000806002600084815260200190815260200160002060009054906101000a900473ffffffffffffffffffffffffffffffffffffffff169050600073ffffffffffffffffffffffffffffffffffffffff168173ffffffffffffffffffffffffffffffffffffffff161415610860576040517f08c379a0000000000000000000000000000000000000000000000000000000008152600401610857906123cf565b60405180910390fd5b80915050919050565b606060088054806020026020016040519081016040528092919081815260200182805480156108b757602002820191906000526020600020905b8154815260200190600101908083116108a3575b5050505050905090565b60008073ffffffffffffffffffffffffffffffffffffffff168273ffffffffffffffffffffffffffffffffffffffff161415610932576040517f08c379a0000000000000000000000000000000000000000000000000000000008152600401610929906123af565b60405180910390fd5b600360008373ffffffffffffffffffffffffffffffffffffffff1673ffffffffffffffffffffffffffffffffffffffff168152602001908152602001600020549050919050565b6000600880549050905090565b606061099182610c0d565b9050919050565b6060600180546109a79061277e565b80601f01602080910402602001604051908101604052809291908181526020018280546109d39061277e565b8015610a205780601f106109f557610100808354040283529160200191610a20565b820191906000526020600020905b815481529060010190602001808311610a0357829003601f168201915b5050505050905090565b610a32610f0d565b73ffffffffffffffffffffffffffffffffffffffff168273ffffffffffffffffffffffffffffffffffffffff161415610aa0576040517f08c379a0000000000000000000000000000000000000000000000000000000008152600401610a979061234f565b60405180910390fd5b8060056000610aad610f0d565b73ffffffffffffffffffffffffffffffffffffffff1673ffffffffffffffffffffffffffffffffffffffff16815260200190815260200160002060008473ffffffffffffffffffffffffffffffffffffffff1673ffffffffffffffffffffffffffffffffffffffff16815260200190815260200160002060006101000a81548160ff0219169083151502179055508173ffffffffffffffffffffffffffffffffffffffff16610b5a610f0d565b73ffffffffffffffffffffffffffffffffffffffff167f17307eab39ab6107e8899845ad3d59bd9653f200f220920489ca2b5937696c3183604051610b9f91906122b2565b60405180910390a35050565b610bbc610bb6610f0d565b8361109d565b610bfb576040517f08c379a0000000000000000000000000000000000000000000000000000000008152600401610bf2906124cf565b60405180910390fd5b610c07848484846113d7565b50505050565b6060610c1882610ea1565b610c57576040517f08c379a0000000000000000000000000000000000000000000000000000000008152600401610c4e9061242f565b60405180910390fd5b6000600660008481526020019081526020016000208054610c779061277e565b80601f0160208091040260200160405190810160405280929190818152602001828054610ca39061277e565b8015610cf05780601f10610cc557610100808354040283529160200191610cf0565b820191906000526020600020905b815481529060010190602001808311610cd357829003601f168201915b505050505090506000610d01611433565b9050600081511415610d17578192505050610d5a565b600082511115610d4c578082604051602001610d34929190612205565b60405160208183030381529060405292505050610d5a565b610d558461144a565b925050505b919050565b6000600560008473ffffffffffffffffffffffffffffffffffffffff1673ffffffffffffffffffffffffffffffffffffffff16815260200190815260200160002060008373ffffffffffffffffffffffffffffffffffffffff1673ffffffffffffffffffffffffffffffffffffffff16815260200190815260200160002060009054906101000a900460ff16905092915050565b80600760006101000a81548173ffffffffffffffffffffffffffffffffffffffff021916908373ffffffffffffffffffffffffffffffffffffffff16021790555050565b60007f01ffc9a7000000000000000000000000000000000000000000000000000000007bffffffffffffffffffffffffffffffffffffffffffffffffffffffff1916827bffffffffffffffffffffffffffffffffffffffffffffffffffffffff1916149050919050565b60008073ffffffffffffffffffffffffffffffffffffffff166002600084815260200190815260200160002060009054906101000a900473ffffffffffffffffffffffffffffffffffffffff1673ffffffffffffffffffffffffffffffffffffffff1614159050919050565b600033905090565b816004600083815260200190815260200160002060006101000a81548173ffffffffffffffffffffffffffffffffffffffff021916908373ffffffffffffffffffffffffffffffffffffffff160217905550808273ffffffffffffffffffffffffffffffffffffffff16610f88836107b7565b73ffffffffffffffffffffffffffffffffffffffff167f8c5be1e5ebec7d5bd14f71427d1e84f3dd0314c0f7b2291e5b200ac8c7c3b92560405160405180910390a45050565b610fd883836114f1565b610fe560008484846116bf565b611024576040517f08c379a000000000000000000000000000000000000000000000000000000000815260040161101b906122ef565b60405180910390fd5b505050565b61103282610ea1565b611071576040517f08c379a0000000000000000000000000000000000000000000000000000000008152600401611068906123ef565b60405180910390fd5b80600660008481526020019081526020016000209080519060200190611098929190611a1b565b505050565b60006110a882610ea1565b6110e7576040517f08c379a00000000000000000000000000000000000000000000000000000000081526004016110de9061236f565b60405180910390fd5b60006110f2836107b7565b90508073ffffffffffffffffffffffffffffffffffffffff168473ffffffffffffffffffffffffffffffffffffffff16148061116157508373ffffffffffffffffffffffffffffffffffffffff166111498461051b565b73ffffffffffffffffffffffffffffffffffffffff16145b8061117257506111718185610d5f565b5b91505092915050565b8273ffffffffffffffffffffffffffffffffffffffff1661119b826107b7565b73ffffffffffffffffffffffffffffffffffffffff16146111f1576040517f08c379a00000000000000000000000000000000000000000000000000000000081526004016111e89061246f565b60405180910390fd5b600073ffffffffffffffffffffffffffffffffffffffff168273ffffffffffffffffffffffffffffffffffffffff161415611261576040517f08c379a00000000000000000000000000000000000000000000000000000000081526004016112589061232f565b60405180910390fd5b61126c838383611856565b611277600082610f15565b6001600360008573ffffffffffffffffffffffffffffffffffffffff1673ffffffffffffffffffffffffffffffffffffffff16815260200190815260200160002060008282546112c79190612694565b925050819055506001600360008473ffffffffffffffffffffffffffffffffffffffff1673ffffffffffffffffffffffffffffffffffffffff168152602001908152602001600020600082825461131e919061260d565b92505081905550816002600083815260200190815260200160002060006101000a81548173ffffffffffffffffffffffffffffffffffffffff021916908373ffffffffffffffffffffffffffffffffffffffff160217905550808273ffffffffffffffffffffffffffffffffffffffff168473ffffffffffffffffffffffffffffffffffffffff167fddf252ad1be2c89b69c2b068fc378daa952ba7f163c4a11628f55a4df523b3ef60405160405180910390a4505050565b6113e284848461117b565b6113ee848484846116bf565b61142d576040517f08c379a0000000000000000000000000000000000000000000000000000000008152600401611424906122ef565b60405180910390fd5b50505050565b606060405180602001604052806000815250905090565b606061145582610ea1565b611494576040517f08c379a000000000000000000000000000000000000000000000000000000000815260040161148b9061248f565b60405180910390fd5b600061149e611433565b905060008151116114be57604051806020016040528060008152506114e9565b806114c88461185b565b6040516020016114d9929190612205565b6040516020818303038152906040525b915050919050565b600073ffffffffffffffffffffffffffffffffffffffff168273ffffffffffffffffffffffffffffffffffffffff161415611561576040517f08c379a00000000000000000000000000000000000000000000000000000000081526004016115589061240f565b60405180910390fd5b61156a81610ea1565b156115aa576040517f08c379a00000000000000000000000000000000000000000000000000000000081526004016115a19061230f565b60405180910390fd5b6115b660008383611856565b6001600360008473ffffffffffffffffffffffffffffffffffffffff1673ffffffffffffffffffffffffffffffffffffffff1681526020019081526020016000206000828254611606919061260d565b92505081905550816002600083815260200190815260200160002060006101000a81548173ffffffffffffffffffffffffffffffffffffffff021916908373ffffffffffffffffffffffffffffffffffffffff160217905550808273ffffffffffffffffffffffffffffffffffffffff16600073ffffffffffffffffffffffffffffffffffffffff167fddf252ad1be2c89b69c2b068fc378daa952ba7f163c4a11628f55a4df523b3ef60405160405180910390a45050565b60006116e08473ffffffffffffffffffffffffffffffffffffffff16611a08565b15611849578373ffffffffffffffffffffffffffffffffffffffff1663150b7a02611709610f0d565b8786866040518563ffffffff1660e01b815260040161172b9493929190612244565b602060405180830381600087803b15801561174557600080fd5b505af192505050801561177657506040513d601f19601f820116820180604052508101906117739190611e2e565b60015b6117f9573d80600081146117a6576040519150601f19603f3d011682016040523d82523d6000602084013e6117ab565b606091505b506000815114156117f1576040517f08c379a00000000000000000000000000000000000000000000000000000000081526004016117e8906122ef565b60405180910390fd5b805181602001fd5b63150b7a0260e01b7bffffffffffffffffffffffffffffffffffffffffffffffffffffffff1916817bffffffffffffffffffffffffffffffffffffffffffffffffffffffff19161491505061184e565b600190505b949350505050565b505050565b606060008214156118a3576040518060400160405280600181526020017f30000000000000000000000000000000000000000000000000000000000000008152509050611a03565b600082905060005b600082146118d55780806118be906127e1565b915050600a826118ce9190612663565b91506118ab565b60008167ffffffffffffffff811115611917577f4e487b7100000000000000000000000000000000000000000000000000000000600052604160045260246000fd5b6040519080825280601f01601f1916602001820160405280156119495781602001600182028036833780820191505090505b5090505b600085146119fc576001826119629190612694565b9150600a85611971919061282a565b603061197d919061260d565b60f81b8183815181106119b9577f4e487b7100000000000000000000000000000000000000000000000000000000600052603260045260246000fd5b60200101907effffffffffffffffffffffffffffffffffffffffffffffffffffffffffffff1916908160001a905350600a856119f59190612663565b945061194d565b8093505050505b919050565b600080823b905060008111915050919050565b828054611a279061277e565b90600052602060002090601f016020900481019282611a495760008555611a90565b82601f10611a6257805160ff1916838001178555611a90565b82800160010185558215611a90579182015b82811115611a8f578251825591602001919060010190611a74565b5b509050611a9d9190611aa1565b5090565b5b80821115611aba576000816000905550600101611aa2565b5090565b6000611ad1611acc8461252f565b61250a565b905082815260208101848484011115611ae957600080fd5b611af484828561273c565b509392505050565b6000611b0f611b0a84612560565b61250a565b905082815260208101848484011115611b2757600080fd5b611b3284828561273c565b509392505050565b600081359050611b4981612da6565b92915050565b600081359050611b5e81612dbd565b92915050565b600081359050611b7381612dd4565b92915050565b600081519050611b8881612dd4565b92915050565b600082601f830112611b9f57600080fd5b8135611baf848260208601611abe565b91505092915050565b600082601f830112611bc957600080fd5b8135611bd9848260208601611afc565b91505092915050565b600081359050611bf181612deb565b92915050565b600060208284031215611c0957600080fd5b6000611c1784828501611b3a565b91505092915050565b60008060408385031215611c3357600080fd5b6000611c4185828601611b3a565b9250506020611c5285828601611b3a565b9150509250929050565b600080600060608486031215611c7157600080fd5b6000611c7f86828701611b3a565b9350506020611c9086828701611b3a565b9250506040611ca186828701611be2565b9150509250925092565b60008060008060808587031215611cc157600080fd5b6000611ccf87828801611b3a565b9450506020611ce087828801611b3a565b9350506040611cf187828801611be2565b925050606085013567ffffffffffffffff811115611d0e57600080fd5b611d1a87828801611b8e565b91505092959194509250565b60008060408385031215611d3957600080fd5b6000611d4785828601611b3a565b9250506020611d5885828601611b4f565b9150509250929050565b60008060408385031215611d7557600080fd5b6000611d8385828601611b3a565b9250506020611d9485828601611be2565b9150509250929050565b600080600060608486031215611db357600080fd5b6000611dc186828701611b3a565b9350506020611dd286828701611be2565b925050604084013567ffffffffffffffff811115611def57600080fd5b611dfb86828701611bb8565b9150509250925092565b600060208284031215611e1757600080fd5b6000611e2584828501611b64565b91505092915050565b600060208284031215611e4057600080fd5b6000611e4e84828501611b79565b91505092915050565b600060208284031215611e6957600080fd5b6000611e7784828501611be2565b91505092915050565b6000611e8c83836121e7565b60208301905092915050565b611ea1816126c8565b82525050565b6000611eb2826125a1565b611ebc81856125cf565b9350611ec783612591565b8060005b83811015611ef8578151611edf8882611e80565b9750611eea836125c2565b925050600181019050611ecb565b5085935050505092915050565b611f0e816126da565b82525050565b6000611f1f826125ac565b611f2981856125e0565b9350611f3981856020860161274b565b611f4281612917565b840191505092915050565b6000611f58826125b7565b611f6281856125f1565b9350611f7281856020860161274b565b611f7b81612917565b840191505092915050565b6000611f91826125b7565b611f9b8185612602565b9350611fab81856020860161274b565b80840191505092915050565b6000611fc46032836125f1565b9150611fcf82612928565b604082019050919050565b6000611fe7601c836125f1565b9150611ff282612977565b602082019050919050565b600061200a6024836125f1565b9150612015826129a0565b604082019050919050565b600061202d6019836125f1565b9150612038826129ef565b602082019050919050565b6000612050602c836125f1565b915061205b82612a18565b604082019050919050565b60006120736038836125f1565b915061207e82612a67565b604082019050919050565b6000612096602a836125f1565b91506120a182612ab6565b604082019050919050565b60006120b96029836125f1565b91506120c482612b05565b604082019050919050565b60006120dc602e836125f1565b91506120e782612b54565b604082019050919050565b60006120ff6020836125f1565b915061210a82612ba3565b602082019050919050565b60006121226031836125f1565b915061212d82612bcc565b604082019050919050565b6000612145602c836125f1565b915061215082612c1b565b604082019050919050565b60006121686029836125f1565b915061217382612c6a565b604082019050919050565b600061218b602f836125f1565b915061219682612cb9565b604082019050919050565b60006121ae6021836125f1565b91506121b982612d08565b604082019050919050565b60006121d16031836125f1565b91506121dc82612d57565b604082019050919050565b6121f081612732565b82525050565b6121ff81612732565b82525050565b60006122118285611f86565b915061221d8284611f86565b91508190509392505050565b600060208201905061223e6000830184611e98565b92915050565b60006080820190506122596000830187611e98565b6122666020830186611e98565b61227360408301856121f6565b81810360608301526122858184611f14565b905095945050505050565b600060208201905081810360008301526122aa8184611ea7565b905092915050565b60006020820190506122c76000830184611f05565b92915050565b600060208201905081810360008301526122e78184611f4d565b905092915050565b6000602082019050818103600083015261230881611fb7565b9050919050565b6000602082019050818103600083015261232881611fda565b9050919050565b6000602082019050818103600083015261234881611ffd565b9050919050565b6000602082019050818103600083015261236881612020565b9050919050565b6000602082019050818103600083015261238881612043565b9050919050565b600060208201905081810360008301526123a881612066565b9050919050565b600060208201905081810360008301526123c881612089565b9050919050565b600060208201905081810360008301526123e8816120ac565b9050919050565b60006020820190508181036000830152612408816120cf565b9050919050565b60006020820190508181036000830152612428816120f2565b9050919050565b6000602082019050818103600083015261244881612115565b9050919050565b6000602082019050818103600083015261246881612138565b9050919050565b600060208201905081810360008301526124888161215b565b9050919050565b600060208201905081810360008301526124a88161217e565b9050919050565b600060208201905081810360008301526124c8816121a1565b9050919050565b600060208201905081810360008301526124e8816121c4565b9050919050565b600060208201905061250460008301846121f6565b92915050565b6000612514612525565b905061252082826127b0565b919050565b6000604051905090565b600067ffffffffffffffff82111561254a576125496128e8565b5b61255382612917565b9050602081019050919050565b600067ffffffffffffffff82111561257b5761257a6128e8565b5b61258482612917565b9050602081019050919050565b6000819050602082019050919050565b600081519050919050565b600081519050919050565b600081519050919050565b6000602082019050919050565b600082825260208201905092915050565b600082825260208201905092915050565b600082825260208201905092915050565b600081905092915050565b600061261882612732565b915061262383612732565b9250827fffffffffffffffffffffffffffffffffffffffffffffffffffffffffffffffff038211156126585761265761285b565b5b828201905092915050565b600061266e82612732565b915061267983612732565b9250826126895761268861288a565b5b828204905092915050565b600061269f82612732565b91506126aa83612732565b9250828210156126bd576126bc61285b565b5b828203905092915050565b60006126d382612712565b9050919050565b60008115159050919050565b60007fffffffff0000000000000000000000000000000000000000000000000000000082169050919050565b600073ffffffffffffffffffffffffffffffffffffffff82169050919050565b6000819050919050565b82818337600083830152505050565b60005b8381101561276957808201518184015260208101905061274e565b83811115612778576000848401525b50505050565b6000600282049050600182168061279657607f821691505b602082108114156127aa576127a96128b9565b5b50919050565b6127b982612917565b810181811067ffffffffffffffff821117156127d8576127d76128e8565b5b80604052505050565b60006127ec82612732565b91507fffffffffffffffffffffffffffffffffffffffffffffffffffffffffffffffff82141561281f5761281e61285b565b5b600182019050919050565b600061283582612732565b915061284083612732565b9250826128505761284f61288a565b5b828206905092915050565b7f4e487b7100000000000000000000000000000000000000000000000000000000600052601160045260246000fd5b7f4e487b7100000000000000000000000000000000000000000000000000000000600052601260045260246000fd5b7f4e487b7100000000000000000000000000000000000000000000000000000000600052602260045260246000fd5b7f4e487b7100000000000000000000000000000000000000000000000000000000600052604160045260246000fd5b6000601f19601f8301169050919050565b7f4552433732313a207472616e7366657220746f206e6f6e20455243373231526560008201527f63656976657220696d706c656d656e7465720000000000000000000000000000602082015250565b7f4552433732313a20746f6b656e20616c7265616479206d696e74656400000000600082015250565b7f4552433732313a207472616e7366657220746f20746865207a65726f2061646460008201527f7265737300000000000000000000000000000000000000000000000000000000602082015250565b7f4552433732313a20617070726f766520746f2063616c6c657200000000000000600082015250565b7f4552433732313a206f70657261746f7220717565727920666f72206e6f6e657860008201527f697374656e7420746f6b656e0000000000000000000000000000000000000000602082015250565b7f4552433732313a20617070726f76652063616c6c6572206973206e6f74206f7760008201527f6e6572206e6f7220617070726f76656420666f7220616c6c0000000000000000602082015250565b7f4552433732313a2062616c616e636520717565727920666f7220746865207a6560008201527f726f206164647265737300000000000000000000000000000000000000000000602082015250565b7f4552433732313a206f776e657220717565727920666f72206e6f6e657869737460008201527f656e7420746f6b656e0000000000000000000000000000000000000000000000602082015250565b7f45524337323155524953746f726167653a2055524920736574206f66206e6f6e60008201527f6578697374656e7420746f6b656e000000000000000000000000000000000000602082015250565b7f4552433732313a206d696e7420746f20746865207a65726f2061646472657373600082015250565b7f45524337323155524953746f726167653a2055524920717565727920666f722060008201527f6e6f6e6578697374656e7420746f6b656e000000000000000000000000000000602082015250565b7f4552433732313a20617070726f76656420717565727920666f72206e6f6e657860008201527f697374656e7420746f6b656e0000000000000000000000000000000000000000602082015250565b7f4552433732313a207472616e73666572206f6620746f6b656e2074686174206960008201527f73206e6f74206f776e0000000000000000000000000000000000000000000000602082015250565b7f4552433732314d657461646174613a2055524920717565727920666f72206e6f60008201527f6e6578697374656e7420746f6b656e0000000000000000000000000000000000602082015250565b7f4552433732313a20617070726f76616c20746f2063757272656e74206f776e6560008201527f7200000000000000000000000000000000000000000000000000000000000000602082015250565b7f4552433732313a207472616e736665722063616c6c6572206973206e6f74206f60008201527f776e6572206e6f7220617070726f766564000000000000000000000000000000602082015250565b612daf816126c8565b8114612dba57600080fd5b50565b612dc6816126da565b8114612dd157600080fd5b50565b612ddd816126e6565b8114612de857600080fd5b50565b612df481612732565b8114612dff57600080fd5b5056fea2646970667358221220704bfec367683e79be91d3c26a71229454f8bfd1360dafff91611c9dd2d1393964736f6c63430008030033",
  "immutableReferences": {},
  "source": "pragma solidity ^0.8.3;\n//\"SPDX-License-Identifier: UNLICENSED\"\n\nimport \"@openzeppelin/contracts/token/ERC721/ERC721.sol\";\nimport \"@openzeppelin/contracts/token/ERC721/extensions/ERC721URIStorage.sol\";\n\ncontract ACHouseToken721 is ERC721URIStorage {\n\n    address parentAddress;\n\n    uint256[] tokensIdscreated;\n    \n    constructor() ERC721(\"\",\"\") {\n    }\n    \n    function setParentAddress(address _address) public {\n        parentAddress = _address;\n    }\n\n    function mintNFT(address _ownerAddress, uint256 _id, string memory _tokenUri) public {\n       // using erc 721 to creat NFT\n       // mint will create NFT and send it to the address. \n\n       _safeMint(_ownerAddress, _id, \"\"); \n       _setTokenURI(_id, _tokenUri);\n       \n       tokensIdscreated.push(_id);\n       \n       //apprvove parent contract to handle tokens and transactions.\n       setApprovalForAll(parentAddress, true);\n    }\n\n    function getTokenUri(uint256 tokenId) public view returns(string memory){\n        return tokenURI(tokenId);\n    }\n\n    //get tokens totalnumber. \n    function getTokenCount() public view returns (uint256) {\n        return tokensIdscreated.length;\n    }\n    //returns the array of all tokenids. \n    function getTokenIds() public  view returns ( uint256[] memory) {\n        return tokensIdscreated;\n    }\n    \n}",
  "sourcePath": "/home/dinesh/Projects/EthOnline/contracts/ACHouseToken721.sol",
  "compiler": {
    "name": "solc",
    "version": "0.8.3+commit.8d00100c.Emscripten.clang"
  },
  "schemaVersion": "3.3.4",
  "updatedAt": "2021-10-08T13:11:19.376Z",
  "devdoc": {
    "kind": "dev",
    "methods": {
      "approve(address,uint256)": {
        "details": "See {IERC721-approve}."
      },
      "balanceOf(address)": {
        "details": "See {IERC721-balanceOf}."
      },
      "getApproved(uint256)": {
        "details": "See {IERC721-getApproved}."
      },
      "isApprovedForAll(address,address)": {
        "details": "See {IERC721-isApprovedForAll}."
      },
      "name()": {
        "details": "See {IERC721Metadata-name}."
      },
      "ownerOf(uint256)": {
        "details": "See {IERC721-ownerOf}."
      },
      "safeTransferFrom(address,address,uint256)": {
        "details": "See {IERC721-safeTransferFrom}."
      },
      "safeTransferFrom(address,address,uint256,bytes)": {
        "details": "See {IERC721-safeTransferFrom}."
      },
      "setApprovalForAll(address,bool)": {
        "details": "See {IERC721-setApprovalForAll}."
      },
      "supportsInterface(bytes4)": {
        "details": "See {IERC165-supportsInterface}."
      },
      "symbol()": {
        "details": "See {IERC721Metadata-symbol}."
      },
      "tokenURI(uint256)": {
        "details": "See {IERC721Metadata-tokenURI}."
      },
      "transferFrom(address,address,uint256)": {
        "details": "See {IERC721-transferFrom}."
      }
    },
    "version": 1
  },
  "userdoc": {
    "kind": "user",
    "methods": {},
    "version": 1
  }
}