{
  "contractName": "CheckERC165",
  "abi": [
    {
      "inputs": [],
      "stateMutability": "nonpayable",
      "type": "constructor"
    },
    {
      "inputs": [
        {
          "internalType": "bytes4",
          "name": "interfaceID",
          "type": "bytes4"
        }
      ],
      "name": "supportsInterface",
      "outputs": [
        {
          "internalType": "bool",
          "name": "",
          "type": "bool"
        }
      ],
      "stateMutability": "view",
      "type": "function"
    }
  ],
  "bytecode": "0x608060405234801561001057600080fd5b5060016000806301ffc9a760e01b7bffffffffffffffffffffffffffffffffffffffffffffffffffffffff19167bffffffffffffffffffffffffffffffffffffffffffffffffffffffff1916815260200190815260200160002060006101000a81548160ff0219169083151502179055506101b4806100906000396000f3fe608060405234801561001057600080fd5b506004361061002b5760003560e01c806301ffc9a714610030575b600080fd5b61004a600480360381019061004591906100dc565b610060565b6040516100579190610114565b60405180910390f35b6000806000837bffffffffffffffffffffffffffffffffffffffffffffffffffffffff19167bffffffffffffffffffffffffffffffffffffffffffffffffffffffff1916815260200190815260200160002060009054906101000a900460ff169050919050565b6000813590506100d681610167565b92915050565b6000602082840312156100ee57600080fd5b60006100fc848285016100c7565b91505092915050565b61010e8161012f565b82525050565b60006020820190506101296000830184610105565b92915050565b60008115159050919050565b60007fffffffff0000000000000000000000000000000000000000000000000000000082169050919050565b6101708161013b565b811461017b57600080fd5b5056fea2646970667358221220ac183c705c70700e3f5a92706fcf5b3918c7eeaed8a50ba4cb06186e1a4f116364736f6c63430008030033",
  "immutableReferences": {},
  "source": "pragma solidity ^0.8.3;\r\n//\"SPDX-License-Identifier: UNLICENSED\"\r\n\r\nimport \"@openzeppelin/contracts/utils/introspection/ERC165.sol\";\r\n\r\n\r\n\r\ncontract CheckERC165 is ERC165 {\r\n    mapping (bytes4 => bool) internal supportedInterfaces;\r\n\r\n    constructor() public {\r\n        supportedInterfaces[super.supportsInterface.selector] = true;\r\n    }\r\n    \r\n    /// @notice Query if a contract implements an interface\r\n    /// @param interfaceID The interface identifier, as specified in ERC-165\r\n    /// @dev Interface identification is specified in ERC-165. This function\r\n    ///  uses less than 30,000 gas.\r\n    /// @return `true` if the contract implements `interfaceID` and\r\n    ///  `interfaceID` is not 0xffffffff, `false` otherwise\r\n    function supportsInterface(bytes4 interfaceID) public override view returns (bool){\r\n        return supportedInterfaces[interfaceID];\r\n    }\r\n}",
  "sourcePath": "C:/Users/sendm/OneDrive/Desktop/HeartDrops/contracts/CheckerERC165.sol",
  "compiler": {
    "name": "solc",
    "version": "0.8.3+commit.8d00100c.Emscripten.clang"
  },
  "schemaVersion": "3.4.1",
  "updatedAt": "2021-10-07T05:10:09.714Z",
  "devdoc": {
    "kind": "dev",
    "methods": {
      "supportsInterface(bytes4)": {
        "details": "Interface identification is specified in ERC-165. This function  uses less than 30,000 gas.",
        "params": {
          "interfaceID": "The interface identifier, as specified in ERC-165"
        },
        "returns": {
          "_0": "`true` if the contract implements `interfaceID` and  `interfaceID` is not 0xffffffff, `false` otherwise"
        }
      }
    },
    "version": 1
  },
  "userdoc": {
    "kind": "user",
    "methods": {
      "supportsInterface(bytes4)": {
        "notice": "Query if a contract implements an interface"
      }
    },
    "version": 1
  }
}