{
  "contractName": "ERC721Holder",
  "abi": [
    {
      "inputs": [
        {
          "internalType": "address",
          "name": "",
          "type": "address"
        },
        {
          "internalType": "address",
          "name": "",
          "type": "address"
        },
        {
          "internalType": "uint256",
          "name": "",
          "type": "uint256"
        },
        {
          "internalType": "bytes",
          "name": "",
          "type": "bytes"
        }
      ],
      "name": "onERC721Received",
      "outputs": [
        {
          "internalType": "bytes4",
          "name": "",
          "type": "bytes4"
        }
      ],
      "stateMutability": "nonpayable",
      "type": "function"
    }
  ],
  "bytecode": "0x608060405234801561001057600080fd5b5061034d806100206000396000f3fe608060405234801561001057600080fd5b506004361061002b5760003560e01c8063150b7a0214610030575b600080fd5b61004a60048036038101906100459190610106565b610060565b6040516100579190610190565b60405180910390f35b600063150b7a0260e01b9050949350505050565b6000610087610082846101d0565b6101ab565b90508281526020810184848401111561009f57600080fd5b6100aa848285610269565b509392505050565b6000813590506100c1816102e9565b92915050565b600082601f8301126100d857600080fd5b81356100e8848260208601610074565b91505092915050565b60008135905061010081610300565b92915050565b6000806000806080858703121561011c57600080fd5b600061012a878288016100b2565b945050602061013b878288016100b2565b935050604061014c878288016100f1565b925050606085013567ffffffffffffffff81111561016957600080fd5b610175878288016100c7565b91505092959194509250565b61018a81610213565b82525050565b60006020820190506101a56000830184610181565b92915050565b60006101b56101c6565b90506101c18282610278565b919050565b6000604051905090565b600067ffffffffffffffff8211156101eb576101ea6102a9565b5b6101f4826102d8565b9050602081019050919050565b600061020c8261023f565b9050919050565b60007fffffffff0000000000000000000000000000000000000000000000000000000082169050919050565b600073ffffffffffffffffffffffffffffffffffffffff82169050919050565b6000819050919050565b82818337600083830152505050565b610281826102d8565b810181811067ffffffffffffffff821117156102a05761029f6102a9565b5b80604052505050565b7f4e487b7100000000000000000000000000000000000000000000000000000000600052604160045260246000fd5b6000601f19601f8301169050919050565b6102f281610201565b81146102fd57600080fd5b50565b6103098161025f565b811461031457600080fd5b5056fea2646970667358221220e8e581354484eab554f05f8b885574920565851d121a7d0dcfe64066a1736c6864736f6c63430008030033",
  "immutableReferences": {},
  "source": "// SPDX-License-Identifier: MIT\n\npragma solidity ^0.8.0;\n\nimport \"../IERC721Receiver.sol\";\n\n/**\n * @dev Implementation of the {IERC721Receiver} interface.\n *\n * Accepts all token transfers.\n * Make sure the contract is able to use its token with {IERC721-safeTransferFrom}, {IERC721-approve} or {IERC721-setApprovalForAll}.\n */\ncontract ERC721Holder is IERC721Receiver {\n    /**\n     * @dev See {IERC721Receiver-onERC721Received}.\n     *\n     * Always returns `IERC721Receiver.onERC721Received.selector`.\n     */\n    function onERC721Received(\n        address,\n        address,\n        uint256,\n        bytes memory\n    ) public virtual override returns (bytes4) {\n        return this.onERC721Received.selector;\n    }\n}\n",
  "sourcePath": "@openzeppelin/contracts/token/ERC721/utils/ERC721Holder.sol",
  "compiler": {
    "name": "solc",
    "version": "0.8.3+commit.8d00100c.Emscripten.clang"
  },
  "schemaVersion": "3.4.1",
  "updatedAt": "2021-10-08T12:33:06.473Z",
  "devdoc": {
    "details": "Implementation of the {IERC721Receiver} interface. Accepts all token transfers. Make sure the contract is able to use its token with {IERC721-safeTransferFrom}, {IERC721-approve} or {IERC721-setApprovalForAll}.",
    "kind": "dev",
    "methods": {
      "onERC721Received(address,address,uint256,bytes)": {
        "details": "See {IERC721Receiver-onERC721Received}. Always returns `IERC721Receiver.onERC721Received.selector`."
      }
    },
    "version": 1
  },
  "userdoc": {
    "kind": "user",
    "methods": {},
    "version": 1
  }
}